:04000000B2EF0EF05D
:100008005F82D9CF51F0DACF52F0F3CF53F0F4CF6B
:1000180054F0F6CF55F0F7CF56F0F8CF57F0F5CFAC
:1000280058F00101FF05D8A41CEF00F01EEF00F006
:100038003AEF00F0010EC66F010E8D6F8584000E39
:100048000201C56F000EC46F8794000E046E1E0E69
:10005800036E730E056EB1EC37F0000E0101C66F2A
:10006800000E8D6F8594000EFF6F87840E01CAAB5A
:1000780040EF00F042EF00F014EF02F0CA99CA9B7B
:10008800D10ED46E200ED36E0201E84BE92B0BEC97
:100098002DF060800201404B412B0301D14BD22B44
:1000A800CF4BD02B0001F005D8A45DEF00F05FEF37
:1000B80000F076EF00F002011A4B1B2BD10E1A5DEF
:1000C800070E1B59D8A06BEF00F06DEF00F08BEF17
:1000D80000F0000E1B6F000E1A6F010E0001F16F89
:1000E8008BEF00F002011A4B1B2BE90E1A5D030E71
:1000F8001B59D8A082EF00F084EF00F08BEF00F0DE
:10010800000E1B6F000E1A6F010E0101366F010100
:100118004305D8A492EF00F094EF00F0AAEF00F0A6
:1001280002011E511F11D8A49CEF00F09EEF00F0B1
:10013800A7EF00F0000E1F6F000E1E6F000E0101EA
:10014800436FAAEF00F01E07D8A01F070201415114
:1001580009E10A0E405DD8A0B4EF00F0B6EF00F058
:1001680083EF01F0000E416F000E406F0101155141
:100178001611D8B4C2EF00F0C4EF00F036EF01F06A
:100188008B0E0001E25D020EE359D8A0CEEF00F01D
:10019800D0EF00F029EF01F0FA51D8A4D6EF00F023
:1001A800D8EF00F029EF01F001017B51D8A4DFEF6F
:1001B80000F0E1EF00F029EF01F04D0E5D18D8A432
:1001C800E8EF00F0EAEF00F0EDEF00F00201464B37
:1001D800472B15C101F016C102F0000E046E640E23
:1001E800036E37EC3EF001500201465D025047595C
:1001F800D8A001EF01F003EF01F049EF01F0000191
:10020800F751D8A40AEF01F00CEF01F049EF01F023
:100218004D0E5D18D8A413EF01F015EF01F049EF6A
:1002280001F085848794000E0201476F000E466F27
:10023800010E0001F76F010E01017C6F000E020133
:10024800436F000E426F49EF01F00001F751D8A447
:1002580030EF01F032EF01F049EF01F08594878427
:1002680049EF01F015511611D8A43DEF01F03FEF09
:1002780001F049EF01F085948784000E0001F76FC3
:10028800000E0201476F000E466F0001F705D8A463
:1002980050EF01F052EF01F083EF01F044C201F09A
:1002A80045C202F0000E046E5A0E036E37EC3EF0A3
:1002B80001C007F002C008F0000E0A6E640E096E55
:1002C80071EC3BF007500001E25D0850E359D8B0EB
:1002D80070EF01F072EF01F083EF01F001017C5142
:1002E800D8A479EF01F07BEF01F083EF01F0000E65
:1002F8000201476F000E466F000E0001F76F020102
:10030800E95109E10A0EE85DD8A08DEF01F08FEF01
:1003180001F0A5EF01F0010E0101A96F02014E5194
:100328004F11D8A49AEF01F09CEF01F09EEF01F075
:10033800A1EF01F04E07D8A04F07000EE96F000E9D
:10034800E86F0001E051E111D8B4ADEF01F0AFEF73
:1003580001F0B4EF01F0E007D8A0E107B8EF01F031
:10036800000EE16F000EE06FFA05D8A4BEEF01F0B1
:10037800C0EF01F014EF02F00201BA4BBB2BE80EFC
:10038800BA5D030EBB59D8A0CCEF01F0CEEF01F057
:1003980014EF02F0000EBB6F000EBA6F0001EA4BBB
:1003A800EB2BEB5109E13C0EEA5DD8A0DEEF01F042
:1003B800E0EF01F0E6EF01F0000EEB6F000EEA6FE0
:1003C800EC4BED2BED5109E13C0EEC5DD8A0EFEFC5
:1003D80001F0F1EF01F0FBEF01F0000EED6F000E00
:1003E800EC6F000EEB6F000EEA6FE84BE92BE9515A
:1003F80009E1630EE85DD8A004EF02F006EF02F011
:1004080014EF02F0000EED6F000EEC6F000EEB6FB4
:10041800000EEA6F000EE96F000EE86F14EF02F0AD
:100428000E01C3A11AEF02F01CEF02F03FEF0CF02F
:10043800CBA121EF02F023EF02F03FEF0CF064CFE5
:10044800E6F00001E76BE651E76FE66B6350E625DF
:10045800E66F000EE721E76FFE51D8A436EF02F0F1
:1004680038EF02F03AEF03F0E6C0A8F2E7C0A9F2CD
:100478000201A851030180270201A9510301812328
:10048800000E8223000E832302016E4B6F2B6F51E7
:1004980009E1100E6E5DD8A054EF02F056EF02F09D
:1004A800A4EF02F080C359F081C35AF059C04BF051
:1004B8005AC04CF0040E4D6ED8904C324B324D2E33
:1004C80060EF02F04BC059F04CC05AF08F0E136E1B
:1004D800530E146EC40E156E3F0E166E59C001F001
:1004E8005AC002F0036A046A000E1AEC30F001C028
:1004F8000FF002C010F003C011F004C012F05BEC62
:1005080027F00FC041F010C042F011C043F012C0F4
:1005180044F0C3EC35F041C059F042C05AF0010E26
:100528000101E46F000E0301806F000E816F000E61
:10053800826F000E836F000E02016F6F000E6E6FE8
:10054800E6C0A0F2E7C0A1F2A051030170270201A2
:10055800A15103017123000E7223000E73230201BF
:100568006C4B6D2B6D5109E1400E6C5DD8A0BFEF4F
:1005780002F0C1EF02F032EF03F070C3E2F071C392
:10058800E3F0E2C04BF0E3C04CF0060E4D6ED8909D
:100598004C324B324D2ECBEF02F04BC0E2F04CC048
:1005A800E3F08F0E136E530E146EC40E156E3F0ECD
:1005B800166EE2C001F0E3C002F0036A046A000E9E
:1005C8001AEC30F001C00FF002C010F003C011F0B7
:1005D80004C012F05BEC27F00FC041F010C042F0ED
:1005E80011C043F012C044F0C3EC35F041C0E2F052
:1005F80042C0E3F001017C05D8A405EF03F007EF42
:1006080003F021EF03F00201424B432B435109E170
:10061800030E425DD8A013EF03F015EF03F021EFAE
:1006280003F0E2C044F2E3C045F2000E01017C6F22
:10063800000E0201436F000E426F010E0101B56FFB
:10064800000E0301706F000E716F000E726F000EC6
:10065800736F000E02016D6F000E6C6F010E0001CA
:10066800FE6F010E0F015F6F3DEF0CF0FE05D8A481
:1006780040EF03F042EF03F087EF04F0E6C0A6F284
:10068800E7C0A7F20201A65103017C270201A75186
:1006980003017D23000E7E23000E7F230101BD2B65
:1006A8003F0EBD655AEF03F05CEF03F07FEF04F0F7
:1006B8007CC3E4F07DC3E5F0E4C04BF0E5C04CF04A
:1006C800060E4D6ED8904C324B324D2E66EF03F02D
:1006D8004BC0E4F04CC0E5F00001E55107E1510ED4
:1006E800E45DD8B07AEF03F07CEF03F0B9EF03F0E4
:1006F800000E2C6E000E2D6E200E2E6E410E2F6EEB
:100708009A0E136E990E146EA90E156E400E166E83
:10071800E4C001F0E5C002F0036A046A000E1AECB6
:1007280030F001C00FF002C010F003C011F004C097
:1007380012F05BEC27F00FC028F010C029F011C0B0
:100748002AF012C02BF03EEC2BF028C041F029C053
:1007580042F02AC043F02BC044F0C3EC35F041C04E
:10076800E4F042C0E5F047EF04F0E55109E1510E2D
:10077800E45DD8A0C2EF03F0C4EF03F00CEF04F07F
:10078800E55107E1F60EE45DD8B0CDEF03F0CFEF09
:1007980003F00CEF04F0000E2C6E000E2D6E200EF0
:1007A8002E6E410E2F6E660E136E660E146EA60E1A
:1007B800156E400E166EE4C001F0E5C002F0036A43
:1007C800046A000E1AEC30F001C00FF002C010F0FD
:1007D80003C011F004C012F05BEC27F00FC028F042
:1007E80010C029F011C02AF012C02BF03EEC2BF0FB
:1007F80028C041F029C042F02AC043F02BC044F081
:10080800C3EC35F041C0E4F042C0E5F047EF04F036
:10081800000E2C6E000E2D6E200E2E6E410E2F6EC9
:10082800000E136E000E146EA00E156E400E166E9E
:10083800E4C001F0E5C002F0036A046A000E1AEC95
:1008480030F001C00FF002C010F003C011F004C076
:1008580012F05BEC27F00FC028F010C029F011C08F
:100868002AF012C02BF03EEC2BF028C041F029C032
:1008780042F02AC043F02BC044F0C3EC35F041C02D
:10088800E4F042C0E5F0330E136E330E146E130E0F
:10089800156E400E166EE4C001F0E5C002F0036A62
:1008A800046A000E1AEC30F001C00FF002C010F01C
:1008B80003C011F004C012F05BEC27F00FC041F048
:1008C80010C042F011C043F012C044F0C3EC35F040
:1008D80041C0E4F042C0E5F0010E0101B66F000E20
:1008E80003017C6F000E7D6F000E7E6F000E7F6F20
:1008F800000E0101BD6F0D0E0001FE6F0D0E0F0100
:100908005F6F3DEF0CF00D0EFE19D8A48EEF04F0CA
:1009180090EF04F0C2EF06F0E6C0B2F2E7C0B3F21F
:100928000201B2511427B3511523000E1623000EED
:1009380017236A4B6B2B6B5109E1200E6A5DD8A017
:10094800A8EF04F0AAEF04F0BAEF06F014C24BF0D7
:1009580015C24CF016C24DF017C24EF0060EBAEF93
:1009680004F0D8904E324D324C324B32E82EB5EF6F
:1009780004F04BC014F24CC015F24DC016F24EC034
:1009880017F214C2DEF015C2DFF0F60E136E280E51
:10099800146E9C0E156E400E166EDEC001F0DFC0A0
:1009A80002F0036A046A000E1AEC30F001C00FF07E
:1009B80002C010F003C011F004C012F05BEC27F085
:1009C8000FC041F010C042F011C043F012C044F013
:1009D800C3EC35F041C0DEF042C0DFF0DEC02AF2E1
:1009E800DFC02BF2DEC001F0DFC002F0036A046A48
:1009F800000E1AEC30F001C010F202C011F203C070
:100A080012F204C013F2000E136E400E146E1C0E88
:100A1800156E460E166E10C20FF011C210F012C2FB
:100A280011F013C212F05BEC27F00FC028F010C0D1
:100A380029F011C02AF012C02BF010C215F011C213
:100A480016F012C217F013C218F0000E116E400E05
:100A5800126E9C0E136E450E146EEAEC3CF011C03B
:100A68002CF012C02DF013C02EF014C02FF03EEC65
:100A78002BF028C060F329C061F32AC062F32BC0B1
:100A880063F3000E136E400E146E9C0E156E450E29
:100A9800166E60C30FF061C310F062C311F063C338
:100AA80012F05BEC27F00FC028F010C029F011C03D
:100AB8002AF012C02BF0000E2C6E200E2D6E990E0F
:100AC8002E6E460E2F6E3EEC2BF028C010F229C079
:100AD80011F22AC012F22BC013F210C241F011C257
:100AE80042F012C243F013C244F0C3EC35F041C0E7
:100AF800DEF042C0DFF05E04D8A485EF05F087EF92
:100B080005F092EF05F0000E03016C6F000E6D6F9B
:100B1800180E6E6F410E6F6FB8EF05F0020E5E187B
:100B2800D8A499EF05F09BEF05F0A6EF05F0660E47
:100B380003016C6F660E6D6FC60E6E6F400E6F6FA1
:100B4800B8EF05F0030E5E18D8A4ADEF05F0AFEFCF
:100B580005F0B8EF05F0000E03016C6F000E6D6F25
:100B6800800E6E6F400E6F6F0F0E02013F6F3C0ECE
:100B78003E6F2A513E5D2B513F59D8A0C6EF05F074
:100B8800C8EF05F099EF06F0010E01015F6F6CC325
:100B98002CF06DC32DF06EC32EF06FC32FF0DEC0A6
:100BA80001F0DFC002F0036A046A000E1AEC30F0AC
:100BB80001C028F002C029F003C02AF004C02BF0BD
:100BC8003EEC2BF028C041F029C042F02AC043F087
:100BD8002BC044F0C3EC35F041C0DEF042C0DFF07A
:100BE8005E04D8A4FAEF05F0FCEF05F021EF06F05B
:100BF8000001DF5107E10B0EDE5DD8B006EF06F00D
:100C080008EF06F00CEF06F0000EDF6F0A0EDE6F3D
:100C1800DF5109E1FA0EDE5DD8A015EF06F017EFF7
:100C280006F01BEF06F0000EDF6FFA0EDE6FDEC077
:100C38005BF0DFC05CF083EF06F0020E5E18D8A40C
:100C480028EF06F02AEF06F02DEF06F0000E00015F
:100C5800FB6F020E5E18D8A434EF06F036EF06F0EC
:100C680059EF06F0010E0001FB6FDF5107E10B0E93
:100C7800DE5DD8B042EF06F044EF06F048EF06F02C
:100C8800000EDF6F0A0EDE6FDF5109E1C80EDE5D70
:100C9800D8A051EF06F053EF06F01BEF06F0000E58
:100CA800DF6FC80EDE6F1BEF06F0030E5E18D8A4C8
:100CB80060EF06F062EF06F083EF06F00001DF5107
:100CC80007E1150EDE5DD8B06CEF06F06EEF06F0AA
:100CD80072EF06F0000EDF6F140EDE6F580EDE5D49
:100CE800020EDF59D8A07BEF06F07DEF06F01BEF70
:100CF80006F0020EDF6F580EDE6F1BEF06F05B503A
:100D080002014C1909E15C504D19D8B48EEF06F078
:100D180090EF06F0ADEF06F05BC04CF25CC04DF210
:100D2800010E0101AB6FADEF06F001015F05D8A41C
:100D3800A0EF06F0A2EF06F0AAEF06F0000E0201FF
:100D48002D6F000E2C6F010E0001F96F000E0101CE
:100D58005F6F000E0201146F000E156F000E166F04
:100D6800000E176F000E6B6F000E6A6F020E000107
:100D7800FE6F020E0F015F6F3DEF0CF0020EFE19C1
:100D8800D8A4C9EF06F0CBEF06F041EF07F0E6C0B4
:100D9800A4F2E7C0A5F20201F04BF12BA451030124
:100DA80078270201A55103017923000E7A23000E4A
:100DB8007B230101BC2B3F0EBC65E5EF06F0E7EF96
:100DC80006F033EF07F078C323F179C324F123C188
:100DD8004BF024C14CF0060E4D6ED8904C324B327D
:100DE8004D2EF1EF06F04BC023F14CC024F1F60E66
:100DF800136E280E146E9C0E156E400E166E23C1CF
:100E080001F024C102F0036A046A000E1AEC30F003
:100E180001C00FF002C010F003C011F004C012F0BE
:100E28005BEC27F00FC041F010C042F011C043F056
:100E380012C044F0C3EC35F041C023F142C024F1A4
:100E4800010E0101B26F000E0301786F000E796F79
:100E5800000E7A6F000E7B6F000E0101BC6F74C22A
:100E680001F075C202F0C7EC31F0150E0001FE6FFB
:100E7800150E0F015F6F3DEF0CF0150EFE19D8A48B
:100E880048EF07F04AEF07F0BBEF07F0E6C0A2F221
:100E9800E7C0A3F20201A251030174270201A35182
:100EA80003017523000E7623000E77230101BB2B67
:100EB8003F0EBB6562EF07F064EF07F0ADEF07F098
:100EC80074C321F175C322F121C14BF022C14CF04A
:100ED800060E4D6ED8904C324B324D2E6EEF07F009
:100EE8004BC021F14CC022F1F60E136E280E146E81
:100EF8009C0E156E400E166E21C101F022C102F043
:100F0800036A046A000E1AEC30F001C00FF002C048
:100F180010F003C011F004C012F05BEC27F00FC012
:100F280041F010C042F011C043F012C044F0C3ECCD
:100F380035F041C021F142C022F1000E0301746F67
:100F4800000E756F000E766F000E776F000E0101B0
:100F5800BB6F70C201F071C202F0FAEC3AF0040EF5
:100F68000001FE6F040E0F015F6F3DEF0CF0040EE1
:100F7800FE19D8A4C2EF07F0C4EF07F0C5EF09F0D7
:100F8800E6C038F2E7C039F2020138510C2739516E
:100F98000D23000E0E23000E0F2301015F51D8A46C
:100FA800D8EF07F0DAEF07F0DDEF07F00201364B74
:100FB800372B0201375109E1100E365DD8A0E7EF53
:100FC80007F0E9EF07F0BDEF09F00CC24BF00DC2D6
:100FD8004CF00EC24DF00FC24EF0050EF9EF07F0BF
:100FE800D8904E324D324C324B32E82EF4EF07F0A7
:100FF8004BC00CF24CC00DF24DC00EF24EC00FF2B9
:101008000CC2DCF00DC2DDF0F60E136E280E146E65
:101018009C0E156E400E166EDCC001F0DDC002F0AD
:10102800036A046A000E1AEC30F001C00FF002C027
:1010380010F003C011F004C012F05BEC27F00FC0F1
:1010480041F010C042F011C043F012C044F0C3ECAC
:1010580035F041C0DCF042C0DDF0DCC0CBF3DDC0D0
:10106800CCF35E04D8A43BEF08F03DEF08F06FEF37
:1010780008F0DCC007F0DDC008F0000E0A6E130EA1
:10108800096E71EC3BF007C0DCF008C0DDF0DCC095
:101098005BF0DDC05CF05C5007E10B0E5B5CD8B028
:1010A80058EF08F05AEF08F05EEF08F0000E5C6E9B
:1010B8000A0E5B6E5C5009E1FA0E5B5CD8A067EF24
:1010C80008F069EF08F091EF09F0000E5C6EFA0E77
:1010D8005B6E91EF09F0020E5E18D8A476EF08F067
:1010E80078EF08F0D6EF08F00001EE51D8A47FEFB2
:1010F80008F081EF08F0D6EF08F0FB51D8A487EF8D
:1011080008F089EF08F0D6EF08F0330E2C6E330E96
:101118002D6E430E2E6E410E2F6EDCC001F0DDC029
:1011280002F0036A046A000E1AEC30F001C028F0DD
:1011380002C029F003C02AF004C02BF03EEC2BF0CB
:1011480028C041F029C042F02AC043F02BC044F027
:10115800C3EC35F041C0DCF042C0DDF0DCC05BF030
:10116800DDC05CF05C5007E10B0E5B5CD8B0BFEFF4
:1011780008F0C1EF08F0C5EF08F0000E5C6E0A0E2B
:101188005B6E900E5B5C010E5C58D8A0CEEF08F049
:10119800D0EF08F091EF09F0010E5C6E900E5B6ED7
:1011A80091EF09F0020E5E18D8A4DDEF08F0DFEF2A
:1011B80008F03DEF09F00001EE51D8A4E6EF08F081
:1011C800E8EF08F03DEF09F0FB05D8A4EEEF08F0D2
:1011D800F0EF08F03DEF09F0330E2C6E330E2D6E54
:1011E800430E2E6E410E2F6EDCC001F0DDC002F002
:1011F800036A046A000E1AEC30F001C028F002C03D
:1012080029F003C02AF004C02BF03EEC2BF028C0D4
:1012180041F029C042F02AC043F02BC044F0C3EC8F
:1012280035F041C0DCF042C0DDF0DCC05BF0DDC071
:101238005CF05C5007E10B0E5B5CD8B026EF09F060
:1012480028EF09F02CEF09F0000E5C6E0A0E5B6EB9
:101258005C5009E1C80E5B5CD8A035EF09F037EFA8
:1012680009F091EF09F0000E5C6EC80E5B6E91EF0D
:1012780009F0030E5E18D8A444EF09F046EF09F010
:1012880091EF09F0000E2C6E000E2D6E000E2E6EE2
:10129800410E2F6EDCC001F0DDC002F0036A046A63
:1012A800000E1AEC30F001C028F002C029F003C08B
:1012B8002AF004C02BF03EEC2BF028C041F029C0E6
:1012C80042F02AC043F02BC044F0C3EC35F041C0D3
:1012D800DCF042C0DDF0DCC05BF0DDC05CF05C50EF
:1012E80007E1150E5B5CD8B07CEF09F07EEF09F0E2
:1012F80082EF09F0000E5C6E140E5B6E580E5B5C9C
:10130800020E5C58D8A08BEF09F08DEF09F091EF31
:1013180009F0020E5C6E580E5B6E5B5002012C19D0
:1013280009E15C502D19D8B49CEF09F09EEF09F043
:10133800B0EF09F00001EE51D8A4A5EF09F0A7EF2E
:1013480009F0B0EF09F05BC02CF25CC02DF2010E81
:101358000101AE6F010E456F000E0201376F000EDE
:10136800366F000E0C6F000E0D6F000E0E6F000E24
:101378000F6F200E0001FE6F200E0F015F6F3DEF13
:101388000CF0200EFE19D8A4CCEF09F0CEEF09F02E
:101398004FEF0BF0E6C034F2E7C035F202013451EA
:1013A800082735510923000E0A23000E0B23324B60
:1013B800332B335109E1200E325DD8A0E6EF09F056
:1013C800E8EF09F047EF0BF008C24BF009C24CF008
:1013D8000AC24DF00BC24EF0060EF8EF09F0D89095
:1013E8004E324D324C324B32E82EF3EF09F04BC0FF
:1013F80008F24CC009F24DC00AF24EC00BF208C206
:1014080013F109C214F1F60E136E280E146E9C0E19
:10141800156E400E166E13C101F014C102F0036A76
:10142800046A000E1AEC30F001C00FF002C010F090
:1014380003C011F004C012F05BEC27F00FC041F0BC
:1014480010C042F011C043F012C044F0C3EC35F0B4
:1014580041C013F142C014F113C107F014C108F0E0
:10146800000E0A6E310E096E71EC3BF007C013F1E5
:1014780008C014F10001F505D8A445EF0AF047EFBC
:101488000AF0E1EF0AF0F451D8A44DEF0AF04FEF5B
:101498000AF0E1EF0AF008C201F009C202F00AC23C
:1014A80003F00BC204F0000E1AEC30F001C000F299
:1014B80002C001F203C002F204C003F200C228F025
:1014C80001C229F002C22AF003C22BF0EC0E2C6EE6
:1014D800510E2D6E380E2E6E400E2F6E3EEC2BF0F8
:1014E80028C000F229C001F22AC002F22BC003F280
:1014F80000C228F001C229F002C22AF003C22BF070
:10150800000E2C6E000E2D6E440E2E6E420E2F6EA7
:101518003EEC2BF028C000F229C001F22AC002F2EA
:101528002BC003F200C200F101C201F102C202F1B4
:1015380003C203F1000E136E000E146EC80E156E72
:10154800420E166E00C10FF001C110F002C111F079
:1015580003C112F05BEC27F00FC041F010C042F05D
:1015680011C043F012C044F0C3EC35F041C0DAF0CA
:1015780042C0DBF0DAC001F0DBC002F0036A046AA3
:10158800000E1AEC30F001C028F002C029F003C0A8
:101598002AF004C02BF0000E2C6E000E2D6EC80E23
:1015A8002E6E420E2F6E3EEC2BF028C000F129C0A3
:1015B80001F12AC002F12BC003F101014205D8A4B0
:1015C800E8EF0AF0EAEF0AF0F2EF0AF013C122F2AC
:1015D80014C123F222C2B5F323C2B6F31351141176
:1015E800D8A4F9EF0AF0FBEF0AF001EF0BF0000EB8
:1015F800146F000E136F10EF0BF0145109E1640E15
:10160800135DD8A00AEF0BF00CEF0BF010EF0BF006
:10161800000E146F640E136F0001EE51D8A417EF7B
:101628000BF019EF0BF01FEF0BF013C12BF114C1E6
:101638002CF123EF0BF03AC22BF13BC22CF1010144
:101648002B51020148190BE101012C5102014919E2
:10165800D8B431EF0BF033EF0BF03AEF0BF02BC1AE
:1016680048F22CC149F2010E0101AE6F000E0201D1
:10167800336F000E326F000E086F000E096F000EF8
:101688000A6F000E0B6F210E0001FE6F210E0F0175
:101698005F6F3DEF0CF0210EFE19D8A456EF0BF04A
:1016A80058EF0BF03DEF0CF0E6C030F2E7C031F236
:1016B80002013051042731510523000E0623000E84
:1016C80007232E4B2F2B2F5109E1200E2E5DD8A07A
:1016D80070EF0BF072EF0BF035EF0CF004C24BF02B
:1016E80005C24CF006C24DF007C24EF0060E82EF5E
:1016F8000BF0D8904E324D324C324B32E82E7DEF03
:101708000BF04BC004F24CC005F24DC006F24EC0BF
:1017180007F204C211F105C212F1F60E136E280E7B
:10172800146E9C0E156E400E166E11C101F012C19A
:1017380002F0036A046A000E1AEC30F001C00FF0E0
:1017480002C010F003C011F004C012F05BEC27F0E7
:101758000FC041F010C042F011C043F012C044F075
:10176800C3EC35F041C011F142C012F111C107F0CC
:1017780012C108F0000E0A6E310E096E71EC3BF0D2
:1017880007C011F108C012F10001F405D8A4CFEF89
:101798000BF0D1EF0BF0DFEF0BF0F551D8A4D7EF3A
:1017A8000BF0D9EF0BF0DFEF0BF0010EF36F11C167
:1017B80020F212C121F2010111511211D8A4E7EF50
:1017C8000BF0E9EF0BF0EFEF0BF0000E126F000ECD
:1017D800116FFEEF0BF0125109E1640E115DD8A0F4
:1017E800F8EF0BF0FAEF0BF0FEEF0BF0000E126FB4
:1017F800640E116F0001EE51D8A405EF0CF007EF4D
:101808000CF00DEF0CF011C12DF112C12EF111EFFA
:101818000CF03CC22DF13DC22EF101012D51020107
:101828004A190BE101012E5102014B19D8B41FEFDF
:101838000CF021EF0CF028EF0CF02DC14AF22EC16C
:101848004BF2010E0101AE6F000E02012F6F000E68
:101858002E6F000E046F000E056F000E066F000E4F
:10186800076F000E0001FE6F000E0F015F6F3DEF66
:101878000CF00E01CB91CDAB44EF0CF046EF0CF021
:1018880045EF0EF0C59B99CFF2F01CEF0EF03F0E1E
:101898000001F219D8A453EF0CF055EF0CF06DEFDE
:1018A8000CF0F051D8A45BEF0CF05DEF0CF06DEF8D
:1018B8000CF0040EEE19D8A464EF0CF066EF0CF0EF
:1018C8006DEF0CF0010E0101386F000E376F88EFD5
:1018D8000CF02B0EF219D8A474EF0CF076EF0CF084
:1018E80085EF0CF0F051D8A47CEF0CF07EEF0CF0F3
:1018F80085EF0CF0020E0101386F000E376F88EF8C
:101908000CF0000E0101386F000E376F42EF0EF039
:10191800040E376192EF0CF094EF0CF042EF0EF0EA
:10192800040E3725D96EDA6A010EDA22F2C0DFFF1B
:10193800372B040E3719D8A4A4EF0CF0A6EF0CF03F
:1019480042EF0EF0410E0419D8A4ADEF0CF0AFEF42
:101958000CF0CCEF0CF006510A0DF3CF4BF0F4CF9E
:101968004CF00551640DF3CF4DF0F4CF4EF04B50D1
:101978004D244F6E4C504E20506E07514F26000E8E
:101988005022300E4F2402011C6FEB0E50201D6FA9
:10199800480E01010419D8A4D4EF0CF0D6EF0CF0CE
:1019A800F3EF0CF006510A0DF3CF4BF0F4CF4CF0E7
:1019B8000551640DF3CF4DF0F4CF4EF04B504D244C
:1019C8004F6E4C504E20506E07514F26000E50223D
:1019D800300E4F2402013C6FEB0E50203D6F460E37
:1019E80001010419D8A4FBEF0CF0FDEF0CF01AEF7D
:1019F8000DF006510A0DF3CF4BF0F4CF4CF0055122
:101A0800640DF3CF4DF0F4CF4EF04B504D244F6E94
:101A18004C504E20506E07514F26000E5022300E6B
:101A28004F2402013A6FEB0E50203B6F020E5E18F6
:101A3800D8A421EF0DF023EF0DF04EEF0DF00001CB
:101A4800FB51D8A42AEF0DF02CEF0DF04EEF0DF05E
:101A58001CC25BF01DC25CF05C5007E10B0E5B5CC6
:101A6800D8B039EF0DF03BEF0DF03FEF0DF0000E61
:101A78005C6E0A0E5B6E900E5B5C010E5C58D8A023
:101A880048EF0DF04AEF0DF04EEF0DF0010E5C6ED1
:101A9800900E5B6E020E5E18D8A455EF0DF057EF4E
:101AA8000DF082EF0DF00001FB05D8A45EEF0DF0FC
:101AB80060EF0DF082EF0DF01CC25BF01DC25CF010
:101AC8005C5007E10B0E5B5CD8B06DEF0DF06FEF6B
:101AD8000DF073EF0DF0000E5C6E0A0E5B6E5C503D
:101AE80009E1C80E5B5CD8A07CEF0DF07EEF0DF02D
:101AF80082EF0DF0000E5C6EC80E5B6E5B5002014B
:101B08002C1909E15C502D19D8B48DEF0DF08FEF29
:101B18000DF098EF0DF05BC02CF25CC02DF2010EB9
:101B28000101AE6F010E456F000E0101386F42EFE3
:101B38000EF05F0E0001F219D8A4A5EF0DF0A7EF83
:101B48000DF0B4EF0DF0F051D8A4ADEF0DF0AFEFFC
:101B58000DF0B4EF0DF0030E0101386F42EF0EF0F7
:101B6800020E0101386F42EF0EF0430E0001F21928
:101B7800D8A4C1EF0DF0C3EF0DF0D0EF0DF0F05188
:101B8800D8A4C9EF0DF0CBEF0DF0D0EF0DF0040E97
:101B98000101386F42EF0EF0440EF219D8A4D7EFC6
:101BA8000DF0D9EF0DF098EF0DF0F051D8A4DFEF5C
:101BB8000DF0E1EF0DF098EF0DF0050E0101386F13
:101BC80042EF0EF0440E0001F219D8A4EEEF0DF02A
:101BD800F0EF0DF0CBEF0DF0F051D8A4F6EF0DF0CB
:101BE800F8EF0DF0CBEF0DF0010EEE6F000E0101D6
:101BF800386F000E376F42EF0EF0540E0001F219E5
:101C0800D8A409EF0EF00BEF0EF0E1EF0DF0F05154
:101C1800D8A411EF0EF013EF0EF0E1EF0DF0020E65
:101C2800EE6F000E0101386F000E376F42EF0EF0B5
:101C3800010138514B6E4C6A4C50000AD8B427EF5A
:101C48000EF042EF0EF04B50000AD8B44BEF0CF0F8
:101C5800010AD8B48CEF0CF0030AD8B49DEF0DF04C
:101C6800010AD8B4B9EF0DF0070AD8B4E6EF0DF0C1
:101C7800010AD8B401EF0EF042EF0EF00E01CD9B31
:101C8800C58BCDAF4AEF0EF04CEF0EF0A0EF0EF083
:101C9800C59FCD9F99CE3EF188EF0EF0400E3E19BC
:101CA800D8A459EF0EF05BEF0EF061EF0EF0010EC5
:101CB800356F000E346F9EEF0EF0000E356F9EEFFD
:101CC8000EF0080E34616BEF0EF06DEF0EF09EEF24
:101CD8000EF0000E3425D96EDA6A030EDA223EC100
:101CE800DFFF070E3419D8A47CEF0EF07EEF0EF05C
:101CF80085EF0EF0010E3D6F000E356F00C307F142
:101D0800086B342B9EEF0EF0010135514B6E4C6A77
:101D18004C50000AD8B493EF0EF09EEF0EF04B50E3
:101D2800000AD8B452EF0EF0010AD8B465EF0EF0ED
:101D38009EEF0EF00E01C58F58C0F5FF57C0F8FF93
:101D480056C0F7FF55C0F6FF54C0F4FF53C0F3FF69
:101D580052C0DAFF51C0D9FF5F92110046EF36F04A
:101D680093EC3EF0010E0101436F270E02011F6F35
:101D7800100E1E6F020E5E6EE6EC3DF0000E0001C6
:101D8800696F6869A0EC3CF07B0E00016819691165
:101D9800D8A4D1EF0EF0D3EF0EF09AEF0FF0000EAB
:101DA800696F280E686FA0EC3CF0000168515E6E08
:101DB800000E696F1E0E686FA0EC3CF068C0EAF078
:101DC80069C0EBF0000E0001696F210E686FA0EC8E
:101DD8003CF068C0ECF069C0EDF0000E0001696FDE
:101DE800240E686FA0EC3CF068C0E8F069C0E9F028
:101DF800000E0001696F2E0E686FA0EC3CF068C001
:101E0800DAF069C0DBF02D0E0001DA5D010EDB5956
:101E1800D8A011EF0FF013EF0FF01EEF0FF08A0E9E
:101E2800DA5D020EDB59D8A01CEF0FF01EEF0FF0A1
:101E38005AEF0FF0020E746F2C0E736F000E766F50
:101E48002E0E756F4FEC3DF0000E0001696F2E0EDF
:101E5800686FA0EC3CF068C0DAF069C0DBF0DAC06B
:101E680066F0DBC067F00001686B696B000E3EEC42
:101E78002FF066C0A5F067C0A6F068C0A7F069C0DB
:101E8800A8F0000E0001A96F000EAA6FC80EAB6F74
:101E9800420EAC6F70EC29F0A5C000F1A6C001F1AC
:101EA800A7C002F1A8C003F17EEF0FF0DAC066F018
:101EB800DBC067F0686B696B000E3EEC2FF066C004
:101EC800A5F067C0A6F068C0A7F069C0A8F0000E2A
:101ED8000001A96F000EAA6FC80EAB6F420EAC6F5F
:101EE80070EC29F0A5C000F1A6C001F1A7C002F16D
:101EF800A8C003F1000E0001696F300E686FA0ECF6
:101F08003CF068C00DF169C00EF10DC115F10EC1AC
:101F180016F1000E0001696F320E686FA0EC3CF0FC
:101F280068C0B5F369C0B6F3F7EF10F05EC073F0A0
:101F3800746B000E766F280E756F4FEC3DF0000E37
:101F48000001746F000E736F000E766F1E0E756FB2
:101F58004FEC3DF0000E0001746F000E736F000E21
:101F6800766F210E756F4FEC3DF0000E0001746F17
:101F7800000E736F000E766F240E756F4FEC3DF0F8
:101F8800020E0001746F350E736F000E766F2E0E01
:101F9800756F4FEC3DF0000E0101166F020E156FC4
:101FA80015C173F016C174F0000E0001766F300E83
:101FB800756F4FEC3DF0000E0001746F7B0E736F70
:101FC800000E766F75694FEC3DF0000E0001696FE9
:101FD800280E686FA0EC3CF0000168515E6E000EA0
:101FE800696F1E0E686FA0EC3CF068C0EAF069C02B
:101FF800EBF00001EA29EB11D8B405EF10F007EF78
:1020080010F012EF10F0EB5109E13D0EEA5DD8A097
:1020180010EF10F012EF10F016EF10F0000EEB6F4B
:10202800000EEA6F000E696F210E686FA0EC3CF09D
:1020380068C0ECF069C0EDF00001EC29ED11D8B4EE
:1020480028EF10F02AEF10F035EF10F0ED5109E10C
:102058003D0EEC5DD8A033EF10F035EF10F039EFFE
:1020680010F0000EED6F000EEC6F000E696F240E7D
:10207800686FA0EC3CF068C0E8F069C0E9F00001C6
:10208800E829E911D8B44BEF10F04DEF10F058EFF4
:1020980010F0E95109E1640EE85DD8A056EF10F0A0
:1020A80058EF10F05CEF10F0000EE96F000EE86FCB
:1020B800000E696F2E0E686FA0EC3CF068C0DAF075
:1020C80069C0DBF02D0E0001DA5D010EDB59D8A0E6
:1020D80070EF10F072EF10F07DEF10F08A0EDA5DFD
:1020E800020EDB59D8A07BEF10F07DEF10F0B9EFAE
:1020F80010F0020E746F2C0E736F000E766F2E0E9A
:10210800756F4FEC3DF0000E0001696F2E0E686F81
:10211800A0EC3CF068C0DAF069C0DBF0DAC066F029
:10212800DBC067F00001686B696B000E3EEC2FF0B6
:1021380066C0A5F067C0A6F068C0A7F069C0A8F09F
:10214800000E0001A96F000EAA6FC80EAB6F420EF9
:10215800AC6F70EC29F0A5C000F1A6C001F1A7C0D2
:1021680002F1A8C003F1DDEF10F0DAC066F0DBC0C1
:1021780067F0686B696B000E3EEC2FF066C0A5F047
:1021880067C0A6F068C0A7F069C0A8F0000E0001FB
:10219800A96F000EAA6FC80EAB6F420EAC6F70EC41
:1021A80029F0A5C000F1A6C001F1A7C002F1A8C09E
:1021B80003F1000E0001696F300E686FA0EC3CF06F
:1021C80068C015F169C016F115C10DF116C10EF1FF
:1021D800000E0001696F320E686FA0EC3CF068C019
:1021E800B5F369C0B6F30001F651D8A4FEEF10F0BC
:1021F80000EF11F0ACEF11F05B0ED66F410ED76F08
:10220800440ED86F520ED96F5B0ED26F5B0ED36F30
:102218005B0ED46F5B0ED56F000E636F050E626F99
:10222800730E646F3CEC37F00001FD855B0ED66FD2
:10223800520ED76F310ED86F300ED96F5B0ED26F3A
:102248005B0ED36F5B0ED46F5B0ED56F000E636FA2
:10225800050E626F730E646F3CEC37F00001FD955C
:102268005E04D8A43AEF11F03CEF11F056EF11F0EC
:102278005B0ED66F320ED76F350ED86F300ED96F12
:102288005B0ED26F5B0ED36F5B0ED46F5B0ED56F98
:10229800000E636F050E626F730E646F3CEC37F0CF
:1022A800ACEF11F0020E5E18D8A45DEF11F05FEFED
:1022B80011F091EF11F08FA264EF11F066EF11F0B9
:1022C80078EF11F05B0ED66F320ED76F300ED86FE5
:1022D800300ED96F5B0ED26F5B0ED36F5B0ED46F6F
:1022E8005B0ED56F4CEF11F08FB27DEF11F07FEFE1
:1022F80011F0ACEF11F05B0ED66F340ED76F300EC5
:10230800D86F300ED96F5B0ED26F5B0ED36F5B0E3A
:10231800D46F5B0ED56F4CEF11F0030E5E18D8A486
:1023280098EF11F09AEF11F0ACEF11F05B0ED66F49
:10233800360ED76F300ED86F300ED96F5B0ED26F56
:102348005B0ED36F5B0ED46F5B0ED56F4CEF11F045
:102358000001FD8D50EC33F0000E02014D6F000EB0
:102368004C6F020E5E18D8A4BCEF11F0BEEF11F04E
:10237800CEEF11F05C5007E1C90E5B5CD8B0C7EF37
:1023880011F0C9EF11F0CEEF11F0000E0101306F1E
:10239800010E2F6F030E5E18D8A4D5EF11F0D7EFFA
:1023A80011F0E7EF11F0C30E5B5C010E5C58D8B07A
:1023B800E0EF11F0E2EF11F0E7EF11F0000E01018C
:1023C800306F010E2F6F010E0101816F09510A1143
:1023D800D8A4F1EF11F0F3EF11F003EF12F00B5165
:1023E8000C11D8A4FAEF11F0FCEF11F003EF12F082
:1023F8002FEC3DF0010E0001F06F08EF12F0000E17
:102408000001F06F000EEE6FAFEC3DF0000E000122
:10241800F16F000E02011B6F000E1A6F000E000113
:10242800EE6F0001F051D8B41CEF12F01EEF12F05D
:1024380020EF12F092EC32F00001EE05D8A427EF5D
:1024480012F029EF12F034EF12F0C00E616FFF0E98
:10245800626F16EC3CF0040E0001EE6F46EF12F0CE
:10246800020EEE19D8A43BEF12F03DEF12F046EF42
:1024780012F0B10E616FFF0E626F16EC3CF0000EA9
:102488000001EE6F01013605D8A44DEF12F04FEFB1
:1024980012F086EF13F0040E0001EE19D8A457EFDE
:1024A80012F059EF12F086EF13F0400E7AEC3EF07E
:1024B800FC0E0001616FFF0E626F16EC3CF05D5080
:1024C8007AEC3EF03B0E7AEC3EF0E00E0001616FD4
:1024D800FF0E626F16EC3CF05BC06DF05CC06EF0F6
:1024E800C2EC36F03B0E7AEC3EF0F00E0001616F64
:1024F800FF0E626F16EC3CF0E2C06DF0E3C06EF0C8
:10250800C2EC36F03B0E7AEC3EF0DC0E0001616F57
:10251800FF0E626F16EC3CF0E4C06DF0E5C06EF0A3
:10252800C2EC36F03B0E7AEC3EF0F80E0001616F1B
:10253800FF0E626F16EC3CF0E8C06DF0E9C06EF07B
:1025480030EC3AF03B0E7AEC3EF0D30E0001616FAE
:10255800FF0E626F16EC3CF0ECC06DF0EDC06EF053
:1025680030EC3AF03B0E7AEC3EF0CE0E0001616F93
:10257800FF0E626F16EC3CF0EAC06DF0EBC06EF037
:1025880030EC3AF03B0E7AEC3EF0E80E0001616F59
:10259800FF0E626F16EC3CF00001F751300F7AEC39
:1025A8003EF03B0E7AEC3EF0D80E0001616FFF0E54
:1025B800626F16EC3CF00001FB51300F7AEC3EF0F4
:1025C800230E7AEC3EF0000E0101366F3D05D8A4CB
:1025D800F0EF12F0F2EF12F086EF13F0000E3D6FFD
:1025E800240E7AEC3EF000C307F10101086B03C327
:1025F80018F20201196B000E0001916F000E926F24
:10260800400E936F400E946FA60E786F9B0E796FF5
:10261800440E7A6F3C0E7B6F07C166F008C167F005
:10262800686B696B000E3EEC2FF066C074F067C0F3
:1026380075F068C076F069C077F045EC25F074C095
:102648008DF075C08EF076C08FF077C090F084EC76
:1026580020F08DC0CAF08EC0CBF08FC0CCF090C0F7
:10266800CDF0000E0001786F000E796F480E7A6F7A
:10267800430E7B6FCAC074F0CBC075F0CCC076F047
:10268800CDC077F045EC25F074C0BEF075C0BFF042
:1026980076C0C0F077C0C1F0BCEC34F0BEC0F8F230
:1026A800BFC0F9F2F40E0001616FFF0E626F16EC05
:1026B8003CF0F8C26DF0F9C26EF095EC38F03B0EC4
:1026C8007AEC3EF0E40E0001616FFF0E626F16ECCB
:1026D8003CF007C16DF008C16EF095EC38F03B0E88
:1026E8007AEC3EF0EC0E0001616FFF0E626F16ECA3
:1026F8003CF018C26DF019C26EF095EC38F0210E5E
:102708007AEC3EF05D500101E619D8B48EEF13F073
:1027180090EF13F0E1EF13F00001F651D8A497EF12
:1027280013F099EF13F0E1EF13F04D0E5D18D8A4F4
:10273800A0EF13F0A2EF13F0C0EF13F0FD9DFD9B87
:102748005B0ED66F4D0ED76F4D0ED86F410ED96FF9
:102758005B0ED26F5B0ED36F5B0ED46F5B0ED56FC3
:10276800000E636F050E626F730E646F3CEC37F0FA
:102778000001FD8DDDEF13F0540E5D18D8A4C7EFEE
:1027880013F0C9EF13F0DDEF13F0FD9DFD9B5B0E19
:10279800D66F540ED76F490ED86F470ED96F5B0EA0
:1027A800D26F5B0ED36F5B0ED46F5B0ED56FB4EF39
:1027B80013F05DC0E6F1010EF96F0101AB05D8B465
:1027C800E8EF13F0EAEF13F0F2EF13F0AE05D8A438
:1027D800F0EF13F0F2EF13F0DDEF14F02F053011E6
:1027E800D8A4F9EF13F0FBEF13F0C3EF14F0020EC7
:1027F8005E18D8A402EF14F004EF14F053EF14F0AD
:102808005C5007E1C90E5B5CD8B00DEF14F00FEF18
:1028180014F049EF14F05BC060F05CC061F02DC1AA
:1028280062F02EC163F010EC3EF060C066F061C04B
:1028380067F0000E0001696F640E686F36EC3BF0BC
:102848005B50000166250101276F5C50000167217C
:102858000101286F0E0E275D010E2859D8A037EF09
:1028680014F039EF14F03DEF14F0010E286F0E0E3E
:10287800276F27C1C8F028C1C9F0F4EC30F0C8C0F0
:10288800C4F2C9C0C5F253EF14F05BC0C8F05CC015
:10289800C9F0F4EC30F0C8C0C4F2C9C0C5F2030EE8
:1028A8005E18D8A45AEF14F05CEF14F0D6EF14F0C9
:1028B8005C5009E1C90E5B5CD8A065EF14F067EFC6
:1028C80014F07DEF14F02C0E5B5C010E5C58D8A060
:1028D80070EF14F072EF14F0B7EF14F0C30E5B5CF6
:1028E800010E5C58D8B07BEF14F07DEF14F0B7EF11
:1028F80014F05BC060F05CC061F02DC162F02EC1C5
:1029080063F010EC3EF060C066F061C067F0000E46
:102918000001696F640E686F36EC3BF05B50000194
:1029280066250101276F5C50000167210101286FAE
:10293800120E275D020E2859D8A0A5EF14F0A7EFB4
:1029480014F0ABEF14F0020E286F120E276F27C198
:10295800C8F028C1C9F0F4EC30F0C8C0C4F2C9C04E
:10296800C5F2D6EF14F05BC0C8F05CC0C9F0F4EC57
:1029780030F0C8C0C4F2C9C0C5F2D6EF14F02F5168
:102988003011D8A4CAEF14F0CCEF14F0D6EF14F03D
:10299800B751D8A4D2EF14F0D4EF14F0D6EF14F056
:1029A800B7EF14F0010E0101E56F000EAE6F000ED7
:1029B800AB6FE505D8A4E3EF14F0E5EF14F0EEEF04
:1029C80014F0C4C269F0C5C26AF06FEC3DF0000EA5
:1029D8000101E56FEA05D8A4F4EF14F0F6EF14F05E
:1029E800F8EF14F0000EEA6FA905D8A4FEEF14F072
:1029F80000EF15F028EF19F0000E0001746F000EBB
:102A0800756FC80E766F420E776F59C066F05AC060
:102A180067F0686B696B000E3EEC2FF066C078F0CB
:102A280067C079F068C07AF069C07BF040EC35F097
:102A38000001D8A022EF15F024EF15F053EF15F0A0
:102A4800FA05D8A42AEF15F02CEF15F053EF15F07E
:102A58004D0E5D18D8A433EF15F035EF15F053EF90
:102A680015F00201624B632B2C0E625D010E635957
:102A7800D8A041EF15F043EF15F058EF15F0000E10
:102A88000001C96F0A0EC86FF4EC30F0C8C0C4F278
:102A9800C9C0C5F2010E0101E56F010EB76F000E46
:102AA8000201636F000E626F000E0001746F000E6A
:102AB800756FC80E766F420E776F59C066F05AC0B0
:102AC80067F0686B696B000E3EEC2FF066C078F01B
:102AD80067C079F068C07AF069C07BF040EC35F0E7
:102AE8000001D8B07AEF15F07CEF15F09DEF15F0E6
:102AF8000101B705D8A483EF15F085EF15F09DEF18
:102B080015F00201604B612B615109E1960E605D81
:102B1800D8A091EF15F093EF15F09DEF15F0010E89
:102B28000101AE6F000EB76F000E0201616F000E5B
:102B3800606F01012F053011D8A4A5EF15F0A7EF9C
:102B480015F0CBEF15F00001FA05D8A4AEEF15F09B
:102B5800B0EF15F0CBEF15F002019E4B9F2B9F5164
:102B680009E1960E9E5DD8A0BCEF15F0BEEF15F0FA
:102B7800CBEF15F0010E0101AE6F000E02019F6F41
:102B8800000E9E6F000E0101306F000E2F6F0001C6
:102B9800E55109E1090EE45DD8A0D5EF15F0D7EFAE
:102BA80015F0F8EF15F0FA51D8A4DDEF15F0DFEFC6
:102BB80015F0F8EF15F0010109510A11D8A4E7EF53
:102BC80015F0E9EF15F0F8EF15F0010E0001F96FB7
:102BD800010EFA6F000E0201476F000E466F000EDD
:102BE8000001F76F8CEF16F00001E55107E1090EBF
:102BF800E45DD8B002EF16F004EF16F08CEF16F093
:102C0800FA05D8A40AEF16F00CEF16F08CEF16F0C0
:102C18000201D84BD92BD851D911D8B416EF16F0D8
:102C280018EF16F08CEF16F00001FA05D8A41FEF84
:102C380016F021EF16F02CEF16F00101EA51D8A496
:102C480028EF16F02AEF16F02CEF16F0010EEA6FB7
:102C5800000E0201D96F000ED86F000E0001FA6F46
:102C6800010E0101AE6F010E0001F96F020E5E1830
:102C7800D8A441EF16F043EF16F05CEF16F05C5065
:102C880007E1C90E5B5CD8B04CEF16F04EEF16F0BA
:102C98005CEF16F04D0E5D18D8A455EF16F057EFFF
:102CA80016F05CEF16F0000E0101306F010E2F6F69
:102CB800030E5E18D8A463EF16F065EF16F07EEFEA
:102CC80016F0C30E5B5C010E5C58D8B06EEF16F0C0
:102CD80070EF16F07EEF16F04D0E5D18D8A477EF62
:102CE80016F079EF16F07EEF16F0000E0101306F46
:102CF800010E2F6F000E02019F6F000E9E6F000ED7
:102D08000101A66F000E206F000E1F6F010E596F94
:102D180008EC34F04D0E5D18D8A495EF16F097EF37
:102D280016F099EF16F0CCEC39F08FA29EEF16F062
:102D3800A0EF16F006EF17F0010E0001FB6F01017E
:102D4800C205D8A4AAEF16F0ACEF16F028EF19F0D8
:102D58000001E051E111D8A4B4EF16F0B6EF16F077
:102D6800D9EF16F0F805D8A4BCEF16F0BEEF16F0B0
:102D7800D9EF16F0FD9D5B0ED66F450ED76F520E3C
:102D8800D86F520ED96F5B0ED26F5B0ED36F5B0E8E
:102D9800D46F5B0ED56F010EF96F000EF86F030E3E
:102DA800E16FE80EE06F28EF19F0E051E111D8A4C7
:102DB800E0EF16F0E2EF16F004EF17F0F851D8A4A0
:102DC800E8EF16F0EAEF16F004EF17F05B0ED66F97
:102DD800300ED76F300ED86F330ED96F5B0ED26FAF
:102DE8005B0ED36F5B0ED46F5B0ED56F010EF96F60
:102DF800010EF86F030EE16FE80EE06F28EF19F08F
:102E080028EF19F0000E0001FB6F0101C405D8B4CA
:102E180010EF17F012EF17F02AEF17F0C305D8B428
:102E280018EF17F01AEF17F02AEF17F0C205D8B409
:102E380020EF17F022EF17F02AEF17F0BF05D8A4FC
:102E480028EF17F02AEF17F0D0EF18F00001F6512D
:102E5800D8A431EF17F033EF17F0D0EF18F0F35193
:102E6800D8B439EF17F03BEF17F043EF17F0F451F0
:102E7800D8A441EF17F043EF17F0D0EF18F0FD9DFD
:102E88000101C405D8A44BEF17F04DEF17F0A3EFDD
:102E980017F00001E051E111D8A455EF17F057EFF2
:102EA80017F07AEF17F0F805D8A45DEF17F05FEF89
:102EB80017F07AEF17F0FD9D5B0ED66F450ED76FB2
:102EC800520ED86F520ED96F5B0ED26F5B0ED36F56
:102ED8005B0ED46F5B0ED56F010EF96F000EF86FA5
:102EE800030EE16FE80EE06FA3EF17F0E051E11178
:102EF800D8A481EF17F083EF17F0A3EF17F0F8517C
:102F0800D8A489EF17F08BEF17F0A3EF17F05B0E3B
:102F1800D66F300ED76F300ED86F310ED96F5B0E6B
:102F2800D26F5B0ED36F5B0ED46F5B0ED56F010E45
:102F3800F96F010EF86F030EE16FE80EE06F010103
:102F4800C305D8A4AAEF17F0ACEF17F002EF18F0FA
:102F58000001E051E111D8A4B4EF17F0B6EF17F073
:102F6800D9EF17F0F805D8A4BCEF17F0BEEF17F0AB
:102F7800D9EF17F0FD9D5B0ED66F450ED76F520E39
:102F8800D86F520ED96F5B0ED26F5B0ED36F5B0E8C
:102F9800D46F5B0ED56F010EF96F000EF86F030E3C
:102FA800E16FE80EE06F02EF18F0E051E111D8A4EC
:102FB800E0EF17F0E2EF17F002EF18F0F851D8A49D
:102FC800E8EF17F0EAEF17F002EF18F05B0ED66F94
:102FD800300ED76F300ED86F320ED96F5B0ED26FAE
:102FE8005B0ED36F5B0ED46F5B0ED56F010EF96F5E
:102FF800010EF86F030EE16FE80EE06F0101C205E4
:10300800D8A409EF18F00BEF18F061EF18F00001E1
:10301800E051E111D8A413EF18F015EF18F038EFCC
:1030280018F0F805D8A41BEF18F01DEF18F038EFCA
:1030380018F0FD9D5B0ED66F450ED76F520ED86FF8
:10304800520ED96F5B0ED26F5B0ED36F5B0ED46FCF
:103058005B0ED56F010EF96F000EF86F030EE16F6E
:10306800E80EE06F61EF18F0E051E111D8A43FEFEE
:1030780018F041EF18F061EF18F0F851D8A447EFB5
:1030880018F049EF18F061EF18F05B0ED66F300EAC
:10309800D76F300ED86F330ED96F5B0ED26F5B0EC1
:1030A800D36F5B0ED46F5B0ED56F010EF96F010EF7
:1030B800F86F030EE16FE80EE06F0101BF05D8A4B9
:1030C80068EF18F06AEF18F0C0EF18F00001E0514F
:1030D800E111D8A472EF18F074EF18F097EF18F018
:1030E800F805D8A47AEF18F07CEF18F097EF18F0ED
:1030F800FD9D5B0ED66F450ED76F520ED86F520EE0
:10310800D96F5B0ED26F5B0ED36F5B0ED46F5B0E05
:10311800D56F010EF96F000EF86F030EE16FE80E20
:10312800E06FC0EF18F0E051E111D8A49EEF18F05D
:10313800A0EF18F0C0EF18F0F851D8A4A6EF18F0D7
:10314800A8EF18F0C0EF18F05B0ED66F300ED76FEF
:10315800310ED86F310ED96F5B0ED26F5B0ED36F05
:103168005B0ED46F5B0ED56F010EF96F010EF86F11
:10317800030EE16FE80EE06F010E0101C66F010E4C
:103188008D6F8584000E0201C56F000EC46F010E9D
:103198000101E56F25EF19F0000E0101C66F8D05DD
:1031A800D8A4D9EF18F0DBEF18F025EF19F0000ECE
:1031B8008D6F8594020E5E18D8A4E5EF18F0E7EF3E
:1031C80018F0FFEF18F05C5007E1C90E5B5CD8B04F
:1031D800F0EF18F0F2EF18F0FFEF18F04D0E5D1851
:1031E800D8A4F9EF18F0FBEF18F0FFEF18F0000E75
:1031F800306F010E2F6F030E5E18D8A406EF19F07A
:1032080008EF19F020EF19F0C30E5B5C010E5C5853
:10321800D8B011EF19F013EF19F020EF19F04D0E97
:103228005D18D8A41AEF19F01CEF19F020EF19F067
:10323800000E306F010E2F6F010EAE6F010E0001F0
:10324800F96F000E0101A96F0001FB51D8A42FEFFF
:1032580019F031EF19F034EF19F0839A5FEF19F094
:10326800FB05D8A43AEF19F03CEF19F05EEF19F01E
:103278000101085107E1150E075DD8B046EF19F0B6
:1032880048EF19F05EEF19F0838A000E0001636FB2
:10329800010E626F730E646F3CEC37F0839A000E78
:1032A8000001636F010E626F730E646F3CEC37F0C0
:1032B8005FEF19F0838A01015905D8A466EF19F068
:1032C80068EF19F0C8EF19F00001EA510201281956
:1032D8000BE10001EB5102012919D8B476EF19F07E
:1032E80078EF19F087EF19F0EAC073F0EBC074F0CB
:1032F800000E0001766F1E0E756F4FEC3DF0EAC0B0
:1033080028F2EBC029F20001EC51020126190BE169
:103318000001ED5102012719D8B495EF19F097EF84
:1033280019F0A6EF19F0ECC073F0EDC074F0000EC0
:103338000001766F210E756F4FEC3DF0ECC026F260
:10334800EDC027F20001E851020124190BE1000148
:10335800E95102012519D8B4B4EF19F0B6EF19F004
:10336800C5EF19F0E8C073F0E9C074F0000E000171
:10337800766F240E756F4FEC3DF0E8C024F2E9C07B
:1033880025F2000E0101596F9451D8B4CEEF19F00F
:10339800D0EF19F0FEEF19F0000E0001746F000E67
:1033A800736F000E766F1E0E756F4FEC3DF0000EBA
:1033B8000001746F000E736F000E766F210E756F2B
:1033C8004FEC3DF0000E0001746F000E736F000E9D
:1033D800766F240E756F4FEC3DF0000E0001E96F1B
:1033E800000EE86F000EED6F000EEC6F000EEB6F35
:1033F800000EEA6F0101E405D8A405EF1AF007EF03
:103408001AF066EF1EF02B512C11D8B40EEF1AF0FB
:1034180010EF1AF066EF1EF04D0E5D18D8A417EFE6
:103428001AF019EF1AF066EF1EF0020E5E18D8A413
:1034380020EF1AF022EF1AF092EF1BF0000E0001B5
:10344800746F000E756FC80E766F420E776F59C095
:1034580066F05AC067F0686B696B000E3EEC2FF09F
:1034680066C078F067C079F068C07AF069C07BF010
:1034780040EC35F00001D8B044EF1AF046EF1AF0EE
:103488004FEF1BF0000E746F000E756F960E766F7F
:10349800430E776F59C066F05AC067F0686B696B66
:1034A800000E3EEC2FF066C078F067C079F068C077
:1034B8007AF069C07BF040EC35F00001D8A067EFE6
:1034C8001AF069EF1AF04FEF1BF0000E636F7D0ED4
:1034D800626F2BC160F02CC161F010EC3EF000016E
:1034E80060C066F061C067F0686B696B000E3EEC07
:1034F8002FF066C078F067C079F068C07AF069C0CC
:103508007BF0000E0001A96F000EAA6F960EAB6F3C
:10351800430EAC6F59C066F05AC067F0686B696BB0
:10352800000E3EEC2FF066C0A1F067C0A2F068C0A4
:10353800A3F069C0A4F0000E00019D6F000E9E6FFD
:10354800960E9F6F430EA06FC6EC3CF09DC0A5F091
:103558009EC0A6F09FC0A7F0A0C0A8F070EC29F00C
:10356800A5C074F0A6C075F0A7C076F0A8C077F023
:1035780045EC25F074C0CEF075C0CFF076C0D0F021
:1035880077C0D1F0000E0001A96F000EAA6FC80E17
:10359800AB6F420EAC6FCEC0A5F0CFC0A6F0D0C0C6
:1035A800A7F0D1C0A8F070EC29F0A5C091F0A6C092
:1035B80092F0A7C093F0A8C094F05BC066F05CC01E
:1035C80067F00001000E67BFFF0E686F696F010E9C
:1035D8003EEC2FF066C08DF067C08EF068C08FF0AB
:1035E80069C090F084EC20F08DC0BEF08EC0BFF0B2
:1035F8008FC0C0F090C0C1F0BCEC34F0BEC025F163
:10360800BFC026F125C166F026C167F00001686BCE
:10361800696B000E3EEC2FF066C074F067C075F061
:1036280068C076F069C077F0000E0001786F000E70
:10363800796F960E7A6F430E7B6F40EC35F0000180
:10364800D8A029EF1BF02BEF1BF030EF1BF0010E79
:103658000101266F2C0E256F5C5007E1C90E5B5CDB
:10366800D8B039EF1BF03BEF1BF048EF1BF025C13A
:10367800C8F026C1C9F0F4EC30F0C8C0C4F2C9C023
:10368800C5F2010E0101E56F000E0101206F000E69
:103698001F6F8FEF1BF0000E746F000E756F960E84
:1036A800766F430E776F59C066F05AC067F0686B43
:1036B800696B000E3EEC2FF066C078F067C079F0B9
:1036C80068C07AF069C07BF040EC35F00001D8B0F2
:1036D80070EF1BF072EF1BF08FEF1BF001012F5101
:1036E8003011D8A47AEF1BF07CEF1BF08FEF1BF0A2
:1036F8001F4B202B205109E1030E1F5DD8A087EF37
:103708001BF089EF1BF08FEF1BF0000E206F000EEF
:103718001F6F010EAE6F000E0101E46F030E5E18FD
:10372800D8A499EF1BF09BEF1BF066EF1EF05C50DE
:1037380007E1C90E5B5CD8B0A4EF1BF0A6EF1BF045
:1037480018EF1DF0000E0001746F000E756FC80EA3
:10375800766F420E776F59C066F05AC067F0686B93
:10376800696B000E3EEC2FF066C078F067C079F008
:1037780068C07AF069C07BF040EC35F00001D8B041
:10378800C8EF1BF0CAEF1BF0D3EF1CF0000E746FEC
:10379800000E756F960E766F430E776F59C066F000
:1037A8005AC067F0686B696B000E3EEC2FF066C07C
:1037B80078F067C079F068C07AF069C07BF040ECB7
:1037C80035F00001D8A0EBEF1BF0EDEF1BF0D3EFC5
:1037D8001CF0000E636F7D0E626F2BC160F02CC170
:1037E80061F010EC3EF0000160C066F061C067F067
:1037F800686B696B000E3EEC2FF066C078F067C00E
:1038080079F068C07AF069C07BF0000E0001A96FFA
:10381800000EAA6F960EAB6F430EAC6F59C066F0E0
:103828005AC067F0686B696B000E3EEC2FF066C0FB
:10383800A1F067C0A2F068C0A3F069C0A4F0000EB0
:1038480000019D6F000E9E6F960E9F6F430EA06F36
:10385800C6EC3CF09DC0A5F09EC0A6F09FC0A7F0A6
:10386800A0C0A8F070EC29F0A5C074F0A6C075F04F
:10387800A7C076F0A8C077F045EC25F074C0CEF06C
:1038880075C0CFF076C0D0F077C0D1F0000E00013F
:10389800A96F000EAA6FC80EAB6F420EAC6FCEC0F8
:1038A800A5F0CFC0A6F0D0C0A7F0D1C0A8F070ECAA
:1038B80029F0A5C091F0A6C092F0A7C093F0A8C0C7
:1038C80094F05BC066F05CC067F00001000E67BF53
:1038D800FF0E686F696F010E3EEC2FF066C08DF029
:1038E80067C08EF068C08FF069C090F084EC20F05B
:1038F8008DC0BEF08EC0BFF08FC0C0F090C0C1F0C8
:10390800BCEC34F0BEC025F1BFC026F125C166F07D
:1039180026C167F00001686B696B000E3EEC2FF062
:1039280066C074F067C075F068C076F069C077F05B
:10393800000E0001786F000E796F960E7A6F430EB5
:103948007B6F40EC35F00001D8A0ADEF1CF0AFEF75
:103958001CF0B4EF1CF0010E0101266F2C0E256F30
:103968005C5007E1C90E5B5CD8B0BDEF1CF0BFEF3F
:103978001CF0CCEF1CF025C1C8F026C1C9F0F4EC4E
:1039880030F0C8C0C4F2C9C0C5F2010E0101E56F2C
:10399800000E0101206F000E1F6F13EF1DF0000EC7
:1039A800746F000E756F960E766F430E776F59C061
:1039B80066F05AC067F0686B696B000E3EEC2FF03A
:1039C80066C078F067C079F068C07AF069C07BF0AB
:1039D80040EC35F00001D8B0F4EF1CF0F6EF1CF025
:1039E80013EF1DF001012F513011D8A4FEEF1CF088
:1039F80000EF1DF013EF1DF01F4B202B205109E1A4
:103A0800030E1F5DD8A00BEF1DF00DEF1DF013EF97
:103A18001DF0000E206F000E1F6F010EAE6F000E1E
:103A28000101E46F66EF1EF05C5009E1C90E5B5CB2
:103A3800D8A021EF1DF023EF1DF066EF1EF0F50E64
:103A48005B5C010E5C58D8B02CEF1DF02EEF1DF01A
:103A580066EF1EF0000E0001746F000E756FC80E41
:103A6800766F420E776F59C066F05AC067F0686B80
:103A7800696B000E3EEC2FF066C078F067C079F0F5
:103A880068C07AF069C07BF040EC35F00001D8B02E
:103A980050EF1DF052EF1DF02AEF1EF0000E746F6C
:103AA800000E756FAF0E766F430E776F59C066F0D4
:103AB8005AC067F0686B696B000E3EEC2FF066C069
:103AC80078F067C079F068C07AF069C07BF040ECA4
:103AD80035F00001D8A073EF1DF075EF1DF02AEF47
:103AE8001EF0000E636F7D0E626F2BC160F02CC15B
:103AF80061F010EC3EF0000160C066F061C067F054
:103B0800686B696B000E3EEC2FF066C078F067C0FA
:103B180079F068C07AF069C07BF0000E0001A96FE7
:103B2800000EAA6FAF0EAB6F430EAC6F59C066F0B4
:103B38005AC067F0686B696B000E3EEC2FF066C0E8
:103B4800A1F067C0A2F068C0A3F069C0A4F0000E9D
:103B580000019D6F000E9E6FAF0E9F6F430EA06F0A
:103B6800C6EC3CF09DC0A5F09EC0A6F09FC0A7F093
:103B7800A0C0A8F070EC29F0A5C074F0A6C075F03C
:103B8800A7C076F0A8C077F045EC25F074C0CEF059
:103B980075C0CFF076C0D0F077C0D1F0000E00012C
:103BA800A96F000EAA6FC80EAB6F420EAC6FCEC0E5
:103BB800A5F0CFC0A6F0D0C0A7F0D1C0A8F070EC97
:103BC80029F0A5C091F0A6C092F0A7C093F0A8C0B4
:103BD80094F05BC066F05CC067F00001000E67BF40
:103BE800FF0E686F696F010E3EEC2FF066C08DF016
:103BF80067C08EF068C08FF069C090F084EC20F048
:103C08008DC0BEF08EC0BFF08FC0C0F090C0C1F0B4
:103C1800BCEC34F0BEC025F1BFC026F15C5009E110
:103C2800C90E5B5CD8A01BEF1EF01DEF1EF0CCEF99
:103C38001CF0F50E5B5C010E5C58D8B026EF1EF048
:103C480028EF1EF0CCEF1CF0BFEF1CF0000E746FD5
:103C5800000E756FAF0E766F430E776F59C066F022
:103C68005AC067F0686B696B000E3EEC2FF066C0B7
:103C780078F067C079F068C07AF069C07BF040ECF2
:103C880035F00001D8B04BEF1EF04DEF1EF013EFEA
:103C98001DF001012F513011D8A455EF1EF057EF38
:103CA8001EF013EF1DF01F4B202B205109E1030ECE
:103CB8001F5DD8A062EF1EF064EF1EF013EF1DF039
:103CC8000DEF1DF04D0E5D18D8B46DEF1EF06FEFBF
:103CD8001EF078EF1EF0540E5D18D8A476EF1EF093
:103CE80078EF1EF0DEEF1EF00001FA51D8A47FEF46
:103CF8001EF081EF1EF0DEEF1EF00101C651D8A4C0
:103D080088EF1EF08AEF1EF0DEEF1EF00001F6517C
:103D1800D8A491EF1EF093EF1EF0DEEF1EF0F451E1
:103D2800D8A499EF1EF09BEF1EF0DEEF1EF0F351C2
:103D3800D8A4A1EF1EF0A3EF1EF0DEEF1EF0FD8D5C
:103D4800FD9B5B505C10D8A4ACEF1EF0AEEF1EF0EC
:103D5800B6EF1EF0F905D8A4B4EF1EF0B6EF1EF0CA
:103D6800BCEF1EF05BC06DF05CC06EF065EC39F026
:103D78000101B505D8B4C3EF1EF0C5EF1EF0CEEFB4
:103D88001EF00001F905D8A4CCEF1EF0CEEF1EF00E
:103D9800D4EF1EF0E2C06DF0E3C06EF0FEEC38F038
:103DA800000E0101B56F000E456F000E0001F96F9E
:103DB8004CEF1FF00001FA05D8A4E5EF1EF0E7EF7D
:103DC8001EF04CEF1FF00101C651D8A4EEEF1EF013
:103DD800F0EF1EF04CEF1FF00001F651D8A4F7EFFA
:103DE8001EF0F9EF1EF04CEF1FF0F351D8A4FFEFCF
:103DF8001EF001EF1FF04CEF1FF0F451D8A407EFAD
:103E08001FF009EF1FF04CEF1FF0010109510A11D3
:103E1800D8A411EF1FF013EF1FF04CEF1FF00001B3
:103E2800FD9B0101B605D8B41CEF1FF01EEF1FF073
:103E380027EF1FF00001F905D8A425EF1FF027EFA1
:103E48001FF02DEF1FF0E4C06DF0E5C06EF065ECDB
:103E580039F00101B505D8B434EF1FF036EF1FF083
:103E68003FEF1FF00001F905D8A43DEF1FF03FEF29
:103E78001FF045EF1FF0E2C06DF0E3C06EF0FEECFE
:103E880038F0000E0101B66F000EB56FD9EF1EF0C5
:103E980041EC2EF04D0E5D18D8A455EF1FF057EFEA
:103EA8001FF015EF12F00001FA05D8A45EEF1FF01D
:103EB80060EF1FF0FBEF1FF001010B050C11D8A4F8
:103EC80068EF1FF06AEF1FF0FBEF1FF0010E466F5F
:103ED8000001F505D8A473EF1FF075EF1FF08AEF06
:103EE8001FF0F451D8A47BEF1FF07DEF1FF08AEF8D
:103EF8001FF05BC0C8F05CC0C9F0F4EC30F0C8C07B
:103F0800C4F2C9C0C5F2010E0101E56F0001F55107
:103F1800D8A491EF1FF093EF1FF0C3EF1FF0000E2E
:103F2800786F000E796FC80E7A6F420E7B6F00C1F2
:103F380074F001C175F002C176F003C177F045EC69
:103F480025F074C0BEF075C0BFF076C0C0F077C071
:103F5800C1F0BCEC34F0BEC0DAF0BFC0DBF0DAC0B0
:103F680073F0DBC074F0000E0001766F2E0E756FD3
:103F78004FEC3DF0000E01010C6F000E0B6F0101BC
:103F8800B605D8B4CAEF1FF0CCEF1FF0D5EF1FF07D
:103F98000001F905D8A4D3EF1FF0D5EF1FF0DBEF30
:103FA8001FF0E4C06DF0E5C06EF065EC39F001017A
:103FB800B505D8B4E2EF1FF0E4EF1FF0EDEF1FF006
:103FC8000001F905D8A4EBEF1FF0EDEF1FF0F3EFB8
:103FD8001FF0E2C06DF0E3C06EF0FEEC38F0000EAA
:103FE8000101B66F000EB56F000E0001F96F0001F8
:103FF800FA51D8A402EF20F004EF20F015EF12F0E8
:104008000101C651D8A40BEF20F00DEF20F015EFF9
:1040180012F009050A11D8A414EF20F016EF20F0C9
:1040280015EF12F00B510C11D8A41DEF20F01FEF63
:1040380020F015EF12F00001F405D8A426EF20F0C7
:1040480028EF20F080EF20F0F551D8A42EEF20F0D3
:1040580030EF20F080EF20F0F305D8B436EF20F0F1
:1040680038EF20F040EF20F0F905D8A43EEF20F01B
:1040780040EF20F048EF20F0FD9DFD9B20C26DF041
:1040880021C26EF065EC39F020C260F021C261F007
:10409800000E0001636F0A0E626F10EC3EF060C004
:1040A8000DF161C00EF101010D510E11D8A45FEFA1
:1040B80020F061EF20F065EF20F0000E0E6F020E89
:1040C8000D6F010E476F000E0001F36F000EF96FC0
:1040D800FD8D0DC173F00EC174F0000E766F300EB9
:1040E800756F4FEC3DF00DC115F10EC116F1000EC4
:1040F8000101476F15EF12F015EF12F0B2EF0EF055
:1041080000019051800B996F905190259B6F8FAF54
:1041180090EF20F092EF20F093EF20F09B819B51DD
:10412800D8B499EF20F09BEF20F0B0EF20F09B2956
:10413800D8A4A1EF20F0A3EF20F0ABEF20F0000E01
:104148008D6F000E8E6F000E8F6F000E906F8F8F29
:10415800000E906FB8EF20F0000E8D6F000E8E6F7E
:10416800000E8F6F000E906F9451800B9A6F9951CB
:104178009A19D8B4C2EF20F0C4EF20F0C5EF20F0B0
:10418800998D945194259A6F93AFCDEF20F0CFEF8E
:1041980020F0D0EF20F09A819A51D8B4D6EF20F0D1
:1041A800D8EF20F0EDEF20F09A29D8A4DEEF20F028
:1041B800E0EF20F0E8EF20F0000E916F000E926F14
:1041C800000E936F000E946F938F000E946FF5EFAF
:1041D80020F0000E916F000E926F000E936F000E8C
:1041E800946F9B519A5DD8B0FCEF20F0FEEF20F061
:1041F80025EF21F099AD03EF21F005EF21F007EF4E
:1042080021F0800E991B9BC09CF09AC09BF09CC02B
:104218009AF08DC09CF091C08DF09CC091F08EC03A
:104228009CF092C08EF09CC092F08FC09CF093C01E
:104238008FF09CC093F090C09CF094C090F09CC00C
:1042480094F0000E9C6F9B519AC095F0966B955F09
:10425800000E965B96BF3AEF21F0965109E11A0ECF
:10426800955DD8A03AEF21F03CEF21F073EF21F0F3
:104278008D518E118F119011D8A445EF21F048EF80
:1042880021F0010E49EF21F0000E9C6F000E8D6F9A
:10429800000E8E6F000E8F6F000E906F9AC09BF00D
:1042A8007CEF21F09CA15BEF21F05DEF21F063EF43
:1042B80021F0D8909C3101099C6F65EF21F0D890CE
:1042C8009C338DA16AEF21F06CEF21F06DEF21F0A6
:1042D8009C8F903590338F338E338D339B2B9A512F
:1042E8009B5DD8A07AEF21F07CEF21F056EF21F00A
:1042F80099BD81EF21F083EF21F0C3EF21F09B51AD
:10430800D8A489EF21F08BEF21F095EF21F0000E72
:104318008D6F000E8E6F000E8F6F000E906FE4EFA2
:1043280022F091518D2792518E2393518F239451CE
:10433800902390A1A2EF21F0A4EF21F050EF22F0FA
:104348009CA1A9EF21F0ABEF21F0B1EF21F0D890BB
:104358009C3101099C6FB3EF21F0D8909C338DA15B
:10436800B8EF21F0BAEF21F0BBEF21F09C8F903528
:1043780090338F338E338D339B2B50EF22F0915136
:104388008D5D92518E5993518F599051800A956F36
:104398009451800A9559D8B0D4EF21F0D6EF21F086
:1043A80001EF22F08D51915D956F8E519259966F64
:1043B8008F519359976F90519459986FFF0E952587
:1043C8008D6FFF0E96218E6FFF0E97218F6FFF0E58
:1043D8009821906F800E991B9C6D9C51D8A4F7EF83
:1043E80021F0F9EF21F009EF22F0010E8D27000EE0
:1043F8008E238F23902309EF22F091518D5F9251E4
:104408008E5B93518F5B9451905B8D518E118F1100
:104418009011D8A412EF22F014EF22F049EF22F005
:104428009C51D8A41AEF22F01CEF22F049EF22F099
:10443800000E8D6F000E8E6F000E8F6F000E906F46
:10444800E4EF22F0D8908D378E378F3790379CAFB6
:1044580030EF22F032EF22F033EF22F08D819CA171
:1044680038EF22F03AEF22F03EEF22F0D8809C3766
:1044780040EF22F0D8909C379B51D8B446EF22F0F9
:1044880048EF22F049EF22F09B078FAF4EEF22F062
:1044980050EF22F026EF22F0000E9A6F9CAF57EFF4
:1044A80022F059EF22F071EF22F09CC095F07F0EB8
:1044B8009517D8B462EF22F064EF22F068EF22F08B
:1044C800010E9A6F71EF22F08DA16DEF22F06FEF60
:1044D80022F071EF22F064EF22F09A51D8B477EF0E
:1044E80022F079EF22F0A4EF22F0010E8D27000EC2
:1044F8008E238F23902390A184EF22F086EF22F061
:10450800A4EF22F08DC095F08EC096F08FC097F082
:1045180090C098F09835983397339633953395C073
:104528008DF096C08EF097C08FF098C090F09B29C0
:10453800D8B4A1EF22F0A3EF22F0A4EF22F09B2B36
:104548009B29D8B4AAEF22F0ACEF22F0B4EF22F006
:104558009B51D8A4B2EF22F0B4EF22F0C6EF22F0BC
:10456800000E8D6F000E8E6F000E8F6F000E906F15
:104578009B51D8A4C2EF22F0C4EF22F0C6EF22F07C
:10458800000E996F9BA1CBEF22F0CDEF22F0D0EF78
:1045980022F08F8FD1EF22F08F9FD8909B31906FB0
:1045A80099AFD9EF22F0DBEF22F0DCEF22F0908F09
:1045B8008DC08DF08EC08EF08FC08FF090C090F0BF
:1045C80012000450800B0D6E045004240F6E03AECD
:1045D800F0EF22F0F2EF22F0F3EF22F00F800F500D
:1045E800D8B4F9EF22F0FBEF22F010EF23F00F28F8
:1045F800D8A401EF23F003EF23F00BEF23F0000E14
:10460800016E000E026E000E036E000E046E038E25
:10461800000E046E18EF23F0000E016E000E026EFD
:10462800000E036E000E046E0850800B0E6E0D50C7
:104638000E18D8B422EF23F024EF23F025EF23F04F
:104648000D8C085008240E6E07AE2DEF23F02FEFC7
:1046580023F030EF23F00E800E50D8B436EF23F05D
:1046680038EF23F04DEF23F00E28D8A43EEF23F0C7
:1046780040EF23F048EF23F0000E056E000E066EA3
:10468800000E076E000E086E078E000E086E55EFBE
:1046980023F0000E056E000E066E000E076E000E6B
:1046A800086E0F500E5CD8B05CEF23F05EEF23F07D
:1046B80085EF23F00DAC63EF23F065EF23F067EF90
:1046C80023F0800E0D1A0FC010F00EC00FF010C0AE
:1046D8000EF001C010F005C001F010C005F002C0D6
:1046E80010F006C002F010C006F003C010F007C0BA
:1046F80003F010C007F004C010F008C004F010C0A8
:1047080008F0000E106E0F500EC009F00A6A095E1C
:10471800000E0A5A0ABE9AEF23F00A5009E11A0E4F
:10472800095CD8A09AEF23F09CEF23F0D3EF23F095
:104738000150021003100410D8A4A5EF23F0A8EF2D
:1047480023F0010EA9EF23F0000E106E000E016E8B
:10475800000E026E000E036E000E046E0EC00FF007
:10476800DCEF23F010A0BBEF23F0BDEF23F0C3EF85
:1047780023F0D89010300109106EC5EF23F0D890BF
:10478800103201A0CAEF23F0CCEF23F0CDEF23F0D5
:10479800108E043404320332023201320F2A0E50D2
:1047A8000F5CD8A0DAEF23F0DCEF23F0B6EF23F0AC
:1047B8000DBCE1EF23F0E3EF23F023EF24F00F50DB
:1047C800D8A4E9EF23F0EBEF23F0F5EF23F0000E88
:1047D800016E000E026E000E036E000E046E44EFB2
:1047E80025F00550012606500222075003220850E2
:1047F800042204A002EF24F004EF24F0B0EF24F028
:1048080010A009EF24F00BEF24F011EF24F0D8905A
:1048180010300109106E13EF24F0D890103201A067
:1048280018EF24F01AEF24F01BEF24F0108E043454
:1048380004320332023201320F2AB0EF24F005505D
:10484800015C06500258075003580450800A096E4C
:104858000850800A0958D8B034EF24F036EF24F015
:1048680061EF24F00150055C096E025006580A6E8B
:10487800035007580B6E045008580C6EFF0E09249D
:10488800016EFF0E0A20026EFF0E0B20036EFF0E54
:104898000C20046E800E0D1A106C1050D8A457EF1F
:1048A80024F059EF24F069EF24F0010E0126000EE0
:1048B80002220322042269EF24F00550015E06500B
:1048C800025A0750035A0850045A015002100310A4
:1048D8000410D8A472EF24F074EF24F0A9EF24F0A8
:1048E8001050D8A47AEF24F07CEF24F0A9EF24F03C
:1048F800000E016E000E026E000E036E000E046EB6
:1049080044EF25F0D890013602360336043610AE4F
:1049180090EF24F092EF24F093EF24F0018010A0A0
:1049280098EF24F09AEF24F09EEF24F0D880103608
:10493800A0EF24F0D89010360F50D8B4A6EF24F08A
:10494800A8EF24F0A9EF24F00F0603AEAEEF24F091
:10495800B0EF24F086EF24F0000E0E6E10AEB7EF25
:1049680024F0B9EF24F0D1EF24F010C009F07F0E45
:104978000916D8B4C2EF24F0C4EF24F0C8EF24F02D
:10498800010E0E6ED1EF24F001A0CDEF24F0CFEF91
:1049980024F0D1EF24F0C4EF24F00E50D8B4D7EFB0
:1049A80024F0D9EF24F004EF25F0010E0126000EC3
:1049B80002220322042204A0E4EF24F0E6EF24F00C
:1049C80004EF25F001C009F002C00AF003C00BF0A3
:1049D80004C00CF00C340C320B320A32093209C014
:1049E80001F00AC002F00BC003F00CC004F00F285D
:1049F800D8B401EF25F003EF25F004EF25F00F2AD6
:104A08000F28D8B40AEF25F00CEF25F014EF25F0A5
:104A18000F50D8A412EF25F014EF25F026EF25F05B
:104A2800000E016E000E026E000E036E000E046E84
:104A38000F50D8A422EF25F024EF25F026EF25F01B
:104A4800000E0D6E0FA02BEF25F02DEF25F030EFA7
:104A580025F0038E31EF25F0039ED8900F30046EB9
:104A68000DAE39EF25F03BEF25F03CEF25F0048E35
:104A780001C001F002C002F003C003F004C004F05A
:104A8800120000017751800B806F77517725866F70
:104A980076AF51EF25F053EF25F054EF25F08681DE
:104AA8008651D8B45AEF25F05CEF25F06FEF25F06A
:104AB8008629D8A462EF25F064EF25F06CEF25F085
:104AC800000E746F000E756F000E766F000E776F14
:104AD800768F77EF25F0000E746F000E756F000E5D
:104AE800766F000E776F7B51800B801B7B517B2587
:104AF800856F7AAF82EF25F084EF25F085EF25F0FA
:104B080085818551D8B48BEF25F08DEF25F0A0EF86
:104B180025F08529D8A493EF25F095EF25F09DEF92
:104B280025F0000E786F000E796F000E7A6F000E78
:104B38007B6F7A8FA8EF25F0000E786F000E796FE3
:104B4800000E7A6F000E7B6F8551D8B4AEEF25F05A
:104B5800B0EF25F0B8EF25F08651D8A4B6EF25F0D0
:104B6800B8EF25F0C2EF25F0000E746F000E756FD8
:104B7800000E766F000E776F5AEF27F07A517403A4
:104B8800F3CF8BF0F4CF8CF08B51816F826B836BFA
:104B9800846B8C51876F886B896B8A6B795175032D
:104BA800F3CF8BF0F4CF8CF08B518127000E82234A
:104BB800832384238C518727000E882389238A2303
:104BC80078517603F3CF8BF0F4CF8CF08B5181279B
:104BD800000E8223832384238C518727000E882389
:104BE80089238A2383C084F082C083F081C082F045
:104BF800816B78517503F3CF8BF0F4CF8CF08B5128
:104C080081278C518223000E8323000E842379513F
:104C18007403F3CF8BF0F4CF8CF08B5181278C5138
:104C28008223000E8323000E842383C084F082C075
:104C380083F081C082F0816B78517403F3CF8BF0DD
:104C4800F4CF8CF08B5181278C518223000E832363
:104C5800000E84237A517503F3CF8BF0F4CF8CF0D8
:104C68008B5187278C518823000E8923000E8A23B5
:104C780079517603F3CF8BF0F4CF8CF08B518727E3
:104C88008C518823000E8923000E8A237A517603DB
:104C9800F3CF8BF0F4CF8CF08B517C6F8C517D6F00
:104CA8007E6B7F6B7EC07FF07DC07EF07CC07DF028
:104CB8007C6B7C5187277D5188237E5189237F51C6
:104CC8008A2381C07CF082C07DF083C07EF084C0DE
:104CD8007FF0190E75EF26F0D8907F337E337D3341
:104CE8007C33E82E70EF26F07C5187277D5188238E
:104CF8007E5189237F518A2383C084F082C083F048
:104D080081C082F0816B855186C07CF07D6B7C27E9
:104D1800000E7D23820E7C258B6FFF0E7D218C6F0C
:104D2800ABEF26F0D8908737883789378A3784AF32
:104D3800A0EF26F0A2EF26F0A3EF26F08781D89007
:104D480081378237833784378B07D8A08C0789AFA0
:104D5800B0EF26F0B2EF26F096EF26F0000E856F42
:104D680084AFB9EF26F0BBEF26F0DFEF26F0FF0E99
:104D780081157C6FFF0E82157D6FFF0E83157E6F88
:104D88007F0E84157F6F7C517D117E117F11D8B401
:104D9800D0EF26F0D2EF26F0D6EF26F0010E856F81
:104DA800DFEF26F087A1DBEF26F0DDEF26F0DFEF5F
:104DB80026F0D2EF26F08551D8B4E5EF26F0E7EFDC
:104DC80026F00BEF27F0010E8727000E8823892392
:104DD8008A238AA1F2EF26F0F4EF26F00BEF27F0F2
:104DE80087C07CF088C07DF089C07EF08AC07FF0E3
:104DF8007F357F337E337D337C337CC087F07DC045
:104E080088F07EC089F07FC08AF08B4B8C2B8CBFDA
:104E180016EF27F08C5108E18B29D8A016EF27F060
:104E280018EF27F022EF27F0000E876F000E886F2B
:104E3800800E896F7F0E8A6F50EF27F08CBF2FEF9F
:104E480027F08C5106E18B05D8B02DEF27F02FEF16
:104E580027F03BEF27F0000E876F000E886F000EDB
:104E6800896F000E8A6F000E806F50EF27F08BC09D
:104E780086F0FF0E8717FF0E88177F0E8917000E22
:104E88008A1786A14AEF27F04CEF27F04DEF27F05D
:104E9800898FD89086318A6F80518A1387C074F0C1
:104EA80088C075F089C076F08AC077F01200125079
:104EB800800B1B6E12501224216E11AE66EF27F084
:104EC80068EF27F069EF27F021802150D8B46FEF01
:104ED80027F071EF27F084EF27F02128D8A477EF87
:104EE80027F079EF27F081EF27F0000E0F6E000E04
:104EF800106E000E116E000E126E118E8CEF27F0E0
:104F0800000E0F6E000E106E000E116E000E126E67
:104F18001650800B1B1A16501624206E15AE97EFEC
:104F280027F099EF27F09AEF27F020802050D8B487
:104F3800A0EF27F0A2EF27F0B5EF27F02028D8A49C
:104F4800A8EF27F0AAEF27F0B2EF27F0000E136EB4
:104F5800000E146E000E156E000E166E158EBDEF47
:104F680027F0000E136E000E146E000E156E000E64
:104F7800166E2050D8B4C3EF27F0C5EF27F0CDEF59
:104F880027F02150D8A4CBEF27F0CDEF27F0D7EFAB
:104F980027F0000E0F6E000E106E000E116E000E40
:104FA800126E6FEF29F015500F02F3CF26F0F4CFF1
:104FB80027F026501C6E1D6A1E6A1F6A2750226E33
:104FC800236A246A256A14501002F3CF26F0F4CF1E
:104FD80027F026501C26000E1D221E221F222750B5
:104FE8002226000E23222422252213501102F3CF59
:104FF80026F0F4CF27F026501C26000E1D221E2274
:105008001F2227502226000E2322242225221EC0DA
:105018001FF01DC01EF01CC01DF01C6A13501002AA
:10502800F3CF26F0F4CF27F026501C2627501D2258
:10503800000E1E22000E1F2214500F02F3CF26F07E
:10504800F4CF27F026501C2627501D22000E1E22C2
:10505800000E1F221EC01FF01DC01EF01CC01DF038
:105068001C6A13500F02F3CF26F0F4CF27F0265016
:105078001C2627501D22000E1E22000E1F2215502E
:105088001002F3CF26F0F4CF27F02650222627501F
:105098002322000E2422000E252214501102F3CFE1
:1050A80026F0F4CF27F02650222627502322000E80
:1050B8002422000E252215501102F3CF26F0F4CF3A
:1050C80027F02650176E2750186E196A1A6A19C0E9
:1050D8001AF018C019F017C018F0176A17502226CE
:1050E80018502322195024221A5025221CC017F0C8
:1050F8001DC018F01EC019F01FC01AF0190E8AEF53
:1051080028F0D8901A32193218321732E82E85EF63
:1051180028F01750222618502322195024221A50FA
:1051280025221EC01FF01DC01EF01CC01DF01C6AE9
:10513800205021C017F0186A1726000E1822820E78
:105148001724266EFF0E1820276EC0EF28F0D8907F
:1051580022362336243625361FAEB5EF28F0B7EFB2
:1051680028F0B8EF28F02280D8901C361D361E365D
:105178001F362606D8A0270624AEC5EF28F0C7EFAD
:1051880028F0ABEF28F0000E206E1FAECEEF28F00F
:10519800D0EF28F0F4EF28F0FF0E1C14176EFF0E66
:1051A8001D14186EFF0E1E14196E7F0E1F141A6E32
:1051B8001750181019101A10D8B4E5EF28F0E7EFB7
:1051C80028F0EBEF28F0010E206EF4EF28F022A073
:1051D800F0EF28F0F2EF28F0F4EF28F0E7EF28F0EE
:1051E8002050D8B4FAEF28F0FCEF28F020EF29F08F
:1051F800010E2226000E23222422252225A007EFB5
:1052080029F009EF29F020EF29F022C017F023C078
:1052180018F024C019F025C01AF01A341A321932BD
:105228001832173217C022F018C023F019C024F022
:105238001AC025F0264A272A27BE2BEF29F0275027
:1052480008E12628D8A02BEF29F02DEF29F037EF19
:1052580029F0000E226E000E236E800E246E7F0E43
:10526800256E65EF29F027BE44EF29F0275006E1A7
:105278002604D8B042EF29F044EF29F050EF29F086
:10528800000E226E000E236E000E246E000E256E98
:10529800000E1B6E65EF29F026C021F0FF0E2216C6
:1052A800FF0E23167F0E2416000E251621A05FEF91
:1052B80029F061EF29F062EF29F0248ED89021308F
:1052C800256E1B50251222C00FF023C010F024C0F9
:1052D80011F025C012F012000001A851800BB56F23
:1052E800A851A825BC6FA7AF7CEF29F07EEF29F065
:1052F8007FEF29F0BC81BC51D8B485EF29F087EF46
:1053080029F09CEF29F0BC29D8A48DEF29F08FEF64
:1053180029F097EF29F0000EA56F000EA66F000E7A
:10532800A76F000EA86FA78F000EA86FA4EF29F033
:10533800000EA56F000EA66F000EA76F000EA86FD7
:10534800AC51800BB51BAC51AC25BD6FABAFAFEF0B
:1053580029F0B1EF29F0B2EF29F0BD81BD51D8B4E1
:10536800B8EF29F0BAEF29F0CFEF29F0BD29D8A47A
:10537800C0EF29F0C2EF29F0CAEF29F0000EA96F9B
:10538800000EAA6F000EAB6F000EAC6FAB8F000E55
:10539800AC6FD7EF29F0000EA96F000EAA6F000EB0
:1053A800AB6F000EAC6FA951AA11AB11AC11D8A408
:1053B800E0EF29F0E2EF29F0FAEF29F0000EA56FEF
:1053C800000EA66F000EA76F000EA86F800EA71321
:1053D8007F0EA813B551A813A5C0A5F0A6C0A6F0C6
:1053E800A7C0A7F0A8C0A8F03DEF2BF0BC51D8A4E7
:1053F80000EF2AF002EF2AF00CEF2AF0000EA56F5A
:10540800000EA66F000EA76F000EA86F3DEF2BF0E1
:10541800BD51BCC0ADF0AE6BAD5F000EAE5B7F0E94
:10542800AD25B66F000EAE21B76FA5C0B1F0A6C00E
:10543800B2F0A7C0B3F0A8C0B4F0000EA56F000E7C
:10544800A66F000EA76F000EA86F000EB86F000EB3
:10545800B96F000EBA6F000EBB6F000EBD6F6DEF17
:105468002AF0BD51D8B43BEF2AF03DEF2AF054EFB3
:105478002AF0D890B137B237B337B437D890A537B8
:10548800A637A737A837BBAF4CEF2AF04EEF2AF064
:105498004FEF2AF0A581D890B837B937BA37BB375C
:1054A800A951B15DAA51B259AB51B359AC51B459D4
:1054B800D8A061EF2AF063EF2AF06CEF2AF0BB8DD9
:1054C800A951B15FAA51B25BAB51B35BAC51B45BAC
:1054D800BD2B190EBD6573EF2AF075EF2AF035EF75
:1054E8002AF0B151B211B311B411D8B47EEF2AF039
:1054F80080EF2AF098EF2AF0B88198EF2AF0D89038
:10550800A537A637A737A837BBAF8DEF2AF08FEF9F
:105518002AF090EF2AF0A581D890B837B937BA3772
:10552800BB37B607D8A0B707A7AF9DEF2AF09FEF04
:105538002AF083EF2AF0000EBD6FBBAFA6EF2AF06A
:10554800A8EF2AF0CCEF2AF0FF0EB815AD6FFF0ECA
:10555800B915AE6FFF0EBA15AF6F7F0EBB15B06FE2
:10556800AD51AE11AF11B011D8B4BDEF2AF0BFEFF5
:105578002AF0C3EF2AF0010EBD6FCCEF2AF0A5A1E7
:10558800C8EF2AF0CAEF2AF0CCEF2AF0BFEF2AF0D2
:10559800BD51D8B4D2EF2AF0D4EF2AF0F8EF2AF0B0
:1055A800010EA527000EA623A723A823A8A1DFEF95
:1055B8002AF0E1EF2AF0F8EF2AF0A5C0ADF0A6C076
:1055C800AEF0A7C0AFF0A8C0B0F0B035B033AF337D
:1055D800AE33AD33ADC0A5F0AEC0A6F0AFC0A7F0F6
:1055E800B0C0A8F0B64BB72BB7BF03EF2BF0B7513D
:1055F80008E1B629D8A003EF2BF005EF2BF010EF48
:105608002BF0000EB76FB669000EA56F000EA66FDF
:10561800000EA76F000EA86FB7BF1DEF2BF0B75194
:1056280006E1B605D8B01BEF2BF01DEF2BF02BEFE2
:105638002BF0000EB76F000EB66F000EA56F000EB0
:10564800A66F000EA76F000EA86F000EB56FB6C04C
:10565800BCF0BCA132EF2BF034EF2BF037EF2BF07E
:10566800A78F38EF2BF0A79FD890BC31A86FEEEF2B
:1056780029F012002B50800B386E2B502B243F6ED4
:105688002AAE49EF2BF04BEF2BF04CEF2BF03F807D
:105698003F50D8B452EF2BF054EF2BF069EF2BF0BA
:1056A8003F28D8A45AEF2BF05CEF2BF064EF2BF0D7
:1056B800000E286E000E296E000E2A6E000E2B6E4C
:1056C8002A8E000E2B6E71EF2BF0000E286E000E46
:1056D800296E000E2A6E000E2B6E2F50800B381A82
:1056E8002F502F24406E2EAE7CEF2BF07EEF2BF048
:1056F8007FEF2BF040804050D8B485EF2BF087EF38
:105708002BF09CEF2BF04028D8A48DEF2BF08FEFD7
:105718002BF097EF2BF0000E2C6E000E2D6E000E66
:105728002E6E000E2F6E2E8E000E2F6EA4EF2BF015
:10573800000E2C6E000E2D6E000E2E6E000E2F6EBB
:105748002C502D102E102F10D8A4ADEF2BF0AFEF4A
:105758002BF0C7EF2BF0000E286E000E296E000EFE
:105768002A6E000E2B6E800E2A127F0E2B123850D6
:105778002B1228C028F029C029F02AC02AF02BC0F3
:105788002BF00AEF2DF03F50D8A4CDEF2BF0CFEF40
:105798002BF0D9EF2BF0000E286E000E296E000EAC
:1057A8002A6E000E2B6E0AEF2DF040503FC030F0ED
:1057B800316A305E000E315A7F0E3024396E000E89
:1057C80031203A6E28C034F029C035F02AC036F0AE
:1057D8002BC037F0000E286E000E296E000E2A6EC0
:1057E800000E2B6E000E3B6E000E3C6E000E3D6EE2
:1057F800000E3E6E000E406E3AEF2CF04050D8B4CA
:1058080008EF2CF00AEF2CF021EF2CF0D89034366A
:10581800353636363736D890283629362A362B3656
:105828003EAE19EF2CF01BEF2CF01CEF2CF028806B
:10583800D8903B363C363D363E362C50345C2D50A5
:1058480035582E5036582F503758D8A02EEF2CF0F8
:1058580030EF2CF039EF2CF03E8C2C50345E2D506C
:10586800355A2E50365A2F50375A402A190E40644E
:1058780040EF2CF042EF2CF002EF2CF034503510B2
:1058880036103710D8B44BEF2CF04DEF2CF065EFF5
:105898002CF03B8065EF2CF0D890283629362A3634
:1058A8002B363EAE5AEF2CF05CEF2CF05DEF2CF06F
:1058B8002880D8903B363C363D363E363906D8A04F
:1058C8003A062AAE6AEF2CF06CEF2CF050EF2CF071
:1058D800000E406E3EAE73EF2CF075EF2CF099EF92
:1058E8002CF0FF0E3B14306EFF0E3C14316EFF0E91
:1058F8003D14326E7F0E3E14336E3050311032102C
:105908003310D8B48AEF2CF08CEF2CF090EF2CF0F9
:10591800010E406E99EF2CF028A095EF2CF097EF30
:105928002CF099EF2CF08CEF2CF04050D8B49FEF6E
:105938002CF0A1EF2CF0C5EF2CF0010E2826000E5C
:1059480029222A222B222BA0ACEF2CF0AEEF2CF030
:10595800C5EF2CF028C030F029C031F02AC032F051
:105968002BC033F03334333232323132303230C03C
:1059780028F031C029F032C02AF033C02BF0394A60
:105988003A2A3ABED0EF2CF03A5008E13928D8A08C
:10599800D0EF2CF0D2EF2CF0DDEF2CF0000E3A6EA9
:1059A8003968000E286E000E296E000E2A6E000E51
:1059B8002B6E3ABEEAEF2CF03A5006E13904D8B023
:1059C800E8EF2CF0EAEF2CF0F8EF2CF0000E3A6E2E
:1059D800000E396E000E286E000E296E000E2A6E1B
:1059E800000E2B6E000E386E39C03FF03FA0FFEF5F
:1059F8002CF001EF2DF004EF2DF02A8E05EF2DF09D
:105A08002A9ED8903F302B6EBBEF2BF0120000017E
:105A1800FF05D8A412EF2DF014EF2DF033EF2DF081
:105A2800FDA119EF2DF01BEF2DF020EF2DF0010E49
:105A38000101FC6F23EF2DF0000E0101FC6F000146
:105A4800D65123EC38F0848084928494849885928B
:105A5800839E839C83960001FF2B40EF2EF0020E5D
:105A6800FF19D8A43AEF2DF03CEF2DF059EF2DF0A7
:105A7800FDA341EF2DF043EF2DF048EF2DF0010E7F
:105A88000101FC6F4BEF2DF0000E0101FC6F0001CE
:105A9800D75123EC38F0849084828494849885923A
:105AA800839E839C83962FEF2DF0030EFF19D8A4B5
:105AB80060EF2DF062EF2DF07FEF2DF0FDA567EF81
:105AC8002DF069EF2DF06EEF2DF0010E0101FC6F46
:105AD80071EF2DF0000E0101FC6F0001D85123EC8D
