:1000000010308A0000280000FF00030E8301A100C9
:100010000A08A0008A010408A2007708A300780853
:10002000A4007908A5007A08A6007B08A70083131E
:1000300083128C308400001C1F280C1832282208E0
:1000400084002308F7002408F8002508F900260892
:10005000FA002708FB0020088A00210E8300FF0E0B
:100060007F0E09008A110A128D280A108A100A11BF
:1000700082073F3406345B344F3466346D347D344C
:1000800007347F346F34803477347C3439345E34D1
:10009000793471343D34763406341E347034383457
:1000A000553454343F347334673450346D347834B9
:1000B0001C343E346A3468346E348934003440343D
:1000C000FF340A108A100A1182073F3406349B3429
:1000D0008F34A634AD34BD340734BF34AF3440342C
:1000E000B734BC3439349E34B934B1343D34B634C9
:1000F00006341E34B0343834953494343F34B33439
:10010000A7349034AD34B8341C343E34AA34A83407
:10011000AE34493400348034FF340C10FC308F008E
:1001200040308E008316CF0AD00AD10A4F08043C13
:100130000318302ACF018312A808031DC028861295
:1001400083168612831231083520F800A90000308A
:100150008316D200870183122908870006148316AC
:1001600006108312861083168610831206118316DA
:10017000061183128611831686118312A80A2F2A6C
:10018000280BE3280610831606108312300835204A
:10019000F800A90000308316D200870183122908D5
:1001A00087000610831606108312861483168610A5
:1001B0008312061183160611831286118316861187
:1001C0008312A80A2F2A2808023C031D1929861029
:1001D0008316861083122F083520F800A9000030FE
:1001E0008316D20087018312290887008316420BE9
:1001F0000029831287178316D21352088700062915
:10020000831287138316D2135208870083120610B5
:100210008316061083128610831686108312061525
:100220008316061183128611831686118312A80A7B
:100230002F2A2808033C031D3E29061183160611A8
:10024000831232083520F800A90000308316D2004E
:10025000870183122908870006108316061083126F
:1002600086108316861083120611831606118312D8
:100270008615831686118312A80A2F2A2808043CA3
:10028000031D7329861183168611831233083520C6
:10029000F800A90000308316D200870183122908D4
:1002A00087000610831606108312861083168610A8
:1002B0008312061183160611831286118316861186
:1002C0008312051683160512831285138316851370
:1002D0008312051383160513831286128316861262
:1002E0008312A80A2F2A2808053C031DB7290512E6
:1002F00083160512831234083520F800A900003057
:100300008316D20087018312290887002D0B8F29BD
:1003100087178316D21352088700942983128713F4
:100320008316D21352088700831206108316061014
:100330008312861083168610831206118316061107
:1003400083128611831686118312051283160512F5
:1003500083128517831685138312051383160513DD
:1003600083128612831686128312A80A2F2A28085F
:10037000063C031DFB29851383168513831235085C
:100380006120F800A90000308316D2008701831293
:10039000290887002C0BD3290717831652135208FC
:1003A0008700D82983120713831652135208870037
:1003B0008312061083160610831286108316861089
:1003C0008312061183160611831286118316861175
:1003D0008312051283160512831285138316851363
:1003E000831205178316051383128612831686124D
:1003F0008312A80A2F2A2808073C031D2F2A051359
:1004000083160513831236083520F800A900003042
:100410008316D200870183122908870006108316ED
:100420000610831286108316861083120611831617
:100430000611831286118316861183120512831604
:1004400005128312851383168513831205138316F1
:10045000051383128616831686128312A80183164B
:100460005008013C0318392AD00101308312AA0038
:1004700083164B0B422ACC0A4C08C73C0318422A6D
:10048000CC01CD0A4008003C03184C2AA00A0319ED
:10049000A10AB20A0319B30A83123A0B812AFC0A91
:1004A0000319FD0A7D08063C03186E2AFF3A031D56
:1004B0005D2A7C08CF3C03186E2AFD01FC018316DF
:1004C000C90A390B6F2A83122E0B6A2AAE01AD01BD
:1004D000AC016E2A0130AE00AD00AC0083164908B5
:1004E0003B3C0318752AC901C80A48083B3C03185D
:1004F000802AC801CA0A4A08633C0318802ACA0134
:1005000083120C108A110A121F2883161F129F12C1
:1005100000309D00073083129F00831605080630C7
:10052000F700F70B912A000083121F088D121F1786
:100530009F1783169F1783121F14C0308B048316D6
:100540000C140108C039810083129001853090009D
:100550000B120F308100FC308F0040308E008A116A
:100560000A16C12883161F129F1200301F389D00E3
:1005700083121F179F1783169F1783121F148A1148
:100580000A16C4288316EB01EC01FF30D200870065
:10059000831207088316EB000730EB058530F70060
:1005A000F70BD02AFF30D20087008312070883168A
:1005B000EC000730EC056C086B02031D232BEB08E5
:1005C000031DE72A41308312B900222B83166B0BDF
:1005D000EE2A42308312B900222B83166B08023CAC
:1005E000031DF72A43308312B900222B83166B08B0
:1005F000033C031D002B44308312B900222B8316C9
:100600006B08043C031D092B45308312B900222BD3
:1006100083166B08053C031D122B46308312B9006C
:10062000222B83166B08063C031D1B2B47308312BD
:10063000B900222B83166B08073C031D232B48307F
:100640008312B900831683123908F8008A110A163A
:10065000C728EC3084008313000803193C2B0230B8
:10066000F800F701F70B322BF80B312B9730F7001E
:10067000F70B382B800B2F2B00343808413C031D1F
:10068000542B0130B3000530B400B501B601E201CE
:10069000E1010230E0007130DF00E601E5010530E4
:1006A000E400DC30E300F22B3808423C031D6A2BE7
:1006B0000130B3000230B400B501B601E201E1013E
:1006C000E0007130DF00E601E5010430E400B03005
:1006D000E300F22B3808433C031D802B0130B300AC
:1006E000B401B501B601E201E1010230E000713070
:1006F000DF00E601E5010330E400E830E300F22B1F
:100700003808443C031D972B0830B300B401B501F1
:100710002530B600E201E1010230E0007130DF0077
:10072000E601E5010330E4002030E300F22B380855
:10073000453C031DAE2B0630B300B401B501253096
:10074000B600E201E1010230E0007130DF00E601B5
:10075000E5010230E4005830E300F22B3808463C53
:10076000031DC52B0430B300B401B5012530B6001C
:10077000E201E1010230E0007130DF00E601E50155
:100780000130E4009030E300F22B3808473C031DB1
:10079000DC2B0330B300B401B5012530B600E20113
:1007A000E1010230E0007130DF00E601E5010130D7
:1007B000E4002C30E300F22B3808483C031DF22BF8
:1007C0000230B3000530B400B5012530B600E201B7
:1007D000E1010230E0007130DF00E601E501E401F3
:1007E000FA30E3008A110A16F828013003178D0049
:1007F00083168C130C1483120C0883160313C90080
:10080000490F032C072C49083C3C0318082CC9014C
:100810000230831203178D0083168C130C1483127D
:100820000C0883160313C800480F172C1B2C48080C
:100830003C3C03181C2CC8010330831203178D00A5
:1008400083168C130C1483120C0883160313CA002E
:100850004A0F2B2C2F2C4A08633C0318302CCA015A
:1008600083128A110A1630298E30F70083166C081D
:10087000F8006B08F900FA01F808031D492C790803
:10088000F800F9010830F702F808031D492CF701B8
:10089000512C0310F81B502CF90DF80DF703492CBF
:1008A000F8138312003483160317100803191A2D46
:1008B0009C00140803191A2D9C02031C642C7F3021
:1008C0009C0703181A2D6A2C81309C02031C1A2DD8
:1008D00003191A2D1C08F700F801F901FA019B0110
:1008E00011089A009A1712089900130898001930F5
:1008F0009C001708980203188D2C013099020318E8
:100900008D2C9A0203188D2C9B0203188D2C9B0AA8
:100910009A0A990A17089807BF2C16089902031813
:10092000A82C01309A020318A82C9B020318A82CAB
:100930009B0A9A0A1608990717089807031CBF2CE8
:10094000990A031DBF2C9A0A031DBF2C9B0ABF2CBA
:10095000150880389A020318BE2C01309B02031838
:10096000BE2C9B0A150880389A0716089907031CA5
:100970009C2C9A0A031D9C2C9B0A9C2C7A149C0B81
:10098000C22CCD2C0310980D990D9A0D9B0D0310C0
:10099000FA0DF90DF80D9D0D792C1D1CD52C0310A9
:1009A000F80CF90CFA0C9D0CD82CF70303191A2D2E
:1009B0009D1B012D0310980D990D9A0D9B0D170885
:1009C00098020318ED2C013099020318ED2C9A02BD
:1009D0000318ED2C9B02031C102D16089902031816
:1009E000F82C01309A020318F82C9B02031C102DDE
:1009F000150880389A020318012D01309B02031C50
:100A0000102DFA0A031D102DF90A031D102DF80AE6
:100A1000031D102DF70A03191A2DF80CF90CFA0C06
:100A200011089C0015089C069C1F182DF8171E2DF8
:100A3000F8131E2DF701F801F901FA0183120313CF
:100A400000348E30F70083166B08F7026C08F9004B
:100A50006D08F800F917F7080319392D0310F90884
:100A6000031D352DF8080319392DF90CF80CF70B77
:100A70002E2DEC1F402DF809F909F80A0319F90A7F
:100A80008312003483166C0803179400110894062F
:100A9000941F512D031103100313EC1B03149F2DFE
:100AA000031703136C080317940010089500031331
:100AB0006B08031795020319672D941B612D03130F
:100AC0009F2D0308013A830003139F2D031711087C
:100AD000950003136C08031795020319792D941BD5
:100AE000732D03139F2D0308013A830003139F2DD9
:100AF00003171208950003136D08031795020319D5
:100B00008B2D941B852D03139F2D0308013A830021
:100B100003139F2D03171308950003136E08031783
:100B2000950203199D2D941B972D03139F2D0308E8
:100B3000013A830003139F2D03170310031383123D
:100B40000034203083160317980094019501960114
:100B5000970103136E08FA006D08F9006C08F8009D
:100B60006B08F7000310771CC52D031710089407B6
:100B700011080318110F950712080318120F960792
:100B800013080318130F970703130317970C960CFA
:100B9000950C940CFA0CF90CF80CF70C980BD12D61
:100BA000D32D0313B22D031383128A150A12F929C8
:100BB000F701F801F901FA01831603179801990169
:100BC0009A019B0117081604150414040319182E22
:100BD00020309C000310900D910D920D930D980DF7
:100BE000990D9A0D9B0D17081B02031D012E160867
:100BF0001A02031D012E15081902031D012E1408E7
:100C00001802031C122E140898021508031C150F55
:100C100099021608031C160F9A021708031C170FD7
:100C20009B020314F70DF80DF90DFA0D9C0BEA2D3C
:100C3000983084008317031383128A150A122E2A10
:100C4000B630F700FA01F901F80183166B086C045D
:100C50006D046E04031D2E2EF7013B2E0310F81BAE
:100C60003A2EEB0DEC0DED0DEE0DFA0DF90DF80D24
:100C7000F70B2E2EF8138312003483166B0803191A
:100C8000CA2E031794001008031D482E0313CA2E02
:100C900094070318562E7F3094020318512E031325
:100CA000CA2E031D552E0313CA2E5C2E81309407C5
:100CB000031C5C2E0313CA2E1408F700F801F90177
:100CC000FA0103136C0803179800981703136D08B3
:100CD0000317970003136E0803179600183094004B
:100CE0009501161C902E1308FA07031C7D2EF90A95
:100CF000031D7D2EF80A031995171208F907031C26
:100D0000842EF80A0319951711080313ED00ED1747
:100D10006D08F807031C8F2E03179517031303178D
:100D2000950DF80CF90CFA0C980C970C960C031016
:100D3000940B702E0130F707031CA02E0313CA2E4C
:100D4000F81BAA2E980DFA0DF90DF80DF70BAA2E27
:100D50000313CA2E981FBD2EFA0A031DBD2EF90AD1
:100D6000031DBD2EF80A031DBD2EF80CF90CFA0C5C
:100D7000F70A031DBD2E0313CA2E03136C080317B5
:100D8000950011089506951FC72EF817CF2EF8135A
:100D9000CF2E0313F701F801F901FA01031703132A
:100DA00083128A150A12FA2A831603171008B63C12
:100DB0009000FA0111080313EF00031791170310B5
:100DC000910C920C930CFA0CF90CF80CF70C900B9C
:100DD000DF2E0313EF1FF72EF709F809F909FA09B7
:100DE000F70A0319F80A0319F90A0319FA0A831210
:100DF0000034AB012B0FFD2EFF2EAB0AFA2E003470
:100E000083166E08F8016D020318092F6D08F700AC
:100E1000152FF7010830EF00ED0DF70D6E08770282
:100E20000318F700F80DEF0B0C2F83120034831614
:100E30006B08ED000A30EE00831200277708B60039
:100E400083166B08ED000A30EE0083120027780845
:100E50008316EB006B08ED000A30EE0083120027CA
:100E60007708B50083166C08ED000A30EE00831297
:100E700000277708B40083166C08ED000A30EE00F6
:100E80008312002778088316EC006C08ED000A3006
:100E9000EE00831200277708B3008A110A169929F9
:100EA000013003178D0083160313490883120317BB
:100EB0008C0083168C130C15831203130B08F70098
:100EC0008B138316031755308D00AA308D008C14B8
:100ED0008C18682F0C117708831203138B040230CF
:100EE00003178D00831603134808831203178C0021
:100EF00083168C130C15831203130B08F7008B1346
:100F00008316031755308D00AA308D008C148C1871
:100F1000872F0C117708831203138B0403300317F8
:100F20008D00831603134A08831203178C0083165F
:100F30008C130C15831203130B08F7008B13831605
:100F4000031755308D00AA308D008C148C18A62FF5
:100F50000C117708831203138B040034F801F90194
:100F6000F701FA01831603171308031DBA2F12089D
:100F70000319D82F10300313EF0003100317900D3F
:100F8000910DF70DFA0D13087A02031DC92F1208EF
:100F90007702031CD22F1208F702031CFA0313086E
:100FA000FA020314F80DF90D0313EF0BBD2F03170D
:060FB0008312031300345C
:101000000030F8001F08C33978049F004230F70011
:10101000F70B082800009F149F180C2883161E0841
:101020008312BF001E08C000C101C2013F08831621
:10103000D307831240080318400F1F282228831665
:10104000D407831241080318410F27282A28831642
:10105000D507831242080318420F2F28322883161F
:10106000D60783120430F8001F08C33978049F00A4
:101070004230F700F70B3A2800009F149F183E28D3
:1010800083161E088312BF001E08C000C101C201E2
:101090003F088316D707831240080318400F5128D2
:1010A00054288316D807831241080318410F592882
:1010B0005C288316D907831242080318420F61285F
:1010C00064288316DA0783120830F8001F08C33932
:1010D00078049F004230F700F70B6C2800009F1443
:1010E0009F18702883161E088312BF001E08C000B8
:1010F000C101C2013F088316DF07831240080318AD
:10110000400F832886288316E007831241080318BE
:10111000410F8B288E288316E1078312420803189B
:10112000420F932896288316E20783120C30F800AA
:101130001F08C33978049F004230F700F70B9E2840
:1011400000009F149F18A22883161E088312BF0058
:101150001E08C000C101C2013F088316E3078312C5
:1011600040080318400FB528B8288316E4078312F7
:1011700041080318410FBD28C0288316E5078312D4
:1011800042080318420FC528C8288316E6078312B1
:101190001030F8001F08C33978049F004230F70070
:1011A000F70BD02800009F149F18D42883161E0820
:1011B0008312BF001E08C000C101C2013F08831690
:1011C000DB07831240080318400FE728EA2883163C
:1011D000DC07831241080318410FEF28F228831619
:1011E000DD07831242080318420FF728FA288316F6
:1011F000DE0783128316E70A0319E80AE90A0319CE
:10120000EA0A6808003C0318BF295C08A8005D08CA
:10121000A900A908031D14292808783C031C1429D7
:10122000A5011430A40092292908AB002808AA00BF
:101230002B08EC002A08EB008A11831234248A154B
:101240007A088316031793007908920078089100B2
:101250007708900046309700B6309600133095001E
:10126000813094008A118312031353248A157A085B
:101270008316EE007908ED007808EC007708EB00A3
:101280008A11831221258A1579088316AB00780804
:10129000AA002A082C02AE002D08AF002B08031C60
:1012A0002B0FAF022E082802A4002908A5002F0842
:1012B000031C2F0FA50283126F088316A402700867
:1012C000031C700FA5022508EC002408EB008A110E
:1012D000831234248A157A08831603179300790839
:1012E0009200780891007708900066309700960089
:1012F00095007E3094008A118312031353248A15BB
:101300007A088316EE007908ED007808EC0077087B
:10131000EB008A11831221258A1579088316A5000E
:101320007808A4002508EC002408EB008A11831239
:1013300034248A157A088316EE007908ED007808BF
:10134000EC007708EB000317930192012030910025
:10135000833090008A118312031342258A150318E3
:10136000B329031DB8298316A5011430A4008312E4
:101370008316DE01DD01DC01DB01EA01E901680819
:10138000003C0318822C54088312C70083165508AA
:101390008312C800831656088312C900CA014A087E
:1013A0008316EE00831249088316ED008312480865
:1013B0008316EC00831247088316EB00831266083D
:1013C000831603179300831203136508831603170C
:1013D000920083120313640883160317910083128B
:1013E000031363088316031790008A1183120313F3
:1013F000A12D8A157A088316EE007908ED00780889
:10140000EC007708EB006E080317930003136D08D8
:101410000317920003136C080317910003136B0862
:1014200003179000831203136208831603179700B3
:1014300083120313610883160317960083120313A4
:101440006008831603179500831203135F08831641
:10145000031794008A1183120313D82D8A157A0872
:10146000DE007908DD007808DC007708DB008316F1
:101470006008F3006108F4006408F5006508F600F0
:101480008312B708031D6E2A0130D3070318D40A4C
:101490000319D50A0319D60A5308033C031D682A09
:1014A000D408031D682AD508031D682AD608031D21
:1014B000682A0130B700D601D501D401D3015E08F6
:1014C000D2005D08D1005C08D0005B08CF006D2A17
:1014D000BE01BD01BC010130BB00D92A52085E0229
:1014E000031CD32A031D842A51085D02031CD32A3E
:1014F000031D842A50085C02031CD32A031D842A7E
:101500004F085B02031CD32A4F085B02BB005C0838
:10151000BC005008031C500FBC025D08BD00510800
:10152000031C510FBD025E08BE005208031C520F7F
:10153000BE023E088316EE0083123D088316ED00BE
:1015400083123C088316EC0083123B088316EB00E1
:101550008A11831220268A158316EE01ED012030B0
:10156000EC008230EB007A080317930079089200B0
:1015700078089100770890008A118312031342259E
:101580008A150318C52A031DCF2A0130BA00831615
:101590002508B5002408B400CE01D12A8312BA016F
:1015A0008316DA2A8312BE01BD01BC010130BB00E3
:1015B000BA0183165808F1005908F2007208EC00CD
:1015C0007108EB008A11831234248A157A08831675
:1015D000EE007908ED007808EC007708EB000317BF
:1015E000930192017A309100883090008A11831221
:1015F00003133D2E8A1577088316EB007808EC005C
:101600007908ED007A08EE000317930003136D08C4
:101610000317920003136C080317910003136B0860
:1016200003179000970196017A309500843094005A
:101630008A118312031353248A157A088316031719
:1016400093007908920078089100770890008A1139
:1016500083120313D4268A157A08C6007908C500B8
:101660007808C4007708C30046088316EE0083128A
:1016700045088316ED00831244088316EC0083129C
:1016800043088316EB008A11831220268A157A08F4
:101690008316EE007908ED007808EC007708EB007F
:1016A0000317930192017A3091008A3090008A11D9
:1016B0008312031342258A15031C6C2BBA08031DE1
:1016C0006C2B01308316CB004D08273C03186A2B86
:1016D0000130CE00702B83128316BD01CB01CD01EA
:1016E0007608EC007508EB008A11831234248A1501
:1016F0008316EE01ED017A30EC008830EB007A08B9
:1017000003179300790892007808910077089000F9
:101710008A118312031342258A15031C952BFE019F
:101720008316B601B701702C831276088316EC007D
:101730007508EB008A11831234248A158316EE0192
:10174000ED013430EC008630EB007A08031793008B
:101750007908920078089100770890008A11831226
:10176000031342258A15031CDC2B76088316EC0034
:101770007508EB008A11831234248A157A088316BF
:10178000EE007908ED007808EC007708EB0003170D
:10179000930192015C309100863090008A1183128F
:1017A000031342258A15031CDC2B0130FE0083162F
:1017B000B601B701702C831276088316EC00750809
:1017C000EB008A11831234248A158316EE01ED0191
:1017D0004330EC008730EB007A0803179300790858
:1017E000920078089100770890008A118312031301
:1017F00042258A15031C232C76088316EC007508F5
:10180000EB008A11831234248A157A088316EE00BD
:101810007908ED007808EC007708EB0003179301D6
:10182000920157309100873090008A118312031380
:1018300042258A15031C232CFE0101308316B600B5
:10184000B701702C831276088316EC007508EB0044
:101850008A11831234248A158316EE018030ED003C
:101860001330EC008830EB007A08031793007908F6
:10187000920078089100770890008A118312031370
:1018800042258A15031C6C2C76088316EC0075081B
:10189000EB008A11831234248A157A088316EE002D
:1018A0007908ED007808EC007708EB000317930146
:1018B000803092001D309100883090008A11831290
:1018C000031342258A15031C6C2CFE018316B601F6
:1018D0000130B700702C8312FE018316B601B701E8
:1018E000DA01D901D801D701D601D501D401D3013C
:1018F000E801E701E201E101E001DF01E601E501C4
:10190000E401E30183128A110A163E293808473C94
:1019100003198E2C3808483C031D052D83166E08CC
:101920000317910003136D080317900093010A3009
:1019300092008A1183120313AE278A157708B1002B
:1019400083166E080317910003136D0803179000A8
:1019500093010A3092008A1183120313AE278A156D
:1019600079088316EE007808ED006E0803179100E1
:1019700003136D080317900093010A3092008A1137
:1019800083120313AE278A157708B00083166E08FA
:101990000317910003136D080317900093010A3099
:1019A00092008A1183120313AE278A1579088316D1
:1019B000EE007808ED006E080317910003136D0820
:1019C0000317900093010A3092008A1183120313C7
:1019D000AE278A157708AF0083166E0803179100AB
:1019E00003136D080317900093010A3092008A11C7
:1019F00083120313AE278A1579088316EE00780840
:101A0000ED006D088312B200562DB20183166E08E8
:101A10000317910003136D080317900093010A3018
:101A200092008A1183120313AE278A157708B1003A
:101A300083166E080317910003136D0803179000B7
:101A400093010A3092008A1183120313AE278A157C
:101A500079088316EE007808ED006E0803179100F0
:101A600003136D080317900093010A3092008A1146
:101A700083120313AE278A157708B00083166E0809
:101A80000317910003136D080317900093010A30A8
:101A900092008A1183120313AE278A1579088316E0
:101AA000EE007808ED006D088312AF000034831655
:101AB0006E080317910003136D080317900093013C
:101AC0000A3092008A1183120313AE278A15770811
:101AD000B60083166E080317910003136D080317F1
:101AE000900093010A3092008A1183120313AE27EB
:101AF0008A1579088316EE007808ED006E08031742
:101B0000910003136D080317900093010A309200AF
:101B10008A1183120313AE278A157708B50083163E
:101B20006E080317910003136D08031790009301CB
:101B30000A3092008A1183120313AE278A1579089E
:101B40008316EE007808ED006E080317910003136A
:101B50006D080317900093010A3092008A118312D6
:101B60000313AE278A157708B40083166E0803178F
:101B7000910003136D080317900093010A3092003F
:101B80008A1183120313AE278A1579088316EE0093
:0C1B90007808ED006D088312B3000034EB
:10200000840183131F30830583161F129F12003033
:102010009D00073083129F00A801A901AA01AB010E
:10202000AC01AD01AE01AF01B001B101B201B3012C
:10203000B401B501B601B701B801B901BA01BB01DC
:10204000BC01BD01BE01BF01C001C101C201C3018C
:10205000C401C501C601C701C801C901CA01CB013C
:10206000CC01CD01CE01CF01D001D101D201D301EC
:10207000D401D501D601D701D801D901DA01DB019C
:10208000DC01DD01DE01A330DF000230E000E10110
:10209000E2019030E3000130E400E501E601E701F0
:1020A000E801E901EA01EB01EC01ED01EE01093083
:1020B000EF00F001F101F201F301F401F501F60185
:1020C000FC01FD018316A001A101A201A301A4014D
:1020D000A501A601A701A801A901AA01AB017830B9
:1020E000AC00AD01AE01AF01E830B0000330B1008B
:1020F000B201B301FE01B601B701B801B901BA01DD
:10210000BB01BC01BD01BE01BF01C001C101C201D3
:10211000C301C401C501C601C701C801C901CA0183
:10212000CB01CC01CD01CF01D001D101FF30D200D4
:10213000D301D401D501D601D701D801D901DA01E3
:10214000DB01DC01DD01DE01DF01E001E101E20193
:10215000E301E401E501E601E701E801E901EA0143
:102160000317880189010313831203138316FF30B9
:102170000313900073308F00031383120A1283122B
:10218000852A0A160A12B22A0A160A12C22A0A1640
:102190007808B8002F3083168500D03086000030D4
:1021A0008700D2000230EC000A12831229230A169B
:1021B0002730AF00B000B100B200B300B400B500EA
:1021C000B60002308316EB00FA30EC000A128312DC
:1021D00029230A168316EB0BE4280E308312AF0076
:1021E0001930B0001C30B1000B30B2000A123D2B88
:1021F0000A16AD0102308316EB00FA30EC000A1229
:10220000831229230A168316EB0BFD280230EB00FC
:10221000FA30EC000A12831229230A168316EB0BFC
:1022200008290F308312AF002030B0002630B100F3
:102230001C30B200B3010230B400B501B601013068
:10224000AD0002308316EB00FA30EC000A12831264
:1022500029230A168316EB0B24290A128312F52B65
:102260000A168316C1012508B5002408B400CE0162
:1022700083122A0B41290A128A1500280A168A118C
:10228000AA018316B408031D4C29B508031D4C2967
:102290002508B5002408B40086178312861BAA29D6
:1022A0008316BC08031956298312AA290A1283121D
:1022B000F9260A160A12F9260A1601308316BB00FF
:1022C00086178312861BA9298316C308031D882934
:1022D0008312AD011C30AF001930B0001830B100CE
:1022E0000B30B2001E30B3001330B4001730B5000D
:1022F0000F30B60004308316EB00FA30EC000A12FF
:10230000831229230A168316EB0B7D290130C300A3
:102310001C308312AF001730B0001830B1001230FB
:10232000B20083164808EB004A08EC000A12831238
:10233000172F0A1601308316C200B9008312BA089B
:10234000031DA5290130AD00AC0001308316BA0091
:102350008312B7298316BC08031DB629B90183125D
:10236000AE01AC018316C201C301BB018312831607
:1023700006178312061B5A2ABA08031D5A2A831607
:10238000BB080319C52983125A2A0130BC00C000BA
:10239000B9008312AC018316C2018312AD0183160A
:1023A00021081F3C031C1F2A031DDA2920083F3C7B
:1023B000031C1F2AC608031D1F2A3308023C0318EA
:1023C000022AFF3A031DE8293208E73C0318022AD3
:1023D000C708031D022AB301B2010130C7000F3044
:1023E0008312AF001D30B0001E30B1001C30B200AF
:1023F0001730B3001930B4000E30B5000F30B600FE
:102400001D2A83163308023C03181E2AFF3A031DB7
:102410000D2A3208E73C03181E2AC70803191E2A92
:10242000B301B201C70125308312AF00B000B10083
:10243000B200B300B400B500B6008316562A2108D6
:102440001E3C0318562AFF3A031D2A2A20083F3C47
:102450000318562A0230C600B301B201C001A1011F
:10246000A0010F308312AF001D30B0001E30B1004C
:102470001C30B2000E30B3001930B4001830B50073
:102480000F30B6008316CA01C801C9010A128312AF
:1024900050270A1604308316EB00FA30EC000A12BB
:1024A000831229230A168316EB0B4D2A0130BA003A
:1024B000672A83128316BB08031D672AC001A10186
:1024C000A001C601BC01B901C701B301B2017E0B75
:1024D0006A2A722A360B6D2A722A370B702A722AE0
:1024E0003D0BBC2A7E0B832A1C308312AF00B00048
:1024F0002630B1000F30B200B301B401B501013094
:10250000B600B42A8316360B942A1C308312AF000F
:10251000B0002630B1000F30B200B301B401B501F4
:102520000230B600B42A8316370BA52A1C3083125A
:10253000AF00B0002630B1000F30B200B301B401DB
:10254000B5010330B600B42A83163D0BB52A1C3002
:102550008312AF00B0002630B1000F30B200B301DB
:10256000B401B5010430B60083160130B8008312FF
:10257000AD018316C400C22AB801440BC22AC401AB
:102580000130BA00B808031D802CB908031D802C47
:10259000C108031D802C83123A0B982B3B084B0279
:1025A000031DE22A3C084C02031DE22A3D084D02AD
:1025B000031DE22A3E084E02031DE22A83163A0B4F
:1025C000FE2A83123C088316EC0083123B08831614
:1025D000EB006C08EE006B08ED000A128A158312FE
:1025E00086240A168A113E08CE003D08CD003C081C
:1025F000CC003B08CB008316A301A2018312430841
:1026000083163002031D182B8312440883163102EF
:10261000031D182B8312C5080319102B8316182BC2
:10262000C6080319152B8316182B83163A0B952B06
:102630008312C608031D3D2BC508031D3D2B44080E
:10264000273C031C3D2B031D292B43080F3C031C77
:102650003D2B44088316EC00831243088316EB00DD
:102660006C08EE006B08ED000A128A1583125725DC
:102670000A168A110130AD008E2B46088316EE0033
:10268000831245088316ED00831244088316EC007C
:10269000831243088316EB000A12831220260A16BF
:1026A0007A0883160317930079089200780891003E
:1026B0007708900097019601483095008530940086
:1026C0000A128312031353240A167A088316031777
:1026D00093007908920078089100770890000A1218
:1026E00083120313D4260A167A08EA007908E9004F
:1026F0007808E8007708E70068088316EC00831282
:1027000067088316EB006C08EE006B08ED000A12F8
:102710008A15831257250A168A11AD0144088316BB
:10272000B100831243088316B000BA01802C8312D3
:10273000831624082202031DA32B25082302031D50
:10274000A32B3A0BD12BCE08031DBC2B2508EE0082
:102750002408ED000A128A15831286240A168A11AB
:1027600083162508A3002408A2008312CE01CD0100
:10277000CC01CB01D02B83163508EE003408ED00D8
:102780000A128A15831286240A168A1183162508CE
:10279000A3002408A2008312CE01CD01CC01CB01FD
:1027A00083168312430883163002031DEB2B83121A
:1027B000440883163102031DEB2B8312C50803194D
:1027C000E32B8316EB2BC6080319E82B8316EB2BA0
:1027D00083163A0B682C8312C608031D102CC508FB
:1027E000031D102C4408273C031C102C031DFC2B3C
:1027F00043080F3C031C102C44088316EC00831282
:1028000043088316EB006C08EE006B08ED000A121B
:102810008A15831257250A168A110130AD00612CE2
:1028200046088316EE00831245088316ED008312D6
:1028300044088316EC00831243088316EB000A1247
:10284000831220260A167A08831603179300790844
:10285000920078089100770890009701960148301F
:102860009500853094000A128312031353240A162C
:102870007A0883160317930079089200780891006C
:10288000770890000A1283120313D4260A167A08D6
:10289000EA007908E9007808E8007708E7006808A6
:1028A0008316EC00831267088316EB006C08EE00B9
:1028B0006B08ED000A128A15831257250A168A1131
:1028C000AD0144088316B100831243088316B0009B
:1028D000BA014A083E02031D752C48083F02031D39
:1028E000752C490845020319802C0A1283125027BF
:1028F0000A1683164908C5004A08BE004808BF00EA
:04290000382963000F
:04400E00D42FFF3F6D
:00000001FF
;PIC16F886
