:040000008431D82C43
:100008007E14803120007F08D3000B1D08290B11B6
:1000180095012300DC01853158258031013023000A
:10002800B2070030B33D01302000CB004B0822005E
:10003800B90701302000CB004B082200B8074A0856
:10004800013A031D3A2801302300D0070030D13D82
:1000580003305102E93003195002031C3A28D00139
:10006800D1012200CA012300D801D80A23001D1992
:100078003F289D1C43289D131D129D171D160130F6
:100088003302F43003193202031CA328B201B3016E
:1000980001302000CB004B082200B7074108013A85
:1000A800031D832823003B083A0403196028013004
:1000B800BA020030BB3B7128BA01BB012200C10162
:1000C8002000E7118E1167146810E710EB01EB149C
:1000D8006B160130CB004B08EF0011302000CB002D
:1000E8004B082200E4000B302000CB004B08220014
:1000F800E5001D302000CB004B082200E600200060
:100108006608503A03198C286608473A031DA02848
:10011800043022003702031C9E2801302000CB0047
:100128004B082200BE0004302000CB004B08220000
:10013800B700A328BE01A3282200BE01B7012200F0
:1001480039080319AE28B90101302000CB004B084B
:100158002200D3000A303802031C0829B801C2085B
:10016800031DBF28003020008E1A01302200D9005C
:10017800C201C20A0829C201003020008E1A0130CB
:100188002200DA0059085A0600300319013020000D
:10019800CB004B082200D8005808013A031DF92863
:1001A8005A080319D9285830DA285030FC00003092
:1001B800FD007C082000CB004B082200EC006C08F6
:1001C800503A031DF728CA08031DF4282300D8084D
:1001D800031DF4282200CA01CA0A2300D001D10154
:1001E8002000EE14F9282000EE1022006D086C069D
:1001F800031901292300B201B30122006C08200071
:10020800CB004B082200ED002000110C0139CB0077
:100218002100110C013920004B05031915299110F3
:10022800D32C110E0139CB002100110E0139200009
:100238004B05031921291112D32C12080139CB00BF
:1002480021001208013920004B050319E42A121075
:100258002200AC08031D4529250019082000CB0001
:100268004B082200AD00250018082000CB004B08E1
:100278002200AE0001302000CB004B082200AC0069
:10028800E42A250019082000CB004B082200AF0003
:10029800250018082000CB004B082200B0002000E1
:1002A800970196012200AC012F082000CB00CC0159
:1002B8004B082300B00020004C082300B100083090
:1002C800B035B10D890B6429220030082000CB001D
:1002D800CC014B082300B00420004C082300B104D3
:1002E80022002D082000CB00CC014B082300AC00D5
:1002F80020004C082300AD000830AC35AD0D890B4B
:10030800812922002E082000CB00CC014B082300B5
:10031800AC0420004C082300AD042C092000CB00BD
:1003280023002D092000CC00CB0A0319CC0A230096
:10033800300820004B072300AE00310820004C3D58
:100348002300AF002F08C101C1072E08C001C00754
:10035800240020082000CB00240021082000CC0025
:10036800240022082000CD00240023082000CE000D
:10037800230040082000CF00230041082000D000BF
:10038800D101D2014F08CB075008CC3D5108CD3DD3
:100398005208CE3D4E082400A30020004D0824003A
:1003A800A20020004C082400A10020004B082400D3
:1003B800A00001302000CB004B082200CB070830FA
:1003C8004B02031CE42ACB01240020082000CB00A8
:1003D800240021082000CC00240022082000CD00A1
:1003E800240023082000CE000430CE36CD0CCC0CDF
:1003F800CB0C890BF9294C082200DF01DF0720000C
:100408004B082200DE01DE075E08F0005F08F100FD
:10041800F201F3010030F7000F30F6004230F5002A
:100428004030F4009D31EE25803171082200E3014F
:10043800E3077008E201E20700302400A30000305F
:10044800A2000030A1000030A00000302000A00071
:100458007A30A1004430A20022005F08F901F907B0
:100468005E08F801F80799310521803178082000E5
:10047800A3007908A4007A08A500903133208031C0
:10048800200020082300DF00200021082300E000CE
:10049800200022082300E100033022006302E73035
:1004A80003196202031C5D2AE730E2000330E3000F
:1004B800632A63086204031D632AE201E3016308F7
:1004C800F901F9076208F801F80799310521803127
:1004D80078082000A3007908A4007A08A500CD3088
:1004E800A0004C30A1003E30A20092312F22803172
:1004F80020002008B3002108B4002208B500240019
:100508004108F901F9074008F801F8079931052170
:10051800803178082000A3007908A4007A08A50093
:10052800CD30A0004C30A1003F30A20092312F22E4
:10053800803120002008B0002108B1002208B20054
:1005480093319723803120003008BD003108BE0068
:100558003208BF009E31F226803120003E0822007A
:10056800A101A10720003D082200A001A007033037
:100578002102E73003192002031CC72AE730A00034
:100588000330A100CD2A21082004031DCD2AA00193
:10059800A10121082400C101C1072200200824006C
:1005A800C001C00722003C08013A031DE22A2000CE
:1005B8006D1BE22A2200B101B10AE42A2200B1012E
:1005C8002000110E890C0139CB002100110E890C75
:1005D800013920004B050319D32C91122300190867
:1005E8002000CB004B08E30023001D1DFD2A9D13AE
:1005F8009D179D1C032B1D121D169D139D17200072
:100608006308403A031D182BE408031D182B220029
:100618002B082A04031D182B2000E401E40A2200F9
:10062800B201AA01AB01D22C20006308233A031DB2
:100638002D2BE408031D2D2B22002B082A04031D53
:100648002D2B2000E40101302200AA000030AB006D
:10065800D12C2000E408031D7D2B013022002A063E
:100668002B04031D7D2B23004B084A04031D4C2B30
:1006780020006308CB00CC014B082300C8002000F1
:100688004C082300C9000130CA000030CB00D32C2D
:1006980001304A064B04031DD32C20006308CB000D
:1006A800CC012300490820004C06031D5F2B2300C2
:1006B800480820004B06031DC92C2200B70123005F
:1006C80048082000CB004B08ED0023004808200014
:1006D800CB004B082400CE002300CA01CB01200028
:1006E800E4012200AA01AB01B201D401D701D70A63
:1006F800D32C20006408013A031DD32C22002B08B8
:100708002A04031DD32C163032020318A62B20000E
:100718006308CB0022003208A03E86000230870022
:1007280020004B0881002200540820006307CB00FA
:100738004B082200D40001302000CB004B082200D7
:10074800B207D32C540820006306031DC92C2200CD
:10075800B701A201A30100302302163003192202B7
:100768000318D32B2208A03E860002308700010818
:100778002000CB0022002208423E8600023087007B
:1007880020004B08810001302200A2070030A33D61
:1007980000302302163003192202031CB62B240052
:1007A80042082000CB004B08E60024004308200044
:1007B800CB00CC014B08DA004C08DB0024004F08C2
:1007C8002000CB004B08EE006E1CED2B6712E716DD
:1007D800EF2B6716E7122200B308031D0A2C24002A
:1007E80047082000CB00CC014B08D8004C08D900A2
:1007F8000830D835D90D890BFD2B24004808200076
:10080800CB00CC014B08D8044C08D9042400440878
:100818002000CB00CC014B082200A80020004C0887
:100828002200A9000830A835A90D890B172C24002F
:1008380045082000CB00CC014B082200A80420006A
:100848004C082200A90424004A082000CB00CC014F
:100858004B082300E20020004C082300E300083086
:10086800E235E30D890B342C24004B082000CB0023
:10087800CC014B082300E20420004C082300E304C9
:1008880024004C082000CB00CC014B082300E400D6
:1008980020004C082300E5000830E435E50D890BFD
:1008A800512C24004D082000CB00CC014B0823001C
:1008B800E40420004C082300E5042400500820002C
:1008C800CB00CC014B082300CC0020004C082300AF
:1008D800CD00240054082000CB004B082200BA00A9
:1008E800B308031D7D2C24004E082000CB004B08C4
:1008F800ED00240052082000CB004B082300D5004F
:10090800240053082000CB004B082300D600240005
:1009180056082000CB004B082300DE0024005208B4
:100928002000CB004B082200E000240053082000E0
:10093800CB004B082200E100240055082000CB0022
:100948004B082200BB0023005E1CAD2C2000671161
:10095800E81420006E1CB42C2200B401B40AB62C92
:100968002200B4012000E4012200B201D4012300D6
:10097800CA01CB012200AA01AB01DB01DB0A01306D
:100988002000CB004B08E100D32C2300CA01CB0187
:100998002000E4012200AA01AB01B201D401200029
:1009A8005308FF007E1009008431DA2C9A30840045
:1009B800233085005630FE000030FF009831BA2001
:1009C800843154308400003085001B30FE00003034
:1009D800FF009831BA20843120308400013085002E
:1009E8004430FE000030FF009831BA208431A03036
:1009F8008400013085003F30FE000030FF00983150
:100A0800BA20843120308400023085003830FE005E
:100A18000030FF009831BA208431A03084000230C1
:100A280085001830FE000030FF009831BA2084316C
:100A380020308400033085004930FE000030FF007C
:100A48009831BA2084318731FC278431EF002100A6
:100A58008731FD278431EF00C63084009830850047
:100A680064308600013087000030FF000C30983178
:100A7800AE208431F430840098308500DF30860061
:100A8800013087000030FF0011309831AE208431EA
:100A980024008731FA278431D8008731FB27D90011
:100AA8007E1020008931132920008D0106305C0258
:100AB800031C0C2E182E22000E120C138C1320006F
:100AC8005C08643E8600013087000108F000F101EF
:100AD800F035F10D0030700784009830713D8500C5
:100AE800000822008D0020006B1C092E062E220013
:100AF8000E160C138C1320005C08643E860001302F
:100B080087000108F000F101F035F10D00307007A1
:100B180084009830713D8500000822008D00200077
:100B2800EB1C092E062E22000E120C178C13200027
:100B38005C08643E8600013087000108F000F1017E
:100B4800F035F10D0030700784009830713D850054
:100B5800000822008D0020006B1D092E062E2200A1
:100B68000E160C178C1320005C08643E86000130BA
:100B780087000108F000F101F035F10D0030700731
:100B880084009830713D8500000822008D00200007
:100B9800EB1D092E062E22000E120C138C172000B6
:100BA8005C08643E8600013087000108F000F1010E
:100BB800F035F10D0030700784009830713D8500E4
:100BC800000822008D0020006B1E092E062E220030
:100BD8000E160C138C1720005C08643E860001304A
:100BE80087000108F000F101F035F10D00307007C1
:100BF80084009830713D8500000822008D00200097
:100C0800EB1E092E22008D17902E22008D13902E98
:100C180020005C088400063004020318902E9831E6
:100C280004356E3E8200902E5C08063A031D232E82
:100C380022000E120C178C17200067082E2E200099
:100C48005C08073A031D312E22000E160C178C176C
:100C58002000680822008D00902E20005C08083AC9
:100C6800031D902E0F3021008D002000DF0164301D
:100C78005F02031C472E0130F0007008DF07643064
:100C88005F0203183F2E0D08F0007008E200DF0134
:100C9800C8305F02031C582E0130F0007008DF07CF
:100CA800C8305F020318502E220052082000620646
:100CB800031D862E6208F0007008E50065080F39EC
:100CC800F0007008E5006508013A031D6D2E01303B
:100CD800812E20006508023A031D742E0230812EF1
:100CE80020006508043A031D7B2E0330812E200066
:100CF8006508083A031D862E0430F00070082100AC
:100D0800EF00882E2100EF0120006208F000700833
:100D18002200D20021008D010130F000700820006F
:100D2800DC0709305C02031C0800DC010800210014
:100D3800DD005D08013A031DE52E2200C108031DF0
:100D4800DB2E0F302300BA000030BB002200C101A7
:100D5800C10A2000E7158E1511302100DB005B0861
:100D68002200E4000B302100DB005B082200E500D4
:100D78001D302100DB005B082200E600193021004D
:100D8800DB005B082200E70018302100DB005B086D
:100D98002200E80025302100DB005B082200E90082
:100DA80001302100DB005B082000EF00DE2E23006D
:100DB800BA01BB0101302100DB005B082000EF0015
:100DC800080021005D08023A031D772F0A30DB0076
:100DD8005B082000EC0021006F08023A031D532F26
:100DE8002000E81513302100DB005B082200E40036
:100DF80018302100DB005B082200E5000D302100DF
:100E0800DB005B082200E60020006C082100DB0004
:100E1800DC01DB35DC0DDB35DC0D5B08D3005C0861
:100E2800D40099318921863120006C082100DB002B
:100E3800DC015B08AE005C08AF009C318B24863176
:100E4800643020006C020318EF2E6C080A3E210063
:100E5800DB005B082000EC002300B601B70100307E
:100E680037020530031936020318EF2EB401B50115
:100E7800C330350250300319340203184E2F0130A5
:100E8800B4070030B53DC330350250300319340281
:100E9800031C432F0130B6070030B73D332F200025
:100EA8006C082100DB00DC015B08A0005C08A100E5
:100EB8000030A2000030A30099316B218631210057
:100EC8002108D401D4072008D301D30799318921F7
:100ED8002000E8112300D70101302100DB005B0866
:100EE8002000EF00080021005D08033A031D912F40
:100EF8002000671E862F6712E7166E142200B401C1
:100F0800B40A8D2FE71E8D2FE71267166E10220088
:100F1800B4012200B301B30A080021005D08043AB5
:100F2800031DB32F2000671C9E2F67106814E7105D
:100F3800EB01AB2F681CA42F67106810E714A92FCA
:100F4800E71CAC2F67146810E710EB01EB146B1665
:100F580001302100DB005B082000EF0008002100C1
:100F6800DD08031D08002000E711E8112300D70160
:100F780008002100AF018E30AC002C08AE00AB1F7A
:100F8800D22FA809A909AA09AB09A80A0319A90A0D
:100F98000319AA0A0319AB0AAF01AF0AFF302B05E0
:100FA8000319E22F0130AB36AA0CA90CA80C890B47
:100FB800D72F0130AC002C08AE07D22F2808A0008C
:100FC8002908A1002A08A2002E08AC002C08A300BA
:100FD8002F08AD002D08A4009B31C623210020084E
:100FE800A8002108A9002208AA0008003234003409
:040FF8000134583434
:1010080025001308F0390D389300CF30930591016E
:1010180021000E11C73020009B001C08FC39013844
:101028009C0087309C0591102100911420001C150C
:10103800080021002808AE002908AF002A08B000DF
:1010480003102F0D300DB1003108B4002B08AE008D
:101058002C08AF002D08B00003102F0D300DB10083
:101068003108B3003408031945283308340203183B
:101078004C283403FF3A3307AE0019302E02031C04
:101088004C282B08A8002C08A9002D08AA00080045
:101098003308031908003408330203185B283303A4
:1010A800FF3A3407AE0019302E0203180800063044
:1010B800AE002E08B200AA1BB217AD1B3217A91733
:1010C800FF30A805FF30A9050030AA05AC17FF308E
:1010D800AB05FF30AC050030AD053308340203180A
:1010E80097280130AB35AC0DAD0D890B7628013052
:1010F800B30233083406031992280130B2023208C9
:1011080007390319922875280130AA36A90CA80CAA
:10111800890B89280130AE002E08B407340833063D
:101128000319BC288828340833020318BC28013066
:10113800A835A90DAA0D890B9C280130B4023308E3
:1011480034060319B8280130B202320807390319E6
:10115800B8289B280130AD36AC0CAB0C890BAF28F6
:101168000130AE002E08B30734083306031DAE283D
:10117800B21FCE28FF30A806FF30A906FF30AA0606
:101188000130A807003003180130A9070030031800
:101198000130AA07321FE028FF30AB06FF30AC064B
:1011A800FF30AD060130AB07003003180130AC0743
:1011B800003003180130AD07B2012808AB07290831
:1011C800AC3D2A08AD3DAD1FFB28FF30AB06FF3014
:1011D800AC06FF30AD060130AB0700300318013014
:1011E800AC07003003180130AD07B201B20A2B0872
:1011F800A0002C08A1002D08A2003408AE002E087B
:10120800A3003208AF002F08A4009B31C623210099
:101218002008A8002108A9002208AA00080098317F
:10122800A420893113302400310288300319300298
:101238000318242901302400B0070030B13D1629D5
:10124800E8302100A0000330A1009931B021893194
:101258009931552189319831D2208931883104203A
:1012680089319831E32089319931182189318B17D7
:101278000B1720008E110B302100ED006D082200A5
:10128800E4000E302100ED006D082200E5001C305E
:101298002100ED006D082200E6001C302100ED0061
:1012A8006D082200E700E801E80AE90120006B1652
:1012B800D0302100A0000730A1009931B021893138
:1012C80022000E1020006B12E701E8016714E814F1
:1012D8006716EB01EB146B16ED012200A801A901BA
:1012E8002000D801D901220029082100AF01AF0749
:1012F800220028082100AE01AE079C31272489313D
:10130800200059082100AF01AF072000580821002C
:10131800AE01AE079C318B24893123009E161D1621
:10132800210091168B170B178830A0001330A100ED
:101338009931B02189312100111222005708013A50
:10134800031DAF292000E108031DAF292200D701A2
:1013580099314021893120006108013A031DC229D1
:1013680022005B08013A031DC2292000E1019B31DC
:10137800072389312300DB012200B3012200410841
:10138800013A031DD42923003B082100AF01AF0710
:1013980023003A082100AE01AE079C318B24893125
:1013A8002200DC08031DE62F3108013A031DE0295D
:1013B800B10194318D24893122005308013A031D6B
:1013C800802BD301BD08031D8E2A9D316F258931DD
:1013D8002100ED006D082000DD0001302100ED0046
:1013E8006D082200C30720005D082B3A031D0E2A52
:1013F8002200500820005A07DA005B0803185B0A2D
:10140800DB0000305B02DC3003195A02031C4B2A54
:10141800DC30482A5D082D3A031D4B2A2200490872
:101428002100ED00EE016E0820005B02031D202A5A
:1014380021006D0820005A02031C382A220049089E
:101448002100ED00EE01ED09EE09ED0A0319EE0A9F
:1014580020005A0821006D072000DA005B082100EF
:101468006E3D2000DB00402A5B085A040319402A1D
:101478000130DA020030DB3B00305B020230031936
:101488005A0203184B2A0130DA000030DB00C8305A
:10149800220043020318682A20005D082B3A031D26
:1014A8005C2A01302100ED006D082200CE07872A52
:1014B80020005D082D3A031D872A01302100ED0028
:1014C8006D082200C707872AC8304302031C872AF1
:1014D800C3014E362100ED006D082200D0004736CA
:1014E8002100ED006D082200C900023050020318E7
:1014F8007F2AD001D00A023049020318852AC9017F
:10150800C90ACE01C70101302100ED006D08220093
:10151800BD07802B01302100ED006D082200C407B3
:101528009C31F12489312100ED006D082000DE0096
:10153800E81CF62A5E082B3A031DB62A2200510839
:1015480020005807D80059080318590AD900013053
:101558005902B93003195802031CF22AB830D800CE
:101568000130F12A20005E082D3A031D3F2B600848
:101578002100ED00EE016E0820005902031DC82A63
:1015880021006D0820005802031CDF2A6008210092
:10159800ED00EE01ED09EE09ED0A0319EE0A20004F
:1015A800580821006D072000D800590821006E3D19
:1015B8002000D900E72A590858040319E72A0130FE
:1015C800D8020030D93B003059028D300319580237
:1015D8000318F22A8C30D8000030D9002200B30159
:1015E800B30A3F2B671D3F2B5E082B3A031D222BA6
:1015F80024004908220051072100ED006D0824004D
:10160800C90020006608503A031D112B51302400F0
:101618004902031C3F2B50301C2B20006608473A18
:10162800031D3F2B293024004902031C3F2B28307F
:101638002100ED006D082400C9003F2B20005E0842
:101648002D3A031D3F2B600824004902031C372B49
:1016580020006003FF3A240049072100ED006D08CF
:101668002400C9003C2B490803193C2B0130C9024E
:10167800C9080319C901C8302200440203185C2BA9
:1016880020005E082B3A031D502B01302100ED008D
:101698006D082200CF077E2B20005E082D3A031D1F
:1016A8007E2B01302100ED006D082200C8077E2B3B
:1016B800C8304402031C7E2BC4014F082100ED00F2
:1016C8006D082200D10048082100ED006D082000B7
:1016D800E0000230220051020318742BD101D10A14
:1016E80002302000600203187B2BE001E00A220090
:1016F800CF01C8012200BD016E0821006F06031941
:101708009D2B6F0886319B26893121006F080319AC
:101718009D2B2300B201B30101302100ED006D08BB
:101728002000E10001302100ED006D082300DB00FE
:10173800210021006F08ED006D082200EE00200056
:101748006D19482D5B0823004706031DAF2B2000A9
:101758005A0823004606031DC22B2200290823002D
:101768004306031DBB2B2200280823004206031D45
:10177800C22B20006F08013A031D1E2C20005B08B5
:1017880023004706031DCC2B20005A0823004606D9
:101798000319D12B2200EF01EF0A2000671CE12B6F
:1017A80067146810E7106B10EB146B115B082100CD
:1017B800AF01AF0720005A08F02B681CF42B671004
:1017C8006814E7106B10EB106B1122002908210038
:1017D800AF01AF07220028082100AE01AE07052C93
:1017E800E71C082C67106810E7146B10EB146B11DA
:1017F800240046082100ED00EE016D08AE006E08D9
:10180800AF009C312724893120005A082100ED00BF
:101818006D082400C3002300B201B3010130210088
:10182800ED006D082000E10001302100ED006D0899
:101838002300DB0020005B082300C701C707200046
:101848005A082300C601C607220029082300C3013D
:10185800C307220028082300C201C2072000590834
:1018680023004506031D3C2C20005808230044068D
:10187800031D432C20006F08013A031D832C200010
:10188800E81C832CEB116B16EB126711E814681136
:1018980059082100AF01AF07200058082100AE0108
:1018A800AE079C318B248931200058082100ED00B7
:1018B8006D082400C800200059082100ED006D08BB
:1018C8002400C7002300B201B30101302100ED005C
:1018D8006D082000E10001302100ED006D082300B3
:1018E800DB00200059082300C501C507200058085F
:1018F8002300C401C4076430EA000030EB00240070
:1019080049082100ED00EE0123006B0821006E0656
:10191800031D922C23006A0821006D06031D992CD3
:1019280020006F08013A031D152D2000671D152D95
:101938006608503A031DC12C283024004902031CB4
:10194800AE2C4908D83E2300B800FF3003180030F9
:10195800B900C12C240049082100ED00EE01ED0971
:10196800EE09ED0A0319EE0A6D08283E2300B800B7
:10197800003021006E3D2300B90020006608473A78
:10198800031DD22C240049082100ED00EE016D084A
:101998002300B80021006E082300B9002000EB11D5
:1019A8006B12EB126715E810681123003908210043
:1019B800AF01AF07230038082100AE01AE079C3104
:1019C8008B24893120006608503A031DF22C2830F8
:1019D800240049020318F22C2630F32C253021006C
:1019E800ED006D082200E7002300B201B3010130C9
:1019F8002100ED006D082000E10001302100ED001C
:101A08006D082300DB00C401C5012400490821003A
:101A1800ED00EE016D082300EA0021006E082300A6
:101A2800EB002000ED181E2D2200C108031D1E2DFD
:101A380020008E112000ED193B2D5B082100A1012B
:101A4800A10720005A082100A001A0070030A20029
:101A58000030A30099316B21893121002108D4017C
:101A6800D4072008D301D30799318921893124006B
:101A7800BE01BF012300D9012000EF012200B601F9
:101A8800BC012000ED16E62F6D1DE62FED1C4E2D36
:101A98008E154F2D8E11ED1D982FED1ED92D22007C
:101AA800BC0120005B082100A301A30720005A08FD
:101AB8002100A201A20722003B082100ED00EE014F
:101AC8006D08A0006E08A10099316B2189312100B1
:101AD8002108A901A9072008A801A80799312B21E5
:101AE800893121002808B8002908B9002A08BA0055
:101AF800D730B5002330B6003C30B7009231E3222E
:101B0800893121003508C5003608C6003708C700E6
:101B18009F3179278931210046082000EA01EA0728
:101B2800210045082000E901E90700306A02153064
:101B3800031969020318A42D1430E9000030EA00E3
:101B48006A082100A901A907200069082100A80145
:101B5800A80799312B21893121002808B8002908C4
:101B6800B9002A08BA003330B5003330B600403027
:101B7800B7009231E322893121003508C5003608C3
:101B8800C6003708C7009F317927893121004608E8
:101B9800D401D4074508D301D30799318921893164
:101BA80021008C1220000C14842EED1A842E2200A1
:101BB800BC01BC0A20005B08EA01EA075A08E901EF
:101BC800E9072200B608031D802E20006A082100BC
:101BD800A901A907200069082100A801A8079931CF
:101BE8002B21893121002808B8002908B9002A08C2
:101BF800BA003330B5003330B6004030B700923108
:101C0800E322893121003508C5003608C6003708A7
:101C1800C7009F317927893121004608D401D407AC
:101C28004508D301D30799318921893122006F08EA
:101C3800013A031D7E2E33302100B5003330B60043
:101C48004030B70020006A082100A101A107200048
:101C580069082100A001A00723006D082100A30145
:101C6800A30723006C082100A201A20799316B2168
:101C7800893121002108A901A9072008A801A8077E
:101C880099312B21893121002808B8002908B90089
:101C98002A08BA009231E32289312100350823004D
:101CA800A900210036082300AA00210037082300D4
:101CB800AB002200EF0100302300A6000030A7008F
:101CC8000030A8000030A3000030A4000030A500B8
:101CD8000030A0000030A1000030A2000030240035
:101CE800A4000030A5000030A600C001C1012200F8
:101CF800A001A101B601B60A21008C1220000C1027
:101D0800230051085004031DE12E003020006A0210
:101D1800143003196902031CA92E00306A023D30F1
:101D2800031969020318A92E0A302100A600003001
:101D3800A70020005B082100A101A10720005A0884
:101D48002100A001A0070E30C72E00306A023D30E6
:101D580003196902031CE12E00306A027930031965
:101D680069020318E12E0A302100A6000030A700FE
:101D780020005B082100A101A10720005A082100CA
:101D8800A001A0070C30A2000030A30099316B21FC
:101D9800893121002108A901A9072008A801A8075D
:101DA8009931D8218931210027082000EA01EA0762
:101DB800210026082000E901E90720006D1A6E1CA1
:101DC800F12E22003A082100ED00EE016D082000F6
:101DD800E90021006E082000EA0000306A020B309A
:101DE80003196902031C282F6A082100A901A90701
:101DF800200069082100A801A80799312B21893101
:101E080021002808B8002908B9002A08BA00663055
:101E1800B5006630B6004030B7009231E322893110
:101E280021003508C5003608C6003708C7009F31AD
:101E380079278931210046082300CF01CF072100E7
:101E480045082300CE01CE0723004C08200069076F
:101E58002100A80023004D0820006A3D2100A900A8
:101E680099312B21893121002808B8002908B900A7
:101E78002A08BA003330B5003330B6004030B70016
:101E88009231E322893121003508C5003608C600A1
:101E98003708C7009F317927893121004608240077
:101EA800AB01AB07210045082400AA01AA072300BB
:101EB8004C092100ED0023004D092100EE00ED0A38
:101EC8000319EE0A2000690821006D07A800200008
:101ED8006A0821006E3DA90099312B218931210022
:101EE8002808B8002908B9002A08BA003330B50014
:101EF8003330B6004030B7009231E32289312100F7
:101F08003508C5003608C6003708C7009F3179274D
:101F18008931210046082400AD01AD07210045089C
:101F28002400AC01AC07BD2FED19BD2F5B082100C3
:101F3800A101A10720005A082100A001A007003034
:101F4800A2000030A30099316B21893121002108BA
:101F5800D401D4072008D301D307993189218931C5
:101F68002400BE01BF012200B6012300D3012200D4
:101F7800BC01200067106814E7106711E8146811A5
:101F8800EB016B16230063082100AF01AF072300A4
:101F980062082100AE01AE079C3127248931230055
:101FA80065082100AF01AF07230064082100AE01D6
:101FB800AE079C318B24893101302100ED006D087A
:101FC8002000EF0022005D08013A031DF32F0130C5
:101FD8002100ED006D082000EF002200DD01200047
:101FE8006608503A0319FC2F6608473A031DA129D1
:081FF800913185218931A129F5
:1020080021002108200403192C28A501A50AA11BD9
:1020180017280130A035A10D890B0E280130A40026
:102028002408A5070B2821082302031D1D282008C2
:102038002202031C23282008A2022108A33B013006
:10204800A136A00C890B24280130A502031D1728EE
:102058002308A101A1072208A001A0070800200069
:102068002308A6002408A7002508A8000310270DA8
:10207800280DA9002908AE00AE08031D4A28003023
:10208800A0000030A1000030A20008002008A6002F
:102098002108A7002208A8000310270D280DA90071
:1020A8002908AF00AF08031D60280030A0000030E9
:1020B800A1000030A20008000030AB000030AC00E6
:1020C8000030AD0089302F07A6002608AE0223088D
:1020D800A6002408A7002508A8001030A836A70CD9
:1020E800A60C890B72282608A9002908AF00200829
:1020F800A6002108A7002208A8001030A836A70CBF
:10210800A60C890B82282608A9002908AF0680306A
:10211800A6002608AF05A417FF30A305FF30A405C5
:102128000030A505A117FF30A005FF30A10500303C
:10213800A2051830A6002608AA000130AB35AC0D60
:10214800AD0D890BA22822082502031DB1282108FC
:102158002402031DB12820082302031CBA282008E2
:10216800A3022108A43B2208A53B2B140130A33568
:10217800A40DA50D890BBB280130AA02031DA128B7
:102188002B08F0002C08F1002D08F2002E08A600FC
:102198002608F3002F08A7002708F4009B316623C0
:1021A80070082000A0007108A1007208A2000800B1
:1021B80021004808CB004908CC004A08CD0003108C
:1021C8004C0D4D0DCE004E08D300D308031DF32847
:1021D8000030C5000030C6000030C70008004508C0
:1021E800CB004608CC004708CD0003104C0D4D0D20
:1021F800CE004E08D400D408031D09290030C500BC
:102208000030C6000030C70008000030D0000030A1
:10221800D1000030D20089305407CB004B08D302DC
:102228004808CB004908CC004A08CD001030CD360C
:10223800CC0CCB0C890B1B294B08CE004E08D400C4
:102248004508CB004608CC004708CD001030CD36F5
:10225800CC0CCB0C890B2B294B08CE004E08D4068E
:102268008030CB004B08D405C917FF30C805FF30B4
:10227800C9050030CA05C617FF30C505FF30C605B9
:102288000030C7051830CB004B08CF000130D035DF
:10229800D10DD20D890B4B2947084A02031D5A2933
:1022A80046084902031D5A2945084802031C6329A8
:1022B8004508C8024608C93B4708CA3B50140130C4
:1022C800C835C90DCA0D890B64290130CF02031D19
:1022D8004A295008A0005108A1005208A20053083A
:1022E800CB004B08A3005408CC004C08A4009B3139
:1022F800C62321002008C5002108C6002208C700FF
:102308000800220060082100DB005B082400D200DE
:10231800220061082100DB005B082400D3002200B2
:10232800601C9F2901302100DB005B082200DC00D3
:10233800E901E90A032AE01CA92901302100DB0090
:102348005B082200DC000230F029601DB32901304F
:102358002100DB005B082200DC000330F029E01DCF
:10236800BD2901302100DB005B082200DC000430BD
:10237800F029601EC72901302100DB005B0822001C
:10238800DC000530F029E01ED12901302100DB00F6
:102398005B082200DC000630F029601FE4292000D9
:1023A8006608503A0319DC296608473A031DE429F0
:1023B80001302100DB005B082200DC000730F02937
:1023C80022003E08013A031DF62901302100DB00F6
:1023D8005B082200DC0008302100DB005B082200DB
:1023E800E900032A611D022A01302100DB005B0895
:1023F8002200DC00E801E80AE901032ADC015C08A4
:10240800013A031D080001302100DB005B082200AF
:10241800DD000F302100DB005B082200E4001C30E7
:102428002100DB005B082200E5001C302100DB00F6
:102438005B082200E600E701E80120008E11003069
:102448002100D3000030D400993189212000EB010C
:102458002200E017080020002008A6002108A70095
:102468002208A8000310270D280DA9002908AA0092
:10247800AA08031D462A0030A0000030A100003041
:10248800A20008002308A6002408A7002508A80021
:102498000310270D280DA9002908AF00AF08031D58
:1024A8005C2A0030A0000030A1000030A200080023
:1024B8002F087B3EA6002608AA072008A6002108A8
:1024C800A7002208A8001030A836A70CA60C890B74
:1024D800682A2608A9002908AF002308A6002408AE
:1024E800A7002508A8001030A836A70CA60C890B51
:1024F800782A2608A9002908AF068030A6002608F1
:10250800AF05A117A417FF30A305FF30A4050030BD
:10251800A5050030AB000030AC000030AD0007303E
:10252800A6002608AE00201C9F2A2308AB07240813
:10253800AC3D2508AD3D0130A236A10CA00C890B9D
:10254800A02A0130A335A40DA50D890BA62A0130B8
:10255800AE02031D972A0930A6002608AE00201CEB
:10256800BB2A2308AB072408AC3D2508AD3D013044
:10257800A236A10CA00C890BBC2A0130AD36AC0CDC
:10258800AB0C890BC22A0130AE02031DB32A2B08FB
:10259800F0002C08F1002D08F2002A08A6002608F1
:1025A800F3002F08A7002708F4009B316623700862
:1025B8002000A0007108A1007208A20008002100F4
:1025C8003508BB003608BC003708BD0003103C0DB9
:1025D8003D0DBE003E08BF00BF08031DFA2A0030AB
:1025E800B5000030B6000030B70008003808BB005E
:1025F8003908BC003A08BD0003103C0D3D0DBE0073
:102608003E08C400C408031D102B0030B50000307C
:10261800B6000030B700080044087B3EBB003B080A
:10262800BF073508BB003608BC003708BD001030AE
:10263800BD36BC0CBB0C890B1C2B3B08BE003E08EE
:10264800C4003808BB003908BC003A08BD00103087
:10265800BD36BC0CBB0C890B2C2B3B08BE003E08BE
:10266800C4068030BB003B08C405B617B917FF3055
:10267800B805FF30B9050030BA050030C000003099
:10268800C1000030C2000730BB003B08C300351C46
:10269800532B3808C0073908C13D3A08C23D0130FC
:1026A800B736B60CB50C890B542B0130B835B90DBB
:1026B800BA0D890B5A2B0130C302031D4B2B09306D
:1026C800BB003B08C300351C6F2B3808C00739080E
:1026D800C13D3A08C23D0130B736B60CB50C890B7E
:1026E800702B0130C236C10CC00C890B762B01301F
:1026F800C302031D672B4008A0004108A10042083F
:10270800A2003F08BB003B08A3004408BC003C08EB
:10271800A4009B31C62321002008B5002108B6007B
:102728002208B700080020003008B6003108B700BA
:102738003208B8000310370D380DB9003908BC004D
:102748003308B6003408B7003508B8000310370D51
:10275800380DB9003908BB003C080319BF2B3B08EA
:102768003C020318C62B3C03FF3A3B07B60019305E
:102778003602031CC62B3308B0003408B1003508F4
:10278800B20008003B08031908003C083B02031884
:10279800D52B3B03FF3A3C07B60019303602031825
:1027A80008000630B6003608BA00B21BBA17B51BC7
:1027B8003A17B117FF30B005FF30B1050030B20548
:1027C800B417FF30B305FF30B4050030B5053B083A
:1027D8003C020318112C0130B335B40DB50D890B2B
:1027E800F02B0130BB023B083C0603190C2C0130CE
:1027F800BA023A08073903190C2CEF2B0130B2360C
:10280800B10CB00C890B032C0130B6003608BC079C
:102818003C083B060319362C022C3C083B020318E3
:10282800362C0130B035B10DB20D890B162C0130A4
:10283800BC023B083C060319322C0130BA023A08A4
:1028480007390319322C152C0130B536B40CB30CEA
:10285800890B292C0130B6003608BB073C083B061B
:10286800031D282CBA1F482CFF30B006FF30B106D4
:10287800FF30B2060130B007003003180130B1074D
:10288800003003180130B2073A1F5A2CFF30B30644
:10289800FF30B406FF30B5060130B3070030031827
:1028A8000130B407003003180130B507BA01300809
:1028B800B3073108B43D3208B53DB51F752CFF305C
:1028C800B306FF30B406FF30B5060130B307003059
:1028D80003180130B407003003180130B507BA01F6
:1028E800BA0A3308F0003408F1003508F2003C0851
:1028F800B6003608F3003A08B7003708F4009B31F1
:10290800662370082000B0007108B1007208B20098
:1029180008009A308600233087000030C03F00301E
:10292800C13F4030C23F9A30860023308700433190
:102938000030C03F0030C13F3F30C23F9A30860070
:102948002330870046310030C03F0030C13F00309F
:10295800C23F23004E082100DB0023004F0821005E
:10296800DC00DD01DE01C8308600233087005B080B
:10297800C03F5C08C13F5D08C23F5E08C33F2200FC
:1029880020082100DB00220021082100DC00DD01F5
:10299800DE01CC308600233087005B08C03F5C082E
:1029A800C13F5D08C23F5E08C33FC8308600233080
:1029B8008700403F2400B200413FB300CC3086007E
:1029C80023308700403FB400413FB500C83086003F
:1029D80023308700403F2100DB00413FDC00423FBD
:1029E800DD00433FDE00CC30860023308700403FC7
:1029F800DF00413FE000423FE100433FE200DF09E2
:102A0800E009E109E209DF0A0319E00A0319E10A0A
:102A18000319E20A5F08DB076008DC3D6108DD3D59
:102A28006208DE3D9A308600233087004C315B080F
:102A3800C03F5C08C13F5D08C23F5E08C33FCC3061
:102A48008600233087000030C03FC13FC23FC33FEC
:102A5800C4308600233087000830C03FCF30C13FE4
:102A68000030C23F0030C33F42302300EC0000304A
:102A7800ED009A308600233087004C31403F21001A
:102A8800A800413FA900423FAA00433FAB0087315D
:102A9800BD279431210028082300A000210029081F
:102AA8002300A10021002A082300A2009A308600F2
:102AB800233087004331403F2100B500413FB60035
:102AC800423FB700230023082100A8002300240860
:102AD8002100A900230025082100AA0023002008BE
:102AE8002100AB00230021082100AC0023002208AC
:102AF8002100AD0088311D20943121002808B8003C
:102B08002908B9002A08BA009231E3229431210039
:102B18003508E4003608E5003708E60023002908F0
:102B28002100A80023002A082100A90023002B085F
:102B38002100AA000030C5000030C6004030C700A0
:102B480023005F082100B500230060082100B600BB
:102B5800230061082100B7006408B8006508B900BF
:102B68006608BA009231E322943121003508C80082
:102B78003608C9003708CA009031DC20943121009A
:102B88004508AB004608AC004708AD0088311D2059
:102B98009431210028082300A600210029082300D9
:102BA800A70021002A082300A800C430860023308B
:102BB8008700403F2100A800413FA900423FAA00EA
:102BC800433FAB008731BD27943121002808B0006E
:102BD8002908B1002A08B200230026082100B30002
:102BE800230027082100B400230028082100B5008D
:102BF8009A310F229431031C1E2E2300260821002F
:102C0800B000230027082100B10023002808210074
:102C1800B200240027082100B3002400280821005E
:102C2800B400240029082100B5009A310F229431FC
:102C38000318252E23002908A6002A08A7002B0818
:102C4800A80023005F082100C500230060082100B8
:102C5800C600230061082100C7009A30860023308F
:102C680087004631403FB500413FB600423FB700BC
:102C7800230020082100A800230021082100A90022
:102C8800230022082100AA00230023082100A00015
:102C9800230024082100A100230025082100A20008
:102CA80098319120943121002008AB002108AC0014
:102CB8002208AD0088311D20943121002808B80071
:102CC8002908B9002A08BA009231E3229431210078
:102CD8003508C8003608C9003708CA009031DC201A
:102CE800943121004508E7004608E8004708E90054
:102CF8006708A8006808A9006908AA002300200836
:102D08002100B500230021082100B6002300220875
:102D18002100B7009A30860023308700403FB80072
:102D2800413FB900423FBA009231E3229431210079
:102D38003508AB003608AC003708AD0088311D20D7
:102D4800943121002808EA002908EB002A08EC0041
:102D5800230026082100A800230027082100A90035
:102D6800230028082100AA006A08AB006B08AC0001
:102D78006C08AD0088311D209431210028082400FA
:102D8800A400210029082400A50021002A08240005
:102D9800A60023002608A9002708AA002808AB00D7
:102DA8002008A3002108A4002208A5002400240864
:102DB8002100C500240025082100C600240026089B
:102DC8002100C7009F3179279431E03086002330F5
:102DD800870021004508C03F4608C13F4708C23F59
:102DE8004808C33FE030860023308700403FDB00BF
:102DF800413FDC00423FDD00433FDE005E08803A91
:102E0800DF000030803A5F02031D142F00305D029E
:102E1800031D142F00305C02031D142F01305B02C8
:102E28000318202FE0308600233087000030C03F91
:102E3800C13FC23FC33F642FE03086002330870084
:102E4800403FDB00413FDC00423FDD00433FDE0006
:102E5800C430860023308700403FDF00413FE00058
:102E6800423FE100433FE2006208803AE3005E0827
:102E7800803A6302031D4A2F5D086102031D4A2F31
:102E88005C086002031D4A2F5B085F020318642F69
:102E9800C430860023308700403FDB00413FDC0020
:102EA800423FDD00433FDE00E030860023308700EC
:102EB8005B08C03F5C08C13F5D08C23F5E08C33F76
:102EC800E030860023308700403F2400B800413FAF
:102ED800B90023006C082100A00023006D08210020
:102EE800A100A201A301E030860023308700403F03
:102EF800A400413FA500423FA600433FA7009E31E2
:102F080070269431210021082200A701A70721007B
:102F180020082200A601A607270823006702031D30
:102F2800992F22002608230066020318A22F67089B
:102F38002200A701A70723006608B52F2300690808
:102F480022002702031DAC2F230068082200260256
:102F58000318B82F230069082200A701A707230038
:102F680068082200A601A6073C08013A031DC82FDD
:102F78003608013A031DC82F27082100D401D407B9
:102F8800220026082100E12F2200BC08031DE52F9E
:102F980027082100A101A107220026082100A0017D
:102FA800A0070030A2000030A30099316B219431B2
:102FB80021002108D401D4072008D301D30799316F
:102FC80089219A308600233087004C31403F210008
:102FD800DB00413FDC00423FDD00433FDE00D830EC
:102FE8008600233087005B08C03F5C08C13F5D084E
:102FF800C23F5E08C33F08003F3400340634003443
:103008005B3400344F340034663400346D3400349B
:103018007D340034073400347F3400346F34003496
:1030280080340034773400347C340034393400344C
:103038005E34003479340034713400343D34003463
:1030480076340034063400341E34003470340034CE
:103058003834003455340034543400343F340034A8
:103068007334003467340034503400346D34003421
:10307800783400341C3400343E3400346A3400346C
:10308800683400346E340034893400340034003439
:1030980040340034FF340034003400340034003449
:1030A80000340034003400343F3400340634003433
:1030B8005B3400344F340034663400346D340034EB
:1030C8007D340034073400347F3400346F340034E6
:1030D800FF34003485315F2D85317B2D8531972D67
:0C30E8008531B32D8531CF2D8531EB2DC6
:103122002100220821042004031908008030A2068D
:1031320008002100A00023009E1C9C2821002008DA
:1031420023009A0008002100190887397038990075
:10315200FC309905C03098050800FE0012001E00E0
:103162000130FE020030FF3B7F087E040319003469
:10317200AF286400800101310130FE020030FF3BC4
:103182007F087E0403190034BB28303430343034D5
:10319200303430343034303430345834FF345A34EC
:1031A2000134200095012100951195121508F83976
:1031B200053895008B130B130B11853020009500F9
:1031C2008B16080021008E14121425001A08F039FB
:1031D20005389A002000970196019101213098004C
:1031E2008B170B170800003480343F34FF34FF3450
:1031F200FF34FF342034033432340034FF34FF34DC
:1032020047340034013401347808F0007908F100C1
:10321200F2018E30FB007B08F300F4019B31662340
:103222007008F8007108F9007208FA00080023001B
:103232009D1721000E138E1723001E119F111E12BF
:1032420033309B0020309E009E121D1221009112ED
:103252001112080021002808A0002908A100A201DB
:103262008E30AB002B08A300A4019B31C6232100A2
:103272002008A8002108A9002208AA0008002000AE
:103282006E082100A10021082400CF0023309831CC
:103292009A20993124004F0898319A2099312400BC
:1032A2004F0898319A2008001F3021008C008D01B0
:1032B2008E0123008C018D0120008C018E012100E2
:1032C2008C140C158C150C168E148E118C128E16F5
:1032D2000C1008002100A401A501201C7429220859
:1032E200A4072308A53D0130A235A30D890B75293A
:1032F2000130A136A00C890B7A2921082004031D74
:103302006E292508A101A1072408A001A007080031
:103312002100D701D801D901DA015408DA01DA070C
:103322005308D901D9075908D500D50E250013082D
:1033320021005506CF3955062500930021005A0871
:10334200D6005908D500D636D50CD636D50C550838
:10335200D7005608D8005708250091000800210020
:10336200A401A501A201A301A201A3012108230234
:10337200031DBD292008220203180800A401A5018B
:10338200003025028A30031924020318D3290130A0
:10339200A4070030A53D003025028A30031924021B
:1033A200031CC8290130A2070030A33DB729210020
:1033B200AB01AC01270826040319082AAD01AD0AA6
:1033C200A71BED290130A635A70D890BE429013091
:1033D200AA002A08AD07E1290130AB35AC0D890BF3
:1033E200EE2927082902031DF82926082802031CB2
:1033F200FF292608A8022708A93B2B140130A7366B
:10340200A60C890B002A0130AD02031DED292C0800
:10341200A701A7072B08A601A60708002100B21FD3
:10342200262A3009B6003109B7003209B800B60AB7
:103432000319B70A0319B80A00303607B000003082
:10344200373DB1008030383DB200B51F3C2A330908
:10345200B6003409B7003509B800B60A0319B70A2D
:103462000319B80A00303607B3000030373DB40004
:103472008030383DB5008030B2068030B506350860
:103482003202031D080034083102031D080033080C
:10349200300208002100A301A401A301A40120001D
:1034A2000C0C890C01392100A000A1012008A30005
:1034B2002108A4002335A300240DA40020000C0C35
:1034C20001392100A00023082004A1002408A20041
:1034D2002108A3002208A40003302305A300003022
:1034E2002405A40024082000D701D70721002308BF
:1034F2002000D601D60756082100A000200820008F
:10350200E50023003E08200065062100A0002300FC
:103512003F082100A1002108200403199C2A200051
:1035220057082300BF01BF07200056082300BE0131
:10353200BE0701300800200057082300BF01BF0763
:10354200200056082300BE01BE07003008002100FB
:10355200A401A501A401A50120000C0E013921003E
:10356200A000A1012008A4002108A5002435A40080
:10357200250DA50020000C0C2100A000A00C200CA1
:103582000139A10024082104A2002508A300220871
:10359200A4002308A50003302405A400003025055B
:1035A200A50025082000D501D50721002408200008
:1035B200D401D40754082100A00020082000E5000F
:1035C20023003C08200065062100A00023003D08DE
:1035D2002100A100210820040319FB2A200055081C
:1035E2002300BD01BD07200054082300BC01BC0715
:1035F20001300800200055082300BD01BD0720004E
:1036020054082300BC01BC07003008002200B501A9
:10361200BB302100A10021082400CE002200340882
:10362200013A031D172B20006E14192B20006E1077
:103632006E082100A10021082400CF002300D2013E
:10364200403098319A209B312200A401A50100301C
:1036520025021030031924020318502B2408423E7D
:10366200860002308700010835072100A1002108E9
:103672002200B5002408423E86000230870001087D
:1036820098319A209B3101302200A4070030A53DD9
:1036920000302502103003192402031C2F2B33089B
:1036A200013A031D562B4530572B583098319A203A
:1036B2009B31220035082100A10021082400C60008
:1036C2002200350898319A200800730803196E2BDE
:1036D200720871047004031D7F2B0030F00000306B
:1036E200F1000030F20008000130F5007508F30720
:1036F2000130F236F10CF00C890B7A2BFE30720598
:103702000319982B752B0130F5007508F30701306A
:10371200F007003003180130F107003003180130C0
:10372200F2070130F236F10CF00C890B932BFF30CB
:1037320072050319A52B842B0130F3020130F035F9
:10374200F10DF20D890BA02BF11F9D2B7318AF2BDE
:10375200FF30F0057F30F105FF30F2050310F30C66
:103762007308F500F601F7011030F535F60DF70D87
:10377200890BB62B7508F0047608F1047708F20479
:10378200740803190800F21708002100230803191E
:10379200CF2B220821042004031DE02B0030A000BF
:1037A2000030A1000030A20008000130A500250869
:1037B200A3070130A236A10CA00C890BDB2BFE3033
:1037C20022050319F92BD62B0130A5002508A307E2
:1037D2000130A007003003180130A10700300318A0
:1037E2000130A2070130A236A10CA00C890BF42BE8
:1037F200FF3022050319062CE52B0130A30201300C
:10380200A035A10DA20D890B012CA11FFE2B23189F
:10381200102CFF30A0057F30A105FF30A205031058
:10382200A30C2308A500A601A7011030A535A60DFB
:10383200A70D890B172C2508A0042608A104270828
:10384200A204240803190800A21708000A30210064
:10385200A0000030A1002F08A301A3072E08A20197
:10386200A207903104209C3121002008B0003008CA
:103872002200E6000A302100A6000030A7002F082F
:10388200A901A9072E08A801A8079931D8219C31BE
:1038920021002708AF01AF072608AE01AE070A30A4
:1038A200A0000030A1002F08A301A3072E08A20147
:1038B200A207903104209C3121002008B00030087A
:1038C2002200E5000A302100A6000030A7002F08E0
:1038D200A901A9072E08A801A8079931D8219C316E
:1038E20021002708AF01AF072608AE01AE070A3054
:1038F200A0000030A1002F08A301A3072E08A201F7
:10390200A2079031042021002008B00030082200D4
:10391200E40008000A302100A0000030A1002F08B6
:10392200A301A3072E08A201A207903104209C3113
:1039320021002008B00030082200E9000A302100EE
:10394200A6000030A7002F08A901A9072E08A80188
:10395200A8079931D8219C3121002708AF01AF0770
:103962002608AE01AE070A30A0000030A1002F08E1
:10397200A301A3072E08A201A207903104209C31C3
:1039820021002008B00030082200E8000A3021009F
:10399200A6000030A7002F08A901A9072E08A80138
:1039A200A8079931D8219C3121002708AF01AF0720
:1039B2002608AE01AE070A30A0000030A1002F0891
:1039C200A301A3072E08A201A2079031042021001F
:1039D2002008B00030082200E700EA01EB010800ED
:1039E2002100A6019A314B229C31013A031D6C2D14
:1039F2002200C008031D1E2DD608031D1E2D0230F5
:103A0200200056065704031D112D2200C001C00AD2
:103A1200D601CD01CD0A24302100A5002508A6003B
:103A22000130200056065704031D6C2D2200C001F0
:103A3200C00AD601C601C60A672D22004008013A13
:103A4200031D322DD608031D322D033020005606E9
:103A52005704031D6C2D2200C001C00AD601D60AEC
:103A6200672D22004008013A031D632D5608013AD2
:103A7200031D632D0130200056065704031D4D2DF2
:103A820022004D08013A031D4D2DC001CD012B30FE
:103A92002100A5002508A600023020005606570482
:103AA200031D5F2D22004608013A031D5F2DC00150
:103AB200C6012D302100A5002508A6002200C00164
:103AC200D6016C2DCD01C601C001D60124302100E2
:103AD200A5002508A6002100260808002100A7014C
:103AE2009A31A8229D31013A031DEB2D2200BF0815
:103AF200031D9C2DD508031D9C2D02302000540669
:103B02005504031D8F2D2200BF01BF0AD501CC0130
:103B1200CC0A24302100A6002608A700013020008C
:103B220054065504031DEB2D2200BF01BF0AD50127
:103B3200C501C50AE62D22003F08013A031DB02D3A
:103B4200D508031DB02D0330200054065504031D73
:103B5200EB2D2200BF01BF0AD501D50AE62D2200B6
:103B62003F08013A031DE22D5508013A031DE22DDB
:103B72000130200054065504031DCC2D22004C08B0
:103B8200013A031DCC2DBF01BF0ACC012B3021000D
:103B9200A6002608A7000230200054065504031D83
:103BA200DE2D22004508013A031DDE2DBF01C501AD
:103BB2002D302100A6002608A7002200BF01D50152
:103BC200EB2DCC01C501BF01D50124302100A60097
:103BD2002608A7002100270808002000A101F31FE2
:103BE200FF2DF009F109F209F309F00A0319F10AAC
:103BF2000319F20A0319F30AA101A10AF71F102EF1
:103C0200F409F509F609F709F40A0319F50A031983
:103C1200F60A0319F70A0130F8007808A106003005
:103C2200A5000030A4000030A3000030A2007308F9
:103C32007204710470040319592EA001A00AF31B27
:103C42002E2E0130F035F10DF20DF30D890B232EDE
:103C52000130F8007808A007202E0130A235A30D0C
:103C6200A40DA50D890B2F2E73087702031D432E79
:103C720072087602031D432E71087502031D432E3E
:103C820070087402031C4E2E7008F4027108F53B92
:103C92007208F63B7308F73B22140130F336F20C3C
:103CA200F10CF00C890B4F2E0130A002031D2E2EB9
:103CB20021080319672EA209A309A409A509A20ACA
:103CC2000319A30A0319A40A0319A50A2508F30074
:103CD2002408F2002308F1002208F0000800210065
:103CE200AA01A31F812EA009A109A209A309A00A62
:103CF2000319A10A0319A20A0319A30AAA01AA0A0B
:103D0200A71F922EA409A509A609A709A40A0319A7
:103D1200A50A0319A60A0319A70A0130A800280850
:103D2200AA060030AE000030AD000030AC0000301A
:103D3200AB0023082204210420040319DB2EA9016D
:103D4200A90AA31BB02E0130A035A10DA20DA30D0F
:103D5200890BA52E0130A8002808A907A22E013040
:103D6200AB35AC0DAD0DAE0D890BB12E230827027C
:103D7200031DC52E22082602031DC52E2108250279
:103D8200031DC52E20082402031CD02E2008A402E5
:103D92002108A53B2208A63B2308A73B2B14013090
:103DA200A336A20CA10CA00C890BD12E0130A902C2
:103DB200031DB02E2A080319E92EAB09AC09AD097F
:103DC200AE09AB0A0319AC0A0319AD0A0319AE0A0C
:103DD2002E08A3002D08A2002C08A1002B08A00089
:103DE200080020003D08C1003E08C2003F08C30091
:103DF2000310420D430DC4004408CA00CA08031D43
:103E02000B2F0030C0000030BF000030BE00003079
:103E1200BD0008003D08C1003E08C2003F08C300C3
:103E22001730C336C20CC10C890B122F4108C400D3
:103E32004408C500BE17FF30BD05FF30BE05003087
:103E4200BF053D08C6003E08C7003F08C800C901BB
:103E52008E30CA02CA1F492F4A08803A8F3E031881
:103E62003B2F0030C0000030BF000030BE000030E9
:103E7200BD0008000130C936C80CC70CC60C890B3E
:103E82003C2F0130C1004108CA070319622F3B2FA2
:103E920018304A02031C5F2F0030C0000030BF0000
:103EA2000030BE000030BD0008000130C635C70D2D
:103EB200C80DC90D890B572F0130CA02CA08031D4C
:103EC200562F45080319702FC609C709C809C90921
:103ED200C60A0319C70A0319C80A0319C90A4908F5
:103EE200C0004808BF004708BE004608BD000800E1
:103EF20021004508C9004608CA004708CB00031044
:103F02004A0D4B0DCC004C08D200D208031D922F53
:103F12000030C8000030C7000030C6000030C500C5
:103F220008004508C9004608CA004708CB001730F8
:103F3200CB36CA0CC90C890B992F4908CC004C0806
:103F4200CD00C617FF30C505FF30C6050030C705D6
:103F52004508CE004608CF004708D000D1018E3078
:103F6200D202D21FD02F5208803A8F3E0318C22F9E
:103F72000030C8000030C7000030C6000030C50065
:103F820008000130D136D00CCF0CCE0C890BC32FD8
:103F92000130C9004908D2070319E92FC22F18308E
:103FA2005202031CE62F0030C8000030C700003068
:103FB200C6000030C50008000130CE35CF0DD00D4F
:103FC200D10D890BDE2F0130D202D208031DDD2F65
:103FD2004D080319F72FCE09CF09D009D109CE0A0E
:103FE2000319CF0A0319D00A0319D10A5108C800CC
:0E3FF2005008C7004F08C6004E08C500080062
:020000040001F9
:04000E0064C8FFFFC4
:00000001FF
