:020000040000fa
:080000000001040000000000f3
:020000040000fa
:10020000efb12000807f2100000188000000000085
:10021000050007000c000700d02d020000000000c0
:100220000040da000000fe004440a900005c20000d
:100230000000e0000300320000002000a001880060
:100240004440a80000000600408723000100200071
:100250001600370062004000e080480091018800ed
:100260009001ba0062004000e080480091018800df
:100270009002ba0062004000e08048000002eb00fb
:100280006028e10005003a008301e900070033001f
:10029000038009000059eb00040037006128e100e9
:1002a000010032000082eb00050007009101880088
:1002b0001001ba000200e000e6ff3a00000005006d
:1002c000910188008002780062004000e0804800d0
:1002d0003559ba008301e900080032002559ba00f7
:1002e0008301e900050032000400e000f4ff320061
:1002f00015d9ba008301e900f1ff3a0000000600b9
:100300006022b800060220000000d0008180d200e8
:100310000482d2008582d2000000a00002025200b6
:1003200083825a0003003b000202420083824a009b
:100330000000a1000603e900f3ff3a0000000600f8
:10034000889fbe008a9fbe00010578000100e00082
:100350000400350008003c000000e00020003200ee
:100360000500370060001000e080180002003b002c
:1003700001f02c001a0037000004be006011b80024
:100380006b0920000982cf00020039000882cf00eb
:100390000441b000694252000e00320008003b00e8
:1003a00082817100610164008904d1000884d30056
:1003b0008b05e8000442e800f9ff3a000500370029
:1003c0000804440089844c008b05e9000442e900dc
:1003d000fbff3a00280107000af0a70001f0a00087
:1003e0004f05be004f04be000000060003f0a2004f
:1003f000889fbe008a9fbe008c1f780044010700c2
:100400004b0133006450e1004f0032006420e100f2
:100410005200320003826c0007003b000905d00047
:100420000306d000820f54000c065d000200390064
:1004300002003200890178000306780085825500a9
:1004400004003d000003fd008103fd008502ea0079
:100450008b854200840f720002003b006000100098
:10046000e08018006011b8000005eb007a28e10078
:100470000a00390006007800c75ddd00f707b2000a
:10048000878075002d003700828171000a01780095
:10049000610560008180d1000080d3008502e90001
:1004a000f9ff3b00060440008784480002003b003f
:1004b00060041400e0841c000988a30007003200d7
:1004c0008a81710082817100610164008904d10018
:1004d0000884d3008b05e800170037000978a300d3
:1004e00013003a000b00e000130034008b05e90014
:1004f0000804440089844c000a4474000978a3006d
:100500000d003a000b00e000070034008b05e90005
:100510000804440089844c0001003a000b002000cc
:100520000978a300f7ff32000001eb00020037005a
:10053000828171000a017800cf0007000cf0a7004b
:1005400001f0a000030137006420e10002003a003e
:10055000838f6c00030133000801be000200be005f
:10056000fc0037001400200001013700889fbe0006
:100570008a9fbe008c1f7800e5000700ec00330066
:1005800003866c006450e100240032006420e10026
:10059000270032006150e100220032006120e100ba
:1005a000210032008b854200eb07b1000134b80016
:1005b000003ab8000804420089844a00013ab800b1
:1005c0000030b8008880400009014a000400330070
:1005d0000000400081804800020149008b05e900cd
:1005e000c909dd0083017000010032001300200002
:1005f000c814de004814dd004709de001200b20016
:10060000c808de00088470009b00070001f0a1000c
:100610000cf0a70001f0a000ce0037006120e1003f
:10062000d00032000801be000200be00f7ff370014
:100630006150e100fcff3a00ca0037000001be0033
:10064000e60007000470a70003f0a1006509b100ef
:10065000160032000d0035006828e1000600350064
:10066000f0ff2f00f1ff27000300e00013003b0024
:1006700001002800000005000000400081804800c3
:100680008502e900fcff3a0008003700f88f4200bd
:1006900002003c008000eb00000005008100d1005a
:1006a0000080d3008502e800fcff3a000300e00070
:1006b00002003b0060001000e0801800000006000f
:1006c000889fbe008a9fbe008c1f780090000700a4
:1006d0009700330003866c006450e1002e00320066
:1006e0006420e100330032006150e1002f0032004d
:1006f0006120e1003100320085855500eb07b00034
:100700000900200008042000050037000804440008
:1007100089844c000a0031000603430087834b00a4
:100720000001530081815b00f8ff33000203be002b
:100730000800a0000804440089844c00f6ff39003a
:10074000c639dd0083017300010032001300200070
:100750008904d1000884d3000998a3000500320061
:100760000800a7000300a0008904d1000884d3007a
:100770008b05e8008904d1000884d3000001eb0058
:100780000281d2003c00070001f0a1000cf0a7009c
:1007900001f0a0006f0037006420e100710032001a
:1007a0000801be000200be00f7ff37006120e10033
:1007b0006c0032006000b800f3ff3700000020003a
:1007c00001f82700f0ff37000001be00830007009a
:1007d0000470a70003f0a10003f8a30013003a007f
:1007e0006509b10010003200090035006928e100f8
:1007f0000200350001002800000005000000400054
:10080000818048008502e900fcff3a0000000600f4
:10081000f88f4200050035008100d1000080d30030
:100820008502e800fcff3a00000006008000eb00b3
:1008300000000500f4ff2f004d003700839f680083
:100840000100e00002003d0060001000e0801800a0
:100850000300e00002003d0060011100e08119008a
:10086000a7fe07004f00e00002003b006000100000
:10087000e080180000000600810020006180550023
:100880000b003d000b00200061fe2f000100e10085
:100890001d00340082817100610164008904d1006f
:1008a0000884d3000000e800faff3a00710020003d
:1008b0006100640003007000020060000900320063
:1008c00061044400e0844c000988a5000500320062
:1008d0008b05e8006808e10002003a008904d100b5
:1008e0000884d300f20f20000258e10005003d000b
:1008f000c75ddd00f907b200898075000800780047
:10090000000006000bf827008b00780000000500af
:100910000004be00310007000003be000405be0055
:100920000200be002d000700844f75000000060085
:100930000200be006450e100050036006420e100c2
:10094000020036000968a30001003a000800be005a
:100950000160a0004f0678004f05be004f04be00a6
:1009600000000600f0ff2f00f1ff2700f9ff37001d
:10097000889fbe008a9fbe00841f7800e4ff0700a6
:100980004f00780011003300f0ff2f00838f6c00c0
:1009900006003b00040565000a00a70008003700b8
:1009a00009f0a6001000200008003700820f540054
:1009b000838f5c00030039001000200001003e001e
:1009c0000000200009f0a7000000ea004f05be006b
:1009d0004f04be000000e00000000600c70ade0071
:1009e000f107b200f50fb20008003200e1cf42007b
:1009f000020032000170a00024000500810f700089
:100a0000010032000408050044000500810f700059
:100a100002003a00140005008502e90000004000d1
:100a200081c04800fcff3b000170a00024000500cd
:100a30000000fa00e422a800e442a900e462a90050
:100a4000e5c2a900e582a900e5a2a900e5e2a900a6
:100a5000c7e2a900d242a900d262a900d282a900ad
:100a6000d2a2a900d2c2a900d2e2a900d302a90051
:100a7000d322a9000080fa00000006000000fa005e
:100a80003ec8bf00e14f50000f003a009ccabf00b3
:100a9000614060000004e0000300320010c0b300b9
:100aa00041e8b700020037000040eb0041e8b70022
:100ab000dbc9bf00560107003ec8bf000040e80088
:100ac0003ee8b7007d0037003ec8bf00e24f50004f
:100ad0000f003a009ccabf00624060000004e000c2
:100ae0000300320010c0b30041e8b7000200370035
:100af0000040eb0041e8b700dcc9bf00440107003b
:100b00003ec8bf000040e8003ee8b7006b00370079
:100b10003ec8bf00e34f50000f003a009ccabf0020
:100b2000644060000004e0000300320010c0b30025
:100b300041e8b700020037000040eb0041e8b70091
:100b4000ddc9bf00320107003ec8bf000040e80019
:100b50003ee8b700590037003ec8bf00e44f5000e0
:100b60000f003a009ccabf00684060000004e0002b
:100b70000300320010c0b30041e8b70002003700a4
:100b80000040eb0041e8b700dec9bf0020010700cc
:100b90003ec8bf000040e8003ee8b700470037000d
:100ba0003ec8bf00e54f50000f003a009ccabf008e
:100bb000704060000004e0000300320010c0b30089
:100bc00041e8b700020037000040eb0041e8b70001
:100bd000dfc9bf000e0107003ec8bf000040e800ab
:100be0003ee8b700350037003ec8bf00e64f500072
:100bf0000f003a009ccabf000042b2000004e000af
:100c00000300320010c0b30041e8b7000200370013
:100c10000040eb0041e8b700e0c9bf00fc0007005e
:100c20003ec8bf000040e8003ee8b70023003700a0
:100c30003ec8bf00e74f50000f003a009ccabf00fb
:100c40000044b2000004e0000300320010c0b30012
:100c500041e8b700020037000040eb0041e8b70070
:100c6000e1c9bf00ea0007003ec8bf000040e8003d
:100c70003ee8b700110037003ec8bf00e84f500003
:100c80000e003a009ccabf0001c8b30001406000da
:100c90000004e0000300320010c0b30041e8b700d8
:100ca000020037000040eb0041e8b700e2c9bf0096
:100cb000d700070010c0b3003ee8b7000080fa007c
:100cc000000006000000fa003ec8bf00e14f5000df
:100cd00010003a00e9e2a9009ccabf006140600030
:100ce0000004e0000300320010c0b30041e8b70088
:100cf000020037000040eb0041e8b700e9c2a9005c
:100d0000e982a900e9a2a900dbc9bf00c000070071
:100d1000b50037003ec8bf00e24f50000f003a0058
:100d20009ccabf00624060000004e0000300320083
:100d300010c0b30041e8b700020037000040eb00ec
:100d400041e8b700e9c2a800e982a900e9a2a90028
:100d5000dcc9bf00ae000700a30037003ec8bf00db
:100d6000e34f50000f003a009ccabf00644060008f
:100d70000004e0000300320010c0b30041e8b700f7
:100d8000020037000040eb0041e8b700e9c2a900cb
:100d9000e982a800e9a2a900ddc9bf009c00070004
:100da000910037003ec8bf00e44f50000f003a00ea
:100db0009ccabf00684060000004e00003003200ed
:100dc00010c0b30041e8b700020037000040eb005c
:100dd00041e8b700e9c2a800e982a800e9a2a90099
:100de000dec9bf008a0007007f0037003ec8bf0091
:100df000e54f50000f003a009ccabf0070406000f1
:100e00000004e0000300320010c0b30041e8b70066
:100e1000020037000040eb0041e8b700e9c2a9003a
:100e2000e982a900e9a2a800dfc9bf007800070095
:100e30006d0037003ec8bf00e64f50000f003a007b
:100e40009ccabf000042b2000004e0000300320070
:100e500010c0b30041e8b700020037000040eb00cb
:100e600041e8b700e9c2a800e982a900e9a2a80008
:100e7000e0c9bf00660007005b0037003ec8bf0046
:100e8000e74f50000f003a009ccabf000044b20078
:100e90000004e0000300320010c0b30041e8b700d6
:100ea000020037000040eb0041e8b700e9c2a900aa
:100eb000e982a800e9a2a800e1c9bf005400070028
:100ec000490037003ec8bf00e84f500010003a000c
:100ed0009ccabf0001c8b300014060000004e000ec
:100ee0000300320010c0b30041e8b7000200370031
:100ef0000040eb0041e8b700e9c2a800e982a80081
:100f0000e9a2a800e2c9bf0041000700360037008f
:100f10003ec8bf00e94f50000b003a00b2c8bf0006
:100f2000e14f50000300320067c9bf00e14f50009d
:100f300005003a00e9e2a800e9c2a900e982a90097
:100f4000e9a2a900280037003ec8bf00ea4f5000c0
:100f500008003a00aac8bf00e14f500005003a005f
:100f6000e9e2a800e9c2a800e982a900e9a2a90073
:100f70001d0037003ec8bf00eb4f500008003a008c
:100f8000abc8bf00e14f500005003a00e9e2a800fd
:100f9000e9c2a900e982a800e9a2a900120037006d
:100fa0003ec8bf00ec4f500008003a004bc8bf00dd
:100fb000e14f500005003a00e9e2a800e9c2a800ac
:100fc000e982a800e9a2a900070037003ec8bf00d7
:100fd000ed4f500004003a00e9e2a800e9c2a80081
:100fe000e982a900e9a2a8003ec8bf000040e800cd
:100ff0003ee8b7003ec8bf00ed4f5000020036008b
:1010000010c0b3003ee8b7000080fa000000060000
:101010000200fa00004f78009e40780010cdb30027
:1010200000c04000004f78000040eb003fe8b700f0
:10103000130037003fc8bf000082fb009e80fb000a
:101040003fc8bf000081fb0043592b0001804000d6
:10105000000040000000400002004000000040008e
:101060006080790080407800309e200000004200bf
:10107000014878003fc8bf000040e8003fe8b700e3
:101080003fc8bf00e74f5000eaff360041c8bf002d
:10109000e14f500002003a0010c0b300eae9b70087
:1010a000e3c9bf00614060000040400000404000d4
:1010b0000040400000404000004040000040400030
:1010c00080404000cbc2bf000074a100014070000e
:1010d000cbe2b700e4c9bf0061406000614060003e
:1010e0000040400000414000612d20009140780008
:1010f000b0cfb30000c0600002407000d6e2b7007d
:10110000e5c9bf00614060006140600000404000f0
:101110000040400000414000612d200091407800d7
:1011200070cfb30000c0600002407000d6e2b7008c
:10113000e6c9bf00614060006140600000404000bf
:10114000004040000040400000414000612d200070
:1011500091407800f0ceb30000c060000240700003
:10116000d6e2b700e7c9bf0061406000614060009f
:10117000004040000040400000404000004040006f
:1011800000414000612d200091407800f0cdb30077
:1011900000c0600002407000d6e2b700e8c9bf009e
:1011a000614060006140600000404000004040003d
:1011b000004040000040400000404000004140002e
:1011c000612d200091407800f0cbb30000c060009a
:1011d00002407000d6e2b700e9c9bf00614060007c
:1011e00000404000004040000040400000404000ff
:1011f000004040000040400080404000d6c2bf0098
:101200000074a10001407000d6e2b700eac9bf0037
:101210006140600061416000712d200091407800c4
:10122000e0cfb30000c0600002407000d7e2b7001a
:101230000080fa00000006000200fa00000f7800ab
:101240001e007800a2002000110009000280d800d2
:101250008000fd000043b000dee9b7001e0078000a
:10126000a2002000110009000280d800000f7800c1
:101270001e007800a2002000110009000280d800a2
:101280008000fd000043b000dde9b7001e007800db
:10129000a2002000110009000280d800000f780091
:1012a0001e007800a2002000110009000280d80072
:1012b0008000fd000043b000dce9b7001e007800ac
:1012c000a2002000110009000280d800000f780061
:1012d0001e0078000043b000dbe9b7000080fa0090
:1012e000000006000200fa00000f78001e007800df
:1012f000a2002000110009000280d8008000fd003b
:101300000043b000e2e9b7001e007800a200200010
:10131000110009000280d800000f78001e0078003c
:10132000a2002000110009000280d8008000fd000a
:101330000043b000e1e9b7001e007800a2002000e1
:10134000110009000280d800000f78001e0078000c
:10135000a2002000110009000280d8008000fd00da
:101360000043b000e0e9b7001e007800a2002000b2
:10137000110009000280d800000f78001e007800dc
:101380000043b000dfe9b7000080fa00000006006b
:101390000000fa00de02a800de22a800dec2a800db
:1013a0000080fa00000006000200fa000040eb0096
:1013b000004f78005f000700e14f50005a003a00ec
:1013c00035cabf000004e0001a003a0036cabf0068
:1013d0000004e00017003a0037cabf00e24f500097
:1013e00008003a0010c0b30035eab7000040eb0037
:1013f00036eab70010c0b30038eab70040c2b30005
:10140000004f780037cabf00e14f500046003a0055
:1014100010c0b30035eab7000040eb0036eab70071
:1014200010c0b30039eab70040c2b300004f7800e3
:101430003d00370035cabf00e14f50000d003a00b3
:1014400036cabf000004e0000a003a0037cabf00f5
:10145000e34f500034003a0010c0b30035eab70043
:1014600010c0b30036eab70040c2b300004f7800a6
:101470002d00370035cabf00e14f500020003a0070
:1014800036cabf00e14f50001d003a0037cabf0006
:10149000e14f500009003a0038cabf00e14f500048
:1014a00006003a000040eb0035eab7000040eb00d0
:1014b00038eab700b0c2b300004f780037cabf00a7
:1014c000e24f500009003a0039cabf00e14f500016
:1014d00006003a000040eb0035eab7000040eb00a0
:1014e00039eab700d0c2b300004f78000040eb00eb
:1014f00035eab7000040eb0036eab7000a003700d3
:101500000040eb0038eab7000040eb0039eab700d2
:101510000040eb0035eab7000040eb0036eab700c8
:1015200040c2b300004f78001e80fb000080fa002c
:10153000000006000200fa000000eb0040408800b6
:101540000017800040408800404080006300600039
:10155000404088004040800037eab70037cabf00eb
:1015600033eab70031a320009140780034cabf00ad
:1015700000c068000004e0000500320037cabf0068
:1015800034eab70010002000000f78000400370094
:1015900037cabf0034eab7000000eb00000f780044
:1015a0001e0078000080fa00000006003600f800f7
:1015b000809fbe00829fbe00849fbe00869fbe00ab
:1015c0000000fa008460a90045c8bf000040e800a0
:1015d00045e8b700a5c8bf000040e800a5e8b7008f
:1015e00046c8bf000040e80046e8b700a6c8bf00f4
:1015f0000040e800a6e8b700b0cabf00e14f5000c5
:1016000003003a0010c0b3003be9b7000200370006
:1016100020c0b3003be9b700e6c2bf0062406000f3
:101620000004e00005003a0020c0b3003eeab70025
:1016300010c0b3009de8b7000400370010c0b3002d
:101640003eeab7000040eb009de8b70046c8bf0087
:10165000e94f50001a0036000040eb0046e8b700a2
:1016600049c8bf000040e80049e8b70049c8bf00ca
:10167000f34f50000b003e00a7cabf00c7eab700f7
:1016800060c8bf000004e00006003a0010c0b300cc
:1016900047e8b7000040eb0048e8b7003002200000
:1016a000d010880049c8bf00f34f50000400360036
:1016b0000040eb0049e8b70010c0b3004ae8b700ab
:1016c00086c9bf00e14f500012003a0040c8bf0079
:1016d000e14f50000f003a003ecabf00e14f5000fa
:1016e0000c003a00704b80000000e800704b88004e
:1016f000714b8000401f2000808f50000700360093
:10170000401f2000704b88000040eb0086e9b700c6
:10171000020037000000eb00704b880001408000a1
:10172000f07c2000808f50000e0036000000eb009f
:1017300040498800304980000000e80030498800b6
:1017400031498000f07c2000808f5000110036006d
:10175000007d20003049880010c0b3005ce9b7006c
:101760000c0037000000eb00304988004049800041
:101770000000e8004049880040498000e40f500024
:101780000400360050002000404988000040eb0073
:101790005ce9b70040c8bf00e14f50000e003a00be
:1017a0000000eb00304a8800404a80000000e8005a
:1017b000404a8800414a8000f07c2000808f500021
:1017c00011003400007d2000404a880010002000f5
:1017d000904b88000c0037000000eb00404a880066
:1017e000304a80000000e800304a8800304a80001b
:1017f000ee0f500004003400f0002000304a880052
:101800000000eb00904b8800714a8000a04a8000e5
:10181000808f500011003400904b8000e10f500089
:101820000e003a000000eb00804a8800904a8000d9
:101830000000e800904a8800914a8000f07c200077
:10184000808f50001100340080382100904a8800b9
:1018500010c0b30066e9b7000c0037000000eb00d1
:10186000904a8800804a80000000e800804a880092
:10187000804a8000e40f5000040034005000200033
:10188000804a88000040eb0066e9b70051842000e0
:101890009140780010c3b30080cf50001300360091
:1018a0000040eb0045e8b70056c9bf00e14f5000cb
:1018b0000e003a005fc8bf00e14f50000b003a0035
:1018c000619320009140780050c4b30080cf500055
:1018d00004003a00204980000000e8002049880008
:1018e000020037000000eb00204988003acabf0020
:1018f000ea4f50003e003a000040eb003aeab700e1
:10190000d04680000000e800d0468800e046800015
:101910000000e800e046880076120700a8c8bf0073
:10192000e14f500010003a003ecabf00e14f5000a6
:101930000d003a00e1468000301f2000808f5000eb
:101940000700360000c5b300ece8b7000000eb006c
:10195000e04688000040eb00a8e8b700020037002e
:1019600020c5b300ece8b700d14680003006200067
:10197000808f50000e0036000000eb00d04688003b
:1019800010002000504488009ec8bf000040e800be
:101990009ee8b7009ec8bf00f94f50000400360013
:1019a0000040eb009de8b7000040eb009ee8b70068
:1019b000b1a320009140780030c6b30080cf500022
:1019c000080036000040eb003beab70010c0b3004f
:1019d000afe8b70010c0b300f1e8b70010c0b30023
:1019e0003deab7003bcabf000040e8003beab70051
:1019f000b4fc07003acabf000040e8003aeab7006a
:101a0000805180000000e80080518800a1468000dd
:101a1000703e2000808f5000020036000040eb0036
:101a200057e8b7003ecabf00e14f500057003a00e8
:101a300087c9bf000004e00028003a00e0c2bf00f0
:101a40000044b2000004e0000d003a0068c9bf0085
:101a50000004e0000a003a0069c9bf00e14f5000ed
:101a600007003a0010c0b30068e9b70010c0b30027
:101a70009fe8b7000040eb0069e9b70010003700ad
:101a8000e0c2bf000044b2000004e0000c003a00d5
:101a900068c9bf00e14f500009003a0069c9bf00a2
:101aa000e14f500006003a000040eb0068e9b70043
:101ab00010c0b3009fe8b7000040eb0069e9b70031
:101ac000e0c2bf000044b2000004e00007003200a2
:101ad00010c0b30069e9b7000400370087c9bf0030
:101ae000e14f500001003a003b00070087c9bf00ea
:101af0000004e00025003a0088c9bf000004e000af
:101b000022003a00e0c2bf000044b2000004e0003e
:101b100016003a00804b80000000e800804b8800ef
:101b2000814b800070382100808f500017003600f4
:101b300010c0b30087e9b70010c0b30088e9b70050
:101b40000040eb0068e9b70010c0b3009fe8b700a1
:101b50000040eb0069e9b7000000eb00804b880013
:101b600010c0b30089e9b700080037000000eb009f
:101b7000804b88000040eb0087e9b7000040eb0095
:101b800088e9b7000040eb0089e9b7003ecabf0012
:101b9000e24f500009003a0056c9bf00e14f500023
:101ba00006003a005dc9bf00e14f500003003a0053
:101bb0000040eb005de9b700e00e07000080fa008e
:101bc0004f03be004f02be004f01be004f00be00db
:101bd0003600f900004006000000fa00e0c2bf0035
:101be0000044b2000004e0001300320062c9bf00ec
:101bf0000004e00010003a000000eb00104a8800ea
:101c0000204a80000000e800204a8800204a800026
:101c1000ee0f500008003400f0002000204a880039
:101c20000040eb0064e9b7000040eb0065e9b70055
:101c300010c0b30063e9b700e0c2bf000044b200c7
:101c40000004e00019003a0062c9bf000004e0008f
:101c500016003a0063c9bf00e14f500013003a007c
:101c60000000eb00204a8800104a80000000e800d5
:101c7000104a8800114a800070382100808f50007f
:101c80000a00340080382100104a880010c0b300d8
:101c900064e9b70010c0b30062e9b7000040eb0090
:101ca00063e9b7000040eb0089e9b700e0c2bf007c
:101cb0000044b2000004e0000f00320062c9bf001f
:101cc000e14f50000c003a000000eb00104a880081
:101cd000204a80000000e800204a8800204a800056
:101ce000ee0f500004003400f0002000204a88006d
:101cf00010c0b30063e9b700e0c2bf000044b20007
:101d00000004e00019003a0064c9bf00e14f500030
:101d100016003a0063c9bf00e14f500013003a00bb
:101d20000000eb00204a8800104a80000000e80014
:101d3000104a8800114a800070382100808f5000be
:101d40000a00340080382100104a88000040eb006f
:101d500064e9b70010c0b30065e9b70010c0b30074
:101d600062e9b7000040eb0063e9b700e0c2bf00e2
:101d70000044b2000004e00027003a0065c9bf003b
:101d8000e14f500024003a0063c9bf00e14f50000a
:101d900021003a000000eb00204a8800104a800031
:101da0000000e800104a8800114a800070382100c5
:101db000808f50001800340080382100104a8800bd
:101dc0000040eb0064e9b7000040eb0065e9b700b4
:101dd0000040eb0062e9b7000040eb0063e9b700a8
:101de0000040eb0087e9b7000040eb0088e9b7004e
:101df0000040eb0068e9b70010c0b3009fe8b700ef
:101e00000040eb0069e9b7000000eb00804b880060
:101e10000040eb0089e9b7000080fa0000000600ee
:101e20000000fa0084c0a9000080fa00004006000b
:101e30003600f800809fbe00829fbe00849fbe00d7
:101e4000869fbe000000fa0086a0a9003ecabf001f
:101e5000e14f50009b003a00c18e20009140780075
:101e600000c5b30080cf500096003a00d0458000f6
:101e70000000e800d04588004bfd070032eab700bb
:101e800068c9bf000004e0002a003a0021a3200036
:101e900091407800b0c2b30080cf500009003a00f2
:101ea0003144800000322000808f500005003e0049
:101eb000304480000146800001004000304488002a
:101ec0005100370021a3200091407800d0c2b30018
:101ed00080cf500009003a003144800020032000e8
:101ee000808f50000500360030448000114680008d
:101ef0000100500030448800430037003144800026
:101f0000f0312000808f50000300360000322000a6
:101f1000304488003c0037003144800040062000f7
:101f2000808f500038003e0040062000304488007a
:101f30003500370068c9bf00e14f500032003a0059
:101f400021a3200091407800b0c2b30080cf5000a0
:101f500009003a00514b800040062000808f50005d
:101f600005003e00504b800001468000010040000b
:101f7000504b88002400370021a3200091407800b6
:101f8000d0c2b30080cf500013003a00504b800005
:101f90000000e00010003200514b8000104680002d
:101fa000808f500005003900504b800011468000a2
:101fb00001005000504b880013003700504b800048
:101fc0000000e00010003200504b80000000e900eb
:101fd000504b88000c003700514b80003006200029
:101fe000808f50000300360040062000504b8800d0
:101ff00005003700504b80000000e00002003a006e
:102000000000eb00504b8800d1458000700c200090
:10201000808f500012003e0021a3200091407800e4
:10202000b0c2b30080cf500004003a00e045800009
:102030000000e800e0458800f001370021a32000ff
:1020400091407800d0c2b30080cf5000eb013a003d
:10205000f04580000000e800f0458800e701370007
:10206000d1458000700c2000808f5000e3013600c5
:102070000000eb00d0458800e04580000046880065
:10208000f04580001046880000468000e10f5000b7
:1020900002003e001000200000468800104680002c
:1020a000e10f500002003e001000200010468800a2
:1020b0000000eb00e04588000000eb00f0458800e0
:1020c000ce0137003ecabf00e24f5000a2013a00e5
:1020d00010c0b300b8e8b700d04580000000e800a9
:1020e000d0458800b0fc070032eab70090cabf00b4
:1020f0000004e00051003a0021a320009140780044
:10210000b0c2b30080cf500009003a0051498000ae
:10211000800c2000808f500005003e005049800058
:102120000146800001004000504988001900370036
:1021300021a3200091407800d0c2b30080cf50008e
:1021400008003a0050498000f40f500005003600a6
:10215000504980001146800001005000504988001d
:102160000c00370051498000700c2000808f500017
:1021700003003600800c200050498800050037001d
:1021800050498000f40f500002003e004001200042
:102190005049880021a3200091407800b0c2b300cc
:1021a00080cf500009003a00a14880000032200092
:1021b000808f500005003e00a0488000014680004e
:1021c00001004000a04888003401370021a320000e
:1021d00091407800d0c2b30080cf500009003a008f
:1021e000a148800020032000808f500005003600a9
:1021f000a04880001146800001005000a0488800df
:1022000026013700a1488000f0312000808f500067
:102210000300360000322000a04888001f0137006c
:10222000a148800020032000808f50001b013e0049
:1022300020032000a04888001801370090cabf0082
:10224000e14f500022003a0021a320009140780085
:10225000b0c2b30080cf500005003a009054800017
:102260000146800001004000905488000c003700b7
:1022700021a3200091407800d0c2b30080cf50004d
:1022800007003a0090548000e90f50000400360027
:102290009054800011468000010050009054880046
:1022a00091548000e0702200808f500002003600c0
:1022b0000000eb009054880090548000ea0f50001a
:1022c000f6003e00a000200090548800f300370084
:1022d00090cabf00e24f500022003a0021a3200024
:1022e00091407800b0c2b30080cf500005003a00a2
:1022f000a05480000146800001004000a0548800e6
:102300000c00370021a3200091407800d0c2b30018
:1023100080cf500007003a00a0548000e90f500021
:1023200004003600a05480001146800001005000d7
:10233000a0548800a1548000e0702200808f5000db
:10234000020036000000eb00a0548800a05480007a
:10235000ea0f5000d1003e00a0002000a0548800e9
:10236000ce00370090cabf00e34f500022003a0071
:1023700021a3200091407800b0c2b30080cf50006c
:1023800005003a00b0548000014680000100400082
:10239000b05488000c00370021a320009140780041
:1023a000d0c2b30080cf500007003a00b054800084
:1023b0000000e00004003200b054800011468000ac
:1023c00001005000b0548800b1548000e070220039
:1023d000808f5000020036000000eb00b0548800ef
:1023e000b0548000e10f5000ac003e00100020000f
:1023f000b0548800a900370090cabf00e44f5000d5
:1024000024003a0021a3200091407800b0c2b3001c
:1024100080cf500006003a00c05480008000780051
:102420000046800000804000c05488000d00370046
:1024300021a3200091407800d0c2b30080cf50008b
:1024400008003a00c05480000000e000050034009d
:10245000c05480008000780010468000008050004a
:10246000c0548800c1548000e0702200808f50006a
:10247000020034000000eb00c0548800c05480000b
:10248000e10f500085003c0010002000c05488007f
:102490008200370090cabf00e54f500036003a0076
:1024a00021a3200091407800b0c2b30080cf50003b
:1024b00009003a00004680006101b80030548000f5
:1024c000415480000200400083804800305488005e
:1024d000415488001200370021a320009140780069
:1024e000d0c2b30080cf50000d003a0030548000bd
:1024f00041548000e00f5000e08f58000800320087
:1025000032548000435480001046800001002000b7
:1025100000005100818059003054880041548800e7
:102520003254800043548000e070220001002000fb
:10253000800f5100818f5900030036006000b80001
:102540003054880041548800325480004354800045
:102550001000200001002000800f5100818f5900e1
:102560004e003e0010002000010020003054880082
:10257000415488004900370090cabf00e64f500020
:1025800022003a0021a3200091407800b0c2b3009d
:1025900080cf500005003a00905380000146800033
:1025a00001004000905388000c00370021a3200058
:1025b00091407800d0c2b30080cf500007003a00ad
:1025c000905380000000e00004003200905380002f
:1025d0001146800001005000905388009153800004
:1025e000e0702200808f5000020036000000eb00f7
:1025f0009053880090538000e10f500027003e0068
:1026000010002000905388002400370090cabf00bb
:10261000e74f500021003a0021a3200091407800ac
:10262000b0c2b30080cf500005003a00a053800034
:102630000146800001004000a05388000c003700d4
:1026400021a3200091407800d0c2b30080cf500079
:1026500007003a00a05380000000e00004003200b0
:10266000a05380001146800001005000a053880054
:10267000a1538000e0702200808f500002003600dd
:102680000000eb00a0538800a0538000e10f500031
:1026900002003e0010002000a0538800d1458000b9
:1026a000700c2000808f500012003e0021a32000fb
:1026b00091407800b0c2b30080cf500004003a00cf
:1026c000e04580000000e800e04588004b0037004e
:1026d00021a3200091407800d0c2b30080cf5000e9
:1026e00046003a00f04580000000e800f045880010
:1026f00042003700d1458000700c2000808f5000d0
:102700003e0036000000eb00d0458800e045800028
:1027100000468800f0458000104688000046800092
:10272000e10f500002003e0010002000004688002b
:1027300010468000e10f500002003e001000200013
:10274000104688000000eb00e04588000000eb0028
:10275000f04588002900370013fb070032eab70074
:1027600021a3200091407800b0c2b30080cf500078
:1027700008003a0001418000b01c2000808f50000a
:1027800004003e00004180000000e8000041880095
:102790001a00370021a3200091407800d0c2b30076
:1027a00080cf500008003a0001418000c00820009e
:1027b000808f500004003600004180000000e900d6
:1027c000004188000d00370001418000b01c20004e
:1027d000808f500003003600c01c2000004188009c
:1027e0000600370001418000c0082000808f5000a3
:1027f00002003e00c0082000004188000080fa006e
:102800004f03be004f02be004f01be004f00be008e
:102810003600f900004006003600f800809fbe0038
:10282000829fbe00849fbe00869fbe00881f7800e6
:102830007400fa00a042a9008560a900001480007d
:1028400050408800101480006040880020148000f0
:102850007040880030148000804088004014800060
:102860009040880050148000a040880050408000b4
:102870006101b800004e8000114e8000020040004f
:1028800083804800004e8800114e88005040800030
:102890006101b800504380006143800002004000a5
:1028a0008380480050438800614388006040800076
:1028b0006101b80010438000214380000200400005
:1028c00083804800104388002143880070408000c6
:1028d0006101b80070438000814380000200400025
:1028e00083804800704388008143880080408000d6
:1028f0006101b80030438000414380000200400085
:102900008380480030438800414388009040800025
:102910006101b800f04380000144800002004000e3
:1029200083804800f043880001448800a040800074
:102930006101b80010448000214480000200400082
:10294000838048001044880021448800404480006f
:102950000000e80040448800c04180000000e8001a
:10296000c0418800504080006101b800d041800023
:10297000e14180000200400083804800d04188008f
:10298000e1418800c1418000f00f2000808f50009d
:1029900012003600d0418000e14180004809dd008e
:1029a0004800de0000007100c808de00b041880069
:1029b000b04180006a00b900320220001100090015
:1029c0000280d800b04188000000eb00c0418800c0
:1029d0006000b800d0418800e1418800f04d8000df
:1029e0000000e800f04d8800f04d80008000780085
:1029f000f0538000808f500021003900004e80008d
:102a0000114e800002548000820178008301e900a9
:102a1000030033008100d1000080d300fbff3700aa
:102a2000004e8800114e88000000eb00f04d880039
:102a300010c0b3005de9b700044e8000154e800061
:102a4000a00020000023b8006020b9000701780032
:102a5000000141006a28b9000001410082037800aa
:102a600032022000030020000600be0024f607000a
:102a7000004988006000b800004e8800114e8800b0
:102a8000205480008000780040448000808f5000f7
:102a9000d7033e0050438000614380001254800001
:102aa000020278000402e900030033008100d10033
:102ab0000080d300fbff370050438800614388004b
:102ac000104380002143800012548000820278006d
:102ad0008502e900030033008100d1000080d300ab
:102ae000fbff3700104388002143880070438000bb
:102af0008143800012548000820178008301e90044
:102b0000030033008100d1000080d300fbff3700b9
:102b10007043880081438800304380004143800037
:102b200012548000020278000402e900030033001e
:102b30008100d1000080d300fbff370030438800c4
:102b400041438800f043800001448000125480001b
:102b5000820278008502e900030033008100d10081
:102b60000080d300fbff3700f04388000144880059
:102b700010448000214480001254800082017800bb
:102b80008301e900030033008100d1000080d300fd
:102b9000fbff370010448800214488000000eb0050
:102ba00040448800f443800005448000d0002000a9
:102bb0000023b8006020b90007017800000141003f
:102bc0006d28b90000014100820378004206200010
:102bd000030020000600be00c9f50700e049880098
:102be0006000b800f043880001448800144480006d
:102bf00025448000d00020000023b8006020b900e8
:102c000007017800000141006d28b9000001410072
:102c10008203780042062000030020000600be0068
:102c2000b7f50700f04988006000b800104488003c
:102c3000214488009dc8bf000004e00005003a0060
:102c400010c0b3003eeab7006000b800304388000f
:102c5000414388007043800081438000b040880079
:102c60006000b800704388008143880054438000ae
:102c700065438000a00020000023b8006020b90058
:102c800007017800000141006a28b90000014100f5
:102c90008203780032022000030020000600be00fc
:102ca00097f5070050468800504680002040880075
:102cb0005043800061438000b0438800c1438800d6
:102cc0006000b800504388006143880014438000ce
:102cd00025438000400120000023b8006020b90097
:102ce00007017800000141007428b900000141008b
:102cf0008203780012032000030020000600be00bb
:102d00007ff50700004088001243800023438000c5
:102d1000d1408000100320000088b900010020008d
:102d2000000051008180590090438800a143880031
:102d30006000b800104388002143880042c8bf00eb
:102d40000004e0000f003a0043c8bf00e94f500004
:102d50000800360000408000d0408800e049800034
:102d600090418800f0498000a041880010c0b30065
:102d700042e8b70043c8bf000040e80043e8b7009e
:102d80002e023700e149800090418000808f500082
:102d900070003900e14980009041800000805000bf
:102da000e0498800e84980006140b90064f5070007
:102db000003f9800113f98000800e00007003d0028
:102dc00002002000037824000e3890009e38900006
:102dd00087f50700003f9800113f9800020020008f
:102de000633924000e3890009e389000ddf507000e
:102df0000000e000010034002b003700e8498000ab
:102e00006140b9004ef507006037980071379800af
:102e10000800e00007003d000200200003782400c5
:102e20006e309000fe30900071f50700603798001a
:102e300071379800e84980006140b90040f507000b
:102e400040379800513798000800e00007003d0027
:102e500002002000037824004e309000de30900005
:102e600063f5070040379800513798004e319000c5
:102e7000de31900000002000613924005bf507007e
:102e8000d2cc2c00c3d42300b8f507000001be004b
:102e90006e309000fe30900055f50700e7f5070012
:102ea000504a88002d003700e84980006140b90091
:102eb00023f5070020379800313798000800e0001c
:102ec00007003d0002002000037824002e3090000f
:102ed000be30900046f50700203798003137980043
:102ee000e84980006140b90015f5070000379800f7
:102ef000113798000800e00007003d0002002000a4
:102f0000037824000e3090009e30900038f50700c2
:102f10000037980011379800020020006339240020
:102f20000e3090009e30900030f50700d2cc2c007f
:102f3000c3d42b008df507000001be002e30900099
:102f4000be3090002af50700bcf50700504a880003
:102f5000020037000000eb00e0498800f1498000e2
:102f6000a0418000808f500070003900f14980003e
:102f7000a041800000805000f0498800f84980009e
:102f80006140b900eef40700602f9800712f98009f
:102f90000800e00007003d00020020000378240044
:102fa0006e289000fe28900011f50700602f980011
:102fb000712f980002002000633924006e289000d1
:102fc000fe28900067f507000000e00001003400d3
:102fd0002b003700f84980006140b900d8f40700a1
:102fe000402f9800512f98000800e00007003d0096
:102ff00002002000037824004e289000de28900074
:10300000fbf40700402f9800512f9800f8498000ea
:103010006140b900caf40700202f9800312f9800b2
:103020000800e00007003d000200200003782400b3
:103030002e289000be289000edf40700202f980065
:10304000312f98002e299000be299000000020000a
:1030500061392400e5f40700d2cc2c00c3d423004e
:1030600042f507000001be004e289000de289000c7
:10307000dff4070071f50700604a88002d00370073
:10308000f84980006140b900adf40700002f9800b6
:10309000112f98000800e00007003d00020020000a
:1030a000037824000e2890009e289000d0f407009a
:1030b000002f9800112f9800f84980006140b90056
:1030c0009ff4070060279800712798000800e0002f
:1030d00007003d0002002000037824006e209000cd
:1030e000fe209000c2f40700602798007127980026
:1030f00002002000633924006e209000fe20900022
:10310000baf40700d2cc2c00c3d42b0017f507006b
:103110000001be000e2890009e289000b4f4070025
:1031200046f50700604a8800020037000000eb0007
:10313000f049880001408000d0408000808f50001e
:103140001b01390001408000d04080000080500009
:1031500000408800e1498000f04980000080400084
:10316000004a8800014a800030062000808f50000d
:103170004e003600014a8000d0242000808f50008d
:1031800019003600084a80006140b9006cf407005d
:1031900040279800512798000800e00007003d00f4
:1031a00002002000037824004e209000de209000d2
:1031b0008ff4070040279800512798000200200054
:1031c000031a24004e209000de209000e7f4070050
:1031d00002002000832c240039f5070017f50700b2
:1031e000a04a880031003700084a80006140b900d9
:1031f00053f4070020279800312798000800e000ca
:1032000007003d0002002000037824002e209000db
:10321000be20900076f40700202798003127980000
:1032200002002800334124002e209000be20900090
:10323000ccf407000000e000010035001900370061
:10324000084a80006140b9003df40700002798005b
:10325000112798000800e00007003d000200200050
:10326000037824000e2090009e20900060f4070058
:10327000002798001127980002002000831c2400da
:103280000e2090009e209000b8f40700020020005d
:10329000832c24000af50700e8f40700a04a880000
:1032a0000200370040062000a04a88000840800045
:1032b0006140b90022f40700601f9800711f980058
:1032c0000800e00007003d00020020000378240011
:1032d0006e189000fe18900045f40700601f9800db
:1032e000711f980002002800334124006e189000de
:1032f000fe1890009bf407000000e000010035007c
:103300002b003700084080006140b9000cf4070032
:10331000401f9800511f98000800e00007003d0082
:1033200002002000037824004e189000de18900060
:103330002ff40700401f9800511f9800084080009c
:103340006140b900fef30700201f9800311f98006c
:103350000800e00007003d00020020000378240080
:103360002e189000be18900021f40700201f98002e
:10337000311f98002e199000be1990000000200007
:103380006141240019f4070092c22500f3d82300fc
:1033900076f407000001be004e189000de18900081
:1033a00013f4070008f50700704188008200370019
:1033b000084080006140b900e1f30700001f980059
:1033c000111f98000800e00007003d0002002000e7
:1033d000037824000e1890009e18900004f4070053
:1033e000001f9800111f98000042eb00646f9800c6
:1033f00002002800334124000e1890009e1890000f
:103400000cf507000000e00001003d00020037005d
:1034100015c0b300656f98006e6890000004a200ac
:103420000004e00021003a00084080006140b9003b
:10343000c3f3070050179800611798000800e000d8
:1034400007003d0002002000037824005e10900079
:10345000ee109000e6f307005017980061179800ef
:103460000040eb00006f9800020028008341240018
:103470005e109000ee1090003af407000000e000ab
:10348000010034000200370011c0b300016f980042
:103490000e6890000004a2000004e00003003a005f
:1034a00000408000704188004300370008408000e1
:1034b0006140b900a2f30700201798003117980067
:1034c0000800e00007003d0002002000037824000f
:1034d0002e109000be109000c5f307002017980032
:1034e0003117980002002800834124002e1090001c
:1034f000be109000cff407000000e00001003c0087
:103500002d003700084080006140b9008cf30700af
:1035100000179800111798000800e00007003d0010
:1035200002002000037824000e1090009e109000ee
:10353000aff30700001798001117980008408000ab
:103540006140b9007ef30700600f9800710f98008a
:103550000800e00007003d0002002000037824007e
:103560006e089000fe089000a1f30700600f98001d
:10357000710f980002002000634124006e08900043
:10358000fe08900099f30700a2702d0033c22b00b3
:10359000f6f307000001be000e1090009e10900090
:1035a00093f3070088f40700704188000200370099
:1035b0000000eb0000408800514a8000604a800013
:1035c000808f50000d003400504a8000614a800016
:1035d00001005000500f98005e0990000200e000ca
:1035e00003003d00de0990008301ea00530f9800bc
:1035f0005e0a9000744a880010003700614a80001b
:10360000504a8000808f50000c003400604a8000d7
:10361000514a800001005000400f9800ce0a9000ef
:103620000500e00003003d004e0890000000ea00a5
:10363000400f9800ce089000714a880042c8bf0031
:10364000e14f500031003a009dc8bf00e14f5000eb
:103650000a003a00a7cabf00644060000004e0000e
:103660000300320010c0b30040e8b7002700370065
:103670000040eb0040e8b700240037000040800025
:10368000e90f50000300360010c0b30040e8b70057
:103690001e00370040c8bf00e14f50001b003a0039
:1036a0003ecabf00e14f500018003a00714c800044
:1036b00030448000808f500005003200314480008b
:1036c00020002000d408070030448000704c88009f
:1036d000614c8000504b8000808f5000050032000c
:1036e000514b800060002000cb080700504b800049
:1036f000604c88000040eb0040e8b7000000eb00a1
:10370000704b880010c0b30086e9b70071852000b7
:1037100091407800f0c4b30080cf5000b4003a006c
:10372000edc8bf00e14f5000b1003a0020478000d3
:10373000f00f5000ae003e00204080006101b80054
:1037400040488000514880000200400083804800cb
:103750004048880051488800004080006101b8005e
:10376000604880007148800002004000838048006b
:103770006048880071488800204780000000e80009
:103780002047880020478000f00f500093003a0047
:103790000040eb00efe8b700244880003548800087
:1037a000f0c8bf000081fb00030020000400be0041
:1037b000d3f20700c0478800d14788004048800006
:1037c000514880004c09dd004400de00000071001b
:1037d000c408de00e0478800f147880060488000a8
:1037e00071488000cc09dd004400de0000807100db
:1037f000c408de000048880011488800e2478000c5
:10380000f3478000c0478000d1478000800f5100ff
:10381000818f590059003900e2478000f34780004a
:10382000c0478000d14780000001510081815900cc
:10383000220f9800330f98002e0a9000be0a9000c5
:10384000e00f5200e08f5a00060035002e0890006d
:10385000be089000baf20700000f9800110f980000
:10386000140037002e099000be099000610061002d
:103870008000eb002e0a9000be0a90008501d10066
:103880000481d3000200700083807000acf2070056
:10389000000f9800110f98000e0990009e099000eb
:1038a0000e0890009e089000d1f20700000f9800cb
:1038b000110f980002002000a34724000e0890007a
:1038c0009e08900029f30700600798007107980090
:1038d0000048800011488000400798005107980078
:1038e0004e019000de019000e00f5100e08f590082
:1038f000060035004e009000de00900090f20700b8
:103900002007980031079800140037004e029000fd
:10391000de029000610062008000eb004e02900029
:10392000de0290008501d1000481d3000200700006
:103930008380700082f2070020079800310798000a
:103940002e019000be0190002e009000be0090005d
:10395000a7f2070020079800310798002e01900079
:10396000be0190006e009000fe00900054f307002e
:1039700095f3070010478800020037000000eb00b5
:1039800010478800184780006140b9006cf20700ba
:10399000008fbe000800e00005003d00020020008e
:1039a000037824001e00be0091f20700008fbe00c5
:1039b00002002000031224001e00be00ebf20700ec
:1039c00081f3070080007800400020001208070003
:1039d000104780000047880005003700204780001e
:1039e000f00f500002003e00204780000047880092
:1039f000a042a8000080fa004f0478004f03be00e8
:103a00004f02be004f01be004f00be003600f9005d
:103a100000400600809fbe000000fa008720a90039
:103a200060c8bf00e14f50001f003a0061c8bf00ee
:103a3000f54f50000b003e0061c8bf008080fb00c6
:103a4000d0a0200000804000104078000080fb00e3
:103a5000d010880061c8bf000040e80061e8b700ee
:103a60002a00370061c8bf00f64f500007003a0037
:103a700023cabf000080fb00d010880061c8bf00cf
:103a80000040e80061e8b700200037000040eb008c
:103a900060e8b7000040eb0061e8b7000040eb00d1
:103aa00079eab7001900370047c8bf00e14f50005e
:103ab00016003a00a7cabf00c7eab70048c8bf004f
:103ac0000004e00007003a00c7cabf000080fb0006
:103ad000d010880048c8bf000040e80048e8b700a0
:103ae0000a00370048c8bf00e14f500007003a0005
:103af000c7cabf000080fb00d01088000040eb0068
:103b000048e8b7000040eb0047e8b7000080fa0043
:103b10004f00be0000400600809fbe00821f78005c
:103b20000000fa008700a900e01080004ce8b70010
:103b3000c18420009140780000c4b30080cf5000c1
:103b40000f003a004dc8bf000004e0000c003a002e
:103b50004ec8bf000004e00009003a0010c0b300e6
:103b60004de8b7000040eb004ee8b7000040eb0026
:103b700054e8b7000040eb0013e9b700ba00370083
:103b8000c18420009140780030c2b30080cf500043
:103b900011003a0010c9bf000004e0000e003a0016
:103ba0007bcabf000004e0000b003a0010c0b30065
:103bb0004ee8b7000040eb004de8b7000040eb00d6
:103bc00013e9b7000040eb0054e8b70010c0b300a1
:103bd000abe8b700a40037004dc8bf000004e00008
:103be0003b003a004ec8bf00e14f500038003a0099
:103bf0004fc8bf000004e00005003a004cc8bf00f9
:103c000090e9b70010c0b3004fe8b7009600370046
:103c10004fc8bf00e14f500093003a00c18420001c
:103c20009140780090c9bf0080cf50001d003a003d
:103c300090c9bf00a8eab7000040eb004de8b7000c
:103c40000040eb004ee8b7000040eb004fe8b70043
:103c50000040eb0013e9b700a8cabf006240600053
:103c60000004e0000300320000c5b30034e9b700ef
:103c70000200370020c5b30034e9b700a8cabf006e
:103c8000614060000004e00003003a0020c3b3007c
:103c900037e9b7007400370040c3b30037e9b70015
:103ca000710037000040eb004de8b7000040eb002a
:103cb00013e9b7000040eb0054e8b7000040eb0008
:103cc0004ee8b7000040eb004fe8b7006600370051
:103cd0004dc8bf00e14f500059003a004ec8bf0028
:103ce0000004e00056003a0013c9bf00ef4f500037
:103cf00010003e0013c9bf008080fb00c28420007a
:103d000012417800409f2000008040000248780067
:103d100041852000914078004cc8bf0000c04000a1
:103d200054e8b70013c9bf000040e80013e9b7002a
:103d30004d00370041852000914078004cc8bf00fd
:103d400080cf500033003a00f9c9bf000080fb006b
:103d50009049880090498000000040000000400029
:103d60000000400000004000000040000000400053
:103d7000000040000000400090498800fac9bf00e0
:103d80008080fb009049800000807000904988008e
:103d900090498000b0488800f5c9bf000080fb0052
:103da00050498800b04480000000e800b04488001a
:103db000b0448000e40f5000040036000000eb0027
:103dc000b04488000000eb00c0488800c8cabf00ab
:103dd000a8eab700a8cabf00624060000004e00083
:103de0000300320000c5b30034e9b7000200370019
:103df00020c5b30034e9b7000040eb004de8b70040
:103e00000040eb0013e9b7000040eb0054e8b700b6
:103e1000150037000040eb004de8b7000040eb0014
:103e200013e9b7000040eb0054e8b7000040eb0096
:103e30004ee8b7000040eb004fe8b7000a0037003b
:103e40000040eb004de8b7000040eb0013e9b7007d
:103e50000040eb0054e8b7000040eb004ee8b7002c
:103e60000040eb004fe8b7000080fa004f017800f7
:103e70004f00be0000400600809fbe00821f7800f9
:103e80000200fa000000eb00000f78008520a90076
:103e90009010800058e8b70081852000914078009c
:103ea00040c2b30080cf50000d003a0010c9bf00df
:103eb0000004e0000a003a0011c9bf000004e0005d
:103ec00007003a000040eb005ce8b70010c0b30008
:103ed00010e9b7000040eb005ae8b7008e00370049
:103ee000818520009140780050c2b30080cf5000ff
:103ef0000b003a0010c9bf00e14f500008003a0023
:103f000011c9bf000004e00005003a0058c8bf0016
:103f10005ce8b70010c0b30011e9b7007e003700bd
:103f2000818520009140780030c2b30080cf5000de
:103f30000b003a0010c9bf00e14f500008003a00e2
:103f400011c9bf000004e00005003a0058c8bf00d6
:103f50005ce8b70020c0b30011e9b7006e0037007d
:103f6000818520009140780000c4b30080cf5000cc
:103f70000b003a0010c9bf00e14f500008003a00a2
:103f800011c9bf000004e00005003a0058c8bf0096
:103f90005ce8b70030c0b30011e9b7005e0037003d
:103fa00010c9bf00e14f500046003a0011c9bf00e0
:103fb000e14f500043003a005ac8bf008080fb0028
:103fc000828520001241780050a22000008040002d
:103fd000024878005ac8bf00e14f500008003e0078
:103fe0005ac8bf008080fb0050a220000080400023
:103ff000904078005cc8bf0000c040005ce8b7009b
:104000005ac8bf000040e8005ae8b7005ac8bf00cd
:10401000e34f500040003a000040eb0010e9b700c9
:104020000040eb0011e9b7000040eb005ae8b70090
:1040300071a22000914078005cc8bf0080cf500082
:104040001d003a0025cabf005de8b70026cabf00c0
:104050005ee8b7005ec8bf000080fb00000f78007c
:104060001e007800000040000000400000004000fa
:104070000000400000004000000040000000400040
:1040800000004000800078005dc8bf000080fb0099
:10409000008f70001e007800304488000000eb00a4
:1040a000e04688000040eb005ce8b70010c0b300b9
:1040b000a8e8b700180037000040eb0054e8b7004c
:1040c0001500370010c9bf00e14f50000c003a0046
:1040d00011c9bf00e34f500009003a000040eb0057
:1040e0005ce8b7000040eb0010e9b7000040eb00cf
:1040f00011e9b7000040eb005ae8b70006003700ae
:104100000040eb005ce8b7000040eb0010e9b700ae
:104110000040eb0011e9b7000080fa004f01780081
:104120004f00be0000400600801f78000000fa002b
:104130008740a900e922a80026c2bf000044b200bf
:104140000004e0000100320026c2a9000080fa004d
:104150004f007800004006001400fa00889fbe005f
:10416000aac8bf000004e00044003a000040eb0091
:104170009ceab7009ccaa900d0c4b300dbe9b70031
:10418000d0c4b300dce9b70010c4b300dde9b70068
:10419000b0c5b300dee9b700d0c4b300dfe9b700b3
:1041a000f0c4b300e0e9b70040c4b300e1e9b700f0
:1041b00050c4b300e2e9b700d722a800ca82a90020
:1041c000cb02a80010c0b300aae8b7000040eb0083
:1041d000ace8b7000040eb00abe8b700e862a9002c
:1041e000e842a9000040eb00afe8b7000040eb0058
:1041f000b3e8b70010c0b30086e9b7000040eb0099
:104200003aeab7000040eb003beab7000000eb00e1
:10421000104188000000eb00f040880010c0b3009f
:104220009fe8b70020002000de05070070448800ea
:1042300071448000f0312000808f50000200360071
:1042400000322000704488007044800030448800b0
:1042500060002000d305070070448800714480008e
:1042600030062000808f50000200360040062000fb
:104270007044880070448000504b8800b2c8bf0072
:104280000004e000b1013a0067c9bf000004e0008b
:10429000ae013a00d722a800ca82a900cb02a8002a
:1042a00062c9bf000004e00040013a000040eb009a
:1042b0009ceab70068c9bf000004e0002b003a0088
:1042c00089c9bf000004e00028003a009ccaa80089
:1042d00040c8bf000004e00055003a009ccaa90095
:1042e000c140800030448000808f500003003a00bd
:1042f0009fc8bf00e14f500007003a0030448000e3
:10430000cdf3070030448000c04088003144800075
:1043100020002000c00507003140800020408000c0
:10432000808f50000300320050448000e10f5000a5
:10433000030032009fc8bf00e14f500004003a0064
:1043400020408000e7f307002040800030408800d4
:104350000000eb00504488000040eb009fe8b700ed
:104360000040eb003deab7003100370068c9bf00ec
:10437000e14f500015003a0089c9bf000004e00079
:1043800012003a0040c8bf000004e0000f003a00ed
:104390009ccaa90010c4b300dbe9b70020c5b30074
:1043a000dce9b70030c4b300dde9b70060c4b30096
:1043b000dee9b700504b8000caf30700514b800084
:1043c00060002000940507001900370068c9bf008d
:1043d0000004e00016003a0089c9bf00e14f500018
:1043e00013003a0040c8bf000004e00010003a008b
:1043f00030c4b300dbe9b70010c4b300dce9b70098
:10440000c0c4b300dde9b700f0c2b300dee9b70015
:10441000d0c4b300dfe9b700f0c4b300e0e9b700ef
:1044200040c4b300e1e9b70050c4b300e2e9b7000b
:10443000b84180006140b900c1ef0700000f98004b
:10444000110f98000800e00007003d000200200066
:10445000037824000e0890009e089000e4ef070007
:10446000000f9800110f98000e0890009e08900011
:10447000b04b8800c14b8800584b80006140b900a8
:10448000afef070060079800710798000800e00090
:1044900007003d0002002000037824006e00900019
:1044a000fe009000d2ef07006007980071079800a7
:1044b0006e009000fe009000d04b8800e14b880019
:1044c000384480006140b9009def07004007980024
:1044d000510798000800e00007003d00020020009e
:1044e000037824004e009000de009000c0ef07002b
:1044f00040079800510798004e009000de009000a1
:10450000104c8800214c880086c9bf00e14f500044
:1045100022003a00104c8000214c8000020028004c
:10452000934024000ff007000000e0000100350078
:1045300011003700104c8000214c80000200200048
:104540000317240009f0070002002000832c240038
:104550005bf007000002be00104c8000214c800080
:104560000001be000400be00a1ef0700f04b880070
:10457000014c880007003700104c8000214c80005f
:1045800002002000832c240099ef0700f04b8800e4
:10459000014c8800d022a80036003700b04b8000c4
:1045a000c14b80000200200063412400edef0700b2
:1045b0000000e000010034002a0037003144800090
:1045c000800c2000808f500020003e00b24b800005
:1045d000c34b8000000020006141240083ef0700ee
:1045e000020020006341240035f007000002be00f5
:1045f000104c8000214c80000001be000400be0071
:10460000daef07000004be00d04b8000e14b8000d1
:1046100002002000832c240029f007000001be00c6
:104620000800be00d1ef07000002be00104c800061
:10463000214c80000001be000400be006cef0700aa
:10464000f04b8800014c880004003700104c8000bb
:10465000214c8000f04b8800014c8800d022a9003a
:1046600004003700104c8000214c8000f04b880083
:10467000014c8800f04b8000014c800002002000bb
:10468000834424006bf007000000e00001003d00bf
:10469000040037000000200081442400f04b880013
:1046a000014c8800f04b8000014c80003233230025
:1046b00033fd2300adef070002002000533a240031
:1046c0004bef070040f0070030468800314680007d
:1046d000b0b72000808f500002003600c0b7200025
:1046e0003046880030468000000c880026c2bf009b
:1046f000624060000004e0000f003a00e922a900d7
:10470000f04b8000014c80000200200003012400d7
:1047100096ef0700020028008341240034ef0700d1
:1047200029f00700a04b8800a14b80000000270063
:10473000008040005011880040c8bf00e14f500089
:104740001a003a008141800070418000808f500043
:104750000700320050448000e10f500004003a008e
:1047600070418000b4f207007041800080418800f1
:104770003140800020408000808f500007003200d0
:1047800050448000e10f500004003a0020408000b7
:10479000d4f2070020408000304088000000eb0089
:1047a0005044880010c0b3009fe8b70062c9bf0042
:1047b000e14f500075003a000040eb009ceab70062
:1047c0009ccaa900c140800030448000808f500006
:1047d0003f003200384480006140b900d8ee070045
:1047e00020079800310798000800e00007003d000e
:1047f00002002000037824002e009000be009000ec
:10480000fbee0700200798003107980062ba2900e4
:10481000430024002e009000be00900053ef0700dc
:1048200002002800533d2400f1ee0700e6ef0700e8
:104830003046880031468000b0b72000808f50009d
:1048400002003600c0b720003046880030468000a5
:10485000000c880030448000c040880026c2bf00a1
:10486000624060000004e00019003a00e922a9005b
:10487000384480006140b900b1ee0700008fbe00ef
:104880000800e00005003d0002002000037824003d
:104890001e00be00d6ee0700008fbe000200200002
:1048a000030124001e00be0030ef070002002800b4
:1048b00083412400ceee0700c3ef0700a04b880021
:1048c000a14b8000000027000080400050118800ac
:1048d00064c9bf00e14f50000a003a0030c4b30081
:1048e000dbe9b70010c4b300dce9b700c0c4b30013
:1048f000dde9b70010c3b300dee9b700504a80001d
:1049000078f2070065c9bf00e14f50000a003a0085
:1049100030c4b300dbe9b70010c4b300dce9b70072
:10492000c0c4b300dde9b70020c3b300dee9b700bf
:10493000604a80006bf2070010002000504488009d
:1049400010c0b3009fe8b700100037000040eb0034
:104950009ceab7000000eb00000c8800d722a900f9
:1049600026c2bf00624060000004e00007003a0079
:10497000e922a9000000eb00a04b8800a14b8000b9
:1049800000002700008040005011880067c9bf0068
:10499000e14f500013003a000040eb009ceab700e2
:1049a0000000eb00000c8800d722a90026c2bf003f
:1049b000624060000004e00007003a00e922a9001c
:1049c0000000eb00a04b8800a14b800000002700f6
:1049d000008040005011880067c9bf00e14f5000bf
:1049e000fdff32004f04be000080fa000000060008
:1049f0000000fa0044c8bf00e14f500002003a0036
:104a0000b04880004c020700abc8bf000004e000c3
:104a100040003a000040eb00ebe9b7000040eb003b
:104a20009ceab700d0c4b300dbe9b70090c4b30080
:104a3000dce9b70070c4b300dde9b700b0c5b3006e
:104a4000dee9b700d0c4b300dfe9b700f0c4b300bb
:104a5000e0e9b70040c4b300e1e9b70050c4b300d7
:104a6000e2e9b7000040eb00aae8b7000040eb0025
:104a7000ace8b70010c0b300abe8b7000040eb00f3
:104a8000afe8b700cb02a9000040eb003aeab7005c
:104a90000040eb003beab700ca82a900d722a90078
:104aa000c7a2a900cba2a90010c0b3009fe8b7001d
:104ab0000040eb00eee8b70010c0b300ebe9b70030
:104ac000a0002000b70307007044880070448000f5
:104ad00050498800e0002000b203070070448800bd
:104ae00071448000c0082000808f50000400360010
:104af00071448000701b2000808f5000020036003f
:104b0000c00820007044880070448000b0488800cd
:104b10008d003700b2c8bf000004e0006f003a000b
:104b2000abc8bf00e14f50006c003a0056c9bf004f
:104b30000004e00051003a00e862a900e842a80041
:104b4000a74aa9000040eb009ceab7009c4aa800d5
:104b50009ccaa8006149800050498000808f5000a5
:104b600008003a00bccabf008080fb0050498000aa
:104b7000808f500003003a009fc8bf00e14f5000f3
:104b80000c003a0090cabf000004e00002003a00a6
:104b900050498000a8f10700504980006049880012
:104ba00050498000bceab70051498000a0002000b5
:104bb00099030700e1488000b0488000808f5000d2
:104bc00003003a009fc8bf00e14f500013003a00b5
:104bd00090cabf000004e00002003a00b048800024
:104be000c0f10700b0488000e0488800b04880006d
:104bf0009049880090498000c1eab7009049800040
:104c00004800de009049880090498000c0eab70063
:104c1000b1488000e00020007f03070044c8bf00c7
:104c2000e14f500002003a000040eb0044e8b700ba
:104c3000cba2a900d722a900ca82a900cb02a90051
:104c40000000eb00204988000000eb00000c880009
:104c5000f0ff2100d0488800f0ff2100e0488800e4
:104c60000040eb00bce9b7006000b800004d8800d0
:104c7000114d8800a7aaa8003300370056c9bf000d
:104c8000e14f500030003a0010c0b30044e8b700d4
:104c9000a74aa800e862a800e842a9000040eb008b
:104ca0009ceab7009ccaa80070418000c4eab70023
:104cb000704180004800de00c3eab7002040800059
:104cc000c6eab700204080004800de00c5eab70011
:104cd0000000eb00504488001b003700b2c8bf0042
:104ce000e14f500018003a000040eb009ceab7008a
:104cf000cba2a900d722a900ca82a900cb02a90091
:104d00000040eb00b3e8b7000000eb00000c8800a7
:104d10000000eb00300c88000040eb005fe8b700bb
:104d20000000eb00f04088000000eb00104188001c
:104d300067c9bf00e14f500003003a0067c9bf00d8
:104d4000e14f5000fdff32000040eb00b8e8b70033
:104d50000080fa00000006000800fa00881f7800b2
:104d600056c9bf000004e00002003a000000eb005a
:104d700000528800719320009140780020c3b30056
:104d800080cf50007c003a0000528000300798002d
:104d90003e009000e10f50002f0032003e009000d6
:104da000e10f5000070039003e009000e20f500074
:104db0004f0032003e009000e30f50005a003200d6
:104dc0005a01370056c9bf000004e00017003a003e
:104dd0000040eb009ceab7000040eb00a5e8b700fc
:104de00010c0b30056e9b700cba2a800d722a80094
:104df000ca82a800cb02a9000000eb004e01070008
:104e00000000eb009401070010c0b3005fe8b7009a
:104e10000000eb0020498800a76aa900a72aa80083
:104e2000a74aa800100020000052880041932000eb
:104e30009140780020c5b30080cf50003b013a007c
:104e4000a74aa900a76aa900a72aa9003000200044
:104e50000052880035013700100020000052880001
:104e6000419320009140780020c5b30080cf5000ce
:104e70000a003a00a74aa9000040eb005fe8b7002b
:104e80000000eb00300c88000040eb0057e9b70051
:104e900020002000005288002401370090cabf0083
:104ea0000004e0000a003a0071418000d0022000b6
:104eb000808f500002003e000000eb00704188002f
:104ec00070418000dcf007002040800005f1070001
:104ed000b048800018010700a04880005e0107006c
:104ee000a76aa800a72aa800a74aa8000f013700b0
:104ef000cba2a900d722a900ca82a900cb02a9008f
:104f00000000eb000c010700300020000052880078
:104f10000040eb0057e9b700a76aa900a72aa8003c
:104f2000a74aa80001013700cba2a900d722a900f7
:104f3000ca82a900cb02a9000040eb0056e9b700e5
:104f40000040eb005ae9b700a74aa900a76aa900e8
:104f5000a72aa9000000eb00f70007000000eb0003
:104f6000300c88000000eb00005288000040eb008d
:104f70005fe8b700ed0037007193200091407800a2
:104f800040c3b30080cf5000e8003a0000528000d8
:104f9000200798002e009000e10f50004f003200d3
:104fa0002e009000e10f5000070039002e00900005
:104fb000e20f5000ba0032002e009000e30f5000c4
:104fc000c5003200d900370056c9bf000004e00018
:104fd00015003a0010c0b30056e9b700cba2a800f4
:104fe000d722a800ca82a800cb02a9000040eb008b
:104ff00058e9b7000040eb0059e9b7000000eb00aa
:10500000cd0007000000eb00300c880010002000ed
:10501000005288000000eb0020498800a76aa90020
:10502000a72aa800a74aa80056c9bf000004e000ac
:1050300013003a0010c0b30056e9b7000040eb007f
:10504000a5e8b700cba2a80000c7b300dbe9b70012
:1050500020c5b300dce9b70050c4b300dde9b700f8
:1050600060c4b300dfe9b700c0c4b300e0e9b70033
:10507000f0c4b300e1e9b70070c5b300e2e9b700de
:10508000d7c2bf00624060000004e000a7003a0001
:10509000d722a800ca82a800cb02a9000040eb00da
:1050a00058e9b7000040eb0059e9b7000000eb00f9
:1050b000a10007000000eb00300c88001000200069
:1050c000005288000000eb0020498800a76aa90070
:1050d000a72aa800a74aa8009400370041932000ff
:1050e0009140780020c5b30080cf500015003a00f1
:1050f00058c9bf000004e00012003a0059c9bf00bf
:105100000004e0000f003a0010c0b30058e9b700f7
:10511000100020000052880010c0b3005fe8b70004
:10512000a76aa800b048800083000700a04880005c
:10513000c9000700a76aa800a72aa800a74aa800d4
:105140007a003700419320009140780020c5b300d9
:1051500080cf500010003a0058c9bf00e14f500006
:105160000d003a0059c9bf000004e0000a003a00ef
:105170001000200000528800b04880006e00070038
:10518000a0488000b4000700a76aa800a72aa800ca
:10519000a74aa8006500370041932000914078009d
:1051a00000c5b30080cf500025003a0058c9bf00a9
:1051b000e14f500022003a0059c9bf000004e0004e
:1051c0001f003a001000200000528800b8488000fc
:1051d0006140b9005aec0700008fbe000800e000f3
:1051e00005003d0002002000037824001e00be00e0
:1051f0007fec0700008fbe000200200003f42300b4
:105200001e00be00d9ec07006fed07004a00070042
:105210000040eb005fe8b7000000eb00300c8800b6
:105220000040eb0057e9b70010c0b30059e9b700e0
:10523000a76aa800a72aa800a74aa8003b00370031
:10524000419320009140780020c5b30080cf5000ea
:1052500036003a0058c9bf00e14f500033003a0011
:1052600059c9bf00e14f500030003a00a76aa900b9
:1052700020002000005288000000eb002e000700f4
:105280000000eb00300c88000040eb0057e9b7004d
:10529000a76aa800a72aa800a74aa80023003700e9
:1052a000cba2a900d722a900ca82a900cb02a900db
:1052b0000000eb00200007000000eb00300c88002d
:1052c0003000200000528800a76aa900a72aa80081
:1052d000a74aa80015003700cba2a900d722a90031
:1052e000ca82a900cb02a9000040eb0056e9b70032
:1052f0000040eb0058e9b7000040eb0059e9b70067
:105300000000eb000c0007000000eb00300c8800f0
:105310000040eb005ae9b7000000eb0000528800a3
:10532000a76aa900a72aa900a74aa9004f047800e4
:105330000080fa00000006000200fa00000f78006a
:105340001e00e0003700320026c2bf00624060004d
:105350000004e0003e003a00e922a900bcc9bf00f9
:105360000004e00016003a00c14d8000c0548000e7
:105370000088b900a2002000110009000280d800b6
:10538000000178003054800041548000000041004a
:10539000a04b8800a14b800050b82000808f5000a7
:1053a0000200360060b82000a04b8800a04b8000af
:1053b0000100270001004000501188002400370040
:1053c000bcc9bf00e14f500021003a00d14d800020
:1053d000c05480000088b900a2002000110009001c
:1053e0000280d800000178003054800041548000d1
:1053f00000004100a04b8800a14b800050b8200065
:10540000808f50000200360060b82000a04b88005a
:10541000a04b8000010027000100400050118800cf
:105420000b00370026c2bf00624060000004e000ad
:1054300007003a00e922a9000000eb00a04b880019
:10544000a14b800000002700008040005011880020
:105450000080fa00000006000600fa00000f780045
:105460001e007800cf80de00b5eb07001007980023
:10547000210798001e00e00007003d000200200008
:10548000037824001e009000ae009000d8eb0700c7
:105490001007980021079800d2a320007300240071
:1054a0001e009000ae00900030ec0700c6ec070034
:1054b000804488000080fa00000006000200fa0024
:1054c000889fbe008a9fbe008046800001002000a9
:1054d00090578800a1578800804480000100200078
:1054e000b0578800c1578800b2578000c35780006a
:1054f00090578000a1578000000051008180590022
:1055000010578800215788001057800021578000cd
:10551000000f78001e0078000000e00003003d004e
:105520001e0178000201ea00020f78001e017800d7
:105530006110b900505888006158880000002000b0
:105540000100240090568800a15688000000200029
:1055500001f82300b0568800c156880000002000e2
:1055600001f82300d0568800e1568800007122001f
:1055700001002000705788008157880040002000fb
:10558000504e88001257800023578000105880002a
:10559000215880000000510081805900f057880098
:1055a00001588800105780002157800064eb0700e5
:1055b0000200200003f023009eec07000000e00042
:1055c00009003c0010578000215780005ceb070069
:1055d0000200200003f02b00e2eb07000000e000d7
:1055e000010035003e0037003057800041578000f1
:1055f00053eb07000005be0098568000a9568000b6
:1056000010578000215780004deb07000001be00bd
:105610000800be00d5eb07000001be000a00be0076
:1056200073eb07000005be00b8568000c956800025
:10563000105880002158800041eb07000001be0097
:105640000800be00c9eb07000001be000a00be0052
:1056500067eb07000005be00d8568000e9568000c1
:10566000305880004158800035eb07000001be0033
:105670000800be00bdeb07000001be000a00be002e
:105680005beb0700edeb07003057880041578800bf
:105690003057800041578000e00f5000e08f5800e5
:1056a00004003c006000b800305788004157880073
:1056b0000b0037003257800043578000705780003e
:1056c00081578000800f5100818f59000400340001
:1056d00070578000815780003057880041578800fc
:1056e00010588000215880003058880041588800a8
:1056f00010578000215780001058880021588800da
:105700003457800045578000504e80006101b8003a
:105710000400be0049ec0700404e8800404e800067
:10572000f0488800f0488000300c88004f05be002b
:105730004f04be000080fa00000006000000fa00de
:1057400070002000804d880000a02f000100200084
:10575000c04c8800d14c880090548000904c880048
:10576000a0548000a04c8800b0548000b04c880049
:10577000a0002000b0538800b0488000305388005b
:10578000004980004053880031538000405380001e
:105790000080500050538800914c8000505380008e
:1057a0000088b90080007800a05380000088b9000c
:1057b000a2002000110009000280d8000100200092
:1057c000204d8800314d880051538000a04c80004e
:1057d0000088b900a2002000110009000200d800d2
:1057e0006101b900004d8000114d800002004000b1
:1057f00083804800004d8800114d8800024d8000d4
:10580000134d8000c04c8000d14c8000800f5100af
:10581000818f590005003500c04c8000d14c8000bc
:10582000004d8800114d88000b003700024d8000ac
:10583000134d8000e04c8000f14c8000800f51003f
:10584000818f590004003c00e04c8000f14c800046
:10585000004d8800114d8800515380006053800036
:1058600080805000b04c80000088b900a200200069
:10587000110009000200d800cf80de00604d8800d2
:10588000714d88005053800060538800224d800085
:10589000334d8000004d8000114d8000020140001a
:1058a00083814800604d8000714d800002004000ff
:1058b00083804800705388008153880072538000b1
:1058c00083538000c04c8000d14c8000800f510079
:1058d000818f590005003500c04c8000d14c8000fc
:1058e00070538800815388000b003700725380008a
:1058f00083538000e04c8000f14c8000800f510009
:10590000818f590004003c00e04c8000f14c800085
:105910007053880081538800705380008153800049
:10592000824d8000820178008301e900030033008a
:105930008180d1000080d300fbff3700904d8800ac
:10594000bcc9bf000004e00006003a0050538000cc
:105950000000e00003003c00800c2000c04d8800e7
:105960000e003700904d8000d04d8800914d800092
:1059700090538000808f500002003e0090538000c2
:10598000904d8800914d8000301f2000808f500086
:1059900002003600401f2000904d88000080fa0071
:1059a000000006000a00fa00400798004e00900030
:1059b0006101b80000c02f00f10720000200400084
:1059c0008380480020079800310798000080eb0092
:1059d0001007980032c0bf000080fb00000f780065
:1059e0002e009000be0090004008de000100200064
:1059f00032e0b7002e009000be0090001000ba0008
:105a0000100798001e00780032e0b7001e009000da
:105a10000080fa00000006001000fa00400798001d
:105a2000510798000000eb00300798004e009000ee
:105a30006101b80000c02f00f10720000200400003
:105a400083804800100798002107980032c0bf00eb
:105a50000080fb00000f780061c7bf000042b20069
:105a60000004e00049003a001e009000ae009000e3
:105a70004008de00010020000074a10064e7b700c8
:105a80001e009000103b880061c7a800017620002e
:105a90009140780000c8b30000c0600041c4b3006a
:105aa0000140700060e7b70050052000303b8800df
:105ab000a00a2000303b880061e7a8000000000039
:105ac000000000006007980061c7bf0001c8b30074
:105ad000014060000004e000fbff3a004e0090002f
:105ae000b0ff0700e10f400026003a001e009000c2
:105af000ae0090004008de000100200032e0b70058
:105b00001e009000ae0090005e0190000208bb00f5
:105b100061c7a800017620009140780000c8b3005a
:105b200000c060000024a00060e7b700500520001e
:105b3000303b8800a00a2000303b880061e7a800c5
:105b400000000000000000007007980061c7bf005f
:105b500001c8b300014060000004e000fbff3a0010
:105b60004e0090008fff0700800078005e009000dc
:105b7000808f500005003200100020003007980090
:105b80000200370020002000300798001e00780037
:105b900032e0b7003e0090000080fa0000000600ee
:105ba0000000fa000a0107008a02070078010700d6
:105bb0000040eb009ceab700cc22a90010002000b6
:105bc0000054880010002000f0538800f15380003a
:105bd000005480000008dd00f0538800f000200031
:105be00010548800100020002054880021548000a8
:105bf000105480000008dd0020548800800220003e
:105c000068ff070090548800c002200065ff07006d
:105c1000a05488000003200062ff0700b0548800f1
:105c2000400320005fff0700c0548800b15480008b
:105c3000700c2000808f500015003600a00f20004f
:105c400090548800a0002000a0548800a0002000ec
:105c5000b0548800a0002000c054880091548000f7
:105c6000800220006cff0700a1548000c0022000c9
:105c700069ff0700b15480000003200066ff0700a1
:105c8000c0548000800078004003200062ff0700bd
:105c900040c6b300ceeab700c02b200001002000b0
:105ca00030548800415488004001200090538800ff
:105cb000000037003ecabf00e14f500002003a002a
:105cc00025f90700fbff37003ecabf00e24f500036
