:0400000050EF0BF0C2
:100008005F82D9CF4FF0DACF50F0F3CF51F0F4CF71
:1000180052F0F6CF53F0F7CF54F0F8CF55F0F5CFB4
:1000280056F00E01CAAB1BEF00F01DEF00F0B9EF60
:1000380001F0CA99CA9BD10ED46E200ED36E01016D
:10004800404B412BB1EC26F060800201464B472B18
:10005800364B372B344B352B01014705D8A437EFE6
:1000680000F039EF00F04FEF00F002010C510D11D4
:10007800D8A441EF00F043EF00F04CEF00F0000E81
:100088000D6F000E0C6F000E0101476F4FEF00F06F
:100098000C07D8A00D070201475109E10A0E465D79
:1000A800D8A059EF00F05BEF00F028EF01F0000E48
:1000B800476F000E466F01011A511B11D8B467EF44
:1000C80000F069EF00F0DBEF00F08B0E0001E25D5D
:1000D800020EE359D8A073EF00F075EF00F0CEEFF1
:1000E80000F05B50D8A47BEF00F07DEF00F0CEEF7E
:1000F80000F001017F51D8A484EF00F086EF00F0F2
:10010800CEEF00F04D0E5C18D8A48DEF00F08FEF05
:1001180000F092EF00F00201504B512B1AC101F090
:100128001BC102F0000E046E640E036ECCEC34F0BA
:1001380001500201505D02505159D8A0A6EF00F0BD
:10014800A8EF00F0EEEF00F00001F851D8A4AFEFEF
:1001580000F0B1EF00F0EEEF00F04D0E5C18D8A4FF
:10016800B8EF00F0BAEF00F0EEEF00F08584879466
:10017800000E0201516F000E506F010E0001F86F62
:10018800010E0101806F000E0201496F000E486FD9
:10019800EEEF00F00001F851D8A4D5EF00F0D7EF4A
:1001A80000F0EEEF00F085948784EEEF00F01A512E
:1001B8001B11D8A4E2EF00F0E4EF00F0EEEF00F03E
:1001C80085948784000E0001F86F000E0201516FBC
:1001D800000E506F0001F805D8A4F5EF00F0F7EF16
:1001E80000F028EF01F04AC201F04BC202F0000E05
:1001F800046E5A0E036ECCEC34F001C007F002C056
:1002080008F0000E0A6E640E096E9DEC32F007507D
:100218000001E25D0850E359D8B015EF01F017EF7F
:1002280001F028EF01F001018051D8A41EEF01F080
:1002380020EF01F028EF01F0000E0201516F000ECF
:10024800506F000E0001F86F0101415109E10A0EDB
:10025800405DD8A032EF01F034EF01F04AEF01F031
:10026800010EAD6F020164516511D8A43EEF01F093
:1002780040EF01F042EF01F045EF01F06407D8A02C
:100288006507000E0101416F000E406F0001E0514B
:10029800E111D8B452EF01F054EF01F059EF01F039
:1002A800E007D8A0E1075DEF01F0000EE16F000E56
:1002B800E06F5B04D8A463EF01F065EF01F0B9EFDC
:1002C80001F001013A4B3B2BE80E3A5D030E3B5916
:1002D800D8A071EF01F073EF01F0B9EF01F0000E53
:1002E8003B6F000E3A6F0001F04BF12BF15109E121
:1002F8003C0EF05DD8A083EF01F085EF01F08BEFA5
:1003080001F0000EF16F000EF06FF24BF32BF3517A
:1003180009E13C0EF25DD8A094EF01F096EF01F0F0
:10032800A0EF01F0000EF36F000EF26F000EF16FF8
:10033800000EF06FEE4BEF2BEF5109E1630EEE5D0F
:10034800D8A0A9EF01F0ABEF01F0B9EF01F0000E72
:10035800F36F000EF26F000EF16F000EF06F000EDB
:10036800EF6F000EEE6FB9EF01F00E01C3A1BFEF02
:1003780001F0C1EF01F03EEF0BF0CBA1C6EF01F0A9
:10038800C8EF01F03EEF0BF064CFE8F00001E96B35
:10039800E851E96FE86B6350E825E86F000EE92142
:1003A800E96FFF51D8A4DBEF01F0DDEF01F0DFEFDB
:1003B80002F0E8C034F1E9C035F10101345103011C
:1003C80072270101355103017323000E7423000EB7
:1003D80075230201864B872B875109E1100E865D34
:1003E800D8A0F9EF01F0FBEF01F049EF02F072C37A
:1003F80057F073C358F057C04BF058C04CF0040E78
:100408004D6ED8904C324B324D2E05EF02F04BC05A
:1004180057F04CC058F08F0E136E530E146EC40E66
:10042800156E3F0E166E57C001F058C002F0036AF1
:10043800046A000EC4EC29F001C00FF002C010F0ED
:1004480003C011F004C012F001EC21F00FC041F01C
:1004580010C042F011C043F012C044F0B1EC2EF0CD
:1004680041C057F042C058F0010E0101E56F000E7F
:100478000301726F000E736F000E746F000E756FBC
:10048800000E0201876F000E866FE8C0B8F2E9C05F
:10049800B9F2B851030162270201B951030163237C
:1004A800000E6423000E65230201844B852B8551C1
:1004B80009E1400E845DD8A064EF02F066EF02F017
:1004C800D7EF02F062C3E2F063C3E3F0E2C04BF09F
:1004D800E3C04CF0060E4D6ED8904C324B324D2E88
:1004E80070EF02F04BC0E2F04CC0E3F08F0E136ED9
:1004F800530E146EC40E156E3F0E166EE2C001F058
:10050800E3C002F0036A046A000EC4EC29F001C0DB
:100518000FF002C010F003C011F004C012F001EC9B
:1005280021F00FC041F010C042F011C043F012C0DA
:1005380044F0B1EC2EF041C0E2F042C0E3F001011A
:100548008005D8A4AAEF02F0ACEF02F0C6EF02F0E3
:100558000201484B492B495109E1030E485DD8A0D7
:10056800B8EF02F0BAEF02F0C6EF02F0E2C04AF2CA
:10057800E3C04BF2000E0101806F000E0201496FCB
:10058800000E486F010E0001FA6F000E0301626F42
:10059800000E636F000E646F000E656F000E02019F
:1005A800856F000E846F010E0001FF6F010E0F01B1
:1005B8005F6F3CEF0BF0FF05D8A4E5EF02F0E7EF23
:1005C80002F02CEF04F0E8C032F1E9C033F1010188
:1005D800325103016E270101335103016F23000ECD
:1005E8007023000E71230101C02B3F0EC065FFEF81
:1005F80002F001EF03F024EF04F06EC3E4F06FC3E0
:10060800E5F0E4C04BF0E5C04CF0060E4D6ED89016
:100618004C324B324D2E0BEF03F04BC0E4F04CC084
:10062800E5F00001E55107E1510EE45DD8B01FEF98
:1006380003F021EF03F05EEF03F0000E2C6E000EC6
:100648002D6E200E2E6E410E2F6E9A0E136E990E81
:10065800146EA90E156E400E166EE4C001F0E5C0CA
:1006680002F0036A046A000EC4EC29F001C00FF01E
:1006780002C010F003C011F004C012F001EC21F028
:100688000FC028F010C029F011C02AF012C02BF0BA
:10069800E4EC24F028C041F029C042F02AC043F01D
:1006A8002BC044F0B1EC2EF041C0E4F042C0E5F0BC
:1006B800ECEF03F0E55109E1510EE45DD8A067EFD6
:1006C80003F069EF03F0B1EF03F0E55107E1F60E2F
:1006D800E45DD8B072EF03F074EF03F0B1EF03F00C
:1006E800000E2C6E000E2D6E200E2E6E410E2F6EFB
:1006F800660E136E660E146EA60E156E400E166EFE
:10070800E4C001F0E5C002F0036A046A000EC4EC1C
:1007180029F001C00FF002C010F003C011F004C0AE
:1007280012F001EC21F00FC028F010C029F011C020
:100738002AF012C02BF0E4EC24F028C041F029C0C4
:1007480042F02AC043F02BC044F0B1EC2EF041C077
:10075800E4F042C0E5F0ECEF03F0000E2C6E000E62
:100768002D6E200E2E6E410E2F6E000E136E000E93
:10077800146EA00E156E400E166EE4C001F0E5C0B2
:1007880002F0036A046A000EC4EC29F001C00FF0FD
:1007980002C010F003C011F004C012F001EC21F007
:1007A8000FC028F010C029F011C02AF012C02BF099
:1007B800E4EC24F028C041F029C042F02AC043F0FC
:1007C8002BC044F0B1EC2EF041C0E4F042C0E5F09B
:1007D800330E136E330E146E130E156E400E166E16
:1007E800E4C001F0E5C002F0036A046A000EC4EC3C
:1007F80029F001C00FF002C010F003C011F004C0CE
:1008080012F001EC21F00FC041F010C042F011C00D
:1008180043F012C044F0B1EC2EF041C0E4F042C005
:10082800E5F0010E0101B96F000E03016E6F000EB5
:100838006F6F000E706F000E716F000E0101C06FB8
:100848000D0E0001FF6F0D0E0F015F6F3CEF0BF0F7
:100858000D0EFF19D8A433EF04F035EF04F05CEF68
:1008680006F0E8C036F1E9C037F10101365102015E
:1008780008270101375102010923000E0A23000E3F
:100888000B23824B832B835109E1200E825DD8A074
:1008980050EF04F052EF04F054EF06F008C24BF0AA
:1008A80009C24CF00AC24DF00BC24EF0060E62EFC0
:1008B80004F0D8904E324D324C324B32E82E5DEF78
:1008C80004F04BC008F24CC009F24DC00AF24EC009
:1008D8000BF208C2DEF009C2DFF0F60E136E280E26
:1008E800146E9C0E156E400E166EDEC001F0DFC051
:1008F80002F0036A046A000EC4EC29F001C00FF08C
:1009080002C010F003C011F004C012F001EC21F095
:100918000FC041F010C042F011C043F012C044F0C3
:10092800B1EC2EF041C0DEF042C0DFF0DEC020F2B4
:10093800DFC021F2DEC001F0DFC002F0036A046A02
:10094800000EC4EC29F001C00CF102C00DF103C087
:100958000EF104C00FF1000E136E400E146E1C0E43
:10096800156E460E166E0CC10FF00DC110F00EC1BB
:1009780011F00FC112F001EC21F00FC028F010C0E7
:1009880029F011C02AF012C02BF00CC115F00DC1CE
:1009980016F00EC117F00FC118F0000E116E400EC0
:1009A800126E9C0E136E450E146EBDEC33F011C022
:1009B8002CF012C02DF013C02EF014C02FF0E4EC70
:1009C80024F028C052F329C053F32AC054F32BC093
:1009D80055F3000E136E400E146E9C0E156E450EE8
:1009E800166E52C30FF053C310F054C311F055C321
:1009F80012F001EC21F00FC028F010C029F011C04E
:100A08002AF012C02BF0000E2C6E200E2D6E990EBF
:100A18002E6E460E2F6EE4EC24F028C00CF129C08F
:100A28000DF12AC00EF12BC00FF10CC141F00DC120
:100A380042F00EC143F00FC144F0B1EC2EF041C0BA
:100A4800DEF042C0DFF05D04D8A42DEF05F02FEFF3
:100A580005F03AEF05F0000E03015E6F000E5F6FC0
:100A6800180E606F410E616F60EF05F0020E5D18A1
:100A7800D8A441EF05F043EF05F04EEF05F0660E00
:100A880003015E6F660E5F6FC60E606F400E616F8A
:100A980060EF05F0030E5D18D8A455EF05F057EF89
:100AA80005F060EF05F0000E03015E6F000E5F6F4A
:100AB800800E606F400E616F0F0E02013D6F3C0E9D
:100AC8003C6F20513C5D21513D59D8A06EEF05F097
:100AD80070EF05F033EF06F0010E0101636F5EC39E
:100AE8002CF05FC32DF060C32EF061C32FF0DEC081
:100AF80001F0DFC002F0036A046A000EC4EC29F0BA
:100B080001C028F002C029F003C02AF004C02BF06D
:100B1800E4EC24F028C041F029C042F02AC043F098
:100B28002BC044F0B1EC2EF041C0DEF042C0DFF043
:100B38005D04D8A4A2EF05F0A4EF05F0C9EF05F015
:100B48000001DF5107E10B0EDE5DD8B0AEEF05F016
:100B5800B0EF05F0B4EF05F0000EDF6F0A0EDE6FA0
:100B6800DF5109E1FA0EDE5DD8A0BDEF05F0BFEF59
:100B780005F0C3EF05F0000EDF6FFA0EDE6FDEC082
:100B880059F0DFC05AF01DEF06F0020E5D18D8A428
:100B9800D0EF05F0D2EF05F0F3EF05F00001DF51DB
:100BA80007E10B0EDE5DD8B0DCEF05F0DEEF05F0F7
:100BB800E2EF05F0000EDF6F0A0EDE6F900EDE5DCD
:100BC800010EDF59D8A0EBEF05F0EDEF05F0C3EF0C
:100BD80005F0010EDF6F900EDE6FC3EF05F0030E18
:100BE8005D18D8A4FAEF05F0FCEF05F01DEF06F04C
:100BF8000001DF5107E1150EDE5DD8B006EF06F003
:100C080008EF06F00CEF06F0000EDF6F140EDE6F33
:100C1800580EDE5D020EDF59D8A015EF06F017EF6B
:100C280006F0C3EF05F0020EDF6F580EDE6FC3EF5C
:100C380005F059500201621909E15A506319D8B4F4
:100C480028EF06F02AEF06F047EF06F059C062F2E7
:100C58005AC063F2010E0101AF6F47EF06F00101C0
:100C68006305D8A43AEF06F03CEF06F044EF06F02F
:100C7800000E0201236F000E226F010E0001FC6FAF
:100C8800000E0101636F000E0201086F000E096F6C
:100C9800000E0A6F000E0B6F000E836F000E826F3E
:100CA800020E0001FF6F020E0F015F6F3CEF0BF0A9
:100CB800020EFF19D8A463EF06F065EF06F0DBEF2C
:100CC80006F0E8C030F1E9C031F10101444B452B91
:100CD800305103016A270101315103016B23000ED2
:100CE8006C23000E6D230101BF2B3F0EBF657FEF04
:100CF80006F081EF06F0CDEF06F06AC328F16BC36A
:100D080029F128C14BF029C14CF0060E4D6ED89040
:100D18004C324B324D2E8BEF06F04BC028F14CC0B5
:100D280029F1F60E136E280E146E9C0E156E400EE9
:100D3800166E28C101F029C102F0036A046A000E88
:100D4800C4EC29F001C00FF002C010F003C011F08C
:100D580004C012F001EC21F00FC041F010C042F0C5
:100D680011C043F012C044F0B1EC2EF041C028F19C
:100D780042C029F1010E0101B66F000E03016A6F2E
:100D8800000E6B6F000E6C6F000E6D6F000E010190
:100D9800BF6F8CC201F08DC202F071EC2BF0150E02
:100DA8000001FF6F150E0F015F6F3CEF0BF0150E82
:100DB800FF19D8A4E2EF06F0E4EF06F055EF07F0CC
:100DC800E8C02EF1E9C02FF101012E510301662779
:100DD80001012F5103016723000E6823000E6923C8
:100DE8000101BE2B3F0EBE65FCEF06F0FEEF06F0DC
:100DF80047EF07F066C326F167C327F126C14BF01A
:100E080027C14CF0060E4D6ED8904C324B324D2E09
:100E180008EF07F04BC026F14CC027F1F60E136E11
:100E2800280E146E9C0E156E400E166E26C101F02B
:100E380027C102F0036A046A000EC4EC29F001C05D
:100E48000FF002C010F003C011F004C012F001EC62
:100E580021F00FC041F010C042F011C043F012C0A1
:100E680044F0B1EC2EF041C026F142C027F1000E4B
:100E78000301666F000E676F000E686F000E696FE2
:100E8800000E0101BE6F88C201F089C202F026EC93
:100E980032F0040E0001FF6F040E0F015F6F3CEF8C
:100EA8000BF0040EFF19D8A45CEF07F05EEF07F013
:100EB800DEEF08F0E8C030F2E9C031F2020130514B
:100EC800042731510523000E0623000E07230101D4
:100ED8006351D8A472EF07F074EF07F077EF07F0CB
:100EE80002012E4B2F2B02012F5109E1100E2E5D0E
:100EF800D8A081EF07F083EF07F0D6EF08F004C21F
:100F08004BF005C24CF006C24DF007C24EF0050E7C
:100F180093EF07F0D8904E324D324C324B32E82ED8
:100F28008EEF07F04BC004F24CC005F24DC006F23C
:100F38004EC007F204C2DCF005C2DDF0F60E136EF7
:100F4800280E146E9C0E156E400E166EDCC001F055
:100F5800DDC002F0036A046A000EC4EC29F001C087
:100F68000FF002C010F003C011F004C012F001EC41
:100F780021F00FC041F010C042F011C043F012C080
:100F880044F0B1EC2EF041C0DCF042C0DDF0DCC032
:100F980024F2DDC025F25D04D8A4D5EF07F0D7EF21
:100FA80007F009EF08F0DCC007F0DDC008F0000E1C
:100FB8000A6E130E096E9DEC32F007C0DCF008C013
:100FC800DDF0DCC059F0DDC05AF05A5007E10B0ED5
:100FD800595CD8B0F2EF07F0F4EF07F0F8EF07F03C
:100FE800000E5A6E0A0E596E5A5009E1FA0E595CF3
:100FF800D8A001EF08F003EF08F0B3EF08F0000EF7
:101008005A6EFA0E596EB3EF08F0020E5D18D8A4A6
:1010180010EF08F012EF08F05FEF08F0330E2C6EB7
:10102800330E2D6E430E2E6E410E2F6EDCC001F076
:10103800DDC002F0036A046A000EC4EC29F001C0A6
:1010480028F002C029F003C02AF004C02BF0E4EC19
:1010580024F028C041F029C042F02AC043F02BC038
:1010680044F0B1EC2EF041C0DCF042C0DDF0DCC051
:1010780059F0DDC05AF05A5007E10B0E595CD8B050
:1010880048EF08F04AEF08F04EEF08F0000E5A6EED
:101098000A0E596E900E595C010E5A58D8A057EF97
:1010A80008F059EF08F0B3EF08F0010E5A6E900EF1
:1010B800596EB3EF08F0030E5D18D8A466EF08F078
:1010C80068EF08F0B3EF08F0000E2C6E000E2D6EDE
:1010D800000E2E6E410E2F6EDCC001F0DDC002F056
:1010E800036A046A000EC4EC29F001C028F002C0AB
:1010F80029F003C02AF004C02BF0E4EC24F028C047
:1011080041F029C042F02AC043F02BC044F0B1ECB2
:101118002EF041C0DCF042C0DDF0DCC059F0DDC08B
:101128005AF05A5007E1150E595CD8B09EEF08F0F6
:10113800A0EF08F0A4EF08F0000E5A6E140E596ED6
:10114800580E595C020E5A58D8A0ADEF08F0AFEF10
:1011580008F0B3EF08F0020E5A6E580E596E595047
:101168000201221909E15A502319D8B4BEEF08F038
:10117800C0EF08F0C9EF08F059C022F25AC023F2B4
:10118800010E0101B26F010E496F000E02012F6FAF
:10119800000E2E6F000E046F000E056F000E066F16
:1011A800000E076F200E0001FF6F200E0F015F6F0A
:1011B8003CEF0BF0200EFF19D8A4E5EF08F0E7EF9D
:1011C80008F05EEF0AF0E8C02CF2E9C02DF2020147
:1011D8002C510101082702012D5101010923000E9C
:1011E8000A23000E0B2302012A4B2B2B2B5109E15A
:1011F800200E2A5DD8A003EF09F005EF09F056EF9D
:101208000AF008C14BF009C14CF00AC14DF00BC1FE
:101218004EF0060E15EF09F0D8904E324D324C3292
:101228004B32E82E10EF09F04BC008F14CC009F121
:101238004DC00AF14EC00BF108C1DAF009C1DBF06C
:10124800F60E136E280E146E9C0E156E400E166E5A
:10125800DAC001F0DBC002F0036A046A000EC4ECD5
:1012680029F001C00FF002C010F003C011F004C053
:1012780012F001EC21F00FC041F010C042F011C093
:1012880043F012C044F0B1EC2EF041C0DAF042C095
:10129800DBF0DAC007F0DBC008F0000E0A6E310E92
:1012A800096E9DEC32F007C0DAF008C0DBF00001EF
:1012B800F605D8A462EF09F064EF09F0FEEF09F033
:1012C800F551D8A46AEF09F06CEF09F0FEEF09F0C8
:1012D80008C101F009C102F00AC103F00BC104F012
:1012E800000EC4EC29F001C000F102C001F103C0F6
:1012F80002F104C003F100C128F001C129F002C1C4
:101308002AF003C12BF0EC0E2C6E510E2D6E380E08
:101318002E6E400E2F6EE4EC24F028C000F129C098
:1013280001F12AC002F12BC003F100C128F001C16C
:1013380029F002C12AF003C12BF0000E2C6E000E1A
:101348002D6E440E2E6E420E2F6EE4EC24F028C053
:1013580000F129C001F12AC002F12BC003F100C13C
:1013680004F101C105F102C106F103C107F1000E44
:10137800136E000E146EC80E156E420E166E04C162
:101388000FF005C110F006C111F007C112F001EC11
:1013980021F00FC041F010C042F011C043F012C05C
:1013A80044F0B1EC2EF041C0D6F042C0D7F0D6C020
:1013B80001F0D7C002F0036A046A000EC4EC29F0F9
:1013C80001C028F002C029F003C02AF004C02BF0A5
:1013D800000E2C6E000E2D6EC80E2E6E420E2F6E55
:1013E800E4EC24F028C004F129C005F12AC006F174
:1013F8002BC007F101014605D8A405EF0AF007EF55
:101408000AF00FEF0AF0DAC00EF2DBC00FF20EC2DC
:10141800A4F30FC2A5F30001DA51DB11D8A417EF2A
:101428000AF019EF0AF01FEF0AF0000EDB6F000E4A
:10143800DA6F2EEF0AF0DB5109E1640EDA5DD8A00D
:1014480028EF0AF02AEF0AF02EEF0AF0000EDB6F01
:10145800640EDA6FDAC0EAF0DBC0EBF0EA510201A1
:1014680054190BE10001EB5102015519D8B43FEFB3
:101478000AF041EF0AF048EF0AF0EAC054F2EBC074
:1014880055F2010E0101B26F000E02012B6F000E22
:101498002A6F000E0101086F000E096F000E0A6F17
:1014A800000E0B6F210E0001FF6F210E0F015F6F01
:1014B8003CEF0BF0210EFF19D8A465EF0AF067EF97
:1014C8000AF03CEF0BF0E8C028F2E9C029F202016B
:1014D8002851002729510123000E0223000E03235F
:1014E800264B272B275109E1200E265DD8A07FEF38
:1014F8000AF081EF0AF034EF0BF000C24BF001C2A2
:101508004CF002C24DF003C24EF0060E91EF0AF005
:10151800D8904E324D324C324B32E82E8CEF0AF0D6
:101528004BC000F24CC001F24DC002F24EC003F2B3
:1015380000C2D8F001C2D9F0F60E136E280E146E50
:101548009C0E156E400E166ED8C001F0D9C002F080
:10155800036A046A000EC4EC29F001C00FF002C04F
:1015680010F003C011F004C012F001EC21F00FC01C
:1015780041F010C042F011C043F012C044F0B1EC89
:101588002EF041C0D8F042C0D9F0D8C007F0D9C079
:1015980008F0000E0A6E310E096E9DEC32F007C09D
:1015A800D8F008C0D9F00001F505D8A4DEEF0AF09C
:1015B800E0EF0AF0EEEF0AF0F651D8A4E6EF0AF0F1
:1015C800E8EF0AF0EEEF0AF0010EF46FD8C014F15C
:1015D800D9C015F1D851D911D8A4F5EF0AF0F7EF11
:1015E8000AF0FDEF0AF0000ED96F000ED86F0CEF6D
:1015F8000BF0D95109E1640ED85DD8A006EF0BF0C5
:1016080008EF0BF00CEF0BF0000ED96F640ED86FDB
:10161800D8C038F1D9C039F1010138510201561941
:101628000BE10101395102015719D8B41EEF0BF033
:1016380020EF0BF027EF0BF038C156F239C157F203
:10164800010E0101B26F000E0201276F000E266F16
:10165800000E006F000E016F000E026F000E036F88
:10166800000E0001FF6F000E0F015F6F3CEF0BF0E3
:101678000E01CB9156C0F5FF55C0F8FF54C0F7FFD7
:1016880053C0F6FF52C0F4FF51C0F3FF50C0DAFF59
:101698004FC0D9FF5F9211004DEF31F009EC35F0E2
:1016A800010E0101476F270E02010D6F100E0C6F1E
:1016B800020E5D6E7BEC34F0000E0001696F686904
:1016C80073EC33F07B0E000168196911D8A46FEF31
:1016D8000BF071EF0BF038EF0CF0000E696F280E6D
:1016E800686F73EC33F0000168515D6E000E696F2E
:1016F8001E0E686F73EC33F068C0F0F069C0F1F04B
:10170800000E0001696F210E686F73EC33F068C03A
:10171800F2F069C0F3F0000E0001696F240E686FE3
:1017280073EC33F068C0EEF069C0EFF0000E000112
:10173800696F2E0E686F73EC33F068C0D6F069C01D
:10174800D7F02D0E0001D65D010ED759D8A0AFEF06
:101758000BF0B1EF0BF0BCEF0BF08A0ED65D020E6A
:10176800D759D8A0BAEF0BF0BCEF0BF0F8EF0BF09D
:10177800020E746F2C0E736F000E766F2E0E756F3F
:1017880002EC34F0000E0001696F2E0E686F73ECE6
:1017980033F068C0D6F069C0D7F0D6C066F0D7C0BD
:1017A80067F00001686B696B000EE8EC28F066C012
:1017B8008CF067C08DF068C08EF069C08FF0000EA5
:1017C8000001906F000E916FC80E926F420E936FDA
:1017D80016EC23F08CC004F18DC005F18EC006F123
:1017E8008FC007F11CEF0CF0D6C066F0D7C067F0C9
:1017F800686B696B000EE8EC28F066C08CF067C077
:101808008DF068C08EF069C08FF0000E0001906FF7
:10181800000E916FC80E926F420E936F16EC23F074
:101828008CC004F18DC005F18EC006F18FC007F1A0
:10183800000E0001696F300E686F73EC33F068C0FA
:1018480016F169C017F116C11AF117C11BF1000E84
:101858000001696F320E686F73EC33F068C0A4F34F
:1018680069C0A5F3ABEF0DF05DC073F0746B000EAB
:10187800766F280E756F02EC34F0000E0001746F5D
:10188800000E736F000E766F0B0E756F02EC34F05E
:10189800000E0001746F000E736F000E766F1E0E3F
:1018A800756F02EC34F0000E0001746F000E736F58
:1018B800000E766F210E756F02EC34F0000E0001F9
:1018C800746F000E736F000E766F240E756F02EC46
:1018D80034F0020E0001746F350E736F000E766FD0
:1018E8002E0E756F02EC34F0000E01011B6F020E14
:1018F8001A6F1AC173F01BC174F0000E0001766FE5
:10190800300E756F02EC34F0000E0001746F7B0E20
:10191800736F000E766F756902EC34F0000E0001EB
:10192800696F280E686F73EC33F0000168515D6EC3
:10193800000E696F0B0E686F73EC33F0000168518D
:101948000101986F000E0001696F1E0E686F73EC3D
:1019580033F068C0F0F069C0F1F00001F029F1112E
:10196800D8B4B9EF0CF0BBEF0CF0C6EF0CF0F151A6
:1019780009E13D0EF05DD8A0C4EF0CF0C6EF0CF005
:10198800CAEF0CF0000EF16F000EF06F000E696FD9
:10199800210E686F73EC33F068C0F2F069C0F3F0A1
:1019A8000001F229F311D8B4DCEF0CF0DEEF0CF0F3
:1019B800E9EF0CF0F35109E13D0EF25DD8A0E7EF35
:1019C8000CF0E9EF0CF0EDEF0CF0000EF36F000EE9
:1019D800F26F000E696F240E686F73EC33F068C005
:1019E800EEF069C0EFF00001EE29EF11D8B4FFEF77
:1019F8000CF001EF0DF00CEF0DF0EF5109E1640E62
:101A0800EE5DD8A00AEF0DF00CEF0DF010EF0DF021
:101A1800000EEF6F000EEE6F000E696F2E0E686FEE
:101A280073EC33F068C0D6F069C0D7F02D0E000112
:101A3800D65D010ED759D8A024EF0DF026EF0DF092
:101A480031EF0DF08A0ED65D020ED759D8A02FEFD0
:101A58000DF031EF0DF06DEF0DF0020E746F2C0EDE
:101A6800736F000E766F2E0E756F02EC34F0000E59
:101A78000001696F2E0E686F73EC33F068C0D6F002
:101A880069C0D7F0D6C066F0D7C067F00001686BB0
:101A9800696B000EE8EC28F066C08CF067C08DF02A
:101AA80068C08EF069C08FF0000E0001906F000EC4
:101AB800916FC80E926F420E936F16EC23F08CC094
:101AC80004F18DC005F18EC006F18FC007F191EFCA
:101AD8000DF0D6C066F0D7C067F0686B696B000E72
:101AE800E8EC28F066C08CF067C08DF068C08EF016
:101AF80069C08FF0000E0001906F000E916FC80E44
:101B0800926F420E936F16EC23F08CC004F18DC0D7
:101B180005F18EC006F18FC007F1000E0001696F54
:101B2800300E686F73EC33F068C01AF169C01BF1AE
:101B38001AC116F11BC117F1000E0001696F320EB0
:101B4800686F73EC33F068C0A4F369C0A5F30001B3
:101B5800F751D8A4B2EF0DF0B4EF0DF040EF0EF04E
:101B68005B0ED26F410ED36F440ED46F520ED56FF9
:101B78005B0ECE6F5B0ECF6F5B0ED06F5B0ED16FBF
:101B8800000E636F050E626F730E646F34EC2FF0F6
:101B98000001FE855B0ED26F520ED36F320ED46FEA
:101BA800330ED56F5B0ECE6F5B0ECF6F5B0ED06FB3
:101BB8005B0ED16F000E636F050E626F730E646F5C
:101BC80034EC2FF00001FE955D04D8A4EEEF0DF083
:101BD800F0EF0DF00AEF0EF05B0ED26F320ED36FFE
:101BE800350ED46F300ED56F5B0ECE6F5B0ECF6F98
:101BF8005B0ED06F5B0ED16F000E636F050E626FC8
:101C0800730E646F34EC2FF040EF0EF0020E5D1887
:101C1800D8A411EF0EF013EF0EF025EF0EF05B0EC7
:101C2800D26F340ED36F300ED46F300ED56F5B0E7B
:101C3800CE6F5B0ECF6F5B0ED06F5B0ED16F00EF78
:101C48000EF0030E5D18D8A42CEF0EF02EEF0EF058
:101C580040EF0EF05B0ED26F360ED36F300ED46F9E
:101C6800300ED56F5B0ECE6F5B0ECF6F5B0ED06FF5
:101C78005B0ED16F00EF0EF00001FE8D3BEC2CF0F7
:101C8800000E0201636F000E626F020E5D18D8A489
:101C980050EF0EF052EF0EF062EF0EF05A5007E1DF
:101CA800C90E595CD8B05BEF0EF05DEF0EF062EF35
:101CB8000EF0000E0001ED6F010EEC6F030E5D18C3
:101CC800D8A469EF0EF06BEF0EF07BEF0EF0C30EA9
:101CD800595C010E5A58D8B074EF0EF076EF0EF03A
:101CE8007BEF0EF0000E0001ED6F010EEC6F010EA0
:101CF8000101856F5C500101E719D8B486EF0EF039
:101D080088EF0EF0D9EF0EF00001F751D8A48FEF4D
:101D18000EF091EF0EF0D9EF0EF04D0E5C18D8A42E
:101D280098EF0EF09AEF0EF0B8EF0EF0FE9DFE9BC6
:101D38005B0ED26F4D0ED36F4D0ED46F410ED56F23
:101D48005B0ECE6F5B0ECF6F5B0ED06F5B0ED16FED
:101D5800000E636F050E626F730E646F34EC2FF024
:101D68000001FE8DD5EF0EF0540E5C18D8A4BFEF1D
:101D78000EF0C1EF0EF0D5EF0EF0FE9DFE9B5B0E50
:101D8800D26F540ED36F490ED46F470ED56F5B0ECA
:101D9800CE6F5B0ECF6F5B0ED06F5B0ED16FACEF6B
:101DA8000EF05CC0E7F1010EFC6F0101AF05D8B47D
:101DB800E0EF0EF0E2EF0EF0EAEF0EF0B205D8A475
:101DC800E8EF0EF0EAEF0EF0D7EF0FF00001EC05A8
:101DD800ED11D8A4F2EF0EF0F4EF0EF0BCEF0FF017
:101DE800020E5D18D8A4FBEF0EF0FDEF0EF04CEFDD
:101DF8000FF05A5007E1C90E595CD8B006EF0FF042
:101E080008EF0FF042EF0FF059C060F05AC061F0D0
:101E180038C162F039C163F0A5EC34F060C066F0F7
:101E280061C067F0000E0001696F640E686F62ECB4
:101E380032F059500001662501012A6F5A500001FD
:101E4800672101012B6F0E0E2A5D010E2B59D8A0B8
:101E580030EF0FF032EF0FF036EF0FF0010E2B6F6F
:101E68000E0E2A6F2AC1C8F02BC1C9F09EEC2AF0C9
:101E7800C8C03CF1C9C03DF14CEF0FF059C0C8F0E3
:101E88005AC0C9F09EEC2AF0C8C03CF1C9C03DF167
:101E9800030E5D18D8A453EF0FF055EF0FF0D0EFF5
:101EA8000FF05A5009E1C90E595CD8A05EEF0FF047
:101EB80060EF0FF076EF0FF02C0E595C010E5A58B8
:101EC800D8A069EF0FF06BEF0FF0B0EF0FF0C30E73
:101ED800595C010E5A58D8B074EF0FF076EF0FF036
:101EE800B0EF0FF059C060F05AC061F038C162F02D
:101EF80039C163F0A5EC34F060C066F061C067F0EA
:101F0800000E0001696F640E686F62EC32F0595080
:101F18000001662501012A6F5A500001672101015D
:101F28002B6F120E2A5D020E2B59D8A09EEF0FF0D0
:101F3800A0EF0FF0A4EF0FF0020E2B6F120E2A6F16
:101F48002AC1C8F02BC1C9F09EEC2AF0C8C03CF1E8
:101F5800C9C03DF1D0EF0FF059C0C8F05AC0C9F060
:101F68009EEC2AF0C8C03CF1C9C03DF1D0EF0FF09B
:101F7800EC51ED11D8A4C3EF0FF0C5EF0FF0D0EF7F
:101F88000FF00101BA51D8A4CCEF0FF0CEEF0FF04B
:101F9800D0EF0FF0B0EF0FF0010E0101E66F000E69
:101FA800B26F000EAF6FE605D8A4DDEF0FF0DFEFDC
:101FB8000FF0E8EF0FF03CC169F03DC16AF022EC88
:101FC80034F0000E0101E66FEB05D8A4EEEF0FF038
:101FD800F0EF0FF0F2EF0FF0000EEB6FAD05D8A4A5
:101FE800F8EF0FF0FAEF0FF0ADEF13F0000E00016D
:101FF800746F000E756FC80E766F420E776F57C0FC
:1020080066F058C067F0686B696B000EE8EC28F062
:1020180066C078F067C079F068C07AF069C07BF074
:102028002EEC2EF00001D8A01CEF10F01EEF10F0DF
:102038004DEF10F05B04D8A424EF10F026EF10F059
:102048004DEF10F04D0E5C18D8A42DEF10F02FEFC7
:1020580010F04DEF10F002017A4B7B2B2C0E7A5DBD
:10206800010E7B59D8A03BEF10F03DEF10F052EF76
:1020780010F0000E0001C96F0A0EC86F9EEC2AF01E
:10208800C8C03CF1C9C03DF1010E0101E66F010E67
:10209800BA6F000E02017B6F000E7A6F000E00010E
:1020A800746F000E756FC80E766F420E776F57C04B
:1020B80066F058C067F0686B696B000EE8EC28F0B2
:1020C80066C078F067C079F068C07AF069C07BF0C4
:1020D8002EEC2EF00001D8B074EF10F076EF10F06F
:1020E80097EF10F00101BA05D8A47DEF10F07FEF4B
:1020F80010F097EF10F00201784B792B795109E134
:10210800960E785DD8A08BEF10F08DEF10F097EF5A
:1021180010F0010E0101B26F000EBA6F000E02013D
:10212800796F000E786F0001EC05ED11D8A49FEFD0
:1021380010F0A1EF10F0C4EF10F05B04D8A4A7EFE3
:1021480010F0A9EF10F0C4EF10F00201B64BB72B56
:10215800B75109E1960EB65DD8A0B5EF10F0B7EF0C
:1021680010F0C4EF10F0010E0101B26F000E020171
:10217800B76F000EB66F000E0001ED6F000EEC6F2A
:102188000001E55109E1090EE45DD8A0CEEF10F099
:10219800D0EF10F0F1EF10F05B50D8A4D6EF10F0AC
:1021A800D8EF10F0F1EF10F0010110511111D8A47F
:1021B800E0EF10F0E2EF10F0F1EF10F0010E000187
:1021C800FC6F010E5B6E000E0201516F000E506F26
:1021D800000E0001F86F7EEF11F00001E55107E1F4
:1021E800090EE45DD8B0FBEF10F0FDEF10F07EEFC4
:1021F80011F05B04D8A403EF11F005EF11F07EEFA6
:1022080011F001013E4B3F2B3E513F11D8B40FEF67
:1022180011F011EF11F07EEF11F05B04D8A417EF65
:1022280011F019EF11F023EF11F0EB51D8A41FEFC3
:1022380011F021EF11F023EF11F0010EEB6F000EFA
:102248003F6F000E3E6F000E5B6E010EB26F010E07
:102258000001FC6F020E5D18D8A435EF11F037EFBE
:1022680011F04FEF11F05A5007E1C90E595CD8B080
:1022780040EF11F042EF11F04FEF11F04D0E5C18E6
:10228800D8A449EF11F04BEF11F04FEF11F0000E09
:10229800ED6F010EEC6F030E5D18D8A456EF11F028
:1022A80058EF11F070EF11F0C30E595C010E5A5837
:1022B800D8B061EF11F063EF11F070EF11F04D0E2F
:1022C8005C18D8A46AEF11F06CEF11F070EF11F000
:1022D800000EED6F010EEC6F000E0201B76F000EDD
:1022E800B66F000E0101AA6F000E256F000E246F55
:1022F800010E5D6FF3EC2CF04D0E5C18D8A487EF3F
:1023080011F089EF11F08BEF11F0E9EC30F00101D9
:10231800C705D8B492EF11F094EF11F0ACEF11F0BB
:10232800C605D8B49AEF11F09CEF11F0ACEF11F09C
:10233800C505D8B4A2EF11F0A4EF11F0ACEF11F07D
:10234800C205D8A4AAEF11F0ACEF11F051EF13F0C9
:102358000001F751D8A4B3EF11F0B5EF11F051EF28
:1023680013F0F451D8B4BBEF11F0BDEF11F0C5EF85
:1023780011F0F551D8A4C3EF11F0C5EF11F051EFEA
:1023880013F0FE9D0101C705D8A4CDEF11F0CFEFE2
:1023980011F025EF12F00001E051E111D8A4D7EFB8
:1023A80011F0D9EF11F0FCEF11F0F905D8A4DFEF27
:1023B80011F0E1EF11F0FCEF11F0FE9D5B0ED26F12
:1023C800450ED36F520ED46F520ED56F5B0ECE6F83
:1023D8005B0ECF6F5B0ED06F5B0ED16F010EFC6F83
:1023E800000EF96F030EE16FE80EE06F25EF12F0B3
:1023F800E051E111D8A403EF12F005EF12F025EF38
:1024080012F0F951D8A40BEF12F00DEF12F025EFEE
:1024180012F05B0ED26F300ED36F300ED46F310EC8
:10242800D56F5B0ECE6F5B0ECF6F5B0ED06F5B0E02
:10243800D16F010EFC6F010EF96F030EE16FE80E0C
:10244800E06F0101C605D8A42CEF12F02EEF12F0B0
:1024580084EF12F00001E051E111D8A436EF12F038
:1024680038EF12F05BEF12F0F905D8A43EEF12F046
:1024780040EF12F05BEF12F0FE9D5B0ED26F450E3F
:10248800D36F520ED46F520ED56F5B0ECE6F5B0EAC
:10249800CF6F5B0ED06F5B0ED16F010EFC6F000E1D
:1024A800F96F030EE16FE80EE06F84EF12F0E05170
:1024B800E111D8A462EF12F064EF12F084EF12F089
:1024C800F951D8A46AEF12F06CEF12F084EF12F011
:1024D8005B0ED26F300ED36F300ED46F320ED56FC5
:1024E8005B0ECE6F5B0ECF6F5B0ED06F5B0ED16F46
:1024F800010EFC6F010EF96F030EE16FE80EE06F3D
:102508000101C505D8A48BEF12F08DEF12F0E3EFAF
:1025180012F00001E051E111D8A495EF12F097EF05
:1025280012F0BAEF12F0F905D8A49DEF12F09FEF60
:1025380012F0BAEF12F0FE9D5B0ED26F450ED36F0C
:10254800520ED46F520ED56F5B0ECE6F5B0ECF6FEF
:102558005B0ED06F5B0ED16F010EFC6F000EF96F32
:10256800030EE16FE80EE06FE3EF12F0E051E111C6
:10257800D8A4C1EF12F0C3EF12F0E3EF12F0F95153
:10258800D8A4C9EF12F0CBEF12F0E3EF12F05B0E14
:10259800D26F300ED36F300ED46F330ED56F5B0E03
:1025A800CE6F5B0ECF6F5B0ED06F5B0ED16F010EDF
:1025B800FC6F010EF96F030EE16FE80EE06F010189
:1025C800C205D8A4EAEF12F0ECEF12F042EF13F0D4
:1025D8000001E051E111D8A4F4EF12F0F6EF12F087
:1025E80019EF13F0F905D8A4FCEF12F0FEEF12F082
:1025F80019EF13F0FE9D5B0ED26F450ED36F520E8E
:10260800D46F520ED56F5B0ECE6F5B0ECF6F5B0E25
:10261800D06F5B0ED16F010EFC6F000EF96F030EC9
:10262800E16FE80EE06F42EF13F0E051E111D8A43A
:1026380020EF13F022EF13F042EF13F0F951D8A472
:1026480028EF13F02AEF13F042EF13F05B0ED26F6E
:10265800300ED36F310ED46F310ED56F5B0ECE6F47
:102668005B0ECF6F5B0ED06F5B0ED16F010EFC6FF0
:10267800010EF96F030EE16FE80EE06F010E000125
:10268800FB6F010E0101916F8584000E3D6F000EF6
:102698003C6F010EE66FAAEF13F0000E0001FB6F0E
:1026A80001019105D8A45BEF13F05DEF13F0AAEFD9
:1026B80013F0000E916F8594020E5D18D8A467EF91
:1026C80013F069EF13F082EF13F05A5007E1C90EC7
:1026D800595CD8B072EF13F074EF13F082EF13F077
:1026E8004D0E5C18D8A47BEF13F07DEF13F082EF4A
:1026F80013F0000E0001ED6F010EEC6F030E5D1874
:10270800D8A489EF13F08BEF13F0A4EF13F0C30EE6
:10271800595C010E5A58D8B094EF13F096EF13F0A5
:10272800A4EF13F04D0E5C18D8A49DEF13F09FEFA3
:1027380013F0A4EF13F0000E0001ED6F010EEC6F23
:10274800010E0101B26F010E0001FC6F000E0101C4
:10275800AD6FE505D8A4B3EF13F0B5EF13F012EFA2
:1027680018F00001EA51EB11D8B4BDEF13F0BFEF38
:1027780013F012EF18F04D0E5C18D8A4C6EF13F042
:10278800C8EF13F012EF18F0020E5D18D8A4CFEFBF
:1027980013F0D1EF13F03FEF15F0000E746F000E39
:1027A800756FC80E766F420E776F57C066F058C0C7
:1027B80067F0686B696B000EE8EC28F066C078F08B
:1027C80067C079F068C07AF069C07BF02EEC2EF013
:1027D8000001D8B0F2EF13F0F4EF13F0FCEF14F0AF
:1027E800000E746F000E756F960E766F430E776F3E
:1027F80057C066F058C067F0686B696B000EE8EC6C
:1028080028F066C078F067C079F068C07AF069C0CF
:102818007BF02EEC2EF00001D8A015EF14F017EF86
:1028280014F0FCEF14F0000E636F7D0E626FEAC0C7
:1028380060F0EBC061F0A5EC34F0000160C066F018
:1028480061C067F0686B696B000EE8EC28F066C041
:10285800A9F067C0AAF068C0ABF069C0ACF0000E80
:102868000001906F000E916F960E926F430E936F5A
:1028780057C066F058C067F0686B696B000EE8ECEB
:1028880028F066C088F067C089F068C08AF069C01F
:102898008BF0000E0001846F000E856F960E866F18
:1028A800430E876F99EC33F084C08CF085C08DF0AF
:1028B80086C08EF087C08FF016EC23F08CC0A5F090
:1028C8008DC0A6F08EC0A7F08FC0A8F0EBEC1EF06C
:1028D800A5C0CAF0A6C0CBF0A7C0CCF0A8C0CDF068
:1028E800000E0001906F000E916FC80E926F420E9D
:1028F800936FCAC08CF0CBC08DF0CCC08EF0CDC029
:102908008FF016EC23F08CC078F08DC079F08EC073
:102918007AF08FC07BF059C066F05AC067F00001AA
:10292800000E67BFFF0E686F696F010EE8EC28F0B4
:1029380066C074F067C075F068C076F069C077F05B
:102948002AEC1AF074C0BEF075C0BFF076C0C0F0B3
:1029580077C0C1F0AAEC2DF0BEC0E6F0BFC0E7F02A
:10296800E6C066F0E7C067F00001686B696B000EAF
:10297800E8EC28F066C074F067C075F068C076F0BF
:1029880069C077F0000E0001786F000E796F960E1F
:102998007A6F430E7B6F2EEC2EF00001D8A0D7EF94
:1029A80014F0D9EF14F0DDEF14F0010EE76F2C0EE0
:1029B800E66F5A5007E1C90E595CD8B0E6EF14F03B
:1029C800E8EF14F0F5EF14F0E6C0C8F0E7C0C9F07E
:1029D8009EEC2AF0C8C03CF1C9C03DF1010E0101CE
:1029E800E66F000E0101256F000E246F3CEF15F015
:1029F800000E746F000E756F960E766F430E776F2C
:102A080057C066F058C067F0686B696B000EE8EC59
:102A180028F066C078F067C079F068C07AF069C0BD
:102A28007BF02EEC2EF00001D8B01DEF15F01FEF53
:102A380015F03CEF15F0EC51ED11D8A426EF15F088
:102A480028EF15F03CEF15F00101244B252B2551FB
:102A580009E1030E245DD8A034EF15F036EF15F028
:102A68003CEF15F0000E256F000E246F010EB26FBB
:102A7800000E0101E56F030E5D18D8A446EF15F0AE
:102A880048EF15F012EF18F05A5007E1C90E595CDB
:102A9800D8B051EF15F053EF15F0C4EF16F0000E53
:102AA8000001746F000E756FC80E766F420E776F57
:102AB80057C066F058C067F0686B696B000EE8ECA9
:102AC80028F066C078F067C079F068C07AF069C00D
:102AD8007BF02EEC2EF00001D8B075EF15F077EFF3
:102AE80015F07FEF16F0000E746F000E756F960EDE
:102AF800766F430E776F57C066F058C067F0686B03
:102B0800696B000EE8EC28F066C078F067C079F0D1
:102B180068C07AF069C07BF02EEC2EF00001D8A0D6
:102B280098EF15F09AEF15F07FEF16F0000E636F2F
:102B38007D0E626FEAC060F0EBC061F0A5EC34F086
:102B4800000160C066F061C067F0686B696B000ED9
:102B5800E8EC28F066C0A9F067C0AAF068C0ABF03E
:102B680069C0ACF0000E0001906F000E916F960ED8
:102B7800926F430E936F57C066F058C067F0686B4A
:102B8800696B000EE8EC28F066C088F067C089F031
:102B980068C08AF069C08BF0000E0001846F000ED7
:102BA800856F960E866F430E876F99EC33F084C05D
:102BB8008CF085C08DF086C08EF087C08FF016EC43
:102BC80023F08CC0A5F08DC0A6F08EC0A7F08FC0F2
:102BD800A8F0EBEC1EF0A5C0CAF0A6C0CBF0A7C0C9
:102BE800CCF0A8C0CDF0000E0001906F000E916FE0
:102BF800C80E926F420E936FCAC08CF0CBC08DF096
:102C0800CCC08EF0CDC08FF016EC23F08CC078F0DD
:102C18008DC079F08EC07AF08FC07BF059C066F015
:102C28005AC067F00001000E67BFFF0E686F696F3A
:102C3800010EE8EC28F066C074F067C075F068C053
:102C480076F069C077F02AEC1AF074C0BEF075C04F
:102C5800BFF076C0C0F077C0C1F0AAEC2DF0BEC0BE
:102C6800E6F0BFC0E7F0E6C066F0E7C067F0000135
:102C7800686B696B000EE8EC28F066C074F067C0FA
:102C880075F068C076F069C077F0000E0001786FC3
:102C9800000E796F960E7A6F430E7B6F2EEC2EF036
:102CA8000001D8A05AEF16F05CEF16F060EF16F0AE
:102CB800010EE76F2C0EE66F5A5007E1C90E595CFA
:102CC800D8B069EF16F06BEF16F078EF16F0E6C0A3
:102CD800C8F0E7C0C9F09EEC2AF0C8C03CF1C9C0F2
:102CE8003DF1010E0101E66F000E0101256F000E96
:102CF800246FBFEF16F0000E746F000E756F960EFE
:102D0800766F430E776F57C066F058C067F0686BF0
:102D1800696B000EE8EC28F066C078F067C079F0BF
:102D280068C07AF069C07BF02EEC2EF00001D8B0B4
:102D3800A0EF16F0A2EF16F0BFEF16F0EC51ED1170
:102D4800D8A4A9EF16F0ABEF16F0BFEF16F001010B
:102D5800244B252B255109E1030E245DD8A0B7EF9C
:102D680016F0B9EF16F0BFEF16F0000E256F000E43
:102D7800246F010EB26F000E0101E56F12EF18F01B
:102D88005A5009E1C90E595CD8A0CDEF16F0CFEF23
:102D980016F012EF18F0F50E595C010E5A58D8B01B
:102DA800D8EF16F0DAEF16F012EF18F0000E000167
:102DB800746F000E756FC80E766F420E776F57C02E
:102DC80066F058C067F0686B696B000EE8EC28F095
:102DD80066C078F067C079F068C07AF069C07BF0A7
:102DE8002EEC2EF00001D8B0FCEF16F0FEEF16F036
:102DF800D6EF17F0000E746F000E756FAF0E766F7A
:102E0800430E776F57C066F058C067F0686B696B00
:102E1800000EE8EC28F066C078F067C079F068C06A
:102E28007AF069C07BF02EEC2EF00001D8A01FEFDD
:102E380017F021EF17F0D6EF17F0000E636F7D0E35
:102E4800626FEAC060F0EBC061F0A5EC34F00001FD
:102E580060C066F061C067F0686B696B000EE8ECF3
:102E680028F066C0A9F067C0AAF068C0ABF069C0D6
:102E7800ACF0000E0001906F000E916FAF0E926FD4
:102E8800430E936F57C066F058C067F0686B696B64
:102E9800000EE8EC28F066C088F067C089F068C0CA
:102EA8008AF069C08BF0000E0001846F000E856FF8
:102EB800AF0E866F430E876F99EC33F084C08CF0A9
:102EC80085C08DF086C08EF087C08FF016EC23F099
:102ED8008CC0A5F08DC0A6F08EC0A7F08FC0A8F05A
:102EE800EBEC1EF0A5C0CAF0A6C0CBF0A7C0CCF092
:102EF800A8C0CDF0000E0001906F000E916FC80EB3
:102F0800926F420E936FCAC08CF0CBC08DF0CCC0CC
:102F18008EF0CDC08FF016EC23F08CC078F08DC009
:102F280079F08EC07AF08FC07BF059C066F05AC035
:102F380067F00001000E67BFFF0E686F696F010E32
:102F4800E8EC28F066C074F067C075F068C076F0E9
:102F580069C077F02AEC1AF074C0BEF075C0BFF0F3
:102F680076C0C0F077C0C1F0AAEC2DF0BEC0E6F084
:102F7800BFC0E7F05A5009E1C90E595CD8A0C7EFA5
:102F880017F0C9EF17F078EF16F0F50E595C010E3F
:102F98005A58D8B0D2EF17F0D4EF17F078EF16F0F0
:102FA8006BEF16F0000E746F000E756FAF0E766F34
:102FB800430E776F57C066F058C067F0686B696B4F
:102FC800000EE8EC28F066C078F067C079F068C0B9
:102FD8007AF069C07BF02EEC2EF00001D8B0F7EF44
:102FE80017F0F9EF17F0BFEF16F0EC51ED11D8A478
:102FF80000EF18F002EF18F0BFEF16F00101244BB4
:10300800252B255109E1030E245DD8A00EEF18F0F9
:1030180010EF18F0BFEF16F0B9EF16F04D0E5C1870
:10302800D8B419EF18F01BEF18F024EF18F0540E6D
:103038005C18D8A422EF18F024EF18F088EF18F0E5
:103048005B50D8A42AEF18F02CEF18F088EF18F08E
:103058000001FB51D8A433EF18F035EF18F088EFD2
:1030680018F0F751D8A43BEF18F03DEF18F088EFAF
:1030780018F0F551D8A443EF18F045EF18F088EF91
:1030880018F0F451D8A44BEF18F04DEF18F088EF72
:1030980018F0FE8DFE9B59505A10D8A456EF18F020
:1030A80058EF18F060EF18F0FC05D8A45EEF18F0A0
:1030B80060EF18F066EF18F059C06DF05AC06EF066
:1030C80082EC30F00001FA05D8B46DEF18F06FEF1C
:1030D80018F077EF18F0FC05D8A475EF18F077EF23
:1030E80018F07DEF18F0E2C06DF0E3C06EF01BEC55
:1030F80030F0000E0001FA6F000E0101496F000E5A
:103108000001FC6FF4EF18F05B04D8A48EEF18F000
:1031180090EF18F0F4EF18F00001FB51D8A497EFE6
:1031280018F099EF18F0F4EF18F0F751D8A49FEFC2
:1031380018F0A1EF18F0F4EF18F0F451D8A4A7EFA5
:1031480018F0A9EF18F0F4EF18F0F551D8A4AFEF84
:1031580018F0B1EF18F0F4EF18F001011051111147
:10316800D8A4B9EF18F0BBEF18F0F4EF18F000018D
:10317800FE9B0101B905D8B4C4EF18F0C6EF18F0EA
:10318800CFEF18F00001FC05D8A4CDEF18F0CFEF71
:1031980018F0D5EF18F0E4C06DF0E5C06EF082ECE1
:1031A80030F00001FA05D8B4DCEF18F0DEEF18F0C3
:1031B800E6EF18F0FC05D8A4E4EF18F0E6EF18F0F5
:1031C800ECEF18F0E2C06DF0E3C06EF01BEC30F0ED
:1031D800000E0101B96F000E0001FA6F83EF18F0BD
:1031E800ECEC27F04D0E5C18D8A4FDEF18F0FFEFBB
:1031F80018F07EEF0EF05B04D8A405EF19F007EF86
:1032080019F0A1EF19F0010112051311D8A40FEF5D
:1032180019F011EF19F0A1EF19F0010E4A6F000132
:10322800F605D8A41AEF19F01CEF19F031EF19F0D0
:10323800F551D8A422EF19F024EF19F031EF19F065
:1032480059C0C8F05AC0C9F09EEC2AF0C8C03CF179
:10325800C9C03DF1010E0101E66F0001F651D8A485
:1032680038EF19F03AEF19F06AEF19F0000EA96F6C
:10327800000EAA6FC80EAB6F420EAC6F04C1A5F06A
:1032880005C1A6F006C1A7F007C1A8F0EBEC1EF037
:10329800A5C0BEF0A6C0BFF0A7C0C0F0A8C0C1F0CE
:1032A800AAEC2DF0BEC0D6F0BFC0D7F0D6C073F0E0
:1032B800D7C074F0000E0001766F2E0E756F02EC09
:1032C80034F0000E0101136F000E126F0101B905F1
:1032D800D8B471EF19F073EF19F07CEF19F0000111
:1032E800FC05D8A47AEF19F07CEF19F082EF19F0F9
:1032F800E4C06DF0E5C06EF082EC30F00001FA0534
:10330800D8B489EF19F08BEF19F093EF19F0FC0599
:10331800D8A491EF19F093EF19F099EF19F0E2C0E2
:103328006DF0E3C06EF01BEC30F0000E0101B96FD8
:10333800000E0001FA6F000EFC6F5B50D8A4A7EFD7
:1033480019F0A9EF19F07EEF0EF00001FB51D8A497
:10335800B0EF19F0B2EF19F07EEF0EF00101100591
:103368001111D8A4BAEF19F0BCEF19F07EEF0EF0E6
:1033780012511311D8A4C3EF19F0C5EF19F07EEF5D
:103388000EF00001F505D8A4CCEF19F0CEEF19F036
:1033980026EF1AF0F651D8A4D4EF19F0D6EF19F0A9
:1033A80026EF1AF0F405D8B4DCEF19F0DEEF19F0C7
:1033B800E6EF19F0FC05D8A4E4EF19F0E6EF19F0F0
:1033C800EEEF19F0FE9DFE9B14C16DF015C16EF075
:1033D80082EC30F014C160F015C161F0000E0001FC
:1033E800636F0A0E626FA5EC34F060C016F161C01D
:1033F80017F1010116511711D8A405EF1AF007EFBC
:103408001AF00BEF1AF0000E176F020E166F010E6E
:103418004B6F000E0001F46F000EFC6FFE8D16C19D
:1034280073F017C174F0000E766F300E756F02ECF2
:1034380034F016C11AF117C11BF1000E01014B6FD0
:103448007EEF0EF07EEF0EF050EF0BF0000177519B
:10345800800B806F77517725826F76AF36EF1AF041
:1034680038EF1AF039EF1AF082818251D8B43FEF61
:103478001AF041EF1AF056EF1AF08229D8A447EF54
:103488001AF049EF1AF051EF1AF0000E746F000E9F
:10349800756F000E766F000E776F768F000E776F60
:1034A8005EEF1AF0000E746F000E756F000E766FE7
:1034B800000E776F7B51800B816F80518119D8B4D2
:1034C80068EF1AF06AEF1AF06BEF1AF0808D7B51F3
:1034D8007B25816F7AAF73EF1AF075EF1AF076EFEC
:1034E8001AF081818151D8B47CEF1AF07EEF1AF07E
:1034F80093EF1AF08129D8A484EF1AF086EF1AF016
:103508008EEF1AF0000E786F000E796F000E7A6F4A
:10351800000E7B6F7A8F000E7B6F9BEF1AF0000E08
:10352800786F000E796F000E7A6F000E7B6F8251F4
:10353800815DD8B0A2EF1AF0A4EF1AF0CBEF1AF021
:1035480080ADA9EF1AF0ABEF1AF0ADEF1AF0800ECC
:10355800801B82C083F081C082F083C081F074C078
:1035680083F078C074F083C078F075C083F079C0B8
:1035780075F083C079F076C083F07AC076F083C0A6
:103588007AF077C083F07BC077F083C07BF0000EC1
:10359800836F825181C07CF07D6B7C5F000E7D5B08
:1035A8007DBFE0EF1AF07D5109E11A0E7C5DD8A0CD
:1035B800E0EF1AF0E2EF1AF019EF1BF074517511F1
:1035C80076117711D8A4EBEF1AF0EEEF1AF0010E8E
:1035D800EFEF1AF0000E836F000E746F000E756F18
:1035E800000E766F000E776F81C082F022EF1BF01D
:1035F80083A101EF1BF003EF1BF009EF1BF0D8903C
:1036080083310109836F0BEF1BF0D890833374A1CA
:1036180010EF1BF012EF1BF013EF1BF0838F7735C1
:103628007733763375337433822B8151825DD8A01A
:1036380020EF1BF022EF1BF0FCEF1AF080BD27EF04
:103648001BF029EF1BF069EF1BF08251D8A42FEF74
:103658001BF031EF1BF03BEF1BF0000E746F000EF8
:10366800756F000E766F000E776F8AEF1CF0785139
:103678007427795175237A5176237B51772377A163
:1036880048EF1BF04AEF1BF0F6EF1BF083A14FEF5A
:103698001BF051EF1BF057EF1BF0D8908331010955
:1036A800836F59EF1BF0D890833374A15EEF1BF042
:1036B80060EF1BF061EF1BF0838F7735773376333C
:1036C80075337433822BF6EF1BF07851745D7951A2
:1036D80075597A5176597751800A7C6F7B51800AE7
:1036E8007C59D8B07AEF1BF07CEF1BF0A7EF1BF0EA
:1036F8007451785D7C6F755179597D6F76517A591F
:103708007E6F77517B597F6FFF0E7C25746FFF0E9C
:103718007D21756FFF0E7E21766FFF0E7F21776FFB
:10372800800E801B836D8351D8A49DEF1BF09FEF03
:103738001BF0AFEF1BF0010E7427000E75237623E4
:103748007723AFEF1BF07851745F7951755B7A512D
:10375800765B7B51775B7451751176117711D8A41C
:10376800B8EF1BF0BAEF1BF0EFEF1BF08351D8A4B2
:10377800C0EF1BF0C2EF1BF0EFEF1BF0000E746FF1
:10378800000E756F000E766F000E776F8AEF1CF0D3
:10379800D890743775377637773783AFD6EF1BF005
:1037A800D8EF1BF0D9EF1BF0748183A1DEEF1BF07B
:1037B800E0EF1BF0E4EF1BF0D8808337E6EF1BF057
:1037C800D89083378251D8B4ECEF1BF0EEEF1BF0A2
:1037D800EFEF1BF0820776AFF4EF1BF0F6EF1BF06C
:1037E800CCEF1BF0000E816F83AFFDEF1BF0FFEFF6
:1037F8001BF017EF1CF083C07CF07F0E7C17D8B449
:1038080008EF1CF00AEF1CF00EEF1CF0010E816FA0
:1038180017EF1CF074A113EF1CF015EF1CF017EF55
:103828001CF00AEF1CF08151D8B41DEF1CF01FEFFB
:103838001CF04AEF1CF0010E7427000E7523762346
:10384800772377A12AEF1CF02CEF1CF04AEF1CF02D
:1038580074C07CF075C07DF076C07EF077C07FF0D4
:103868007F357F337E337D337C337CC074F07DC0FD
:1038780075F07EC076F07FC077F08229D8B447EF24
:103888001CF049EF1CF04AEF1CF0822B8229D8B4B7
:1038980050EF1CF052EF1CF05AEF1CF08251D8A4E4
:1038A80058EF1CF05AEF1CF06CEF1CF0000E746F10
:1038B800000E756F000E766F000E776F8251D8A4D8
:1038C80068EF1CF06AEF1CF06CEF1CF0000E806FC4
:1038D80082A171EF1CF073EF1CF076EF1CF0768F6D
:1038E80077EF1CF0769FD8908231776F80AF7FEFAB
:1038F8001CF081EF1CF082EF1CF0778F74C074F01D
:1039080075C075F076C076F077C077F01200045075
:10391800800B0D6E045004240F6E03AE96EF1CF05E
:1039280098EF1CF099EF1CF00F800F50D8B49FEF60
:103938001CF0A1EF1CF0B6EF1CF00F28D8A4A7EFDD
:103948001CF0A9EF1CF0B1EF1CF0000E016E000E88
:10395800026E000E036E000E046E038E000E046EDF
:10396800BEEF1CF0000E016E000E026E000E036E1C
:10397800000E046E0850800B0E6E0D500E18D8B451
:10398800C8EF1CF0CAEF1CF0CBEF1CF00D8C0850F0
:1039980008240E6E07AED3EF1CF0D5EF1CF0D6EF5F
:1039A8001CF00E800E50D8B4DCEF1CF0DEEF1CF0DB
:1039B800F3EF1CF00E28D8A4E4EF1CF0E6EF1CF09F
:1039C800EEEF1CF0000E056E000E066E000E076E80
:1039D800000E086E078E000E086EFBEF1CF0000E3E
:1039E800056E000E066E000E076E000E086E0F5074
:1039F8000E5CD8B002EF1DF004EF1DF02BEF1DF0A8
:103A08000DAC09EF1DF00BEF1DF00DEF1DF0800E52
:103A18000D1A0FC010F00EC00FF010C00EF001C04C
:103A280010F005C001F010C005F002C010F006C08B
:103A380002F010C006F003C010F007C003F010C079
:103A480007F004C010F008C004F010C008F0000E21
:103A5800106E0F500EC009F00A6A095E000E0A5A6D
:103A68000ABE40EF1DF00A5009E11A0E095CD8A001
:103A780040EF1DF042EF1DF079EF1DF001500210EC
:103A880003100410D8A44BEF1DF04EEF1DF0010EEB
:103A98004FEF1DF0000E106E000E016E000E026E4C
:103AA800000E036E000E046E0EC00FF082EF1DF0C4
:103AB80010A061EF1DF063EF1DF069EF1DF0D890C5
:103AC80010300109106E6BEF1DF0D890103201A074
:103AD80070EF1DF072EF1DF073EF1DF0108E0434BF
:103AE80004320332023201320F2A0E500F5CD8A082
:103AF80080EF1DF082EF1DF05CEF1DF00DBC87EF2D
:103B08001DF089EF1DF0C9EF1DF00F50D8A48FEFFD
:103B18001DF091EF1DF09BEF1DF0000E016E000EE1
:103B2800026E000E036E000E046EEAEF1EF00550E2
:103B3800012606500222075003220850042204A03E
:103B4800A8EF1DF0AAEF1DF056EF1EF010A0AFEF82
:103B58001DF0B1EF1DF0B7EF1DF0D890103001093E
:103B6800106EB9EF1DF0D890103201A0BEEF1DF015
:103B7800C0EF1DF0C1EF1DF0108E04340432033283
:103B8800023201320F2A56EF1EF00550015C065032
:103B98000258075003580450800A096E0850800ADA
:103BA8000958D8B0DAEF1DF0DCEF1DF007EF1EF072
:103BB8000150055C096E025006580A6E03500758FA
:103BC8000B6E045008580C6EFF0E0924016EFF0E90
:103BD8000A20026EFF0E0B20036EFF0E0C20046EEF
:103BE800800E0D1A106C1050D8A4FDEF1DF0FFEFD9
:103BF8001DF00FEF1EF0010E0126000E0222032217
:103C080004220FEF1EF00550015E0650025A0750BD
:103C1800035A0850045A0150021003100410D8A483
:103C280018EF1EF01AEF1EF04FEF1EF01050D8A438
:103C380020EF1EF022EF1EF04FEF1EF0000E016E77
:103C4800000E026E000E036E000E046EEAEF1EF008
:103C5800D890013602360336043610AE36EF1EF021
:103C680038EF1EF039EF1EF0018010A03EEF1EF075
:103C780040EF1EF044EF1EF0D880103646EF1EF0DD
:103C8800D89010360F50D8B44CEF1EF04EEF1EF0FF
:103C98004FEF1EF00F0603AE54EF1EF056EF1EF066
:103CA8002CEF1EF0000E0E6E10AE5DEF1EF05FEFF3
:103CB8001EF077EF1EF010C009F07F0E0916D8B479
:103CC80068EF1EF06AEF1EF06EEF1EF0010E0E6E2A
:103CD80077EF1EF001A073EF1EF075EF1EF077EF7F
:103CE8001EF06AEF1EF00E50D8B47DEF1EF07FEF85
:103CF8001EF0AAEF1EF0010E0126000E022203227A
:103D0800042204A08AEF1EF08CEF1EF0AAEF1EF02A
:103D180001C009F002C00AF003C00BF004C00CF0A7
:103D28000C340C320B320A32093209C001F00AC0D5
:103D380002F00BC003F00CC004F00F28D8B4A7EFB2
:103D48001EF0A9EF1EF0AAEF1EF00F2A0F28D8B414
:103D5800B0EF1EF0B2EF1EF0BAEF1EF00F50D8A46D
:103D6800B8EF1EF0BAEF1EF0CCEF1EF0000E016E99
:103D7800000E026E000E036E000E046E0F50D8A4E3
:103D8800C8EF1EF0CAEF1EF0CCEF1EF0000E0D6E4D
:103D98000FA0D1EF1EF0D3EF1EF0D6EF1EF0038E6A
:103DA800D7EF1EF0039ED8900F30046E0DAEDFEFF4
:103DB8001EF0E1EF1EF0E2EF1EF0048E01C001F0EC
:103DC80002C002F003C003F004C004F012000001B6
:103DD800A851800BB16FA851A825B76FA7AFF7EF0F
:103DE8001EF0F9EF1EF0FAEF1EF0B781B751D8B404
:103DF80000EF1FF002EF1FF015EF1FF0B729D8A44E
:103E080008EF1FF00AEF1FF012EF1FF0000EA56F6A
:103E1800000EA66F000EA76F000EA86FA78F1DEFEC
:103E28001FF0000EA56F000EA66F000EA76F000E04
:103E3800A86FAC51800BB11BAC51AC25B66FABAFC2
:103E480028EF1FF02AEF1FF02BEF1FF0B681B651B5
:103E5800D8B431EF1FF033EF1FF046EF1FF0B6294B
:103E6800D8A439EF1FF03BEF1FF043EF1FF0000E0F
:103E7800A96F000EAA6F000EAB6F000EAC6FAB8F70
:103E88004EEF1FF0000EA96F000EAA6F000EAB6F69
:103E9800000EAC6FB651D8B454EF1FF056EF1FF0B8
:103EA8005EEF1FF0B751D8A45CEF1FF05EEF1FF074
:103EB80068EF1FF0000EA56F000EA66F000EA76F2B
:103EC800000EA86F00EF21F0AB51A503F3CFBCF0B3
:103ED800F4CFBDF0BC51B26FB36BB46BB56BBD51D1
:103EE800B86FB96BBA6BBB6BAA51A603F3CFBCF022
:103EF800F4CFBDF0BC51B227000EB323B423B523D1
:103F0800BD51B827000EB923BA23BB23A951A70373
:103F1800F3CFBCF0F4CFBDF0BC51B227000EB323F1
:103F2800B423B523BD51B827000EB923BA23BB2348
:103F3800B4C0B5F0B3C0B4F0B2C0B3F0B26BA9511D
:103F4800A603F3CFBCF0F4CFBDF0BC51B227BD51EE
:103F5800B323000EB423000EB523AA51A503F3CF53
:103F6800BCF0F4CFBDF0BC51B227BD51B323000E55
:103F7800B423000EB523B4C0B5F0B3C0B4F0B2C0DA
:103F8800B3F0B26BA951A503F3CFBCF0F4CFBDF0E9
:103F9800BC51B227BD51B323000EB423000EB52384
:103FA800AB51A603F3CFBCF0F4CFBDF0BC51B8279A
:103FB800BD51B923000EBA23000EBB23AA51A70393
:103FC800F3CFBCF0F4CFBDF0BC51B827BD51B92335
:103FD800000EBA23000EBB23AB51A703F3CFBCF0EE
:103FE800F4CFBDF0BC51AD6FBD51AE6FAF6BB06BD0
:103FF800AFC0B0F0AEC0AFF0ADC0AEF0AD6BAD517C
:10400800B827AE51B923AF51BA23B051BB23B2C0C0
:10401800ADF0B3C0AEF0B4C0AFF0B5C0B0F0190E9B
:104028001BEF20F0D890B033AF33AE33AD33E82E6A
:1040380016EF20F0AD51B827AE51B923AF51BA23CE
:10404800B051BB23B4C0B5F0B3C0B4F0B2C0B3F044
:10405800B26BB651B7C0ADF0AE6BAD27000EAE2354
:10406800820EAD25BC6FFF0EAE21BD6F51EF20F063
:10407800D890B837B937BA37BB37B5AF46EF20F065
:1040880048EF20F049EF20F0B881D890B237B33725
:10409800B437B537BC07D8A0BD07BAAF56EF20F084
:1040A80058EF20F03CEF20F0000EB66FB5AF5FEF91
:1040B80020F061EF20F085EF20F0FF0EB215AD6F14
:1040C800FF0EB315AE6FFF0EB415AF6F7F0EB515AB
:1040D800B06FAD51AE11AF11B011D8B476EF20F07A
:1040E80078EF20F07CEF20F0010EB66F85EF20F01E
:1040F800B8A181EF20F083EF20F085EF20F078EF72
:1041080020F0B651D8B48BEF20F08DEF20F0B1EF4E
:1041180020F0010EB827000EB923BA23BB23BBA198
:1041280098EF20F09AEF20F0B1EF20F0B8C0ADF092
:10413800B9C0AEF0BAC0AFF0BBC0B0F0B035B03364
:10414800AF33AE33AD33ADC0B8F0AEC0B9F0AFC029
:10415800BAF0B0C0BBF0BC4BBD2BBDBFBCEF20F06C
:10416800BD5108E1BC29D8A0BCEF20F0BEEF20F07B
:10417800C8EF20F0000EB86F000EB96F800EBA6F4E
:104188007F0EBB6FF6EF20F0BDBFD5EF20F0BD511D
:1041980006E1BC05D8B0D3EF20F0D5EF20F0E1EF71
:1041A80020F0000EB86F000EB96F000EBA6F000E47
:1041B800BB6F000EB16FF6EF20F0BCC0B7F0FF0E7A
:1041C800B817FF0EB9177F0EBA17000EBB17B7A1A5
:1041D800F0EF20F0F2EF20F0F3EF20F0BA8FD89054
:1041E800B731BB6FB151BB13B8C0A5F0B9C0A6F0C9
:1041F800BAC0A7F0BBC0A8F012001250800B1B6E0B
:1042080012501224216E11AE0CEF21F00EEF21F0A6
:104218000FEF21F021802150D8B415EF21F017EFCE
:1042280021F02AEF21F02128D8A41DEF21F01FEF5B
:1042380021F027EF21F0000E0F6E000E106E000E19
:10424800116E000E126E118E32EF21F0000E0F6EFD
:10425800000E106E000E116E000E126E1650800BBE
:104268001B1A16501624206E15AE3DEF21F03FEFB5
:1042780021F040EF21F020802050D8B446EF21F003
:1042880048EF21F05BEF21F02028D8A44EEF21F071
:1042980050EF21F058EF21F0000E136E000E146E4F
:1042A800000E156E000E166E158E63EF21F0000ECF
:1042B800136E000E146E000E156E000E166E205052
:1042C800D8B469EF21F06BEF21F073EF21F02150A2
:1042D800D8A471EF21F073EF21F07DEF21F0000EEB
:1042E8000F6E000E106E000E116E000E126E15EF9E
:1042F80023F015500F02F3CF26F0F4CF27F0265005
:104308001C6E1D6A1E6A1F6A2750226E236A246A61
:10431800256A14501002F3CF26F0F4CF27F0265068
:104328001C26000E1D221E221F2227502226000EA8
:1043380023222422252213501102F3CF26F0F4CF92
:1043480027F026501C26000E1D221E221F22275051
:104358002226000E2322242225221EC01FF01DC063
:104368001EF01CC01DF01C6A13501002F3CF26F07B
:10437800F4CF27F026501C2627501D22000E1E229F
:10438800000E1F2214500F02F3CF26F0F4CF27F0AF
:1043980026501C2627501D22000E1E22000E1F220A
:1043A8001EC01FF01DC01EF01CC01DF01C6A13505B
:1043B8000F02F3CF26F0F4CF27F026501C26275003
:1043C8001D22000E1E22000E1F2215501002F3CFD0
:1043D80026F0F4CF27F02650222627502322000E5D
:1043E8002422000E252214501102F3CF26F0F4CF18
:1043F80027F02650222627502322000E2422000EC2
:10440800252215501102F3CF26F0F4CF27F02650BD
:10441800176E2750186E196A1A6A19C01AF018C050
:1044280019F017C018F0176A1750222618502322BF
:10443800195024221A5025221CC017F01DC018F04C
:104448001EC019F01FC01AF0190E30EF22F0D890D4
:104458001A32193218321732E82E2BEF22F0175081
:10446800222618502322195024221A5025221EC011
:104478001FF01DC01EF01CC01DF01C6A205021C07A
:1044880017F0186A1726000E1822820E1724266EB7
:10449800FF0E1820276E66EF22F0D89022362336BA
:1044A800243625361FAE5BEF22F05DEF22F05EEF7B
:1044B80022F02280D8901C361D361E361F3626065E
:1044C800D8A0270624AE6BEF22F06DEF22F051EF53
:1044D80022F0000E206E1FAE74EF22F076EF22F06D
:1044E8009AEF22F0FF0E1C14176EFF0E1D14186EA3
:1044F800FF0E1E14196E7F0E1F141A6E1750181017
:1045080019101A10D8B48BEF22F08DEF22F091EF2A
:1045180022F0010E206E9AEF22F022A096EF22F0F0
:1045280098EF22F09AEF22F08DEF22F02050D8B4C5
:10453800A0EF22F0A2EF22F0C6EF22F0010E222611
:10454800000E23222422252225A0ADEF22F0AFEF72
:1045580022F0C6EF22F022C017F023C018F024C0C2
:1045680019F025C01AF01A341A32193218321732D3
:1045780017C022F018C023F019C024F01AC025F083
:10458800264A272A27BED1EF22F0275008E12628FD
:10459800D8A0D1EF22F0D3EF22F0DDEF22F0000E09
:1045A800226E000E236E800E246E7F0E256E0BEF9A
:1045B80023F027BEEAEF22F0275006E12604D8B000
:1045C800E8EF22F0EAEF22F0F6EF22F0000E226E7A
:1045D800000E236E000E246E000E256E000E1B6E5C
:1045E8000BEF23F026C021F0FF0E2216FF0E231634
:1045F8007F0E2416000E251621A005EF23F007EFE5
:1046080023F008EF23F0248ED8902130256E1B501C
:10461800251222C00FF023C010F024C011F025C0CD
:1046280012F0120000018F51800B9C6F8F518F2563
:10463800A36F8EAF22EF23F024EF23F025EF23F0B2
:10464800A381A351D8B42BEF23F02DEF23F042EF31
:1046580023F0A329D8A433EF23F035EF23F03DEF5F
:1046680023F0000E8C6F000E8D6F000E8E6F000E03
:104678008F6F8E8F000E8F6F4AEF23F0000E8C6FB6
:10468800000E8D6F000E8E6F000E8F6F9351800B92
:104698009C1B93519325A46F92AF55EF23F057EFCE
:1046A80023F058EF23F0A481A451D8B45EEF23F08F
:1046B80060EF23F075EF23F0A429D8A466EF23F068
:1046C80068EF23F070EF23F0000E906F000E916FEB
:1046D800000E926F000E936F928F000E936F7DEF16
:1046E80023F0000E906F000E916F000E926F000E77
:1046F800936F9051911192119311D8A486EF23F0E2
:1047080088EF23F0A0EF23F0000E8C6F000E8D6F62
:10471800000E8E6F000E8F6F800E8E137F0E8F131C
:104728009C518F138CC08CF08DC08DF08EC08EF094
:104738008FC08FF0E3EF24F0A351D8A4A6EF23F0A5
:10474800A8EF23F0B2EF23F0000E8C6F000E8D6FF0
:10475800000E8E6F000E8F6FE3EF24F0A451A3C0FC
:1047680094F0956B945F000E955B7F0E94259D6F7A
:10477800000E95219E6F8CC098F08DC099F08EC068
:104788009AF08FC09BF0000E8C6F000E8D6F000E9C
:104798008E6F000E8F6F000E9F6F000EA06F000EC1
:1047A800A16F000EA26F000EA46F13EF24F0A451A6
:1047B800D8B4E1EF23F0E3EF23F0FAEF23F0D89039
:1047C800983799379A379B37D8908C378D378E37EB
:1047D8008F37A2AFF2EF23F0F4EF23F0F5EF23F0D9
:1047E8008C81D8909F37A037A137A2379051985D18
:1047F8009151995992519A5993519B59D8A007EFC1
:1048080024F009EF24F012EF24F0A28D9051985F64
:104818009151995B92519A5B93519B5BA42B190E12
:10482800A46519EF24F01BEF24F0DBEF23F0985177
:1048380099119A119B11D8B424EF24F026EF24F093
:104848003EEF24F09F813EEF24F0D8908C378D37CF
:104858008E378F37A2AF33EF24F035EF24F036EFE1
:1048680024F08C81D8909F37A037A137A2379D07B5
:10487800D8A09E078EAF43EF24F045EF24F029EF30
:1048880024F0000EA46FA2AF4CEF24F04EEF24F0FA
:1048980072EF24F0FF0E9F15946FFF0EA015956F11
:1048A800FF0EA115966F7F0EA215976F9451951163
:1048B80096119711D8B463EF24F065EF24F069EFEF
:1048C80024F0010EA46F72EF24F08CA16EEF24F097
:1048D80070EF24F072EF24F065EF24F0A451D8B4FF
:1048E80078EF24F07AEF24F09EEF24F0010E8C2765
:1048F800000E8D238E238F238FA185EF24F087EF61
:1049080024F09EEF24F08CC094F08DC095F08EC0FA
:1049180096F08FC097F09735973396339533943345
:1049280094C08CF095C08DF096C08EF097C08FF033
:104938009D4B9E2B9EBFA9EF24F09E5108E19D2917
:10494800D8A0A9EF24F0ABEF24F0B6EF24F0000EC6
:104958009E6F9D69000E8C6F000E8D6F000E8E6F1E
:10496800000E8F6F9EBFC3EF24F09E5106E19D0598
:10497800D8B0C1EF24F0C3EF24F0D1EF24F0000E3B
:104988009E6F000E9D6F000E8C6F000E8D6F000ED7
:104998008E6F000E8F6F000E9C6F9DC0A3F0A3A1B9
:1049A800D8EF24F0DAEF24F0DDEF24F08E8FDEEF7D
:1049B80024F08E9FD890A3318F6F94EF23F01200CC
:1049C8002B50800B386E2B502B243F6E2AAEEFEF06
:1049D80024F0F1EF24F0F2EF24F03F803F50D8B4F8
:1049E800F8EF24F0FAEF24F00FEF25F03F28D8A4D1
:1049F80000EF25F002EF25F00AEF25F0000E286EF3
:104A0800000E296E000E2A6E000E2B6E2A8E000EE6
:104A18002B6E17EF25F0000E286E000E296E000E83
:104A28002A6E000E2B6E2F50800B381A2F502F2411
:104A3800406E2EAE22EF25F024EF25F025EF25F06D
:104A480040804050D8B42BEF25F02DEF25F042EFF1
:104A580025F04028D8A433EF25F035EF25F03DEFB9
:104A680025F0000E2C6E000E2D6E000E2E6E000E20
:104A78002F6E2E8E000E2F6E4AEF25F0000E2C6E34
:104A8800000E2D6E000E2E6E000E2F6E2C502D1067
:104A98002E102F10D8A453EF25F055EF25F06DEF09
:104AA80025F0000E286E000E296E000E2A6E000EEC
:104AB8002B6E800E2A127F0E2B1238502B1228C014
:104AC80028F029C029F02AC02AF02BC02BF0B0EF1B
:104AD80026F03F50D8A473EF25F075EF25F07FEF4F
:104AE80025F0000E286E000E296E000E2A6E000EAC
:104AF8002B6EB0EF26F040503FC030F0316A305E88
:104B0800000E315A7F0E3024396E000E31203A6E75
:104B180028C034F029C035F02AC036F02BC037F051
:104B2800000E286E000E296E000E2A6E000E2B6EE7
:104B3800000E3B6E000E3C6E000E3D6E000E3E6E8B
:104B4800000E406EE0EF25F04050D8B4AEEF25F0EF
:104B5800B0EF25F0C7EF25F0D89034363536363625
:104B68003736D890283629362A362B363EAEBFEF50
:104B780025F0C1EF25F0C2EF25F02880D8903B360C
:104B88003C363D363E362C50345C2D5035582E5030
:104B980036582F503758D8A0D4EF25F0D6EF25F047
:104BA800DFEF25F03E8C2C50345E2D50355A2E50B8
:104BB800365A2F50375A402A190E4064E6EF25F02E
:104BC800E8EF25F0A8EF25F03450351036103710EF
:104BD800D8B4F1EF25F0F3EF25F00BEF26F03B808A
:104BE8000BEF26F0D890283629362A362B363EAEDB
:104BF80000EF26F002EF26F003EF26F02880D89089
:104C08003B363C363D363E363906D8A03A062AAE03
:104C180010EF26F012EF26F0F6EF25F0000E406EAA
:104C28003EAE19EF26F01BEF26F03FEF26F0FF0E01
:104C38003B14306EFF0E3C14316EFF0E3D14326E85
:104C48007F0E3E14336E3050311032103310D8B40A
:104C580030EF26F032EF26F036EF26F0010E406EE8
:104C68003FEF26F028A03BEF26F03DEF26F03FEF80
:104C780026F032EF26F04050D8B445EF26F047EF43
:104C880026F06BEF26F0010E2826000E29222A2294
:104C98002B222BA052EF26F054EF26F06BEF26F0D4
:104CA80028C030F029C031F02AC032F02BC033F0D0
:104CB8003334333232323132303230C028F031C0FE
:104CC80029F032C02AF033C02BF0394A3A2A3ABECA
:104CD80076EF26F03A5008E13928D8A076EF26F08A
:104CE80078EF26F083EF26F0000E3A6E3968000E52
:104CF800286E000E296E000E2A6E000E2B6E3ABE2C
:104D080090EF26F03A5006E13904D8B08EEF26F03D
:104D180090EF26F09EEF26F0000E3A6E000E396EE8
:104D2800000E286E000E296E000E2A6E000E2B6EE5
:104D3800000E386E39C03FF03FA0A5EF26F0A7EF70
:104D480026F0AAEF26F02A8EABEF26F02A9ED890FE
:104D58003F302B6E61EF25F012005E04D8A4B7EF48
:104D680026F0B9EF26F0D8EF26F00001FEA1BFEF3C
:104D780026F0C1EF26F0C6EF26F0010E0101FD6F07
:104D8800C9EF26F0000E0101FD6F0001D251A9EC18
:104D98002FF084808492849484988592839E839C47
:104DA80083965E2AEBEF27F0020E5E18D8A4DFEF99
:104DB80026F0E1EF26F0FFEF26F00001FEA3E7EF73
:104DC80026F0E9EF26F0EEEF26F0010E0101FD6F67
:104DD800F1EF26F0000E0101FD6F0001D351A9EC9F
:104DE8002FF084908482849484988592839E839CF7
:104DF8008396D5EF26F0030E5E18D8A406EF27F0A9
:104E080008EF27F026EF27F00001FEA50EEF27F0A8
:104E180010EF27F015EF27F0010E0101FD6F18EFD5
:104E280027F0000E0101FD6F0001D451A9EC2FF00D
:104E380084908492848484988592839E839C8396AC
:104E4800D5EF26F0040E5E18D8A42DEF27F02FEF2B
:104E580027F04DEF27F00001FEA735EF27F037EFD9
:104E680027F03CEF27F0010E0101FD6F3FEF27F01F
:104E7800000E0101FD6F0001D551A9EC2FF08490BF
:104E88008492849484888592839E839C8396D5EFAC
:104E980026F0050E5E18D8A454EF27F056EF27F039
:104EA80074EF27F00001FEA95CEF27F05EEF27F012
:104EB80063EF27F0010E0101FD6F66EF27F0000E8A
:104EC8000101FD6F0001CE51A9EC2FF0849084926E
:104ED800849484988582839E839C8396D5EF26F05C
:104EE800060E5E18D8A47BEF27F07DEF27F09BEF26
:104EF80027F00001FEAB83EF27F085EF27F08AEF5C
:104F080027F0010E0101FD6F8DEF27F0000E010162
:104F1800FD6F0001CF51A9EC2FF084908492849406
:104F280084988592838E839C8396D5EF26F0070E0E
:104F38005E18D8A4A2EF27F0A4EF27F0C2EF27F05D
:104F48000001FEADAAEF27F0ACEF27F0B1EF27F094
:104F5800010E0101FD6FB4EF27F0000E0101FD6F96
:104F68000001D051A9EC2FF0849084928494849805
:104F78008592839E838C8396D5EF26F0080E5E1863
:104F8800D8A4C9EF27F0CBEF27F0EBEF27F000010B
:104F9800FEAFD1EF27F0D3EF27F0D8EF27F0010EBF
:104FA8000101FD6FDBEF27F0000E0101FD6F00012D
:104FB800D151A9EC2FF0849084928494849885929E
:104FC800839E839C8386010E5E6EEBEF27F01200B2
:104FD800858C000E0001616F000E606F000E636F1C
:104FE800000E626F624B632B635109E1320E625D02
:104FF800D8A001EF28F003EF28F0F6EF27F0604B78
:10500800612B615109E11E0E605DD8A00EEF28F0FA
:1050180010EF28F0F2EF27F08FAE15EF28F017EF1A
:1050280028F0CAEF28F0859C000E616F000E606FB3
:10503800000E636F000E626F624B632B635109E1D0
:10504800320E625DD8A02BEF28F02DEF28F020EF6C
:1050580028F0604B612B615109E11E0E605DD8A0FC
:1050680038EF28F03AEF28F01CEF28F08FBE3FEF1A
:1050780028F041EF28F0CAEF28F0858C000E616F08
:10508800000E606F000E636F000E626F624B632B41
:10509800635109E1320E625DD8A055EF28F057EF51
:1050A80028F04AEF28F0604B612B615109E11E0E90
:1050B800605DD8A062EF28F064EF28F046EF28F092
:1050C8008FAE69EF28F06BEF28F0A9EF28F0010107
:1050D8004A05D8A472EF28F074EF28F085EF28F07D
:1050E800010E0001F66F010E0101466F000E00016E
:1050F800F56F000E0101486F000E0301816F000E6D
:10510800806F5B50D8A48BEF28F08DEF28F0E7EF85
:1051180028F001014751D8A494EF28F096EF28F021
:10512800E7EF28F0010E0001F56F010E0101486F4D
:10513800000E0001F66F000E0101466F000E03011C
:10514800816F000E806FE7EF28F0000EF76F000EFA
:10515800F66F000E0101466F000E0001F56F000E9C
:105168000101486F000E0001F46F000E0301816F0A
:10517800000E806F000E0101116F000E106F000EFF
:105188000301B16F000EB06FE7EF28F0000EF76F64
:10519800000EF66F000E0101466F000E0001F56F5C
:1051A800000EF46F000E0301816F000E806F000E79
:1051B8000101116F000E106F000E0301B16F000E98
:1051C800B06FE7EF28F0120000016E6F00016E511A
:1051D800D8B4F1EF28F0F3EF28F015EF29F069BF04
:1051E800FAEF28F0F8EF28F015EF29F066C06AF01A
:1051F80067C06BF068C06CF069C06DF06A1F6B1F08
:105208006C1F6D1F6A2B000E6B236C236D236AC005
:1052180070F06BC071F06CC072F06DC073F01DEF70
:1052280029F066C070F067C071F068C072F069C09C
:1052380073F06651671168116911D8A426EF29F037
:1052480028EF29F032EF29F0000E666F000E676F25
:10525800000E686F000E696FC3EF29F0960E6F6F2E
:105268003CEF29F06F2BD89073337233713370335E
:10527800000E70156A6F000E71156B6F000E7215B7
:105288006C6FFE0E73156D6F6A516B116C116D1199
:10529800D8A451EF29F053EF29F036EF29F061EF48
:1052A80029F06F2B010E7027000E712372237323D0
:1052B800D8907333723371337033000E70156A6F80
:1052C800000E71156B6F000E72156C6FFF0E731563
:1052D8006D6F6A516B116C116D11D8A476EF29F0BE
:1052E80078EF29F055EF29F080EF29F06F07D89073
:1052F800703771377237733772BF85EF29F087EFD0
:1053080029F08FEF29F0020E6F618DEF29F08FEFF2
:1053180029F07AEF29F06FB194EF29F096EF29F090
:1053280097EF29F0729FD8906F336FC06AF06B6B5C
:105338006C6B6D6B6AC06DF06C6B6B6B6A6B6A51F2
:1053480070136B5171136C5172136D5173136E514D
:10535800D8B4B1EF29F0B3EF29F0BBEF29F069BF5A
:10536800BAEF29F0B8EF29F0BBEF29F0738F70C0BE
:1053780066F071C067F072C068F073C069F012001F
:10538800096E0950D8B4CBEF29F0CDEF29F0EFEF33
:1053980029F004BED4EF29F0D2EF29F0EFEF29F07D
:1053A80001C005F002C006F003C007F004C008F011
:1053B800051E061E071E081E052A000E06220722C5
:1053C800082205C00BF006C00CF007C00DF008C09D
:1053D8000EF0F7EF29F001C00BF002C00CF003C08B
:1053E8000DF004C00EF00150021003100410D8A4F0
:1053F80000EF2AF002EF2AF00CEF2AF0000E016EFF
:10540800000E026E000E036E000E046E9DEF2AF071
:10541800960E0A6E16EF2AF00A2AD8900E320D322E
:105428000C320B32000E0B14056E000E0C14066EB7
:10543800000E0D14076EFE0E0E14086E05500610B1
:1054480007100810D8A42BEF2AF02DEF2AF010EF40
:105458002AF03BEF2AF00A2A010E0B26000E0C2236
:105468000D220E22D8900E320D320C320B32000E65
:105478000B14056E000E0C14066E000E0D14076E4C
:10548800FF0E0E14086E0550061007100810D8A459
:1054980050EF2AF052EF2AF02FEF2AF05AEF2AF0B5
:1054A8000A06D8900B360C360D360E360DBE5FEF59
:1054B8002AF061EF2AF069EF2AF0020E0A6067EF1E
:1054C8002AF069EF2AF054EF2AF00AB06EEF2AF0BA
:1054D80070EF2AF071EF2AF00D9ED8900A320AC0B8
:1054E80005F0066A076A086A05C008F0076A066ACE
:1054F800056A05500B1206500C1207500D12085081
:105508000E120950D8B48BEF2AF08DEF2AF095EFE0
:105518002AF004BE94EF2AF092EF2AF095EF2AF0D1
:105528000E8E0BC001F00CC002F00DC003F00EC0CF
:1055380004F012005D04D8A4A4EF2AF0A6EF2AF024
:10554800E2EF2AF0000E0001786F800E796FB60E38
:105558007A6F430E7B6F04C1A9F005C1AAF006C19A
:10556800ABF007C1ACF0C8C066F0C9C067F0686BA3
:10557800696B000EE8EC28F066C0A5F067C0A6F0DD
:1055880068C0A7F069C0A8F0EBEC1EF0A5C074F0E5
:10559800A6C075F0A7C076F0A8C077F02AEC1AF07C
:1055A80074C0BEF075C0BFF076C0C0F077C0C1F05F
:1055B800AAEC2DF0BEC042F1BFC043F1020E5D1847
:1055C800D8A4E9EF2AF0EBEF2AF027EF2BF0330EFF
:1055D8000001786F130E796FAD0E7A6F430E7B6FF3
:1055E80004C1A9F005C1AAF006C1ABF007C1ACF02F
:1055F800C8C066F0C9C067F0686B696B000EE8EC5C
:1056080028F066C0A5F067C0A6F068C0A7F069C01A
:10561800A8F0EBEC1EF0A5C074F0A6C075F0A7C00A
:1056280076F0A8C077F02AEC1AF074C0BEF075C006
:10563800BFF076C0C0F077C0C1F0AAEC2DF0BEC0B4
:1056480042F1BFC043F1030E5D18D8A42EEF2BF032
:1056580030EF2BF06CEF2BF0000E0001786F800E0E
:10566800796FB60E7A6F430E7B6F04C1A9F005C13E
:10567800AAF006C1ABF007C1ACF0C8C066F0C9C05B
:1056880067F0686B696B000EE8EC28F066C0A5F05F
:1056980067C0A6F068C0A7F069C0A8F0EBEC1EF0E0
:1056A800A5C074F0A6C075F0A7C076F0A8C077F0C2
:1056B8002AEC1AF074C0BEF075C0BFF076C0C0F016
:1056C80077C0C1F0AAEC2DF0BEC042F1BFC043F1D3
:1056D80042C1C8F043C1C9F0120028C101F029C174
:1056E80002F0570E015C090E0258D8A07EEF2BF08D
:1056F80080EF2BF0AFEF2BF0E40E015C0C0E02589C
:10570800D8B089EF2BF08BEF2BF0AFEF2BF0010126
:10571800224B232B000E1F6F000E1E6F000E1D6FF5
:10572800000E1C6F235109E1030E225DD8A09FEFE4
:105738002BF0A1EF2BF03AEF2CF0010EC76F000E03
:10574800C56F000EC26F010E906F000E236F020E20
:10575800226F3AEF2CF0750E015C0E0E0258D8A09D
:10576800B8EF2BF0BAEF2BF0E9EF2BF0A00E015CAD
:105778000F0E0258D8B0C3EF2BF0C5EF2BF0E9EFAE
:105788002BF0000E0101236F000E226F1E4B1F2B02
:10579800000E1D6F000E1C6F1F5109E1030E1E5DE8
:1057A800D8A0D9EF2BF0DBEF2BF03AEF2CF0000E5E
:1057B800C76F010EC56F000EC26F010E906F000E0D
:1057C8001F6F020E1E6F3AEF2CF0025007E1C80E51
:1057D800015CD8B0F2EF2BF0F4EF2BF027EF2CF0B0
:1057E8000101455109E1320E445DD8A0FEEF2BF0CE
:1057F80000EF2CF03AEF2CF0000E456F000E446FCE
:105808001C4B1D2B000E1F6F000E1E6F000E236F0A
:10581800000E226F1D5109E1030E1C5DD8A017EF81
:105828002CF019EF2CF03AEF2CF0000EC76F000E99
:10583800C56F000EC26F010E906F000E1D6F020E35
:105848001C6F3AEF2CF0000E0101C76F000EC56FF8
:10585800000EC26F000E236F000E226F000E1F6F26
:10586800000E1E6F000E1D6F000E1C6F1200858C3F
:10587800000E0001616F000E606F000E636F000E76
:10588800626F624B632BF40E625D010E6359D8A000
:1058980050EF2CF052EF2CF045EF2CF0604B612BC1
:1058A8002C0E605D010E6159D8A05DEF2CF05FEF02
:1058B8002CF041EF2CF08FAE64EF2CF066EF2CF05B
:1058C800E1EF2CF0859C000E616F000E606F000EFA
:1058D800636F000E626F624B632BE80E625D030E0E
:1058E8006359D8A07AEF2CF07CEF2CF06FEF2CF0F6
:1058F800604B612BE80E605D030E6159D8A087EFFD
:105908002CF089EF2CF06BEF2CF08FBE8EEF2CF083
:1059180090EF2CF0E1EF2CF0858C000E616F000EFB
:10592800606F000E636F000E626F624B632BF40EA4
:10593800625D010E6359D8A0A4EF2CF0A6EF2CF0FD
:1059480099EF2CF0604B612B2C0E605D010E6159B4
:10595800D8A0B1EF2CF0B3EF2CF095EF2CF08FAE70
:10596800B8EF2CF0BAEF2CF0E1EF2CF08EA6BFEFD9
:105978002CF0C1EF2CF0D2EF2CF0000E0101116FCA
:10598800010E106F000E136F000E126F000E000153
:10599800F66F000E01014A6FE1EF2CF0000E0101D5
:1059A800116F000E106F000E136F010E126F010EB3
:1059B8000001F66F010E01014A6F8FBEE6EF2CF071
:1059C800E8EF2CF0F2EF2CF0000E0101136F000E3F
:1059D800126F000E116F000E106F8F9E12008FB0A5
:1059E800F8EF2CF0FAEF2CF063EF2DF001012C4BBF
:1059F8002D2B2C512D11D8B404EF2DF006EF2DF0DE
:105A0800A9EF2DF08FB00BEF2DF00DEF2DF05CEF1F
:105A18002DF04D0E5C6E8551D8A415EF2DF017EFC3
:105A28002DF05CEF2DF0010E856F010EB26F000EA8
:105A38000001696F300E686F73EC33F068C016F1BF
:105A480069C017F116C11AF117C11BF1020E5D18D2
:105A5800D8A431EF2DF033EF2DF043EF2DF05A504D
:105A680007E1C90E595CD8B03CEF2DF03EEF2DF0A0
:105A780043EF2DF0000E0001ED6F010EEC6F030EE9
:105A88005D18D8A44AEF2DF04CEF2DF05CEF2DF007
:105A9800C30E595C010E5A58D8B055EF2DF057EF88
:105AA8002DF05CEF2DF0000E0001ED6F010EEC6F94
:105AB800000E01012D6F000E2C6FA9EF2DF08FA0A5
:105AC80068EF2DF06AEF2DF0A9EF2DF001012C4BB6
:105AD8002D2B2C512D11D8B474EF2DF076EF2DF01D
