:0400000011EF0DF0FF
:100008005F82D9CF51F0DACF52F0F3CF53F0F4CF6B
:1000180054F0F6CF55F0F7CF56F0F8CF57F0F5CFAC
:1000280058F00E01CAAB1BEF00F01DEF00F0EDEF2A
:1000380001F0CA99CA9BD10ED46E200ED36E01016D
:10004800384B392BF9EC1CF060800201374B382B08
:10005800274B282B254B262B0001EF05D8A437EF7B
:1000680000F039EF00F050EF00F00101104B112BB8
:10007800D10E105D070E1159D8A045EF00F047EFDB
:1000880000F064EF00F0000E116F000E106F010E0B
:100098000001F06F64EF00F00101104B112BD10E3D
:1000A800105D070E1159D8A05CEF00F05EEF00F06C
:1000B80064EF00F0000E116F000E106F010E3F6F1D
:1000C80001014605D8A46BEF00F06DEF00F083EF57
:1000D80000F0020111511211D8A475EF00F077EF6A
:1000E80000F080EF00F0000E126F000E116F000E8E
:1000F8000101466F83EF00F01107D8A01207020133
:10010800385109E10A0E375DD8A08DEF00F08FEF66
:1001180000F05CEF01F0000E386F000E376F010140
:100128001E511F11D8B49BEF00F09DEF00F00FEFA8
:1001380001F08B0E0001DE5D020EDF59D8A0A7EF9B
:1001480000F0A9EF00F002EF01F0FB51D8A4AFEFE7
:1001580000F0B1EF00F002EF01F001017E51D8A4E8
:10016800B8EF00F0BAEF00F002EF01F04D0E5D18A5
:10017800D8A4C1EF00F0C3EF00F0C6EF00F0020111
:10018800414B422B1EC101F01FC102F0000E046E4C
:10019800640E036E02EC2DF001500201415D025025
:1001A8004259D8A0DAEF00F0DCEF00F022EF01F0BE
:1001B8000001F651D8A4E3EF00F0E5EF00F022EFDC
:1001C80001F04D0E5D18D8A4ECEF00F0EEEF00F052
:1001D80022EF01F085848794000E0201426F000E21
:1001E800416F010E0001F66F010E01017F6F000ED5
:1001F80002013A6F000E396F22EF01F00001F6514B
:10020800D8A409EF01F00BEF01F022EF01F085947B
:10021800878422EF01F01E511F11D8A416EF01F0B8
:1002280018EF01F022EF01F085948784000E000199
:10023800F66F000E0201426F000E416F0001F605D5
:10024800D8A429EF01F02BEF01F05CEF01F03BC2DD
:1002580001F03CC202F0000E046E5A0E036E02EC6E
:100268002DF001C007F002C008F0000E0A6E640EFF
:10027800096E4CEC2AF007500001DE5D0850DF598A
:10028800D8B049EF01F04BEF01F05CEF01F001014C
:100298007F51D8A452EF01F054EF01F05CEF01F068
:1002A800000E0201426F000E416F000E0001F66F52
:1002B8000101395109E10A0E385DD8A066EF01F055
:1002C80068EF01F07EEF01F0010EAC6F02015551AD
:1002D8005611D8A472EF01F074EF01F076EF01F037
:1002E80079EF01F05507D8A05607000E0101396FC4
:1002F800000E386F0001DC51DD11D8B486EF01F033
:1003080088EF01F08DEF01F0DC07D8A0DD0791EF51
:1003180001F0000EDD6F000EDC6FFB05D8A497EF2F
:1003280001F099EF01F0EDEF01F00201C34BC42B8E
:10033800E80EC35D030EC459D8A0A5EF01F0A7EFDE
:1003480001F0EDEF01F0000EC46F000EC36F000165
:10035800EA4BEB2BEB5109E13C0EEA5DD8A0B7EF75
:1003680001F0B9EF01F0BFEF01F0000EEB6F000EE6
:10037800EA6FEC4BED2BED5109E13C0EEC5DD8A09A
:10038800C8EF01F0CAEF01F0D4EF01F0000EED6FF5
:10039800000EEC6F000EEB6F000EEA6FE84BE92BD6
:1003A800E95109E1630EE85DD8A0DDEF01F0DFEF68
:1003B80001F0EDEF01F0000EED6F000EEC6F000E96
:1003C800EB6F000EEA6F000EE96F000EE86FEDEFBD
:1003D80001F00E01C3A1F3EF01F0F5EF01F081EF99
:1003E8000BF0CBA1FAEF01F0FCEF01F081EF0BF07D
:1003F80064CFE2F00001E36BE251E36FE26B63501C
:10040800E225E26F000EE321E36FFE51D8A40FEF5F
:1004180002F011EF02F013EF03F0E2C0B1F2E3C013
:10042800B2F20201B15103017A270201B25103016C
:100438007B23000E7C23000E7D230201774B782B53
:10044800785109E1100E775DD8A02DEF02F02FEF5B
:1004580002F07DEF02F07AC359F07BC35AF059C01D
:100468004BF05AC04CF0040E4D6ED8904C324B32C3
:100478004D2E39EF02F04BC059F04CC05AF08F0E98
:10048800136E530E146EC40E156E3F0E166E59C0C1
:1004980001F05AC002F0036A046A000E08EC20F06A
:1004A80001C00FF002C010F003C011F004C012F038
:1004B80049EC17F00FC041F010C042F011C043F0F2
:1004C80012C044F04DEC26F041C059F042C05AF039
:1004D800010E0101E46F000E03017A6F000E7B6FBD
:1004E800000E7C6F000E7D6F000E0201786F000E0B
:1004F800776FE2C0A9F2E3C0AAF2A95103016A2703
:100508000201AA5103016B23000E6C23000E6D2318
:100518000201754B762B765109E1400E755DD8A026
:1005280098EF02F09AEF02F00BEF03F06AC3DEF0E7
:100538006BC3DFF0DEC04BF0DFC04CF0060E4D6E33
:10054800D8904C324B324D2EA4EF02F04BC0DEF067
:100558004CC0DFF08F0E136E530E146EC40E156E62
:100568003F0E166EDEC001F0DFC002F0036A046AB7
:10057800000E08EC20F001C00FF002C010F003C01C
:1005880011F004C012F049EC17F00FC041F010C090
:1005980042F011C043F012C044F04DEC26F041C0C7
:1005A800DEF042C0DFF001017F05D8A4DEEF02F0E3
:1005B800E0EF02F0FAEF02F00201394B3A2B3A5120
:1005C80009E1030E395DD8A0ECEF02F0EEEF02F07E
:1005D800FAEF02F0DEC03BF2DFC03CF2000E010190
:1005E8007F6F000E02013A6F000E396F010E000195
:1005F800F86F000E03016A6F000E6B6F000E6C6FD0
:10060800000E6D6F000E0201766F000E756F010E01
:100618000001FE6F010E0F015F6F7FEF0BF0FE050B
:10062800D8A419EF03F01BEF03F060EF04F0E2C069
:10063800AFF2E3C0B0F20201AF5103017627020125
:10064800B05103017723000E7823000E79230101AE
:10065800BF2B3F0EBF6533EF03F035EF03F058EFC4
:1006680004F076C3E0F077C3E1F0E0C04BF0E1C0FE
:100678004CF0060E4D6ED8904C324B324D2E3FEF5B
:1006880003F04BC0E0F04CC0E1F00001E15107E19C
:10069800510EE05DD8B053EF03F055EF03F092EF41
:1006A80003F0000E2C6E000E2D6E200E2E6E410EE5
:1006B8002F6E9A0E136E990E146EA90E156E400EBB
:1006C800166EE0C001F0E1C002F0036A046A000E91
:1006D80008EC20F001C00FF002C010F003C011F0C8
:1006E80004C012F049EC17F00FC028F010C029F030
:1006F80011C02AF012C02BF02CEC1BF028C041F0DE
:1007080029C042F02AC043F02BC044F04DEC26F03B
:1007180041C0E0F042C0E1F020EF04F0E15109E10E
:10072800510EE05DD8A09BEF03F09DEF03F0E5EFDD
:1007380003F0E15107E1F60EE05DD8B0A6EF03F053
:10074800A8EF03F0E5EF03F0000E2C6E000E2D6EFF
:10075800200E2E6E410E2F6E660E136E660E146EF0
:10076800A60E156E400E166EE0C001F0E1C002F054
:10077800036A046A000E08EC20F001C00FF002C002
:1007880010F003C011F004C012F049EC17F00FC0CC
:1007980028F010C029F011C02AF012C02BF02CEC60
:1007A8001BF028C041F029C042F02AC043F02BC0FA
:1007B80044F04DEC26F041C0E0F042C0E1F020EFFB
:1007C80004F0000E2C6E000E2D6E200E2E6E410EC3
:1007D8002F6E000E136E000E146EA00E156E400ED6
:1007E800166EE0C001F0E1C002F0036A046A000E70
:1007F80008EC20F001C00FF002C010F003C011F0A7
:1008080004C012F049EC17F00FC028F010C029F00E
:1008180011C02AF012C02BF02CEC1BF028C041F0BC
:1008280029C042F02AC043F02BC044F04DEC26F01A
:1008380041C0E0F042C0E1F0330E136E330E146E87
:10084800130E156E400E166EE0C001F0E1C002F006
:10085800036A046A000E08EC20F001C00FF002C021
:1008680010F003C011F004C012F049EC17F00FC0EB
:1008780041F010C042F011C043F012C044F04DECFA
:1008880026F041C0E0F042C0E1F0010E0101B86F6E
:10089800000E0301766F000E776F000E786F000E62
:1008A800796F000E0101BF6F0D0E0001FE6F0D0E76
:1008B8000F015F6F7FEF0BF00D0EFE19D8A467EFE5
:1008C80004F069EF04F08CEF06F0E2C0BBF2E3C07D
:1008D800BCF20201BB510827BC510923000E0A23B0
:1008E800000E0B23734B742B745109E1200E735DBA
:1008F800D8A081EF04F083EF04F084EF06F008C27B
:100908004BF009C24CF00AC24DF00BC24EF0060E75
:1009180093EF04F0D8904E324D324C324B32E82EE1
:100928008EEF04F04BC008F24CC009F24DC00AF239
:100938004EC00BF208C2DAF009C2DBF0F60E136EF5
:10094800280E146E9C0E156E400E166EDAC001F05D
:10095800DBC002F0036A046A000E08EC20F001C054
:100968000FF002C010F003C011F004C012F049ECFF
:1009780017F00FC041F010C042F011C043F012C090
:1009880044F04DEC26F041C0DAF042C0DBF0DAC0AA
:1009980015F2DBC016F2DAC001F0DBC002F0036A20
:1009A800046A000E08EC20F001C00CF102C00DF141
:1009B80003C00EF104C00FF1000E136E400E146E4A
:1009C8001C0E156E460E166E0CC10FF00DC110F000
:1009D8000EC111F00FC112F049EC17F00FC028F04A
:1009E80010C029F011C02AF012C02BF00CC115F06C
:1009F8000DC116F00EC117F00FC118F0000E116EE0
:100A0800400E126E9C0E136E450E146E9EEC2BF06B
:100A180011C02CF012C02DF013C02EF014C02FF00E
:100A28002CEC1BF028C05AF329C05BF32AC05CF3F6
:100A38002BC05DF3000E136E400E146E9C0E156EE7
:100A4800450E166E5AC30FF05BC310F05CC311F06D
:100A58005DC312F049EC17F00FC028F010C029F060
:100A680011C02AF012C02BF0000E2C6E200E2D6E35
:100A7800990E2E6E460E2F6E2CEC1BF028C00CF132
:100A880029C00DF12AC00EF12BC00FF10CC141F0A5
:100A98000DC142F00EC143F00FC144F04DEC26F0F9
:100AA80041C0DAF042C0DBF05E04D8A45EEF05F086
:100AB80060EF05F06BEF05F0000E0301666F000EA6
:100AC800676F180E686F410E696F91EF05F0020E9F
:100AD8005E18D8A472EF05F074EF05F07FEF05F00B
:100AE800660E0301666F660E676FC60E686F400E6E
:100AF800696F91EF05F0030E5E18D8A486EF05F034
:100B080088EF05F091EF05F0000E0301666F000E07
:100B1800676F800E686F400E696F0F0E02012E6FAF
:100B28003C0E2D6F15512D5D16512E59D8A09FEFF3
:100B380005F0A1EF05F064EF06F0010E0101626F08
:100B480066C32CF067C32DF068C32EF069C32FF07D
:100B5800DAC001F0DBC002F0036A046A000E08EC98
:100B680020F001C028F002C029F003C02AF004C018
:100B78002BF02CEC1BF028C041F029C042F02AC011
:100B880043F02BC044F04DEC26F041C0DAF042C0EF
:100B9800DBF05E04D8A4D3EF05F0D5EF05F0FAEF4B
:100BA80005F00001DB5107E10B0EDA5DD8B0DFEF8D
:100BB80005F0E1EF05F0E5EF05F0000EDB6F0A0E3A
:100BC800DA6FDB5109E1FA0EDA5DD8A0EEEF05F035
:100BD800F0EF05F0F4EF05F0000EDB6FFA0EDA6FB8
:100BE800DAC05BF0DBC05CF04EEF06F0020E5E1878
:100BF800D8A401EF06F003EF06F024EF06F0000199
:100C0800DB5107E10B0EDA5DD8B00DEF06F00FEF00
:100C180006F013EF06F0000EDB6F0A0EDA6F900E87
:100C2800DA5D010EDB59D8A01CEF06F01EEF06F0C6
:100C3800F4EF05F0010EDB6F900EDA6FF4EF05F0BC
:100C4800030E5E18D8A42BEF06F02DEF06F04EEF3A
:100C580006F00001DB5107E1150EDA5DD8B037EF79
:100C680006F039EF06F03DEF06F0000EDB6F140ECC
:100C7800DA6F580EDA5D020EDB59D8A046EF06F09F
:100C880048EF06F0F4EF05F0020EDB6F580EDA6F4E
:100C9800F4EF05F05B500201531909E15C50541957
:100CA800D8B459EF06F05BEF06F077EF06F05BC0BB
:100CB80053F25CC054F2010E0101AE6F77EF06F0FB
:100CC80001016205D8A46BEF06F06DEF06F074EF32
:100CD80006F0000E1B6F000E1A6F010E0001FA6F6E
:100CE800000E0101626F000E0201086F000E096F0D
:100CF800000E0A6F000E0B6F000E746F000E736FFC
:100D0800020E0001FE6F020E0F015F6F7FEF0BF006
:100D1800020EFE19D8A493EF06F095EF06F00CEF3B
:100D280007F0E2C0ADF2E3C0AEF201013C4B3D2B4F
:100D38000201AD51030172270201AE510301732371
:100D4800000E7423000E75230101BE2B3F0EBE65F5
:100D5800B0EF06F0B2EF06F0FEEF06F072C32CF12A
:100D680073C32DF12CC14BF02DC14CF0060E4D6E06
:100D7800D8904C324B324D2EBCEF06F04BC02CF1C4
:100D88004CC02DF1F60E136E280E146E9C0E156EC7
:100D9800400E166E2CC101F02DC102F0036A046AE0
:100DA800000E08EC20F001C00FF002C010F003C0E4
:100DB80011F004C012F049EC17F00FC041F010C058
:100DC80042F011C043F012C044F04DEC26F041C08F
:100DD8002CF142C02DF1010E0101B56F000E030187
:100DE800726F000E736F000E746F000E756F000E39
:100DF8000101BE6F7DC201F07EC202F0B5EC21F0A8
:100E0800150E0001FE6F150E0F015F6F7FEF0BF0DF
:100E1800150EFE19D8A413EF07F015EF07F086EFAB
:100E280007F0E2C0ABF2E3C0ACF20201AB51030140
:100E38006E270201AC5103016F23000E7023000ED0
:100E480071230101BD2B3F0EBD652DEF07F02FEF7C
:100E580007F078EF07F06EC32AF16FC32BF12AC1B0
:100E68004BF02BC14CF0060E4D6ED8904C324B32E5
:100E78004D2E39EF07F04BC02AF14CC02BF1F60E7E
:100E8800136E280E146E9C0E156E400E166E2AC137
:100E980001F02BC102F0036A046A000E08EC20F08E
:100EA80001C00FF002C010F003C011F004C012F02E
:100EB80049EC17F00FC041F010C042F011C043F0E8
:100EC80012C044F04DEC26F041C02AF142C02BF18B
:100ED800000E03016E6F000E6F6F000E706F000E34
:100EE800716F000E0101BD6F79C201F07AC202F084
:100EF800D5EC29F0040E0001FE6F040E0F015F6FA0
:100F08007FEF0BF0040EFE19D8A48DEF07F08FEFDA
:100F180007F021EF09F0E2C021F2E3C022F202015A
:100F28002151042722510523000E0623000E072312
:100F380001016251D8A4A3EF07F0A5EF07F0A8EFCD
:100F480007F002011F4B202B0201205109E1100E6E
:100F58001F5DD8A0B2EF07F0B4EF07F019EF09F062
:100F680004C24BF005C24CF006C24DF007C24EF069
:100F7800050EC4EF07F0D8904E324D324C324B324A
:100F8800E82EBFEF07F04BC004F24CC005F24DC08D
:100F980006F24EC007F204C2D8F005C2D9F0F60E28
:100FA800136E280E146E9C0E156E400E166ED8C069
:100FB80001F0D9C002F0036A046A000E08EC20F0C0
:100FC80001C00FF002C010F003C011F004C012F00D
:100FD80049EC17F00FC041F010C042F011C043F0C7
:100FE80012C044F04DEC26F041C0D8F042C0D9F010
:100FF800D8C0C8F3D9C0C9F35E04D8A406EF08F076
:1010080008EF08F03AEF08F0D8C007F0D9C008F0A8
:10101800000E0A6E130E096E4CEC2AF007C0D8F0C9
:1010280008C0D9F0D8C05BF0D9C05CF05C5007E1CB
:101038000B0E5B5CD8B023EF08F025EF08F029EF22
:1010480008F0000E5C6E0A0E5B6E5C5009E1FA0E49
:101058005B5CD8A032EF08F034EF08F0EDEF08F051
:10106800000E5C6EFA0E5B6EEDEF08F0020E5E1875
:10107800D8A441EF08F043EF08F099EF08F0000119
:10108800EE51D8A44AEF08F04CEF08F099EF08F0B9
:10109800330E2C6E330E2D6E430E2E6E410E2F6EB8
:1010A800D8C001F0D9C002F0036A046A000E08EC47
:1010B80020F001C028F002C029F003C02AF004C0C3
:1010C8002BF02CEC1BF028C041F029C042F02AC0BC
:1010D80043F02BC044F04DEC26F041C0D8F042C09C
:1010E800D9F0D8C05BF0D9C05CF05C5007E10B0EBA
:1010F8005B5CD8B082EF08F084EF08F088EF08F066
:10110800000E5C6E0A0E5B6E900E5B5C010E5C5806
:10111800D8A091EF08F093EF08F0EDEF08F0010E7A
:101128005C6E900E5B6EEDEF08F0030E5E18D8A4AF
:10113800A0EF08F0A2EF08F0EDEF08F0000E2C6E1B
:10114800000E2D6E000E2E6E410E2F6ED8C001F0CF
:10115800D9C002F0036A046A000E08EC20F001C04E
:1011680028F002C029F003C02AF004C02BF02CECB0
:101178001BF028C041F029C042F02AC043F02BC020
:1011880044F04DEC26F041C0D8F042C0D9F0D8C0A8
:101198005BF0D9C05CF05C5007E1150E5B5CD8B021
:1011A800D8EF08F0DAEF08F0DEEF08F0000E5C6E1A
:1011B800140E5B6E580E5B5C020E5C58D8A0E7EF0D
:1011C80008F0E9EF08F0EDEF08F0020E5C6E580E3B
:1011D8005B6E5B5001011A1909E15C501B19D8B408
:1011E800F8EF08F0FAEF08F00CEF09F00001EE5103
:1011F800D8A401EF09F003EF09F00CEF09F05BC088
:101208001AF15CC01BF1010E0101B16F010E486FAC
:10121800000E0201206F000E1F6F000E046F000EFB
:10122800056F000E066F000E076F200E0001FE6F9F
:10123800200E0F015F6F7FEF0BF0200EFE19D8A470
:1012480028EF09F02AEF09F0A1EF0AF0E2C01DF239
:10125800E3C01EF202011D510101082702011E51BF
:1012680001010923000E0A23000E0B2302011B4B68
:101278001C2B1C5109E1200E1B5DD8A046EF09F07C
:1012880048EF09F099EF0AF008C14BF009C14CF09A
:101298000AC14DF00BC14EF0060E58EF09F0D89078
:1012A8004E324D324C324B32E82E53EF09F04BC0E0
:1012B80008F14CC009F14DC00AF14EC00BF108C14C
:1012C800D6F009C1D7F0F60E136E280E146E9C0ED8
:1012D800156E400E166ED6C001F0D7C002F0036A34
:1012E800046A000E08EC20F001C00FF002C010F0F4
:1012F80003C011F004C012F049EC17F00FC041F020
:1013080010C042F011C043F012C044F04DEC26F07A
:1013180041C0D6F042C0D7F0D6C007F0D7C008F019
:10132800000E0A6E310E096E4CEC2AF007C0D6F09A
:1013380008C0D7F00001F405D8A4A5EF09F0A7EF7D
:1013480009F041EF0AF0F351D8A4ADEF09F0AFEF7F
:1013580009F041EF0AF008C101F009C102F00AC121
:1013680003F00BC104F0000E08EC20F001C000F1FE
:1013780002C001F103C002F104C003F100C128F06A
:1013880001C129F002C12AF003C12BF0EC0E2C6E2A
:10139800510E2D6E380E2E6E400E2F6E2CEC1BF05B
:1013A80028C000F129C001F12AC002F12BC003F1C5
:1013B80000C128F001C129F002C12AF003C12BF0B5
:1013C800000E2C6E000E2D6E440E2E6E420E2F6EE9
:1013D8002CEC1BF028C000F129C001F12AC002F151
:1013E8002BC003F100C104F101C105F102C106F1EE
:1013F80003C107F1000E136E000E146EC80E156EB1
:10140800420E166E04C10FF005C110F006C111F0AE
:1014180007C112F049EC17F00FC041F010C042F0BC
:1014280011C043F012C044F04DEC26F041C0D2F098
:1014380042C0D3F0D2C001F0D3C002F0036A046AFC
:10144800000E08EC20F001C028F002C029F003C00B
:101458002AF004C02BF0000E2C6E000E2D6EC80E64
:101468002E6E420E2F6E2CEC1BF028C004F129C002
:1014780005F12AC006F12BC007F101014505D8A4E2
:1014880048EF0AF04AEF0AF052EF0AF0D6C013F21A
:10149800D7C014F213C2ACF314C2ADF30001D65195
:1014A800D711D8A45AEF0AF05CEF0AF062EF0AF0FD
:1014B800000ED76F000ED66F71EF0AF0D75109E111
:1014C800640ED65DD8A06BEF0AF06DEF0AF071EFED
:1014D8000AF0000ED76F640ED66FD6C0E4F0D7C0FE
:1014E800E5F0E451020145190BE10001E551020163
:1014F8004619D8B482EF0AF084EF0AF08BEF0AF0AD
:10150800E4C045F2E5C046F2010E0101B16F000EDC
:1015180002011C6F000E1B6F000E0101086F000E08
:10152800096F000E0A6F000E0B6F210E0001FE6F8F
:10153800210E0F015F6F7FEF0BF0210EFE19D8A46B
:10154800A8EF0AF0AAEF0AF07FEF0BF0E2C019F259
:10155800E3C01AF20201195100271A510123000EA3
:101568000223000E0323174B182B185109E1200EF4
:10157800175DD8A0C2EF0AF0C4EF0AF077EF0BF0BE
:1015880000C24BF001C24CF002C24DF003C24EF053
:10159800060ED4EF0AF0D8904E324D324C324B3210
:1015A800E82ECFEF0AF04BC000F24CC001F24DC05C
:1015B80002F24EC003F200C2D4F001C2D5F0F60E1A
:1015C800136E280E146E9C0E156E400E166ED4C047
:1015D80001F0D5C002F0036A046A000E08EC20F09E
:1015E80001C00FF002C010F003C011F004C012F0E7
:1015F80049EC17F00FC041F010C042F011C043F0A1
:1016080012C044F04DEC26F041C0D4F042C0D5F0F1
:10161800D4C007F0D5C008F0000E0A6E310E096E6E
:101628004CEC2AF007C0D4F008C0D5F00001F3054F
:10163800D8A421EF0BF023EF0BF031EF0BF0F451AE
:10164800D8A429EF0BF02BEF0BF031EF0BF0010EC4
:10165800F26FD4C016F1D5C017F1D451D511D8A462
:1016680038EF0BF03AEF0BF040EF0BF0000ED56FB0
:10167800000ED46F4FEF0BF0D55109E1640ED45D25
:10168800D8A049EF0BF04BEF0BF04FEF0BF0000E2B
:10169800D56F640ED46FD4C034F1D5C035F10101D3
:1016A8003451020147190BE1010135510201481972
:1016B800D8B461EF0BF063EF0BF06AEF0BF034C1B5
:1016C80047F235C148F2010E0101B16F000E020167
:1016D800186F000E176F000E006F000E016F000EDE
:1016E800026F000E036F000E0001FE6F000E0F0167
:1016F8005F6F7FEF0BF00E01CB91CDAB86EF0BF058
:1017080088EF0BF0F2EF0CF0C59B99CFF1F0C9EF21
:101718000CF03F0E0001F119D8A495EF0BF097EFEC
:101728000BF0AFEF0BF0EF51D8A49DEF0BF09FEF4C
:101738000BF0AFEF0BF0040EEE19D8A4A6EF0BF0E8
:10174800A8EF0BF0AFEF0BF0010E0101416F000E97
:10175800406FCAEF0BF02B0EF119D8A4B6EF0BF0BF
:10176800B8EF0BF0C7EF0BF0EF51D8A4BEEF0BF0BA
:10177800C0EF0BF0C7EF0BF0020E0101416F000E36
:10178800406FCAEF0BF0000E0101416F000E406F71
:10179800EFEF0CF0030E4061D4EF0BF0D6EF0BF037
:1017A800EFEF0CF00C0E4025D96EDA6A020EDA2241
:1017B800F1C0DFFF402B030E4019D8A4E6EF0BF071
:1017C800E8EF0BF0EFEF0CF002010D510A0DF3CF2B
:1017D8004BF0F4CF4CF00C51640DF3CF4DF0F4CF37
:1017E8004EF04B504D244F6E4C504E20506E0E51C3
:1017F8004F26000E5022300E4F240F6FEB0E502054
:10180800106F020E5E18D8A40CEF0CF00EEF0CF05F
:1018180030EF0CF00FC25BF010C25CF05C5007E1D7
:101828000B0E5B5CD8B01BEF0CF01DEF0CF021EF3A
:101838000CF0000E5C6E0A0E5B6E900E5B5C010E87
:101848005C58D8A02AEF0CF02CEF0CF030EF0CF01D
:10185800010E5C6E900E5B6E5B5001011A1909E176
:101868005C501B19D8B43BEF0CF03DEF0CF045EF82
:101878000CF05BC01AF15CC01BF1010EB16F010ED8
:10188800486F000E0101416FEFEF0CF05F0E000191
:10189800F119D8A452EF0CF054EF0CF061EF0CF0F2
:1018A800EF51D8A45AEF0CF05CEF0CF061EF0CF09C
:1018B800030E0101416FEFEF0CF0020E0101416FC1
:1018C800EFEF0CF0430E0001F119D8A46EEF0CF005
:1018D80070EF0CF07DEF0CF0EF51D8A476EF0CF020
:1018E80078EF0CF07DEF0CF0040E0101416FEFEF83
:1018F8000CF0440EF119D8A484EF0CF086EF0CF02C
:1019080045EF0CF0EF51D8A48CEF0CF08EEF0CF0F3
:1019180045EF0CF0050E0101416FEFEF0CF0440E9E
:101928000001F119D8A49BEF0CF09DEF0CF078EFB3
:101938000CF0EF51D8A4A3EF0CF0A5EF0CF078EF62
:101948000CF0010EEE6F000E0101416F000E406FAA
:10195800EFEF0CF0540E0001F119D8A4B6EF0CF01B
:10196800B8EF0CF08EEF0CF0EF51D8A4BEEF0CF0EE
:10197800C0EF0CF08EEF0CF0020EEE6F000E0101BE
:10198800416F000E406FEFEF0CF0010141514B6EBB
:101998004C6A4C50000AD8B4D4EF0CF0EFEF0CF0BE
:1019A8004B50000AD8B48DEF0BF0010AD8B4CEEF33
:1019B8000BF0030AD8B44AEF0CF0010AD8B466EF6A
:1019C8000CF0070AD8B493EF0CF0010AD8B4AEEFC4
:1019D8000CF0EFEF0CF00E01CD9BC58BCDAFF7EF00
:1019E8000CF0F9EF0CF0FFEF0CF0C59F99CEFFF16A
:1019F800010E0101FE6F58C0F5FF57C0F8FF56C031
:101A0800F7FF55C0F6FF54C0F4FF53C0F3FF52C0B0
:101A1800DAFF51C0D9FF5F921100B7EF27F06AECE7
:101A28002DF0010E0101466F270E0201126F100EF4
:101A3800116F020E5E6EB1EC2CF0000E0001696FA2
:101A4800686954EC2BF07B0E000168196911D8A461
:101A580030EF0DF032EF0DF0F9EF0DF0000E696F79
:101A6800280E686F54EC2BF0000168515E6E000E72
:101A7800696F1E0E686F54EC2BF068C0EAF069C0FD
:101A8800EBF0000E0001696F210E686F54EC2BF02B
:101A980068C0ECF069C0EDF0000E0001696F240E1B
:101AA800686F54EC2BF068C0E8F069C0E9F0000EEC
:101AB8000001696F2E0E686F54EC2BF068C0D2F0ED
:101AC80069C0D3F02D0E0001D25D010ED359D8A004
:101AD80070EF0DF072EF0DF07DEF0DF08A0ED25D14
:101AE800020ED359D8A07BEF0DF07DEF0DF0B9EFC2
:101AF8000DF0020E746F2C0E736F000E766F2E0EA3
:101B0800756F03EC2CF0000E0001696F2E0E686FE4
:101B180054EC2BF068C0D2F069C0D3F0D2C066F0A4
:101B2800D3C067F00001686B696B000E2CEC1FF0E6
:101B380066C08CF067C08DF068C08EF069C08FF009
:101B4800000E0001906F000E916FC80E926F420E4A
:101B5800936F5EEC19F08CC004F18DC005F18EC056
:101B680006F18FC007F1DDEF0DF0D2C066F0D3C0EB
:101B780067F0686B696B000E2CEC1FF066C08CF088
:101B880067C08DF068C08EF069C08FF0000E00014C
:101B9800906F000E916FC80E926F420E936F5EECBD
:101BA80019F08CC004F18DC005F18EC006F18FC00C
:101BB80007F1000E0001696F300E686F54EC2BF0CE
:101BC80068C018F169C019F118C11EF119C11FF1D7
:101BD800000E0001696F320E686F54EC2BF068C07C
:101BE800ACF369C0ADF36CEF0FF05EC073F0746BCB
:101BF800000E766F280E756F03EC2CF0000E0001B6
:101C0800746F000E736F000E766F0B0E756F03EC1A
:101C18002CF0000E0001746F000E736F000E766FCB
:101C28001E0E756F03EC2CF0000E0001746F000E91
:101C3800736F000E766F210E756F03EC2CF0000E9B
:101C48000001746F000E736F000E766F240E756FAF
:101C580003EC2CF0020E0001746F350E736F000E4A
:101C6800766F2E0E756F03EC2CF0000E01011F6FBE
:101C7800020E1E6F1EC173F01FC174F0000E00012A
:101C8800766F300E756F03EC2CF0000E0001746F48
:101C98007B0E736F000E766F756903EC2CF0000EE7
:101CA8000001696F280E686F54EC2BF00001685131
:101CB8005E6E000E696F0B0E686F54EC2BF000011E
:101CC80068510101976F000E0001696F1E0E686F61
:101CD80054EC2BF068C0EAF069C0EBF00001EA2987
:101CE800EB11D8B47AEF0EF07CEF0EF087EF0EF020
:101CF800EB5109E13D0EEA5DD8A085EF0EF087EFC4
:101D08000EF08BEF0EF0000EEB6F000EEA6F000E78
:101D1800696F210E686F54EC2BF068C0ECF069C055
:101D2800EDF00001EC29ED11D8B49DEF0EF09FEF16
:101D38000EF0AAEF0EF0ED5109E13D0EEC5DD8A0D2
:101D4800A8EF0EF0AAEF0EF0AEEF0EF0000EED6F5A
:101D5800000EEC6F000E696F240E686F54EC2BF0C8
:101D680068C0E8F069C0E9F00001E829E911D8B4D1
:101D7800C0EF0EF0C2EF0EF0CDEF0EF0E95109E121
:101D8800640EE85DD8A0CBEF0EF0CDEF0EF0D1EFEA
:101D98000EF0000EE96F000EE86F000E696F2E0E50
:101DA800686F54EC2BF068C0D2F069C0D3F02D0EE8
:101DB8000001D25D010ED359D8A0E5EF0EF0E7EF90
:101DC8000EF0F2EF0EF08A0ED25D020ED359D8A0B3
:101DD800F0EF0EF0F2EF0EF02EEF0FF0020E746F30
:101DE8002C0E736F000E766F2E0E756F03EC2CF0B1
:101DF800000E0001696F2E0E686F54EC2BF068C05E
:101E0800D2F069C0D3F0D2C066F0D3C067F0000149
:101E1800686B696B000E2CEC1FF066C08CF067C015
:101E28008DF068C08EF069C08FF0000E0001906FD1
:101E3800000E916FC80E926F420E936F5EEC19F010
:101E48008CC004F18DC005F18EC006F18FC007F17A
:101E580052EF0FF0D2C066F0D3C067F0686B696BC1
:101E6800000E2CEC1FF066C08CF067C08DF068C0C7
:101E78008EF069C08FF0000E0001906F000E916F18
:101E8800C80E926F420E936F5EEC19F08CC004F18D
:101E98008DC005F18EC006F18FC007F1000E00015C
:101EA800696F300E686F54EC2BF068C01EF169C082
:101EB8001FF11EC118F11FC119F1000E0001696F51
:101EC800320E686F54EC2BF068C0ACF369C0ADF308
:101ED8000001F551D8A473EF0FF075EF0FF001EF83
:101EE80010F05B0ECE6F410ECF6F440ED06F520EC6
:101EF800D16F5B0ECA6F5B0ECB6F5B0ECC6F5B0E48
:101F0800CD6F000E636F050E626F730E646FD0ECB9
:101F180026F00001FD855B0ECE6F520ECF6F320E9C
:101F2800D06F340ED16F5B0ECA6F5B0ECB6F5B0E3A
:101F3800CC6F5B0ECD6F000E636F050E626F730E74
:101F4800646FD0EC26F00001FD955E04D8A4AFEFD5
:101F58000FF0B1EF0FF0CBEF0FF05B0ECE6F320E3C
:101F6800CF6F350ED06F300ED16F5B0ECA6F5B0E20
:101F7800CB6F5B0ECC6F5B0ECD6F000E636F050EE3
:101F8800626F730E646FD0EC26F001EF10F0020E52
:101F98005E18D8A4D2EF0FF0D4EF0FF0E6EF0FF0F1
:101FA8005B0ECE6F340ECF6F300ED06F300ED16F08
:101FB8005B0ECA6F5B0ECB6F5B0ECC6F5B0ECD6F8B
:101FC800C1EF0FF0030E5E18D8A4EDEF0FF0EFEF9E
:101FD8000FF001EF10F05B0ECE6F360ECF6F300EA4
:101FE800D06F300ED16F5B0ECA6F5B0ECB6F5B0E7E
:101FF800CC6F5B0ECD6FC1EF0FF00001FD8D3DEC96
:1020080023F0000E0201546F000E536F020E5E188B
:10201800D8A411EF10F013EF10F023EF10F05C507C
:1020280007E1C90E5B5CD8B01CEF10F01EEF10F092
:1020380023EF10F0000E0001E76F010EE66F030EAC
:102048005E18D8A42AEF10F02CEF10F03CEF10F037
:10205800C30E5B5C010E5C58D8B035EF10F037EF5B
:1020680010F03CEF10F0000E0001E76F010EE66F74
:10207800010E0101846F12511311D8A446EF10F01C
:1020880048EF10F058EF10F014511511D8A44FEF85
:1020980010F051EF10F058EF10F0E3EC2BF0010EB8
:1020A8000001EF6F5DEF10F0000E0001EF6F000E02
:1020B800EE6F7EEC2CF0000E0101FE6F430E44EC37
:1020C8002DF0000E0001636F0A0E626F730E646FCD
:1020D800D0EC26F05FEF10F011EF0DF00001775112
:1020E800800B806F77517725826F76AF7EEF10F087
:1020F80080EF10F081EF10F082818251D8B487EF21
:1021080010F089EF10F09EEF10F08229D8A48FEF1D
:1021180010F091EF10F099EF10F0000E746F000EB0
:10212800756F000E766F000E776F768F000E776FE3
:10213800A6EF10F0000E746F000E756F000E766F2C
:10214800000E776F7B51800B816F80518119D8B455
:10215800B0EF10F0B2EF10F0B3EF10F0808D7B51BC
:102168007B25816F7AAFBBEF10F0BDEF10F0BEEFAB
:1021780010F081818151D8B4C4EF10F0C6EF10F08F
:10218800DBEF10F08129D8A4CCEF10F0CEEF10F0DF
:10219800D6EF10F0000E786F000E796F000E7A6F90
:1021A800000E7B6F7A8F000E7B6FE3EF10F0000E4E
:1021B800786F000E796F000E7A6F000E7B6F825178
:1021C800815DD8B0EAEF10F0ECEF10F013EF11F0EA
:1021D80080ADF1EF10F0F3EF10F0F5EF10F0800E96
:1021E800801B82C083F081C082F083C081F074C0FC
:1021F80083F078C074F083C078F075C083F079C03C
:1022080075F083C079F076C083F07AC076F083C029
:102218007AF077C083F07BC077F083C07BF0000E44
:10222800836F825181C07CF07D6B7C5F000E7D5B8B
:102238007DBF28EF11F07D5109E11A0E7C5DD8A011
:1022480028EF11F02AEF11F061EF11F074517511B8
:1022580076117711D8A433EF11F036EF11F0010E93
:1022680037EF11F0000E836F000E746F000E756F5C
:10227800000E766F000E776F81C082F06AEF11F062
:1022880083A149EF11F04BEF11F051EF11F0D89005
:1022980083310109836F53EF11F0D890833374A110
:1022A80058EF11F05AEF11F05BEF11F0838F77358B
:1022B8007733763375337433822B8151825DD8A09E
:1022C80068EF11F06AEF11F044EF11F080BD6FEF85
:1022D80011F071EF11F0B1EF11F08251D8A477EF3E
:1022E80011F079EF11F083EF11F0000E746F000E0A
:1022F800756F000E766F000E776FD2EF12F078517F
:102308007427795175237A5176237B51772377A1E6
:1023180090EF11F092EF11F03EEF12F083A197EFDA
:1023280011F099EF11F09FEF11F0D8908331010966
:10233800836FA1EF11F0D890833374A1A6EF11F049
:10234800A8EF11F0A9EF11F0838F77357733763343
:1023580075337433822B3EEF12F07851745D7951E6
:1023680075597A5176597751800A7C6F7B51800A6A
:102378007C59D8B0C2EF11F0C4EF11F0EFEF11F0B3
:102388007451785D7C6F755179597D6F76517A59A2
:102398007E6F77517B597F6FFF0E7C25746FFF0E20
:1023A8007D21756FFF0E7E21766FFF0E7F21776F7F
:1023B800800E801B836D8351D8A4E5EF11F0E7EF01
:1023C80011F0F7EF11F0010E7427000E7523762334
:1023D8007723F7EF11F07851745F7951755B7A5173
:1023E800765B7B51775B7451751176117711D8A4A0
:1023F80000EF12F002EF12F037EF12F08351D8A479
:1024080008EF12F00AEF12F037EF12F0000E746FB7
:10241800000E756F000E766F000E776FD2EF12F018
:10242800D890743775377637773783AF1EEF12F049
:1024380020EF12F021EF12F0748183A126EF12F041
:1024480028EF12F02CEF12F0D88083372EEF12F01D
:10245800D89083378251D8B434EF12F036EF12F0A7
:1024680037EF12F0820776AF3CEF12F03EEF12F032
:1024780014EF12F0000E816F83AF45EF12F047EFB3
:1024880012F05FEF12F083C07CF07F0E7C17D8B497
:1024980050EF12F052EF12F056EF12F0010E816F6A
:1024A8005FEF12F074A15BEF12F05DEF12F05FEFD7
:1024B80012F052EF12F08151D8B465EF12F067EFC5
:1024C80012F092EF12F0010E7427000E7523762396
:1024D800772377A172EF12F074EF12F092EF12F0F7
:1024E80074C07CF075C07DF076C07EF077C07FF058
:1024F8007F357F337E337D337C337CC074F07DC081
:1025080075F07EC076F07FC077F08229D8B48FEF5F
:1025180012F091EF12F092EF12F0822B8229D8B4C8
:1025280098EF12F09AEF12F0A2EF12F08251D8A4AD
:10253800A0EF12F0A2EF12F0B4EF12F0000E746FD9
:10254800000E756F000E766F000E776F8251D8A45B
:10255800B0EF12F0B2EF12F0B4EF12F0000E806F8D
:1025680082A1B9EF12F0BBEF12F0BEEF12F0768F36
:10257800BFEF12F0769FD8908231776F80AFC7EFA8
:1025880012F0C9EF12F0CAEF12F0778F74C074F02E
:1025980075C075F076C076F077C077F012000450F9
:1025A800800B0D6E045004240F6E03AEDEEF12F0A4
:1025B800E0EF12F0E1EF12F00F800F50D8B4E7EF20
:1025C80012F0E9EF12F0FEEF12F00F28D8A4EFEFA7
:1025D80012F0F1EF12F0F9EF12F0000E016E000E9A
:1025E800026E000E036E000E046E038E000E046E63
:1025F80006EF13F0000E016E000E026E000E036E61
:10260800000E046E0850800B0E6E0D500E18D8B4D4
:1026180010EF13F012EF13F013EF13F00D8C0850B6
:1026280008240E6E07AE1BEF13F01DEF13F01EEF1C
:1026380013F00E800E50D8B424EF13F026EF13F0E9
:102648003BEF13F00E28D8A42CEF13F02EEF13F065
:1026580036EF13F0000E056E000E066E000E076EC4
:10266800000E086E078E000E086E43EF13F0000E82
:10267800056E000E066E000E076E000E086E0F50F7
:102688000E5CD8B04AEF13F04CEF13F073EF13F071
:102698000DAC51EF13F053EF13F055EF13F0800E1C
:1026A8000D1A0FC010F00EC00FF010C00EF001C0D0
:1026B80010F005C001F010C005F002C010F006C00F
:1026C80002F010C006F003C010F007C003F010C0FD
:1026D80007F004C010F008C004F010C008F0000EA5
:1026E800106E0F500EC009F00A6A095E000E0A5AF1
:1026F8000ABE88EF13F00A5009E11A0E095CD8A047
:1027080088EF13F08AEF13F0C1EF13F001500210B5
:1027180003100410D8A493EF13F096EF13F0010EF2
:1027280097EF13F0000E106E000E016E000E026E91
:10273800000E036E000E046E0EC00FF0CAEF13F009
:1027480010A0A9EF13F0ABEF13F0B1EF13F0D8908E
:1027580010300109106EB3EF13F0D890103201A0B9
:10276800B8EF13F0BAEF13F0BBEF13F0108E043488
:1027780004320332023201320F2A0E500F5CD8A005
:10278800C8EF13F0CAEF13F0A4EF13F00DBCCFEFAE
:1027980013F0D1EF13F011EF14F00F50D8A4D7EFC6
:1027A80013F0D9EF13F0E3EF13F0000E016E000EF3
:1027B800026E000E036E000E046E32EF15F0055027
:1027C800012606500222075003220850042204A0C2
:1027D800F0EF13F0F2EF13F09EEF14F010A0F7EF04
:1027E80013F0F9EF13F0FFEF13F0D8901030010950
:1027F800106E01EF14F0D890103201A006EF14F01B
:1028080008EF14F009EF14F0108E04340432033288
:10281800023201320F2A9EEF14F00550015C065077
:102828000258075003580450800A096E0850800A5D
:102838000958D8B022EF14F024EF14F04FEF14F039
:102848000150055C096E025006580A6E035007587D
:102858000B6E045008580C6EFF0E0924016EFF0E13
:102868000A20026EFF0E0B20036EFF0E0C20046E72
:10287800800E0D1A106C1050D8A445EF14F047EFD5
:1028880014F057EF14F0010E0126000E0222032265
:10289800042257EF14F00550015E0650025A075003
:1028A800035A0850045A0150021003100410D8A407
:1028B80060EF14F062EF14F097EF14F01050D8A402
:1028C80068EF14F06AEF14F097EF14F0000E016E41
:1028D800000E026E000E036E000E046E32EF15F04D
:1028E800D890013602360336043610AE7EEF14F067
:1028F80080EF14F081EF14F0018010A086EF14F03F
:1029080088EF14F08CEF14F0D88010368EEF14F0A6
:10291800D89010360F50D8B494EF14F096EF14F006
:1029280097EF14F00F0603AE9CEF14F09EEF14F02F
:1029380074EF14F0000E0E6E10AEA5EF14F0A7EFB2
:1029480014F0BFEF14F010C009F07F0E0916D8B4C8
:10295800B0EF14F0B2EF14F0B6EF14F0010E0E6EF3
:10296800BFEF14F001A0BBEF14F0BDEF14F0BFEF00
:1029780014F0B2EF14F00E50D8B4C5EF14F0C7EF4E
:1029880014F0F2EF14F0010E0126000E02220322C9
:10299800042204A0D2EF14F0D4EF14F0F2EF14F0F4
:1029A80001C009F002C00AF003C00BF004C00CF02B
:1029B8000C340C320B320A32093209C001F00AC059
:1029C80002F00BC003F00CC004F00F28D8B4EFEFEE
:1029D80014F0F1EF14F0F2EF14F00F2A0F28D8B426
:1029E800F8EF14F0FAEF14F002EF15F00F50D8A436
:1029F80000EF15F002EF15F014EF15F0000E016E60
:102A0800000E026E000E036E000E046E0F50D8A466
:102A180010EF15F012EF15F014EF15F0000E0D6E13
:102A28000FA019EF15F01BEF15F01EEF15F0038E30
:102A38001FEF15F0039ED8900F30046E0DAE27EFF0
:102A480015F029EF15F02AEF15F0048E01C001F0FA
:102A580002C002F003C003F004C004F01200000139
:102A6800A851800BB16FA851A825B76FA7AF3FEF4A
:102A780015F041EF15F042EF15F0B781B751D8B412
:102A880048EF15F04AEF15F05DEF15F0B729D8A417
:102A980050EF15F052EF15F05AEF15F0000EA56F34
:102AA800000EA66F000EA76F000EA86FA78F65EF28
:102AB80015F0000EA56F000EA66F000EA76F000E92
:102AC800A86FAC51800BB11BAC51AC25B66FABAF46
:102AD80070EF15F072EF15F073EF15F0B681B6517F
:102AE800D8B479EF15F07BEF15F08EEF15F0B62915
:102AF800D8A481EF15F083EF15F08BEF15F0000ED9
:102B0800A96F000EAA6F000EAB6F000EAC6FAB8FF3
:102B180096EF15F0000EA96F000EAA6F000EAB6FAE
:102B2800000EAC6FB651D8B49CEF15F09EEF15F0BF
:102B3800A6EF15F0B751D8A4A4EF15F0A6EF15F03D
:102B4800B0EF15F0000EA56F000EA66F000EA76F70
:102B5800000EA86F48EF17F0AB51A503F3CFBCF0F8
:102B6800F4CFBDF0BC51B26FB36BB46BB56BBD5154
:102B7800B86FB96BBA6BBB6BAA51A603F3CFBCF0A5
:102B8800F4CFBDF0BC51B227000EB323B423B52354
:102B9800BD51B827000EB923BA23BB23A951A703F7
:102BA800F3CFBCF0F4CFBDF0BC51B227000EB32375
:102BB800B423B523BD51B827000EB923BA23BB23CC
:102BC800B4C0B5F0B3C0B4F0B2C0B3F0B26BA951A1
:102BD800A603F3CFBCF0F4CFBDF0BC51B227BD5172
:102BE800B323000EB423000EB523AA51A503F3CFD7
:102BF800BCF0F4CFBDF0BC51B227BD51B323000ED9
:102C0800B423000EB523B4C0B5F0B3C0B4F0B2C05D
:102C1800B3F0B26BA951A503F3CFBCF0F4CFBDF06C
:102C2800BC51B227BD51B323000EB423000EB52307
:102C3800AB51A603F3CFBCF0F4CFBDF0BC51B8271D
:102C4800BD51B923000EBA23000EBB23AA51A70316
:102C5800F3CFBCF0F4CFBDF0BC51B827BD51B923B8
:102C6800000EBA23000EBB23AB51A703F3CFBCF071
:102C7800F4CFBDF0BC51AD6FBD51AE6FAF6BB06B53
:102C8800AFC0B0F0AEC0AFF0ADC0AEF0AD6BAD51FF
:102C9800B827AE51B923AF51BA23B051BB23B2C044
:102CA800ADF0B3C0AEF0B4C0AFF0B5C0B0F0190E1F
:102CB80063EF16F0D890B033AF33AE33AD33E82EB0
:102CC8005EEF16F0AD51B827AE51B923AF51BA2314
:102CD800B051BB23B4C0B5F0B3C0B4F0B2C0B3F0C8
:102CE800B26BB651B7C0ADF0AE6BAD27000EAE23D8
:102CF800820EAD25BC6FFF0EAE21BD6F99EF16F0A9
:102D0800D890B837B937BA37BB37B5AF8EEF16F0AA
:102D180090EF16F091EF16F0B881D890B237B3372C
:102D2800B437B537BC07D8A0BD07BAAF9EEF16F0C9
:102D3800A0EF16F084EF16F0000EB66FB5AFA7EF50
:102D480016F0A9EF16F0CDEF16F0FF0EB215AD6F25
:102D5800FF0EB315AE6FFF0EB415AF6F7F0EB5152E
:102D6800B06FAD51AE11AF11B011D8B4BEEF16F0BF
:102D7800C0EF16F0C4EF16F0010EB66FCDEF16F0E7
:102D8800B8A1C9EF16F0CBEF16F0CDEF16F0C0EFF3
:102D980016F0B651D8B4D3EF16F0D5EF16F0F9EF18
:102DA80016F0010EB827000EB923BA23BB23BBA126
:102DB800E0EF16F0E2EF16F0F9EF16F0B8C0ADF05C
:102DC800B9C0AEF0BAC0AFF0BBC0B0F0B035B033E8
:102DD800AF33AE33AD33ADC0B8F0AEC0B9F0AFC0AD
:102DE800BAF0B0C0BBF0BC4BBD2BBDBF04EF17F0B1
:102DF800BD5108E1BC29D8A004EF17F006EF17F081
:102E080010EF17F0000EB86F000EB96F800EBA6F92
:102E18007F0EBB6F3EEF17F0BDBF1DEF17F0BD5122
:102E280006E1BC05D8B01BEF17F01DEF17F029EF2E
:102E380017F0000EB86F000EB96F000EBA6F000ED3
:102E4800BB6F000EB16F3EEF17F0BCC0B7F0FF0EBE
:102E5800B817FF0EB9177F0EBA17000EBB17B7A128
:102E680038EF17F03AEF17F03BEF17F0BA8FD8901A
:102E7800B731BB6FB151BB13B8C0A5F0B9C0A6F04C
:102E8800BAC0A7F0BBC0A8F012001250800B1B6E8E
:102E980012501224216E11AE54EF17F056EF17F0AE
:102EA80057EF17F021802150D8B45DEF17F05FEF8E
:102EB80017F072EF17F02128D8A465EF17F067EF25
:102EC80017F06FEF17F0000E0F6E000E106E000E69
:102ED800116E000E126E118E7AEF17F0000E0F6E43
:102EE800000E106E000E116E000E126E1650800B42
:102EF8001B1A16501624206E15AE85EF17F087EFB3
:102F080017F088EF17F020802050D8B48EEF17F014
:102F180090EF17F0A3EF17F02028D8A496EF17F03A
:102F280098EF17F0A0EF17F0000E136E000E146E56
:102F3800000E156E000E166E158EABEF17F0000E14
:102F4800136E000E146E000E156E000E166E2050D5
:102F5800D8B4B1EF17F0B3EF17F0BBEF17F021506B
:102F6800D8A4B9EF17F0BBEF17F0C5EF17F0000EB4
:102F78000F6E000E106E000E116E000E126E5DEFD9
:102F880019F015500F02F3CF26F0F4CF27F0265092
:102F98001C6E1D6A1E6A1F6A2750226E236A246AE5
:102FA800256A14501002F3CF26F0F4CF27F02650EC
:102FB8001C26000E1D221E221F2227502226000E2C
:102FC80023222422252213501102F3CF26F0F4CF16
:102FD80027F026501C26000E1D221E221F222750D5
:102FE8002226000E2322242225221EC01FF01DC0E7
:102FF8001EF01CC01DF01C6A13501002F3CF26F0FF
:10300800F4CF27F026501C2627501D22000E1E2222
:10301800000E1F2214500F02F3CF26F0F4CF27F032
:1030280026501C2627501D22000E1E22000E1F228D
:103038001EC01FF01DC01EF01CC01DF01C6A1350DE
:103048000F02F3CF26F0F4CF27F026501C26275086
:103058001D22000E1E22000E1F2215501002F3CF53
:1030680026F0F4CF27F02650222627502322000EE0
:103078002422000E252214501102F3CF26F0F4CF9B
:1030880027F02650222627502322000E2422000E45
:10309800252215501102F3CF26F0F4CF27F0265041
:1030A800176E2750186E196A1A6A19C01AF018C0D4
:1030B80019F017C018F0176A175022261850232243
:1030C800195024221A5025221CC017F01DC018F0D0
:1030D8001EC019F01FC01AF0190E78EF18F0D8901A
:1030E8001A32193218321732E82E73EF18F01750C7
:1030F800222618502322195024221A5025221EC095
:103108001FF01DC01EF01CC01DF01C6A205021C0FD
:1031180017F0186A1726000E1822820E1724266E3A
:10312800FF0E1820276EAEEF18F0D89022362336FF
:10313800243625361FAEA3EF18F0A5EF18F0A6EF3A
:1031480018F02280D8901C361D361E361F362606EB
:10315800D8A0270624AEB3EF18F0B5EF18F099EF12
:1031680018F0000E206E1FAEBCEF18F0BEEF18F07E
:10317800E2EF18F0FF0E1C14176EFF0E1D14186EE8
:10318800FF0E1E14196E7F0E1F141A6E175018109A
:1031980019101A10D8B4D3EF18F0D5EF18F0D9EFEA
:1031A80018F0010E206EE2EF18F022A0DEEF18F002
:1031B800E0EF18F0E2EF18F0D5EF18F02050D8B48F
:1031C800E8EF18F0EAEF18F00EEF19F0010E2226DA
:1031D800000E23222422252225A0F5EF18F0F7EF70
:1031E80018F00EEF19F022C017F023C018F024C011
:1031F80019F025C01AF01A341A3219321832173257
:1032080017C022F018C023F019C024F01AC025F006
:10321800264A272A27BE19EF19F0275008E1262841
:10322800D8A019EF19F01BEF19F025EF19F0000ECF
:10323800226E000E236E800E246E7F0E256E53EFD5
:1032480019F027BE32EF19F0275006E12604D8B04E
:1032580030EF19F032EF19F03EEF19F0000E226E40
:10326800000E236E000E246E000E256E000E1B6EDF
:1032780053EF19F026C021F0FF0E2216FF0E231679
:103288007F0E2416000E251621A04DEF19F04FEFE2
:1032980019F050EF19F0248ED8902130256E1B506C
:1032A800251222C00FF023C010F024C011F025C051
:1032B80012F0120000018F51800B9C6F8F518F25E7
:1032C800A36F8EAF6AEF19F06CEF19F06DEF19F07C
:1032D800A381A351D8B473EF19F075EF19F08AEFF1
:1032E80019F0A329D8A47BEF19F07DEF19F085EF29
:1032F80019F0000E8C6F000E8D6F000E8E6F000E91
:103308008F6F8E8F000E8F6F92EF19F0000E8C6FFB
:10331800000E8D6F000E8E6F000E8F6F9351800B15
:103328009C1B93519325A46F92AF9DEF19F09FEFCB
:1033380019F0A0EF19F0A481A451D8B4A6EF19F0A0
:10334800A8EF19F0BDEF19F0A429D8A4AEEF19F031
:10335800B0EF19F0B8EF19F0000E906F000E916FF2
:10336800000E926F000E936F928F000E936FC5EF51
:1033780019F0000E906F000E916F000E926F000E04
:10338800936F9051911192119311D8A4CEEF19F027
:10339800D0EF19F0E8EF19F0000E8C6F000E8D6F6A
:1033A800000E8E6F000E8F6F800E8E137F0E8F13A0
:1033B8009C518F138CC08CF08DC08DF08EC08EF018
:1033C8008FC08FF02BEF1BF0A351D8A4EEEF19F0AC
:1033D800F0EF19F0FAEF19F0000E8C6F000E8D6FF8
:1033E800000E8E6F000E8F6F2BEF1BF0A451A3C041
:1033F80094F0956B945F000E955B7F0E94259D6FFE
:10340800000E95219E6F8CC098F08DC099F08EC0EB
:103418009AF08FC09BF0000E8C6F000E8D6F000E1F
:103428008E6F000E8F6F000E9F6F000EA06F000E44
:10343800A16F000EA26F000EA46F5BEF1AF0A451EB
:10344800D8B429EF1AF02BEF1AF042EF1AF0D890FF
:10345800983799379A379B37D8908C378D378E376E
:103468008F37A2AF3AEF1AF03CEF1AF03DEF1AF09F
:103478008C81D8909F37A037A137A2379051985D9B
:103488009151995992519A5993519B59D8A04FEFFC
:103498001AF051EF1AF05AEF1AF0A28D9051985F76
:1034A8009151995B92519A5B93519B5BA42B190E96
:1034B800A46561EF1AF063EF1AF023EF1AF0985140
:1034C80099119A119B11D8B46CEF1AF06EEF1AF09B
:1034D80086EF1AF09F8186EF1AF0D8908C378D37D7
:1034E8008E378F37A2AF7BEF1AF07DEF1AF07EEFA1
:1034F8001AF08C81D8909F37A037A137A2379D0743
:10350800D8A09E078EAF8BEF1AF08DEF1AF071EFEF
:103518001AF0000EA46FA2AF94EF1AF096EF1AF00B
:10352800BAEF1AF0FF0E9F15946FFF0EA015956F56
:10353800FF0EA115966F7F0EA215976F94519511E6
:1035480096119711D8B4ABEF1AF0ADEF1AF0B1EFAE
:103558001AF0010EA46FBAEF1AF08CA1B6EF1AF0A8
:10356800B8EF1AF0BAEF1AF0ADEF1AF0A451D8B4C8
:10357800C0EF1AF0C2EF1AF0E6EF1AF0010E8C272E
:10358800000E8D238E238F238FA1CDEF1AF0CFEF5E
:103598001AF0E6EF1AF08CC094F08DC095F08EC04A
:1035A80096F08FC097F097359733963395339433C9
:1035B80094C08CF095C08DF096C08EF097C08FF0B7
:1035C8009D4B9E2B9EBFF1EF1AF09E5108E19D295D
:1035D800D8A0F1EF1AF0F3EF1AF0FEEF1AF0000E90
:1035E8009E6F9D69000E8C6F000E8D6F000E8E6FA2
:1035F800000E8F6F9EBF0BEF1BF09E5106E19D05DD
:10360800D8B009EF1BF00BEF1BF019EF1BF0000E01
:103618009E6F000E9D6F000E8C6F000E8D6F000E5A
:103628008E6F000E8F6F000E9C6F9DC0A3F0A3A13C
:1036380020EF1BF022EF1BF025EF1BF08E8F26EFFB
:103648001BF08E9FD890A3318F6FDCEF19F012001A
:103658002B50800B386E2B502B243F6E2AAE37EF41
:103668001BF039EF1BF03AEF1BF03F803F50D8B406
:1036780040EF1BF042EF1BF057EF1BF03F28D8A498
:1036880048EF1BF04AEF1BF052EF1BF0000E286EBC
:10369800000E296E000E2A6E000E2B6E2A8E000E6A
:1036A8002B6E5FEF1BF0000E286E000E296E000EC9
:1036B8002A6E000E2B6E2F50800B381A2F502F2495
:1036C800406E2EAE6AEF1BF06CEF1BF06DEF1BF037
:1036D80040804050D8B473EF1BF075EF1BF08AEFB1
:1036E8001BF04028D8A47BEF1BF07DEF1BF085EF83
:1036F8001BF0000E2C6E000E2D6E000E2E6E000EAE
:103708002F6E2E8E000E2F6E92EF1BF0000E2C6E79
:10371800000E2D6E000E2E6E000E2F6E2C502D10EA
:103728002E102F10D8A49BEF1BF09DEF1BF0B5EFC8
:103738001BF0000E286E000E296E000E2A6E000E79
:103748002B6E800E2A127F0E2B1238502B1228C097
:1037580028F029C029F02AC02AF02BC02BF0F8EF56
:103768001CF03F50D8A4BBEF1BF0BDEF1BF0C7EF18
:103778001BF0000E286E000E296E000E2A6E000E39
:103788002B6EF8EF1CF040503FC030F0316A305ECD
:10379800000E315A7F0E3024396E000E31203A6EF9
:1037A80028C034F029C035F02AC036F02BC037F0D5
:1037B800000E286E000E296E000E2A6E000E2B6E6B
:1037C800000E3B6E000E3C6E000E3D6E000E3E6E0F
:1037D800000E406E28EF1CF04050D8B4F6EF1BF0F6
:1037E800F8EF1BF00FEF1CF0D8903436353636362C
:1037F8003736D890283629362A362B363EAE07EF8C
:103808001CF009EF1CF00AEF1CF02880D8903B361A
:103818003C363D363E362C50345C2D5035582E50B3
:1038280036582F503758D8A01CEF1CF01EEF1CF04C
:1038380027EF1CF03E8C2C50345E2D50355A2E50FC
:10384800365A2F50375A402A190E40642EEF1CF072
:1038580030EF1CF0F0EF1BF03450351036103710F5
:10386800D8B439EF1CF03BEF1CF053EF1CF03B8051
:1038780053EF1CF0D890283629362A362B363EAE20
:1038880048EF1CF04AEF1CF04BEF1CF02880D89052
:103898003B363C363D363E363906D8A03A062AAE87
:1038A80058EF1CF05AEF1CF03EEF1CF0000E406E73
:1038B8003EAE61EF1CF063EF1CF087EF1CF0FF0ECB
:1038C8003B14306EFF0E3C14316EFF0E3D14326E09
:1038D8007F0E3E14336E3050311032103310D8B48E
:1038E80078EF1CF07AEF1CF07EEF1CF0010E406EB2
:1038F80087EF1CF028A083EF1CF085EF1CF087EF02
:103908001CF07AEF1CF04050D8B48DEF1CF08FEF0C
:103918001CF0B3EF1CF0010E2826000E29222A22E3
:103928002B222BA09AEF1CF09CEF1CF0B3EF1CF09D
:1039380028C030F029C031F02AC032F02BC033F053
:103948003334333232323132303230C028F031C081
:1039580029F032C02AF033C02BF0394A3A2A3ABE4D
:10396800BEEF1CF03A5008E13928D8A0BEEF1CF091
:10397800C0EF1CF0CBEF1CF0000E3A6E3968000E59
:10398800286E000E296E000E2A6E000E2B6E3ABEAF
:10399800D8EF1CF03A5006E13904D8B0D6EF1CF045
:1039A800D8EF1CF0E6EF1CF0000E3A6E000E396EF0
:1039B800000E286E000E296E000E2A6E000E2B6E69
:1039C800000E386E39C03FF03FA0EDEF1CF0EFEF6E
:1039D8001CF0F2EF1CF02A8EF3EF1CF02A9ED89010
:1039E8003F302B6EA9EF1BF012000001FF05D8A491
:1039F80000EF1DF002EF1DF021EF1DF0FDA107EF14
:103A08001DF009EF1DF00EEF1DF0010E0101FC6F16
:103A180011EF1DF0000E0101FC6F0001CE5145ECC5
:103A280027F084808492849484988592839E839CD2
:103A380083960001FF2B2EEF1EF0020EFF19D8A46B
:103A480028EF1DF02AEF1DF047EF1DF0FDA32FEF23
:103A58001DF031EF1DF036EF1DF0010E0101FC6F76
:103A680039EF1DF0000E0101FC6F0001CF5145EC4C
:103A780027F084908482849484988592839E839C82
:103A880083961DEF1DF0030EFF19D8A44EEF1DF00D
:103A980050EF1DF06DEF1DF0FDA555EF1DF057EF30
:103AA8001DF05CEF1DF0010E0101FC6F5FEF1DF0D2
:103AB800000E0101FC6F0001D05145EC27F0849005
:103AC8008492848484988592839E839C83961DEF38
:103AD8001DF0040EFF19D8A474EF1DF076EF1DF049
:103AE80093EF1DF0FDA77BEF1DF07DEF1DF082EF3A
:103AF8001DF0010E0101FC6F85EF1DF0000E0101A4
:103B0800FC6F0001D15145EC27F084908492849495
:103B180084888592839E839C83961DEF1DF0050EF5
:103B2800FF19D8A49AEF1DF09CEF1DF0B9EF1DF016
:103B3800FDA9A1EF1DF0A3EF1DF0A8EF1DF0010EE8
:103B48000101FC6FABEF1DF0000E0101FC6F0001DD
:103B5800CA5145EC27F08490849284948498858295
:103B6800839E839C83961DEF1DF0060EFF19D8A433
:103B7800C0EF1DF0C2EF1DF0DFEF1DF0FDABC7EF8A
:103B88001DF0C9EF1DF0CEEF1DF0010E0101FC6F15
:103B9800D1EF1DF0000E0101FC6F0001CB5145EC87
:103BA80027F084908492849484988592838E839C51
:103BB80083961DEF1DF0070EFF19D8A4E6EF1DF040
:103BC800E8EF1DF005EF1EF0FDADEDEF1DF0EFEF96
:103BD8001DF0F4EF1DF0010E0101FC6FF7EF1DF071
:103BE800000E0101FC6F0001CC5145EC27F08490D8
:103BF8008492849484988592839E838C83961DEF07
:103C08001DF0080EFF19D8A40CEF1EF00EEF1EF0E1
:103C18002EEF1EF0FDAF13EF1EF015EF1EF01AEF9A
:103C28001EF0010E0101FC6F1DEF1EF0000E0101D8
:103C3800FC6F0001CD5145EC27F084908492849468
:103C480084988592839E839C8386010E0001FF6F72
:103C58002EEF1EF01200858C000E0001616F000E21
:103C6800606F000E636F000E626F624B632B6351CF
:103C780009E1320E625DD8A044EF1EF046EF1EF057
:103C880039EF1EF0604B612B615109E11E0E605D3A
:103C9800D8A051EF1EF053EF1EF035EF1EF08FAE97
:103CA80058EF1EF05AEF1EF00EEF1FF0859C000E25
:103CB800616F000E606F000E636F000E626F624BE3
:103CC800632B635109E1320E625DD8A06EEF1EF0DE
:103CD80070EF1EF063EF1EF0604B612B615109E13C
:103CE8001E0E605DD8A07BEF1EF07DEF1EF05FEF2B
:103CF8001EF08FBE82EF1EF084EF1EF00EEF1FF055
:103D0800858C000E616F000E606F000E636F000EF1
:103D1800626F624B632B635109E1320E625DD8A07A
:103D280098EF1EF09AEF1EF08DEF1EF0604B612B9E
:103D3800615109E11E0E605DD8A0A5EF1EF0A7EF46
:103D48001EF089EF1EF08FAEACEF1EF0AEEF1EF046
:103D5800EDEF1EF001014905D8A4B5EF1EF0B7EF4D
:103D68001EF0C8EF1EF0010E0001F46F010E0101F4
:103D7800456F000E0001F36F000E0101476F000E42
:103D88000301896F000E886F0001FB51D8A4CFEFA3
:103D98001EF0D1EF1EF02BEF1FF001014651D8A401
:103DA800D8EF1EF0DAEF1EF02BEF1FF0010E000126
:103DB800F36F010E0101476F000E0001F46F000E52
:103DC8000101456F000E0301896F000E886F2BEF0C
:103DD8001FF0000EF56F000EF46F000E0101456F25
:103DE800000E0001F36F000E0101476F000E000185
:103DF800F26F000E0301896F000E886F000E01013B
:103E0800136F000E126F000E0301CB6F000ECA6F06
:103E18002BEF1FF0000EF56F000EF46F000E01017E
:103E2800456F000E0001F36F000EF26F000E0301E4
:103E3800896F000E886F000E0101136F000E126F5C
:103E4800000E0301CB6F000ECA6F2BEF1FF012009C
:103E580000016E6F00016E51D8B435EF1FF037EFD7
:103E68001FF059EF1FF069BF3EEF1FF03CEF1FF046
:103E780059EF1FF066C06AF067C06BF068C06CF05D
:103E880069C06DF06A1F6B1F6C1F6D1F6A2B000ED7
:103E98006B236C236D236AC070F06BC071F06CC02B
:103EA80072F06DC073F061EF1FF066C070F067C00C
:103EB80071F068C072F069C073F0665167116811DB
:103EC8006911D8A46AEF1FF06CEF1FF076EF1FF0AE
:103ED800000E666F000E676F000E686F000E696F48
:103EE80007EF20F0960E6F6F80EF1FF06F2BD890C2
:103EF8007333723371337033000E70156A6F000EAE
:103F080071156B6F000E72156C6FFE0E73156D6F69
:103F18006A516B116C116D11D8A495EF1FF097EFD2
:103F28001FF07AEF1FF0A5EF1FF06F2B010E70271F
:103F3800000E712372237323D89073337233713355
:103F48007033000E70156A6F000E71156B6F000EDE
:103F580072156C6FFF0E73156D6F6A516B116C11D2
:103F68006D11D8A4BAEF1FF0BCEF1FF099EF1FF046
:103F7800C4EF1FF06F07D8907037713772377337F7
:103F880072BFC9EF1FF0CBEF1FF0D3EF1FF0020E87
:103F98006F61D1EF1FF0D3EF1FF0BEEF1FF06FB1CD
:103FA800D8EF1FF0DAEF1FF0DBEF1FF0729FD89009
:103FB8006F336FC06AF06B6B6C6B6D6B6AC06DF0C2
:103FC8006C6B6B6B6A6B6A5170136B5171136C512C
:103FD80072136D5173136E51D8B4F5EF1FF0F7EFEC
:103FE8001FF0FFEF1FF069BFFEEF1FF0FCEF1FF09F
:103FF800FFEF1FF0738F70C066F071C067F072C07A
:1040080068F073C069F01200096E0950D8B40FEF58
:1040180020F011EF20F033EF20F004BE18EF20F06D
:1040280016EF20F033EF20F001C005F002C006F0D3
:1040380003C007F004C008F0051E061E071E081E70
:10404800052A000E06220722082205C00BF006C02A
:104058000CF007C00DF008C00EF03BEF20F001C0D7
:104068000BF002C00CF003C00DF004C00EF00150BC
:10407800021003100410D8A444EF20F046EF20F0FB
:1040880050EF20F0000E016E000E026E000E036E5F
:10409800000E046EE1EF20F0960E0A6E5AEF20F043
:1040A8000A2AD8900E320D320C320B32000E0B1445
:1040B800056E000E0C14066E000E0D14076EFE0E33
:1040C8000E14086E0550061007100810D8A46FEFDC
:1040D80020F071EF20F054EF20F07FEF20F00A2A53
:1040E800010E0B26000E0C220D220E22D8900E3245
:1040F8000D320C320B32000E0B14056E000E0C1430
:10410800066E000E0D14076EFF0E0E14086E055095
:10411800061007100810D8A494EF20F096EF20F0AE
:1041280073EF20F09EEF20F00A06D8900B360C367D
:104138000D360E360DBEA3EF20F0A5EF20F0ADEF43
:1041480020F0020E0A60ABEF20F0ADEF20F098EF00
:1041580020F00AB0B2EF20F0B4EF20F0B5EF20F075
:104168000D9ED8900A320AC005F0066A076A086AE6
:1041780005C008F0076A066A056A05500B12065062
:104188000C1207500D1208500E120950D8B4CFEF78
:1041980020F0D1EF20F0D9EF20F004BED8EF20F0C6
:1041A800D6EF20F0D9EF20F00E8E0BC001F00CC036
:1041B80002F00DC003F00EC004F012005E04D8A493
:1041C800E8EF20F0EAEF20F026EF21F0000E0001E2
:1041D800786F800E796FB60E7A6F430E7B6F04C1CD
:1041E800A9F005C1AAF006C1ABF007C1ACF0C8C080
:1041F80066F0C9C067F0686B696B000E2CEC1FF0A5
:1042080066C0A5F067C0A6F068C0A7F069C0A8F0AE
:1042180033EC15F0A5C074F0A6C075F0A7C076F011
:10422800A8C077F072EC10F074C0BEF075C0BFF093
:1042380076C0C0F077C0C1F046EC25F0BEC03AF1B8
:10424800BFC03BF1020E5E18D8A42DEF21F02FEF6E
:1042580021F06BEF21F0330E0001786F130E796FA8
:10426800AD0E7A6F430E7B6F04C1A9F005C1AAF0A9
:1042780006C1ABF007C1ACF0C8C066F0C9C067F0B2
:10428800686B696B000E2CEC1FF066C0A5F067C068
:10429800A6F068C0A7F069C0A8F033EC15F0A5C077
:1042A80074F0A6C075F0A7C076F0A8C077F072ECDD
:1042B80010F074C0BEF075C0BFF076C0C0F077C013
:1042C800C1F046EC25F0BEC03AF1BFC03BF1030E89
:1042D8005E18D8A472EF21F074EF21F0B0EF21F04E
:1042E800000E0001786F800E796FB60E7A6F430E5C
:1042F8007B6F04C1A9F005C1AAF006C1ABF007C1E4
:10430800ACF0C8C066F0C9C067F0686B696B000E96
:104318002CEC1FF066C0A5F067C0A6F068C0A7F037
:1043280069C0A8F033EC15F0A5C074F0A6C075F00C
:10433800A7C076F0A8C077F072EC10F074C0BEF099
:1043480075C0BFF076C0C0F077C0C1F046EC25F06C
:10435800BEC03AF1BFC03BF13AC1C8F03BC1C9F099
:1043680012002CC101F02DC102F0570E015C090E9C
:104378000258D8A0C2EF21F0C4EF21F0F3EF21F0EA
:10438800E40E015C0C0E0258D8B0CDEF21F0CFEF4F
:1043980021F0F3EF21F00101264B272B000E236FAC
:1043A800000E226F000E216F000E206F275109E1C9
:1043B800030E265DD8A0E3EF21F0E5EF21F07EEFB4
:1043C80022F0010EC66F000EC46F000EC16F010E01
:1043D8008F6F000E276F020E266F7EEF22F0750E8C
:1043E800015C0E0E0258D8A0FCEF21F0FEEF21F080
:1043F8002DEF22F0A00E015C0F0E0258D8B007EF87
:1044080022F009EF22F02DEF22F0000E0101276FB4
:10441800000E266F224B232B000E216F000E206FFB
:10442800235109E1030E225DD8A01DEF22F01FEFF2
:1044380022F07EEF22F0000EC66F010EC46F000E50
:10444800C16F010E8F6F000E236F020E226F7EEF79
:1044580022F0025007E1C80E015CD8B036EF22F016
:1044680038EF22F06BEF22F001013D5109E1320EE5
:104478003C5DD8A042EF22F044EF22F07EEF22F01C
:10448800000E3D6F000E3C6F204B212B000E236F5A
:10449800000E226F000E276F000E266F215109E1D2
:1044A800030E205DD8A05BEF22F05DEF22F07EEFD7
:1044B80022F0000EC66F000EC46F000EC16F010E11
:1044C8008F6F000E216F020E206F7EEF22F0000E1C
:1044D8000101C66F000EC46F000EC16F000E276F7A
:1044E800000E266F000E236F000E226F000E216F44
:1044F800000E206F120011EF23F0F005D8A487EF0B
:1045080022F089EF22F03CEF23F0F70E616F030EE3
:10451800626FF1EC2AF0010E0101436F000E0001F9
:10452800F06F000E0101116F000E106F3CEF23F0C9
:10453800F005D8A4A2EF22F0A4EF22F03CEF23F07C
:10454800E90E616F030E626FF1EC2AF0020E0101B1
:10455800436F92EF22F0F005D8A4B5EF22F0B7EF41
:1045680022F03CEF23F0000E616F040E626FF1EC55
:104578002AF0030E0101436F92EF22F0F005D8A450
:10458800C8EF22F0CAEF22F03CEF23F0DB0E616F98
:10459800030E626FF1EC2AF0040E0101436F92EFF3
:1045A80022F0F005D8A4DBEF22F0DDEF22F03CEF9B
:1045B80023F0CC0E616F030E626FF1EC2AF0050E4A
:1045C8000101436F92EF22F0F005D8A4EEEF22F03C
:1045D800F0EF22F03CEF23F0120E616F040E626FD1
:1045E800F1EC2AF0060E0101436F92EF22F0F0057C
:1045F800D8A401EF23F003EF23F03CEF23F0FC0EE7
:10460800616F030E626FF1EC2AF0000E0101436F37
:10461800000E0001EF6F92EF22F0010143510001FB
:10462800636F646B6451000AD8B41DEF23F03CEF4C
:1046380023F06351000AD8B481EF22F0010AD8B4FC
:104648009CEF22F0030AD8B4AFEF22F0010AD8B4E5
:10465800C2EF22F0070AD8B4D5EF22F0010AD8B485
:10466800E8EF22F0030AD8B4FBEF22F03CEF23F086
:104678001200858C000E0001616F000E606F000E45
:10468800636F000E626F624B632BF40E625D010E66
:104698006359D8A052EF23F054EF23F047EF23F0EB
:1046A800604B612B2C0E605D010E6159D8A05FEF45
:1046B80023F061EF23F043EF23F08FAE66EF23F092
:1046C80068EF23F0E3EF23F0859C000E616F000E86
:1046D800606F000E636F000E626F624B632BE80E13
:1046E800625D030E6359D8A07CEF23F07EEF23F0C0
:1046F80071EF23F0604B612BE80E605D030E61598A
:10470800D8A089EF23F08BEF23F06DEF23F08FBE55
:1047180090EF23F092EF23F0E3EF23F0858C000E67
:10472800616F000E606F000E636F000E626F624B68
:10473800632BF40E625D010E6359D8A0A6EF23F037
:10474800A8EF23F09BEF23F0604B612B2C0E605DEC
:10475800010E6159D8A0B3EF23F0B5EF23F097EF1E
:1047680023F08FAEBAEF23F0BCEF23F0E3EF23F092
:104778008EA6C1EF23F0C3EF23F0D4EF23F0000E91
:104788000101136F010E126F000E156F000E146FEA
:10479800000E0001F46F000E0101496FE3EF23F0F2
:1047A800000E0101136F000E126F000E156F010E3F
:1047B800146F010E0001F46F010E0101496F8FBEE5
:1047C800E8EF23F0EAEF23F0F4EF23F0000E010105
:1047D800156F000E146F000E136F000E126F8F9E70
:1047E80012008FB0FAEF23F0FCEF23F065EF24F00E
:1047F8000101324B332B32513311D8B406EF24F078
:1048080008EF24F0ABEF24F08FB00DEF24F00FEF9A
:1048180024F05EEF24F04D0E5D6E8451D8A417EF9E
:1048280024F019EF24F05EEF24F0010E846F010EDE
:10483800B16F000E0001696F300E686F54EC2BF0F9
:1048480068C018F169C019F118C11EF119C11FF12A
:10485800020E5E18D8A433EF24F035EF24F045EFAC
:1048680024F05C5007E1C90E5B5CD8B03EEF24F041
:1048780040EF24F045EF24F0000E0001E76F010E31
:10488800E66F030E5E18D8A44CEF24F04EEF24F028
:104898005EEF24F0C30E5B5C010E5C58D8B057EF96
:1048A80024F059EF24F05EEF24F0000E0001E76FCA
:1048B800010EE66F000E0101336F000E326FABEF91
:1048C80024F08FA06AEF24F06CEF24F0ABEF24F013
:1048D8000101324B332B32513311D8B476EF24F027
:1048E80078EF24F0ABEF24F08FA07DEF24F07FEF7A
:1048F80024F05EEF24F0540E5D6E8405D8A487EF93
:1049080024F089EF24F05EEF24F0000E0001E76F39
:10491800000EE66F000E0101356F000E346F000EB9
:104928000001E56F000EE46F000E0201426F000EF9
:10493800416F000E0001F66F000E01011F6F000E9F
:104948001E6F010EB16F000E846F5EEF24F012002F
:104958006DC060F06EC061F0000E0001636F0A0E5A
:10496800626FBEEC2AF0300E000160250301106F63
:10497800000E000161210301116F6DC066F06EC069
:1049880067F0000E0001696F0A0E686F11EC2AF0DB
:1049980066C06DF067C06EF06DC060F06EC061F00B
:1049A800000E0001636F0A0E626FBEEC2AF0300E33
:1049B8000001602503010E6F000E00016121030153
:1049C8000F6F6DC066F06EC067F0000E0001696F72
:1049D8000A0E686F11EC2AF066C06DF067C06EF0C1
:1049E8006DC060F06EC061F0000E0001636F0A0ECA
:1049F800626FBEEC2AF0300E0001602503010C6FD7
:104A0800000E0001612103010D6F6DC066F06EC0DC
:104A180067F0000E0001696F0A0E686F11EC2AF04A
:104A280066C06DF067C06EF06DC060F06EC061F07A
:104A3800000E0001636F0A0E626FBEEC2AF0300EA2
:104A48000001602503010A6F000E000161210301C6
:104A58000B6F000E0101426F4251020D0A0EF32442
:104A6800D96E030EF420DA6EDF5051EC2DF00101FF
:104A7800422B030E426543EF25F045EF25F030EF5A
:104A880025F012000001C035C135C76FC751D8A441
:104A980050EF25F052EF25F05CEF25F0000EBE6FC9
:104AA800000EBF6F000EC06F000EC16FC9EF25F07A
:104AB800BEC0C2F0BFC0C3F0C0C0C4F0C1C0C5F022
:104AC800200E6CEF25F0D890C533C433C333C233FE
:104AD800E82E67EF25F0C251C66FC08FFF0EBE17D4
:104AE800FF0EBF17FF0EC017000EC117960EC75F47
:104AF800C7BF83EF25F081EF25F099EF25F0C75167
:104B0800800A970FD8B08BEF25F08DEF25F08FEF47
:104B180025F052EF25F0D890C133C033BF33BE33F0
:104B2800C73F8FEF25F0B1EF25F01F0EC7659FEF48
:104B380025F0A1EF25F0A9EF25F052EF25F0D89048
:104B4800BE37BF37C037C137C707C751D8A4AFEF83
:104B580025F0B1EF25F0A3EF25F0C651D8B4B7EF93
:104B680025F0B9EF25F0C1EF25F0C11FC01FBF1F09
:104B7800BE6D000EBF23C023C123BEC0BEF0BFC0A0
:104B8800BFF0C0C0C0F0C1C0C1F01200000E0001EB
:104B980074157C6F000E75157D6F800E76157E6F0F
:104BA8007F0E77157F6F7C517D117E117F11D8A400
:104BB800E0EF25F0E2EF25F0EAEF25F0000E746F44
:104BC800000E756F000E766F000E776F000E781569
:104BD8007C6F000E79157D6F800E7A157E6F7F0EC3
:104BE8007B157F6F7C517D117E117F11D8A4FFEF5B
:104BF80025F001EF26F009EF26F0000E786F000E81
:104C0800796F000E7A6F000E7B6F77AF0EEF26F08C
:104C180010EF26F019EF26F0746D751FD8B0752BBC
:104C2800761FD8B0762B800E77577BAF1EEF26F015
:104C380020EF26F029EF26F0786D791FD8B0792B70
:104C48007A1FD8B07A2B800E7B57000E741B000E8B
:104C5800751B000E761B800E771B000E781B000E4E
:104C6800791B000E7A1B800E7B1B7851745D79517D
:104C780075597A5176597B517759D8B046EF26F055
:104C880048EF26F04BEF26F0D8904CEF26F0D8806E
:104C98001200433444344A6E4A50D8A456EF26F0E2
:104CA80058EF26F062EF26F0000E416E000E426EBD
:104CB800000E436E000E446ECFEF26F041C045F063
:104CC80042C046F043C047F044C048F0200E72EF9F
:104CD80026F0D8904832473246324532E82E6DEFFA
:104CE80026F04550496E438EFF0E4116FF0E4216C0
:104CF800FF0E4316000E4416960E4A5E4ABE89EF12
:104D080026F087EF26F09FEF26F04A50800A970F8B
:104D1800D8B091EF26F093EF26F095EF26F058EFF4
:104D280026F0D89044324332423241324A3E95EF1F
:104D380026F0B7EF26F01F0E4A64A5EF26F0A7EF7E
:104D480026F0AFEF26F058EF26F0D89041364236DD
:104D5800433644364A064A50D8A4B5EF26F0B7EF92
:104D680026F0A9EF26F04950D8B4BDEF26F0BFEFE2
:104D780026F0C7EF26F0441E431E421E416C000E6B
:104D880042224322442241C041F042C042F043C083
:104D980043F044C044F01200730E00016419D8A413
:104DA800D8EF26F0DAEF26F014EF27F0000E666F42
:104DB800000E656F07EF27F0000E686F000E676F33
:104DC800000E6A6F000E696FEFEC2CF00001694B62
:104DD8006A2B6A5109E10A0E695DD8A0F6EF26F040
:104DE800F8EF26F0E8EF26F0674B682BE80E675DD2
:104DF800030E6859D8A003EF27F005EF27F0E4EF7A
:104E080026F0654B662B6251655D63516659D8A0E3
:104E180010EF27F012EF27F0E0EF26F044EF27F02D
:104E28006D0E6419D8A41BEF27F01DEF27F044EF8F
:104E380027F0000E686F000E676F39EF27F0000E3D
:104E48006A6F000E696FEFEC2CF00001694B6A2B5A
:104E58006A5109E10A0E695DD8A035EF27F037EFEE
:104E680027F027EF27F0674B682B6251675D635186
:104E78006859D8A042EF27F044EF27F023EF27F036
:104E88001200076E0750D10F076E000E0001FC6F6D
:104E9800070EFC6552EF27F054EF27F056EF27F086
:104EA8007AEF27F0FC51020DF3CF01F0F4CF02F0B6
:104EB8000750100DE50EF324036EFC0EF420046E6B
:104EC80001500324056E02500420066E05C0F6FF4B
:104ED80006C0F7FF120EFC25D96EDA6A030EDA2235
:104EE8000800F5CFDFFFFC2B4CEF27F00101FC0594
:104EF800D8A481EF27F083EF27F086EF27F0010E83
:104F08000301196F030112B102D0869001D0868087
:104F1800030113B102D0869201D08682030114B135
:104F280002D0869401D08684030115B102D08696FA
:104F380001D08686030116B102D0869801D08688F2
:104F4800030117B102D0869A01D0868A030118B1ED
:104F580002D0869C01D0868C030119B102D0869EAE
:104F680001D0868E12002A0EF66E5A0EF76E000ECB
:104F7800F86E04EE00F010EE22F00900F5CFEEFF17
:104F8800E550E150FAE1C60EF66E580EF76E000EC7
:104F9800F86E03EECAF010EE36F00900F5CFEEFF1A
:104FA800E550E150FAE1EA0EF66E5A0EF76E000E81
:104FB800F86E02EEF7F010EE08F00900F5CFEEFFFC
:104FC800E550E150FAE1F80EF66E5A0EF76E000E53
:104FD800F86E0900F5CFFEF00900F5CFFFF0FA0EE4
:104FE800F66E5A0EF76E000EF86E0900F5CF5EF0F9
:104FF80003EE00F0CA0EEE6AE806FDE102EE00F0EC
:10500800F70EEE6AE806FDE101EE00F011EE00F0A1
:10501800EE6AE550E150FCE1E250FAE100EECAF038
:10502800340EEE6AE806FDE15D6A5C6A5B6A5A6AFC
:10503800596A5F905F92000EF86E000113EF0DF051
:105048006DC060F06EC061F0000E0001636F0A0E63
:10505800626FBEEC2AF000016051300FCD6F6DC059
:1050680066F06EC067F0000E696F0A0E686F11EC8B
:105078002AF066C06DF067C06EF06DC060F06EC05B
:1050880061F0000E0001636F0A0E626FBEEC2AF039
:1050980000016051300FCC6F6DC066F06EC067F0D4
:1050A800000E696F0A0E686F11EC2AF066C06DF089
:1050B80067C06EF06DC060F06EC061F0000E000158
:1050C800636F0A0E626FBEEC2AF000016051300F68
:1050D800CB6F6DC066F06EC067F0000E696F0A0E88
:1050E800686F11EC2AF066C06DF067C06EF06DC095
:1050F80060F06EC061F0000E0001636F0A0E626F0F
:10510800BEEC2AF000016051300FCA6F12006DC06A
:1051180060F06EC061F0000E0001636F0A0E626FEE
:10512800BEEC2AF000016051300FD16F6DC066F0FF
:105138006EC067F0000E696F0A0E686F11EC2AF0F6
:1051480066C06DF067C06EF06DC060F06EC061F053
:10515800000E0001636F0A0E626FBEEC2AF00001B8
:105168006051300FD06F6DC066F06EC067F0000EF2
:10517800696F0A0E686F11EC2AF066C06DF067C09F
:105188006EF06DC060F06EC061F0000E0001636FDC
:105198000A0E626FBEEC2AF000016051300FCF6F2B
:1051A8006DC066F06EC067F0000E696F0A0E686F1A
:1051B80011EC2AF066C06DF067C06EF06DC060F04B
:1051C8006EC061F0000E0001636F0A0E626FBEECE4
:1051D8002AF000016051300FCE6F12008EA6F7EF53
:1051E80028F0F9EF28F035EF29F001011205131125
:1051F800D8A401EF29F003EF29F00DEF29F0010EF3
:105208000001F66F000E01011F6F000E1E6F55EFB3
:1052180029F01C4B1D2B1C511D11D8B416EF29F079
:1052280018EF29F055EF29F08EA61DEF29F01FEF92
:1052380029F02EEF29F0000E0001696F300E686F1B
:1052480054EC2BF068C018F169C019F118C11EF1AF
:1052580019C11FF1000E01011D6F000E1C6F55EFE3
:1052680029F08EB63AEF29F03CEF29F055EF29F0F6
:1052780001011C4B1D2B1C511D11D8B446EF29F000
:1052880048EF29F055EF29F08EB64DEF29F04FEF92
:1052980029F02EEF29F0000E1F6F000E1E6F2EEF63
:1052A80029F012000001666F8A98010E0101E76F6C
:1052B800000E0001686F66C067F068C064F067C0E0
:1052C80065F0642B6AEF29F0D8906537642F68EF92
:1052D80029F000016551676F67BF75EF29F079EF15
:1052E80029F0646B642B7BEF29F00001646B643B4D
:1052F8008F506419EF0B64198F6EC6EC2CF08F86F3
:10530800C6EC2CF08F96C6EC2CF00001682B070E2B
:10531800686591EF29F093EF29F05FEF29F0000E0F
:105328000101E76F43EC2CF012000F01199119935A
:1053380019951999119F119D219311978990899217
:10534800899489988A92889E889C88962691269323
:10535800269526972699269B269D269F8B908B928D
:105368008B948B968B988B9A8B9C8B9E2E958C947A
:105378002191119B19978A808986219721990E017D
:10538800E483A89EA890A892A894A896D093C893BE
:105398000F0121958A94219D219F858C8A9C8A8E54
:1053A80012002AC101F02BC102F0FD0E015C080EAB
:1053B8000258D8A0E2EF29F0E4EF29F009EF2AF02B
:1053C800940E015C110E0258D8B0EDEF29F0EFEF02
:1053D80029F009EF2AF00101244B252B255109E179
:1053E800030E245DD8A0FBEF29F0FDEF29F010EFA4
:1053F8002AF0010EC56F000EC16F010E8F6F000EEF
:10540800256F020E246F10EF2AF0000E0101C56F00
:10541800000E256F000E246F1200000E00016B6F46
:10542800000E6A6F68516911D8B41DEF2AF01FEF9A
:105438002AF047EF2AF0010E6C6F27EF2AF0D89078
:10544800683769376C2B69AF2CEF2AF02EEF2AF0FA
:1054580023EF2AF0D8906A376B376851665D695137
:105468006759D8A03AEF2AF03CEF2AF041EF2AF02A
:105478006851665F6951675B6A81D89069336833A0
:105488006C2F2EEF2AF06AC066F06BC067F012002E
:10549800000E0C6E000E0B6E09500A10D8B457EFB0
:1054A8002AF059EF2AF081EF2AF0010E0D6E61EF14
:1054B8002AF0D89009360A360D2A0AAE66EF2AF085
:1054C80068EF2AF05DEF2AF0D8900B360C360950B9
:1054D800075C0A500858D8A074EF2AF076EF2AF033
:1054E8007BEF2AF00950075E0A50085A0B80D890C3
:1054F8000A3209320D2E68EF2AF00BC007F00CC0F3
:1055080008F01200888088828884898A8A8A8C8038
:105518008C8288880F01118111831185198B218B49
:105528002E812E8311890E01E39B0F015F915F93FA
:105538005F955F975F995F9B000E0001FE6F0F01FB
:1055480058915893589960983F0E576F6084000E91
:105558005C6F0E01CB91C381F28CF28E010E0001BB
:10556800636FF40E626F6D0E646FD0EC26F0608E80
:1055780060801200000162516311D8B4C6EF2AF0AE
:10558800C8EF2AF0ECEF2AF0010E646FD0EF2AF092
:10559800D89062376337642B63AFD5EF2AF0D7EF23
:1055A8002AF0CCEF2AF06251605D63516159D8A0AE
:1055B800E0EF2AF0E2EF2AF0E6EF2AF06251605FAE
:1055C8006351615BD89063336233642FD7EF2AF05D
:1055D80060C060F061C061F0120009EF2BF061C09B
:1055E800F6FF62C0F7FF000EF86E0E0EF76403D0E8
:1055F8000800F55005D0F6CFD9FFF7CFDAFFDF5016
:1056080051EC2DF00001614B622B61C0F6FF62C0C6
:10561800F7FF000EF86E0E0EF76403D00800F55081
:1056280005D0F6CFD9FFF7CFDAFFDF500009D8A4AD
:1056380020EF2BF022EF2BF0F3EF2AF012006DC0D1
:1056480071F06EC072F000017151716F726B6E5122
:105658006F6F706B6F516F6F706B819C819E6FC0A5
:105668007FFF71C07EFF6BC080FF8184F29E550E64
:10567800826EAA0E826E8182F28E000E636F0A0E0F
:10568800626F6D0E646FD0EC26F081B24EEF2BF096
:1056980050EF2BF049EF2BF00E01D19B81941200B3
:1056A80068C060F069C061F0C1EC2BF000016A6F5E
:1056B8006A516E6F6F6B010E6825606F000E69216D
:1056C800616FC1EC2BF000016A6F6A516C6F6D6BF2
:1056D8006C516B6F6A6B6E516A11706F6F516B1101
:1056E800716F70C068F071C069F01200000E00019F
:1056F800881B000E891B000E8A1B800E8B1B84C022
:1057080074F085C075F086C076F087C077F088C0E1
:1057180078F089C079F08AC07AF08BC07BF072EC9F
:1057280010F074C084F075C085F076C086F077C03C
:1057380087F01200000E151A000E161A000E171A1E
:10574800800E181A11C001F012C002F013C003F045
:1057580014C004F015C005F016C006F017C007F015
:1057680018C008F0D3EC12F001C011F002C012F01A
:1057780003C013F004C014F0120060C066F061C0EA
:1057880067F000016651626F636B6151666F676B0A
:105798006651666F676B819C819E66C07FFF62C0A1
:1057A8007EFF818081B0DBEF2BF0DDEF2BF0D6EFB1
:1057B8002BF080CF64F00001656B645112000E017C
:1057C800E589E58BE581E59D160EFE6F090EFD6FF7
:1057D8000F01219D219F8A9C8A8E9E989E9C9E8A5D
:1057E8009E949D8E9D9C9D889F964D0E9B6E000E4F
:1057F8009C6E0E01C58BC599F28EF28C120073C097
:1058080079F074C07AF000017451776F786B79C0C1
:105818006BF07AC06CF075C06DF076C06EF023EC5A
:105828002BF077C06BF078C06CF0010E0001752585
:105838006D6F000E76216E6F23EC2BF0120069C09D
:105848006DF06AC06EF000016E516D6F6E6B0F0ED9
:105858006D156D6F6E6B69C06BF06AC06CF035ECDE
:105868002DF0C00E56EC29F000016D5156EC29F0D0
:1058780000016B5156EC29F05EEC2DF012008A986D
:105888008F86C6EC2CF08F88C6EC2CF0000E000139
:10589800636F000E626F8A88C6EC2CF057EF2CF00D
:1058A8000001624B632B8FB85CEF2CF05EEF2CF09D
:1058B80054EF2CF08A988F96C6EC2CF01200010059
:1058C80041542B424C454D4F44453D300D0A004153
:1058D800542B424C454D4F44453F0D0A0041542B33
:1058E800424C454E414D453F0D0A0041540D0A00BA
:1058F8002B2B2B000E01E589E58BE581E59F160E24
:10590800F66F090EF56F899C898E9E999E9D9E8BD8
:105918009E959D8F9D9D9D899F974D0E9B6F000E17
:105928009C6FC58FC59D1200D588D590D592D5940A
:10593800D596D69AD68CD69ED698D690D692D69408
:10594800D696D58E0E01C28BCA9BF29AF28EF28C35
:10595800D10ED46E200ED36E1200020E5E6E010EB2
:105968000101636F63C1FAF05EC073F00001746BEC
:10597800000E766F280E756F03EC2CF0000E0101F7
:10598800636F1200000E0001616F000E606F604BC4
:10599800612B61BFD8EF2CF0615108E16005D8A0F8
:1059A800D8EF2CF0DAEF2CF0CBEF2CF0120000013E
:1059B80060516203F3CF64F0F4CF65F06051630384
:1059C800F350652761516203F350652764C060F0A6
:1059D80065C061F01200000E0001616F000E606F7B
:1059E800604B612B615109E1080E605DD8A0FFEFA3
:1059F8002CF001EF2DF0F4EF2CF01200015003020F
:105A0800F3CF05F0F4CF06F001500402F350062658
:105A180002500302F350062605C001F006C002F04A
:105A2800120041542B424C454E414D453D41444F97
:105A3800520D0A0041542B5452414E53454E544581
:105A4800520D0A00600E0E01D86F000EDA6FDC8D61
:105A5800DC85070EDE6F000EDD6F000EDB6FE09F4A
:105A680012008A988F88C6EC2CF08F86C6EC2CF032
:105A78008F98C6EC2CF08F96C6EC2CF08A98120002
:105A88000001606F0E01CDAD4CEF2DF04EEF2DF003
:105A980046EF2DF060C09AFE12000001606F0E0103
:105AA800CDA959EF2DF05BEF2DF053EF2DF060C02D
:105AB8009AFF12008A988F98C6EC2CF08F86C6EC55
:105AC8002CF08F88C6EC2CF08A98120026EC2DF06A
:105AD80098EC2CF099EC29F086EC2AF079EC2DF072
