:100000008531512D58340134803120007F08D300D0
:100010000B1D46290B1195012300D6018531D425EE
:10002000803101302300B2070030B33D01302000A1
:10003000CB004B082200C20701302000CB004B0848
:100040002200C10701302000CB004B082300CC0761
:1000500001302400B0070030B13D22003C03031DF5
:100060004028240042084304031D3C282200BC0110
:100070002400C201C30140280130C2020030C33B4A
:1000800022003903031D5828230034083504031DBA
:1000900053282000E5118E110130CB004B08EF00F2
:1000A0002200B901582801302300B4020030B53BCA
:1000B00022003B08031DA4283C08031DA42820009F
:1000C0008C1A6E2822003A08031D6E28BA01BA0A5B
:1000D000E8302400AE000330AF00A42820008C1AC2
:1000E0009F2822003A03031D9F2801302400AE02FE
:1000F0000030AF3B2E082F04031DA4282200BA01B4
:10010000BB01BB0AE8302400AE000330AF00220080
:100110006B1620005D08F1005C08F0000030F20072
:10012000F3009831772080317108F7007008F600ED
:100130009831AE2080312300EA01EB01A428200091
:100140008C1EA4282200BA0123001D19A9289D1C79
:10015000AD289D131D129D171D1601303302F4307A
:1001600003193202031CDC28B201B3010130200064
:10017000CB004B082200C007503020006406031952
:10018000C52847306406031DD928043022004002E8
:10019000031CD72801302000CB004B082200C800E8
:1001A00004302000CB004B082200C000DC28C8012E
:1001B000DC282200C801C001220042080319E728F8
:1001C000C20101302000CB004B082200DE000230CB
:1001D0004102031C4629C1014C08031DF9280030C7
:1001E00020008E1A01302300D4002200CC01CC0A5A
:1001F0004629CC01003020008E1A01302200E50093
:100200002300540822006506031D0829013009292E
:1002100000302000CB004B082200E4006403031DE3
:10022000382965080319162958301729503020003D
:10023000D4000030D5005408CB004B08EE005030FD
:100240006E06031D3329ED1422003D08031D3829D5
:10025000BC01BC0AE8302400C2000330C300220005
:10026000BD01BD0A3829ED1022003D030319BD016F
:100270006E0820006E06031940292300B201B30165
:1002800020006E08CB004B082200EE002000110C6D
:100290000139CB002100110C013920004B05031955
:1002A000532991104D2D110E0139CB002100110E53
:1002B000013920004B0503195F2911124D2D120839
:1002C0000139CB0021001208013920004B05031928
:1002D000422B121022003208031D83292500190821
:1002E0002000CB004B082200B30025001808200096
:1002F000CB004B082200B40001302000CB004B089B
:100300002200B200422B250019082000CB004B0828
:100310002200B500250018082000CB004B08220061
:10032000B6002000970196012200B2013508200096
:10033000CB00CC014B082300B00020004C08230068
:10034000B1000830B035B10D890BA2292200360862
:100350002000CB00CC014B082300B00420004C0847
:100360002300B104220033082000CB00CC014B084D
:100370002300AC0020004C082300AD000830AC3551
:10038000AD0D890BBF29220034082000CB00CC0121
:100390004B082300AC0420004C082300AD042C09BA
:1003A0002000CB0023002D092000CC00CB0A03192C
:1003B000CC0A2300300820004B072300AE00310890
:1003C00020004C3D2300AF002F08BB002E08BA00D0
:1003D000240020082000CB00240021082000CC00AD
:1003E000240022082000CD00240023082000CE0095
:1003F00023003A082000CF0023003B082000D00053
:10040000D101D2014F08CB075008CC3D5108CD3D5A
:100410005208CE3D4E082400A30020004D082400C1
:10042000A20020004C082400A10020004B0824005A
:10043000A00001302000CB004B082200D60710306E
:100440005602031C422BD601240020082000CB00BA
:10045000240021082000CC00240022082000CD0028
:10046000240023082000CE000530CE36CD0CCC0C65
:10047000CB0C890B352A4C082200EA0020004B08DF
:100480002200E9006908F0006A08F100F201F301B6
:100490000030F7000F30F6004230F5004030F40035
:1004A0009D314525803171082000EA007008E9007F
:1004B00000302400A3000030A2000030A100003072
:1004C000A00000302000A0007A30A1004430A2003B
:1004D00022006A08F9006908F800A731DA2780319C
:1004E00078082000A3007908A4007A08A5009F31AD
:1004F00057278031200020082300E1002000210838
:100500002300E200200022082300E3000330200043
:100510006A02E73003196902031C932AE730E900F5
:100520000330EA00992A69086A04031D992AE9013F
:10053000EA016A08F9006908F800A731DA27803172
:1005400078082000A3007908A4007A08A500CD301F
:10055000A0004C30A1003E30A2009031B520803187
:1005600020002008B3002108B4002208B5002400B0
:100570004B08F9004A08F800A731DA2780317808DB
:100580002000A3007908A4007A08A500CD30A000BF
:100590004C30A1003F30A2009031B52080312000C6
:1005A0002008B0002108B1002208B2009131692171
:1005B000803120003008BD003108BE003208BF0085
:1005C0009E314926803120003E082200A1002000F3
:1005D0003D082200A00020006A08F9006908F80020
:1005E000A731DA27803178082000A3007908A40019
:1005F0007A08A5009A30A0005930A1004030A2002E
:100600009F315727803120002008BD002108BE00FF
:100610002208BF009E314926803120003D08CB00D2
:100620004B082400E300033022002102E7300319C5
:100630002002031C202BE730A0000330A100262B52
:1006400020082104031D262BA001A101210824005C
:10065000CB00220020082400CA0001302000CB007B
:100660004B082300CA00D001CC0122004503031D22
:10067000402B20006C1B402B2200B701B70A422BF5
:100680002200B7012000110E890C0139CB00210096
:10069000110E890C013920004B0503194D2D9112C3
:1006A000230019082000CB004B08E20023001D1D89
:1006B0005B2B9D139D179D1C612B1D121D169D13F9
:1006C0009D17403020006206031D742B2200630832
:1006D000031D742B30083104031D742BE301E30A5E
:1006E000B801B001B1014C2D233020006206031D7A
:1006F000872B22006308031D872B30083104031D5C
:10070000872BE3010130B0000030B1004B2D2200F7
:100710006308031DEE2B30033104031DEE2B230071
:1007200042084304031DA42B20006208CB00CC0127
:100730004B082300C00020004C082300C1000130FA
:10074000C2000030C3004D2D42034304031D4D2D54
:1007500020006208CB00CC012300410820004C0699
:10076000031DB62B2300400820004B06031D442D1B
:100770002200C001230040082000CB004B08EC0001
:10078000230040082000CB004B082400DA002000A2
:10079000EC196C1FE22BEC1FD62B21000C10200053
:1007A0000C1424002B08F7002A08DE2B21000C1063
:1007B00020000C1024002D08F7002C08F6009831BA
:1007C000AE2080312300C201C3012200E301B00149
:1007D000B101B801DF01E201E20A4D2D6303031DFF
:1007E0004D2D30083104031D4D2D173038020318EC
:1007F000142C20006208CB0022003808A03E86009E
:100800000230870020004B08810022005F08200092
:100810006207CB004B082200DF0001302000CB0034
:100820004B082200B8074D2D5F0820006206031D0B
:10083000442D2200C001A601A70100302702173075
:10084000031926020318412C2608A03E8600023018
:10085000870001082000CB00220026084E3E8600BB
:100860000230870020004B08810001302200A607DB
:100870000030A73D00302702173003192602031C61
:10088000242C24004E082000CB004B08E4005E0816
:10089000031D532C24004F082000CB00CC014B0833
:1008A000DC004C08DD0024005B082000CB004B0876
:1008B000ED006D1C5E2C6512E516602C6516E512C8
:1008C0005E08031D7A2C240053082000CB00CC01C5
:1008D0004B08DA004C08DB000830DA35DB0D890BF9
:1008E0006D2C240054082000CB00CC014B08DA0406
:1008F0004C08DB04240050082000CB00CC014B083E
:100900002200AE0020004C082200AF000830AE35B7
:10091000AF0D890B872C240051082000CB00CC019F
:100920004B082200AE0420004C082200AF04240033
:1009300056082000CB00CC014B082400E500200025
:100940004C082400E6000830E535E60D890BA42CA0
:1009500057082000CB00CC014B082400E504200000
:100960004C082400E60458082000CB00CC014B08BA
:100970002400E70020004C082400E8000830E73598
:10098000E80D890BBF2C59082000CB00CC014B0887
:100990002400E70420004C082400E8045D0820003F
:1009A000CB004B082300C70024005C082000CB00CC
:1009B000CC014B082300C40020004C082300C500D4
:1009C000240060082000CB004B082200C300200058
:1009D0005E08031DF12C24005A082000CB004B08B0
:1009E000EC0024005E082000CB004B082300CE0062
:1009F00024005F082000CB004B082300CF00240018
:100A000062082000CB004B082300D80022003B08DE
:100A1000031D182D24005E082000CB004B08220087
:100A2000EB0024005F082000CB004B082200EC0004
:100A3000240061082000CB004B082200C4002300E2
:100A4000581C262D20006511E614292D200065155F
:100A5000E6106D1C2F2D2300C901C90A312D23007A
:100A6000C9012200E301B801DF012300C201C30173
:100A70002200B001B101E601E60A01302000CB00FE
:100A80004B082200D5004D2D2300C201C3012200D6
:100A9000E301B001B101B801DF0120005308FF00FC
:100AA00009008531532D96308400273085005A3057
:100AB000FE000030FF009031002085315630840068
:100AC000003085001830FE000030FF00903100201B
:100AD000853120308400013085004E30FE0000302A
:100AE000FF00903100208531A03084000130850066
:100AF0003930FE000030FF00903100208531203079
:100B00008400023085004530FE000030FF00903147
:100B100000208531A0308400023085001630FE00B0
:100B20000030FF00903100208531203084000330F8
:100B300085004930FE000030FF00903100208531F3
:100B4000803102208531EE00803103208531EF00B5
:100B50002100883103208531EF00220088310420F4
:100B60008531EE00883105208531EF004830840062
:100B700098308500D9308600013087000030FF00B2
:100B80001630A731AC2785310030840098308500BD
:100B900065308600023087000030FF000830A73142
:100BA000AC2720008831B12820008D0106305F027B
:100BB000031C882E942E22000E120C138C1320007E
:100BC0005F08D93E8600013087000108F000F1017E
:100BD000F035F10D003070078400A030713D8500C4
:100BE000000822008D0020006B1C852E822E220022
:100BF0000E160C138C1320005F08D93E86000130BE
:100C000087000108F000F101F035F10D00307007A8
:100C10008400A030713D8500000822008D00200076
:100C2000EB1C852E822E22000E120C178C13200036
:100C30005F08D93E8600013087000108F000F1010D
:100C4000F035F10D003070078400A030713D850053
:100C5000000822008D0020006B1D852E822E2200B0
:100C60000E160C178C1320005F08D93E8600013049
:100C700087000108F000F101F035F10D0030700738
:100C80008400A030713D8500000822008D00200006
:100C9000EB1D852E822E22000E120C138C172000C5
:100CA0005F08D93E8600013087000108F000F1019D
:100CB000F035F10D003070078400A030713D8500E3
:100CC000000822008D0020006B1E852E822E22003F
:100CD0000E160C138C1720005F08D93E86000130D9
:100CE00087000108F000F101F035F10D00307007C8
:100CF0008400A030713D8500000822008D00200096
:100D0000EB1E852E22008D170C2F22008D130C2F29
:100D100020005F0884000630040203180C2FA03165
:100D200004356E3E82000C2F06305F06031D9F2E99
:100D300022000E120C178C1720006508AA2E07300F
:100D400020005F06031DAD2E22000E160C178C1717
:100D50002000660822008D000C2F083020005F065E
:100D6000031D0C2F0F3021008D002200CB016430B9
:100D70004B02031CC32E0130F0007008CB07643017
:100D80004B020318BB2E20000D08F0007008E10094
:100D90002200CB01C8304B02031CD62E0130F000DC
:100DA0007008CB07C8304B020318CE2E5D08200018
:100DB0006106031D022F6108F0007008E30063085C
:100DC0000F39F0007008E3006303031DE92E0130C2
:100DD000FD2E023020006306031DF02E0230FD2E92
:100DE000043020006306031DF72E0330FD2E08306B
:100DF00020006306031D022F0430F000700821005C
:100E0000EF00042F2100EF0120006108F0007008BE
:100E10002200DD0021008D010130F000700820006B
:100E2000DF0709305F02031C0800DF010800210012
:100E30003508BB003608BC003708BD0003103C0D68
:100E40003D0DBE003E08BF003F08031D2E2F0030A1
:100E5000B5000030B6000030B70008003808BB000D
:100E60003908BC003A08BD0003103C0D3D0DBE0022
:100E70003E08C4004408031D442F0030B500003074
:100E8000B6000030B700080044087B3EBB003B08BA
:100E9000BF073508BB003608BC003708BD0010305E
:100EA000BD36BC0CBB0C890B502F3B08BE003E0866
:100EB000C4003808BB003908BC003A08BD00103037
:100EC000BD36BC0CBB0C890B602F3B08BE003E0836
:100ED000C4068030BB003B08C405B617B917FF3005
:100EE000B805FF30B9050030BA050030C000003049
:100EF000C1000030C2000730BB003B08C300351CF6
:100F0000872F3808C0073908C13D3A08C23D013073
:100F1000B736B60CB50C890B882F0130B835B90D32
:100F2000BA0D890B8E2F0130C302031D7F2F0930AC
:100F3000BB003B08C300351CA32F3808C007390885
:100F4000C13D3A08C23D0130B736B60CB50C890B2D
:100F5000A42F0130C236C10CC00C890BAA2F01305E
:100F6000C302031D9B2F4008A0004108A1004208B6
:100F7000A2003F08BB003B08A3004408BC003C089B
:100F8000A4009B31F12321002008B5002108B60000
:100F90002208B70008002100A501A60120082104AD
:100FA0000319FB2FA701A70AA11BE02F0130A035D1
:100FB000A10D890BD72F0130A4002408A707D42F37
:100FC0000130A535A60D890BE12F21082302031D51
:100FD000EB2F20082202031CF22F2008A202210876
:100FE000A33B25140130A136A00C890BF32F01304F
:100FF000A702031DE02F2608A1002508A000080075
:10100200080008005834FF345A3422006B082100CB
:10101200DB005B082400DE0022006C082100DB00FC
:101022005B082400DF0022006B1C21280130210014
:10103200DB005B082200E7002300DE01DE0A8628CF
:10104200EB1C2B2801302100DB005B082200E700AB
:10105200023071286B1D352801302100DB005B084E
:101062002200E70003307128EB1D3F2801302100E8
:10107200DB005B082200E700043071286B1E492860
:1010820001302100DB005B082200E70005307128F7
:10109200EB1E532801302100DB005B082200E70031
:1010A200063071286B1F6628503020006406031931
:1010B2005E2847306406031D662801302100DB00EC
:1010C2005B082200E7000730712822004803031D55
:1010D200772801302100DB005B082200E70008309E
:1010E2002100DB005B082300DE0086286C1D8428BB
:1010F20001302100DB005B082200E7002300DD0154
:10110200DD0ADE0186282200E70122006703031DB3
:10111200080001302100DB005B082200E8000F30EC
:101122002100DB005B082300D9001C302100DB001A
:101132005B082300DA001C302100DB005B0823007F
:10114200DB00DC01DD0120008E1100302100D30024
:10115200D4009831FB202000EB012200EB1708009D
:10116200A731A227883113302400350288300319B1
:1011720034020318C22801302400B4070030B53D00
:10118200B428E8302100A0000330A1009831D32018
:101192008831983132208831A731B8278831983187
:1011A2005E208831A731C9278831A731ED278831E0
:1011B2008B170B1720008E1121000C102200BC018E
:1011C200BC0AD0302400C2000730C3000B3021001B
:1011D200ED006D082300D9000E302100ED006D08EE
:1011E2002300DA001C302100ED006D082300DB0033
:1011F2001C302100ED006D082300DC0002302100CC
:10120200ED006D082300DD0003302100ED006D08C4
:101212002300DE0020006B16D0302100A000073032
:10122200A1009831D320883122000E1020006B12C9
:10123200E501E6016514E6146516EB01EB146B1685
:10124200EC012200AE01AF012000DA01DB01220035
:101252002F082100A90022002E082100A8009931A0
:10126200CE21883120005B082100A90020005A0805
:101272002100A8009A317B22883123009E161D1678
:10128200210091168B170B178830A0001330A10094
:101292009831D32088312100111222003B03031D13
:1012A2006B2920005D082100A10020005C082100BC
:1012B200A0000030A200A3009831922088312100C2
:1012C2002108D4002008D3009831FB208831230064
:1012D200EA01EB0122006203031D76295508031D72
:1012E2007629E20198311D20883122005503031D21
:1012F20085296603031D8529D5019B312C2388315D
:101302002300D5012000DE0122006708031DE72F1C
:1013120043082100ED00EE016D08A0006E08A10057
:10132200883101208831220044082100ED00EE01BD
:101332006D08A0006E08A1008831022088312200C9
:101342003703031DA829B701943171248831220083
:101352005E03031D522BDE014608031D562A9C31F3
:10136200CD2488312100ED006D082200C700013034
:101372002100ED006D082200CD072B304706031D2A
:10138200D3295B0820005C07DC005D0803185D0AB6
:10139200DD0000305D02F03003195C02031C132AE9
:1013A200F030102A2D3022004706031D152A53085B
:1013B2002100ED00EE016E0820005D02031DE5290B
:1013C20021006D0820005C02031CFD292200530845
:1013D2002100ED00EE01ED09EE09ED0A0319EE0A16
:1013E20020005C0821006D072000DC005D08210060
:1013F2006E3D2000DD00082A00305D020A3003192C
:101402005C02031C082A0130DC020030DD3B0030A4
:101412005D020B3003195C020318132A0A30DC0048
:101422000030DD00DE01DE0AC83022004D02031862
:10143200302A2B304706031D252A01302100ED00FA
:101442006D082200D9074F2A2D304706031D4F2A67
:1014520001302100ED006D082200D1074F2AC8306B
:101462004D02031C4F2ACD0159362100ED006D08B3
:101472002200DB0051362100ED006D082200D3006E
:1014820002305B020318472ADB01DB0A02305302F7
:1014920003184D2AD301D30AD901D1010130210009
:1014A200ED006D082200C607522B01302100ED002D
:1014B2006D082200CE079C31562488312100ED00B0
:1014C2006D082000E000E61CC72A2B306006031DD1
:1014D2007E2A22005C0820005A07DA005B08031803
:1014E2005B0ADB0001305B02B93003195A02031CAC
:1014F200BE2AB830DA000130BD2A2D306006031D45
:10150200C02A220054082100ED00EE016E082000DE
:101512005B02031D902A21006D0820005A02031C61
:10152200A82A220054082100ED00EE01ED09EE097F
:10153200ED0A0319EE0A20005A0821006D07200067
:10154200DA005B0821006E3D2000DB00B32A003088
:101552005B02643003195A02031CB32A0130DA0217
:101562000030DB3B00305B02653003195A0203187E
:10157200BE2A6430DA000030DB00DE01DE0A2430ED
:101582002100ED006D082000E000142B651D142BD6
:101592002B306006031DF32A2400550822005C0745
:1015A2002100ED006D082400D500503020006406B3
:1015B200031DE22A513024005502031C112B503026
:1015C200ED2A473020006406031D112B2930240028
:1015D2005502031C112B28302100ED006D08240058
:1015E200D500112B2D3020006006031D112B220087
:1015F200540824005502031C092B22005403FF3A0D
:10160200240055072100ED006D082400D5000E2BA3
:10161200550803190E2B0130D50255080319D501BF
:101622002000DE01DE0AC83022004E020318312BF0
:101632002B3020006006031D252B01302100ED0018
:101642006D082200DA07502B2D3020006006031DA2
:10165200502B01302100ED006D082200D207502BE3
:10166200C8304E02031C502BCE015A082100ED0057
:101672006D082200DC0052082100ED006D082200F6
:10168200D40002305C020318482BDC01DC0A023071
:10169200540203184E2BD401D40ADA01D2012200DB
:1016A200C6016F0821006F0603196E2B6F08933174
:1016B2005523883121006F0803196E2B2300B201D4
:1016C200B30101302100ED006D082200D500013088
:1016D2002100ED006D082300D50021006F08ED0008
:1016E2006D082200EF0020006C19112D220039082C
:1016F200031D112D20005D0822002B06031D852BE2
:1017020020005C0822002A06031D962B2F082300C6
:101712003D06031D902B22002E0823003C06031DCC
:10172200962B20006F03031DFA2B20005D08220078
:101732002B06031DA02B20005C0822002A06031999
:10174200B02B2B0820005D02031DAB2B22002A08C0
:1017520020005C020318B02B2300EE01EE0A2000E9
:10176200651CBF2B65146610E5106B10EB146B1132
:101772005D082100A90020005C08CD2B661CD02B3F
:1017820065106614E5106B10EB106B1122002F0828
:101792002100A90022002E082100A800E12BE51C4F
:1017A200E42B65106610E5146B10EB146B1124002A
:1017B20052082100ED00EE016D08A8006E08A90094
:1017C2009931CE21883120005C082100ED006D089E
:1017D2002400CF002300B201B30101302100ED004B
:1017E2006D082200D50001302100ED006D082300B4
:1017F200D50020005D082200AB0020005C0822001A
:10180200AA002F082300BD0022002E082300BC00DE
:1018120020005B0823003F06031D132C20005A08FA
:1018220023003E06031D192C20006F03031D562CB6
:101832002000E61C562CEB116B16EB126511E61418
:1018420066115B082100A90020005A082100A800A7
:101852009A317B22883120005A082100ED006D0860
:101862002400D40020005B082100ED006D08240054
:10187200D3002300B201B30101302100ED006D0855
:101882002200D50001302100ED006D082300D500B3
:1018920020005B082300BF0020005A082300BE007E
:1018A20064302400EB000030EC00240055082100D5
:1018B200ED00EE0124006C0821006E06031D652C6C
:1018C20024006B0821006D06031D6B2C20006F03A2
:1018D200031DE22C2000651DE22C50306406031D1E
:1018E200912C283024005502031C7F2C5508D83E29
:1018F200BE00FF3003180030BF00912C55082100B4
:10190200ED00EE01ED09EE09ED0A0319EE0A6D088C
:10191200283E2400BE00003021006E3D2400BF009E
:10192200473020006406031DA22C24005508210024
:10193200ED00EE016D082400BE0021006E082400B7
:10194200BF002000EB116B12EB126515E610661159
:1019520024003F082100A90024003E082100A8001D
:101962009A317B228831503020006406031DC02C3E
:101972002830240055020318C02C2630C12C2530F3
:101982002100ED006D082300DC00B201B30101303B
:101992002100ED006D082200D50001302100ED008C
:1019A2006D082300D500BE01BF01240055082100A7
:1019B200ED00EE016D082400EB0021006E0824000A
:1019C200EC002000EC1C8E11EC1DEC2C58306E0645
:1019D20003196D18012D5D082100A10020005C088B
:1019E2002100A0000030A200A3009831922088318B
:1019F20021002108D4002008D3009831FB2088312F
:101A02002300EA01EB012400C801C9012300D2012D
:101A12002000EF012200BF01C5012000EC16E72FD4
:101A220020006C1DE72F5E03031D712D5D0822004F
:101A32002B06031D202D20005C0822002A06031914
:101A4200712D20005C082100ED006D082400CF00FC
:101A52002300B201B30101302100ED006D08220024
:101A6200D50001302100ED006D082300D5002000D3
:101A72005D082200AB0020005C082200AA002000C2
:101A82005D08E8005C08E70068082100A900200062
:101A920067082100A8009831082088312100280811
:101AA200B8002908B9002A08BA009A30B50059309E
:101AB200B6004030B700873117278831210035083A
:101AC200C5003608C6003708C7009E31D0268831C7
:101AD20021004608D4004508D3009831FB20883104
:101AE20020005E03031DA52D5B0823003F06031D96
:101AF2007E2D20005A0823003E060319A52D200042
:101B02005A082100ED006D082400D40020005B0873
:101B12002100ED006D082400D3002300B201B301BF
:101B220001302100ED006D082200D50001302100B6
:101B3200ED006D082300D50020005B082300BF00E4
:101B420020005A082300BE002000EC1CAA2D8E158E
:101B5200AB2D8E11EC1D9D2FEC1E422E2200C501D5
:101B620020005D082100A30020005C082100A200E3
:101B7200220044082100ED00EE016D08A0006E086D
:101B8200A10098319220883121002108A900200863
:101B9200A80098310820883121002808B8002908B7
:101BA200B9002A08BA00D730B5002330B6003C305D
:101BB200B70087311727883121003508C50036085C
:101BC200C6003708C7009E31D0268831210046085A
:101BD2002000E800210045082000E70000306802EC
:101BE2000B30031967020318FA2D0A30E7000030A0
:101BF200E80023006B082100EE0023006A082100A0
:101C0200ED00ED35EE0DED35EE0D6D08D3006E08ED
:101C1200D4009831FB2088312000680823006B0231
:101C2200031D172E2000670823006A020318E22E04
:101C32006A08043EEA0000306B3DEB002200A4017A
:101C4200A501003025020330031924020318E22EF5
:101C5200A201A301753023023030031922020318B6
:101C62003D2E0130A2070030A33D753023023030F3
:101C720003192202031C322E0130A4070030A53DB5
:101C8200222EEC1AE22E2200C501C50A3B08031DD2
:101C9200502E20005D08E8005C08E700532E20006B
:101CA200E701E80122003F08031DE22E2000680838
:101CB2002100A900200067082100A800983108200F
:101CC200883121002808B8002908B9002A08BA007A
:101CD2009A30B5005930B6004030B7008731172727
:101CE200883121003508C5003608C6003708C7000C
:101CF2009E31D026883121004608D4004508D30001
:101D02009831FB20883123006E03031DDF2E6630DD
:101D12002100B5002630B6004030B7002000680828
:101D22002100A100200067082100A000230069080B
:101D32002100A300230068082100A200983192200C
:101D4200883121002108A9002008A8009831082024
:101D5200883121002808B8002908B9002A08BA00E9
:101D6200873117278831210035082300A900210077
:101D720036082300AA00210037082300AB00EE0139
:101D82000030A6000030A7000030A8000030A300F9
:101D92000030A4000030A5000030A0000030A100F7
:101DA2000030A20000302400A4000030A500003062
:101DB200A600CA01CB012200A001A1012200BF019D
:101DC200BF0A20006C1A6D1CF22E2200430821006B
:101DD200ED00EE016D082000E70021006E082000F2
:101DE200E800003068020A3003196702031C252F3D
:101DF20068082100A900200067082100A800983186
:101E02000820883121002808B8002908B9002A08CA
:101E1200BA009A30B5005930B6004030B700873169
:101E22001727883121003508C5003608C600370853
:101E3200C7009E31D0268831210046082400CD00FB
:101E4200210045082400CC002B3023004706031D47
:101E5200352F4408200067072100A8002300450809
:101E62002000683D2100492F230044092100ED0094
:101E7200230045092100EE00ED0A0319EE0A2000B5
:101E8200670821006D07A8002000680821006E3D48
:101E9200A90098310820883121002808B8002908B3
:101EA200B9002A08BA009A30B5005930B60040305D
:101EB200B70087311727883121003508C500360859
:101EC200C6003708C7009E31D02688312100460857
:101ED2002400AB00210045082400AA002000680865
:101EE2002100A900200067082100A80098310820DD
:101EF200883121002808B8002908B9002A08BA0048
:101F02009A30B5005930B6004030B70087311727F4
:101F1200883121003508C5003608C6003708C700D9
:101F22009E31D0268831210046082400AD002100D0
:101F320045082400AC00C22FEC1DA42F58306E06B9
:101F420003196D18C22F5D082100A10020005C0852
:101F52002100A0000030A200A30098319220883115
:101F620021002108D4002008D3009831FB208831B9
:101F72002400C801C9012200BF012300CB012200B5
:101F8200C501200065106614E5106511E61466119E
:101F9200EB016B16240066082100A90024006508E5
:101FA2002100A8009931CE2188312400680821003F
:101FB200A900240067082100A8009A317B228831F9
:101FC20001302100ED006D082000EF0022006803BF
:101FD200031DF32F01302100ED006D082000EF00FA
:101FE2002200E8015030200064060319FC2F47301C
:101FF2006406031D4E298831062088314E2964006B
:10200200800101310130FE020030FF3B7F087E0477
:1020120003190034012821004808CB004908CC00EC
:102022004A08CD0003104C0D4D0DCE004E08D300D2
:102032005308031D23280030C5000030C6000030BD
:10204200C70008004508CB004608CC004708CD0071
:1020520003104C0D4D0DCE004E08D4005408031D44
:1020620039280030C5000030C6000030C700080023
:102072000030D0000030D1000030D2008930540747
:10208200CB004B08D3024808CB004908CC004A08D1
:10209200CD001030CD36CC0CCB0C890B4B284B0825
:1020A200CE004E08D4004508CB004608CC004708B5
:1020B200CD001030CD36CC0CCB0C890B5B284B08F5
:1020C200CE004E08D4068030CB004B08D405C91789
:1020D200FF30C805FF30C9050030CA05C617FF30FA
:1020E200C505FF30C6050030C7051830CB004B08C8
:1020F200CF000130D035D10DD20D890B7B28470896
:102102004A02031D8A2846084902031D8A284508F7
:102112004802031C93284508C8024608C93B4708E1
:10212200CA3B50140130C835C90DCA0D890B942819
:102132000130CF02031D7A285008A0005108A100E7
:102142005208A2005308CB004B08A3005408CC004D
:102152004C08A4009B31F12321002008C50021086E
:10216200C6002208C700080020002008A600210897
:10217200A7002208A8000310270D280DA90029088E
:10218200AA002A08031DCC280030A0000030A100BC
:102192000030A20008002308A6002408A700250892
:1021A200A8000310270D280DA9002908AF002F0849
:1021B200031DE2280030A0000030A1000030A20080
:1021C20008002F087B3EA6002608AA072008A600C2
:1021D2002108A7002208A8001030A836A70CA60CD8
:1021E200890BEE282608A9002908AF002308A600BB
:1021F2002408A7002508A8001030A836A70CA60CB2
:10220200890BFE282608A9002908AF068030A600FF
:102212002608AF05A117A417FF30A305FF30A405B8
:102222000030A5050030AB000030AC000030AD003E
:102232000730A6002608AE00201C25292308AB077C
:102242002408AC3D2508AD3D0130A236A10CA00CFE
:10225200890B26290130A335A40DA50D890B2C2944
:102262000130AE02031D1D290930A6002608AE006A
:10227200201C41292308AB072408AC3D2508AD3DAD
:102282000130A236A10CA00C890B42290130AD36D7
:10229200AC0CAB0C890B48290130AE02031D392965
:1022A2002B08F0002C08F1002D08F2002A08A600E5
:1022B2002608F3002F08A7002708F4009B318D237E
:1022C20070082000A0007108A1007208A200080096
:1022D20020003008B6003108B7003208B8000310F9
:1022E200370D380DB9003908BC003308B600340880
:1022F200B7003508B8000310370D380DB90039089A
:10230200BB003C08031991293B083C020318982999
:102312003C03FF3A3B07B60019303602031C9829EA
:102322003308B0003408B1003508B20008003B0899
:10233200031908003C083B020318A7293B03FF3A94
:102342003C07B60019303602031808000630B60002
:102352003608BA00B21BBA17B51B3A17B117FF30CD
:10236200B005FF30B1050030B205B417FF30B30538
:10237200FF30B4050030B5053B083C020318E329E1
:102382000130B335B40DB50D890BC2290130BB0242
:102392003B083C060319DE290130BA023A08073924
:1023A2000319DE29C1290130B236B10CB00C890BF8
:1023B200D5290130B6003608BC073C083B06031994
:1023C200082AD4293C083B020318082A0130B035F8
:1023D200B10DB20D890BE8290130BC023B083C0665
:1023E2000319042A0130BA023A0807390319042AE8
:1023F200E7290130B536B40CB30C890BFB29013047
:10240200B6003608BB073C083B06031DFA29BA1F73
:102412001A2AFF30B006FF30B106FF30B206013093
:10242200B007003003180130B10700300318013043
:10243200B2073A1F2C2AFF30B306FF30B406FF3032
:10244200B5060130B307003003180130B40700307D
:1024520003180130B507BA013008B3073108B43D9B
:102462003208B53DB51F472AFF30B306FF30B40628
:10247200FF30B5060130B307003003180130B4074E
:10248200003003180130B507BA01BA0A3308F00068
:102492003408F1003508F2003C08B6003608F300B3
:1024A2003A08B7003708F4009B318D2370082000EA
:1024B200B0007108B1007208B200080021002808BB
:1024C200AE002908AF002A08B00003102F0D300D0E
:1024D200B1003108B4002B08AE002C08AF002D0863
:1024E200B00003102F0D300DB1003108B3003408D5
:1024F2000319872A3308340203188E2A3403FF3A59
:102502003307AE0019302E02031C8E2A2B08A800B6
:102512002C08A9002D08AA00080033080319080096
:102522003408330203189D2A3303FF3A3407AE00FE
:1025320019302E02031808000630AE002E08B20031
:10254200AA1BB217AD1B3217A917FF30A805FF301F
:10255200A9050030AA05AC17FF30AB05FF30AC056A
:102562000030AD05330834020318D92A0130AB35E7
:10257200AC0DAD0D890BB82A0130B3023308340615
:102582000319D42A0130B202320807390319D42AB6
:10259200B72A0130AA36A90CA80C890BCB2A013024
:1025A200AE002E08B407340833060319FE2ACA2ADD
:1025B200340833020318FE2A0130A835A90DAA0DEA
:1025C200890BDE2A0130B402330834060319FA2AD1
:1025D2000130B202320807390319FA2ADD2A013022
:1025E200AD36AC0CAB0C890BF12A0130AE002E08D3
:1025F200B30734083306031DF02AB21F102BFF3035
:10260200A806FF30A906FF30AA060130A80700304D
:1026120003180130A907003003180130AA07321F3E
:10262200222BFF30AB06FF30AC06FF30AD06013087
:10263200AB07003003180130AC070030031801303B
:10264200AD07B2012808AB072908AC3D2A08AD3D09
:10265200AD1F3D2BFF30AB06FF30AC06FF30AD06A1
:102662000130AB07003003180130AC07003003180B
:102672000130AD07B201B20A2B08A0002C08A1005C
:102682002D08A2003408AE002E08A3003208AF00C5
:102692002F08A4009B31F12321002008A800210863
:1026A200A9002208AA0008002100DD005D03031929
:1026B2008A2B9D2B2000E5158E1511302100DB00A1
:1026C2005B082300D9000B302100DB005B082300EC
:1026D200DA001D302100DB005B082300DB0019302B
:1026E2002100DB005B082300DC0018302100DB0046
:1026F2005B082300DD0025302100DB005B0823009E
:10270200DE002200B901B90AF4302300B40001301E
:10271200B50021006F0303195B2B23003408350435
:10272200031D08002000E5118E1101302100DB009D
:102732005B082000EF000800023021005D06031D47
:102742002B2C0A30DB005B082200ED000230210056
:102752006F06031D0A2C2000E61513302100DB0052
:102762005B082300D90018302100DB005B0823003E
:10277200DA000D302100DB005B082300DB002200C1
:102782006D082100DB00DC01DB35DC0DDB35DC0D07
:102792005B08D3005C08D4009831FB2093312200FF
:1027A2006D082100DB00DC015B08A8005C08A900C1
:1027B2009A317B229331643022006D020318A72BD9
:1027C2006D080A3E2100DB005B082200ED00A40137
:1027D200A501003025020530031924020318A72B96
:1027E200A201A301C33023025030031922020318AD
:1027F200052C0130A2070030A33DC3302302503024
:1028020003192202031CFA2B0130A4070030A53D54
:10281200EA2B22006D082100DB00DC015B08A0002E
:102822005C08A1000030A200A300983192209331ED
:1028320021002108D4002008D3009831FB20200079
:10284200E6112300D10101302100DB005B082000EA
:10285200EF000800033021005D06031D452C200017
:10286200651E3A2C6512E5166D142300C901C90ACA
:10287200412CE51E412CE51265166D102300C9019D
:102882002000DE01DE0A0800043021005D06031D7F
:10289200672C2000651C522C65106614E510EB01B4
:1028A2005F2C661C582C65106610E5145D2CE51C27
:1028B200602C65146610E510EB01EB146B16013009
:1028C2002100DB005B082000EF00080021005D080A
:1028D200031D08002000E511E6112300D1010800C4
:1028E20096308600273087000030C03F0030C13F5D
:1028F2004030C23F96308600273087004331003097
:10290200C03F8030C13F3F30C23F96308600273003
:10291200870046310030C03F0030C13F0030C23F27
:1029220024004C082100DB0024004D082100DC00BB
:10293200DD01DE01C4308600273087005B08C03F1E
:102942005C08C13F5D08C23F5E08C33F2200200809
:102952002100DB00220021082100DC00DD01DE0174
:10296200C8308600273087005B08C03F5C08C13F43
:102972005D08C23F5E08C33FC4308600273087002F
:10298200403F2400B600413FB700C83086002730E0
:102992008700403FB800413FB900C430860027306D
:1029A2008700403F2100DB00413FDC00423FDD0069
:1029B200433FDE00C830860027308700403FDF00FB
:1029C200413FE000423FE100433FE200DF09E0090E
:1029D200E109E209DF0A0319E00A0319E10A03190E
:1029E200E20A5F08DB076008DC3D6108DD3D620842
:1029F200DE3D96308600273087004C315B08C03FB1
:102A02005C08C13F5D08C23F5E08C33FC830860014
:102A1200273087000030C03FC13FC23FC33FC030B4
:102A22008600273087005030C03FC330C13F00309E
:102A3200C23F0030C33F42302300E8000030E900CB
:102A420096308600273087004C31403F2100A80095
:102A5200413FA900423FAA00433FAB009931912177
:102A62009431210028082300A00021002908230016
:102A7200A10021002A082300A200963086002730F8
:102A820087004331403F2100B500413FB600423F3D
:102A9200B700230023082100A800230024082100F6
:102AA200A900230025082100AA00230020082100F4
:102AB200AB00230021082100AC00230022082100E2
:102AC200AD0092315F22943121002808B800290814
:102AD200B9002A08BA008731172794312100350836
:102AE200E4003608E5003708E60023002908210043
:102AF200A80023002A082100A90023002B08210096
:102B0200AA000030C5000030C6004030C7002300D4
:102B120061082100B500230062082100B6002300ED
:102B220063082100B7006408B8006508B9006608A8
:102B3200BA0087311727943121003508C8003608BA
:102B4200C9003708CA0090310C2094312100450891
:102B5200AB004608AC004708AD0092315F229431C9
:102B6200210028082300A600210029082300A7002D
:102B720021002A082300A800C030860027308700E1
:102B8200403F2100A800413FA900423FAA00433F25
:102B9200AB0099319121943121002808B000290815
:102BA200B1002A08B200230026082100B300230046
:102BB20027082100B400230028082100B50099311C
:102BC20055219431031C022E230026082100B00057
:102BD200230027082100B100230028082100B200A9
:102BE200240027082100B300240028082100B40093
:102BF200240029082100B500993155219431031888
:102C0200092E23002908A6002A08A7002B08A800DD
:102C1200230061082100C500230062082100C600CC
:102C2200230063082100C700963086002730870002
:102C32004631403FB500413FB600423FB700230056
:102C420020082100A800230021082100A900230058
:102C520022082100AA00230023082100A00023004B
:102C620024082100A100230025082100A200A73189
:102C72008F27943121002008AB002108AC002208E4
:102C8200AD0092315F22943121002808B800290852
:102C9200B9002A08BA008731172794312100350874
:102CA200C8003608C9003708CA0090310C20943198
:102CB20021004508E7004608E8004708E9006708E0
:102CC200A8006808A9006908AA00230020082100BA
:102CD200B500230021082100B600230022082100AC
:102CE200B7009630860027308700403FB800413F4A
:102CF200B900423FBA0087311727943121003508C5
:102D0200AB003608AC003708AD0092315F22943137
:102D120021002808EA002908EB002A08EC00230019
:102D220026082100A800230027082100A90023006B
:102D320028082100AA006A08AB006B08AC006C08E6
:102D4200AD0092315F229431210028082400A400B2
:102D5200210029082400A50021002A082400A60039
:102D620023002608A9002708AA002808AB0020088B
:102D7200A3002108A4002208A500240024082100A1
:102D8200C500240025082100C600240026082100D1
:102D9200C7009E31D0269431E0308600273087006C
:102DA20021004508C03F4608C13F4708C23F4808C6
:102DB200C33FE030860027308700433F891BF02E57
:102DC200433F031DFA2E423F031DFA2E413F031DCE
:102DD200FA2E403FDB0001305B020318FA2EE0308E
:102DE2008600273087000030C03FC13FC23FC33F4B
:102DF2003E2FE030860027308700403FDB00413F16
:102E0200DC00423FDD00433FDE00C0308600273059
:102E12008700403FDF00413FE000423FE100433F87
:102E2200E2006208803AE3005E08803A6302031D12
:102E3200242F5D086102031D242F5C086002031D1C
:102E4200242F5B085F0203183E2FC0308600273014
:102E52008700403FDB00413FDC00423FDD00433F53
:102E6200DE00E0308600273087005B08C03F5C0848
:102E7200C13F5D08C23F5E08C33FE0308600273095
:102E82008700403F2400BC00413FBD00230068088A
:102E92002100A000230069082100A100A201A301D2
:102EA200E030860027308700403FA400413FA50064
:102EB200423FA600433FA7009D31C7259431210020
:102EC20021082200AD00210020082200AC002D08BC
:102ED20023006502031D712F22002C0823006402C7
:102EE2000318792F65082200AD00230064088B2F98
:102EF2002300670822002D02031D832F230066088A
:102F020022002C0203188D2F230067082200AD0037
:102F1200230066082200AC004503031DCD2F3F03AA
:102F2200031DCD2F003020006802233003196702F1
:102F3200031CA32F22002D082100D40022002C08FC
:102F42002100E22F200068082100A9002000670864
:102F52002100A80098310820943121002808B800E7
:102F62002908B9002A08BA009A30B5005930B600CB
:102F72004030B70087311727943121003508C5004A
:102F82003608C6003708C7009E31D026943121008A
:102F92004608D4004508E22F22004508031DE52F0C
:102FA2002D082100A10022002C082100A0000030E1
:102FB200A200A30098319220943121002108D4006C
:102FC2002008D3009831FB209630860027308700F6
:102FD2004C31403F2100DB00413FDC00423FDD003D
:102FE200433FDE00D4308600273087005B08C03FB5
:102FF2005C08C13F5D08C23F5E08C33F0800FF3462
:10300200FF34FF34FF3432340034FF34FF34210004
:103012002808A0002908A100A2018E30AB002B08CD
:10302200A300A4019B31F12321002008A80021085C
:10303200A9002208AA00080020006D082100A100B2
:1030420021082400DB002330A7319827983124007F
:103052005B08A7319827983124005B08A73198278D
:1030620008001F3021008C008D018E0123008C018D
:103072008D0120008C018E0121008C140C158C1501
:103082000C168E148E118C168E160C10080030340D
:10309200303430343034303430343034303400343E
:1030A20080343F34EE340234323400344734003456
:1030B2000A34003401340134013425001308F03994
:1030C2000D389300CF309305910121000E11C730C6
:1030D20020009B001C08FC3901389C0087309C05AD
:1030E20091102100911420001C150800F401F50133
:1030F200701C7F287208F4077308F53D0130F23521
:10310200F30D890B80280130F136F00C890B8528EC
:1031120070087104031D79287508F1007408F00025
:1031220008002100A401A501201C9B282208A40755
:103132002308A53D0130A235A30D890B9C2801303F
:10314200A136A00C890BA12820082104031D952873
:103152002508A1002408A0000800FA01FB01FC01D7
:10316200FD017708FD007608FC007C08F800F80EE7
:10317200250013087806CF39780693007D08F900F8
:103182007C08F800F936F80CF936F80C7808FA00E1
:103192007908FB007A0891007B082400C5007A08B0
:1031A200C40008002100A401A501A201A301A201FB
:1031B200A30121082302031DE0282008220203188C
:1031C2000800A401A501003025028A300319240257
:1031D2000318F6280130A4070030A53D003025026F
:1031E2008A3003192402031CEB280130A2070030A5
:1031F200A33DDA282100D701D801D901DA01540808
:10320200DA005308D9005908D500D50E2500130855
:1032120021005506CF3955062500930021005A0892
:10322200D6005908D500D636D50CD636D50C550859
:10323200D7005608D80057082500910021005808E9
:103242002400C500210057082400C4000800210002
:103252002008210403195029A501A50AA11B3B2915
:103262000130A035A10D890B32290130A4002408B8
:10327200A5072F2921082302031D41292008220224
:10328200031C47292008A2022108A33B0130A136D2
:10329200A00C890B48290130A502031D3B292308F4
:1032A200A1002208A00008002100B21F6C293009E9
:1032B200B6003109B7003209B800B60A0319B70AD5
:1032C2000319B80A00303607B0000030373DB100AC
:1032D2008030383DB200B51F82293309B600340967
:1032E200B7003509B800B60A0319B70A0319B80AB4
:1032F20000303607B3000030373DB4008030383D2F
:10330200B5008030B2068030B50635083202031DA2
:10331200080034083102031D080033083002080097
:103322002100AF018E30AC002C08AE00AB1FA629E5
:10333200A809A909AA09AB09A80A0319A90A031924
:10334200AA0A0319AB0AAF01AF0AFF302B05031912
:10335200B6290130AB36AA0CA90CA80C890BAB29F3
:103362000130AC002C08AE07A6292808A0002908C5
:10337200A1002A08A2002E08AC002C08A3002F08E6
:10338200AD002D08A4009B31F12321002008A800E4
:103392002108A9002208AA0008000A302100A00082
:1033A2000030A1002908A3002808A2009931282191
:1033B200993121002008AA002A082300DB000A30E4
:1033C2002100A0000030A1002908A3002808A200C3
:1033D2008731CB27993121002108A9002008A800B4
:1033E2000A30A0000030A1002908A3002808A2008A
:1033F20099312821993121002008AA002A082300A6
:10340200DA000A302100A0000030A1002908A30040
:103412002808A2008731CB27993121002108A90071
:103422002008A8000A30A0000030A1002908A3004B
:103432002808A2009931282121002008AA002A0880
:103442002300D90008002100A301A401A301A401C3
:1034520020000C0C890C01392100A000A1012008D8
:10346200A3002108A4002335A300240DA4002000FA
:103472000C0C01392100A00023082004A10024081B
:10348200A2002108A3002208A40003302305A30000
:1034920000302405A40024082000D90021002308BC
:1034A2002000D80058082100A00020082000E300D6
:1034B20023003808200063062100A00023003908F9
:1034C2002100A100200821040319712A20005908B3
:1034D2002300B900200058082300B800013008007A
:1034E200200059082300B900200058082300B80022
:1034F200003008000A302100A0000030A100290895
:10350200A3002808A200993128219A31210020081D
:10351200AA002A082300DE000A302100A0000030A1
:10352200A1002908A3002808A2008731CB279A31DD
:1035320021002108A9002008A8000A30A0000030BC
:10354200A1002908A3002808A200993128219A3154
:1035520021002008AA002A082300DD000A302100E9
:10356200A0000030A1002908A3002808A20087318A
:10357200CB279A3121002108A9002008A8000A308F
:10358200A0000030A1002908A3002808A200993158
:10359200282121002008AA002A082300DC00DF01DC
:1035A200E00108002100A401A501A401A501200059
:1035B2000C0E01392100A000A1012008A40021085D
:1035C200A5002435A400250DA50020000C0C210027
:1035D200A000A00C200C0139A10024082104A200A3
:1035E2002508A3002208A4002308A500033024050F
:1035F200A40000302505A50025082000D7002100E1
:1036020024082000D60056082100A000200820002F
:10361200E30023003608200063062100A0002300F7
:1036220037082100A100200821040319222B2000C1
:1036320057082300B700200056082300B6000130C7
:103642000800200057082300B70020005608230076
:10365200B600003008002200BE01BB302100A100EC
:1036620021082400DA0023004903031D3B2B20001C
:103672006D143D2B20006D106D082100A100210862
:103682002400DB002300C6014030A73198279B317C
:1036920022003B03031D532B10302100A1002108FF
:1036A2002400DE002200A801A901003029021730FF
:1036B2000319280203187E2B28084E3E860002308A
:1036C200870001083E072100A10021082200BE0058
:1036D20028084E3E8600023087000108A73198274D
:1036E2009B3101302200A8070030A93D0030290299
:1036F200173003192802031C5D2B20005E03031DF3
:10370200842B4530852B5830A73198279B312200D6
:103712003E08A7319827080073080319952B7208F1
:1037220071047004031DA62B0030F0000030F1007C
:103732000030F20008000130F5007508F30701308F
:10374200F236F10CF00C890BA12BFE307205031935
:10375200BF2B9C2B0130F5007508F3070130F007F1
:10376200003003180130F107003003180130F2076E
:103772000130F236F10CF00C890BBA2BFF307205D6
:103782000319D02BAB2B02307302031CD22B013056
:10379200F3020130F035F10DF20D890BCB2BF11F45
:1037A200C42B7318DA2BFF30F0057F30F105FF30A0
:1037B200F2050310F30C7308F500F601F70110305F
:1037C200F535F60DF70D890BE12B7508F004760837
:1037D200F1047708F204740803190800F2170800CC
:1037E200210023080319FA2B220821042004031DB7
:1037F2000B2C0030A0000030A1000030A200080015
:103802000130A5002508A3070130A236A10CA00CA7
:10381200890B062CFE3022050319242C012C0130C1
:10382200A5002508A3070130A007003003180130C6
:10383200A107003003180130A2070130A236A10C03
:10384200A00C890B1F2CFF3022050319352C102CDC
:1038520002302302031C372C0130A3020130A035B1
:10386200A10DA20D890B302CA11F292C23183F2C4E
:10387200FF30A0057F30A105FF30A2050310A30C85
:103882002308A500A601A7011030A535A60DA70D96
:10389200890B462C2508A0042608A1042708A204A7
:1038A200240803190800A21708002100A6019A3172
:1038B20024229C31013A031DCA2C22004A08031D0E
:1038C200822C6108031D822C023020005806590404
:1038D200031D762C2200CA01CA0AE101D801D80AC6
:1038E20024302100A5002508A60020005803590411
:1038F200031DCA2C2200CA01CA0AE101D001D00A62
:10390200C52C22004A03031D952C6108031D952C2A
:103912000330200058065904031DCA2C2200CA0194
:10392200CA0AE101E10AC52C22004A03031DC12C87
:103932006103031DC12C200058035904031DAC2C44
:1039420022005803031DAC2CCA01D8012B302100E0
:10395200A5002508A6000230200058065904031DC0
:10396200BD2C22005003031DBD2CCA01D0012D30F5
:103972002100A5002508A6002200CA01E101CA2CE7
:10398200D801D001CA01E10124302100A500250897
:10399200A6002100260808002100A7019A31D3229F
:1039A2009C31013A031D422D22004908031DF92CC6
:1039B2006008031DF92C0230200056065704031D2F
:1039C200ED2C2200C901C90AE001D701D70A24302F
:1039D2002100A6002608A700200056035704031D55
:1039E200422D2200C901C90AE001CF01CF0A3D2DB3
:1039F20022004903031D0C2D6008031D0C2D03300A
:103A0200200056065704031D422D2200C901C90A8F
:103A1200E001E00A3D2D22004903031D392D600318
:103A2200031D392D200056035704031D242D2200A7
:103A32005703031D242DC901C90AD7012B302100C8
:103A4200A6002608A7000230200056065704031DD0
:103A5200352D22004F03031D352DC901CF012D3015
:103A62002100A6002608A7002200C901E001422D7C
:103A7200D701CF01C901E00124302100A6002608A8
:103A8200A7002100270808002000A101F31F562DDE
:103A9200F009F109F209F309F00A0319F10A03190D
:103AA200F20A0319F30AA101A10AF71F672DF4090B
:103AB200F509F609F709F40A0319F50A0319F60AD2
:103AC2000319F70A0130F8007808A1060030A500B2
:103AD2000030A4000030A3000030A200730872047A
:103AE200710470040319B02DA001A00AF31B852DE7
:103AF2000130F035F10DF20DF30D890B7A2D013005
:103B0200F8007808A007772D0130A235A30DA40D87
:103B1200A50D890B862D73087702031D9A2D720855
:103B22007602031D9A2D71087502031D9A2D7008E5
:103B32007402031CA52D7008F4027108F53B72088B
:103B4200F63B7308F73B22140130F336F20CF10C0A
:103B5200F00C890BA62D0130A002031D852D210832
:103B62000319BE2DA209A309A409A509A20A0319D2
:103B7200A30A0319A40A0319A50A2508F3002408B5
:103B8200F2002308F1002208F00008002100AA0137
:103B9200A31FD82DA009A109A209A309A00A0319EC
:103BA200A10A0319A20A0319A30AAA01AA0AA71FB2
:103BB200E92DA409A509A609A709A40A0319A50ABA
:103BC2000319A60A0319A70A0130A8002808AA06A1
:103BD2000030AE000030AD000030AC000030AB0071
:103BE20023082204210420040319322EA901A90A60
:103BF200A31B072E0130A035A10DA20DA30D890B29
:103C0200FC2D0130A8002808A907F92D0130AB3599
:103C1200AC0DAD0DAE0D890B082E23082702031D36
:103C22001C2E22082602031D1C2E21082502031D1C
:103C32001C2E20082402031C272E2008A40221087F
:103C4200A53B2208A63B2308A73B2B140130A33631
:103C5200A20CA10CA00C890B282E0130A902031D75
:103C6200072E2A080319402EAB09AC09AD09AE098B
:103C7200AB0A0319AC0A0319AD0A0319AE0A2E08DE
:103C8200A3002D08A2002C08A1002B08A000080008
:103C920020003D08C1003E08C2003F08C3000310D7
:103CA200420D430DC4004408CA004A08031D622E97
:103CB2000030C0000030BF000030BE000030BD0048
:103CC20008003D08C1003E08C2003F08C30017308B
:103CD200C336C20CC10C890B692E4108C4004408CA
:103CE200C500BE17FF30BD05FF30BE050030BF0561
:103CF2003D08C6003E08C7003F08C800C9018E3013
:103D0200CA02CA1FA02E4A08803A8F3E0318922E7A
:103D12000030C0000030BF000030BE000030BD00E7
:103D220008000130C936C80CC70CC60C890B932E8B
:103D32000130C1004108CA070319B92E922E18306A
:103D42004A02031CB62E0030C0000030BF00003013
:103D5200BE000030BD0008000130C635C70DC80DD9
:103D6200C90D890BAE2E0130CA024A08031DAD2EC1
:103D720045080319C72EC609C709C809C909C60AD1
:103D82000319C70A0319C80A0319C90A4908C00056
:103D92004808BF004708BE004608BD0008002100D1
:103DA2004508C9004608CA004708CB0003104A0D5F
:103DB2004B0DCC004C08D2005208031DE92E0030F6
:103DC200C8000030C7000030C6000030C50008003F
:103DD2004508C9004608CA004708CB001730CB3651
:103DE200CA0CC90C890BF02E4908CC004C08CD0036
:103DF200C617FF30C505FF30C6050030C7054508A8
:103E0200CE004608CF004708D000D1018E30D20242
:103E1200D21F272F5208803A8F3E0318192F0030E5
:103E2200C8000030C7000030C6000030C5000800DE
:103E32000130D136D00CCF0CCE0C890B1A2F0130A9
:103E4200C9004908D2070319402F192F183052020E
:103E5200031C3D2F0030C8000030C7000030C600F0
:103E62000030C50008000130CE35CF0DD00DD10D88
:103E7200890B352F0130D2025208031D342F4D0811
:103E820003194E2FCE09CF09D009D109CE0A031941
:103E9200CF0A0319D00A0319D10A5108C8005008E1
:103EA200C7004F08C6004E08C500080020002308BE
:103EB200A6002408A7002508A8000310270D280D36
:103EC200A9002908AE002E08031D6E2F0030A000A5
:103ED2000030A1000030A20008002008A60021083E
:103EE200A7002208A8000310270D280DA900290801
:103EF200AF002F08031D842F0030A0000030A10066
:103F02000030A20008000030AB000030AC000030EE
:103F1200AD0089302F07A6002608AE022308A600AE
:103F22002408A7002508A8001030A836A70CA60C64
:103F3200890B962F2608A9002908AF002008A600A1
:103F42002108A7002208A8001030A836A70CA60C4A
:103F5200890BA62F2608A9002908AF068030A600E3
:103F62002608AF05A417FF30A305FF30A4050030D3
:103F7200A505A117FF30A005FF30A1050030A2055D
:103F82001830A6002608AA000130AB35AC0DAD0DE5
:103F9200890BC62F22082502031DD52F21082402D2
:103FA200031DD52F20082302031CDE2F2008A302A5
:103FB2002108A43B2208A53B2B140130A335A40DF4
:103FC200A50D890BDF2F0130AA02031DC52F2B0877
:103FD200F0002C08F1002D08F2002E08A600260899
:103FE200F3002F08A7002708F4009B318D237008E7
:103FF2002000A0007108A1007208A20008003F344E
:104002000034063400345B3400344F3400346634F8
:1040120000346D3400347D340034073400347F348E
:1040220000346F34003480340034773400347C340C
:104032000034393400345E3400347934003471345D
:1040420000343D34003476340034063400341E34F7
:10405200003470340034383400345534003454346D
:1040620000343F3400347334003467340034503445
:1040720000346D340034783400341C3400343E345F
:1040820000346A340034683400346E3400348934C5
:1040920000340034003440340034FF34003400343F
:1040A20000340034003400340034003400343F342F
:1040B2000034063400345B3400344F340034663448
:1040C20000346D3400347D340034073400347F34DE
:1040D20000346F340034FF3400348531DB2D8531F8
:1040E200F72D8631132E86312F2E86314B2E8631B7
:0240F200672E37
:104F1E002100220821042004031908008030A20673
:104F2E0008002100A00023009E1C9A2F21002008BB
:104F3E0023009A000800210019088739703899005B
:104F4E00FC309905C03098050800FE0012001E00C6
:104F5E000130FE020030FF3B7F087E04031900344F
:104F6E00AD2F200095012100951195121508F839E5
:104F7E00053895008B130B130B118530200095000F
:104F8E008B16080021008E14121425001A08F03911
:104F9E0005389A0020009701960191012130980062
:104FAE008B170B1708007808F0007908F100F20152
:104FBE008E30FB007B08F300F4019B318D237008CB
:104FCE00F8007108F9007208FA00080023009D1716
:104FDE0021000E138E1723001E119F111E12333047
:104FEE009B0020309E009E121D1221009112111264
:024FFE000800A9
:020000040001F9
:04000E0064C8FFFFC4
:00000001FF
