:020000040000fa
:080000000001040000000000f3
:020000040000fa
:100200006fb62000807f2100000188000000000000
:10021000050007000c0007006c330200000000001e
:100220000040da000000fe004440a900005c20000d
:100230000000e0000300320000002000a001880060
:100240004440a8000000060040f223000100200006
:100250001600370062004000e080480091018800ed
:100260009001ba0062004000e080480091018800df
:100270009002ba0062004000e08048000002eb00fb
:100280006028e10005003a008301e900070033001f
:10029000038009000059eb00040037006128e100e9
:1002a000010032000082eb00050007009101880088
:1002b0001001ba000200e000e6ff3a00000005006d
:1002c000910188008002780062004000e0804800d0
:1002d0003559ba008301e900080032002559ba00f7
:1002e0008301e900050032000400e000f4ff320061
:1002f00015d9ba008301e900f1ff3a0000000600b9
:100300006022b800060220000000d0008180d200e8
:100310000482d2008582d2000000a00002025200b6
:1003200083825a0003003b000202420083824a009b
:100330000000a1000603e900f3ff3a0000000600f8
:10034000889fbe008a9fbe00010578000100e00082
:100350000400350008003c000000e00020003200ee
:100360000500370060001000e080180002003b002c
:1003700001f02c001a0037000004be006011b80024
:100380006b0920000982cf00020039000882cf00eb
:100390000441b000694252000e00320008003b00e8
:1003a00082817100610164008904d1000884d30056
:1003b0008b05e8000442e800f9ff3a000500370029
:1003c0000804440089844c008b05e9000442e900dc
:1003d000fbff3a00280107000af0a70001f0a00087
:1003e0004f05be004f04be000000060003f0a2004f
:1003f000889fbe008a9fbe008c1f780044010700c2
:100400004b0133006450e1004f0032006420e100f2
:100410005200320003826c0007003b000905d00047
:100420000306d000820f54000c065d000200390064
:1004300002003200890178000306780085825500a9
:1004400004003d000003fd008103fd008502ea0079
:100450008b854200840f720002003b006000100098
:10046000e08018006011b8000005eb007a28e10078
:100470000a00390006007800c75ddd00f707b2000a
:10048000878075002d003700828171000a01780095
:10049000610560008180d1000080d3008502e90001
:1004a000f9ff3b00060440008784480002003b003f
:1004b00060041400e0841c000988a30007003200d7
:1004c0008a81710082817100610164008904d10018
:1004d0000884d3008b05e800170037000978a300d3
:1004e00013003a000b00e000130034008b05e90014
:1004f0000804440089844c000a4474000978a3006d
:100500000d003a000b00e000070034008b05e90005
:100510000804440089844c0001003a000b002000cc
:100520000978a300f7ff32000001eb00020037005a
:10053000828171000a017800cf0007000cf0a7004b
:1005400001f0a000030137006420e10002003a003e
:10055000838f6c00030133000801be000200be005f
:10056000fc0037001400200001013700889fbe0006
:100570008a9fbe008c1f7800e5000700ec00330066
:1005800003866c006450e100240032006420e10026
:10059000270032006150e100220032006120e100ba
:1005a000210032008b854200eb07b1000134b80016
:1005b000003ab8000804420089844a00013ab800b1
:1005c0000030b8008880400009014a000400330070
:1005d0000000400081804800020149008b05e900cd
:1005e000c909dd0083017000010032001300200002
:1005f000c814de004814dd004709de001200b20016
:10060000c808de00088470009b00070001f0a1000c
:100610000cf0a70001f0a000ce0037006120e1003f
:10062000d00032000801be000200be00f7ff370014
:100630006150e100fcff3a00ca0037000001be0033
:10064000e60007000470a70003f0a1006509b100ef
:10065000160032000d0035006828e1000600350064
:10066000f0ff2f00f1ff27000300e00013003b0024
:1006700001002800000005000000400081804800c3
:100680008502e900fcff3a0008003700f88f4200bd
:1006900002003c008000eb00000005008100d1005a
:1006a0000080d3008502e800fcff3a000300e00070
:1006b00002003b0060001000e0801800000006000f
:1006c000889fbe008a9fbe008c1f780090000700a4
:1006d0009700330003866c006450e1002e00320066
:1006e0006420e100330032006150e1002f0032004d
:1006f0006120e1003100320085855500eb07b00034
:100700000900200008042000050037000804440008
:1007100089844c000a0031000603430087834b00a4
:100720000001530081815b00f8ff33000203be002b
:100730000800a0000804440089844c00f6ff39003a
:10074000c639dd0083017300010032001300200070
:100750008904d1000884d3000998a3000500320061
:100760000800a7000300a0008904d1000884d3007a
:100770008b05e8008904d1000884d3000001eb0058
:100780000281d2003c00070001f0a1000cf0a7009c
:1007900001f0a0006f0037006420e100710032001a
:1007a0000801be000200be00f7ff37006120e10033
:1007b0006c0032006000b800f3ff3700000020003a
:1007c00001f82700f0ff37000001be00830007009a
:1007d0000470a70003f0a10003f8a30013003a007f
:1007e0006509b10010003200090035006928e100f8
:1007f0000200350001002800000005000000400054
:10080000818048008502e900fcff3a0000000600f4
:10081000f88f4200050035008100d1000080d30030
:100820008502e800fcff3a00000006008000eb00b3
:1008300000000500f4ff2f004d003700839f680083
:100840000100e00002003d0060001000e0801800a0
:100850000300e00002003d0060011100e08119008a
:10086000a7fe07004f00e00002003b006000100000
:10087000e080180000000600810020006180550023
:100880000b003d000b00200061fe2f000100e10085
:100890001d00340082817100610164008904d1006f
:1008a0000884d3000000e800faff3a00710020003d
:1008b0006100640003007000020060000900320063
:1008c00061044400e0844c000988a5000500320062
:1008d0008b05e8006808e10002003a008904d100b5
:1008e0000884d300f20f20000258e10005003d000b
:1008f000c75ddd00f907b200898075000800780047
:10090000000006000bf827008b00780000000500af
:100910000004be00310007000003be000405be0055
:100920000200be002d000700844f75000000060085
:100930000200be006450e100050036006420e100c2
:10094000020036000968a30001003a000800be005a
:100950000160a0004f0678004f05be004f04be00a6
:1009600000000600f0ff2f00f1ff2700f9ff37001d
:10097000889fbe008a9fbe00841f7800e4ff0700a6
:100980004f00780011003300f0ff2f00838f6c00c0
:1009900006003b00040565000a00a70008003700b8
:1009a00009f0a6001000200008003700820f540054
:1009b000838f5c00030039001000200001003e001e
:1009c0000000200009f0a7000000ea004f05be006b
:1009d0004f04be000000e00000000600c70ade0071
:1009e000f107b200f50fb20008003200e1cf42007b
:1009f000020032000170a00024000500810f700089
:100a0000010032000408050044000500810f700059
:100a100002003a00140005008502e90000004000d1
:100a200081c04800fcff3b000170a00024000500cd
:100a30000000fa00e422a800e442a900e462a90050
:100a4000e5c2a900e582a900e5a2a900e5e2a900a6
:100a5000c7e2a900d242a900d262a900d282a900ad
:100a6000d2a2a900d2c2a900d2e2a900d302a90051
:100a7000d322a9000080fa00000006000000fa005e
:100a80003ec8bf00e14f50000f003a00e2cabf006d
:100a9000614060000004e0000300320010c0b300b9
:100aa00041e8b700020037000040eb0041e8b70022
:100ab000ffc9bf00560107003ec8bf000040e80064
:100ac0003ee8b7007d0037003ec8bf00e24f50004f
:100ad0000f003a00e2cabf00624060000004e0007c
:100ae0000300320010c0b30041e8b7000200370035
:100af0000040eb0041e8b70000cabf004401070016
:100b00003ec8bf000040e8003ee8b7006b00370079
:100b10003ec8bf00e34f50000f003a00e2cabf00da
:100b2000644060000004e0000300320010c0b30025
:100b300041e8b700020037000040eb0041e8b70091
:100b400001cabf00320107003ec8bf000040e800f4
:100b50003ee8b700590037003ec8bf00e44f5000e0
:100b60000f003a00e2cabf00684060000004e000e5
:100b70000300320010c0b30041e8b70002003700a4
:100b80000040eb0041e8b70002cabf0020010700a7
:100b90003ec8bf000040e8003ee8b700470037000d
:100ba0003ec8bf00e54f50000f003a00e2cabf0048
:100bb000704060000004e0000300320010c0b30089
:100bc00041e8b700020037000040eb0041e8b70001
:100bd00003cabf000e0107003ec8bf000040e80086
:100be0003ee8b700350037003ec8bf00e64f500072
:100bf0000f003a00e2cabf000042b2000004e00069
:100c00000300320010c0b30041e8b7000200370013
:100c10000040eb0041e8b70004cabf00fc00070039
:100c20003ec8bf000040e8003ee8b70023003700a0
:100c30003ec8bf00e74f50000f003a00e2cabf00b5
:100c40000044b2000004e0000300320010c0b30012
:100c500041e8b700020037000040eb0041e8b70070
:100c600005cabf00ea0007003ec8bf000040e80018
:100c70003ee8b700110037003ec8bf00e84f500003
:100c80000e003a00e2cabf0001c8b3000140600094
:100c90000004e0000300320010c0b30041e8b700d8
:100ca000020037000040eb0041e8b70006cabf0071
:100cb000d700070010c0b3003ee8b7000080fa007c
:100cc000000006000000fa003ec8bf00e14f5000df
:100cd00010003a00e9e2a900e2cabf0061406000ea
:100ce0000004e0000300320010c0b30041e8b70088
:100cf000020037000040eb0041e8b700e9c2a9005c
:100d0000e982a900e9a2a900ffc9bf00c00007004d
:100d1000b50037003ec8bf00e24f50000f003a0058
:100d2000e2cabf00624060000004e000030032003d
:100d300010c0b30041e8b700020037000040eb00ec
:100d400041e8b700e9c2a800e982a900e9a2a90028
:100d500000cabf00ae000700a30037003ec8bf00b6
:100d6000e34f50000f003a00e2cabf006440600049
:100d70000004e0000300320010c0b30041e8b700f7
:100d8000020037000040eb0041e8b700e9c2a900cb
:100d9000e982a800e9a2a90001cabf009c000700df
:100da000910037003ec8bf00e44f50000f003a00ea
:100db000e2cabf00684060000004e00003003200a7
:100dc00010c0b30041e8b700020037000040eb005c
:100dd00041e8b700e9c2a800e982a800e9a2a90099
:100de00002cabf008a0007007f0037003ec8bf006c
:100df000e54f50000f003a00e2cabf0070406000ab
:100e00000004e0000300320010c0b30041e8b70066
:100e1000020037000040eb0041e8b700e9c2a9003a
:100e2000e982a900e9a2a80003cabf007800070070
:100e30006d0037003ec8bf00e64f50000f003a007b
:100e4000e2cabf000042b2000004e000030032002a
:100e500010c0b30041e8b700020037000040eb00cb
:100e600041e8b700e9c2a800e982a900e9a2a80008
:100e700004cabf00660007005b0037003ec8bf0021
:100e8000e74f50000f003a00e2cabf000044b20032
:100e90000004e0000300320010c0b30041e8b700d6
:100ea000020037000040eb0041e8b700e9c2a900aa
:100eb000e982a800e9a2a80005cabf005400070003
:100ec000490037003ec8bf00e84f500010003a000c
:100ed000e2cabf0001c8b300014060000004e000a6
:100ee0000300320010c0b30041e8b7000200370031
:100ef0000040eb0041e8b700e9c2a800e982a80081
:100f0000e9a2a80006cabf0041000700360037006a
:100f10003ec8bf00e94f50000b003a00b4c8bf0004
:100f2000e14f50000300320069c9bf00e14f50009b
:100f300005003a00e9e2a800e9c2a900e982a90097
:100f4000e9a2a900280037003ec8bf00ea4f5000c0
:100f500008003a00acc8bf00e14f500005003a005d
:100f6000e9e2a800e9c2a800e982a900e9a2a90073
:100f70001d0037003ec8bf00eb4f500008003a008c
:100f8000adc8bf00e14f500005003a00e9e2a800fb
:100f9000e9c2a900e982a800e9a2a900120037006d
:100fa0003ec8bf00ec4f500008003a004bc8bf00dd
:100fb000e14f500005003a00e9e2a800e9c2a800ac
:100fc000e982a800e9a2a900070037003ec8bf00d7
:100fd000ed4f500004003a00e9e2a800e9c2a80081
:100fe000e982a900e9a2a8003ec8bf000040e800cd
:100ff0003ee8b7003ec8bf00ed4f5000020036008b
:1010000010c0b3003ee8b7000080fa000000060000
:101010000200fa00004f78009e40780010cdb30027
:1010200000c04000004f78000040eb003fe8b700f0
:10103000130037003fc8bf000082fb009e80fb000a
:101040003fc8bf000081fb0043c42b00018040006b
:10105000000040000000400002004000000040008e
:10106000608079008040780070a02000000042007d
:10107000014878003fc8bf000040e8003fe8b700e3
:101080003fc8bf00e74f5000eaff360041c8bf002d
:10109000e14f500002003a0010c0b3000eeab70062
:1010a00007cabf00614060000040400000404000af
:1010b0000040400000404000004040000040400030
:1010c00080404000cbc2bf000074a100014070000e
:1010d000cbe2b70008cabf00614060006140600019
:1010e0000040400000414000612d20009140780008
:1010f000b0cfb30000c0600002407000d6e2b7007d
:1011000009cabf00614060006140600000404000cb
:101110000040400000414000612d200091407800d7
:1011200070cfb30000c0600002407000d6e2b7008c
:101130000acabf006140600061406000004040009a
:10114000004040000040400000414000612d200070
:1011500091407800f0ceb30000c060000240700003
:10116000d6e2b7000bcabf0061406000614060007a
:10117000004040000040400000404000004040006f
:1011800000414000612d200091407800f0cdb30077
:1011900000c0600002407000d6e2b7000ccabf0079
:1011a000614060006140600000404000004040003d
:1011b000004040000040400000404000004140002e
:1011c000612d200091407800f0cbb30000c060009a
:1011d00002407000d6e2b7000dcabf006140600057
:1011e00000404000004040000040400000404000ff
:1011f000004040000040400080404000d6c2bf0098
:101200000074a10001407000d6e2b7000ecabf0012
:101210006140600061416000712d200091407800c4
:10122000e0cfb30000c0600002407000d7e2b7001a
:101230000080fa00000006000200fa00000f7800ab
:101240001e007800a2002000110009000280d800d2
:101250008000fd000043b00002eab7001e007800e5
:10126000a2002000110009000280d800000f7800c1
:101270001e007800a2002000110009000280d800a2
:101280008000fd000043b00001eab7001e007800b6
:10129000a2002000110009000280d800000f780091
:1012a0001e007800a2002000110009000280d80072
:1012b0008000fd000043b00000eab7001e00780087
:1012c000a2002000110009000280d800000f780061
:1012d0001e0078000043b000ffe9b7000080fa006c
:1012e000000006000200fa00000f78001e007800df
:1012f000a2002000110009000280d8008000fd003b
:101300000043b00006eab7001e007800a2002000eb
:10131000110009000280d800000f78001e0078003c
:10132000a2002000110009000280d8008000fd000a
:101330000043b00005eab7001e007800a2002000bc
:10134000110009000280d800000f78001e0078000c
:10135000a2002000110009000280d8008000fd00da
:101360000043b00004eab7001e007800a20020008d
:10137000110009000280d800000f78001e007800dc
:101380000043b00003eab7000080fa000000060046
:101390000000fa00de02a800de22a800dec2a800db
:1013a0000080fa00000006000200fa000040eb0096
:1013b000004f78005f000700e14f50005a003a00ec
:1013c00059cabf000004e0001a003a005acabf0020
:1013d0000004e00017003a005bcabf00e24f500073
:1013e00008003a0010c0b30059eab7000040eb0013
:1013f0005aeab70010c0b3005ceab70040c2b300bd
:10140000004f78005bcabf00e14f500046003a0031
:1014100010c0b30059eab7000040eb005aeab70029
:1014200010c0b3005deab70040c2b300004f7800bf
:101430003d00370059cabf00e14f50000d003a008f
:101440005acabf000004e0000a003a005bcabf00ad
:10145000e34f500034003a0010c0b30059eab7001f
:1014600010c0b3005aeab70040c2b300004f780082
:101470002d00370059cabf00e14f500020003a004c
:101480005acabf00e14f50001d003a005bcabf00be
:10149000e14f500009003a005ccabf00e14f500024
:1014a00006003a000040eb0059eab7000040eb00ac
:1014b0005ceab700b0c2b300004f78005bcabf005f
:1014c000e24f500009003a005dcabf00e14f5000f2
:1014d00006003a000040eb0059eab7000040eb007c
:1014e0005deab700d0c2b300004f78000040eb00c7
:1014f00059eab7000040eb005aeab7000a0037008b
:101500000040eb005ceab7000040eb005deab7008a
:101510000040eb0059eab7000040eb005aeab70080
:1015200040c2b300004f78001e80fb000080fa002c
:10153000000006000200fa000000eb0040408800b6
:101540000017800040408800404080006300600039
:1015500040408800404080005beab7005bcabf00a3
:1015600057eab70071a520009140780058cabf0023
:1015700000c068000004e000050032005bcabf0044
:1015800058eab70010002000000f78000400370070
:101590005bcabf0058eab7000000eb00000f7800fc
:1015a0001e0078000080fa00000006003600f800f7
:1015b000809fbe00829fbe00849fbe00869fbe00ab
:1015c0000000fa008460a90045c8bf000040e800a0
:1015d00045e8b70046c8bf000040e80046e8b7004d
:1015e000a5c8bf000040e800a5e8b700d0568000bd
:1015f0000000e800d0568800cdcabf000040e800d7
:10160000cdeab700d05580000000e00003003a00aa
:101610000040eb004be8b70003003700d0558000d6
:101620000000e900d0558800005780000000e0006d
:1016300004003200005780000000e90000578800d5
:10164000020037000000eb0000578800cfcabf003f
:10165000e14f500009003a00805680000000e00091
:1016600003003a000040eb00cfeab7000300370068
:10167000805680000000e90080568800f6cabf004e
:10168000e14f500003003a0010c0b3003de9b7003d
:101690000200370020c0b3003de9b700d4cabf0044
:1016a000e14f500022003a00c156800000fa2000ad
:1016b000808f5000100036000040eb00d4eab700e5
:1016c00010002000e0568800d5cabf00e14f50004e
:1016d0000e003a0010c0b300d6eab70000fa2000ae
:1016e000c05688000040eb00d5eab700ed6aa900bb
:1016f000ed2aa90005003700c05680000000e80070
:10170000c05688000040eb00d6eab7007141800067
:10171000b0032000808f500003003e0010c0b300d3
:10172000d5eab700020037000040eb00d5eab70069
:10173000d1568000f0f92000808f5000080036005c
:1017400062cabf00e24f500005003a0010c0b3006b
:10175000d7eab70000fa2000d05688000200370010
:101760000040eb00d7eab700e6c2bf00624060006d
:101770000004e00005003a0020c0b30062eab700b0
:1017800010c0b3009de8b7000400370010c0b300dc
:1017900062eab7000040eb009de8b70046c8bf0012
:1017a000e94f5000180036000040eb0046e8b70053
:1017b00049c8bf000040e80049e8b70049c8bf0079
:1017c000f34f50000b003e00edcabf000debb70019
:1017d00060c8bf000004e00006003a0010c0b3007b
:1017e00047e8b7000040eb0048e8b70030022000af
:1017f000d010880049c8bf00f34f500002003600e7
:101800000040eb0049e8b700d1ac200091407800df
:1018100030c6b30080cf50000400360010c0b300c3
:10182000ceeab7000040eb00cdeab7008ac9bf009e
:10183000e14f500012003a0040c8bf00e14f500095
:101840000f003a0062cabf00e14f50000c003a009e
:10185000804b80000000e800804b8800814b8000b6
:10186000401f2000808f500007003600401f2000de
:10187000804b88000040eb008ae9b7000200370087
:101880000000eb00804b880001408000f07c2000cd
:10189000808f50000e0036000000eb005049880099
:1018a000404980000000e80040498800414980002c
:1018b000f07c2000808f500011003600007d200059
:1018c0004049880010c0b3005ee9b7000c00370043
:1018d0000000eb0040498800504980000000e8000b
:1018e0005049880050498000e40f50000400360041
:1018f00050002000504988000040eb005ee9b7002e
:1019000040c8bf00e14f50000e003a000000eb005d
:10191000404a8800504a80000000e800504a880091
:10192000514a8000f07c2000808f5000110034006c
:10193000007d2000504a880010002000a04b880045
:101940000c0037000000eb00504a8800404a80003d
:101950000000e800404a8800404a8000ee0f500036
:1019600004003400f0002000404a88000000eb0032
:10197000a04b8800814a8000b04a8000808f5000d0
:1019800011003400a04b8000e10f50000e003a001f
:101990000000eb00904a8800a04a80000000e800a8
:1019a000a04a8800a14a8000f07c2000808f50006f
:1019b0001100340080382100a04a880010c0b30014
:1019c00068e9b7000c0037000000eb00a04a88006f
:1019d000904a80000000e800904a8800904a800009
:1019e000e40f50000400340050002000904a8800aa
:1019f0000040eb0068e9b700518420009140780076
:101a000010c3b30080cf5000130036000040eb003d
:101a100045e8b70058c9bf00e14f50000e003a003a
:101a20005fc8bf00e14f50000b003a0081932000d7
:101a30009140780050c4b30080cf500004003a00b9
:101a4000304980000000e80030498800020037007b
:101a50000000eb00304988005ecabf00ea4f50002a
:101a60003e003a000040eb005eeab700e04680002e
:101a70000000e800e0468800f04680000000e80032
:101a8000f046880011150700aac8bf00e14f5000ba
:101a900010003a0062cabf00e14f50000d003a004a
:101aa000f1468000301f2000808f50000700360074
:101ab00000c5b300eee8b7000000eb00f046880078
:101ac0000040eb00aae8b7000200370020c5b300d1
:101ad000eee8b700e146800030062000808f50001d
:101ae0000e0036000000eb00e046880010002000e9
:101af000504488009ec8bf000040e8009ee8b70040
:101b00009ec8bf00f94f5000040036000040eb00b3
:101b10009de8b7000040eb009ee8b700f1a520006b
:101b20009140780030c6b30080cf500008003600e6
:101b30000040eb005feab70010c0b300b1e8b700a7
:101b400010c0b300f3e8b70010c0b30061eab700fb
:101b50005fcabf000040e8005feab70059fc070019
:101b60005ecabf000040e8005eeab700a0528000f5
:101b70000000e800a0528800b1468000703e2000be
:101b8000808f5000020036000040eb0057e8b7009d
:101b900062cabf00e14f500057003a008bc9bf0036
:101ba0000004e00028003a00e0c2bf000044b20098
:101bb0000004e0000d003a006ac9bf000004e00024
:101bc0000a003a006bc9bf00e14f500007003a001d
:101bd00010c0b3006ae9b70010c0b3009fe8b700b7
:101be0000040eb006be9b70010003700e0c2bf0017
:101bf0000044b2000004e0000c003a006ac9bf00d3
:101c0000e14f500009003a006bc9bf00e14f50009e
:101c100006003a000040eb006ae9b70010c0b300cc
:101c20009fe8b7000040eb006be9b700e0c2bf00df
:101c30000044b2000004e0000700320010c0b3000e
:101c40006be9b700040037008bc9bf00e14f5000bb
:101c500001003a00320007008bc9bf000004e00019
:101c600025003a008cc9bf000004e00022003a00c1
:101c7000e0c2bf000044b2000004e00016003a00d9
:101c8000904b80000000e800904b8800914b800052
:101c900070382100808f50001700360010c0b3004c
:101ca0008be9b70010c0b3008ce9b7000040eb002f
:101cb0006ae9b70010c0b3009fe8b7000040eb002e
:101cc0006be9b7000000eb00904b880010c0b30038
:101cd0008de9b700080037000000eb00904b88004a
:101ce0000040eb008be9b7000040eb008ce9b70047
:101cf0000040eb008de9b70062cabf00e24f500020
:101d000000003a000080fa004f03be004f02be0000
:101d10004f01be004f00be003600f9000040060033
:101d20000000fa00e0c2bf000044b2000004e0007e
:101d30001300320064c9bf000004e00010003a0044
:101d40000000eb00204a8800304a80000000e800d4
:101d5000304a8800304a8000ee0f500008003400fe
:101d6000f0002000304a88000040eb0066e9b70030
:101d70000040eb0067e9b70010c0b30065e9b700a9
:101d8000e0c2bf000044b2000004e00019003a00c5
:101d900064c9bf000004e00016003a0065c9bf0036
:101da000e14f500013003a000000eb00304a880079
:101db000204a80000000e800204a8800214a800074
:101dc00070382100808f50000a00340080382100d4
:101dd000204a880010c0b30066e9b70010c0b30005
:101de00064e9b7000040eb0065e9b7000040eb0094
:101df0008de9b700e0c2bf000044b2000004e0007b
:101e00000f00320064c9bf00e14f50000c003a00df
:101e10000000eb00204a8800304a80000000e80003
:101e2000304a8800304a8000ee0f50000400340031
:101e3000f0002000304a880010c0b30065e9b70008
:101e4000e0c2bf000044b2000004e00019003a0004
:101e500066c9bf00e14f500016003a0065c9bf00d7
:101e6000e14f500013003a000000eb00304a8800b8
:101e7000204a80000000e800204a8800214a8000b3
:101e800070382100808f50000a0034008038210013
:101e9000204a88000040eb0066e9b70010c0b3009c
:101ea00067e9b70010c0b30064e9b7000040eb0079
:101eb00065e9b700e0c2bf000044b2000004e000e2
:101ec00027003a0067c9bf00e14f500024003a00e4
:101ed00065c9bf00e14f500021003a000000eb004f
:101ee000304a8800204a80000000e800204a88002c
:101ef000214a800070382100808f50001800340083
:101f000080382100204a88000040eb0066e9b700d5
:101f10000040eb0067e9b7000040eb0064e9b70060
:101f20000040eb0065e9b7000040eb008be9b7002b
:101f30000040eb008ce9b7000040eb006ae9b70015
:101f400010c0b3009fe8b7000040eb006be9b7009a
:101f50000000eb00904b88000040eb008de9b700db
:101f60000080fa00000006000000fa0084c0a9000a
:101f70000080fa00004006003600f800809fbe0096
:101f8000829fbe00849fbe00869fbe000000fa00b4
:101f900086a0a90062cabf00e14f5000e7003a00e6
:101fa000e18e20009140780000c5b30080cf500042
:101fb000e2003a00e04580000000e800e0458800cb
:101fc000f9fc070056eab700bccabf000004e000f5
:101fd0002a003a0061a5200091407800b0c2b30009
:101fe00080cf500009003a003144800000322000c8
:101ff000808f500005003e00304480001146800074
:1020000001004000304488009d00370061a5200099
:1020100091407800d0c2b30080cf500009003a0050
:102020003144800020032000808f500005003600de
:102030003044800021468000010050003044880078
:102040008f00370031448000f0312000808f500035
:10205000030036000032200030448800880037003a
:102060003144800040062000808f500084003e00f4
:10207000400620003044880081003700bccabf0001
:10208000e14f500033003a0061a5200091407800f4
:10209000b0c2b30080cf500009003a00614b80000d
:1020a00040062000808f500005003e00604b8000fd
:1020b0001146800001004000604b8800700037002e
:1020c00061a5200091407800d0c2b30080cf5000bd
:1020d00013003a00604b80000000e0001000320066
:1020e000614b800020468000808f50000500390041
:1020f000604b80002146800001005000604b88004a
:102100005f003700604b80000000e0005c003200a0
:10211000604b80000000e900604b880058003700e9
:10212000614b800030062000808f50000300360095
:1021300040062000604b880051003700604b800053
:102140000000e0004e003a000000eb00604b880009
:102150004b003700bccabf00e24f500023003a00da
:1021600061a5200091407800b0c2b30080cf50003c
:1021700005003a0000568000114680000100400032
:10218000005688000c00370061a5200091407800bf
:10219000d0c2b30080cf500007003a000056800044
:1021a0000000e0000400320000568000214680005c
:1021b000010050000056880001568000703e20004b
:1021c000808f50000200360010002000005688006a
:1021d00001568000800c2000808f500028003e00b7
:1021e000800c20000056880025003700bccabf00c4
:1021f000e34f500022003a0061a520009140780092
:10220000b0c2b30080cf500005003a0010568000e5
:102210001146800001004000105688000c00370075
:1022200061a5200091407800d0c2b30080cf50005b
:1022300007003a00105680000000e0000400320061
:102240001056800021468000010050001056880082
:1022500011568000f0312000808f500002003600bf
:102260000000eb0010568800115680000019200075
:10227000808f500002003e00001920001056880098
:10228000e1458000700c2000808f500012003e005d
:1022900061a5200091407800b0c2b30080cf50000b
:1022a00004003a00f04580000000e800f045880096
:1022b000cf01370061a5200091407800d0c2b30063
:1022c00080cf5000ca013a00004680000000e800bc
:1022d00000468800c6013700e1458000700c2000f0
:1022e000808f5000c20136000000eb00e0458800fe
:1022f000f045800010468800004680002046880097
:1023000010468000e10f500002003e001000200047
:102310001046880020468000e10f500002003e0079
:1023200010002000204688000000eb00f0458800e7
:102330000000eb0000468800ad01370062cabf0014
:10234000e24f500081013a0010c0b300bae8b70074
:10235000e04580000000e800e045880012fc07002e
:1023600056eab700bccabf000004e00030003a00e3
:1023700061a5200091407800b0c2b30080cf50002a
:102380000d003a0061498000c00d2000808f500090
:1023900009003e0061498000104680000080400036
:1023a000604988006049800002ebb70010c0b300ac
:1023b000a0eab7003601370061a5200091407800ff
:1023c000d0c2b30080cf50000c003a0060498000ba
:1023d000f40f50000900360061498000204680005b
:1023e00000805000604988006049800002ebb7001f
:1023f00010c0b300a0eab700250137006149800092
:10240000b00d2000808f500003003600c00d20006a
:10241000604988001e01370060498000f40f5000b9
:102420001b013e0040012000604988001801370070
:10243000bccabf00e14f500022003a0061a5200055
:1024400091407800b0c2b30080cf500005003a0040
:10245000f05580001146800001004000f0558800d2
:102460000c00370061a5200091407800d0c2b30075
:1024700080cf500007003a00f0558000e90f50006f
:1024800004003600f0558000214680000100500015
:10249000f0558800f1558000e0702200808f5000d8
:1024a000020036000000eb00f0558800f055800077
:1024b000ea0f5000f6003e00a0002000f055880012
:1024c000f3003700bccabf00e24f500022003a00c0
:1024d00061a5200091407800b0c2b30080cf5000c9
:1024e00005003a00005680001146800001004000bf
:1024f000005688000c00370061a52000914078004c
:10250000d0c2b30080cf500007003a0000568000d0
:102510000000e000040032000056800021468000e8
:10252000010050000056880001568000e070220033
:10253000808f5000020036001000200000568800f6
:1025400000568000e10f5000d1003e001000200036
:1025500000568800ce003700bccabf00e34f5000d1
:1025600022003a0061a5200091407800b0c2b3007b
:1025700080cf500005003a001056800011468000c0
:1025800001004000105688000c00370061a52000b3
:1025900091407800d0c2b30080cf500007003a00cd
:1025a000105680000000e000040032001056800049
:1025b000214680000100500010568800115680000e
:1025c000e0702200808f5000020036000000eb0017
:1025d0001056880010568000e10f5000ac003e00fd
:1025e0001000200010568800a9003700bccabf00a8
:1025f000e44f500024003a0061a52000914078008b
:10260000b0c2b30080cf500006003a0020568000d0
:10261000800078001046800000804000205688002e
:102620000d00370061a5200091407800d0c2b300b2
:1026300080cf500008003a00205680000000e000e3
:10264000050034002056800080007800204680007d
:10265000008050002056880021568000e070220043
:10266000808f5000020034000000eb0020568800ec
:1026700020568000e10f500085003c001000200033
:102680002056880082003700bccabf00e54f5000ca
:1026900036003a0061a5200091407800b0c2b30036
:1026a00080cf500009003a00104680006101b80058
:1026b00070558000815580000200400083804800f2
:1026c00070558800815588001200370061a52000f0
:1026d00091407800d0c2b30080cf50000d003a0086
:1026e0007055800081558000e00f5000e08f580049
:1026f000080032007255800083558000204680001b
:1027000001002000000051008180590070558800b0
:10271000815588007255800083558000e07022004a
:1027200001002000800f5100818f59000300360006
:102730006000b8007055880081558800725580008f
:10274000835580001000200001002000800f510000
:10275000818f59004e003e00100020000100200033
:10276000705588008155880049003700bccabf00f9
:10277000e64f500022003a0061a520009140780009
:10278000b0c2b30080cf500005003a00c0548000b2
:102790001146800001004000c05488000c00370042
:1027a00061a5200091407800d0c2b30080cf5000d6
:1027b00007003a00c05480000000e000040032002e
:1027c000c05480002146800001005000c0548800a1
:1027d000c1548000e0702200808f5000020036005b
:1027e0000000eb00c0548800c0548000e10f50008e
:1027f00027003e0010002000c0548800240037004d
:10280000bccabf00e74f500021003a0061a520007c
:1028100091407800b0c2b30080cf500005003a006c
:10282000e05480001146800001004000e054880020
:102830000c00370061a5200091407800d0c2b300a1
:1028400080cf500007003a00e05480000000e00014
:1028500004003200e0548000214680000100500056
:10286000e0548800e1548000e0702200808f500026
:10287000020036000000eb00e0548800e0548000c5
:10288000e10f500002003e0010002000e0548800dc
:10289000e1458000700c2000808f500012003e0047
:1028a00061a5200091407800b0c2b30080cf5000f5
:1028b00004003a00f04580000000e800f045880080
:1028c0004b00370061a5200091407800d0c2b300d2
:1028d00080cf500046003a00004680000000e8002b
:1028e0000046880042003700e1458000700c20005f
:1028f000808f50003e0036000000eb00e04588006d
:10290000f045800010468800004680002046880080
:1029100010468000e10f500002003e001000200031
:102920001046880020468000e10f500002003e0063
:1029300010002000204688000000eb00f0458800d1
:102940000000eb00004688002900370096fa0700d7
:1029500056eab70061a5200091407800b0c2b300ec
:1029600080cf500008003a0001418000b01c2000d8
:10297000808f500004003e00004180000000e8000d
:10298000004188001a00370061a5200091407800be
:10299000d0c2b30080cf500008003a00014180004f
:1029a000c0082000808f50000400360000418000e5
:1029b0000000e900004188000d003700014180005f
:1029c000b01c2000808f500003003600c01c200087
:1029d000004188000600370001418000c008200047
:1029e000808f500002003e00c00820000041880097
:1029f0000080fa004f03be004f02be004f01be0030
:102a00004f00be003600f900004006003600f80016
:102a1000809fbe00829fbe00849fbe00869fbe0036
:102a2000881f78007400fa00a042a9008560a90000
:102a3000001480005040880010148000604088001e
:102a4000201480007040880030148000804088008e
:102a5000401480009040880050148000a0408800fe
:102a6000504080006101b800704e8000814e8000af
:102a70000200400083804800704e8800814e88002c
:102a8000504080006101b8005043800061438000e5
:102a90000200400083804800504388006143880062
:102aa000604080006101b800104380002143800035
:102ab00002004000838048001043880021438800c2
:102ac000704080006101b800704380008143800045
:102ad00002004000838048007043880081438800e2
:102ae000804080006101b800304380004143800095
:102af0000200400083804800304388004143880042
:102b0000904080006101b800f043800001448000e3
:102b10000200400083804800f043880001448800a0
:102b2000a04080006101b800104480002144800072
:102b3000020040008380480010448800214488003f
:102b4000404480000000e80040448800c04180000c
:102b50000000e800c0418800504080006101b800da
:102b6000d0418000e14180000200400083804800a5
:102b7000d0418800e1418800c1418000f00f200071
:102b8000808f500012003600d0418000e14180006b
:102b90004809dd004800de0000007100c808de00c2
:102ba000b0418800b04180006a00b90032022000c4
:102bb000110009000280d800b04188000000eb003d
:102bc000c04188006000b800d0418800e141880021
:102bd000604e80000000e800604e8800604e80007b
:102be0008000780030558000808f5000210039002f
:102bf000704e8000814e8000425580008201780036
:102c00008301e900030033008100d1000080d3007c
:102c1000fbff3700704e8800814e88000000eb00fb
:102c2000604e880010c0b3005fe9b700744e8000aa
:102c3000854e8000a00020000023b8006020b9006d
:102c400007017800000141006a28b9000001410035
:102c50008203780032022000030020000600be003c
:102c6000a7f50700104988006000b800704e880082
:102c7000814e8800605580008000780040448000cc
:102c8000808f5000d9033e00504380006143800094
:102c900052558000020278000402e900030033006c
:102ca0008100d1000080d300fbff37005043880033
:102cb000614388001043800021438000525580000a
:102cc000820278008502e900030033008100d10010
:102cd0000080d300fbff37001043880021438800a9
:102ce000704380008143800052558000820178004b
:102cf0008301e900030033008100d1000080d3008c
:102d0000fbff370070438800814388003043800018
:102d10004143800052558000020278000402e9001d
:102d2000030033008100d1000080d300fbff370097
:102d30003043880041438800f04380000144800014
:102d400052558000820278008502e90003003300ba
:102d50008100d1000080d300fbff3700f0438800e2
:102d600001448800104480002144800052558000b6
:102d7000820178008301e900030033008100d10063
:102d80000080d300fbff37001044880021448800f6
:102d90000000eb0040448800f443800005448000bc
:102da000d00020000023b8006020b900070178009f
:102db000000141006d28b900000141008203780044
:102dc00042062000030020000600be004cf507006c
:102dd000f04988006000b800f04388000144880092
:102de0001444800025448000d00020000023b80057
:102df0006020b90007017800000141006d28b9008a
:102e000000014100820378004206200003002000f8
:102e10000600be003af50700004a88006000b800ce
:102e200010448800214488009dc8bf000004e000d1
:102e300005003a0010c0b30062eab7006000b800b5
:102e40003043880041438800704380008143800004
:102e5000b04088006000b80070438800814388005b
:102e60005443800065438000a00020000023b80088
:102e70006020b90007017800000141006a28b9000c
:102e8000000141008203780032022000030020008c
:102e90000600be001af50700604688006046800004
:102ea000204088005043800061438000b043880088
:102eb000c14388006000b800504388006143880027
:102ec0001443800025438000400120000023b80007
:102ed0006020b90007017800000141007428b900a2
:102ee000000141008203780012032000030020004b
:102ef0000600be0002f50700004088001243800073
:102f000023438000d1408000100320000088b900d6
:102f1000010020000000510081805900904388008a
:102f2000a14388006000b800104388002143880056
:102f300042c8bf000004e00011003a0043c8bf00cf
:102f4000e94f50000a00360000408000d040880061
:102f5000f049800090418800004a8000a04188002c
:102f600010c0b30042e8b7000040eb00deeab70053
:102f700043c8bf000040e80043e8b7002e02370016
:102f8000f149800090418000808f5000700039002e
:102f9000f14980009041800000805000f049880095
:102fa000f84980006140b900e5f40700003f98004f
:102fb000113f98000800e00007003d0002002000db
:102fc000037824000e3890009e38900008f5070022
:102fd000003f9800113f9800020020006339240050
:102fe0000e3890009e3890005ef507000000e0006b
:102ff000010034002b003700f84980006140b9001f
:10300000cff4070060379800713798000800e0009f
:1030100007003d0002002000037824006e3090007d
:10302000fe309000f2f40700603798007137980086
:10303000f84980006140b900c1f4070040379800aa
:10304000513798000800e00007003d000200200012
:10305000037824004e309000de309000e4f4070046
:1030600040379800513798004e319000de31900083
:103070000000200061392400dcf40700d2cc2c00d1
:10308000c3d4230039f507000001be006e30900064
:10309000fe309000d6f4070068f50700604a88000b
:1030a0002d003700f84980006140b900a4f4070002
:1030b00020379800313798000800e00007003d00f5
:1030c00002002000037824002e309000be309000d3
:1030d000c7f407002037980031379800f84980007e
:1030e0006140b90096f40700003798001137980046
:1030f0000800e00007003d000200200003782400e3
:103100000e3090009e309000b9f407000037980010
:103110001137980002002000633924000e3090001f
:103120009e309000b1f40700d2cc2c00c3d42b0009
:103130000ef507000001be002e309000be3090005a
:10314000abf407003df50700604a88000200370035
:103150000000eb00f0498800014a8000a041800097
:10316000808f500070003900014a8000a04180002b
:1031700000805000004a8800084a80006140b90081
:103180006ff40700602f9800712f98000800e0008e
:1031900007003d0002002000037824006e28900004
:1031a000fe28900092f40700602f9800712f98007d
:1031b00002002000633924006e289000fe28900051
:1031c000e8f407000000e000010034002b003700a5
:1031d000084a80006140b90059f40700402f980068
:1031e000512f98000800e00007003d000200200079
:1031f000037824004e289000de2890007cf407001d
:10320000402f9800512f9800084a80006140b90073
:103210004bf40700202f9800312f98000800e000a1
:1032200007003d0002002000037824002e289000b3
:10323000be2890006ef40700202f9800312f9800d0
:103240002e299000be299000000020006139240042
:1032500066f40700d2cc2c00c3d42300c3f40700cb
:103260000001be004e289000de28900060f40700a8
:10327000f2f40700704a88002d003700084a8000e9
:103280006140b9002ef40700002f9800112f98001c
:103290000800e00007003d00020020000378240041
:1032a0000e2890009e28900051f40700002f9800ef
:1032b000112f9800084a80006140b90020f40700ef
:1032c00060279800712798000800e00007003d0083
:1032d00002002000037824006e209000fe20900061
:1032e00043f407006027980071279800020020002f
:1032f000633924006e209000fe2090003bf407000c
:10330000d2cc2c00c3d42b0098f407000001be00df
:103310000e2890009e28900035f40700c7f407009f
:10332000704a8800020037000000eb00004a880065
:1033300001408000d0408000808f50001b01390088
:1033400001408000d0408000008050000040880094
:10335000f1498000004a800000804000104a880047
:10336000114a800030062000808f50004e00360049
:10337000114a8000d0242000808f500019003600b0
:10338000184a80006140b900edf30700402798001b
:10339000512798000800e00007003d0002002000cf
:1033a000037824004e209000de20900010f40700e7
:1033b000402798005127980002002000031a24009b
:1033c0004e209000de20900068f4070002002000ec
:1033d000832c2400baf4070098f40700b04a880050
:1033e00031003700184a80006140b900d4f307006b
:1033f00020279800312798000800e00007003d00d2
:1034000002002000037824002e209000be209000af
:10341000f7f30700202798003127980002002800c2
:10342000334124002e209000be2090004df4070070
:103430000000e0000100350019003700184a800044
:103440006140b900bef307000027980011279800db
:103450000800e00007003d0002002000037824007f
:103460000e2090009e209000e1f3070000279800b6
:103470001127980002002000831c24000e209000d9
:103480009e20900039f4070002002000832c2400c5
:103490008bf4070069f40700b04a88000200370087
:1034a00040062000b04a8800084080006140b90012
:1034b000a3f30700601f9800711f98000800e00048
:1034c00007003d0002002000037824006e189000e1
:1034d000fe189000c6f30700601f9800711f980047
:1034e00002002800334124006e189000fe1890005e
:1034f0001cf407000000e000010035002b0037003d
:10350000084080006140b9008df30700401f98001b
:10351000511f98000800e00007003d000200200055
:10352000037824004e189000de189000b0f30700d6
:10353000401f9800511f9800084080006140b9006a
:103540007ff30700201f9800311f98000800e0005b
:1035500007003d0002002000037824002e18900090
:10356000be189000a2f30700201f9800311f98009a
:103570002e199000be199000000020006141240027
:103580009af3070092c22500f3d82300f7f307004f
:103590000001be004e189000de18900094f3070062
:1035a00089f40700704188008200370008408000dd
:1035b0006140b90062f30700001f9800111f9800d6
:1035c0000800e00007003d0002002000037824000e
:1035d0000e1890009e18900085f30700001f9800b9
:1035e000111f98000042eb00646f98000200280051
:1035f000334124000e1890009e1890008df40700af
:103600000000e00001003d000200370015c0b300db
:10361000656f98006e6890000004a2000004e0004e
:1036200021003a00084080006140b90044f30700df
:1036300050179800611798000800e00007003d004f
:1036400002002000037824005e109000ee1090002d
:1036500067f3070050179800611798000040eb00cf
:10366000006f980002002800834124005e10900043
:10367000ee109000bbf307000000e00001003400f2
:103680000200370011c0b300016f98000e6890006f
:103690000004a2000004e00003003a0000408000a3
:1036a0007041880043003700084080006140b90045
:1036b00023f3070020179800311798000800e00056
:1036c00007003d0002002000037824002e10900027
:1036d000be10900046f3070020179800311798009d
:1036e00002002800834124002e109000be1090009c
:1036f00050f407000000e00001003c002d003700fe
:10370000084080006140b9000df3070000179800e1
:10371000111798000800e00007003d00020020009b
:10372000037824000e1090009e10900030f30700e4
:103730000017980011179800084080006140b900f8
:10374000fff20700600f9800710f98000800e0007a
:1037500007003d0002002000037824006e0890005e
:10376000fe08900022f30700600f9800710f980088
:1037700002002000634124006e089000fe089000c3
:103780001af30700a2702d0033c22b0077f3070055
:103790000001be000e1090009e10900014f3070070
:1037a00009f4070070418800020037000000eb00b8
:1037b00000408800614a8000704a8000808f50007d
:1037c0000d003400604a8000714a80000100500002
:1037d000500f98005e0990000200e00003003d00d9
:1037e000de0990008301ea00530f98005e0a900002
:1037f000844a880010003700714a8000604a8000c7
:10380000808f50000c003400704a8000614a8000b4
:1038100001005000400f9800ce0a90000500e00023
:1038200003003d004e0890000000ea00400f9800a1
:10383000ce089000814a880042c8bf00e14f500086
:1038400031003a009dc8bf00e14f50000a003a0025
:10385000edcabf00644060000004e00003003200d5
:1038600010c0b30040e8b700270037000040eb006d
:1038700040e8b7002400370000408000e90f500006
:103880000300360010c0b30040e8b7001e00370048
:1038900040c8bf00e14f50001b003a0062cabf00a1
:1038a000e14f500018003a00914c800030448000f5
:1038b000808f50000500320031448000200020003d
:1038c0008d0a070030448000904c8800814c8000b5
:1038d000604b8000808f500005003200614b8000fb
:1038e00060002000840a0700604b8000804c880044
:1038f0000040eb0040e8b7000000eb00804b880080
:1039000010c0b3008ae9b7007185200091407800ab
:10391000f0c4b30080cf5000b4003a00efc8bf003d
:10392000e14f5000b1003a0030478000f00f5000e6
:10393000ae003e00204080006101b8005048800089
:1039400061488000020040008380480050488800a1
:1039500061488800004080006101b8007048800024
:103960008148800002004000838048007048880041
:1039700081488800304780000000e8003047880018
:1039800030478000f00f500093003a000040eb00f9
:10399000f1e8b7003448800045488000f2c8bf0015
:1039a0000081fb00030020000400be0054f2070069
:1039b000d0478800e1478800504880006148800077
:1039c0004c09dd004400de0000007100c408de0088
:1039d000f0478800014888007048800081488000d6
:1039e000cc09dd004400de0000807100c408de0068
:1039f0001048880021488800f24780000348800072
:103a0000d0478000e1478000800f5100818f59002e
:103a100059003900f247800003488000d0478000f9
:103a2000e14780000001510081815900220f980078
:103a3000330f98002e0a9000be0a9000e00f52004b
:103a4000e08f5a00060035002e089000be08900056
:103a50003bf20700000f9800110f98001400370088
:103a60002e099000be099000610061008000eb000b
:103a70002e0a9000be0a90008501d1000481d30077
:103a800002007000838070002df20700000f980084
:103a9000110f98000e0990009e0990000e089000ea
:103aa0009e08900052f20700000f9800110f980036
:103ab00002002000a34724000e0890009e089000fa
:103ac000aaf207006007980071079800104880006c
:103ad0002148800040079800510798004e0190004f
:103ae000de019000e00f5100e08f59000600350024
:103af0004e009000de00900011f2070020079800b1
:103b000031079800140037004e029000de0290004a
:103b1000610062008000eb004e029000de02900027
:103b20008501d1000481d300020070008380700001
:103b300003f2070020079800310798002e0190003b
:103b4000be0190002e009000be00900028f20700f9
:103b500020079800310798002e019000be019000c8
:103b60006e009000fe009000d5f2070016f30700eb
:103b700020478800020037000000eb002047880043
:103b8000284780006140b900edf10700008fbe00ba
:103b90000800e00005003d0002002000037824003a
:103ba0001e00be0012f20700008fbe0002002000bf
:103bb000031224001e00be006cf2070002f307008f
:103bc0008000780040002000cb09070020478000db
:103bd000104788000500370030478000f00f500084
:103be00002003e003047800010478800a042a80035
:103bf0000080fa004f0478004f03be004f02be0061
:103c00004f01be004f00be003600f9000040060024
:103c1000809fbe000000fa008720a90060c8bf0096
:103c2000e14f500021003a0061c8bf00f54f50003d
:103c30000b003e0061c8bf008080fb0010a3200085
:103c400000804000104078000080fb00d010880009
:103c500061c8bf000040e80061e8b7002c003700f1
:103c600061c8bf00f64f500009003a0047cabf00c4
:103c70000080fb00d010880061c8bf000040e80051
:103c800061e8b7000040eb00a0eab7002000370071
:103c90000040eb0060e8b7000040eb0061e8b700cf
:103ca0000040eb00a1eab7001900370047c8bf0089
:103cb000e14f500016003a00edcabf000debb7000f
:103cc00048c8bf000004e00007003a000dcbbf0069
:103cd0000080fb00d010880048c8bf000040e8000a
:103ce00048e8b7000a00370048c8bf00e14f50005d
:103cf00007003a000dcbbf000080fb00d010880009
:103d00000040eb0048e8b7000040eb0047e8b70090
:103d10000080fa004f00be0000400600809fbe00f9
:103d2000821f78000000fa008700a900e0108000e0
:103d30004ce8b700c18420009140780000c4b30073
:103d400080cf50000f003a004dc8bf000004e000d3
:103d50000c003a004ec8bf000004e00009003a0021
:103d600010c0b3004de8b7000040eb004ee8b700cc
:103d70000040eb0054e8b7000040eb0015e9b70045
:103d8000ea003700c18420009140780030c2b300bf
:103d900080cf500011003a0012c9bf000004e000bb
:103da0000e003a00a3cabf000004e0000b003a0076
:103db00010c0b3004ee8b7000040eb004de8b7007c
:103dc0000040eb0015e9b7000040eb0054e8b700f5
:103dd00010c0b300ade8b700d40037004dc8bf0035
:103de0000004e0003f003a004ec8bf00e14f500021
:103df0003c003a004fc8bf000004e00005003a0054
:103e00004cc8bf0094e9b70010c0b3004fe8b7003a
:103e1000c60037004fc8bf00e14f5000c3003a0052
:103e2000c18420009140780094c9bf0080cf500029
:103e300021003a000040eb00d7eab7000000eb0099
:103e4000d056880094c9bf00eeeab7000040eb00ee
:103e50004de8b7000040eb004ee8b7000040eb0033
:103e60004fe8b7000040eb0015e9b700eecabf000d
:103e7000624060000004e0000300320000c5b300af
:103e800036e9b7000200370020c5b30036e9b700b5
:103e9000eecabf00614060000004e00003003a0089
:103ea00020c3b30039e9b700a000370040c3b30016
:103eb00039e9b7009d0037000040eb004de8b7003e
:103ec0000040eb0015e9b7000040eb0054e8b700f4
:103ed0000040eb004ee8b7000040eb004fe8b700b1
:103ee000920037004dc8bf00e14f500085003a00f6
:103ef0004ec8bf000004e00082003a0015c9bf00b0
:103f0000ef4f500010003e0015c9bf008080fb003d
:103f1000c28420001241780080a12000008040006f
:103f20000248780041852000914078004cc8bf00cd
:103f300000c0400054e8b70015c9bf000040e800c9
:103f400015e9b70079003700c1842000914078005e
:103f500050c4b30080cf500005003200c18420005f
:103f60009140780080c5b30080cf500010003a0027
:103f7000c18420009140780050c4b30080cf50002d
:103f800003003a0010c0b300b5eab700670037007d
:103f9000c18420009140780080c5b30080cf5000dc
:103fa00062003a000040eb00b5eab7005f0037005e
:103fb0000040eb00d7eab7000000eb00d0568800c5
:103fc0001dcabf000080fb00a0498800a0498000f6
:103fd00000004000000040000000400000004000e1
:103fe00000004000000040000000400000004000d1
:103ff000a04988001ecabf008080fb00a049800045
:1040000000807000a0498800a0498000c055880049
:10401000a1498000b0082000808f50000d003600bc
:10402000a149800000192000808f500009003e0047
:10403000cfcabf000004e00006003a001ecabf005d
:1040400007ebb7001dcabf0006ebb700a049800010
:10405000c048880019cabf00f34f50000d00360059
:1040600091a1200091407800c0cdb30080cf5000d6
:1040700008003e00cfcabf000004e00005003a007f
:1040800019cabf0002ebb70002cbbf000080fb00e3
:1040900060498800b04480000000e800b044880017
:1040a000b0448000e40f5000040036000000eb0034
:1040b000b04488000000eb00d04888000ecbbf0061
:1040c000eeeab700eecabf00624060000004e00004
:1040d0000300320000c5b30036e9b7000200370024
:1040e00020c5b30036e9b7000040eb004de8b7004b
:1040f0000040eb0015e9b7000040eb0054e8b700c2
:104100000a0037000040eb004de8b7000040eb002c
:1041100015e9b7000040eb0054e8b7000040eb00a1
:104120004ee8b7000040eb004fe8b7000080fa000f
:104130004f0178004f00be0000400600809fbe0087
:10414000821f78000200fa000000eb00000f7800e8
:104150008520a9009010800058e8b70081852000d4
:104160009140780040c2b30080cf50000d003a006b
:1041700012c9bf000004e0000a003a0013c9bf00e2
:104180000004e00007003a000040eb005ce8b700e4
:1041900010c0b30012e9b7000040eb005ae8b700c6
:1041a00094003700818520009140780050c2b30010
:1041b00080cf50000f003a0012c9bf00e14f5000fd
:1041c0000c003a0013c9bf000004e00009003a00e7
:1041d00058c8bf005ce8b70010c0b30013e9b700cf
:1041e00010c0b3004be8b700007d2000d055880018
:1041f00080003700818520009140780030c2b300f4
:1042000080cf50000b003a0012c9bf00e14f5000b0
:1042100008003a0013c9bf000004e00005003a009e
:1042200058c8bf005ce8b70020c0b30013e9b7006e
:1042300070003700818520009140780000c4b300f1
:1042400080cf50000b003a0012c9bf00e14f500070
:1042500008003a0013c9bf000004e00005003a005e
:1042600058c8bf005ce8b70030c0b30013e9b7001e
:104270006000370012c9bf00e14f500048003a000b
:1042800013c9bf00e14f500045003a005ac8bf00b3
:104290008080fb00828520001241780090a42000dd
:1042a00000804000024878005ac8bf00e14f50002b
:1042b00008003e005ac8bf008080fb0090a4200088
:1042c00000804000904078005cc8bf0000c0400003
:1042d0005ce8b7005ac8bf000040e8005ae8b700e1
:1042e0005ac8bf00e34f500042003a000040eb00c4
:1042f00012e9b7000040eb0013e9b7000040eb0003
:104300005ae8b700b1a42000914078005cc8bf0013
:1043100080cf50001f003a0049cabf005de8b700d7
:104320004acabf005ee8b7005ec8bf000080fb005d
:10433000000f78001e0078000000400000004000e0
:10434000000040000000400000004000000040006d
:104350000000400000004000800078005dc8bf0001
:104360000080fb00008f70001e0078003044880041
:104370001e007800c05588000000eb00f046880061
:104380000040eb005ce8b70010c0b300aae8b7003b
:10439000180037000040eb0054e8b7001500370064
:1043a00012c9bf00e14f50000c003a0013c9bf0012
:1043b000e34f500009003a000040eb005ce8b70012
:1043c0000040eb0012e9b7000040eb0013e9b70032
:1043d0000040eb005ae8b700060037000040eb0051
:1043e0005ce8b7000040eb0012e9b7000040eb00ca
:1043f00013e9b7000080fa004f0178004f00be00bb
:1044000000400600801f78000000fa008740a900e5
:10441000e922a80026c2bf000044b2000004e00068
:104420000100320026c2a9000080fa004f00780087
:10443000004006002800fa00889fbe00acc8bf00fc
:104440000004e00057003a000040eb00e2eab70049
:10445000d0c4b300ffe9b700d0c4b30000eab7008e
:1044600010c4b30001eab700b0c5b30002eab70058
:10447000d0c4b30003eab700f0c4b30004eab70045
:1044800040c4b30005eab70050c4b30006eab70061
:104490000000eb00504f88000d0037000000eb00db
:1044a000404f880003003700404f80000000e800c4
:1044b000404f8800414f8000f0702200808f5000f4
:1044c000f9ff3600504f80000000e800504f880090
:1044d000514f8000700c2000808f5000efff36009d
:1044e000d722a800ca82a900cb02a80010c0b3003e
:1044f000ace8b7000040eb00aee8b7000040eb00ce
:10450000ade8b700e862a900e842a9000040eb006e
:10451000b1e8b7000040eb00b5e8b70010c0b30049
:104520008ae9b7000040eb005eeab7000040eb000c
:104530005feab7000000eb00104188000000eb00cc
:10454000f040880010c0b3009fe8b70020002000b2
:104550004c0707007044880071448000f03120004f
:10456000808f500002003600003220007044880026
:10457000400620003044880060002000410707000a
:10458000704488007144800030062000808f500005
:104590000200360040062000704488000000eb0056
:1045a000604b8800b4c8bf000004e0000e023a006f
:1045b00069c9bf000004e0000b023a00d722a8003e
:1045c000ca82a900cb02a80064c9bf000004e000b1
:1045d00098013a000040eb00e2eab7006ac9bf0068
:1045e0000004e0002a003a008dc9bf000004e0008a
:1045f00027003a00e2caa80040c8bf000004e0005b
:1046000054003a00c140800030448000808f500048
:1046100003003a009fc8bf00e14f500007003a0076
:104620003044800004f3070030448000c04088001c
:1046300031448000200020002f0707003140800017
:1046400020408000808f50000300320050448000e2
:10465000e10f5000030032009fc8bf00e14f50003f
:1046600004003a00204080001ef307002040800034
:10467000304088000000eb00504488000040eb0010
:104680009fe8b7000040eb0061eab7003100370057
:104690006ac9bf00e14f500015003a008dc9bf0044
:1046a0000004e00012003a0040c8bf000004e0002f
:1046b0000f003a00e2caa90010c4b300ffe9b70036
:1046c00020c5b30000eab70030c4b30001eab70068
:1046d00060c4b30002eab700604b800001f307003a
:1046e000614b8000600020000307070019003700bd
:1046f0006ac9bf000004e00016003a008dc9bf007f
:10470000e14f500013003a0040c8bf000004e00031
:1047100010003a0030c4b300ffe9b70010c4b30082
:1047200000eab700c0c4b30001eab700f0c2b300aa
:1047300002eab700d0c4b30003eab700f0c4b30084
:1047400004eab70040c4b30005eab70050c4b300a0
:1047500006eab700b84180006140b900f8ee0700f2
:1047600020179800311798000800e00007003d006e
:1047700002002000037824002e109000be1090004c
:104780001bef070020179800311798002e1090009b
:10479000be109000d04b8800e14b8800684b800031
:1047a0006140b900e6ee0700001798001117980065
:1047b0000800e00007003d0002002000037824000c
:1047c0000e1090009e10900009ef0700001798004f
:1047d000111798000e1090009e109000f04b88006a
:1047e000014c8800384480006140b900d4ee0700d5
:1047f000600f9800710f98000800e00007003d006e
:1048000002002000037824006e089000fe0890004b
:10481000f7ee0700600f9800710f98006e08900087
:10482000fe089000304c8800414c88008ac9bf00c7
:10483000e14f500022003a00304c8000414c800093
:10484000020028009340240046ef07000000e0002b
:104850000100350011003700304c8000414c8000d1
:10486000020020000317240040ef07000200200090
:10487000832c240092ef07000002be00304c800021
:10488000414c80000001be000400be00d8ee0700cd
:10489000104c8800214c880007003700304c800005
:1048a000414c800002002000832c2400d0ee070041
:1048b000104c8800214c8800d022a8003600370018
:1048c000d04b8000e14b80000200200063412400b7
:1048d00024ef07000000e000010034002a00370048
:1048e00031448000800c2000808f500020003e006a
:1048f000d24b8000e34b8000000020006141240087
:10490000baee070002002000634124006cef0700ac
:104910000002be00304c8000414c80000001be000f
:104920000400be0011ef07000004be00f04b800041
:10493000014c800002002000832c240060ef07005f
:104940000001be000800be0008ef07000002be0024
:10495000304c8000414c80000001be000400be00cd
:10496000a3ee0700104c8800214c8800040037009b
:10497000304c8000414c8000104c8800214c880055
:10498000d022a90004003700304c8000414c800048
:10499000104c8800214c8800104c8000214c800075
:1049a0000200200083442400a2ef07000000e00082
:1049b00001003d0004003700000020008144240075
:1049c000104c8800214c8800104c8000214c800045
:1049d0003233230033fd2300e4ee07000200200001
:1049e000533a240082ee070077ef07004046880024
:1049f00041468000b0b72000808f50000200360092
:104a0000c0b720004046880040468000000c880067
:104a100026c2bf00624060000004e00068003a0067
:104a2000e922a900104c8000214c800002002000e7
:104a3000a3282400cbee07000000e00001003500b1
:104a40002e003700085680006140b9003cee070098
:104a5000400f9800510f98000800e00007003d004b
:104a600002002000037824004e089000de08900029
:104a70005fee0700400f9800510f9800124c800025
:104a8000234c80004e089000de089000b7ee07002f
:104a900002002000832c240009ef0700200f98005b
:104aa000310f9800185680006140b90024ee0700cd
:104ab000000f9800110f98000800e00007003d006b
:104ac00002002000037824000e0890009e08900049
:104ad00047ee0700000f9800110f98000e09900094
:104ae0009e0990002e089000be08900040ee07003e
:104af00035ef0700b04b88002d00370008568000c6
:104b00006140b9000eee0700600798007107980039
:104b10000800e00007003d000200200003782400a8
:104b20006e009000fe00900031ee070060079800d4
:104b300071079800124c8000234c80006e0090009a
:104b4000fe00900089ee070002002000832c240064
:104b5000dbee0700400798005107980018568000c8
:104b60006140b900f6ed0700200798003107980072
:104b70000800e00007003d00020020000378240048
:104b80002e009000be00900019ee0700200798004c
:104b9000310798002e019000be0190004e00900059
:104ba000de00900012ee070007ef0700b04b880010
:104bb000b04b800001002700010040005011880028
:104bc00040c8bf00e14f50001a003a008141800008
:104bd00070418000808f50000700320050448000f8
:104be000e10f500004003a007041800092f107008c
:104bf000704180008041880031408000204080006a
:104c0000808f50000700320050448000e10f5000b8
:104c100004003a0020408000b2f1070020408000ec
:104c2000304088000000eb005044880010c0b30002
:104c30009fe8b70064c9bf00e14f50007a003a0016
:104c40000040eb00e2eab700e2caa900c1408000e0
:104c500030448000808f500044003200384480008f
:104c60006140b900b6ed0700008fbe000800e0000b
:104c700005003d0002002000037824001e00be0055
:104c8000dbed0700008fbe0062ba2900430024005c
:104c90001e00be0035ee070002002800533d240030
:104ca000d3ed0700c8ee070040468800414680006b
:104cb000b0b72000808f500002003600c0b720003f
:104cc0004046880040468000000c88003044800048
:104cd000c040880026c2bf00624060000004e000bf
:104ce00022003a00e922a900104c8000214c8000eb
:104cf00002002000a32824001aee07000000e000b4
:104d0000010035000b003700104c8000214c800062
:104d1000020020000305240014ee0700020020001a
:104d2000b33e2400b2ed0700a7ee0700b04b8800a9
:104d30000a003700104c8000214c8000a299290005
:104d40009304240009ee070002002000133e240013
:104d5000a7ed07009cee0700b04b8800b04b800029
:104d600001002700010040005011880066c9bf0003
:104d7000e14f50000a003a0030c4b300ffe9b70029
:104d800010c4b30000eab700c0c4b30001eab70022
:104d900010c3b30002eab700604a800051f1070077
:104da00067c9bf00e14f50000a003a0030c4b300a9
:104db000ffe9b70010c4b30000eab700c0c4b300f5
:104dc00001eab70020c3b30002eab700704a8000ce
:104dd00044f10700100020005044880010c0b300c8
:104de0009fe8b700100037000040eb00e2eab70090
:104df0000000eb00000c8800d722a90026c2bf00eb
:104e0000624060000004e00007003a00e922a900c7
:104e10000000eb00b04b8800b14b80000000270081
:104e2000008040005011880069c9bf00e14f500068
:104e300013003a000040eb00e2eab7000000eb008c
:104e4000000c8800d722a90026c2bf006240600083
:104e50000004e00007003a00e922a9000000eb008e
:104e6000b04b8800b14b800000002700008040005c
:104e70005011880069c9bf00e14f5000fdff3200aa
:104e80004f04be000080fa00000006000c00fa008b
:104e9000100798009e009000b02b2000808f5000db
:104ea0001e0036009e00900000322000808f5000cf
:104eb0001a003e001e009000cf80de0020ed0700ab
:104ec00040079800510798001e0090000000e00085
:104ed00007003d0002002000037824004e009000ef
:104ee000de00900042ed070040079800510798004f
:104ef00012ae2700430024004e009000de00900018
:104f00009aed070002002000133e240038ed070050
:104f10002dee0700000f7800190037001e009000ea
:104f2000cf80de0006ed07002007980031079800cb
:104f30001e0090000000e00007003d00020020007d
:104f4000037824002e009000be00900028ed07009a
:104f50002007980031079800a299290093042400a3
:104f60002e009000be00900080ed0700020020009f
:104f7000133e24001eed070013ee0700000f78001b
:104f80001e0078000080fa00000006000000fa0011
:104f900044c8bf00e14f500002003a00c048800002
:104fa00097020700adc8bf000004e00040003a00cf
:104fb0000040eb000feab7000040eb00e2eab70068
:104fc000d0c4b300ffe9b70090c4b30000eab70053
:104fd00070c4b30001eab700b0c5b30002eab7007d
:104fe000d0c4b30003eab700f0c4b30004eab700ca
:104ff00040c4b30005eab70050c4b30006eab700e6
:105000000000eb00504f88000d0037000000eb005f
:10501000404f880003003700404f80000000e80048
:10502000404f8800414f8000f0702200808f500078
:10503000f9ff3600504f80000000e800504f880014
:10504000514f8000700c2000808f5000efff360021
:105050000040eb00ace8b7000040eb00aee8b70062
:1050600010c0b300ade8b7000040eb00b1e8b700f6
:10507000cb02a8000040eb005eeab7000040eb0066
:105080005feab700ca82a900d722a900c7a2a90077
:10509000cba2a90010c0b3009fe8b7000040eb000e
:1050a000f0e8b70010c0b3000feab7008e00370079
:1050b000b4c8bf000004e00070003a00adc8bf00f3
:1050c000e14f50006d003a0058c9bf000004e000f5
:1050d00052003a00e862a900e842a800ed4aa9009f
:1050e0000040eb00e2eab700e24aa800e2caa800ea
:1050f0007149800060498000808f500008003a00ac
:1051000002cbbf008080fb0060498000808f500090
:1051100003003a009fc8bf00e14f50000c003a0066
:10512000bccabf000004e00005003a00d6cabf00b8
:105130000004e00002003a00604980003ef00700f1
:1051400060498000704988006049800002ebb70028
:10515000f1488000c0488000808f500003003a0072
:105160009fc8bf00e14f500013003a00bccabf0007
:105170000004e00005003a00d6cabf000004e000c9
:1051800002003a00c048800056f00700c048800086
:10519000f0488800c0488000a0498800a0498000ed
:1051a00007ebb700a04980004800de00a049880056
:1051b000a049800006ebb70044c8bf00e14f500093
:1051c00003003a003a0507000040eb0044e8b7004e
:1051d000cba2a900d722a900ca82a900cb02a800ad
:1051e0000000eb00304988000000eb00000c880054
:1051f000f0ff2100e0488800f0ff2100f04888001f
:105200000040eb00cae9b7006000b800204d8800fc
:10521000314d8800edaaa8003300370058c9bf00ff
:10522000e14f500030003a0010c0b30044e8b7002e
:10523000ed4aa800e862a800e842a9000040eb009f
:10524000e2eab700e2caa800704180000aebb700aa
:10525000704180004800de0009ebb700204080006c
:105260000cebb700204080004800de000bebb700dd
:105270000000eb00504488001b003700b4c8bf009a
:10528000e14f500018003a000040eb00e2eab7009e
:10529000cba2a900d722a900ca82a900cb02a800ec
:1052a0000040eb00b5e8b7000000eb00000c880000
:1052b0000000eb00300c88000040eb005fe8b70016
:1052c0000000eb00f04088000000eb001041880077
:1052d00069c9bf00e14f500003003a0069c9bf002f
:1052e000e14f5000fdff32000040eb00bae8b7008c
:1052f0000080fa00000006000800fa00881f78000d
:1053000058c9bf000004e00002003a000000eb00b2
:1053100020538800919320009140780020c3b3006f
:1053200080cf5000d6003a0020538000300798000c
:105330003e009000e20f50007c0032003e009000e2
:10534000e20f500007003e003e0090000000e00029
:105350000b0032003e009000e10f5000350032009b
:10536000a40137003e009000e30f50008c00320093
:105370003e009000e40f50009f0032009d01370076
:1053800058c9bf000004e0001b003a000040eb00d9
:10539000d4eab7000040eb00e2eab7000000eb00ff
:1053a0004045880010c0b30058e9b700cba2a80060
:1053b000d722a800ca82a800cb02a8000000eb00f8
:1053c0008f0107000000eb00cf01070010c0b30001
:1053d0005fe8b7000000eb00304988000000eb00f8
:1053e000304f8800ed6aa900ed2aa800ed4aa80018
:1053f0001000200020538800619320009140780025
:1054000020c5b30080cf50007a013a00ed4aa900d0
:10541000ed6aa900ed2aa9000040eb00d4eab7002c
:105420000000eb00e0568800400020002053880078
:105430007001370010002000205388006193200085
:105440009140780020c5b30080cf500010003a0092
:10545000ed4aa9000040eb005fe8b7000000eb0058
:10546000300c88000040eb0059e9b7000040eb0029
:10547000d2eab7000040eb00d4eab7000000eb002e
:10548000e056880040002000205388005901370072
:10549000d4cabf000004e00009003a00e0568000d2
:1054a0000000e00006003a0010c0b300d4eab700e4
:1054b0000000eb00c05688000040eb00d6eab700c1
:1054c000bccabf000004e0000d003a00d6cabf000d
:1054d0000004e0000a003a0071418000d002200080
:1054e000808f500002003e000000eb0070418800f9
:1054f0007041800050ef07002040800079ef0700e6
:10550000c04880003e010700b04880007e010700cf
:10551000e05680000000e00036013a00ed6aa80085
:10552000ed2aa800ed4aa80032013700cba2a9005d
:10553000d722a900ca82a900cb02a8000000eb0074
:105540002f0107000040eb0059e9b7000000eb0015
:10555000304f880010c0b300d3eab700ed6aa9004d
:10556000ed2aa800ed4aa8000040eb00d4eab700fd
:105570003000200020538800619320009140780083
:1055800020c5b30080cf50001a013a000000eb00a4
:10559000300c8800300020002053880015013700af
:1055a000cba2a900d722a900ca82a900cb02a800d9
:1055b0000040eb0058e9b7000040eb005ce9b700a1
:1055c000ed4aa800ed6aa900ed2aa8000040eb0012
:1055d000d2eab7000000eb00304f88000040eb003b
:1055e000d3eab7000000eb000501070040002000ef
:1055f00020538800ff003700cba2a900d722a900c2
:10560000ca82a900cb02a8000040eb0058e9b7000d
:105610000040eb005ce9b700ed4aa9000000eb0098
:10562000304f8800ed6aa900ed2aa9000040eb0088
:10563000d3eab7000040eb00d4eab7000000eb006b
:10564000ef0007000000eb00300c88000040eb008a
:105650005fe8b7000000eb00404588000040eb0029
:1056600059e9b7000000eb00304f88000040eb0024
:10567000d2eab7000000eb00e0568800dd003700fa
:10568000919320009140780040c3b30080cf500038
:10569000d8003a0020538000200798002e00900088
:1056a000e10f50003f0032002e009000e10f50004b
:1056b000070039002e009000e20f5000aa003200cf
:1056c0002e009000e40f5000b5003200c9003700f2
:1056d00058c9bf000004e00019003a0010c0b30030
:1056e00058e9b700cba2a800d722a800ca82a80018
:1056f000cb02a8000040eb005ae9b7000040eb00e5
:105700005be9b7000000eb00bd0007000000eb0004
:10571000300c88000040eb00d4eab70010002000f5
:10572000205388000000eb00404588000000eb009b
:1057300030498800ed6aa900ed2aa800ed4aa800ca
:10574000d7c2bf00624060000004e000a9003a0038
:10575000d722a800ca82a800cb02a8000040eb0014
:105760005ae9b7000040eb005be9b7000000eb002e
:10577000a300070010c0b300d4eab7000000eb009c
:10578000300c880010002000205388000000eb003f
:1057900030498800ed6aa900ed2aa800ed4aa8006a
:1057a00094003700619320009140780020c5b30039
:1057b00080cf500015003a005ac9bf000004e00035
:1057c00012003a005bc9bf000004e0000f003a007d
:1057d00010c0b3005ae9b700100020002053880021
:1057e00010c0b3005fe8b700ed6aa800c0488000b1
:1057f00083000700b0488000c3000700ed6aa800de
:10580000ed2aa800ed4aa8007a0037006193200035
:105810009140780020c5b30080cf500010003a00be
:105820005ac9bf00e14f50000d003a005bc9bf00ec
:105830000004e0000a003a00100020002053880015
:10584000c04880006e000700b0488000ae0007002e
:10585000ed6aa800ed2aa800ed4aa800650037000f
:10586000619320009140780000c5b30080cf5000c4
:1058700025003a005ac9bf00e14f500022003a000b
:105880005bc9bf000004e0001f003a0010002000c8
:1058900020538800c84880006140b900a8ea07008a
:1058a000008fbe000800e00005003d00020020005f
:1058b000037824001e00be00cdea0700008fbe0062
:1058c0000200200003f423001e00be0027eb0700a7
:1058d000bdeb07004a0007000040eb005fe8b7009f
:1058e0000000eb00300c88000040eb0059e9b700e5
:1058f00010c0b3005be9b700ed6aa800ed2aa8006c
:10590000ed4aa8003b0037006193200091407800e9
:1059100020c5b30080cf500036003a005ac9bf00fe
:10592000e14f500033003a005bc9bf00e14f500027
:1059300030003a00ed6aa9002000200020538800c2
:105940000000eb002e0007000000eb00300c880088
:105950000040eb0059e9b700ed6aa800ed2aa80065
:10596000ed4aa80023003700cba2a900d722a90046
:10597000ca82a900cb02a8000000eb0020000700ab
:105980000000eb00300c880040002000205388000d
:10599000ed6aa900ed2aa800ed4aa800150037001d
:1059a000cba2a900d722a900ca82a900cb02a800d5
:1059b0000040eb0058e9b7000040eb005ae9b7009f
:1059c0000040eb005be9b7000000eb000c000700b3
:1059d0000000eb00300c88000040eb005ce9b700f1
:1059e0000000eb0020538800ed6aa900ed2aa90011
:1059f000ed4aa9004f0478000080fa00000006007c
:105a00000200fa00000f78005fc9bf00e14f5000ac
:105a100003003a00580107000040eb005fe9b700bf
:105a20001e00e0002b00320026c2bf006240600072
:105a30000004e00032003a00e922a900cac9bf0010
:105a40000004e00010003a00314e80002056800033
:105a50000088b900a2002000110009000280d800cf
:105a600000017800705580008155800000004100e1
:105a7000b04b8800b14b8000000027000080400040
:105a8000501188001e003700cac9bf00e14f500006
:105a90001b003a00414e8000205680000088b9006b
:105aa000a2002000110009000280d8000001780047
:105ab000705580008155800000004100b04b880087
:105ac000b14b80000000270000804000501188008a
:105ad0000b00370026c2bf00624060000004e000f7
:105ae00007003a00e922a9000000eb00b04b880053
:105af000b14b80000000270000804000501188005a
:105b00000080fa00000006000600fa00000f78008e
:105b10001e007800cf80de0009ea07001007980019
:105b2000210798001e00e00007003d000200200051
:105b3000037824001e009000ae0090002cea0700bd
:105b40001007980021079800d2a3200073002400ba
:105b50001e009000ae00900084ea07001aeb0700d8
:105b6000804488000080fa00000006000e00fa0061
:105b7000889fbe008a9fbe00c048800001002000b0
:105b8000c0598800d15988001049800001002000c8
:105b9000e0598800f1598800e2598000f3598000eb
:105ba000c0598000d1598000000051008180590007
:105bb000405988005159880040598000515980004f
:105bc000600798006e0090000000e00003003d00b8
:105bd000ee0090008100ea00610798006e019000dd
:105be0006110b900805a8800915a8800f8558000e9
:105bf0006140b900d2e907004007980051079800ba
:105c00000800e00007003d000200200003782400a7
:105c10004e009000de009000f5e907004007980074
:105c2000510798004e029000de029000c458880090
:105c3000d5588800085680006140b900c0e90700c7
:105c400020079800310798000800e00007003d0099
:105c500002002000037824002e009000be00900077
:105c6000e3e9070020079800310798002e00900014
:105c7000be009000e0588800f15888001856800057
:105c80006140b900aee90700008fbe000800e000e7
:105c900005003d0002002000037824001e00be0025
:105ca000d3e90700008fbe001e02be000459880021
:105cb0001559880000d0270001002000a059880055
:105cc000b159880060002000704f88004259800060
