:020000040000fa
:080000000001040000000000f3
:020000040000fa
:100200000f76210020ff210000018800000000007f
:10021000050007000c000700a03b020000000000e2
:100220000040da000000fe004440a9008075210073
:100230000000e0000300320000002000a001880060
:100240004440a8000000060000fe25000100200038
:100250001600370062004000e080480091018800ed
:100260009001ba0062004000e080480091018800df
:100270009002ba0062004000e08048000002eb00fb
:100280006028e10005003a008301e900070033001f
:10029000038009000059eb00040037006128e100e9
:1002a000010032000082eb00050007009101880088
:1002b0001001ba000200e000e6ff3a00000005006d
:1002c000910188008002780062004000e0804800d0
:1002d0003559ba008301e900080032002559ba00f7
:1002e0008301e900050032000400e000f4ff320061
:1002f00015d9ba008301e900f1ff3a0000000600b9
:10030000889fbe008a9fbe00010578000100e000c2
:100310000400350008003c000000e000200032002e
:100320000500370060001000e080180002003b006c
:1003300001f02c001a0037000004be006011b80064
:100340006b0920000982cf00020039000882cf002b
:100350000441b000694252000e00320008003b0028
:1003600082817100610164008904d1000884d30096
:100370008b05e8000442e800f9ff3a000500370069
:100380000804440089844c008b05e9000442e9001c
:10039000fbff3a00190107000af0a70001f0a000d6
:1003a0004f05be004f04be000000060003f0a2008f
:1003b000889fbe008a9fbe008c1f78003501070011
:1003c0003c0133006450e1004f0032006420e10042
:1003d0005200320003826c0007003b000905d00088
:1003e0000306d000820f54000c065d0002003900a5
:1003f00002003200890178000306780085825500ea
:1004000004003d000003fd008103fd008502ea00b9
:100410008b854200840f720002003b0060001000d8
:10042000e08018006011b8000005eb007a28e100b8
:100430000a00390006007800c75ddd00f707b2004a
:10044000878075002d003700828171000a017800d5
:10045000610560008180d1000080d3008502e90041
:10046000f9ff3b00060440008784480002003b007f
:1004700060041400e0841c000988a3000700320017
:100480008a81710082817100610164008904d10058
:100490000884d3008b05e800170037000978a30013
:1004a00013003a000b00e000130034008b05e90054
:1004b0000804440089844c000a4474000978a300ad
:1004c0000d003a000b00e000070034008b05e90046
:1004d0000804440089844c0001003a000b0020000d
:1004e0000978a300f7ff32000001eb00020037009b
:1004f000828171000a017800c00007000cf0a7009b
:1005000001f0a000f40037006420e10002003a008e
:10051000838f6c00f40033000801be000200be00af
:10052000ed003700889fbe008a9fbe008c1f7800b8
:10053000d8000700df00330003866c006450e10040
:10054000240032006420e100270032006150e10005
:10055000220032006120e100210032008b85420040
:10056000eb07b1000134b800003ab80008044200bb
:1005700089844a00013ab8000030b8008880400001
:1005800009014a0004003300000040008180480057
:10059000020149008b05e900c909dd0083017000f3
:1005a0000100320013002000c814de004814dd00f2
:1005b0004709de001200b200c808de00088470009f
:1005c0008e00070001f0a1000cf0a70001f0a000d0
:1005d000c10037006120e100c30032000801be0005
:1005e0000200be00f7ff37006150e100fcff3a0057
:1005f000bd0037000001be00be0007000470a70068
:1006000003f0a10003f8a30013003a006509b1004c
:1006100010003200090035006928e10002003500b1
:100620000100280000000500000040008180480013
:100630008502e900fcff3a0000000600f88f420046
:10064000050035008100d1000080d3008502e8005c
:10065000fcff3a00000006008000eb0000000500ef
:10066000f4ff2f00b800370014002000b600370058
:10067000889fbe008a9fbe008c1f780085000700ff
:100680008c00330003866c006450e1002e003200c1
:100690006420e100330032006150e1002f0032009d
:1006a0006120e1003100320085855500eb07b00084
:1006b0000900200008042000050037000804440059
:1006c00089844c000a0031000603430087834b00f5
:1006d0000001530081815b00f8ff33000203be007c
:1006e0000800a0000804440089844c00f6ff39008b
:1006f000c639dd00830173000100320013002000c1
:100700008904d1000884d3000998a30005003200b1
:100710000800a7000300a0008904d1000884d300ca
:100720008b05e8008904d1000884d3000001eb00a8
:100730000281d2003100070001f0a1000cf0a700f7
:1007400001f0a000640037006420e1006600320080
:100750000801be000200be00f7ff37006120e10083
:10076000610032006000b800f3ff37000000200095
:1007700001f82700f0ff37000001be005d00070010
:100780000470a70003f0a1006509b1001600320053
:100790000d0035006828e10006003500f0ff2f004d
:1007a000f1ff27000300e00013003b0001002800d8
:1007b0000000050000004000818048008502e9003b
:1007c000fcff3a0008003700f88f420002003c00ae
:1007d0008000eb00000005008100d1000080d30004
:1007e0008502e800fcff3a000300e00002003b0045
:1007f00060001000e080180000000600810020006a
:10080000618055000b003d000b00200061fe2f00b1
:100810000100e1001d00340082817100610164006b
:100820008904d1000884d3000000e800faff3a00f0
:10083000710020006100640003007000020060008d
:100840000900320061044400e0844c000988a500de
:10085000050032008b05e8006808e10002003a005c
:100860008904d1000884d300f20f20000258e1006f
:1008700005003d00c75ddd00f907b2008980750005
:1008800008007800000006000bf827008b007800b5
:10089000000005000004be00160007000003be00b3
:1008a0000405be000200be0012000700844f750060
:1008b000000006000200be006450e10005003600a2
:1008c0006420e100020036000968a30001003a003c
:1008d0000800be000160a0004f0678004f05be0072
:1008e0004f04be0000000600f0ff2f00f1ff2700bc
:1008f000f9ff3700c70ade00f107b200f50fb200ba
:1009000008003200e1cf4200020032000170a00076
:1009100024000500810f700001003200040805006a
:1009200044000500810f700002003a001400050029
:100930008502e9000000400081c04800fcff3b0048
:100940000170a00024000500889fbe008a9fbe00a1
:10095000841f7800cfff07004f007800110033009c
:10096000f0ff2f00838f6c0006003b00040565003c
:100970000a00a7000800370009f0a60010002000b8
:1009800008003700820f5400838f5c000300390099
:100990001000200001003e000000200009f0a70028
:1009a0000000ea004f05be004f04be000000e0005a
:1009b000000006000600fa0040479800218420004d
:1009c0009140780070c4b30080cf500043003a00db
:1009d0004e4090008080fb00400220000088b9005b
:1009e000800bb000cf80de00008fbe0042c8bf0089
:1009f00061406000614060000040400000404000f5
:100a000000404000004040000040400000414000e5
:100a1000b12e210091407800f0cbb30000c06000ff
:100a200002407000ebf2b70023d1bf000080fb0052
:100a30004400de0061406000004040000040400093
:100a400000404000004040000040400000404000a6
:100a500080404000ebd2bf000074a1000140700054
:100a6000ebf2b70042c8bf008080fb001e00780098
:100a7000e0010700ebd2bf008080fb001e00780081
:100a80000080e800db01070011aa80001e0078004a
:100a900064004000d701070021aa80001e007800f2
:100aa0006e004000d301070031aa80001e007800cc
:100ab00074004000cf01070041aa80001e007800aa
:100ac00078004000cb01070041af80001e00780095
:100ad0007c004000c701070015003700218420007a
:100ae0009140780040c5b30080cf500010003a001c
:100af0004e4090008080fb00400220000088b9003a
:100b0000800bb000cf80de00008fbe0042c8bf0067
:100b10008080fb001e007800b6010700edd2bf0008
:100b20008080fb001e0078000080e800b101070013
:100b30000080fa00000006000400fa00881f780018
:100b4000204798002e4090008080fb00400220004b
:100b50000088b900800bb000000f78002e40900094
:100b60000084fb00210220001e80400001002000c4
:100b700080010700800f540054003a001e007800e6
:100b8000010020007b01070042e8b700218420001b
:100b90009140780070c4b30080cf500041003a000b
:100ba0001e80e8000100200072010700ebf2b70090
:100bb0009e00780064804000010020006d01070065
:100bc00010aa88009e0078006e804000010020007e
:100bd0006801070020aa88009e0078007480400009
:100be000010020006301070030aa88009e00780001
:100bf00078804000010020005e01070040aa8800c4
:100c00009e0078007c804000010020005901070010
:100c100040af8800ebd2bf000080fb004600de0042
:100c20006140600042e8b700ebd2bf000080fb00eb
:100c30004700de006140600000404000004040008e
:100c400000404000004140003112210091407800f6
:100c5000f0ceb30000c060000240700023f1b70086
:100c600023d1bf000080fb004400de006140600033
:100c70000004a2006140600061406000004040004c
:100c800000404000004140003112210091407800b6
:100c900070cfb30000c060000240700023f1b700c5
:100ca00009003700218420009140780040c5b3003e
:100cb00080cf500004003a001e80e80001002000b0
:100cc0002c010700edf2b7007a0307004f0478000b
:100cd0000080fa00000006000600fa0010079800e5
:100ce000210798000080eb00000f7800a1c12000d0
:100cf0009140780080c5b30080cf50000e003a00cc
:100d00000000eb00606288001e019000ae019000c0
:100d100000002f00f10720000200400083804800ff
:100d2000706288008162880032c0bf000080fb00d2
:100d3000906288004b003700a1c1200091407800ec
:100d4000d0c4b30080cf50000e003a000000eb008a
:100d5000606288001e019000ae01900000012f002b
:100d6000f107200002004000838048007062880084
:100d70008162880032c0bf000080fb009062880062
:100d800038003700a1c120009140780040c5b30071
:100d900080cf50000e003a000000eb006062880037
:100da0001e019000ae019000000c2f00f107200002
:100db00002004000838048007062880081628800e1
:100dc00032c0bf000080fb00906288002500370021
:100dd000a1c120009140780070c4b30080cf5000c2
:100de0000e003a000000eb00606288001e019000d7
:100df000ae01900000002f00f1072000020040002b
:100e000083804800706288008162880032c0bf0021
:100e10000080fb009062880012003700a1c1200012
:100e20009140780000c5b30080cf50000d003a001b
:100e30000000eb00606288001e019000ae0190008f
:100e4000002d2f00f10720000200400083804800a1
:100e5000706288008162880032c0bf000080fb00a1
:100e60009062880070628000816280004008de002d
:100e70000100200032e0b7007062800081628000d3
:100e80001000ba00000f78009062800032e0b700d6
:100e90001e0078000080fa00000006000800fa003a
:100ea000000f780011079800a1c120009140780040
:100eb00080c5b30080cf50000e003a000000eb0068
:100ec000606288001e0078006101b80000002f00f9
:100ed000f107200002004000838048007062880013
:100ee0008162880032c0bf000080fb0090628800f1
:100ef0004b003700a1c1200091407800d0c4b3005e
:100f000080cf50000e003a000000eb0060628800c5
:100f10001e0078006101b80000012f00f1072000d9
:100f2000020040008380480070628800816288006f
:100f300032c0bf000080fb0090628800380037009c
:100f4000a1c120009140780040c5b30080cf50007f
:100f50000e003a000000eb00606288001e0078007e
:100f60006101b800000c2f00f107200002004000d2
:100f700083804800706288008162880032c0bf00b0
:100f80000080fb009062880025003700a1c120008e
:100f90009140780070c4b30080cf50000e003a003a
:100fa0000000eb00606288001e0078006101b8005c
:100fb00000002f00f107200002004000838048005d
:100fc000706288008162880032c0bf000080fb0030
:100fd0009062880012003700a1c120009140780083
:100fe00000c5b30080cf50000d003a000000eb00b8
:100ff000606288001e0078006101b800002d2f009b
:10100000f1072000020040008380480070628800e1
:101010008162880032c0bf000080fb0090628800bf
:1010200061c7bf000042b2000004e0004c003a007b
:1010300070628000816280004008de0001002000b4
:101040000074a10064e7b7007062800081628000d4
:10105000103b880061c7a80001762000914078000d
:1010600000c8b30000c0600041c4b300014070007c
:1010700060e7b70050052000303b8800a00a200040
:10108000303b880061e7a80000000000000000007d
:101090002007980061c7bf0001c8b300014060008d
:1010a0000004e000fbff3a001e0078000100200071
:1010b00009ff0700e10f400027003a00706280003e
:1010c000816280004008de000100200032e0b700ad
:1010d00070628000816280001e0190000208bb00e7
:1010e00061c7a800017620009140780000c8b300d5
:1010f00000c060000024a00060e7b7005005200099
:10110000303b8800a00a2000303b880061e7a8003f
:1011100000000000000000003007980061c7bf0019
:1011200001c8b300014060000004e000fbff3a008a
:101130001e00780001002000e7fe07008000780014
:101140001e009000808f500005003200100020002b
:101150006062880002003700200020006062880082
:101160009062800032e0b700606280000080fa0088
:10117000000006000600fa001007980021079800fa
:101180000080eb00000f78000000eb006062880038
:101190001e019000ae01900000002f00f10720001a
:1011a00002004000838048007062880081628800ed
:1011b00032c0bf000080fb00906288007062800037
:1011c000816280004008de000100200032e0b700ac
:1011d00070628000816280001000ba00000f780009
:1011e0009062800032e0b7001e0078000080fa00b4
:1011f000000006000800fa00000f780011079800b0
:101200000000eb00606288001e0078006101b800f9
:1012100000002f00f10720000200400083804800fa
:10122000706288008162880032c0bf000080fb00cd
:101230009062880061c7bf000042b2000004e00075
:101240004c003a0070628000816280004008de003d
:10125000010020000074a10064e7b7007062800004
:1012600081628000103b880061c7a80001762000e1
:101270009140780000c8b30000c0600041c4b300d2
:101280000140700060e7b70050052000303b880047
:10129000a00a2000303b880061e7a80000000000a1
:1012a000000000002007980061c7bf0001c8b3001c
:1012b000014060000004e000fbff3a001e007800df
:1012c0000100200084fe0700e10f400027003a00e3
:1012d00070628000816280004008de000100200012
:1012e00032e0b70070628000816280001e019000d1
:1012f0000208bb0061c7a800017620009140780079
:1013000000c8b30000c060000024a00060e7b70080
:1013100050052000303b8800a00a2000303b8800a8
:1013200061e7a800000000000000000030079800fe
:1013300061c7bf0001c8b300014060000004e000c5
:10134000fbff3a001e0078000100200062fe07004b
:10135000800078001e009000808f50000500320051
:10136000100020006062880002003700200020008a
:10137000606288009062800032e0b70060628000a6
:101380000080fa00000006000200fa0080c5b300e9
:101390001aecb7000000eb00000f78001e00780088
:1013a0000100200073ff0700ebf2b7001e00780079
:1013b000010020006fff070042e8b700e00b2000ab
:1013c0000100200044fe070090978800000c2000d8
:1013d0000100200040fe0700f4f2b700200c2000be
:1013e000010020003cfe0700f5f2b7009097800056
:1013f000e10f40000400320091978000703e200011
:10140000808f5000050036000000eb0090978800a8
:1014100091978000e00b2000a0fe0700412f2100e3
:1014200091407800c0c3b30080cf50000600360062
:101430000040eb00f4f2b700f4d2bf008080fb0064
:10144000000c200095fe0700512f210091407800ec
:10145000c0c3b30080cf5000060036000040eb0050
:10146000f5f2b700f5d2bf008080fb00200c200011
:101470008afe0700400b20000100200016fe070036
:1014800092f4b700600b20000100200012fe07005c
:1014900093f4b700800b2000010020000efe07002f
:1014a00094f4b700a00b2000010020000afe070002
:1014b00095f4b700214921009140780030c6b3006f
:1014c00080cf5000060036000040eb0092f4b700d9
:1014d00092d4bf008080fb00400b20006ffe07000d
:1014e000314921009140780030c6b30080cf5000d0
:1014f000060036000040eb0093f4b70093d4bf0021
:101500008080fb00600b200064fe07004149210041
:101510009140780030c6b30080cf500006003600fe
:101520000040eb0094f4b70094d4bf008080fb002f
:10153000800b200059fe070051492100914078009e
:1015400030c6b30080cf5000060036000040eb00ec
:1015500095f4b70095d4bf008080fb00a00b20005d
:101560004efe0700218420009140780070c4b30033
:1015700080cf500066003a000000eb00000f7800ba
:101580001e80e80001002000fafe0700ebf2b70021
:101590009e0078006480400001002000f5fe0700f6
:1015a00010aa88009e0078006e8040000100200094
:1015b000f0fe070020aa88009e007800748040009a
:1015c00001002000ebfe070030aa88009e00780092
:1015d0007880400001002000e6fe070040aa880055
:1015e0009e0078007c80400001002000e1fe0700a2
:1015f00040af8800ebd2bf000080fb004700de0058
:101600006140600000404000004040000040400059
:10161000004140003112210091407800f0ceb3002b
:1016200000c060000240700023f1b70023d1bf006a
:101630000080fb004400de00614060000004a20066
:101640006140600061406000004040000040400098
:1016500000414000311221009140780070cfb3006a
:1016600000c060000240700023f1b700ebd2bf0061
:101670000080fb00209f880010aa8000609e8800e8
:1016800020aa8000a09e880030aa8000c09e88000a
:1016900040aa8000709d880040af800030af880075
:1016a00080042000000f78001e80e8000100200068
:1016b000b0fe0700edf2b700edd2bf000080fb00e6
:1016c000309f88001e80e80001002000a9fe07006e
:1016d00090b3880090b3800050af88000000eb000a
:1016e000000f78001e00780001002000a1fe070016
:1016f000ebf2b7001e007800010020009dfe0700fd
:1017000042e8b70042c8bf0056f0b70028003700d3
:101710002184200091407800d0c4b30080cf5000d5
:1017200015003a0080042000000f78001e80e800b9
:10173000010020008ffe0700edf2b70042c8bf0095
:1017400056f0b700edd2bf000080fb00309f88004c
:101750001e80e8000100200086fe070090b388008c
:10176000ebd2bf000080fb00209f880090b3800078
:1017700050af88000e00370021842000914078008f
:1017800040c5b30080cf500009003a00c0062000d9
:10179000000f78001e80e8000100200075fe0700a1
:1017a000edf2b700edd2bf000080fb00309f880053
:1017b0000080fa00000006000800fa006000b8008f
:1017c000008fbe00d0a580000000e800d0a58800f2
:1017d00091978000506a8000808f50000500320091
:1017e00091978000e00b2000acfd070090978000ef
:1017f000506a8800f4d2bf008080fb00606a8000dd
:10180000808f500007003200f4d2bf008080fb00c0
:10181000000c2000a1fd0700f4d2bf000080fb00f7
:10182000606a8800218420009140780070c4b30071
:1018300080cf50005d003a006000b800200798009b
:101840003107980023d1bf000080fb004400de0078
:101850006140600000404000004040000040400007
:1018600000404000004040000040400080404000f8
:10187000ebd2bf000074a10001407000ebf2b70092
:10188000610521009140780042c8bf0080cf500020
:101890000600320042c8bf008080fb001e007800b6
:1018a00054fe070042c8bf0056f0b700ebd2bf009d
:1018b0008080fb00209f8000808f50000800320055
:1018c000ebd2bf008080fb002e0090000080e8007b
:1018d00048fe0700ebd2bf000080fb00209f88007d
:1018e000619e800010aa8000808f500006003200a8
:1018f00011aa80002e009000640040003dfe070009
:1019000010aa8000609e8800a19e800020aa80000e
:10191000808f50000600320021aa80002e00900027
:101920006e00400033fe070020aa8000a09e8800c1
:10193000c19e800030aa8000808f500006003200d7
:1019400031aa80002e0090007400400029fe07009c
:1019500030aa8000c09e8800719d800040aa80004f
:10196000808f50000600320041aa80002e009000b7
:10197000780040001ffe070040aa8000709d88008c
:1019800031af800040af8000808f500047003200b0
:1019900041af80002e0090007c00400015fe070043
:1019a00040af800030af8800400037002184200025
:1019b00091407800d0c4b30080cf50001a003a00a4
:1019c00080042000010020002007980031079800c3
:1019d000610521009140780042c8bf0080cf5000cf
:1019e0000600320042c8bf008080fb001e00780065
:1019f00000fe070042c8bf0056f0b70051af80009c
:101a000090b38000808f50002800320091b3800096
:101a10002e0090000080e800f6fd070090b38000e3
:101a200050af8800210037002184200091407800c9
:101a300040c5b30080cf50001c003a00c006200013
:101a4000010020002007980031079800610521005f
:101a50009140780042c8bf0080cf5000060032009d
:101a600042c8bf008080fb001e007800e1fd070037
:101a700042c8bf0056f0b700edd2bf008080fb0027
:101a8000309f8000808f500008003200edd2bf00f0
:101a90008080fb002e0090000080e800d5fd07004c
:101aa000edd2bf000080fb00309f88000080fa006c
:101ab000000006000400fa006000b800008fbe00bd
:101ac000218420009140780070c4b30080cf500082
:101ad000120032002184200091407800d0c4b3006d
:101ae00080cf50000d00320021842000914078000a
:101af00040c5b30080cf50000800320070c4b3006e
:101b000042e8b70042c8bf008080fb001e0078009a
:101b1000b8fd070042c8bf0056f0b700218420007e
:101b20009140780070c4b30080cf500068003a0044
:101b30006000b800008fbe0010aa80000000e00026
:101b40000300320010aa8000e90f500008003600a0
:101b50000000eb0010aa880011aa80001e00780087
:101b600064004000a3fd070010aa8000609e88006a
:101b700020aa80000000e0000400320021aa8000ba
:101b8000700c2000808f50000800360020002000dc
:101b900020aa880021aa80001e0078006e00400064
:101ba00094fd070020aa8000a09e880030aa800033
:101bb0000000e0000300320030aa8000e90f50006e
:101bc000080036000000eb0030aa880031aa80002f
:101bd0001e0078007400400086fd070030aa8000d7
:101be000c09e880040aa80000000e000040032008f
:101bf00041aa800030062000808f50000800360087
:101c0000e001200040aa880041aa80001e00780060
:101c10007800400077fd070040aa8000709d880092
:101c200040af80000000e0000400320041af8000bf
:101c300030062000808f5000080036001000200081
:101c400040af880041af80001e0078007c0040005b
:101c500068fd070040af800030af8800800420009e
:101c600001002000008fbe0090b380000000e00063
:101c70000400320091b38000b02b2000808f500010
:101c8000080036006027200090b3880091b38000e0
:101c90001e0078000080e80056fd070090b3800029
:101ca00050af88006000b800008fbe0070c4b30061
:101cb00042e8b70042c8bf008080fb001e007800e9
:101cc0004cfd070042c8bf0056f0b7003400370093
:101cd0002184200091407800d0c4b30080cf500010
:101ce0001d003a008004200001002000008fbe008b
:101cf00090b380000000e0000400320091b3800047
:101d0000b02b2000808f5000080036006027200094
:101d100090b3880091b380001e0078000080e80036
:101d200034fd070090b3800050af88006000b80019
:101d3000008fbe00d0c4b30042e8b70042c8bf0065
:101d40008080fb001e0078002afd070042c8bf000b
:101d500056f0b7001200370021842000914078002f
:101d600040c5b30080cf50000d003a00c0062000ef
:101d700001002000008fbe006000b800008fbe0090
:101d800040c5b30042e8b70042c8bf008080fb00f6
:101d90001e00780017fd070042c8bf0056f0b700cc
:101da0000080fa00000006000000fa008600a9008a
:101db0000080fa00004006000000fa0086e0a9005a
:101dc0000080fa00004006003600f800809fbe0048
:101dd000829fbe00849fbe00869fbe00881f780041
:101de0000400fa008460a900f0b980000000e80057
:101df000f0b9880030b680000000e80030b68800f6
:101e0000218420009140780070c4b30080cf50003e
:101e100023003a001bcabf00e14f5000030032000c
:101e20007bd6bf00e14f50001d003a0031b6800064
:101e300030062000808f500019003600cfc2bf004e
:101e40000044b2000004e000050032000040eb0056
:101e500055f4b7000000eb0040b688000e003700d4
:101e6000cfc2bf000044b2000004e0000a003a0004
:101e700040b680000000e80040b6880040b6800010
:101e8000e90f5000040036000000eb0040b6880067
:101e900010c0b30055f4b7000000eb0030b6880066
:101ea0003bd6bf00e14f50000f003a003cd6bf00c8
:101eb0000004e00009003a000040eb003cf6b700e7
:101ec0000040eb003bf6b7000000eb0070678800b5
:101ed00010c0b30037e8b700030037003cd6bf009e
:101ee0000040e9003cf6b7002cd6bf00e14f50009f
:101ef00005003a0080b180000000e80080b1880051
:101f00000040eb002cf6b700b2d5bf00e14f500007
:101f100008003a00c0ad80000000e900c0ad8800b4
:101f2000c0ad80000000e00002003a000040eb007d
:101f3000b2f5b700b0ab80000000e800b0ab88009d
:101f4000b0ab8000e90f50000f0036001bcabf0085
:101f5000e14f50000a003a00d5d5bf000004e00070
:101f600007003a0010ccbf000004e00004003a0073
:101f70003bd5bf000004e00001003a006a110700f1
:101f80000000eb00b0ab88003bd5bf00e14f500034
:101f900018003a00a0af80000000e900a0af880060
:101fa000a0af80000000e00012003a0010c0b300b3
:101fb000cef5b7000040eb003bf5b7000040eb006a
:101fc000e4f5b700ced5bf00e14f500009003a005c
:101fd000d8d5bf00e14f500006003a000040eb00aa
:101fe000d8f5b7000040eb00cef5b700f0af8000a9
:101ff000a310070060a980000000e80060a9880025
:1020000060a98000e90f50000400360010c0b30042
:102010001cf5b7000000eb0060a9880010438000a9
:102020000000e800104388001dd5bf00e14f5000bc
:1020300015003a00a04a8000e10f500012003a005b
:102040002184200091407800d0c4b30080cf50009c
:102050000d003a0030a980000000e80030a9880097
:1020600031a98000b05d2000808f5000060036004e
:1020700010c0b300f8f5b7000000eb0030a98800ed
:102080000040eb001df5b700a14280004006200093
:10209000808f500019003e00a04a8000e10f5000e0
:1020a00016003a002184200091407800d0c4b3008b
:1020b00080cf500011003a0040a980000000e800e5
:1020c00040a9880041a98000301f2000808f500067
:1020d0000c003600f0002000310b0700f0428800b1
:1020e00010c0b300ecf5b70010c0b3001ff5b70087
:1020f0000000eb0040a98800020037000000eb0060
:1021000040a98800a142800040062000808f500036
:10211000100036001fd5bf00e14f50000d003a00ff
:1021200050a980000000e80050a9880051a9800053
:10213000b05d2000808f50000600360010c0b30054
:10214000f8f5b7000040eb001ff5b7000000eb000a
:1021500050a9880010b180000000e80010b188008c
:1021600050b680000000e0000400320050b680004d
:102170000000e90050b68800020037000000eb00c4
:1021800050b68800004380000000e800004388004b
:10219000f0a480000000e800f0a48800905a8000bd
:1021a0000000e800905a8800505380000000e800ca
:1021b00050538800f1a48000703e2000808f5000b2
:1021c0001000360010c0b300c0f4b7000000eb00f0
:1021d000f0a4880095cdbf000004e00003003200a9
:1021e00095cdbf000040e90095edb70000a5800047
:1021f0000000e0000300320000a580000000e900bc
:1022000000a5880000438000e10f50000500360063
:102210000000eb0000438800240507000000eb00ed
:1022200000438800104b8000e90f50001c0036006e
:102230000000eb00104b8800204b80000000e800fd
:10224000204b8800204b8000f30f50000b003e0015
:10225000e6d2bf00dcf2b7001dcbbf000004e000f7
:1022600006003a0010c0b3001febb7000040eb00bf
:1022700020ebb70030022000d0108800204b8000f7
:10228000f30f5000060036000000eb00204b8800e2
:1022900010c0b30016eab70010c0b3004fe9b70092
:1022a00096d4bf000004e0000300320096d4bf00c3
:1022b0000040e90096f4b70010438000f30f50008f
:1022c000250036000000eb00104388001bcabf0049
:1022d0000004e00002003a0010c0b30057f0b7005d
:1022e0000ec2bf00624060000004e00008003a0037
:1022f0000ec2bf00644060000004e00004003a0029
:102300000ec2bf00684060000004e000030032001d
:102310000e22a9000e42a9000e62a90018c2bf0039
:10232000624060000004e00008003a0018c2bf00ec
:10233000644060000004e00004003a0018c2bf00de
:10234000684060000004e000030032001822a90089
:102350001842a9001862a90047cbbf00e14f500006
:102360000e003a000000eb00104b88000000eb006c
:10237000204b88000040eb0047ebb700e6d2bf00df
:10238000dcf2b70010c0b3001febb7000040eb0059
:1023900020ebb70030022000d0108800515380009d
:1023a000703e2000808f5000380036000000eb00a7
:1023b00050538800b4d5bf00e14f500033003a00bd
:1023c00040ab80000000e0001d003200806d800006
:1023d000e20f500014003a000000eb0040ab880010
:1023e00010c0b30068f6b70010c0b30069f6b700bc
:1023f0000040eb00b4f5b700d642a9000040eb0066
:1024000022f1b7000040eb00f4f4b70010c0b300b5
:1024100043e8b7000040eb007df6b7000000eb009a
:10242000806d88001900370040ab80000000e90093
:1024300040ab88000040eb007df6b700130037008a
:102440000000eb0040ab88000000eb00806d8800ce
:1024500010c0b30068f6b70010c0b30069f6b7004b
:102460000040eb00b4f5b700d642a9000040eb00f5
:1024700022f1b7000040eb00f4f4b70010c0b30045
:1024800043e8b7000040eb007df6b700f9ccbf0091
:10249000e14f500057023a00304380000000e8004e
:1024a00030438800204380000000e800204388007b
:1024b000704380000000e80070438800104b8000eb
:1024c0000000e800104b8800f0a280000000e80047
:1024d000f0a28800006a80000000e800006a88001e
:1024e000809780000000e80080978800f06c8000f2
:1024f0000000e800f06c8800c06c80000000e8007c
:10250000c06c880030438000f30f50000300360099
:102510000000eb0030438800241207004cd6bf00b7
:10252000e14f500003003a0000b280000000e800d4
:1025300000b2880081978000803e2000808f50008c
:102540002b0036000000eb00809788001bcabf00fc
:10255000e14f500026003a0090428000ea0f500000
:1025600023003600f5d2bf000040e800f5f2b700c6
:10257000512f210091407800b0c3b30080cf5000ac
:10258000050036000040eb00f5f2b700f4d2bf00c2
:102590000040e800f4f2b700412f2100914078009c
:1025a000b0c3b30080cf5000070036000040eb00fe
:1025b000f4f2b7000040eb00f5f2b700909780000e
:1025c0000000e8009097880091978000603e20000e
:1025d000808f5000060036000040eb00f4f2b70098
:1025e0000040eb00f5f2b7000000eb009097880088
:1025f000218420009140780070c4b30080cf500047
:102600009f003a00dee2a800e0c2bf0001c8b300ac
:10261000014060000004e0004f0032000000eb00c9
:10262000106d8800206d80000000e800206d88009b
:10263000206d8000e50f50009100360040c5b300ca
:102640008ff4b700d642a80010002000206d88004b
:1026500010c0b300d6f5b70023d1bf0070406000b2
:102660000004e00022003200d4d5bf00e14f50004a
:102670001f003a0010c0b300d8f5b700f1af8000da
:1026800040aa80000088b900000478006140b900c9
:102690001bf70700008fbe000800e00005003d00aa
:1026a00002002000037824001e00be0040f707004f
:1026b000008fbe00a2702d0033c223001e00be009a
:1026c00098f70700cbf707009087880040af80009d
:1026d0006a00b900a0af880090878000e80e07006c
:1026e0000040eb00d4f5b70010c0b300e4f5b7002c
:1026f00023d1bf00684060000004e0000800320001
:10270000d3d5bf000004e00005003a0010c0b300bc
:10271000d5f5b70010c0b300d3f5b70058003700a7
:1027200023d1bf00684060000004e0005400320084
:10273000d3d5bf00e24f500051003a0040c5b3006e
:102740008ff4b70010002000206d880030c0b30067
:10275000d3f5b7004a0037000000eb00206d880079
:10276000106d80000000e800106d8800d6d5bf0015
:10277000e14f50000d003a0023d1bf0070406000cf
:102780000004e000090032000040eb00d6f5b7007d
:102790000000eb00900c880010c0b300d5f5b70026
:1027a00080c5b3008ff4b70035003700d6d5bf0021
:1027b000e14f500016003a0023d1bf00684060008e
:1027c0000004e00012003200d3d5bf00e14f5000fa
:1027d0000f003a00d5d5bf00e14f50000c003a0081
:1027e00080c5b3008ff4b700f14821009140780014
:1027f00080c5b30080cf500021003a0010002000b7
:10280000106d880020c0b300d3f5b7001c0037005e
:10281000d6d5bf00e14f500019003a0023d1bf00c8
:10282000684060000004e00015003200d3d5bf000e
:10283000e34f500012003a000040eb00d6f5b7001d
:1028400010c0b300d5f5b70080c5b3008ff4b70052
:1028500010002000106d88000040eb00d3f5b70099
:102860000040eb0053f4b7000040eb0052f4b70017
:102870000040eb0038edb7000000eb0020a388001b
:10288000cec2bf00704060000004e00017003200bc
:10289000cfc2bf000042b2000004e00013003a00c3
:1028a000218420009140780070c4b30080cf500094
:1028b0000e003a000000eb0010a3880000a3800087
:1028c0000000e80000a3880001a38000803e2000f3
:1028d000808f50000f00360010c0b30039edb700f4
:1028e000803e200000a388000a0037000000eb00b3
:1028f00000a3880010a380000000e80010a3880057
:1029000010a380000040eb0039edb700803e2000ae
:1029100010a3880053d4bf00e14f500019003a00c3
:1029200020a380000000e80020a3880090428000df
:10293000e90f500003003e0010c0b30052f4b7008e
:10294000040037000040eb0052f4b7000000eb0039
:1029500020a3880052d4bf00e14f50000b003a0082
:1029600021a3800000fa2000808f5000070036006d
:1029700010c0b30038edb70000fa200020a3880093
:10298000020037000000eb0020a3880091d6bf00b2
:10299000e14f500010003a00ded6bf000004e00016
:1029a0000d003a0020b780000000e80020b7880042
:1029b00021b7800070382100808f5000060036005b
:1029c0000040eb00ddf4b7000040eb00d9f5b700a4
:1029d00010c0b300def6b7002184200091407800db
:1029e00070c4b30080cf500069003a0091d6bf0098
:1029f000e14f500018003a00ddd4bf000004e000b1
:102a000015003a00d9d5bf000004e00012003a00da
:102a10007dd6bf000004e0000f003a0042d7bf009f
:102a20000004e0000c003a0010a780000000e8005d
:102a300010a7880010a78000e40f50005400360053
:102a400010c0b300ddf4b700806d80000000e80026
:102a5000806d88004e00370091d6bf00e14f5000d6
:102a600012003a00ddd4bf00e14f50000f003a00e1
:102a7000d9d5bf000004e0000c003a0010a7800088
:102a80000000e80010a7880011a78000f0f32100e3
:102a9000808f50003e00360010c0b300d9f5b7005b
:102aa0000000eb00806d88003900370091d6bf0030
:102ab000e14f50001d003a00ddd4bf00e14f50004f
:102ac0001a003a00d9d5bf00e14f500017003a0074
:102ad00013d7bf000004e00014003a0010a78000e4
:102ae0000000e80010a7880011a78000f070220005
:102af000808f5000260036000000eb0010a78800f1
:102b00000040eb00ddf4b7000040eb00d9f5b70062
:102b100010c0b30042f7b70010c0b30013f7b700fe
:102b20000000eb00806d88001900370091d6bf00cf
:102b30000004e00016003a00ddd4bf00e14f500071
:102b400013003a00d9d5bf000004e00010003a009d
:102b500080ad80000000e80080ad880080ad80007e
:102b6000e40f50000a00360010c0b300b4f5b700ff
:102b7000a000200040ab88000040eb00ddf4b7006f
:102b80000000eb0080ad880010c0b3007df6b700f8
:102b90005dd6bf00e14f50001a003a00dad5bf0001
:102ba0000004e00017003a005ed6bf000004e00019
:102bb00011003a000040eb005ef6b7000040eb0069
:102bc0005df6b700d602a90026c2bf0062406000d1
:102bd0000004e0000b003a00e922a9000000eb002d
:102be000f0428800f1428000000027000080400091
:102bf00050118800030037005ed6bf000040e90096
:102c00005ef6b700dad5bf00e14f50000f003a0082
:102c100090b180000000e00009003a000040eb00a5
:102c2000daf5b70010c0b3005df6b70020c0b300fe
:102c30005ef6b700c012200080b2880003003700a3
:102c400090b180000000e90090b188005dd6bf001f
:102c5000e14f50000000320020438000e40f50009c
:102c6000020036000000eb00204388000accbf00c1
:102c7000e14f50001a003a00e06080000000e800d8
:102c8000e0608800e160800030062000808f500006
:102c90000800360043cbbf00e34f50000500320070
:102ca000f06080000000e800f06088000000eb00a9
:102cb000e0608800e0608000f30f500008003600fc
:102cc00043cbbf00e34f500005003a00f0608000a6
:102cd0000000e800f06088000000eb00e060880081
:102ce000a0a380000000e800a0a38800a0a38000ab
:102cf000e90f50003f0036000000eb00a0a3880061
:102d00008bcdbf00e14f500015003a00c0a38000fa
:102d10000000e800c0a38800d1a38000c0a3800009
:102d2000808f50000c00390030a4800041a4800046
:102d3000f2a3800003a480009df5070030a4880062
:102d400041a4880030a4800041a4800029f6070037
:102d500090a38800020037000040eb008bedb70025
:102d60008ccdbf00e14f500022003a00c0a380008c
:102d70000000e800c0a38800e1a38000c0a3800099
:102d8000808f50001700390050a4800061a480009b
:102d900012a4800023a4800031f607000000e000a8
:102da00001003d000c00370050a4800061a48000a9
:102db00012a4800023a480007cf5070050a48800a2
:102dc00061a4880050a4800061a4800009f6070077
:102dd00090a38800070037000000eb0090a3880054
:102de000040037000040eb008cedb7000000eb0062
:102df00090a388000080fa004f0478004f03be00c3
:102e00004f02be004f01be004f00be003600f90069
:102e100000400600801f78000000fa0084e0a9004e
:102e2000e05b2000700888000080fa004f00780006
:102e300000400600801f78000000fa0086c0a9004c
:102e4000e05b2000e00888000080fa004f00780076
:102e5000004006003600f800809fbe00829fbe0042
:102e6000849fbe00869fbe000000fa0086a0a900d5
:102e7000e05b2000d0088800218420009140780089
:102e800070c4b30080cf500049003a001bccbf0093
:102e90000040e8001becb700101480006101b8008e
:102ea000108580002185800002004000838048005a
:102eb000108588002185880051b1800000148000b1
:102ec0000080400050b188001bccbf00e14f500093
:102ed0001400360010858000218580008100d1001b
:102ee0000080d3000062880050b180000000d10053
:102ef00040b188006000b8001085880021858800f6
:102f00000000eb0050b188000040eb001becb70064
:102f100020002000e0b4880010c0b30035e8b700fe
:102f20000801070041b18000402e2000808f500032
:102f30001600360037c8bf000004e00013003a0056
:102f40003fd6bf00e14f500010003a0010c0b30060
:102f50003bf6b70010c0b3002cf6b70010c0b300aa
:102f60003cf6b7000040eb003ff6b7003bd5bf0092
:102f70000004e00002003a0010c0b3003bf5b700c7
:102f8000c012200070b288000900370041b18000f3
:102f900060092000808f50000500360037c8bf0050
:102fa000e14f500002003a0010c0b3002cf6b70009
:102fb0000080fa004f03be004f02be004f01be006a
:102fc0004f00be003600f90000400600809fbe00a2
:102fd000829fbe000000fa00a0838000ef0f500027
:102fe00013003e00a08380000000e800a08388005a
:102ff000001480006101b800f0838000018480002b
:103000000200400083804800f0838800018488002b
:10301000101480006101b8001084800021848000b9
:1030200002004000838048001084880021848800ca
:10303000b1838000f0ff2100808f500013003e001c
:10304000b08380000000e800b08388005059800001
:103050006101b80090848000a184800002004000db
:103060008380480090848800a18488006059800093
:103070006101b800b0848000c1848000020040007b
:1030800083804800b0848800c1848800c0838000a9
:10309000e30f50000b003e00c08380000000e800fa
:1030a000c0838800505980006101b80050848000be
:1030b00061848000020040008380480050848800c2
:1030c0006184880071a98000f0032000808f500087
:1030d0000b003e0070a980000000e80070a9880085
:1030e000101480006101b800f08580000186800026
:1030f0000200400083804800f08588000186880037
:10310000b1878000f0032000808f50000b003e004c
:10311000b08780000000e800b0878800201480009d
:103120006101b80010878000218780000200400004
:1031300083804800108788002187880091b680002e
:10314000f01f2000808f500013003e0090b68000da
:103150000000e80090b68800301480006101b800db
:1031600010b0800021b08000020040008380480041
:1031700010b0880021b08800401480006101b800c0
:1031800030b0800041b080000200400083804800e1
:1031900030b0880041b0880051878000f0ff2100e6
:1031a000808f50000b003e00508780000000e80038
:1031b00050878800501480006101b800d0868000dc
:1031c000e18680000200400083804800d0868800ad
:1031d000e186880061878000f0ff2000808f50002a
:1031e0000b003e00608780000000e80060878800d8
:1031f000601480006101b800f086800001878000c3
:103200000200400083804800f08688000187880023
:1032100071868000f01f2000808f50000b003e0060
:10322000708680000000e8007086880070148000be
:103230006101b80070858000818580000200400037
:10324000838048007085880081858800c186800061
:10325000f01f2000808f50000b003e00c0868000d1
:103260000000e800c0868800801480006101b8007a
:10327000d0858000e1858000020040008380480006
:10328000d0858800e185880091868000f01f2000ad
:10329000808f50000b003e00908680000000e80008
:1032a00090868800901480006101b80090858000ad
:1032b000a18580000200400083804800908588003e
:1032c000a185880011a88000f0072000808f5000a1
:1032d0000b003e0010a880000000e80010a8880045
:1032e000a01480006101b8004085800051858000f5
:1032f0000200400083804800408588005185880096
:103300008560a9000080fa004f01be004f00be009a
:1033100000400600801f78000000fa008740a900e6
:10332000e922a80026c2bf000044b2000004e00069
:103330000100320026c2a9000080fa004f00780088
:10334000004006000000fa0021842000914078002f
:1033500070c4b30080cf500021003a001bcabf00e8
:10336000e14f50001e003a0035c8bf00e14f500049
:103370001b003a000040eb0035e8b7000062800017
:103380004200de00404b8800414b80004006200098
:10339000808f500003003e0040062000404b880014
:1033a00006003700414b8000f0312000808f500034
:1033b0000200360000322000404b8800290d070033
:1033c000e0b480000000e900e0b48800e0b48000d0
:1033d0000000e00002003a000040eb0035e8b700d2
:1033e0000080fa00000006000200fa00004f78009a
:1033f0000fc8bf00e64f500023003e009e407800fb
:1034000010cdb30000c04000004f78000040eb003a
:103410000ee8b700130037000ec8bf000082fb00a3
:103420009e80fb000ec8bf000081fb00c35e2d0024
:103430000180400000004000000040000200400009
:1034400000004000608079008040780090312100c9
:1034500000004200014878000ec8bf000040e800ac
:103460000ee8b7000ec8bf00e74f5000eaff360075
:1034700010c8bf00e14f500029003a0010c0b3004f
:1034800020f3b700260037000040eb000ee8b7003d
:10349000200037001e4078000de8b7000dc8bf00bf
:1034a0008080fb000ec8bf000080fb000088de00ab
:1034b0000de8b7000dc8bf00614060000de8b7001f
:1034c0000dc8bf000004e00003003a000040eb001c
:1034d0000de8b700050037000dc8bf00e14f5000f0
:1034e00002003a0010c0b3000de8b7000ec8bf00dc
:1034f0008080fb00d28020001241780090312100b2
:1035000000804000024878000ec8bf000040e8007c
:103510000ee8b7000ec8bf00e74f5000ddff3600d1
:1035200019d3bf006140600061416000812e20001e
:1035300091407800e0cfb30000c06000024070000e
:10354000e8e2b7001ad3bf0061406000614060004c
:1035500000414000812e200091407800d0cfb30080
:1035600000c0600002407000e8e2b7001bd3bf005b
:103570006140600061406000004040000041400048
:10358000812e200091407800b0cfb30000c06000d1
:1035900002407000e8e2b7001cd3bf006140600049
:1035a0006140600000404000004040000041400099
:1035b000812e20009140780070cfb30000c06000e1
:1035c00002407000e8e2b7001dd3bf006140600018
:1035d000614060000040400000404000004040006a
:1035e00000414000912e200091407800f0ceb300c1
:1035f00000c0600002407000e9e2b7001ed3bf00c7
:1036000061406000614060000040400000404000b8
:10361000004040000040400000414000912e20004a
:1036200091407800f0cdb30000c06000024070000f
:10363000e9e2b7001fd3bf00614060006140600055
:10364000004040000040400000404000004040007a
:103650000040400000414000912e20009140780041
:10366000f0cbb30000c0600002407000e9e2b70098
:1036700020d3bf0061406000004040000040400097
:10368000004040000040400000404000004040003a
:1036900080404000e9c2bf000074a10001407000fa
:1036a000e9e2b7000080fa00000006000000fa001e
:1036b0000fc8bf00e14f500014003a0022d1bf00f4
:1036c000614060000004e0000300320010c0b3005d
:1036d00010e8b700020037000040eb0010e8b70028
:1036e000ca22a90013d3bf003fff0700cac2a80027
:1036f000d062a900d042a900d022a9000fc8bf0003
:103700000040e8000fe8b700950037000fc8bf0081
:10371000e24f500012003a0022d1bf006240600028
:103720000004e0000300320010c0b30010e8b7004e
:10373000020037000040eb0010e8b70014d3bf00d0
:1037400029ff0700d062a900d042a900d022a8001a
:103750000fc8bf000040e8000fe8b7008000370046
:103760000fc8bf00e34f500012003a0022d1bf0043
:10377000644060000004e0000300320010c0b300a9
:1037800010e8b700020037000040eb0010e8b70077
:1037900015d3bf0014ff0700d062a900d042a800d3
:1037a000d022a9000fc8bf000040e8000fe8b70012
:1037b0006b0037000fc8bf00e44f500012003a0002
:1037c00022d1bf00684060000004e0000300320026
:1037d00010c0b30010e8b700020037000040eb0053
:1037e00010e8b70016d3bf00fffe0700d062a900a3
:1037f000d042a800d022a8000fc8bf000040e800b7
:103800000fe8b700560037000fc8bf00e54f500063
:1038100012003a0022d1bf00704060000004e000b6
:103820000300320010c0b30010e8b70002003700f8
:103830000040eb0010e8b70017d3bf00eafe070016
:10384000d062a800d042a900d022a9000fc8bf00b2
:103850000040e8000fe8b700410037000fc8bf0084
:10386000e64f500012003a0022d1bf000042b200e1
:103870000004e0000300320010c0b30010e8b700fd
:10388000020037000040eb0010e8b70018d3bf007b
:10389000d5fe0700d062a800d042a900d022a8001f
:1038a0000fc8bf000040e8000fe8b7002c00370049
:1038b0000fc8bf00e74f500009003a0023d1bf00f6
:1038c000c9fe0700d062a800d042a800d022a900fb
:1038d0000fc8bf000040e8000fe8b7002000370025
:1038e0000fc8bf00e84f500009003a0024d1bf00c4
:1038f000bdfe0700d062a800d042a800d022a800d8
:103900000fc8bf000040e8000fe8b7001400370000
:103910000fc8bf00e94f500008003a0025d1bf0092
:10392000b1fe0700cac2a900ca02a8000fc8bf00a2
:103930000040e8000fe8b700090037000fc8bf00db
:10394000ea4f500006003a00ca02a90026d1bf0083
:10395000a5fe0700ca22a80010c0b3000fe8b700f8
:103960000080fa00000006000200fa00000f780054
:103970001e007800a2002000110009000280d8007b
:103980008000fd000043b00045f7b7001e0078003e
:10399000a2002000110009000280d800000f78006a
:1039a0001e007800a2002000110009000280d8004b
:1039b0008000fd000043b00044f7b7001e0078000f
:1039c000a2002000110009000280d800000f78003a
:1039d0001e0078000043b00043f7b7000080fa00f3
:1039e000000006000200fa00000f78001e007800b8
:1039f000a2002000110009000280d8008000fd0014
:103a00000043b00015f3b7001e007800a2002000ac
:103a1000110009000280d800000f78001e00780015
:103a2000a2002000110009000280d8008000fd00e3
:103a30000043b00014f3b7001e007800a20020007d
:103a4000110009000280d800000f78001e007800e5
:103a50000043b00013f3b7000080fa000000060036
:103a60000200fa00000f78001e007800a20020007b
:103a7000110009000280d8008000fd000043b00062
:103a800018f3b7001e007800a20020001100090002
:103a90000280d800000f78001e007800a2002000ed
:103aa000110009000280d8008000fd000043b00032
:103ab00017f3b7001e007800a200200011000900d3
:103ac0000280d800000f78001e0078000043b0008c
:103ad00016f3b7000080fa00000006000200fa00aa
:103ae000000f7800700220009e0f10001d003600ad
:103af00080fd2f001e0f40001e007800a200200055
:103b0000110009000280d8008000fd000043b000d1
:103b100018f3b7001e007800a20020001100090071
:103b20000280d800000f78001e007800a20020005c
:103b3000110009000280d8008000fd000043b000a1
:103b400017f3b7001e007800a20020001100090042
:103b50000280d800000f7800b0c5b30016f3b7009c
:103b60001c003700800220001e0f50001e0078004d
:103b7000a2002000110009000280d8008000fd0092
:103b80000043b00018f3b7001e007800a200200028
:103b9000110009000280d800000f78001e00780094
:103ba000a2002000110009000280d8008000fd0062
:103bb0000043b00017f3b7001e007800a2002000f9
:103bc000110009000280d800000f7800d0c5b300b2
:103bd00016f3b7000080fa00000006000200fa00a9
:103be000004f78001e40780013f3b7001e407800a5
:103bf00014f3b7001e40780015f3b7001e4078009c
:103c000016f3b7001e40780017f3b7001e40780087
:103c100018f3b7000080fa00000006000000fa0068
:103c2000120007001e0007007800070028e8b70010
:103c300028c8bf00e14f500006003a000040eb00ea
:103c400028e8b7007d0007000ce8b700d80007009f
:103c500002003700a0c5b3000ce8b7000cc8bf00d5
:103c60000080fb000080fa00000006000000fa005f
:103c7000d322a800d342a800d362a800d382a80010
:103c8000d3a2a900d3c2a900d3e2a9000080fa0000
:103c9000000006000000fa000080fa0000000600a4
:103ca0000000fa00d7a2a800d7c2a800d7e2a80057
:103cb0000080fa00000006000200fa00d5c2bf0032
:103cc000624060000004e000090032006cd5bf00d3
:103cd0000004e00003003a000000eb00000f780051
:103ce0002c003700f00f2000000f7800290037006b
:103cf000d5c2bf00644060000004e000090032004b
:103d00006cd5bf000004e00003003a001000200062
:103d1000000f78001f003700f00f2000000f780020
:103d20001c003700d5c2bf00684060000004e000fe
:103d3000090032006cd5bf000004e00003003a0027
:103d400020002000000f780012003700f00f200044
:103d5000000f78000f003700d5c2bf007040600030
:103d60000004e000090032006cd5bf000004e00050
:103d700003003a0030002000000f780005003700f3
:103d8000f00f2000000f780002003700f00f200035
:103d9000000f78001e0078000080fa000000060086
:103da0000200fa00beff070077000700d5c2bf007f
:103db000624060000004e0000f003a00d5c2bf007e
:103dc000644060000004e0000b003a00d5c2bf0070
:103dd000684060000004e00007003a00d5c2bf0060
:103de000704060000004e00003003a0010c0b3001f
:103df000004f7800020037000040eb00004f7800d1
:103e00001e80fb000080fa00000006000200fa009d
:103e1000a9ff0700e14f400003003200100020001e
:103e2000000f7800020037000000eb00000f780060
:103e30001e0078000080fa00000006000200fa0070
:103e40008aff07000040eb0031e8b70009003700a7
:103e500031c8bf002200070030e8b70030c8bf00fb
:103e6000e14f400006003a0031c8bf000040e800c2
:103e700031e8b70031c8bf00e24f5000f4ff360010
:103e800031c8bf00e34f500006003a0080c5b300c0
:103e900032e8b70032c8bf000080fb00000f780096
:103ea0000c00370030c8bf008080fb0031c8bf0065
:103eb0000081fb00035e2d006308b9000200400092
:103ec00060c0790032e8b70032c8bf000080fb0054
:103ed000000f78001e0078000080fa000000060045
:103ee0000400fa00004f78001e80fb0010079800c5
:103ef0001e009000e10f5000090032001e009000eb
:103f0000e20f5000080032001e0090000000e000a8
:103f100001003200050037000900070003003700e8
:103f20000d00070001003700110007001600070010
:103f300061ff07000080fb000080fa00000006001f
:103f40000000fa00d7a2a800d7c2a900d7e2a900b2
:103f50000080fa00000006000000fa00d7a2a900c5
:103f6000d7c2a800d7e2a9000080fa00000006002e
:103f70000000fa00d7a2a900d7c2a900d7e2a80082
:103f80000080fa00000006000200fa000000eb00ca
:103f9000000f7800010037001e0fe800c05d200010
:103fa0009e0f1000fcff36000080fa0000000600a3
:103fb0000000fa00f4ff0700f3ff0700f2ff07001c
:103fc000f1ff0700f0ff0700efff07000080fa0095
:103fd000000006000200fa00004f780010c4b30091
:103fe0009e4f1000d0003a002184200091407800bc
:103ff000d0c4b30080cf50000c003a00f6d4bf000c
:10400000e14f500006003a0090b380000000e0004d
:104010000300320090b380000000e90090b38800f4
:1040200010c0b300f7f4b7007300370021842000fc
:104030009140780070c4b30080cf50006e003a0009
:104040007ed6bf00e14f500006003a00c0b38000aa
:104050000000e00003003200c0b380000000e9006f
:10406000c0b38800eed4bf00e14f500006003a0014
:1040700010aa80000000e0000300320010aa8000b7
:104080000000e90010aa8800eed4bf00e24f500003
:1040900006003a0020aa80000000e0000300320081
:1040a00020aa80000000e90020aa8800eed4bf000a
:1040b000e34f500006003a0030aa80000000e00004
:1040c0000300320030aa80000000e90030aa880016
:1040d000eed4bf00e44f500006003a0040aa800032
:1040e0000000e0000300320040aa8000650050009c
:1040f00040aa8800eed4bf00e54f500006003a0009
:1041000040af80000000e0000300320040af8000bc
:104110000000e90040af8800eed4bf00e64f500039
:1041200006003a0050aa80000000e00003003200c0
:1041300050aa80000000e90050aa8800eed4bf0019
:10414000e74f500006003a0060aa80000000e0003f
:104150000300320060aa80000000e90060aa880025
:10416000eed4bf00e84f500006003a0070aa80006d
:104170000000e0000300320070aa80000000e900a7
:1041800070aa8800eed4bf00e94f500006003a0044
:1041900080aa80000000e0000300340080aa8000b4
:1041a0000000e90080aa8800eed4bf00ea4f50006a
:1041b00006003a0090aa80000000e00003003400ee
:1041c00090aa80006500500090aa8800eed4bf003d
:1041d000eb4f500006003a00a0aa80000000e0006b
:1041e00003003400a0aa80000000e900a0aa880013
:1041f00010c0b3006bf5b700d9d5bf000004e000d4
:1042000028013a00b4d5bf000004e00025013a00bf
:10421000fad6bf000004e00022013a00ded6bf005b
:104220000004e0001f013a00218420009140780042
:10423000d0c4b30080cf50000e003a0040c5b30098
:1042400042e8b7000040eb0023f1b70023d1a800fb
:1042500023b1a8000040eb0024f1b7002331a800ef
:104260000040eb0025f1b7000040eb0026f1b7005d
:1042700028003700218420009140780040c5b30019
:1042800080cf50000f003a0070c4b30042e8b7007e
:104290000040eb0023f1b70023f1a80023b1a800f0
:1042a0000040eb0024f1b7002351a8002391a8009f
:1042b0000040eb0025f1b7000040eb0026f1b7000d
:1042c00014003700218420009140780070c4b300ae
:1042d00080cf50000f003a00d0c4b30042e8b700ce
:1042e0000040eb0023f1b70023d1a80023b1a800c0
:1042f0000040eb0024f1b7002311a8000040eb00c0
:1043000025f1b7000040eb0026f1b70010c0b30064
:1043100062f6b70010c0b300b6e8b7000040eb008b
:1043200022f1b700df00370020c4b3009e4f100019
:1043300064003a00218420009140780070c4b300ea
:1043400080cf50003e003a00d9d5bf00e14f500069
:104350001a003a0010c0b300dcf4b700eed4bf007e
:104360000040e800eef4b70041d7bf000040e8008d
:1043700041f7b70010c0b3006bf5b700eed4bf0033
:10438000e44f50000c0036000040eb00eef4b700a4
:104390000040eb00d9f5b7000040eb00dcf4b700bb
:1043a0000040eb006bf5b7000000eb0010a78800a1
:1043b0000040eb00ddf4b7003d07070013d7bf0056
:1043c000e14f5000b7003a0010c0b300dcf4b70072
:1043d0007ed6bf000040e8007ef6b70010c0b300f4
:1043e0006bf5b70010c0b300d9f5b7007ed6bf009b
:1043f000e14f5000100036000040eb007ef6b700a1
:104400000040eb0013f7b7000040eb00dcf4b7000e
:104410000040eb006bf5b7000040eb00dff6b700a3
:104420000000eb0010a788000040eb00ddf4b700af
:104430000040eb00d9f5b7000e07070099003700e0
:104440002184200091407800d0c4b30080cf500078
:1044500094003a00ded6bf00e14f500091003a00d0
:10446000a04a8000e10f50008e003a0010c0b30057
:10447000f5f4b700f6d4bf000040e800f6f4b7004a
:1044800010c0b300f7f4b700f6d4bf00e14f5000fe
:104490000a0036000040eb00f6f4b7000040eb00e5
:1044a000def6b7000040eb00f5f4b7000040eb008b
:1044b000f7f4b7000040eb00dff6b7000403070095
:1044c0007800370040c4b3009e4f100075003a00da
:1044d0002184200091407800d0c4b30080cf5000e8
:1044e00009003a00f6d4bf00e14f500003003a0043
:1044f00090b380000000e80090b3880010c0b300c3
:10450000f7f4b7004f003700218420009140780075
:1045100070c4b30080cf50004a003a007ed6bf007e
:10452000e14f500003003a00c0b380000000e800f3
:10453000c0b38800eed4bf00e14f500003003a0042
:1045400010aa80000000e80010aa8800eed4bf0086
:10455000e24f500003003a0020aa80000000e8006b
:1045600020aa8800eed4bf00e34f500003003a00b9
:1045700030aa80000000e80030aa8800eed4bf0016
:10458000e44f500003003a0040aa8000650040005c
:1045900040aa8800eed4bf00e54f500003003a0067
:1045a00040af80000000e80040af8800eed4bf00bc
:1045b000e64f500003003a0050aa80000000e800d7
:1045c00050aa8800eed4bf00e74f500003003a0025
:1045d00060aa80000000e80060aa8800eed4bf0056
:1045e000e84f500003003a0070aa80000000e80085
:1045f00070aa8800eed4bf00e94f500003003a00d3
:1046000080aa80000000e80080aa8800eed4bf00e5
:10461000ea4f500003003a0090aa80006500400075
:1046200090aa8800eed4bf00eb4f500003003a0080
:10463000a0aa80000000e800a0aa880010c0b30073
:104640006bf5b700218420009140780070c4b3005e
:1046500080cf500013003a00d9d5bf000004e0001d
:1046600010003a00b4d5bf000004e0000d003a008d
:1046700023d1bf00704060000004e00003003a0056
:104680002391a8002371a9000600370023d1bf00a1
:10469000704060000004e000020032002391a90095
:1046a0002371a8000080fa00000006002200fa0032
:1046b000881f7800b6c8bf00e14f500047003a009d
:1046c0002231a900d0c4b30013f3b700d0c4b300a3
:1046d00014f3b70010c4b30015f3b700d0c4b3008f
:1046e00016f3b700f0c4b30017f3b70040c4b3002b
:1046f00018f3b7000000eb00404288000d003700bf
:104700000000eb0030428800030037003042800098
:104710000000e8003042880031428000f070220042
:10472000808f5000f9ff3600404280000000e80012
:104730004042880041428000700c2000808f500071
:10474000efff36000040eb00b6e8b70010c0b30042
:1047500043e8b700d602a8000000eb00708788008d
:104760000000eb00e0af8800d0c4b30042e8b7001f
:1047700080c5b3001aecb70042c8bf000080fb0040
:10478000405e8800415e80000000eb00c3f107003e
:10479000d0c4b30042e8b700fbf20700c5f407003d
:1047a00042c8bf0056f0b700ebd2bf000080fb004c
:1047b000209f880090b3800050af88000040eb003d
:1047c00022f1b7002291a8000040eb0023f1b700ce
:1047d00023d1a80023b1a8002311a800a04a80007b
:1047e0000000e00038003a00ded6bf000004e00020
:1047f00035003a002291a80050cbbf00e14f500095
:104800000c003a000040eb0050ebb7002184200080
:1048100091407800d0c4b30080cf50000200320035
:10482000d0c4b30042e8b700e3f307000040eb0058
:10483000f7f4b70062d6bf00e14f50000600320027
:10484000f9d5bf00e14f50000300320043c8bf005c
:10485000e14f500002003a008086800061fc0700b2
:104860006bd6bf00e14f50000300320043c8bf00c9
:10487000e14f500002003a00a042800078fc07009f
:104880000040eb00f7f4b700808680004401070089
:10489000f042880010c0b300ecf5b70010c0b300c0
:1048a0001df5b7000040eb0062f6b7000040eb00da
:1048b0006bf6b7000040eb0043e8b7000040eb00a8
:1048c000f9f5b7001f003700a04a8000e10f500043
:1048d0001c003a002291a80010c0b30050ebb700b2
:1048e000f7d4bf000004e00010003a006ad6bf0011
:1048f000e14f50000300320043c8bf00e14f5000b9
:1049000002003a009042800036fc07006bd6bf00e0
:10491000e14f50000300320043c8bf00e14f500098
:1049200002003a00a04280004dfc07000040eb006e
:104930006af6b7000040eb006bf6b7000040eb00f2
:1049400043e8b700f7d4bf00e14f500012003a002f
:10495000f6d4bf00e14f50000f003a0091b3800041
:1049600060222000808f500003003e006022200063
:1049700090b388000600370091b38000b02b200070
:10498000808f500002003600c02b200090b38800ba
:1049900090b3800032fc07001cd5bf00e14f5000ef
:1049a00098003a0020d5bf00e14f500093003a0034
:1049b000508680000000e0009000320081a9800055
:1049c00040062000808f50006700360088a98000d4
:1049d0006140b9004aee0700700f98000117980077
:1049e0000800e00007003d000200200003782400da
:1049f0007e0890008e1090006dee0700700f9800fa
:104a0000011798000040eb00405f98000200200072
:104a1000633924007e0890008e10900012ef07008a
:104a20000000e000010034000200370010c0b300b5
:104a3000405f98004e5890000004a2000004e0007f
:104a400049003a0080868000cf80de002cee07000f
:104a5000400f9800510f980088a980006140b9006c
:104a600027ee0700200f9800310f98000800e000a3
:104a700007003d0002002000037824002e0890006b
:104a8000be0890004aee0700200f9800310f9800f2
:104a90002e099000be09900000002000613924001a
:104aa00042ee07000200200063392400f0ee070008
:104ab000000f9800110f9800588680006140b900df
:104ac0000fee070060079800710798000800e000eb
:104ad00007003d0002002000037824006e009000d3
:104ae000fe00900032ee0700600798007107980002
:104af00002002000a32f24006e009000fe00900012
:104b000088ee07000001be000e0890009e0890008d
:104b100084ee070002002000832c2400d4ee07005e
:104b20000001be004e089000de08900020ee070055
:104b3000b0ee07001086880081868000800c20007f
:104b4000808f500005003e00108680009400070012
:104b5000f042880010c0b300ecf5b7000000eb0095
:104b6000208688002300370088a980006140b900b2
:104b7000e3ed070040079800510798000800e000a7
:104b800007003d0002002000037824004e00900042
:104b9000de00900006ee07004007980051079800dd
:104ba00002002000633924004e009000de009000d7
:104bb000abee07000000e00001003c000d003700f4
:104bc0001dd5bf000004e0000a003a0020868000e6
:104bd0000000e80020868800208680000000e000b9
:104be000040032000000eb002086880010c0b300f3
:104bf000f8f5b7000040eb0020f5b7000040eb00ef
:104c00001cf5b700f9d5bf00e14f5000030032009a
:104c1000f8d5bf00e14f50004a003a001dd5bf0053
:104c2000e14f500038003a0081868000800c20005f
:104c3000808f500030003e00888680006140b900bf
:104c4000afed070020079800310798000800e0004a
:104c500007003d0002002000037824002e00900091
:104c6000be009000d2ed07002007980031079800a1
:104c700081868000408680000088b90000047800aa
:104c80006140b9009eed0700008fbe000800e00003
:104c900005003d0002002000037824001e00be0035
:104ca000c3ed0700008fbe0002002000832c24000b
:104cb0001e00be006eee07000001be002e00900038
:104cc000be009000baed07004aee0700308688006b
:104cd00031868000d0102000808f50000200360006
:104ce000e010200030868800308680002c0007000d
:104cf000f04288000d003700808680002800070001
:104d0000f0428800090037001dd5bf000004e00014
:104d100006003a001fd5bf000004e00003003a007f
:104d2000808680001e000700f042880010c0b3009b
:104d3000ecf5b7000040eb00f8f5b7000040eb00e1
:104d4000f9f5b700ecd5bf00e14f500011003a0073
:104d50000040eb00ecf5b70026c2bf0062406000e7
:104d60000004e0000b003a00e922a900f1428000b3
:104d7000e0ff2000808f500002003600f0ff20008e
:104d8000f0428800f042800001002700010040004e
:104d9000501188004f0478000080fa0000000600df
:104da0003000fa00881f7800300f9800fcd6bf0052
:104db000e14f50003f003a0098b380006140b900d5
:104dc0004fed070000179800111798000800e00049
:104dd00007003d0002002000037824000e10900020
:104de0009e10900072ed07000017980011179800b0
:104df00002002000832c24000e1090009e109000d2
:104e00001bee070010079800210798003e0890004d
:104e1000cf80de003aed0700201798003117980088
:104e20003e0890000000e00007003d000200200066
:104e3000037824002e109000be1090005ced070057
:104e400020179800311798002e109000be10900087
:104e5000100f9800210f98001e099000ae099000d5
:104e60001e009000ae009000aeed070070079800a5
:104e7000010f980030332100d13a240050079800e8
:104e8000610798005e019000ee0190007e009000a6
:104e90008e08900046ed0700300798004107980003
:104ea0003e009000ce00900033ee0700000f780027
:104eb00083003700fcd6bf00e24f50003f003a00ad
:104ec00098b380006140b9000ded0700600f9800b5
:104ed000710f98000800e00007003d00020020006c
:104ee000037824006e089000fe08900030ed070063
:104ef000600f9800710f980002002000832c24009e
:104f00006e089000fe089000d9ed07001007980089
:104f1000210798003e089000cf80de00f8ec0700e3
:104f200040179800511798003e0890000000e000dc
:104f300007003d0002002000037824004e1090007e
:104f4000de1090001aed07004017980051179800e6
:104f50004e109000de109000100f9800210f980066
:104f60001e099000ae0990001e009000ae00900057
:104f70006ced070070079800010f98003033210096
:104f8000d13a240050079800610798005e01900014
:104f9000ee0190007e0090008e08900004ed070066
:104fa00030079800410798003e009000ce00900026
:104fb000f1ed0700000f780041003700fcd6bf007c
:104fc000e34f50003e003a0098b380006140b900c2
:104fd000cbec0700400f9800510f98000800e0004c
:104fe00007003d0002002000037824004e089000d6
:104ff000de089000eeec0700400f9800510f98007b
:1050000002002000832c24004e089000de0890004f
:1050100097ed070010079800210798003e089000c0
:10502000cf80de00b6ec070060179800711798007b
:105030003e0890000000e00007003d000200200054
:10504000037824006e109000fe109000d8ec07004a
:1050500060179800711798006e109000fe10900075
:10506000100f9800210f98001e099000ae099000c3
:105070001e009000ae0090002aed07007007980017
:10508000010f980030332100d13a240050079800d6
:10509000610798005e019000ee0190007e00900094
:1050a0008e089000c2ec0700300798004107980076
:1050b0003e009000ce009000afed0700000f78009a
:1050c0001e0078004f0478000080fa0000000600ff
:1050d0000000fa002291a9002231a900f6d4bf00f5
:1050e000e14f500006003a0030c5b30013f3b7009b
:1050f000c0c4b30014f3b70000c5b30015f3b70084
:105100002291a8000080fa00000006000000fa00ca
:10511000b6c8bf00e14f500049003a002231a90053
:1051200040c5b30013f3b70090c4b30014f3b70045
:1051300070c4b30015f3b700d0c4b30016f3b700c2
:10514000f0c4b30017f3b70040c4b30018f3b700be
:105150000000eb00404288000d0037000000eb002b
:105160003042880003003700304280000000e80031
:105170003042880031428000f0702200808f500061
:10518000f9ff3600404280000000e80040428800fd
:1051900041428000700c2000808f5000efff3600ed
:1051a0000040eb00b6e8b70010c0b30043e8b7001a
:1051b0000000eb00708788000000eb00e0af880083
:1051c000d602a8000000eb00508688000040eb00eb
:1051d0001df5b7000000eb004086880080c5b300d5
:1051e0001aecb70042c8bf000080fb00405e880098
:1051f000415e80000000eb0028ef070040c5b300cf
:1052000042e8b70060f007002af2070042c8bf007a
:1052100056f0b700edd2bf000080fb00309f880041
:105220000040eb0022f1b7002291a8000040eb0003
:1052300023f1b70023d1a80023b1a8002331a8008f
:10524000a04a80000000e0002e003a004fcbbf00d3
:10525000e14f50000a003a000040eb004febb7006e
:10526000218420009140780040c5b30080cf5000d9
:105270000200320040c5b30042e8b7004ef107001b
:1052800062d6bf00e14f500006003200f9d5bf00e2
:10529000e14f50000300320043c8bf00e14f50000f
:1052a00002003a0080868000cef907006bd6bf006e
:1052b000e14f50000300320043c8bf00e14f5000ef
:1052c00002003a00a0428000e5f9070080868000d5
:1052d00042000700f042880010c0b300ecf5b700b0
:1052e0000040eb0062f6b7000040eb006bf6b70041
:1052f0000040eb0043e8b7000040eb00f9f5b700d1
:1053000020003700a04a8000e10f50001d003a0045
:1053100010c0b3004febb7006ad6bf00e14f50009a
:105320000300320043c8bf00e14f500002003a00c2
:1053300090428000abf907006bd6bf00e14f5000f0
:105340000300320043c8bf00e14f500002003a00a2
:10535000a0428000c2f90700808680001f0007007d
:10536000f042880010c0b300ecf5b7000040eb003d
:105370006af6b7000040eb006bf6b7000040eb00a8
:1053800043e8b700ecd5bf00e14f500011003a00f0
:105390000040eb00ecf5b70026c2bf0062406000a1
:1053a0000004e0000b003a00e922a900f14280006d
:1053b000e0ff2000808f500002003600f0ff200048
:1053c000f0428800f0428000010027000100400008
:1053d000501188000080fa00000006003000fa003a
:1053e000881f7800300f9800fcd6bf00e14f5000b6
:1053f0003f003a0098b380006140b900c0eb07005d
:1054000000179800111798000800e00007003d0001
:1054100002002000037824000e1090009e109000df
:10542000e3eb070000179800111798000200200016
:10543000832c24000e1090009e1090008cec07002e
:1054400010079800210798003e089000cf80de00ea
:10545000abeb070020179800311798003e0890002a
:105460000000e00007003d00020020000378240057
:105470002e109000be109000cdeb07002017980072
:10548000311798002e109000be109000100f980059
:10549000210f98001e099000ae0990001e00900098
:1054a000ae0090001fec070070079800010f9800f5
:1054b00000002000f13a240050079800610798008e
:1054c0005e019000ee0190007e0090008e0890003a
:1054d000b7eb070030079800410798003e009000a6
:1054e000ce009000a4ec0700000f78008300370086
:1054f000fcd6bf00e24f50003f003a0098b3800056
:105500006140b9007eeb0700600f9800710f9800b2
:105510000800e00007003d0002002000037824009e
:105520006e089000fe089000a1eb0700600f980045
:10553000710f980002002000832c24006e08900058
:10554000fe0890004aec0700100798002107980019
:105550003e089000cf80de0069eb070040179800fe
:10556000511798003e0890000000e00007003d0041
:1055700002002000037824004e109000de109000fe
:105580008beb070040179800511798004e109000c1
:10559000de109000100f9800210f98001e09900057
:1055a000ae0990001e009000ae009000ddeb0700f9
:1055b00070079800010f980000002000f13a2400c5
:1055c00050079800610798005e019000ee0190007e
:1055d0007e0090008e08900075eb07003007980061
:1055e000410798003e009000ce00900062ec07005a
:1055f000000f780041003700fcd6bf00e34f500099
:105600003e003a0098b380006140b9003ceb0700cf
:10561000400f9800510f98000800e00007003d007f
:1056200002002000037824004e089000de0890005d
:105630005feb0700400f9800510f98000200200018
:10564000832c24004e089000de08900008ec070030
:1056500010079800210798003e089000cf80de00d8
:1056600027eb070060179800711798003e0890001c
:105670000000e00007003d00020020000378240045
:105680006e109000fe10900049eb07006017980024
:10569000711798006e109000fe109000100f980087
:1056a000210f98001e099000ae0990001e00900086
:1056b000ae0090009beb070070079800010f980068
:1056c00000002000f13a240050079800610798007c
:1056d0005e019000ee0190007e0090008e08900028
:1056e00033eb070030079800410798003e00900018
:1056f000ce00900020ec0700000f78001e0078001c
:105700004f0478000080fa00000006000000fa0054
:10571000b6c8bf00e14f500052003a00d602a900bf
:105720002231a900d0c4b30013f3b70090c4b30072
:1057300014f3b70070c4b30015f3b700d0c4b300be
:1057400016f3b700f0c4b30017f3b70040c4b300ba
:1057500018f3b7000000eb00404288000d0037004e
:105760000000eb0030428800030037003042800028
:105770000000e8003042880031428000f0702200d2
:10578000808f5000f9ff3600404280000000e800a2
:105790004042880041428000700c2000808f500001
:1057a000efff36002351a8000040eb00b6e8b70039
:1057b00010c0b30043e8b700d642a90070c4b300dc
:1057c00042e8b70080c5b3001aecb70042c8bf007a
:1057d0000080fb00405e8800415e80000000eb001e
:1057e000aeed070070c4b30042e8b700e6ee070074
:1057f000b0f007000040eb0022f1b7002291a800b2
:105800002231a8000040eb0023f1b70023f1a800eb
:1058100023d1a90023b1a8002351a8002391a800f7
:1058200042c8bf0056f0b700ebd2bf000080fb00bb
:10583000209f880010aa8000609e880020aa800017
:10584000a09e880030aa8000c09e880040aa8000e8
:10585000709d880040af800030af880090b380001a
:1058600050af880090d6bf00e14f500002003a00d0
:1058700040ab80007af807001bcabf000004e000bc
:105880004b003a00df02a800e1c2bf0061406000a7
:105890000004e00039003a0090c4b30013f3b700ed
:1058a000e0c4b30014f3b70030c4b30015f3b7007d
:1058b0002291a8002231a90010c0b3007bf6b700e6
:1058c00059d0bf000080fb00cf80de008cea0700cb
:1058d000020020000312240012eb070045eb070032
:1058e0005ff8070059d0bf000080fb00cf80de00ca
:1058f00083ea0700020020000312240009eb0700de
:105900003ceb0700e70207000000eb003042880094
:105910000d0037000000eb00404288000300370014
:10592000404280000000e800404288004142800080
:10593000f0c32900808f5000f9ff3600304280000c
:105940000000e8003042880031428000100320004f
:10595000808f5000efff360059d0bf000040e800b4
:1059600059f0b70059d0bf00e94f50001000360081
:10597000a0c0b30059f0b7000d003700e1c2bf006e
:10598000614060000004e000090032007bd6bf00e7
:10599000e14f500006003a000040eb0059f0b7001c
:1059a0000000eb00bf0207000040eb007bf6b700f1
:1059b0001bcabf000004e00053003a00d9d5bf0065
:1059c0000004e00050003a00b4d5bf000004e0003d
:1059d0004d003a0013d7bf000004e0004a003a002f
:1059e000d642a900d602a9000000eb0000478800bb
:1059f0000040eb002ae8b7000040eb0043e8b700a6
:105a00002291a8002231a8000040eb0037e8b7003f
:105a10006000b80020a6880031a688006000b800a9
:105a200070688800816888006000b80050ae880007
:105a300061ae880033c8bf00e14f500005003a0056
:105a40000040eb0033e8b70070c4b3001aecb700b5
:105a500059ef070068d6bf00e14f50000300320045
:105a600043c8bf00e14f500005003a0040d7bf00d7
:105a70000004e00002003a0000b08000f8f70700e0
:105a800069d6bf00e14f50000300320043c8bf0099
:105a9000e14f500005003a0040d7bf000004e0008d
:105aa00002003a00f0af8000cef7070040d7bf00f9
:105ab000e14f50000e003a0023d1bf006840600063
:105ac0000004e0000a00320000888000e4f70700cc
:105ad000f0878000c3f70700f1b98000f07c200058
:105ae000808f5000020036000040eb0040f7b70006
:105af0000040eb0068f6b7000040eb0069f6b70025
:105b00000040eb0043e8b7006bd5bf00e14f500009
:105b1000ba003a00eed4bf00e14f50000d003a0049
:105b200010aa80000000e00003003a000000eb0033
:105b300010aa88000500370010aa8000e90f500065
:105b400002003600a000200010aa880010aa8000e1
:105b5000c3f70700eed4bf00e24f50000e003a003a
:105b600020aa80000000e00003003a000000eb00e3
:105b700020aa88000600370021aa8000700c2000af
:105b8000808f500002003600800c200020aa880080
:105b900020aa8000b2f70700eed4bf00e34f500008
:105ba0000d003a0030aa80000000e00003003a0037
:105bb0000000eb0030aa88000500370030aa800002
:105bc000e90f500002003600a000200030aa880033
:105bd00030aa8000a2f70700eed4bf00e44f5000c7
:105be0000e003a0040aa8000ea0f500003003e0079
:105bf000a000200040aa88000600370041aa8000cb
:105c000030062000808f5000020036004006200041
:105c100040aa880040aa800091f70700eed4bf0098
:105c2000e54f50000e003a0040af8000e10f5000f9
:105c300003003e001000200040af8800060037003f
:105c400041af800030062000808f500002003600f7
:105c50004006200040af880040af800080f707007a
:105c6000eed4bf00e64f50000e003a0050aa80006c
:105c7000ea0f500003003e00a000200050aa880058
:105c80000600370051aa8000700c2000808f500061
:105c900002003600800c200050aa880050aa800024
:105ca0006ff70700eed4bf00e74f50000d003a0039
:105cb00060aa8000e10f500003003e0010002000a9
:105cc00060aa88000500370060aa8000e90f500034
