:020000040000fa
:080000000001040000000000f3
:020000040000fa
:100200008fae2000807f21000001880000000000e8
:10021000050007000c0007002e2902000000000066
:100220000040da000000fe004440a900005c20000d
:100230000000e0000300320000002000a001880060
:100240004440a80000000600e02123000100200037
:100250001600370062004000e080480091018800ed
:100260009001ba0062004000e080480091018800df
:100270009002ba0062004000e08048000002eb00fb
:100280006028e10005003a008301e900070033001f
:10029000038009000059eb00040037006128e100e9
:1002a000010032000082eb00050007009101880088
:1002b0001001ba000200e000e6ff3a00000005006d
:1002c000910188008002780062004000e0804800d0
:1002d0003559ba008301e900080032002559ba00f7
:1002e0008301e900050032000400e000f4ff320061
:1002f00015d9ba008301e900f1ff3a0000000600b9
:100300006022b800060220000000d0008180d200e8
:100310000482d2008582d2000000a00002025200b6
:1003200083825a0003003b000202420083824a009b
:100330000000a1000603e900f3ff3a0000000600f8
:10034000889fbe008a9fbe00010578000100e00082
:100350000400350008003c000000e00020003200ee
:100360000500370060001000e080180002003b002c
:1003700001f02c001a0037000004be006011b80024
:100380006b0920000982cf00020039000882cf00eb
:100390000441b000694252000e00320008003b00e8
:1003a00082817100610164008904d1000884d30056
:1003b0008b05e8000442e800f9ff3a000500370029
:1003c0000804440089844c008b05e9000442e900dc
:1003d000fbff3a00280107000af0a70001f0a00087
:1003e0004f05be004f04be000000060003f0a2004f
:1003f000889fbe008a9fbe008c1f780044010700c2
:100400004b0133006450e1004f0032006420e100f2
:100410005200320003826c0007003b000905d00047
:100420000306d000820f54000c065d000200390064
:1004300002003200890178000306780085825500a9
:1004400004003d000003fd008103fd008502ea0079
:100450008b854200840f720002003b006000100098
:10046000e08018006011b8000005eb007a28e10078
:100470000a00390006007800c75ddd00f707b2000a
:10048000878075002d003700828171000a01780095
:10049000610560008180d1000080d3008502e90001
:1004a000f9ff3b00060440008784480002003b003f
:1004b00060041400e0841c000988a30007003200d7
:1004c0008a81710082817100610164008904d10018
:1004d0000884d3008b05e800170037000978a300d3
:1004e00013003a000b00e000130034008b05e90014
:1004f0000804440089844c000a4474000978a3006d
:100500000d003a000b00e000070034008b05e90005
:100510000804440089844c0001003a000b002000cc
:100520000978a300f7ff32000001eb00020037005a
:10053000828171000a017800cf0007000cf0a7004b
:1005400001f0a000030137006420e10002003a003e
:10055000838f6c00030133000801be000200be005f
:10056000fc0037001400200001013700889fbe0006
:100570008a9fbe008c1f7800e5000700ec00330066
:1005800003866c006450e100240032006420e10026
:10059000270032006150e100220032006120e100ba
:1005a000210032008b854200eb07b1000134b80016
:1005b000003ab8000804420089844a00013ab800b1
:1005c0000030b8008880400009014a000400330070
:1005d0000000400081804800020149008b05e900cd
:1005e000c909dd0083017000010032001300200002
:1005f000c814de004814dd004709de001200b20016
:10060000c808de00088470009b00070001f0a1000c
:100610000cf0a70001f0a000ce0037006120e1003f
:10062000d00032000801be000200be00f7ff370014
:100630006150e100fcff3a00ca0037000001be0033
:10064000e60007000470a70003f0a1006509b100ef
:10065000160032000d0035006828e1000600350064
:10066000f0ff2f00f1ff27000300e00013003b0024
:1006700001002800000005000000400081804800c3
:100680008502e900fcff3a0008003700f88f4200bd
:1006900002003c008000eb00000005008100d1005a
:1006a0000080d3008502e800fcff3a000300e00070
:1006b00002003b0060001000e0801800000006000f
:1006c000889fbe008a9fbe008c1f780090000700a4
:1006d0009700330003866c006450e1002e00320066
:1006e0006420e100330032006150e1002f0032004d
:1006f0006120e1003100320085855500eb07b00034
:100700000900200008042000050037000804440008
:1007100089844c000a0031000603430087834b00a4
:100720000001530081815b00f8ff33000203be002b
:100730000800a0000804440089844c00f6ff39003a
:10074000c639dd0083017300010032001300200070
:100750008904d1000884d3000998a3000500320061
:100760000800a7000300a0008904d1000884d3007a
:100770008b05e8008904d1000884d3000001eb0058
:100780000281d2003c00070001f0a1000cf0a7009c
:1007900001f0a0006f0037006420e100710032001a
:1007a0000801be000200be00f7ff37006120e10033
:1007b0006c0032006000b800f3ff3700000020003a
:1007c00001f82700f0ff37000001be00830007009a
:1007d0000470a70003f0a10003f8a30013003a007f
:1007e0006509b10010003200090035006928e100f8
:1007f0000200350001002800000005000000400054
:10080000818048008502e900fcff3a0000000600f4
:10081000f88f4200050035008100d1000080d30030
:100820008502e800fcff3a00000006008000eb00b3
:1008300000000500f4ff2f004d003700839f680083
:100840000100e00002003d0060001000e0801800a0
:100850000300e00002003d0060011100e08119008a
:10086000a7fe07004f00e00002003b006000100000
:10087000e080180000000600810020006180550023
:100880000b003d000b00200061fe2f000100e10085
:100890001d00340082817100610164008904d1006f
:1008a0000884d3000000e800faff3a00710020003d
:1008b0006100640003007000020060000900320063
:1008c00061044400e0844c000988a5000500320062
:1008d0008b05e8006808e10002003a008904d100b5
:1008e0000884d300f20f20000258e10005003d000b
:1008f000c75ddd00f907b200898075000800780047
:10090000000006000bf827008b00780000000500af
:100910000004be00310007000003be000405be0055
:100920000200be002d000700844f75000000060085
:100930000200be006450e100050036006420e100c2
:10094000020036000968a30001003a000800be005a
:100950000160a0004f0678004f05be004f04be00a6
:1009600000000600f0ff2f00f1ff2700f9ff37001d
:10097000889fbe008a9fbe00841f7800e4ff0700a6
:100980004f00780011003300f0ff2f00838f6c00c0
:1009900006003b00040565000a00a70008003700b8
:1009a00009f0a6001000200008003700820f540054
:1009b000838f5c00030039001000200001003e001e
:1009c0000000200009f0a7000000ea004f05be006b
:1009d0004f04be000000e00000000600c70ade0071
:1009e000f107b200f50fb20008003200e1cf42007b
:1009f000020032000170a00024000500810f700089
:100a0000010032000408050044000500810f700059
:100a100002003a00140005008502e90000004000d1
:100a200081c04800fcff3b000170a00024000500cd
:100a30000000fa00e422a800e442a900e462a90050
:100a4000e5c2a900e582a900e5a2a900e5e2a900a6
:100a5000c7e2a900d242a900d262a900d282a900ad
:100a6000d2a2a900d2c2a900d2e2a900d302a90051
:100a7000d322a9000080fa00000006000000fa005e
:100a80003ec8bf00e14f50000f003a0067cabf00e8
:100a9000614060000004e0000300320010c0b300b9
:100aa00041e8b700020037000040eb0041e8b70022
:100ab000c9c9bf00560107003ec8bf000040e8009a
:100ac0003ee8b7007d0037003ec8bf00e24f50004f
:100ad0000f003a0067cabf00624060000004e000f7
:100ae0000300320010c0b30041e8b7000200370035
:100af0000040eb0041e8b700cac9bf00440107004d
:100b00003ec8bf000040e8003ee8b7006b00370079
:100b10003ec8bf00e34f50000f003a0067cabf0055
:100b2000644060000004e0000300320010c0b30025
:100b300041e8b700020037000040eb0041e8b70091
:100b4000cbc9bf00320107003ec8bf000040e8002b
:100b50003ee8b700590037003ec8bf00e44f5000e0
:100b60000f003a0067cabf00684060000004e00060
:100b70000300320010c0b30041e8b70002003700a4
:100b80000040eb0041e8b700ccc9bf0020010700de
:100b90003ec8bf000040e8003ee8b700470037000d
:100ba0003ec8bf00e54f50000f003a0067cabf00c3
:100bb000704060000004e0000300320010c0b30089
:100bc00041e8b700020037000040eb0041e8b70001
:100bd000cdc9bf000e0107003ec8bf000040e800bd
:100be0003ee8b700350037003ec8bf00e64f500072
:100bf0000f003a0067cabf000042b2000004e000e4
:100c00000300320010c0b30041e8b7000200370013
:100c10000040eb0041e8b700cec9bf00fc00070070
:100c20003ec8bf000040e8003ee8b70023003700a0
:100c30003ec8bf00e74f50000f003a0067cabf0030
:100c40000044b2000004e0000300320010c0b30012
:100c500041e8b700020037000040eb0041e8b70070
:100c6000cfc9bf00ea0007003ec8bf000040e8004f
:100c70003ee8b700110037003ec8bf00e84f500003
:100c80000e003a0067cabf0001c8b300014060000f
:100c90000004e0000300320010c0b30041e8b700d8
:100ca000020037000040eb0041e8b700d0c9bf00a8
:100cb000d700070010c0b3003ee8b7000080fa007c
:100cc000000006000000fa003ec8bf00e14f5000df
:100cd00010003a00e9e2a90067cabf006140600065
:100ce0000004e0000300320010c0b30041e8b70088
:100cf000020037000040eb0041e8b700e9c2a9005c
:100d0000e982a900e9a2a900c9c9bf00c000070083
:100d1000b50037003ec8bf00e24f50000f003a0058
:100d200067cabf00624060000004e00003003200b8
:100d300010c0b30041e8b700020037000040eb00ec
:100d400041e8b700e9c2a800e982a900e9a2a90028
:100d5000cac9bf00ae000700a30037003ec8bf00ed
:100d6000e34f50000f003a0067cabf0064406000c4
:100d70000004e0000300320010c0b30041e8b700f7
:100d8000020037000040eb0041e8b700e9c2a900cb
:100d9000e982a800e9a2a900cbc9bf009c00070016
:100da000910037003ec8bf00e44f50000f003a00ea
:100db00067cabf00684060000004e0000300320022
:100dc00010c0b30041e8b700020037000040eb005c
:100dd00041e8b700e9c2a800e982a800e9a2a90099
:100de000ccc9bf008a0007007f0037003ec8bf00a3
:100df000e54f50000f003a0067cabf007040600026
:100e00000004e0000300320010c0b30041e8b70066
:100e1000020037000040eb0041e8b700e9c2a9003a
:100e2000e982a900e9a2a800cdc9bf0078000700a7
:100e30006d0037003ec8bf00e64f50000f003a007b
:100e400067cabf000042b2000004e00003003200a5
:100e500010c0b30041e8b700020037000040eb00cb
:100e600041e8b700e9c2a800e982a900e9a2a80008
:100e7000cec9bf00660007005b0037003ec8bf0058
:100e8000e74f50000f003a0067cabf000044b200ad
:100e90000004e0000300320010c0b30041e8b700d6
:100ea000020037000040eb0041e8b700e9c2a900aa
:100eb000e982a800e9a2a800cfc9bf00540007003a
:100ec000490037003ec8bf00e84f500010003a000c
:100ed00067cabf0001c8b300014060000004e00021
:100ee0000300320010c0b30041e8b7000200370031
:100ef0000040eb0041e8b700e9c2a800e982a80081
:100f0000e9a2a800d0c9bf004100070036003700a1
:100f10003ec8bf00e94f50000b003a00b2c8bf0006
:100f2000e14f50000300320067c9bf00e14f50009d
:100f300005003a00e9e2a800e9c2a900e982a90097
:100f4000e9a2a900280037003ec8bf00ea4f5000c0
:100f500008003a00aac8bf00e14f500005003a005f
:100f6000e9e2a800e9c2a800e982a900e9a2a90073
:100f70001d0037003ec8bf00eb4f500008003a008c
:100f8000abc8bf00e14f500005003a00e9e2a800fd
:100f9000e9c2a900e982a800e9a2a900120037006d
:100fa0003ec8bf00ec4f500008003a004bc8bf00dd
:100fb000e14f500005003a00e9e2a800e9c2a800ac
:100fc000e982a800e9a2a900070037003ec8bf00d7
:100fd000ed4f500004003a00e9e2a800e9c2a80081
:100fe000e982a900e9a2a8003ec8bf000040e800cd
:100ff0003ee8b7003ec8bf00ed4f5000020036008b
:1010000010c0b3003ee8b7000080fa000000060000
:101010000200fa00004f78009e40780010cdb30027
:1010200000c04000004f78000040eb003fe8b700f0
:10103000130037003fc8bf000082fb009e80fb000a
:101040003fc8bf000081fb00e3f32a00018040009d
:10105000000040000000400002004000000040008e
:101060006080790080407800109d200000004200e0
:10107000014878003fc8bf000040e8003fe8b700e3
:101080003fc8bf00e74f5000eaff360041c8bf002d
:10109000e14f500002003a0010c0b300d8e9b70099
:1010a000d1c9bf00614060000040400000404000e6
:1010b0000040400000404000004040000040400030
:1010c00080404000cbc2bf000074a100014070000e
:1010d000cbe2b700d2c9bf00614060006140600050
:1010e0000040400000414000612d20009140780008
:1010f000b0cfb30000c0600002407000d6e2b7007d
:10110000d3c9bf0061406000614060000040400002
:101110000040400000414000612d200091407800d7
:1011200070cfb30000c0600002407000d6e2b7008c
:10113000d4c9bf00614060006140600000404000d1
:10114000004040000040400000414000612d200070
:1011500091407800f0ceb30000c060000240700003
:10116000d6e2b700d5c9bf006140600061406000b1
:10117000004040000040400000404000004040006f
:1011800000414000612d200091407800f0cdb30077
:1011900000c0600002407000d6e2b700d6c9bf00b0
:1011a000614060006140600000404000004040003d
:1011b000004040000040400000404000004140002e
:1011c000612d200091407800f0cbb30000c060009a
:1011d00002407000d6e2b700d7c9bf00614060008e
:1011e00000404000004040000040400000404000ff
:1011f000004040000040400080404000d6c2bf0098
:101200000074a10001407000d6e2b700d8c9bf0049
:101210006140600061416000712d200091407800c4
:10122000e0cfb30000c0600002407000d7e2b7001a
:101230000080fa00000006000200fa00000f7800ab
:101240001e007800a2002000110009000280d800d2
:101250008000fd000043b000cce9b7001e0078001c
:10126000a2002000110009000280d800000f7800c1
:101270001e007800a2002000110009000280d800a2
:101280008000fd000043b000cbe9b7001e007800ed
:10129000a2002000110009000280d800000f780091
:1012a0001e007800a2002000110009000280d80072
:1012b0008000fd000043b000cae9b7001e007800be
:1012c000a2002000110009000280d800000f780061
:1012d0001e0078000043b000c9e9b7000080fa00a2
:1012e000000006000200fa00000f78001e007800df
:1012f000a2002000110009000280d8008000fd003b
:101300000043b000d0e9b7001e007800a200200022
:10131000110009000280d800000f78001e0078003c
:10132000a2002000110009000280d8008000fd000a
:101330000043b000cfe9b7001e007800a2002000f3
:10134000110009000280d800000f78001e0078000c
:10135000a2002000110009000280d8008000fd00da
:101360000043b000cee9b7001e007800a2002000c4
:10137000110009000280d800000f78001e007800dc
:101380000043b000cde9b7000080fa00000006007d
:101390000000fa00de02a800de22a800dec2a800db
:1013a0000080fa00000006000200fa000040eb0096
:1013b000004f78005f000700e14f50005a003a00ec
:1013c00023cabf000004e0001a003a0024cabf008c
:1013d0000004e00017003a0025cabf00e24f5000a9
:1013e00008003a0010c0b30023eab7000040eb0049
:1013f00024eab70010c0b30026eab70040c2b30029
:10140000004f780025cabf00e14f500046003a0067
:1014100010c0b30023eab7000040eb0024eab70095
:1014200010c0b30027eab70040c2b300004f7800f5
:101430003d00370023cabf00e14f50000d003a00c5
:1014400024cabf000004e0000a003a0025cabf0019
:10145000e34f500034003a0010c0b30023eab70055
:1014600010c0b30024eab70040c2b300004f7800b8
:101470002d00370023cabf00e14f500020003a0082
:1014800024cabf00e14f50001d003a0025cabf002a
:10149000e14f500009003a0026cabf00e14f50005a
:1014a00006003a000040eb0023eab7000040eb00e2
:1014b00026eab700b0c2b300004f780025cabf00cb
:1014c000e24f500009003a0027cabf00e14f500028
:1014d00006003a000040eb0023eab7000040eb00b2
:1014e00027eab700d0c2b300004f78000040eb00fd
:1014f00023eab7000040eb0024eab7000a003700f7
:101500000040eb0026eab7000040eb0027eab700f6
:101510000040eb0023eab7000040eb0024eab700ec
:1015200040c2b300004f78001e80fb000080fa002c
:10153000000006000200fa000000eb0040408800b6
:101540000017800040408800404080006300600039
:10155000404088004040800025eab70025cabf000f
:1015600021eab70011a220009140780022cabf00f2
:1015700000c068000004e0000500320025cabf007a
:1015800022eab70010002000000f780004003700a6
:1015900025cabf0022eab7000000eb00000f780068
:1015a0001e0078000080fa00000006003600f800f7
:1015b000809fbe00829fbe00849fbe00869fbe00ab
:1015c0000000fa008460a90045c8bf000040e800a0
:1015d00045e8b700a5c8bf000040e800a5e8b7008f
:1015e00046c8bf000040e80046e8b700a6c8bf00f4
:1015f0000040e800a6e8b7007bcabf00e14f5000fa
:1016000003003a0010c0b3003be9b7000200370006
:1016100020c0b3003be9b700e6c2bf0062406000f3
:101620000004e00005003a0020c0b3002ceab70037
:1016300010c0b3009de8b7000400370010c0b3002d
:101640002ceab7000040eb009de8b70046c8bf0099
:10165000e94f50001a0036000040eb0046e8b700a2
:1016600049c8bf000040e80049e8b70049c8bf00ca
:10167000f34f50000b003e0072cabf0092eab70061
:1016800060c8bf000004e00006003a0010c0b300cc
:1016900047e8b7000040eb0048e8b7003002200000
:1016a000d010880049c8bf00f34f50000400360036
:1016b0000040eb0049e8b70010c0b3004ae8b700ab
:1016c00086c9bf00e14f500012003a0040c8bf0079
:1016d000e14f50000f003a002ccabf00e14f50000c
:1016e0000c003a00704b80000000e800704b88004e
:1016f000714b8000401f2000808f50000700360093
:10170000401f2000704b88000040eb0086e9b700c6
:10171000020037000000eb00704b880001408000a1
:10172000f07c2000808f50000e0036000000eb009f
:1017300040498800304980000000e80030498800b6
:1017400031498000f07c2000808f5000110036006d
:10175000007d20003049880010c0b3005ce9b7006c
:101760000c0037000000eb00304988004049800041
:101770000000e8004049880040498000e40f500024
:101780000400360050002000404988000040eb0073
:101790005ce9b70040c8bf00e14f50000e003a00be
:1017a0000000eb00304a8800404a80000000e8005a
:1017b000404a8800414a8000f07c2000808f500021
:1017c00011003400007d2000404a880010002000f5
:1017d000904b88000c0037000000eb00404a880066
:1017e000304a80000000e800304a8800304a80001b
:1017f000ee0f500004003400f0002000304a880052
:101800000000eb00904b8800714a8000a04a8000e5
:10181000808f500011003400904b8000e10f500089
:101820000e003a000000eb00804a8800904a8000d9
:101830000000e800904a8800914a8000f07c200077
:10184000808f500011003400007d2000904a8800f5
:1018500010c0b30066e9b7000c0037000000eb00d1
:10186000904a8800804a80000000e800804a880092
:10187000804a8000e40f5000040034005000200033
:10188000804a88000040eb0066e9b70051842000e0
:101890009140780010c3b30080cf5000150036008f
:1018a0000040eb0045e8b700b110070056c9bf0083
:1018b000e14f50000f003a005fc8bf00e14f5000f9
:1018c0000c003a00ca0c0700619320009140780098
:1018d00050c4b30080cf500004003a00204980007b
:1018e0000000e80020498800020037000000eb00fb
:1018f0002049880028cabf00ea4f50003e003a0045
:101900000040eb0028eab700d04680000000e80065
:10191000d0468800e04680000000e800e0468800ed
:10192000490f0700a8c8bf00e14f500010003a005f
:101930002ccabf00e14f50000d003a00e146800084
:10194000301f2000808f50000700360000c5b30014
:10195000ece8b7000000eb00e04688000040eb0038
:10196000a8e8b7000200370020c5b300ece8b700d4
:10197000d146800030062000808f50000e003600d7
:101980000000eb00d0468800100020005044880082
:101990009ec8bf000040e8009ee8b7009ec8bf0098
:1019a000f94f5000040036000040eb009de8b700fe
:1019b0000040eb009ee8b70091a220009140780023
:1019c00030c6b30080cf5000080036000040eb0066
:1019d00029eab70010c0b300afe8b70010c0b300e9
:1019e000f1e8b70010c0b3002beab70029cabf0066
:1019f0000040e80029eab700b2fc070028cabf008f
:101a00000040e80028eab700f05080000000e8003d
:101a1000f0508800a1468000703e2000808f50006a
:101a2000020036000040eb0057e8b7002ccabf00a8
:101a3000e14f500057003a0087c9bf000004e000a2
:101a400028003a00e0c2bf000044b2000004e000f9
:101a50000d003a0068c9bf000004e0000a003a0027
:101a600069c9bf00e14f500007003a0010c0b30041
:101a700068e9b70010c0b3009fe8b7000040eb0072
:101a800069e9b70010003700e0c2bf000044b200af
:101a90000004e0000c003a0068c9bf00e14f5000ac
:101aa00009003a0069c9bf00e14f500006003a0042
:101ab0000040eb0068e9b70010c0b3009fe8b70032
:101ac0000040eb0069e9b700e0c2bf000044b2008b
:101ad0000004e0000700320010c0b30069e9b7005d
:101ae0000400370087c9bf00e14f500001003a00f1
:101af0004f00070087c9bf000004e00025003a003e
:101b000088c9bf000004e00022003a00e0c2bf0024
:101b10000044b2000004e00016003a00804b800050
:101b20000000e800804b8800814b80007038210065
:101b3000808f50001700360010c0b30087e9b7004f
:101b400010c0b30088e9b7000040eb0068e9b700b7
:101b500010c0b3009fe8b7000040eb0069e9b70090
:101b60000000eb00804b880010c0b30089e9b7008b
:101b7000080037000000eb00804b88000040eb00bd
:101b800087e9b7000040eb0088e9b7000040eb00b0
:101b900089e9b7002ccabf00e24f50001d003a008f
:101ba00056c9bf00e14f50001a003a005dc9bf009e
:101bb000e14f500017003a000040eb005de9b7002c
:101bc0005443800065438000a00020000023b8003b
:101bd0006020b90007017800000141006a28b900bf
:101be000000141008203780032022000030020003f
:101bf0000600be00c2f90700004988009c0c0700df
:101c0000904d8000a04d8800a04d80006f00b9006d
:101c1000a04b88000080fa004f03be004f02be00b8
:101c20004f01be004f00be003600f9000040060024
:101c30000000fa00e0c2bf000044b2000004e0006f
:101c40001300320062c9bf000004e00010003a0037
:101c50000000eb00104a8800204a80000000e800e5
:101c6000204a8800204a8000ee0f5000080034000f
:101c7000f0002000204a88000040eb0064e9b70033
:101c80000040eb0065e9b70010c0b30063e9b7009e
:101c9000e0c2bf000044b2000004e00019003a00b6
:101ca00062c9bf000004e00016003a0063c9bf002b
:101cb000e14f500013003a000000eb00204a88007a
:101cc000104a80000000e800104a8800114a800095
:101cd00070382100808f50000a00340080382100c5
:101ce000104a880010c0b30064e9b70010c0b30008
:101cf00062e9b7000040eb0063e9b7000040eb0089
:101d000089e9b700e0c2bf000044b2000004e0006f
:101d10000f00320062c9bf00e14f50000c003a00d2
:101d20000000eb00104a8800204a80000000e80014
:101d3000204a8800204a8000ee0f50000400340042
:101d4000f0002000204a880010c0b30063e9b7000b
:101d5000e0c2bf000044b2000004e00019003a00f5
:101d600064c9bf00e14f500016003a0063c9bf00cc
:101d7000e14f500013003a000000eb00204a8800b9
:101d8000104a80000000e800104a8800114a8000d4
:101d900070382100808f50000a0034008038210004
:101da000104a88000040eb0064e9b70010c0b3009f
:101db00065e9b70010c0b30062e9b7000040eb006e
:101dc00063e9b700e0c2bf000044b2000004e000d5
:101dd00027003a0065c9bf00e14f500024003a00d7
:101de00063c9bf00e14f500021003a000000eb0042
:101df000204a8800104a80000000e800104a88004d
:101e0000114a800070382100808f50001800340083
:101e100080382100104a88000040eb0064e9b700d8
:101e20000040eb0065e9b7000040eb0062e9b70055
:101e30000040eb0063e9b7000040eb0087e9b70022
:101e40000040eb0088e9b7000040eb0068e9b7000c
:101e500010c0b3009fe8b7000040eb0069e9b7008d
:101e60000000eb00804b88000040eb0089e9b700e0
:101e70000080fa00000006000000fa0084c0a900fb
:101e80000080fa00004006003600f800809fbe0087
:101e9000829fbe00849fbe00869fbe000000fa00a5
:101ea00086a0a9002ccabf00e14f50009b003a0059
:101eb000c18e20009140780000c5b30080cf500053
:101ec00096003a00d04580000000e800d045880028
:101ed00035fd070020eab70068c9bf000004e00034
:101ee0002a003a0001a2200091407800b0c2b3005d
:101ef00080cf500009003a003144800000322000b9
:101f0000808f500005003e00304480000146800074
:101f100001004000304488005100370001a2200039
:101f200091407800d0c2b30080cf500009003a0041
:101f30003144800020032000808f500005003600cf
:101f40003044800011468000010050003044880079
:101f50004300370031448000f0312000808f500072
:101f60000300360000322000304488003c00370077
:101f70003144800020032000808f500038003e0054
:101f800020032000304488003500370068c9bf00b6
:101f9000e14f500032003a0001a220009140780049
:101fa000b0c2b30080cf500009003a00514b80000e
:101fb00040062000808f500005003e00504b8000fe
:101fc0000146800001004000504b8800240037008b
:101fd00001a2200091407800d0c2b30080cf500011
:101fe00013003a00504b80000000e0001000320067
:101ff000514b800010468000808f50000500390052
:10200000504b80001146800001005000504b88006a
:1020100013003700504b80000000e0001000320039
:10202000504b80000000e900504b88000c00370046
:10203000514b800030062000808f50000300360096
:1020400040062000504b880005003700504b8000b0
:102050000000e00002003a000000eb00504b880056
:10206000d1458000700c2000808f500012003e008f
:1020700001a2200091407800b0c2b30080cf500090
:1020800004003a00e04580000000e800e0458800d8
:10209000ab00370001a2200091407800d0c2b3000d
:1020a00080cf5000a6003a00f04580000000e80014
:1020b000f0458800a2003700d1458000700c200058
:1020c000808f50009e0036000000eb00d045880055
:1020d000e045800000468800f045800010468800fa
:1020e00000468000e10f500002003e00100020007a
:1020f0000046880010468000e10f500002003e00bc
:1021000010002000104688000000eb00e045880029
:102110000000eb00f0458800890037002ccabf00a2
:10212000e24f50005d003a0010c0b300b8e8b700bd
:10213000d04580000000e800d04588009afc0700e8
:1021400020eab70001a2200091407800b0c2b3009d
:1021500080cf500009003a0051498000800c2000d7
:10216000808f500005003e005049800001468000ed
:1021700001004000504988001900370001a22000ea
:1021800091407800d0c2b30080cf500008003a00e0
:1021900050498000ea0f5000050036005049800089
:1021a0001146800001005000504988000c003700a3
:1021b00051498000700c2000808f500003003600d1
:1021c000800c2000504988000500370050498000ed
:1021d000ea0f500002003e00a00020005049880095
:1021e000d1458000700c2000808f500012003e000e
:1021f00001a2200091407800b0c2b30080cf50000f
:1022000004003a00e04580000000e800e045880056
:102210004b00370001a2200091407800d0c2b300eb
:1022200080cf500046003a00f04580000000e800f2
:10223000f045880042003700d1458000700c200036
:10224000808f50003e0036000000eb00d045880033
:10225000e045800000468800f04580001046880078
:1022600000468000e10f500002003e0010002000f8
:102270000046880010468000e10f500002003e003a
:1022800010002000104688000000eb00e0458800a8
:102290000000eb00f04588002900370042fc0700f1
:1022a00020eab70001a2200091407800b0c2b3003c
:1022b00080cf500008003a0001418000b01c20008f
:1022c000808f500004003e00004180000000e800c4
:1022d000004188001a00370001a2200091407800d8
:1022e000d0c2b30080cf500008003a000141800006
:1022f000c0082000808f500004003600004180009c
:102300000000e900004188000d0037000141800015
:10231000b01c2000808f500003003600c01c20003d
:10232000004188000600370001418000c0082000fd
:10233000808f500002003e00c0082000004188004d
:102340000080fa004f03be004f02be004f01be00e6
:102350004f00be003600f900004006003600f800cd
:10236000809fbe00829fbe00849fbe00869fbe00ed
:10237000881f78006400fa00a042a9008560a900c7
:1023800000148000504088001014800060408800d5
:102390002014800070408800301480008040880045
:1023a000401480009040880050148000a0408800b5
:1023b000504080006101b8005043800061438000bc
:1023c0000200400083804800504388006143880039
:1023d000604080006101b80010438000214380000c
:1023e0000200400083804800104388002143880099
:1023f000704080006101b80070438000814380001c
:1024000002004000838048007043880081438800b8
:10241000804080006101b80030438000414380006b
:102420000200400083804800304388004143880018
:10243000904080006101b800f043800001448000ba
:102440000200400083804800f04388000144880077
:10245000a04080006101b800104480002144800049
:102460000200400083804800104488002144880016
:10247000404480000000e80040448800c0418000e3
:102480000000e800c0418800504080006101b800b1
:10249000d0418000e141800002004000838048007c
:1024a000d0418800e1418800c1418000f00f200048
:1024b000808f500012003600d0418000e141800042
:1024c0004809dd004800de0000007100c808de0099
:1024d000b0418800b04180006a00b900320220009b
:1024e000110009000280d800b04188000000eb0014
:1024f000c04188006000b800d0418800e1418800f8
:1025000041448000f0ff2000808f500070033600af
:102510005043800061438000c409dd004c00de00b0
:1025200000807100cc08de005043880061438800c1
:102530001043800021438000440add004c00de008f
:1025400000007200cc08de001043880021438800a0
:102550007043800081438000c40add004c00de002f
:1025600000807200cc08de00704388008143880040
:1025700030438000414380004409dd004c00de0010
:1025800000007100cc08de00304388004143880021
:10259000f043800001448000c409dd004c00de00ef
:1025a00000807100cc08de00f04388000144880000
:1025b0001044800021448000440add004c00de000d
:1025c00000007200cc08de0010448800214488001e
:1025d0000000eb0040448800f0438000014480008c
:1025e000a20020000300200045f70700e049880012
:1025f0006000b800f0438800014488001044800067
:1026000021448000a2002000030020003cf70700c6
:10261000f04988006000b800104488002144880018
:1026200010c0b3005de9b7009dc8bf000004e00022
:1026300005003a0010c0b3002ceab7006000b800f3
:10264000304388004143880070438000814380000c
:10265000b04088006000b800704388008143880063
:102660005443800065438000a00020000023b80090
:102670006020b90007017800000141006a28b90014
:102680000001410082037800320220000300200094
:102690000600be001af7070050468800504680002a
:1026a000204088005043800061438000b043880090
:1026b000c14388006000b80050438800614388002f
:1026c0001443800025438000400120000023b8000f
:1026d0006020b90007017800000141007428b900aa
:1026e0000001410082037800120320000300200053
:1026f0000600be0002f70700004088001243800079
:1027000023438000d1408000100320000088b900de
:102710000100200000005100818059009043880092
:10272000a14388006000b80010438800214388005e
:1027300042c8bf000004e0000f003a0043c8bf00d9
:10274000e94f50000800360000408000d04088006b
:10275000e049800090418800f0498000a041880055
:1027600010c0b30042e8b70043c8bf000040e80013
:1027700043e8b700e8013700e1498000904180005c
:10278000808f500070003900e14980009041800046
:1027900000805000e0498800e84980006140b900ad
:1027a000e7f6070000379800113798000800e000ae
:1027b00007003d0002002000037824000e30900046
:1027c0009e3090000af707000037980011379800f4
:1027d00002002000833424000e3090009e309000d0
:1027e00060f707000000e000010034002b00370014
:1027f000e84980006140b900d1f60700602f9800d9
:10280000712f98000800e00007003d000200200042
:10281000037824006e289000fe289000f4f607004c
:10282000602f9800712f9800e84980006140b9003e
:10283000c3f60700402f9800512f98000800e000d1
:1028400007003d0002002000037824004e2890007d
:10285000de289000e6f60700402f9800512f9800e0
:102860004e299000de2990000000200081342400d1
:10287000def60700d2cc2c00c3d423003bf70700c0
:102880000001be006e289000fe289000d8f60700d8
:102890006af70700504a88002d003700e849800099
:1028a0006140b900a6f60700202f9800312f98004c
:1028b0000800e00007003d0002002000037824002b
:1028c0002e289000be289000c9f60700202f9800ff
:1028d000312f9800e84980006140b90098f6070060
:1028e000002f9800112f98000800e00007003d001d
:1028f00002002000037824000e2890009e289000fb
:10290000bbf60700002f9800112f9800020020004e
:10291000833424000e2890009e289000b3f6070010
:10292000d2cc2c00c3d42b0010f707000001be004e
:102930002e289000be289000adf607003ff7070054
:10294000504a8800020037000000eb00e049880090
:10295000f1498000a0418000808f50007000390054
:10296000f1498000a041800000805000f0498800bb
:10297000f84980006140b90071f6070060279800af
:10298000712798000800e00007003d0002002000c9
:10299000037824006e209000fe20900094f607003b
:1029a00060279800712798000200200083342400db
:1029b0006e209000fe209000eaf607000000e00084
:1029c000010034002b003700f84980006140b90055
:1029d0005bf6070040279800512798000800e000a8
:1029e00007003d0002002000037824004e209000e4
:1029f000de2090007ef607004027980051279800bf
:102a0000f84980006140b9004df607002027980082
:102a1000312798000800e00007003d000200200078
:102a2000037824002e209000be20900070f607004e
:102a300020279800312798002e219000be21900079
:102a4000000020008134240068f60700d2cc2c005e
:102a5000c3d42300c5f607000001be004e2090003d
:102a6000de20900062f60700f4f60700604a880056
:102a70002d003700f84980006140b90030f60700aa
:102a800000279800112798000800e00007003d008b
:102a900002002000037824000e2090009e20900069
:102aa00053f607000027980011279800f849800086
:102ab0006140b90022f60700601f9800711f98005e
:102ac0000800e00007003d00020020000378240019
:102ad0006e189000fe18900045f60700601f9800e1
:102ae000711f980002002000833424006e189000ab
:102af000fe1890003df60700d2cc2c00c3d42b006a
:102b00009af607000001be000e2090009e20900063
:102b100037f60700c9f60700604a88000200370050
:102b20000000eb00f049880001408000d0408000a8
:102b3000808f5000d500390001408000d0408000d7
:102b40000080500000408800e1498000f04980008a
:102b500000804000004a8800014a800030062000c2
:102b6000808f50003c003600014a80005018200041
:102b7000808f500019003600084a80006140b9007b
:102b8000eff50700401f9800511f98000800e00073
:102b900007003d0002002000037824004e1890003a
:102ba000de18900012f60700401f9800511f980091
:102bb00002002000031a24004e189000de18900036
:102bc0006af6070002002000832c2400bcf60700f0
:102bd0009af60700a04a88001f003700014a8000cb
:102be00050182000808f500019003e00084a8000d5
:102bf0006140b900d2f50700201f9800311f9800ee
:102c00000800e00007003d000200200003782400d7
:102c10002e189000be189000f5f50700201f9800b0
:102c2000311f980002002000031f24002e1890007e
:102c3000be1890004df6070002002000832c2400ef
:102c40009ff607007df60700a04a880002003700c3
:102c500040062000a04a8800084080006140b9007a
:102c6000b7f50700001f9800111f98000800e0004a
:102c700007003d0002002000037824000e18900099
:102c80009e189000daf50700001f9800111f9800a9
:102c900002002000333c24000e1890009e18900083
:102ca00030f607000000e000010035002b0037007f
:102cb000084080006140b900a1f507006017980046
:102cc000711798000800e00007003d000200200096
:102cd000037824006e109000fe109000c4f50700e9
:102ce0006017980071179800084080006140b90093
:102cf00093f5070040179800511798000800e0006e
:102d000007003d0002002000037824004e109000d0
:102d1000de109000b6f50700401798005117980094
:102d20004e119000de11900000002000813c240034
:102d3000aef5070092c22500f3d823000bf607007a
:102d40000001be006e109000fe109000a8f5070074
:102d50009df60700704188004e003700014080005a
:102d600050182000808f500007003600014080007e
:102d7000a0192000808f500003003e00004080001a
:102d80007041880043003700084080006140b9006e
:102d90006bf5070020179800311798000800e00035
:102da00007003d0002002000037824002e10900050
:102db000be1090008ef5070020179800311798007c
:102dc00002002000d33c24002e109000be10900082
:102dd00098f607000000e00001003c002d003700dd
:102de000084080006140b90055f5070000179800c1
:102df000111798000800e00007003d0002002000c5
:102e0000037824000e1090009e10900078f50700c3
:102e10000017980011179800084080006140b90021
:102e200047f50700600f9800710f98000800e00058
:102e300007003d0002002000037824006e08900087
:102e4000fe0890006af50700600f9800710f980067
:102e500002002000833c24006e089000fe089000d1
:102e600062f50700a2702d0033c22b00bff50700ea
:102e70000001be000e1090009e1090005cf507004f
:102e800051f6070070418800020037000000eb0097
:102e900000408800514a8000604a8000808f5000c6
:102ea0000d003400504a8000614a8000010050004b
:102eb000500f9800de0a90000500e00003003d007e
:102ec0005e0890000000ea00500f9800de089000b5
:102ed000714a880010003700614a8000504a800023
:102ee000808f50000c003400604a8000514a8000fe
:102ef00001005000400f98004e0990000200e000d1
:102f000003003d00ce0990008301ea00430f9800c2
:102f10004e0a9000744a880042c8bf00e14f50003a
:102f200032003a009dc8bf00e14f50000a003a004d
:102f300072cabf00614060000004e000030032007c
:102f400010c0b30040e8b700280037000040eb0095
:102f500040e8b70025003700014080001003200042
:102f6000808f50000300360010c0b30040e8b70067
:102f70001e00370040c8bf00e14f50001b003a0060
:102f80002ccabf00e14f500018003a00714c80007d
:102f900030448000808f50000500320031448000b2
:102fa000200020004b08070030448000704c88004f
:102fb000614c8000504b8000808f50000500320033
:102fc000514b80006000200042080700504b8000f9
:102fd000604c88000040eb0040e8b7000000eb00c8
:102fe000704b880010c0b30086e9b70071852000df
:102ff00091407800f0c4b30080cf5000b4003a0094
:10300000edc8bf00e14f5000b1003a0020478000fa
:10301000f00f5000ae003e00204080006101b8007b
:1030200040488000514880000200400083804800f2
:103030004048880051488800004080006101b80085
:103040006048800071488000020040008380480092
:103050006048880071488800204780000000e80030
:103060002047880020478000f00f500093003a006e
:103070000040eb00efe8b7002448800035488000ae
:10308000f0c8bf000081fb00030020000400be0068
:103090009bf40700c0478800d14788004048800063
:1030a00051488000cc0add004400de000080720040
:1030b000c408de00e0478800f147880060488000cf
:1030c000714880004c09dd004400de000000710002
:1030d000c408de000048880011488800e2478000ec
:1030e000f3478000c0478000d1478000800f510027
:1030f000818f590059003900e2478000f347800072
:10310000c0478000d14780000001510081815900f3
:10311000220f9800330f98002e0a9000be0a9000ec
:10312000e00f5200e08f5a00060035002e08900094
:10313000be08900082f40700000f9800110f98005d
:10314000140037002e099000be0990006100610054
:103150008000eb002e0a9000be0a90008501d1008d
:103160000481d300020070008380700074f40700b3
:10317000000f9800110f98000e0990009e09900012
:103180000e0890009e08900099f40700000f980028
:10319000110f980002002000a34724000e089000a1
:1031a0009e089000f1f407006007980071079800ee
:1031b000004880001148800040079800510798009f
:1031c0004e019000de019000e00f5100e08f5900a9
:1031d000060035004e009000de00900058f4070015
:1031e0002007980031079800140037004e02900025
:1031f000de029000610062008000eb004e02900051
:10320000de0290008501d1000481d300020070002d
:10321000838070004af40700200798003107980067
:103220002e019000be0190002e009000be00900084
:103230006ff4070020079800310798002e019000d6
:10324000be0190006e009000fe0090001cf507008b
:103250005df5070010478800020037000000eb0012
:1032600010478800184780006140b90034f4070017
:10327000008fbe000800e00005003d0002002000b5
:10328000037824001e00be0059f40700008fbe0022
:1032900002002000031224001e00be00b3f4070049
:1032a00049f50700800078004000200089070700ea
:1032b0001047800000478800050037002047800045
:1032c000f00f500002003e002047800000478800b9
:1032d000a042a8000080fa004f0478004f03be000f
:1032e0004f02be004f01be004f00be003600f90085
:1032f00000400600809fbe000000fa008720a90061
:1033000060c8bf00e14f50001f003a0061c8bf0015
:10331000f54f50000b003e0061c8bf008080fb00ed
:10332000b09f200000804000104078000080fb002b
:10333000d010880061c8bf000040e80061e8b70015
:103340002a00370061c8bf00f64f500007003a005e
:1033500011cabf000080fb00d010880061c8bf0008
:103360000040e80061e8b700200037000040eb00b3
:1033700060e8b7000040eb0061e8b7000040eb00f8
:1033800061eab7001900370047c8bf00e14f50009d
:1033900016003a0072cabf0092eab70048c8bf00e0
:1033a0000004e00007003a0092cabf000080fb0062
:1033b000d010880048c8bf000040e80048e8b700c7
:1033c0000a00370048c8bf00e14f500007003a002c
:1033d00092cabf000080fb00d01088000040eb00c4
:1033e00048e8b7000040eb0047e8b7000080fa006b
:1033f0004f00be0000400600809fbe00821f780084
:103400000000fa008700a900e01080004ce8b70037
:10341000c18420009140780000c4b30080cf5000e8
:103420000f003a004dc8bf000004e0000c003a0055
:103430004ec8bf000004e00009003a0010c0b3000d
:103440004de8b7000040eb004ee8b7000040eb004d
:1034500054e8b7000040eb0013e9b700be003700a6
:10346000c18420009140780030c2b30080cf50006a
:1034700011003a0010c9bf000004e0000e003a003d
:1034800063cabf000004e0000b003a0010c0b300a4
:103490004ee8b7000040eb004de8b7000040eb00fd
:1034a00013e9b7000040eb0054e8b70010c0b300c8
:1034b000abe8b700a80037004dc8bf000004e0002b
:1034c0003f003a004ec8bf00e14f50003c003a00b8
:1034d0004fc8bf000004e00005003a004cc8bf0020
:1034e00090e9b70010c0b3004fe8b7009a0037006a
:1034f0004fc8bf00e14f500097003a00c184200040
:103500009140780090c9bf0080cf500021003a0060
:1035100090c9bf0073eab7000040eb004de8b70068
:103520000040eb004ee8b7000040eb004fe8b7006a
:103530000040eb0013e9b70010c0b30065eab70024
:1035400090c9bf0066eab70073cabf00624060005e
:103550000004e0000300320000c5b30034e9b70006
:103560000200370020c5b30034e9b70073cabf00ba
:10357000614060000004e00003003a0020c3b30093
:1035800037e9b7007400370040c3b30037e9b7002c
:10359000710037000040eb004de8b7000040eb0041
:1035a00013e9b7000040eb0054e8b7000040eb001f
:1035b0004ee8b7000040eb004fe8b7006600370068
:1035c0004dc8bf00e14f500059003a004ec8bf003f
:1035d0000004e00056003a0013c9bf00ef4f50004e
:1035e00010003e0013c9bf008080fb00c284200091
:1035f00012417800209e20000080400002487800a0
:1036000041852000914078004cc8bf0000c04000b8
:1036100054e8b70013c9bf000040e80013e9b70041
:103620004d00370041852000914078004cc8bf0014
:1036300080cf500033003a00e7c9bf000080fb0094
:103640009049880090498000000040000000400040
:10365000000040000000400000004000000040006a
:10366000000040000000400090498800e8c9bf0009
:103670008080fb00904980000080700090498800a5
:1036800090498000b0488800e3c9bf000080fb007b
:1036900050498800b04480000000e800b044880031
:1036a000b0448000e40f5000040036000000eb003e
:1036b000b04488000000eb00c048880093cabf00f7
:1036c00073eab70073cabf00624060000004e00004
:1036d0000300320000c5b30034e9b7000200370030
:1036e00020c5b30034e9b7000040eb004de8b70057
:1036f0000040eb0013e9b7000040eb0054e8b700ce
:10370000150037000040eb004de8b7000040eb002b
:1037100013e9b7000040eb0054e8b7000040eb00ad
:103720004ee8b7000040eb004fe8b7000a00370052
:103730000040eb004de8b7000040eb0013e9b70094
:103740000040eb0054e8b7000040eb004ee8b70043
:103750000040eb004fe8b7000080fa004f0178000e
:103760004f00be0000400600809fbe00821f780010
:103770000200fa000000eb00000f78008520a9008d
:103780009010800058e8b7008185200091407800b3
:1037900040c2b30080cf50000d003a0010c9bf00f6
:1037a0000004e0000a003a0011c9bf000004e00074
:1037b00007003a000040eb005ce8b70010c0b3001f
:1037c00010e9b7000040eb005ae8b7008e00370060
:1037d000818520009140780050c2b30080cf500016
:1037e0000b003a0010c9bf00e14f500008003a003a
:1037f00011c9bf000004e00005003a0058c8bf002e
:103800005ce8b70010c0b30011e9b7007e003700d4
:10381000818520009140780030c2b30080cf5000f5
:103820000b003a0010c9bf00e14f500008003a00f9
:1038300011c9bf000004e00005003a0058c8bf00ed
:103840005ce8b70020c0b30011e9b7006e00370094
:10385000818520009140780000c4b30080cf5000e3
:103860000b003a0010c9bf00e14f500008003a00b9
:1038700011c9bf000004e00005003a0058c8bf00ad
:103880005ce8b70030c0b30011e9b7005e00370054
:1038900010c9bf00e14f500046003a0011c9bf00f7
:1038a000e14f500043003a005ac8bf008080fb003f
:1038b000828520001241780030a120000080400065
:1038c000024878005ac8bf00e14f500008003e008f
:1038d0005ac8bf008080fb0030a12000008040005b
:1038e000904078005cc8bf0000c040005ce8b700b2
:1038f0005ac8bf000040e8005ae8b7005ac8bf00e5
:10390000e34f500040003a000040eb0010e9b700e0
:103910000040eb0011e9b7000040eb005ae8b700a7
:1039200051a12000914078005cc8bf0080cf5000ba
:103930001d003a0013cabf005de8b70014cabf00fb
:103940005ee8b7005ec8bf000080fb00000f780093
:103950001e00780000004000000040000000400011
:103960000000400000004000000040000000400057
:1039700000004000800078005dc8bf000080fb00b0
:10398000008f70001e007800304488000000eb00bb
:10399000e04688000040eb005ce8b70010c0b300d0
:1039a000a8e8b700180037000040eb0054e8b70063
:1039b0001500370010c9bf00e14f50000c003a005d
:1039c00011c9bf00e34f500009003a000040eb006e
:1039d0005ce8b7000040eb0010e9b7000040eb00e6
:1039e00011e9b7000040eb005ae8b70006003700c5
:1039f0000040eb005ce8b7000040eb0010e9b700c6
:103a00000040eb0011e9b7000080fa004f01780098
:103a10004f00be0000400600801f78000000fa0042
:103a20008740a900e922a80026c2bf000044b200d6
:103a30000004e0000100320026c2a9000080fa0064
:103a40004f007800004006001000fa00889fbe007a
:103a5000aac8bf000004e00044003a000040eb00a8
:103a600067eab70067caa900d0c4b300c9e9b700c4
:103a7000d0c4b300cae9b70010c4b300cbe9b700a3
:103a8000b0c5b300cce9b700d0c4b300cde9b700ee
:103a9000f0c4b300cee9b70040c4b300cfe9b7002b
:103aa00050c4b300d0e9b700d722a800ca82a90049
:103ab000cb02a80010c0b300aae8b7000040eb009a
:103ac000ace8b7000040eb00abe8b700e862a90043
:103ad000e842a9000040eb00afe8b7000040eb006f
:103ae000b3e8b70010c0b30086e9b7000040eb00b0
:103af00028eab7000040eb0029eab7000000eb001d
:103b0000104188000000eb00f040880010c0b300b6
:103b10009fe8b7002000200051050700704488008e
:103b200071448000f0312000808f50000200360088
:103b300000322000704488007044800030448800c7
:103b40006000200046050700704488007144800032
:103b500030062000808f5000020036004006200012
:103b60007044880070448000504b8800b2c8bf0089
:103b70000004e00074013a0067c9bf000004e000df
:103b800071013a00d722a800ca82a900cb02a8007e
:103b900062c9bf000004e00024013a000040eb00cd
:103ba00067eab70068c9bf000004e0002b003a00d4
:103bb00089c9bf000004e00028003a0067caa800d5
:103bc00040c8bf000004e00055003a0067caa900e1
:103bd000c140800030448000808f500003003a00d4
:103be0009fc8bf00e14f500007003a0030448000fa
:103bf00091f5070030448000c040880031448000c7
:103c00002000200033050700314080002040800064
:103c1000808f50000300320050448000e10f5000bc
:103c2000030032009fc8bf00e14f500004003a007b
:103c300020408000abf50700204080003040880025
:103c40000000eb00504488000040eb009fe8b70004
:103c50000040eb002beab7003100370068c9bf0015
:103c6000e14f500015003a0089c9bf000004e00090
:103c700012003a0040c8bf000004e0000f003a0004
:103c800067caa90010c4b300c9e9b70020c5b300d2
:103c9000cae9b70030c4b300cbe9b70060c4b300d1
:103ca000cce9b700504b80008ef50700514b8000e7
:103cb00060002000070507001900370068c9bf0031
:103cc0000004e00016003a0089c9bf00e14f50002f
:103cd00013003a0040c8bf000004e00010003a00a2
:103ce00030c4b300c9e9b70010c4b300cae9b700d3
:103cf000c0c4b300cbe9b700f0c2b300cce9b70051
:103d0000d0c4b300cde9b700f0c4b300cee9b7002a
:103d100040c4b300cfe9b70050c4b300d0e9b70046
:103d2000b84180006140b90085f107006007980044
:103d3000710798000800e00007003d000200200025
:103d4000037824006e009000fe009000a8f10700a8
:103d500060079800710798006e009000fe009000c8
:103d6000b04b8800c14b8800584b80006140b900bf
:103d700073f1070040079800510798000800e00021
:103d800007003d0002002000037824004e00900050
:103d9000de00900096f10700400798005107980058
:103da0004e009000de009000d04b8800e14b880070
:103db000384480006140b90061f107002007980095
:103dc000310798000800e00007003d0002002000d5
:103dd000037824002e009000be00900084f10700bc
:103de00020079800310798002e009000be00900038
:103df000104c8800214c880086c9bf00e14f50005c
:103e000022003a00104c8000214c80000200280063
:103e100093402400d3f107000000e00001003500ca
:103e200011003700104c8000214c8000020020005f
:103e300003172400cdf1070002002000832c24008a
:103e40001ff207000002be00104c8000214c8000d1
:103e50000001be000400be0065f10700f04b8800c1
:103e6000014c880007003700104c8000214c800076
:103e700002002000832c24005df10700f04b880035
:103e8000014c8800d022a8002d003700b04b8000e4
:103e9000c14b80000200200063412400b1f1070003
:103ea0000000e0000100340021003700b24b800028
:103eb000c34b800000002000614124004bf107004b
:103ec0000200200063412400fdf107000002be0053
:103ed000104c8000214c80000001be000400be0098
:103ee000a2f107000004be00d04b8000e14b80002f
:103ef00002002000832c2400f1f107000001be0025
:103f00000800be0099f107000002be00104c8000be
:103f1000214c80000001be000400be0034f1070007
:103f2000f04b8800014c8800d022a9000400370023
:103f3000104c8000214c8000f04b8800014c880020
:103f4000f04b8000014c80000200200083442400dc
:103f500038f207000000e00001003d0004003700d7
:103f60000000200081442400f04b8800014c8800b0
:103f7000104c8000214c800062ba290043002400cc
:103f80007af1070002002800533d240018f10700d1
:103f90000df207003046880031468000b0b720009f
:103fa000808f500002003600c0b7200030468800e5
:103fb00030468000000c880040c8bf00e14f500030
:103fc0001a003a008141800070418000808f5000cb
:103fd0000700320050448000e10f500004003a0016
:103fe0007041800094f40700704180008041880097
:103ff0003140800020408000808f50000700320058
:1040000050448000e10f500004003a00204080003e
:10401000b4f4070020408000304088000000eb002e
:104020005044880010c0b3009fe8b70062c9bf00c9
:10403000e14f500049003a000040eb0067eab7004a
:1040400067caa900c140800030448000808f5000c2
:104050001e003200384480006140b900b8f007000b
:10406000008fbe000800e00005003d0002002000b7
:10407000037824001e00be00ddf00700008fbe00a4
:1040800062ba2900430024001e00be0037f1070079
:1040900002002800533d2400d5f00700caf10700b4
:1040a0003046880031468000b0b72000808f500035
:1040b00002003600c0b7200030468800304680003d
:1040c000000c880030448000c040880064c9bf00f4
:1040d000e14f50000a003a0030c4b300c9e9b7000c
:1040e00010c4b300cae9b700c0c4b300cbe9b7003d
:1040f00010c3b300cce9b700504a800079f4070040
:1041000065c9bf00e14f50000a003a0030c4b30057
:10411000c9e9b70010c4b300cae9b700c0c4b3000e
:10412000cbe9b70020c3b300cce9b700604a8000f8
:104130006cf40700100020005044880010c0b30049
:104140009fe8b700050037000040eb0067eab700c2
:104150000000eb00000c8800d722a90067c9bf004f
:10416000e14f500008003a000040eb0067eab7005a
:104170000000eb00000c8800d722a90067c9bf002f
:10418000e14f5000fdff32004f04be000080fa00f6
:10419000000006000000fa00b04880002602070078
:1041a000abc8bf000004e00040003a000040eb0054
:1041b000d9e9b7000040eb0067eab700d0c4b3000c
:1041c000c9e9b70090c4b300cae9b70070c4b3002e
:1041d000cbe9b700b0c5b300cce9b700d0c4b30099
:1041e000cde9b700f0c4b300cee9b70040c4b300d6
:1041f000cfe9b70050c4b300d0e9b7000040eb00ee
:10420000aae8b7000040eb00ace8b70010c0b3006c
:10421000abe8b7000040eb00afe8b700cb02a90065
:104220000040eb0028eab7000040eb0029eab700a5
:10423000ca82a900d722a900c7a2a900cba2a900bf
:1042400010c0b3009fe8b7000040eb00eee8b700f5
:1042500010c0b300d9e9b700a00020008003070018
:10426000704488007044800050498800e0002000bd
:104270007b0307007044880071448000c008200060
:10428000808f50000400360071448000701b2000b5
:10429000808f500002003600c00820007044880063
:1042a00070448000b048880096003700b2c8bf0054
:1042b0000004e00078003a00abc8bf00e14f5000b6
:1042c00075003a0056c9bf000004e00044003a00ff
:1042d000e862a800720aa9000040eb0067eab70094
:1042e000674aa80067caa800614980005049800059
:1042f000808f500008003a0087cabf008080fb0012
:1043000050498000808f500003003a009fc8bf00d2
:10431000e14f500009003a0050498000c6f3070001
:1043200050498000604988005049800087eab70002
:1043300051498000a000200066030700e14880008a
:10434000b0488000808f500003003a009fc8bf0033
:10435000e14f500010003a00b0488000e1f3070040
:10436000b0488000e0488800b0488000904988004c
:10437000904980008ceab700904980004800de0038
:1043800090498800904980008beab700b1488000ce
:10439000e00020004f03070044c8bf00e14f500079
:1043a00002003a000040eb0044e8b700cba2a900ad
:1043b000d722a900ca82a900cb02a9000000eb0005
:1043c000204988000000eb00000c8800f0ff21006d
:1043d000d0488800f0ff2100e048880049003700fd
:1043e00056c9bf00e14f500046003a0010c0b3006c
:1043f00044e8b700720aa800e862a900e842a800f1
:104400000040eb0067eab70067caa800814180005e
:1044100070418000808f50000700320050448000bf
:10442000e10f500004003a007041800082f3070061
:104430007041800080418800314080002040800031
:10444000808f50000700320050448000e10f500080
:1044500004003a0020408000a2f3070020408000c2
:1044600030408800704180008feab70070418000c2
:104470004800de008eeab7002040800091eab700d5
:10448000204080004800de0090eab7000000eb000a
:10449000504488001b003700b2c8bf00e14f5000f5
:1044a00018003a000040eb0067eab700cba2a90071
:1044b000d722a900ca82a900cb02a9000040eb00c4
:1044c000b3e8b7000000eb00000c88000000eb0030
:1044d000300c88000040eb005fe8b7000000eb0004
:1044e000f04088000000eb001041880067c9bf0061
:1044f000e14f500003003a0067c9bf00e14f500090
:10450000fdff32000040eb00b8e8b7000080fa0081
:10451000000006000400fa0056c9bf000004e000d5
:1045200002003a000000eb007051880071932000f7
:104530009140780020c3b30080cf500068003a005b
:1045400070518000100798001e009000e10f50008d
:10455000290032001e009000e10f500007003900d2
:104560001e009000e20f5000400032001e0090003c
:10457000e30f5000480032002d01370056c9bf003c
:104580000004e00013003a0010c0b30056e9b70081
:10459000cba2a800d722a800ca82a800cb02a900fb
:1045a000b048800024010700a04880007701070080
:1045b00010c0b3005fe8b700720aa800722aa90011
:1045c000726aa8000000eb0020498800100020005b
:1045d00070518800419320009140780020c5b300bd
:1045e00080cf500012013a00720aa900300020006a
:1045f000705188000e0137001000200070518800b3
:10460000419320009140780020c5b30080cf500036
:104610000c003a00722aa900726aa800720aa80067
:104620000040eb005fe8b7000000eb00300c8800b2
:104630000040eb0057e9b7002000200070518800cf
:10464000fb00370070418000fbf207002040800033
:1046500024f30700b0488000f7000700a04880005e
:104660004a010700722aa800f1003700cba2a90076
:10467000d722a900ca82a900cb02a9000000eb0042
:10468000ed00070030002000705188000040eb0072
:1046900057e9b700e6003700cba2a900d722a9004e
:1046a000ca82a900cb02a9000040eb0056e9b7007e
:1046b0000040eb005ae9b700720aa9000000eb00c5
:1046c000dd0007000000eb00300c88000000eb006c
:1046d000705188000040eb005fe8b700d40037005d
:1046e000719320009140780040c3b30080cf500008
:1046f000cf003a0070518000000f78001e00780053
:10470000e10f50004d0032001e007800e10f500014
:10471000070039001e007800e20f5000a5003200ab
:104720001e007800e30f5000ae003200c0003700da
:1047300056c9bf000004e00013003a0010c0b300e7
:1047400056e9b700cba2a800d722a800ca82a800c9
:10475000cb02a9000040eb0058e9b7000040eb0095
:1047600059e9b700b0488000b30007000000eb0033
:10477000300c880010002000705188000000eb0011
:1047800020498800720aa80056c9bf000004e00052
:1047900013003a0010c0b30056e9b7000040eb0028
:1047a000a5e8b700cba2a80000c7b300c9e9b700cd
:1047b00020c5b300cae9b70050c4b300cbe9b700c5
:1047c00060c4b300cde9b700c0c4b300cee9b70000
:1047d000f0c4b300cfe9b70070c5b300d0e9b700ab
:1047e000d7c2bf00624060000004e00090003a00c1
:1047f000d722a800ca82a800cb02a9000040eb0083
:1048000058e9b7000040eb0059e9b70010c0b30009
:1048100056e9b700b0488000870007000000eb00b1
:10482000300c880010002000705188000000eb0060
:1048300020498800720aa8007d00370041932000bb
:104840009140780020c5b30080cf500013003a009b
:1048500058c9bf000004e00010003a0059c9bf0069
:104860000004e0000d003a0010c0b30058e9b700a2
:10487000100020007051880010c0b3005fe8b7003e
:10488000722aa800b04880006b000700a048800092
:10489000be000700720aa80065003700419320009f
:1048a0009140780020c5b30080cf50000e003a0040
:1048b00058c9bf00e14f50000b003a0059c9bf0072
:1048c0000004e00008003a00100020007051880049
:1048d000b048800058000700a0488000ab000700e7
:1048e000720aa800520037004193200091407800de
:1048f00000c5b30080cf500018003a0058c9bf006f
:10490000e14f500015003a0059c9bf000004e00013
:1049100012003a001000200070518800b04880005a
:10492000450007007041800043f2070020408000ee
:104930006cf207000040eb005fe8b7000000eb00fe
:10494000300c88000040eb0057e9b70010c0b300fe
:1049500059e9b700720aa8003500370041932000da
:104960009140780020c5b30080cf500030003a005d
:1049700058c9bf00e14f50002d003a0059c9bf008f
:10498000e14f50002a003a00722aa90020002000be
:10499000705188000000eb00270007000000eb00ca
:1049a000300c88000040eb0057e9b700720aa800fd
:1049b0001f003700cba2a900d722a900ca82a900f4
:1049c000cb02a9000000eb001b0007000000eb0079
:1049d000300c88003000200070518800720aa80056
:1049e00013003700cba2a900d722a900ca82a900d0
:1049f000cb02a9000040eb0056e9b7000040eb00f5
:104a000058e9b7000040eb0059e9b7000000eb009f
:104a1000090007000000eb00300c88000040eb00ac
:104a20005ae9b7000000eb0070518800720aa90033
:104a30000080fa00000006000a00fa00881f7800d3
:104a4000000f7800204080009e0f100022003900e7
:104a5000204080001e0410006140b90038ee0700bd
:104a600030079800410798000800e00007003d006b
:104a700002002000037824003e009000ce00900049
:104a80005bee07003007980041079800d2a3200092
:104a9000730a24003e009000ce009000b3ee0700a1
:104aa000d2cc2400932c240051ee070046ef0700df
:104ab0003046880031468000b0b72000808f50001b
:104ac00002003600c0b72000304688003046800023
:104ad000000c88002a0037002040800080407800c9
:104ae0001e00780000c050008ae9b7001e00780060
:104af000804078008ac9bf0000c050008be9b70031
:104b00008bc9bf000080fb001e0410006140b9008b
:104b10000bee070010079800210798000800e0003e
:104b200007003d0002002000037824001e009000d2
:104b3000ae0090002eee07001007980021079800a5
:104b4000d2a32000730a24001e009000ae00900043
:104b500086ee0700d2cc2400932c240024ee07001c
:104b600019ef07003046880031468000b0b72000ba
:104b7000808f500002003600c0b720003046880009
:104b80004f0478000080fa00000006000600fa00da
:104b9000000f78001e007800cf80de00e8ed0700ef
:104ba00010079800210798001e00e00007003d0054
:104bb00002002000037824001e009000ae00900048
:104bc0000bee07001007980021079800d2a32000e1
:104bd000730024001e009000ae00900063ee0700fa
:104be000f9ee0700804488000080fa00000006000b
:104bf0000200fa00889fbe008a9fbe0080468000a7
:104c000001002000e0558800f155880080448000b4
:104c100001002000005688001156880002568000ce
:104c200013568000e0558000f155800000005100cf
:104c3000818059006055880071558800605580005a
:104c400071558000000f78001e0078000000e00021
:104c500003003d001e0178000201ea00020f780007
:104c60001e0178006110b900a0568800b156880076
:104c70000000200001002400e0548800f154880066
:104c80000000200001f8230000558800115588001d
:104c90000000200001f823002055880031558800cd
:104ca0000071220001002000c0558800d155880005
:104cb00040002000c04d8800625580007355800080
:104cc00060568000715680000000510081805900bc
:104cd000405688005156880060558000715580000c
:104ce00097ed07000200200003f02300d1ee07003b
:104cf0000000e00009003c00605580007155800014
:104d00008fed07000200200003f02b0015ee0700d6
:104d10000000e000010035003e00370080558000b3
:104d20009155800086ed07000005be00e854800024
:104d3000f9548000605580007155800080ed0700b7
:104d40000001be000800be0008ee07000001be0022
:104d50000a00be00a6ed07000005be000855800051
:104d600019558000605680007156800074ed070070
:104d70000001be000800be00fced07000001be00ff
:104d80000a00be009aed07000005be00285580000d
:104d900039558000805680009156800068ed0700ec
:104da0000001be000800be00f0ed07000001be00db
:104db0000a00be008eed070020ee07008055880037
:104dc000915588008055800091558000e00f50007b
:104dd000e08f580004003c006000b8008055880057
:104de000915588000b003700825580009355800054
:104df000c0558000d1558000800f5100818f59002f
:104e000004003400c0558000d155800080558800d2
:104e10009155880060568000715680008056880049
:104e2000915688006055800071558000605688005a
:104e3000715688008455800095558000c04d8000d3
:104e40006101b8000400be007cee0700b04d880090
:104e5000b04d8000f0488800f0488000300c880099
:104e60004f05be004f04be000080fa00000006009f
:104e70000000fa00889fbe00e0012000904c8800ee
:104e8000a0002000a04c88000000eb00b04c88007f
:104e9000c0488000a052880020408000b0528800a6
:104ea000a1528000b052800000805000c0528800a3
:104eb000914c8000c05280000088b900cf80de0095
:104ec000204d8800314d8800c05280006101b9003a
:104ed000004d8000114d800002004000838048009a
:104ee000004d8800114d8800024d8000134d800058
:104ef000c04c8000d14c8000800f5100818f590040
:104f000005003500c04c8000d14c8000004d880069
:104f1000114d88000b003700024d8000134d8000ba
:104f2000e04c8000f14c8000800f5100818f5900cf
:104f300004003c00e04c8000f14c8000004d8800f3
:104f4000114d8800a04c80006103b900024d800023
:104f5000134d80000234b80003b0b9000902780094
:104f6000000242000790b900000242008404780069
:104f7000484d8800594d8800c1528000d0528000b1
:104f800080805000b04c80000088b900cf80de00e7
:104f9000604d8800714d8800c0528000d05288005a
:104fa000224d8000334d8000404d8000514d8000e7
:104fb0000201400083814800604d8000714d8000f7
:104fc0000200400083804800e0528800f1528800cf
:104fd000e2528000f3528000c04c8000d14c80002f
:104fe000800f5100818f590005003500c04c8000b2
:104ff000d14c8000e0528800f15288000b0037004d
:10500000e2528000f3528000e04c8000f14c8000be
:10501000800f5100818f590004003c00e04c80005b
:10502000f14c8000e0528800f1528800e05280008c
:10503000f1528000824d8000820178008301e900f6
:10504000030033008180d1000080d300fbff3700d4
:10505000904d88004f04be000080fa00000006005a
:105060000a00fa00400798004e0090006101b80065
:1050700000c02f00f107200002004000838048009c
:1050800020079800310798000080eb001007980077
:1050900032c0bf000080fb00000f78002e0090009f
:1050a000be0090004008de000100200032e0b700a2
:1050b0002e009000be0090001000ba00100798006b
:1050c0001e00780032e0b7001e0090000080fa0059
:1050d000000006001000fa004007980051079800f1
:1050e0000000eb00300798004e0090006101b8000e
:1050f00000c02f00f107200002004000838048001c
:10510000100798002107980032c0bf000080fb0004
:10511000000f780061c7bf000042b2000004e00049
:1051200049003a001e009000ae0090004008de00ea
:10513000010020000074a10064e7b7001e00900089
:10514000103b880061c7a8000176200091407800dc
:1051500000c8b30000c0600041c4b300014070004b
:1051600060e7b70050052000303b8800a00a20000f
:10517000303b880061e7a80000000000000000004c
:105180006007980061c7bf0001c8b300014060001c
:105190000004e000fbff3a004e009000b0ff070063
:1051a000e10f400026003a001e009000ae00900083
:1051b0004008de000100200032e0b7001e00900031
:1051c000ae0090005e0190000208bb0061c7a8001d
:1051d000017620009140780000c8b30000c0600054
:1051e0000024a00060e7b70050052000303b880095
:1051f000a00a2000303b880061e7a8000000000002
:10520000000000007007980061c7bf0001c8b3002c
:10521000014060000004e000fbff3a004e009000f7
:105220008fff0700800078005e009000808f5000a4
:1052300005003200100020003007980002003700ff
:1052400020002000300798001e00780032e0b700f0
:105250003e0090000080fa00000006000000fa0006
:1052600030000700b00107009e0007000040eb007f
:1052700067eab700cc22a90010042000de00070076
:105280000000370065cabf00e14f500005003a003a
:1052900066cabf000080fb00d70007000040eb009b
:1052a00065eab7002ccabf00e14f500002003a0087
:1052b000e5f90700f3ff37002ccabf00e24f5000aa
:1052c000f0ff3a00b3fb07004ac8bf00e14f5000af
:1052d00003003a00a60207000040eb004ae8b700ce
:1052e000419320009140780000c5b30080cf50006a
:1052f0000300320056c9bf00e14f500004003a00dd
:105300000000eb009044880082fc0700ddff3700be
:105310003bc9bf000004e000daff32004002070092
:10532000d8ff37000000fa000080eb00401588002d
:105330000a000700beed070017000700280007005d
:1053400013f00700380007009a000700d722a900d1
:105350005f0207000080fa00000006000000fa006b
:10536000c682a900c702a900d322a900e442a9006d
:10537000e462a900e422a800e4c2a900e502a900b1
:10538000e522a900e902a900e8c2a900e922a900d2
:105390000080fa00000006000000fa000000eb00a8
:1053a000200888000000eb000008880090322700e9
:1053b00010088800e109200091407800f0c8b3008f
:1053c00000c060000044a0009ee0b7008460a90017
:1053d0008c60a80005e1a8000080fa00000006002b
:1053e0000000fa000000eb00f00888000000eb006d
:1053f000a00888000080eb00d0088800e1092000a8
:1054000091407800f0c8b30000c060000044a000e4
:105410009ee0b70086a0a9008ea0a8001fe1a8000a
:105420000080fa00000006000000fa000000eb0017
:10543000200c88000000eb00000c88000000eb004e
:10544000100c8800411820009140780080cfb300f4
:1054500000c060006040b30084e1b7000000eb00d2
:10546000500c88000000eb00300c88000000eb00be
:10547000400c8800a11820009140780080cfb30034
:1054800000c060006040b3008ae1b70050b820005f
:1054900060088800710920009140780080cfb30037
:1054a00000c060000014a00097e0b70084c0a9000d
:1054b0008cc0a8000111200091407800f0ccb3000e
:1054c00000c0600010e1b70011e1a8000000eb008f
:1054d000000c88000000eb00300c88000080fa000f
:1054e000000006000000fa000080eb004015880074
:1054f000007f2b00401588000000eb00501588004d
:10550000f080240050158800112a20009140780076
:10551000c0cfb30000c06000a1e2b700012a2000a4
:105520009140780000ceb30000c07000a0e2b70048
:10553000a3c2bf007f406000a3e2b700a342a8005f
:10554000212a20009140780030ccb30000c06000d8
:105550004041b300a2e2b700a222a900a202a90022
:10556000512a20009140780000ceb30000c06000b6
:105570000004a000a5e2b700a4e2a900412a20008f
:105580009140780000ccb30000c060003041b3000f
:10559000a4e2b700a682a9008560a9008d60a800da
:1055a000a1a2a900a1e2a800a042a8000080fa00e0
:1055b000000006000000fa00e00b2000a0108800a8
:1055c00000802800601088008520a9000f42a800f4
:1055d000e00b2000f010880000802800b010880048
:1055e0008700a9008f20a8001942a8008f00a800fa
:1055f0000080fa00000006000200fa00004f780068
:105600000fc2bf00624060000004e000fcff3a00ef
:105610001e80fb00801088000080fa000000060059
:105620000200fa00004f780019c2bf00624060001b
:105630000004e000fcff3a001e80fb00d010880050
:105640000080fa00000006000000fa00b14080006f
:10565000d0562000808f500019003600b1408000e5
:1056600080702000808f500015003e0050c4b300b1
:10567000c9e9b70020c5b300cae9b70020c5b30027
:10568000cbe9b700b0c5b300cce9b70000c3b300a5
:10569000cde9b70000c3b300cee9b70000c3b30043
:1056a000cfe9b70020c3b300d0e9b70090c5b3007d
:1056b000b4e8b70010c0b300b2e8b70098003700f4
:1056c000b1408000108a2000808f50001900360001
:1056d000b1408000c0a32000808f500015003e0024
:1056e00050c4b300c9e9b70020c5b300cae9b70088
:1056f00020c5b300cbe9b700b0c5b300cce9b70013
:1057000000c3b300cde9b70000c3b300cee9b700d2
:1057100000c3b300cfe9b70030c3b300d0e9b7008e
:1057200090c5b300b4e8b70010c0b300b2e8b7004a
:105730007b003700b140800090232000808f500014
:1057400019003600b1408000403d2000808f50009d
:1057500015003e0050c4b300c9e9b70020c5b3002e
:10576000cae9b70020c5b300cbe9b700b0c5b300a4
:10577000cce9b70000c3b300cde9b70000c3b30064
:10578000cee9b70000c3b300cfe9b70010c3b30040
:10579000d0e9b70090c5b300b4e8b70010c0b300bb
:1057a000b2e8b7005e0037006193200091407800b6
:1057b00050c4b30080cf500004003a00214980005b
:1057c00070022000808f500003003e005ac9bf00c5
:1057d000e14f500017003a0050c4b300c9e9b700c8
:1057e00020c5b300cae9b70020c5b300cbe9b700b4
:1057f000b0c5b300cce9b70000c3b300cde9b70032
:1058000000c3b300cee9b70000c3b300cfe9b700cf
:1058100050c3b300d0e9b70010c0b3005ae9b700d5
:1058200090c5b300b4e8b70010c0b300b2e8b70049
:105830003b00370001408000f07c2000808f50004a
:105840000a0036005cc9bf00e14f500007003a0073
:1058500090c5b300b4e8b70010c0b300b2e8b70019
:1058600010c0b300b7e8b7002d00370066c9bf000d
:10587000e14f50001a003a0062c9bf000004e00086
:1058800017003a0050c4b300c9e9b70020c5b300ff
:10589000cae9b70020c5b300cbe9b700b0c5b30073
:1058a000cce9b70000c3b300cde9b70000c3b30033
:1058b000cee9b70010c3b300cfe9b70000c3b3000f
:1058c000d0e9b70090c5b300b4e8b70010c0b3008a
:1058d000b2e8b70010c0b30067e9b70010003700a6
:1058e000b7c8bf000004e0000d003a000040eb0024
:1058f000b2e8b700418b20009140780090c5b3001a
:1059000080cf500004003a0010c0b3009fe8b700f9
:105910001000200050448800e0c4b300b4e8b70091
:105920000080fa00000006000000fa00c0c5b300c5
:10593000c9e9b700c0c5b300cae9b700c0c5b30024
:10594000cbe9b700c0c5b300cce9b700c0c5b30010
:10595000cde9b700c0c5b300cee9b700c0c5b300fc
:10596000cfe9b700c0c5b300d0e9b70010002000f0
:1059700060448800803e20002c00070010c4b30063
:10598000c9e9b70040c4b300cae9b700f0c4b30026
:10599000cbe9b70020c5b300cce9b70070c5b300b0
:1059a000cde9b70050c4b300cee9b700c0c4b3001e
:1059b000cfe9b70040c4b300d0e9b70080b52100fb
:1059c0001a00070020c5b300c9e9b70050c4b300ee
:1059d000cae9b70060c5b300cbe9b700e0c4b300c3
:1059e000cce9b70000c3b300cde9b70000c3b300f2
:1059f000cee9b70000c3b300cfe9b70040c3b3009e
:105a0000d0e9b70010c0b3002aeab7000000eb00ed
:105a10006044880080b52100040007000040eb00ce
:105a20002aeab7000080fa00000006000600fa002b
:105a3000200798000000eb00100798000000eb0022
:105a4000000f78000a0037000000eb00000f78001c
:105a5000010037001e0fe800702520009e0f100087
:105a6000fcff36001e0090000000e80010079800c0
:105a70009e0090002e009000808f5000f2ff3900b1
:105a80000080fa00000006000200fa000040eb006f
:105a9000004f7800e0c2bf000044b2000004e00004
:105aa00011003a000000eb00204688000300370098
:105ab000204680000000e800204688002146800043
:105ac000703e2000808f5000f9ff3600e0c2bf001a
:105ad0000044b2000004e00005003a0090c5b300a5
:105ae000004f78000200370080c5b300004f7800f7
:105af0001e80fb000080fa00000006000200fa0091
:105b00000040eb00004f7800e0c2bf000044b2004c
:105b10000004e00011003a000000eb00204688007d
:105b200003003700204680000000e800204688007f
:105b300021468000703e2000808f5000f9ff360023
:105b4000e0c2bf000044b2000004e00005003a00db
:105b500090c5b300004f78000200370080c5b30045
:105b6000004f78001e80fb000080fa000000060055
:105b70000000fa00c722a800c742a800c782a800f8
:105b8000cda2a800cdc2a80039c9bf000004e00022
:105b90001c003a00c9c2bf000080fb000000d10019
:105ba00061406000c8e9b700c9c2bf000080fb00c7
:105bb0004200de0061406000c6e9b700c9c2bf0014
:105bc0000080fb004400de0061406000c4e9b700d3
:105bd000cfc2bf000080fb004500de0061406000d6
:105be000c2e9b700cfc2bf000080fb004600de0064
:105bf00061406000c0e9b70010c0b30039e9b700e8
:105c00000500370039c9bf00e14f500002003a00db
:105c10000040eb0039e9b7000080fa000000060000
:105c20000000fa003bc9bf00e14f50001b003a00e2
:105c3000160037000040eb0067eab700cba2a800cf
:105c4000d722a800ca82a800cb02a90070c4b30062
:105c5000c9e9b70010c4b300cae9b70030c5b30042
:105c6000cbe9b700f0c2b300cce9b700f0c4b30091
:105c7000cde9b70030c4b300cee9b70060c5b300ca
:105c8000cfe9b700f0c2b300d0e9b7003bc9bf000d
:105c9000e14f5000e7ff32000b0037003bc9bf0067
:105ca000e24f500008003a00cba2a900d722a90079
:105cb000ca82a900cb02a90010c0b3009fe8b700b8
:105cc0000040eb003be9b7000080fa00000006004e
