:020000040000fa
:080000000001040000000000f3
:020000040000fa
:100200000f00220080792200000188000000000019
:10021000050007000c000700945e020000000000cb
:100220000040da000000fe004440a900c0372e0064
:100230000000e0000300320020002000a001880040
:100240004440a80000000600c0612e00010020000c
:100250001600370062004000e080480091018800ed
:100260009001ba0062004000e080480091018800df
:100270009002ba0062004000e08048000002eb00fb
:100280006028e10005003a008301e900070033001f
:10029000038009000059eb00040037006128e100e9
:1002a000010032000082eb00050007009101880088
:1002b0001001ba000200e000e6ff3a00000005006d
:1002c000910188008002780062004000e0804800d0
:1002d0003559ba008301e900080032002559ba00f7
:1002e0008301e900050032000400e000f4ff320061
:1002f00015d9ba008301e900f1ff3a0000000600b9
:10030000889fbe008a9fbe00010578000100e000c2
:100310000400350008003c000000e000200032002e
:100320000500370060001000e080180002003b006c
:1003300001f02c001a0037000004be006011b80064
:100340006b0920000982cf00020039000882cf002b
:100350000441b000694252000e00320008003b0028
:1003600082817100610164008904d1000884d30096
:100370008b05e8000442e800f9ff3a000500370069
:100380000804440089844c008b05e9000442e9001c
:10039000fbff3a00c20007000af0a70001f0a0002e
:1003a0004f05be004f04be000000060003f0a2008f
:1003b000889fbe008a9fbe008c1f7800de00070069
:1003c000e50033006450e1004f0032006420e1009a
:1003d0005200320003826c0007003b000905d00088
:1003e0000306d000820f54000c065d0002003900a5
:1003f00002003200890178000306780085825500ea
:1004000004003d000003fd008103fd008502ea00b9
:100410008b854200840f720002003b0060001000d8
:10042000e08018006011b8000005eb007a28e100b8
:100430000a00390006007800c75ddd00f707b2004a
:10044000878075002d003700828171000a017800d5
:10045000610560008180d1000080d3008502e90041
:10046000f9ff3b00060440008784480002003b007f
:1004700060041400e0841c000988a3000700320017
:100480008a81710082817100610164008904d10058
:100490000884d3008b05e800170037000978a30013
:1004a00013003a000b00e000130034008b05e90054
:1004b0000804440089844c000a4474000978a300ad
:1004c0000d003a000b00e000070034008b05e90046
:1004d0000804440089844c0001003a000b0020000d
:1004e0000978a300f7ff32000001eb00020037009b
:1004f000828171000a017800690007000cf0a700f2
:1005000001f0a0009d0037006420e10002003a00e5
:10051000838f6c009d0033000801be000200be0006
:1005200096003700889fbe008a9fbe008c1f78000f
:10053000810007008800330003866c006450e100ee
:10054000240032006420e100270032006150e10005
:10055000220032006120e100210032008b85420040
:10056000eb07b1000134b800003ab80008044200bb
:1005700089844a00013ab8000030b8008880400001
:1005800009014a0004003300000040008180480057
:10059000020149008b05e900c909dd0083017000f3
:1005a0000100320013002000c814de004814dd00f2
:1005b0004709de001200b200c808de00088470009f
:1005c0003700070001f0a1000cf0a70001f0a00027
:1005d0006a0037006120e1006c0032000801be00b3
:1005e0000200be00f7ff37006150e100fcff3a0057
:1005f000660037000001be00670007000470a70016
:1006000003f0a10003f8a30013003a006509b1004c
:1006100010003200090035006928e10002003500b1
:100620000100280000000500000040008180480013
:100630008502e900fcff3a0000000600f88f420046
:10064000050035008100d1000080d3008502e8005c
:10065000fcff3a00000006008000eb0000000500ef
:100660006022b800060220000000d0008180d20085
:100670000482d2008582d2000000a0000202520053
:1006800083825a0003003b000202420083824a0038
:100690000000a1000603e900f3ff3a000000060095
:1006a00081002000618055000b003d000b00200000
:1006b00061fe2f000100e1001d0034008281710005
:1006c000610164008904d1000884d3000000e800bf
:1006d000faff3a007100200061006400030070001e
:1006e000020060000900320061044400e0844c0014
:1006f0000988a500050032008b05e8006808e100c4
:1007000002003a008904d1000884d300f20f2000cf
:100710000258e10005003d00c75ddd00f907b200a9
:100720008980750008007800000006000bf827009b
:100730008b007800000005000004be0016000700d2
:100740000003be000405be000200be001200070048
:10075000844f7500000006000200be006450e100f6
:10076000050036006420e100020036000968a3009d
:1007700001003a000800be000160a0004f067800aa
:100780004f05be004f04be0000000600f0ff2f0022
:10079000f1ff2700f9ff3700c70ade00f107b200ba
:1007a000f50fb20008003200e1cf42000200320033
:1007b0000170a00024000500810f700001003200cc
:1007c0000408050044000500810f700002003a0093
:1007d000140005008502e9000000400081c04800c7
:1007e000fcff3b000170a00024000500881f78007a
:1007f0008a1f78004400f800080f200028028800b3
:100800000004900010059000a000900030019000be
:10081000c00190000300ca000280ca000030cb0073
:100820001a00cd004604c3000100ca004604c000ff
:100830001e04c0000605c0000100cd002100980084
:10084000050d7800eaba9700052578004400f90004
:100850004f0578004f04780000000600801f7800e4
:10086000200090000008eb004f007800801f780007
:10087000100090000018eb000018eb000008eb00df
:100880004f007800000006004400f800020f20002e
:1008900022028800910078003000ca003080ca002f
:1008a0000000cb002080ca000000cb003100cd004a
:1008b0004000ca000000cb000000cb000010cb00bd
:1008c0003100cd001180cc004400f900000006008a
:1008d0000400fa0010079800f06b8000e26b8000c3
:1008e000036c8000648e28006500b900020040009f
:1008f00000004000000040000300400060407a001b
:100900000080fb00000f78001e007800faf3b700ab
:100910001e0078001e019000639328007b00b90040
:100920000200400000004000608f79001e00780047
:100930000080fa00000006000400fa00100798008a
:10094000f06b8000e26b8000036c8000648e2800f6
:100950006500b900020040000000400000004000b7
:100960000300400060407a000080fb00000f780028
:100970001e0078001e01900023de29007b00b900d4
:100980000200400000004000608f79001e007800e7
:100990000080fa00000006000200fa00b36b80003d
:1009a000c06b8000d46b800085832a006500b9008d
:1009b000000178007418b9000000410004004000f4
:1009c00060c07a000080fb00000f78001e007800f5
:1009d000faf3b7001e00780041872a0000004000ab
:1009e000608f78001e0078000080fa00000006008a
:1009f0000200fa000000eb00000f7800106c80008d
:100a0000226c8000336c8000e48e2a006600b900fe
:100a100002004000000040000000400003004000d1
:100a200060407a000080fb00000f78001e00780014
:100a3000faf3b7001e007800e1912a0000004000a0
:100a4000608f7800fad3bf00f84f500018003e00c6
:100a5000400620009e0f100003003e0000c1b300be
:100a6000fbf3b70032003700400620009e0f100055
:100a700006003600800c20009e0f100003003e0090
:100a800080c1b300fbf3b70029003700800c2000c1
:100a90009e0f100026003600d01520009e0f10007b
:100aa00023003e0000c2b300fbf3b7002000370074
:100ab000600920009e0f100003003e0000c1b3003b
:100ac000fbf3b7001a003700600920009e0f1000ea
:100ad00006003600800c20009e0f100003003e0030
:100ae00080c1b300fbf3b70011003700800c200079
:100af0009e0f100006003600a00f20009e0f100071
:100b000003003e0000c2b300fbf3b700080037004b
:100b1000a00f20009e0f10000500360000192000d5
:100b20009e0f100002003e0000c3b300fbf3b700ad
:100b30001e0078000080fa00000006000400fa00a1
:100b400010079800506c8000426c8000636c80003d
:100b500024982a006c00b900020040000000400008
:100b6000000040000300400060407a000080fb006d
:100b7000000f78001e007800faf3b7001e0078001e
:100b80001e01900023bd2a007b00b9000200400036
:100b900000004000608f79001e0078000080fa009d
:100ba000000006000400fa0010079800506c800056
:100bb000426c8000636c800024982a006c00b900ad
:100bc0000200400000004000000040000300400020
:100bd00060407a000080fb00000f78001e00780063
:100be0000080fa00000006000400fa0010079800d8
:100bf000506c8000426c8000636c800024982a0056
:100c00006c00b900020040000000400000004000fd
:100c10000300400060407a000080fb00000f780075
:100c20001e0078001e019000e3652b007b00b900d8
:100c30000200400060c079000080fb00000f7800d7
:100c40001e0078000080fa00000006000400fa0090
:100c500010079800506c8000426c8000636c80002c
:100c600024982a006c00b9000200400000004000f7
:100c7000000040000300400060407a000080fb005c
:100c8000000f78001e0078001e01900043ba2b0070
:100c90007b00b9000200400000004000608f790036
:100ca0001e0078000080fa00000006000600fa002e
:100cb00040479800210521009140780070c4b3009e
:100cc00080cf50007c003a004e4090008080fb00b6
:100cd000400220000088b900400ab000cf80de004a
:100ce000008fbe00f06b800090458800006c800093
:100cf000a0458800e06b800080458800904580001a
:100d0000674060006741600041a420009140780086
:100d100080cfb30000c060000240700044eab7001a
:100d2000a0458000634060006340600000404000d8
:100d3000004040000041400041a420009140780064
:100d400070ceb30000c060000240700044eab700fb
:100d5000e04680006140600061406000004040006b
:100d60000040400000404000004040000041400082
:100d700041a4200091407800f0cdb30000c0600095
:100d80000240700044eab7007cc8bf000080fb004e
:100d90004400de00614060006140600000404000af
:100da0000040400000404000004040000040400043
:100db0000041400041a4200091407800f0cbb300f6
:100dc00000c060000240700044eab70052d0bf008b
:100dd0008080fb001e007800b203070044cabf00f9
:100de0008080fb001e0078000080e800ad03070053
:100df000f14480001e00780064004000a903070051
:100e0000014580001e00780066004000a503070031
:100e1000114580001e00780068004000a103070013
:100e2000214580001e0078006a0040009d030700f5
:100e3000314580001e0078006c00400099030700d7
:100e4000414580001e0078006e00400095030700b9
:100e5000514580001e00780070004000910307009b
:100e6000814580001e007800720040008d0307005d
:100e7000714580001e00780074004000890307005f
:100e8000b14580001e007800760040008503070011
:100e9000214780001e007800780040008103070091
:100ea0005ed5bf008080fb001e0078000002b0000d
:100eb0007c0307008e003700210521009140780057
:100ec00000c5b30080cf500089003a004e4090002a
:100ed0008080fb00400220000088b900400ab0007a
:100ee000cf80de00008fbe00c0a08000e0458800fb
:100ef000506c800070468800606c800080468800de
:100f0000406c80006046880070468000674060004a
:100f10006741600051a420009140780080cfb30069
:100f200000c060000240700045eab70080468000c3
:100f300063406000634060000040400000404000ab
:100f40000041400051a420009140780070ceb300d1
:100f500000c060000240700045eab700e046800033
:100f6000614060006140600000404000004040007f
:100f700000404000004040000041400051a42000db
:100f800091407800f0cdb30000c0600002407000d6
:100f900045eab7007cc8bf000080fb004400de00cb
:100fa000614060006140600000404000004040003f
:100fb0000040400000404000004040000041400030
:100fc00051a4200091407800f0cbb30000c0600035
:100fd0000240700045eab70052d0bf008080fb009d
:100fe0001e0078002f03070045cabf008080fb0069
:100ff0001e0078000080e8002a030700c145800039
:101000001e0078006400400026030700d1458000e0
:101010001e0078006600400022030700e1458000c2
:101020001e007800680040001e0307002145800074
:101030001e0078006a0040001a0307000146800085
:101040001e0078006c004000160307001146800067
:101050001e0078006e004000120307002146800049
:101060001e007800700040000e03070061468000fb
:101070001e007800720040000a03070051468000fd
:101080001e007800740040000603070041468000ff
:101090001e00780076004000020307003147800000
:1010a0001e00780078004000fe020700f146800034
:1010b0001e0078007a004000fa0207000147800015
:1010c0001e0078007c004000f602070011478000f7
:1010d0001e0078007e004000f20207005ed5bf00cf
:1010e0008080fb001e0078000002b000ed020700c7
:1010f0004e4090008080fb001e0078002002b0006f
:10110000e80207000080fa00000006000400fa0070
:10111000881f7800204798002e4090008080fb00b8
:10112000400220000088b900400ab000000f78009b
:101130002e4090000084fb00210220001e80400011
:1011400001002000b7020700800f54007b013a0025
:10115000e0c4b30052f0b7001e0078000100200088
:10116000b002070052f0b70052d0bf009aebb700b0
:10117000210521009140780040c5b30080cf500088
:101180000c003a000040eb007be8b7007b28a80089
:101190007ba8a8000040eb007ce8b7007c28a800f2
:1011a0000040eb007de8b7000040eb007ee8b700b0
:1011b00034003700210521009140780070c4b3004d
:1011c00080cf50000d003a000040eb007be8b700f4
:1011d0007b08a8007ba8a8000040eb007ce8b700d3
:1011e0007c48a8007c88a8000040eb007de8b700a0
:1011f0000040eb007ee8b700220037002105210007
:101200009140780000c5b30080cf50000d003a0037
:101210000040eb007be8b7007b08a8007ba8a80093
:101220000040eb007ce8b7007c68a8007c88a80040
:101230000040eb007de8b7000040eb007ee8b7001f
:10124000100037002105210091407800d0c4b30080
:1012500080cf50000b003a000040eb007be8b70065
:101260007b28a8007b88a8000040eb007ce8b70042
:101270007c08a8000040eb007de8b7000040eb00d0
:101280007ee8b7000040eb0024f4b7000040eb001c
:1012900025f4b7000040eb007ae8b70021052100f3
:1012a0009140780070c4b30080cf500085003a00b0
:1012b0001e80e800010020005a02070044eab7003f
:1012c0009e00780064804000010020005502070065
:1012d000f04488009e0078006680400001002000f5
:1012e00050020700004588009e007800688040009a
:1012f000010020004b020700104588009e00780086
:101300006a80400001002000460207002045880056
:101310009e0078006c804000010020004102070020
:10132000304588009e0078006e804000010020005b
:101330003c020700404588009e0078007080400015
:101340000100200037020700504588009e00780009
:1013500072804000010020003202070080458800b2
:101360009e00780074804000010020002d020700dc
:10137000704588009e0078007680400001002000c3
:1013800028020700b04588009e0078007880400061
:1013900001002000230207002047880001022000ee
:1013a0001e804000010020001e0207005ef5b7000d
:1013b00044cabf00674060000080fb009045880081
:1013c00044cabf000080fb004300de0063406000b1
:1013d0000080fb00a045880044cabf000080fb00dd
:1013e0004500de00614060000080fb00e0468800b0
:1013f00044cabf000080fb004600de006140600080
:101400006141600031a4200091407800e0cfb3003a
:1014100000c060000240700043eab70044cabf0049
:101420000080fb004600de0061406000614060001b
:1014300000404000004040000040400000414000ab
:10144000c187200091407800f0ceb30000c060005a
:10145000024070007ce8b7007cc8bf000080fb0041
:101460004400de00614060000004a20061406000b2
:1014700061406000004040000040400000404000eb
:101480000040400000414000c187200091407800aa
:10149000f0cdb30000c06000024070007ce8b700ef
:1014a000a0458000006c880090458000f06b8800ab
:1014b00080458000e06b880050458000d093880014
:1014c0009c003700210521009140780000c5b30041
:1014d00080cf500097003a001e80e80001002000f5
:1014e000d001070045eab7009e0078006480400004
:1014f00001002000cb010700c04588009e00780055
:101500006680400001002000c6010700d045880029
:101510009e0078006880400001002000c1010700a3
:10152000e04588009e0078006a80400001002000ad
:10153000bc010700f04588009e0078006c804000e8
:1015400001002000b7010700004688009e007800d7
:101550006e80400001002000b201070010468800a4
:101560009e0078007080400001002000ad0107005f
:10157000204688009e007800728040000100200014
:10158000a8010700604688009e0078007480400033
:1015900001002000a3010700504688009e0078004b
:1015a00076804000010020009e0107004046880030
:1015b0009e0078007880400001002000990107001b
:1015c000304788009e0078007a80400001002000ab
:1015d00094010700f04688009e0078007c8040005f
:1015e000010020008f010700004788009e0078005e
:1015f0007e804000010020008a010700104788001b
:10160000010220001e80400001002000850107002b
:101610005ef5b70045cabf00674060000080fb0070
:101620007046880045cabf000080fb004300de0012
:10163000634060000080fb008046880045cabf0010
:101640000080fb004500de00614060000080fb0080
:10165000e046880045cabf000080fb004600de006f
:10166000614060006141600031a420009140780039
:10167000e0cfb30000c060000240700043eab70052
:1016800045cabf000080fb004600de0061406000ec
:1016900061406000004040000040400000404000c9
:1016a00000414000c187200091407800f0ceb30097
:1016b00000c06000024070007ce8b7007cc8bf003a
:1016c0000080fb004400de00614060000004a200d6
:1016d0006140600061406000004040000040400008
:1016e000004040000040400000414000c187200011
:1016f00091407800f0cdb30000c06000024070005f
:101700007ce8b70080468000606c880070468000ee
:10171000506c880060468000406c88002046800045
:10172000c09488000000eb00d0948800e045800061
:10173000c0a08800c505070010003700f51307009a
:1017400042b32c008040eb0030c0b3002e150700e0
:101750000000eb00c0828800040037005f30070003
:10176000c08280000000e800c0828800c182800042
:1017700070382100808f5000f8ff36004f04780049
:101780000080fa00000006000600fa00100798002a
:10179000210798000080eb00000f7800a142210093
:1017a0009140780080c5b30080cf50000e003a0011
:1017b0000000eb00f0a288001e019000ae01900036
:1017c00000002f00f1072000020040008380480045
:1017d00000a3880011a3880032c0bf000080fb0076
:1017e00020a388004b003700a142210091407800df
:1017f000d0c4b30080cf50000e003a000000eb00d0
:10180000f0a288001e019000ae01900000012f00a0
:10181000f1072000020040008380480000a38800f8
:1018200011a3880032c0bf000080fb0020a3880005
:1018300038003700a14221009140780040c5b30034
:1018400080cf50000e003a000000eb00f0a28800ac
:101850001e019000ae019000000c2f00f107200047
:10186000020040008380480000a3880011a3880084
:1018700032c0bf000080fb0020a388002500370095
:10188000a14221009140780070c4b30080cf500085
:101890000e003a000000eb00f0a288001e0190004c
:1018a000ae01900000002f00f10720000200400070
:1018b0008380480000a3880011a3880032c0bf00c5
:1018c0000080fb0020a3880012003700a142210005
:1018d0009140780000c5b30080cf50000d003a0061
:1018e0000000eb00f0a288001e019000ae01900005
:1018f000002d2f00f10720000200400083804800e7
:1019000000a3880011a3880032c0bf000080fb0044
:1019100020a3880000a3800011a380004008de00ff
:101920000100200032e0b70000a3800011a3800076
:101930001000ba00000f780020a3800032e0b7004a
:101940001e0078000080fa00000006000800fa007f
:10195000000f780011079800a14221009140780003
:1019600080c5b30080cf50000e003a000000eb00ad
:10197000f0a288001e0078006101b80000002f006e
:10198000f1072000020040008380480000a3880087
:1019900011a3880032c0bf000080fb0020a3880094
:1019a0004b003700a142210091407800d0c4b30021
:1019b00080cf50000e003a000000eb00f0a288003b
:1019c0001e0078006101b80000012f00f10720001f
:1019d000020040008380480000a3880011a3880013
:1019e00032c0bf000080fb0020a388003800370011
:1019f000a14221009140780040c5b30080cf500043
:101a00000e003a000000eb00f0a288001e007800f3
:101a10006101b800000c2f00f10720000200400017
:101a20008380480000a3880011a3880032c0bf0053
:101a30000080fb0020a3880025003700a142210080
:101a40009140780070c4b30080cf50000e003a007f
:101a50000000eb00f0a288001e0078006101b800d1
:101a600000002f00f10720000200400083804800a2
:101a700000a3880011a3880032c0bf000080fb00d3
:101a800020a3880012003700a14221009140780075
:101a900000c5b30080cf50000d003a000000eb00fd
:101aa000f0a288001e0078006101b800002d2f0010
:101ab000f1072000020040008380480000a3880056
:101ac00011a3880032c0bf000080fb0020a3880063
:101ad00061c7bf000042b2000004e0004c003a00c1
:101ae00000a3800011a380004008de000100200058
:101af0000074a10064e7b70000a3800011a3800078
:101b0000103b880061c7a800017620009140780052
:101b100000c8b30000c0600041c4b30001407000c1
:101b200060e7b70050052000303b8800a00a200085
:101b3000303b880061e7a8000000000000000000c2
:101b40002007980061c7bf0001c8b30001406000d2
:101b50000004e000fbff3a001e00780001002000b6
:101b600009ff0700e10f400027003a0000a38000b2
:101b700011a380004008de000100200032e0b70021
:101b800000a3800011a380001e0190000208bb008a
:101b900061c7a800017620009140780000c8b3001a
:101ba00000c060000024a00060e7b70050052000de
:101bb000303b8800a00a2000303b880061e7a80085
:101bc00000000000000000003007980061c7bf005f
:101bd00001c8b300014060000004e000fbff3a00d0
:101be0001e00780001002000e7fe0700800078005a
:101bf0001e009000808f5000050032001000200071
:101c0000f0a288000200370020002000f0a2880027
:101c100020a3800032e0b700f0a280000080fa002c
:101c2000000006000600fa0010079800210798003f
:101c30000080eb00000f78000000eb00f0a28800ad
:101c40001e019000ae01900000002f00f10720005f
:101c5000020040008380480000a3880011a3880090
:101c600032c0bf000080fb0020a3880000a38000da
:101c700011a380004008de000100200032e0b70020
:101c800000a3800011a380001000ba00000f7800ac
:101c900020a3800032e0b7001e0078000080fa0028
:101ca000000006000800fa00000f780011079800f5
:101cb0000000eb00f0a288001e0078006101b8006f
:101cc00000002f00f1072000020040008380480040
:101cd00000a3880011a3880032c0bf000080fb0071
:101ce00020a3880061c7bf000042b2000004e000ea
:101cf0004c003a0000a3800011a380004008de00e1
:101d0000010020000074a10064e7b70000a3800078
:101d100011a38000103b880061c7a8000176200055
:101d20009140780000c8b30000c0600041c4b30017
:101d30000140700060e7b70050052000303b88008c
:101d4000a00a2000303b880061e7a80000000000e6
:101d5000000000002007980061c7bf0001c8b30061
:101d6000014060000004e000fbff3a001e00780024
:101d70000100200084fe0700e10f400027003a0028
:101d800000a3800011a380004008de0001002000b5
:101d900032e0b70000a3800011a380001e01900074
:101da0000208bb0061c7a8000176200091407800be
:101db00000c8b30000c060000024a00060e7b700c6
:101dc00050052000303b8800a00a2000303b8800ee
:101dd00061e7a80000000000000000003007980044
:101de00061c7bf0001c8b300014060000004e0000b
:101df000fbff3a001e0078000100200062fe070091
:101e0000800078001e009000808f50000500320096
:101e100010002000f0a288000200370020002000ff
:101e2000f0a2880020a3800032e0b700f0a280007a
:101e30000080fa00000006000200fa0080c5b3002e
:101e40002af4b7006000b8004ffe070052f0b70058
:101e5000e00b2000010020004bfe070040528800ec
:101e6000000c20000100200047fe07004aeab700ee
:101e700040528000e10f40000400320041528000d7
:101e8000703e2000808f5000050036000000eb00ff
:101e90004052880041528000e00b2000abfe07005a
:101ea000a1a4200091407800c0c3b30080cf5000af
:101eb000060036000040eb004aeab7004acabf00fd
:101ec0008080fb00000c2000a0fe070021052100ff
:101ed0009140780070c4b30080cf50009e003a005b
:101ee0000000eb00000f78001e80e80001002000d9
:101ef0004cff070044eab7009e0078006480400071
:101f00000100200047ff0700f04488009e00780091
:101f1000668040000100200042ff07000045880065
:101f20009e00780068804000010020003dff07000f
:101f3000104588009e0078006a8040000100200063
:101f400038ff0700204588009e0078006c80400024
:101f50000100200033ff0700304588009e00780014
:101f60006e804000010020002eff070040458800e1
:101f70009e007800708040000100200029ff0700cb
:101f8000504588009e0078007280400001002000cb
:101f900024ff0700804588009e0078007480400080
:101fa000010020001fff0700704588009e00780098
:101fb00076804000010020001aff0700b04588002d
:101fc0009e007800788040000100200015ff070087
:101fd00020478800010220001e80400001002000f0
:101fe00010ff07005ef5b70044cabf0067406000fd
:101ff0000080fb009045880044cabf000080fb00c1
:102000004300de00634060000080fb00a0458800c4
:1020100044cabf000080fb004600de006140600053
:102020006141600031a4200091407800e0cfb3000e
:1020300000c060000240700043eab70044cabf001d
:102040000080fb004600de006140600061406000ef
:10205000004040000040400000404000004140007f
:10206000c187200091407800f0ceb30000c060002e
:10207000024070007ce8b7007cc8bf000080fb0015
:102080004400de00614060000004a2006140600086
:1020900061406000004040000040400000404000bf
:1020a0000040400000414000c1872000914078007e
:1020b000f0cdb30000c06000024070007ce8b700c3
:1020c00044cabf000080fb0000598800f044800033
:1020d000405888000045800060a3880010458000bb
:1020e00050588800204580006058880030458000a6
:1020f0007058880040458000805888005045800016
:102100009058880080458000b05888007045800055
:10211000a0588800b0458000e05888002047800023
:102120005057880050458000d0938800b04580000b
:1021300070a3880010458000e0938800a0458000cf
:10214000006c880090458000f06b8800804580001e
:10215000e06b8800e3003700210521009140780002
:1021600000c5b30080cf500098003a004002200024
:10217000000f78001e80e80001002000a9fe070083
:1021800045eab7009e00780064804000010020000e
:10219000a4fe0700c04588009e00780066804000cd
:1021a000010020009ffe0700d04588009e007800b7
:1021b00068804000010020009afe0700e04588008a
:1021c0009e0078006a8040000100200095fe070014
:1021d000f04588009e0078006c80400001002000df
:1021e00090fe0700004688009e0078006e80400048
:1021f000010020008bfe0700104688009e0078003a
:10220000708040000100200086fe07002046880004
:102210009e007800728040000100200081fe0700cf
:10222000604688009e007800748040000100200015
:102230007cfe0700504688009e00780076804000b3
:102240000100200077fe0700404688009e007800cd
:10225000788040000100200072fe070030478800af
:102260009e0078007a804000010020006dfe07008b
:10227000f04688009e0078007c804000010020002d
:1022800068fe0700004788009e0078007e804000be
:102290000100200063fe07001047880001022000b3
:1022a0001e804000010020005efe07005ef5b700c2
:1022b00045cabf00674060000080fb007046880090
:1022c00045cabf000080fb004300de0063406000a1
:1022d0000080fb008046880045cabf000080fb00ec
:1022e0004500de00614060000080fb00e0468800a1
:1022f00045cabf000080fb004600de006140600070
:102300006141600031a4200091407800e0cfb3002b
:1023100000c060000240700043eab70045cabf0039
:102320000080fb004600de0061406000614060000c
:10233000004040000040400000404000004140009c
:10234000c187200091407800f0ceb30000c060004b
:10235000024070007ce8b7007cc8bf000080fb0032
:102360004400de00614060000004a20061406000a3
:1023700061406000004040000040400000404000dc
:102380000040400000414000c1872000914078009b
:10239000f0cdb30000c06000024070007ce8b700e0
:1023a00080468000606c880070468000506c880019
:1023b00060468000406c880030478000b0a38800f1
:1023c00020468000c0948800460037002105210087
:1023d00091407800d0c4b30080cf500021003a0073
:1023e00080042000000f78001e80e800010020001b
:1023f0000cfe0700204488009e00780064804000a6
:102400000100200007fe0700304488009e0078008d
:10241000668040000100200002fe07004044880062
:102420009e0078006880400001002000fdfd07004c
:10243000504488009e0078006a804000010020001f
:10244000f8fd07006044880040448000b06b8800bd
:1024500050448000c06b880060448000d06b8800ce
:1024600020003700210521009140780040c5b300cd
:1024700080cf50001b003a00c0062000000f7800fb
:102480001e80e80001002000e6fd0700a04488004f
:102490009e0078006480400001002000e1fd0700fc
:1024a000c04488009e007800668040000100200043
:1024b000dcfd0700d04488009e0078006880400062
:1024c00001002000d7fd0700e0448800c0448000e0
:1024d000106c8800d0448000206c8800e0448000ac
:1024e000306c88000080fa00000006000400fa004a
:1024f00041528000a0aa8000808f50000500320069
:1025000041528000e00b200010fd07004052800087
:10251000a0aa88004acabf008080fb00b0aa800041
:10252000808f5000070032004acabf008080fb0045
:10253000000c200005fd07004acabf000080fb0018
:10254000b0aa8800210521009140780070c4b30032
:1025500080cf5000bc003a006000b800008fbe0081
:1025600090458000674060006741600041a4200002
:102570009140780080cfb30000c06000024070003e
:1025800044eab700a04580006340600063406000fb
:1025900000404000004040000041400041a42000b5
:1025a0009140780070ceb30000c06000024070001f
:1025b00044eab7007cc8bf000080fb004400de0096
:1025c0006140600061406000004040000040400009
:1025d00000404000004040000040400000414000fa
:1025e00041a4200091407800f0cbb30000c060000f
:1025f0000240700044eab7008180200091407800da
:1026000052d0bf0080cf50000600320052d0bf0031
:102610008080fb000000eb00a2fd070052d0bf004d
:1026200008e8b70044cabf008080fb000059800062
:10263000808f50000800320044cabf008080fb0039
:102640001e0078000080e80096fd070044cabf0025
:102650000080fb0000598800f14480004058800051
:10266000808f500006003200f14480001e00780088
:10267000640040008bfd0700f04480004058880053
:102680000145800060a38000808f5000060032006a
:10269000014580001e0078006600400081fd0700b3
:1026a0000045800060a388001145800050588000dc
:1026b000808f500006003200114580001e00780017
:1026c0006800400077fd07001045800050588800e2
:1026d0002145800060588000808f50000600320045
:1026e000214580001e0078006a0040006dfd070053
:1026f0002045800060588800314580007058800077
:10270000808f500006003200314580001e007800a6
:102710006c00400063fd0700304580007058880061
:102720004145800080588000808f500006003200b4
:10273000414580001e0078006e00400059fd0700f2
:1027400040458000805888005145800090588000a6
:10275000808f500006003200514580001e00780036
:10276000700040004ffd07005045800090588800e1
:1027700081458000b0588000808f500006003200f4
:10278000814580001e0078007200400045fd070072
:1027900080458000b058880071458000a0588000b6
:1027a000808f500006003200714580001e007800c6
:1027b000740040003bfd070070458000a058880071
:1027c000b1458000e0588000808f50000600320044
:1027d000b14580001e0078007600400031fd070002
:1027e000b0458000e05888002147800050578000a5
:1027f000808f500006003200214780001e007800c4
:102800007800400027fd07002047800050578800cf
:102810005ed5bf008080fb00e0aa8000808f500062
:10282000880132005ed5bf008080fb001e0078006a
:102830000002b0001bfd07005ed5bf000080fb005a
:10284000e0aa88007f01370021052100914078002f
:1028500000c5b30080cf5000ed003a0040022000d8
:1028600001002000008fbe007046800067406000bd
:102870006741600051a420009140780080cfb300f0
:1028800000c060000240700045eab700804680004a
:102890006340600063406000004040000040400032
:1028a0000041400051a420009140780070ceb30058
:1028b00000c060000240700045eab700e0468000ba
:1028c0006140600061406000004040000040400006
:1028d00000404000004040000041400051a4200062
:1028e00091407800f0cdb30000c06000024070005d
:1028f00045eab7007cc8bf000080fb004400de0052
:1029000061406000614060000040400000404000c5
:1029100000404000004040000040400000414000b6
:1029200051a4200091407800f0cbb30000c06000bb
:102930000240700045eab700c0a08000e045880072
:10294000309e8000d0458800818020009140780032
:1029500052d0bf0080cf50000600320052d0bf00de
:102960008080fb000000eb00cefc070052d0bf00cf
:1029700008e8b70045cabf008080fb00e05980002e
:10298000808f50000800320045cabf008080fb00e5
:102990001e0078000080e800c2fc070045cabf00a6
:1029a0000080fb00e0598800c1458000105980007c
:1029b000808f500006003200c14580001e00780064
:1029c00064004000b7fc0700c04580001059880033
:1029d000d145800020598000808f500006003200d1
:1029e000d14580001e00780066004000adfc070065
:1029f000d045800020598800e14580003059800092
:102a0000808f500006003200e14580001e007800f3
:102a100068004000a3fc0700e045800030598800b2
:102a2000f145800040598000808f50000600320040
:102a3000f14580001e0078006a00400099fc070004
:102a4000f0458000405988000146800050598000c0
:102a5000808f500006003200014680001e00780082
:102a60006c0040008ffc0700004680005059880031
:102a70001146800060598000808f500006003200af
:102a8000114680001e0078006e00400085fc0700a3
:102a900010468000605988002146800070598000ef
:102aa000808f500006003200214680001e00780012
:102ab000700040007bfc07002046800070598800b1
:102ac00061468000b0598000808f500006003200bf
:102ad000614680001e0078007200400071fc070013
:102ae00060468000b059880051468000a05980009f
:102af000808f500006003200514680001e00780092
:102b00007400400067fc070050468000a059880010
:102b10004146800090598000808f500006003200ae
:102b2000414680001e007800760040005dfc0700f2
:102b3000404680009059880031478000b0a3800053
:102b4000808f500006003200314780001e00780060
:102b50007800400053fc070030478000b0a3880095
:102b6000f1468000d0a38000808f50000600320024
:102b7000f14680001e0078007a00400049fc070002
:102b8000f0468000d0a3880001478000c0a38000e9
:102b9000808f500006003200014780001e00780040
:102ba0007c0040003ffc070000478000c0a3880075
:102bb00011478000a0a38000808f500006003200e3
:102bc000114780001e0078007e00400035fc0700a1
:102bd00010478000a0a388005ed5bf008080fb0066
:102be000e0aa8000808f5000960032005ed5bf00c2
:102bf0008080fb001e0078000002b00029fc070066
:102c00005ed5bf000080fb00e0aa88008d00370081
:102c10002105210091407800d0c4b30080cf50003e
:102c200047003a00818020009140780052d0bf00d8
:102c300080cf50000600320052d0bf008080fb00e1
:102c40000000eb0017fc070052d0bf0008e8b700f7
:102c50008004200001002000008fbe00b06b8000c7
:102c600040448800c06b800050448800d06b8000d6
:102c7000604488002144800080578000808f50008d
:102c800006003200214480001e0078000080e80029
:102c900004fc0700204480008057880031448000f5
:102ca00090578000808f5000060032003144800031
:102cb0001e00780064004000fafb070030448000ea
:102cc0009057880041448000a0578000808f5000ba
:102cd00006003200414480001e007800660040007b
:102ce000f0fb070040448000a0578800514480005a
:102cf000b0578000808f50000600320051448000a1
:102d00001e00780068004000e6fb07005044800089
:102d1000b057880061448000c0578000808f500009
:102d200048003200614480001e0078006a004000c4
:102d3000dcfb070060448000c0578800410037007a
:102d4000210521009140780040c5b30080cf50009c
:102d50003c003a00818020009140780052d0bf00b2
:102d600080cf50000600320052d0bf008080fb00b0
:102d70000000eb00cbfb070052d0bf0008e8b70013
:102d8000c006200001002000008fbe00106c8000f3
:102d9000c0448800206c8000d0448800306c8000e3
:102da000e0448800a144800000588000808f5000db
:102db00006003200a14480001e0078000080e80078
:102dc000b8fb0700a044800000588800c144800080
:102dd00020588000808f500006003200c1448000df
:102de0001e00780064004000aefb0700c044800075
:102df00020588800d144800030588000808f5000d7
:102e000006003200d14480001e00780066004000b9
:102e1000a4fb0700d044800030588800e1448000c3
:102e200050a38000808f500006003200e1448000f3
:102e30001e007800680040009afb0700e044800014
:102e400050a388000080fa00000006000400fa0089
:102e5000210521009140780000c5b30080cf5000cb
:102e600018003200210521009140780070c4b300a1
:102e700080cf5000130032002105210091407800de
:102e8000d0c4b30080cf50000e00320021052100d5
:102e90009140780040c5b30080cf50000900320057
:102ea00000c5b30052f0b700010520000000eb00a0
:102eb0007cfb070052d0bf0008e8b700800220006a
:102ec00040468800210521009140780070c4b3007d
:102ed00080cf500054013a006000b800008fbe005f
:102ee000f06b80000000e00036003200f06b8000e4
:102ef000e10f500033003200f06b8000e20f500011
:102f000030003200f06b8000e30f50002d003200e3
:102f10000000eb00e06b8800e06b800080458800db
:102f20000000eb00f06b8800f06b8000904588009b
:102f30000000eb00006c8800006c8000a045880059
:102f4000f06b8000674060006741600041a4200092
:102f50009140780080cfb30000c060000240700054
:102f600044eab700006c800063406000634060008a
:102f700000404000004040000041400041a42000cb
:102f80009140780070ceb30000c060000240700035
:102f900044eab70022002000030020003e00410068
:102fa000ae8049001ffb070044eab700814580005e
:102fb0001e007800720040003afb07008045800048
:102fc000b0588800006c80000000e000360032003d
:102fd000006c8000e10f500033003200006c800074
:102fe000e20f500030003200006c8000e30f500010
:102ff0002d0032000000eb00e06b8800e06b8000e9
:103000008045880010002000f06b8800f06b800085
:10301000904588000000eb00006c8800006c800088
:10302000a0458800f06b8000674060006741600049
:1030300041a420009140780080cfb30000c0600020
:103040000240700044eab700006c800063406000fa
:1030500063406000004040000040400000414000ec
:1030600041a420009140780070ceb30000c0600001
:103070000240700044eab700220020000300200054
:103080003e004100ae804900e6fa070044eab7007e
:10309000814580001e0078007200400001fb07009f
:1030a00080458000b0588800f0448000010028006e
:1030b000f1089000810f500005003900f0448000b5
:1030c00001072800f1089000810f50000900360028
:1030d0000000280070089000f0448800c14580007e
:1030e0001e00780064004000eefa0700f044800003
:1030f00040588800004580000100280081109000a1
:10310000810f5000050039000045800001072800ac
:1031100081109000810f5000090036000000280047
:103120000010900000458800014580001e007800d6
:1031300066004000dbfa07000045800060a38800bd
:10314000104580000100280091109000810f500070
:1031500005003900104580000107280091109000fb
:10316000810f500009003600000028001010900068
:1031700010458800114580001e007800680040005e
:10318000c8fa07001045800050588800204580008c
:1031900001002800a1109000810f500005003900a7
:1031a0002045800001072800a1109000810f5000e9
:1031b00009003600000028002010900020458800fb
:1031c000214580001e0078006a004000b5fa070023
:1031d00020458000605888003045800001002800ac
:1031e000b1109000810f500005003900304580007b
:1031f00001072800b1109000810f5000090036002f
:1032000000002800301090003045880031458000d3
:103210001e0078006c004000a2fa070030458000d4
:10322000705888004045800001002800c1109000bf
:10323000810f50000500390040458000010728003b
:10324000c1109000810f50000900360000002800d6
:103250004010900040458800414580001e007800e5
:103260006e0040008ffa07004045800080588800bb
:103270005045800001002800d1109000810f5000bf
:10328000050039005045800001072800d11090004a
:10329000810f5000090036000000280050109000f7
:1032a00050458800514580001e00780070004000a5
:1032b0007cfa0700504580009058880080458000c7
:1032c0000000e0001600320080458000e10f500051
:1032d0001300320080458000e20f500010003200e1
:1032e00080458000e30f50000d00320080458000d3
:1032f000e40f50000a0032000000eb008045880017
:10330000814580001e0078007200400065fa0700c9
:1033100080458000b058880080458000e06b8800c0
:103320007045800001002800f1109000810f5000ce
:10333000050039007045800001072800f110900059
:10334000810f500009003600000028007010900026
:1033500070458800714580001e00780074004000b0
:1033600050fa070070458000a0588800b0458000e2
:1033700001002800b1189000810f500005003900ad
:10338000b045800001072800b1189000810f50005f
:10339000090036000000280030189000b045880071
:1033a000b14580001e007800760040003dfa07001d
:1033b000b0458000e05888002047800001002800c8
:1033c000a1309000810f5000050039002047800097
:1033d00001072800a1309000810f5000080036003e
:1033e0003002200020478800214780001e0078001e
:1033f000780040002bfa07002047800050578800d3
:103400005ed5bf00e14f5000070032005ed5bf001f
:103410000004e000040032000040eb005ef5b7005d
:103420005ed5bf005ff5b70021052100914078000f
:1034300000c5b30080cf500009023a0040022000ce
:1034400001002000008fbe00506c80000000e000f2
:1034500038003200506c8000e10f5000350032001f
:10346000506c8000e20f500032003200506c80003f
:10347000e30f50002f0032000000eb00406c88008a
:10348000406c8000604688000000eb00506c8800b3
:10349000506c80007046880010002000606c88002e
:1034a000606c8000804688000000eb00e0468800e9
:1034b000506c8000674060006741600051a42000ac
:1034c0009140780080cfb30000c0600002407000df
:1034d00045eab700606c80006340600063406000b4
:1034e00000404000004040000041400051a4200046
:1034f0009140780070ceb30000c0600002407000c0
:1035000045eab70045aaa90045cabf008080fb0074
:103510001e0078000080e800e2f9070061468000a4
:103520001e00780072004000def90700604680004f
:10353000b0598800606c8000e10f50003800320004
:10354000606c80000000e00035003200606c80009c
:10355000e30f500032003200606c8000e20f500038
:103560002f0032000000eb00406c8800406c8000af
:103570006046880010002000506c8800506c80006d
:103580007046880010002000606c8800606c80002d
:10359000804688000000eb00e0468800506c800008
:1035a000674060006741600051a4200091407800ae
:1035b00080cfb30000c060000240700045eab70051
:1035c000606c800063406000634060000040400029
:1035d000004040000041400051a42000914078008c
:1035e00070ceb30000c060000240700045eab70032
:1035f00045aaa90045cabf008080fb001e007800d4
:103600000080e800a7f90700614680001e007800ee
:1036100072004000a3f9070060468000b05988009e
:10362000c045800001002800c1189000810f5000a3
:1036300005003900c045800001072800c11890002e
:10364000810f50000900360000002800401890004b
:10365000c0458800c14580001e007800640040001d
:1036600090f90700c045800010598800d0458000bf
:1036700001002800d1189000810f5000050039008a
:10368000d045800001072800d1189000810f50001c
:10369000090036000000280050189000d04588002e
:1036a000d14580001e007800660040007df90700cb
:1036b000d045800020598800e045800001002800a6
:1036c000e1189000810f500005003900e0458000ae
:1036d00001072800e1189000810f50000900360012
:1036e0000000280060189000e0458800e145800057
:1036f0001e007800680040006af90700e04580007d
:1037000030598800f045800001002800f118900031
:10371000810f500005003900f045800001072800a6
:10372000f1189000810f50000900360000002800b9
:1037300070189000f0458800f14580001e00780068
:103740006a00400057f90700f045800040598800a2
:10375000004680000100280081209000810f500069
:1037600005003900004680000107280081209000f4
:10377000810f500009003600000028000020900052
:1037800000468800014680001e0078006c00400062
:1037900044f9070000468000505988001046800018
:1037a0000100280091209000810f50000500390091
:1037b000104680000107280091209000810f5000e2
:1037c00009003600000028001020900010468800f4
:1037d000114680001e0078006e00400031f907009d
:1037e00010468000605988002046800001002800b3
:1037f000a1209000810f5000050039002046800074
:1038000001072800a1209000810f50000900360018
:1038100000002800202090002046880021468000db
:103820001e007800700040001ef90700204680004e
:1038300070598800604680000000e0004d003200b2
:1038400060468000e10f50004a0032006046800070
:10385000e20f50004700320060468000e30f500046
:103860004400320060468000e40f50004100320006
:1038700060468000e50f50003e0032006046800048
:10388000e60f50003b00320060468000e70f50001a
:103890003800320060468000e80f500035003200ea
:1038a00060468000e90f5000320032006046800020
:1038b000ea0f50002f0032000000eb00406c88003f
:1038c000406c80006046880020002000506c88001a
:1038d000506c80007046880010002000606c8800ea
:1038e000606c8000804688000000eb00e0468800a5
:1038f000506c8000674060006741600051a4200068
:103900009140780080cfb30000c06000024070009a
:1039100045eab700606c800063406000634060006f
:1039200000404000004040000041400051a4200001
:103930009140780070ceb30000c06000024070007b
:1039400045eab70045aaa90045cabf008080fb0030
:103950001e0078000080e800d2f807006146800071
:103960001e00780072004000cef80700604680001c
:10397000b05988005046800001002800d1209000f6
:10398000810f5000050039005046800001072800d3
:10399000d1209000810f500009003600000028005f
:1039a0005020900050468800514680001e0078004c
:1039b00074004000bbf8070050468000a059880002
:1039c0004046800001002800c1209000810f500077
:1039d000050039004046800001072800c120900002
:1039e000810f500008003600800220004046880009
:1039f000414680001e00780076004000a9f80700cc
:103a0000404680009059880030478000010028001f
:103a1000b1309000810f5000050039003047800020
:103a200001072800b1309000810f500008003600d7
:103a30003002200030478800314780001e007800a7
:103a40007800400097f8070030478000b0a3880056
:103a5000f046800001002800f1289000810f5000fe
:103a600005003900f046800001072800f128900089
:103a7000810f5000090036000000280070289000d7
:103a8000f0468800f14680001e0078007a00400071
:103a900084f80700f0468000d0a38800004780002b
:103aa0000100280081309000810f5000050039008e
:103ab000004780000107280081309000810f5000ee
:103ac00008003600200320000047880001478000de
:103ad0001e0078007c00400072f80700004780005c
:103ae000c0a388001047800001002800913090009a
:103af000810f5000050039001047800001072800a1
:103b000091309000810f50000c00360040062000dc
:103b100010478800114780001e0078007e0040009a
:103b200060f8070010478000a0a3880010478000bd
:103b300001002000b08d8800c18d88005ed5bf00d7
:103b4000e14f5000070032005ed5bf000004e000e6
:103b5000040032000040eb005ef5b7005ed5bf0008
:103b60005ff5b700506c8000426c8000636c800091
:103b700024982a006c00b9000200400000004000b8
:103b8000000040000300400060407a0036f0b700bb
:103b900036d0bf00faf3b70036d0bf000004e00013
:103ba0002f003a000000eb00406c8800406c800061
:103bb0006046880030002000506c8800506c800007
:103bc0007046880010002000606c8800606c8000e7
:103bd000804688000000eb00e0468800506c8000c2
:103be000674060006741600051a420009140780068
:103bf00080cfb30000c060000240700045eab7000b
:103c0000606c8000634060006340600000404000e2
:103c1000004040000041400051a420009140780045
:103c200070ceb30000c060000240700045eab700eb
:103c300045aaa90045cabf008080fb001e0078008d
:103c40000080e80017f80700614680001e00780039
:103c50007200400013f8070060468000b0598800e9
:103c60002105210091407800d0c4b30080cf5000de
:103c70004b003a008004200001002000008fbe00ad
:103c8000214480000000280020009000808f500018
:103c9000050039002044800001072800a1009000a1
:103ca000810f500003003600000028002000900023
:103cb000204488003044800001002800b1009000ba
:103cc000810f5000050039003044800001072800b2
:103cd000b1009000810f5000030036000000280062
:103ce00030009000304488004044800001002800eb
:103cf000c1009000810f5000050039004044800051
:103d000001072800c1009000810f50000300360019
:103d1000000028004000900040448800504480008b
:103d200001002800d1009000810f500005003900eb
:103d30005044800001072800d1009000810f5000fe
:103d40000300360000002800500090005044880016
:103d50006044800001002800e1009000810f5000c5
:103d6000050039006044800001072800e100900050
:103d7000810f500003003600000028006000900012
:103d80006044880040448000b06b8800504480004c
:103d9000c06b880060448000d06b88005a003700f8
:103da000210521009140780040c5b30080cf50002c
:103db00055003a00c006200001002000008fbe0020
:103dc000a14480000000280020089000808f50004f
:103dd00005003900a044800001072800a1089000d8
:103de000810f5000090036000000280020089000d4
:103df000a0448800a14480001e0078000080e800f4
:103e0000a8f70700a044800000588800c044800044
:103e100001002800c1089000810f50000500390002
:103e2000c044800001072800c1089000810f5000a5
:103e3000090036000000280040089000c0448800b7
:103e4000c14480001e0078006400400095f7070020
:103e5000c044800020588800d04480000100280021
:103e6000d1089000810f500005003900d044800037
:103e700001072800d1089000810f5000090036008a
:103e80000000280050089000d0448800d1448000f1
:103e90001e0078006600400082f70700d0448000d2
:103ea00030588800e044800001002800e1089000bc
:103eb000810f500005003900e04480000107280010
:103ec000e1089000810f5000090036000000280032
:103ed00060089000e0448800e14480001e00780003
:103ee000680040006ff70700e044800050a388009e
:103ef000c0448000106c8800d0448000206c880092
:103f0000e0448000306c88000080fa000000060069
:103f10000400fa0010079800f06b8000e26b80004c
:103f2000036c800054b42c006500b900020040000e
:103f300000004000000040000300400060407a00a4
:103f40000080fb00000f78001e007800faf3b70035
:103f50001e0078001e01900063b92c007b00b900a0
:103f60000200400000004000608f79001e007800d1
:103f70000080fa00000006000400fa001007980014
:103f8000f06b8000e26b8000036c800054b42c0066
:103f90006500b90002004000000040000000400041
:103fa0000300400060407a000080fb00000f7800b2
:103fb0001e0078001e01900023042e007b00b90033
:103fc0000200400000004000608f79001e00780071
:103fd0000080fa00000006000000fa008600a90038
:103fe0000080fa0000400600801f78000000fa0000
:103ff00086e0a9003ad2bf000004e00004003a00c5
:1040000010c0b3003af2b7008240a90003003700a5
:104010000040eb003af2b7008240a8000080fa00ae
:104020004f007800004006003600f800809fbe0078
:10403000829fbe00849fbe00869fbe000000fa00e3
:104040008460a900908380000000e80090838800cd
:10405000709280000000e80070928800c4cbbf001e
:10406000e14f50000f003a00c6cbbf000004e00053
:1040700009003a000040eb00c6ebb7000040eb003f
:10408000c4ebb70010c0b300c3ebb7000040eb00b7
:10409000c2ebb70003003700c6cbbf000040e90009
:1040a000c6ebb700b9cbbf00e14f500005003a00a6
:1040b000bacbbf000040e800baebb7000040eb000d
:1040c000b9ebb7006ccdbf00e14f50000d003a00d6
:1040d000106b80000000e00007003a000040eb0099
:1040e0006cedb7000040eb0066edb700803e2000ad
:1040f000106b880003003700106b80000000e9009f
:10410000106b880090838000e10f5000050036009e
:104110000000eb0090838800980d07000000eb0082
:1041200090838800b08b8000e90f50001d0036009e
:104130000000eb00b08b8800c08b80000000e8001e
:10414000c08b8800c18b800010032000808f50003e
:104150000b003e003fcabf0034eab70037d3bf00b0
:104160000004e00006003a0010c0b30039f3b700c5
:104170000040eb003af3b70030022000d010880076
:10418000c08b8000f30f5000060036000000eb00eb
:10419000c08b880010c0b3002cf2b70010c0b30071
:1041a00065f1b7008fcbbf000004e00003003200d0
:1041b0008fcbbf000040e9008febb700a0838000e9
:1041c000f30f50002a0036000000eb00a0838800a7
:1041d000110521009140780040c5b30080cf500008
:1041e0000500320031d2bf000004e00002003a00b6
:1041f00010c0b30009e8b7000ec2bf006240600003
:104200000004e00008003a000ec2bf0064406000f5
:104210000004e00004003a000ec2bf0068406000e5
:104220000004e000030032000e22a9000e42a900a3
:104230000e62a90018c2bf00624060000004e000e6
:1042400008003a0018c2bf00644060000004e000ab
:1042500004003a0018c2bf00684060000004e0009b
:10426000030032001822a9001842a9001862a90010
:10427000510321009140780010c4b30080cf50005a
:1042800007003a007192800080382100808f500032
:104290000700360010c0b3003ef2b700040037003c
:1042a0000000eb00709288000040eb003ef2b70087
:1042b00059d3bf00e14f50000e003a000000eb0060
:1042c000b08b88000000eb00c08b88000040eb0042
:1042d00059f3b7003fcabf0034eab70010c0b300bb
:1042e00039f3b7000040eb003af3b700300220008a
:1042f000d010880009d5bf00e14f50007d013a0081
:10430000a08380000000e800a0838800c0838000b4
:104310000000e800c0838800b08380000000e8004f
:10432000b0838800008480000000e80000848800da
:10433000209480000000e80020948800b08b80006a
:104340000000e800b08b8800005c80000000e800fe
:10435000005c880050aa80000000e80050aa880095
:10436000305280000000e80030528800206b80004e
:104370000000e800206b8800b05c80000000e800ce
:10438000b05c8800806180000000e80080618800e7
:1043900031528000803e2000808f50002b0036007c
:1043a0000000eb003052880031d2bf00e14f5000d6
:1043b00026003a0010838000ef0f500023003600e3
:1043c0004bcabf000040e8004beab700b1a4200090
:1043d00091407800b0c3b30080cf50000500360094
:1043e0000040eb004beab7004acabf000040e800bb
:1043f0004aeab700a1a4200091407800b0c3b300fe
:1044000080cf5000070036000040eb004aeab700ba
:104410000040eb004beab700405280000000e8008b
:104420004052880041528000603e2000808f500042
:104430000600360090c0b3004aeab70090c0b3004f
:104440004beab70090002000405288002194800081
:10445000703e2000808f50000d0036000000eb0001
:104460002094880091cbbf000004e00008003200d7
:1044700091cbbf000040e90091ebb70090cbbf00ab
:10448000e14f500002003a000040eb0090ebb70013
:1044900051aa8000f0f92000808f50000d003600f6
:1044a000210521009140780070c4b30080cf5000f6
:1044b00005003200210521009140780000c5b300bd
:1044c00080cf500003003a0000fa200050aa880074
:1044d000020037000040eb0041f5b700cec2bf003c
:1044e000704060000004e0001a003200cfc2bf003c
:1044f0000042b2000004e000160032002105210055
:104500009140780070c4b30080cf500005003200a5
:10451000210521009140780000c5b30080cf5000f4
:104520000c003a000000eb00205c8800105c80006a
:104530000000e800105c8800115c8000803e2000d4
:10454000808f50000d003600803e2000105c8800f7
:104550000a0037000000eb00105c8800205c80003f
:104560000000e800205c8800205c80000040eb0038
:1045700043f5b700803e2000205c880079cbbf0067
:10458000e14f500019003a00305c80000000e80064
:10459000305c880010838000ee0f500003003e0066
:1045a00010c0b30078ebb700040037000040eb0008
:1045b00078ebb7000000eb00305c880078cbbf00e0
:1045c000e14f50000b003a00315c800000f4210004
:1045d000808f50000700360010c0b30042f5b700ce
:1045e00000f42100305c8800020037000000eb007e
:1045f000305c880040828000e10f500046003a00a5
:104600003fcabf000044b2000004e0004200320094
:10461000508280000000e8005082880050828000b4
:104620006101b800d08d8000e18d8000800f5100c5
:10463000818f5900120039003fcabf0001c8b30082
:10464000014060000004e0000d0032000000eb00bb
:10465000508288003feaa9000000eb0050998800d2
:10466000f0988000e098880010c0b300a4ebb70079
:1046700040012000305d8800cae2a9001400370024
:10468000508280006101b800f08d8000018e8000b2
:10469000800f5100818f59000d0039003fcabf00c3
:1046a00001c8b300014060000004e00008003a00c7
:1046b0000000eb00508288003feaa80010c0b30061
:1046c000a4ebb70040012000305d8800cae2a800da
:1046d000508280006102b800d28d8000e38d80009e
:1046e0006099800001002000000051008180590085
:1046f000800f5200818f5a00070039003fcabf0067
:1047000001c8b300014060000004e0000200320074
:104710001000200050998800a4cbbf00e14f50004a
:104720001c003a00305d80000000e00016003a00f6
:104730000040eb00a4ebb700f1a32000914078000b
:1047400000c8b30000c060000004e00007003200b1
:1047500090888000a1888000708888008188880007
:1047600010c0b300b8ebb7000a003700b088800073
:10477000c188800070888800818888000040eb0034
:10478000b8ebb70003003700305d80000000e9009f
:10479000305d8800a8cbbf00e14f500009003a000f
:1047a000505d80000000e00003003a000040eb0094
:1047b000a8ebb70003003700505d80000000e9005f
:1047c000505d880025ccbf00e14f500019003a0031
:1047d00026ccbf000004e00013003a000040eb00cc
:1047e00026ecb7000040eb0025ecb700e2c2a800c1
:1047f000d602a900e2e2a90026c2bf006240600022
:104800000004e0000b003a00e922a9000000eb00e0
:1048100070838800718380000000270000804000c2
:10482000501188000300370026ccbf000040e9008b
:1048300026ecb700c0838000f30f5000160036004e
:104840000000eb00c083880024d4bf000004e00017
:104850001100320029d4bf00f34f50000b00360086
:1048600028d4bf00e14f500003003a000040eb00a5
:1048700028f4b7000200370010c0b30028f4b700d6
:104880000040eb0029f4b7000300370029d4bf0033
:104890000040e80029f4b700216b8000301f2000a1
:1048a000808f50000400360010c0b30070edb700d8
:1048b0000000eb00206b88001ad4bf00e14f5000cd
:1048c0000c003a0060a180000000e80060a18800b0
:1048d00061a1800030062000808f50000500360066
:1048e00070a180000000e80070a188000000eb00cb
:1048f00060a188000080fa004f03be004f02be0096
:104900004f01be004f00be003600f9000040060017
:104910003600f800809fbe00829fbe00849fbe00cc
:10492000869fbe00881f78000400fa0084c0a9009a
:10493000403820006008880021052100914078005f
:10494000d0c4b30080cf500006003a0066d1bf004b
:10495000e14f500043003a000040eb0066f1b70021
:1049600040003700210521009140780070c4b30059
:1049700080cf500012003a0031d2bf00e14f50000a
:104980000f003a0044d0bf00e14f500035003a001c
:104990000040eb0044f0b70090a280004200de002f
:1049a000e08b8800e18b8000f0312000808f500088
:1049b0002c00360000322000e08b880029003700f0
:1049c000210521009140780000c5b30080cf500040
:1049d00024003a0031d2bf00e14f500021003a00dc
:1049e00044d0bf00e14f50001e003a000040eb00f1
:1049f00044f0b70090a280004200de00e08b880007
:104a0000e18b8000301f2000808f500002003600b4
:104a1000401f2000e08b880060a9800070a98800fa
:104a200078a980006140b90035ee0700008fbe0014
:104a30000800e00005003d0002002000037824008b
:104a40001e00be005aee0700008fbe0042352e0049
:104a5000130924001e00be00b2ee0700e5ee0700b9
:104a6000609288000080fa004f0478004f03be0077
:104a70004f02be004f01be004f00be003600f900dd
:104a800000400600801f78000000fa008880a9001e
:104a9000b02c2700700888009080a9000080fa00e0
:104aa0004f007800004006003600f800809fbe00ee
:104ab000829fbe00849fbe00869fbe000e00fa004b
:104ac00086c0a90080252000e008880035d3bf00fb
:104ad0000040e80035f3b700c182a800c1a2a800d9
:104ae00035d3bf000004e0005d0032000040eb0061
:104af00035f3b700c182a800c1a2a80032d3bf001d
:104b00000004e0000d003a00c3c2bf000080fb00bb
:104b10004400de00614060002ef3b700c3c2bf0056
:104b20000080fb004500de00614060002ff3b7000d
:104b300010c0b30032f3b7004900370032d3bf00d2
:104b4000e14f500046003a00c3c2bf000080fb00a6
:104b50004400de006140600030f3b700c3c2bf0014
:104b60000080fb004500de006140600031f3b700cb
:104b7000e13221009140780030d3bf000041eb00ca
:104b8000424f980080cf500002003a0013c0b3009b
:104b9000434f98004e48900033f3b700f1322100a4
:104ba0009140780031d3bf000041eb00324f9800b4
:104bb00080cf500002003a0013c0b300334f98007a
:104bc0003e48900034f3b70033d3bf00e14f5000ac
:104bd00021003a002ed3bf008040eb00214f980007
:104be000e14f500002003a0012c0b300224f98007b
:104bf0002e48900039f2b70021052100914078003d
:104c000070c4b30080cf500013003a0039d2bf0007
:104c1000e14f500007003a0010002000109f88006c
:104c200010002000308d880010c0b30045f0b700a0
:104c30000900370010002000109f880045d0bf00f9
:104c4000e14f500002003a000040eb0045f0b70091
:104c500010002000308d88000040eb0032f3b700d8
:104c6000210521009140780000c5b30080cf50009d
:104c700020003a0038d2bf000004e0001d003a00d6
:104c800037d2bf000004e0000c003a000000eb0047
:104c90005094880026c2bf00624060000004e0001b
:104ca00030023a00e922a900509480000100270058
:104cb00001004000501188002a023700e2e2a800fb
:104cc000e2c2a900e06020005094880026c2bf0024
:104cd000624060000004e00022023a00e922a900dc
:104ce000509480000100270001004000501188000e
:104cf0001c02370030d2bf00e14f50000b003a00d9
:104d0000210521009140780000c5b30080cf5000fc
:104d100006003a003ad2bf000004e00003003a0067
:104d200038d2bf00e14f5000030032004cd5bf0025
:104d3000e14f50003d003a000040eb004cf5b70059
:104d4000e2e2a900e2c2a800b08a80005094880084
:104d5000e922a90051948000000027000080400053
:104d60005011880081d1bf000004e00022003a0009
:104d700020968000809b880030968000909b880061
:104d800040968000a09b880050968000609b880021
:104d900060968000709b8800709680003095880037
:104da0008096800001002000008588001185880021
:104db0009096800001002000c0848800d184880083
:104dc000a0968000010020002085880031858800a1
:104dd000b096800001002000408588005185880041
:104de000c0968000f0908800d0968000f09c8800eb
:104df00010c0b30081f1b70020c0b30054f3b70076
:104e00000000eb00d0838800100020006094880030
:104e10000040eb0062f1b7000040eb0063f1b70027
:104e20000000eb00d09d8800ce01370030d2bf00db
:104e3000e14f5000cb013a0021052100914078005c
:104e400000c5b30080cf5000c6013a003ad2bf007f
:104e5000e14f5000c3013a0038d2bf00e14f50008b
:104e6000c0013a00e2e2a900e2c2a8003faaa900fc
:104e70005ad3bf000004e00008003a0010c0b3009d
:104e80005af3b70010c0b30059f3b7001000200068
:104e9000408288000000eb005082880054d3bf009d
:104ea00033f2b700d08380000000e800d083880090
:104eb00033d2bf000080fb0040079800ce00900076
:104ec000e38f50007a0032004e019000e30f510052
:104ed00007003c00ce019000e18f51000e0032002f
:104ee0004e029000e20f5200540032007901370068
:104ef000ce029000e58f5200da0032004e009000a2
:104f0000e50f5000a0003500ce009000e78f500064
:104f1000290132006f01370061948000609b80009e
:104f2000808f500037003e000000eb00b0a48800e6
:104f30000040eb009af4b7000040eb009bf4b70090
:104f4000609480000000e80060948800f190800088
:104f5000609480000088b9006101b800408580003d
:104f6000518580000201400083814800220798009b
:104f7000330798002e019000be019000e00f510011
:104f8000e08f5900050035002e009000be00900013
:104f9000dbec0700008fbe00100037002e029000ef
:104fa000be029000610062008000eb002e029000c3
:104fb000be0290008501d1000481d3000200700080
:104fc00083807000ceec0700008fbe001e01be0083
:104fd0001e00be00f6ec0700008fbe001e00be00e3
:104fe000709c8800819c8800709c8000819c80005f
:104ff00080ed0700509488000040eb0067f1b70097
:10500000090037000000eb00d0838800100020006a
:105010006094880020c0b30054f3b700008580007e
:1050200011858000509488000000eb00109e8800dd
:1050300010c0b30081f1b7002601370061948000f1
:1050400030958000808f50000d003e000000eb0086
:10505000b0a488000040eb009af4b7000040eb00d9
:105060009bf4b70000858000118580005094880073
:10507000609480000000e80060948800150137000b
:105080000000eb00d08388001000200060948800ae
:1050900030c0b30054f3b700c0848000d1848000d6
:1050a0005094880010c0b30008f5b700090137001c
:1050b00061948000809b8000808f50001c003e0027
:1050c000b0a480000000e800b0a4880010c0b300c5
:1050d0009af4b7000040eb009bf4b700c084800056
:1050e000d18480005094880030c0b30054f3b700de
:1050f000609480000000e80060948800c0d0bf0089
:10510000e14f5000f3003a0080d1bf000004e000fe
:10511000f0003a000040eb00c0f0b70010c0b30050
:10512000c1f0b70010c0b30080f1b700e90037004c
:105130000000eb00d08388001000200060948800fd
:1051400040c0b30054f3b700c0848000d184800015
:10515000509488000040eb003cf2b7000040eb00a8
:10516000c0f0b7000040eb00c1f0b7000040eb001a
:1051700080f1b7000040eb0008f5b700e0a7800021
:10518000d0a78800d300370061948000200320005e
:10519000808f50001d003e000040eb009af4b700e5
:1051a0000040eb009bf4b700609480000000e90031
:1051b0006114280000004000608178002085800094
:1051c0003185800000004100209d8800209d8000e6
:1051d0006101b800c0848000d1848000800f51003c
:1051e000818f590003003600c0848000d184800084
:1051f000209d8800209d800050948800609480004d
:105200000000e80060948800b20037000000eb0066
:10521000d0838800100020006094880050c0b30044
:1052200054f3b700208580003185800050948800b9
:1052300010c0b30062f1b7000040eb0063f1b700ab
:10524000b6d3bf00e14f500003003a0010c0b300d6
:1052500067f1b7009f0037000040eb0067f1b7002f
:105260009c0037000040eb009af4b70010c0b30078
:105270009bf4b70061948000909b8000808f500069
:1052800007003e0020858000318580005094880012
:10529000609480000000e800609488008d00370072
:1052a0000000eb00d083880010002000609488008c
:1052b000b6d3bf00e14f50002e003a0010c0b3003b
:1052c00054f3b70020858000318580005094880019
:1052d0000040eb00c0f0b70010c0b300c1f0b70051
:1052e0000040eb0062f1b70010c0b30063f1b700fb
:1052f0000040eb009af4b7000040eb009bf4b700cd
:10530000f4a4800005a5800030a580006101b800ec
:105310000400be00d2ec070070a5880014a5800030
:1053200025a5800040a580006101b8000400be00f2
:10533000cbec070080a588006000b800f0a48800ce
:1053400001a588000000eb0030a588006000b800cf
:1053500010a5880021a588000000eb0040a588006a
:105360000000eb00b0a488000000eb00c0a488009f
:105370005800370070c0b30054f3b7004085800078
:10538000518580005094880010c0b30067f1b700c9
:10539000b6d3bf000004e0004e003a0010c0b300d6
:1053a000c0f0b7000040eb00c1f0b7000000eb0018
:1053b000d09d8800470037000040eb009af4b7000a
:1053c00010c0b3009bf4b70061948000a09b8000e4
:1053d000808f500009003e0040858000518580008c
:1053e00050948800609480000000e8006094880079
:1053f00070c0b30054f3b700360037000000eb0074
:10540000d0838800100020006094880010c0b30092
:1054100054f3b7000000eb00109e88004085800028
:10542000518580005094880081d1bf00e14f500029
:1054300028003a000040eb0062f1b70010c0b30052
:1054400063f1b7000040eb00c0f0b70010c0b3003c
:10545000c1f0b7000040eb009af4b7000040eb0049
:105460009bf4b700f4a4800005a5800030a580005f
:105470006101b8000400be0079ec070070a5880047
:1054800014a5800025a5800040a580006101b8001a
:105490000400be0072ec070080a588006000b80020
:1054a000f0a4880001a588000000eb0030a588006a
:1054b0006000b80010a5880021a588000000eb005e
:1054c00040a588000000eb00b0a488000000eb00bd
:1054d000c0a48800e922a90026c2bf006240600083
:1054e0000004e0001f003a0067d1bf00e14f500008
:1054f00007003a00519480006092800000804000d4
:10550000f0968800f0968000f08e88000b0037003f
:1055100050948000f0968800f1968000f08e800014
:10552000808f500003003e00f08e8000f0968800cf
:1055300002003700f0968000f0968800f196800017
:10554000b0fd2000808f500002003600c0fd20001a
:10555000f0968800f09680000100270001004000ce
:10556000501188000080fa004f03be004f02be00b9
:105570004f01be004f00be003600f900004006009b
:105580003600f800809fbe00829fbe00849fbe0050
:10559000869fbe000000fa0086a0a9000000eb0074
:1055a000e09288002cd0bf000004e00006003a0022
:1055b000020a07002df0b7002cd0bf000040e80021
:1055c0002cf0b700100037002cd0bf00e14f500086
:1055d00006003a00870a07002ef0b7002cd0bf0063
:1055e0000040e8002cf0b700070037002cd0bf00c7
:1055f000e24f500004003a00110b07002ff0b700f3
:105600000040eb002cf0b7000080fa004f03be0012
:105610004f02be004f01be004f00be003600f90031
:1056200000400600809fbe00829fbe000000fa007e
:1056300000148000604188001014800070418800d0
:1056400020148000804188008560a9002105210088
:105650009140780070c4b30080cf50001c003a0025
:105660002bd4bf000040e8002bf4b700704180004d
:105670006101b800c0428000d142800002004000b9
:1056800083804800c0428800d14288002bd4bf00ec
:10569000e74f50000e003600c0428000d14280002b
:1056a0004d09dd004300de0000007100c308de008c
:1056b00090a288006000b800c0428800d1428800f3
:1056c0000040eb002bf4b70010c0b30044f0b7006b
:1056d00067d1bf00e14f500021003a0021052100b1
:1056e0009140780000c5b30080cf50001c003a0004
:1056f0002bd4bf000040e8002bf4b70070418000bd
:105700006101b800c0428000d14280000200400028
:1057100083804800c0428800d14288002bd4bf005b
:10572000e34f50000e003600c0428000d14280009e
:105730004e09dd004200de0000007100c208de00fc
:1057400090a288006000b800c0428800d142880062
:105750000040eb002bf4b70010c0b30044f0b700da
:10576000904180000000e800904188006041800086
:105770006101b800c0418000d141800002004000ba
:1057800083804800c0418800d1418800704180007a
:105790006101b800e0418000f1418000020040005a
:1057a00083804800e0418800f1418800804180000a
:1057b0006101b800004280001142800002004000f8
:1057c0008380480000428800114288009141800097
:1057d000108f8000808f5000ca003900c0418000c7
:1057e000d14180004c09dd004400de000000710062
:1057f000c408de00109a8800e0418000f14180007a
:105800004c09dd004400de0000007100c408de0029
:10581000209a880000428000114280004c09dd007f
:105820004400de0000007100c408de00309a8800e9
:105830000000eb00904188006000b800c041880083
:10584000d14188006000b800e0418800f141880043
:105850006000b800004288001142880010c0b30008
:1058600083f1b70010c0b30046f5b70010c0b30015
:1058700066f1b700209a80000000d100600c88001b
:1058800008d5bf00e14f500005003a00209a800083
:105890004200de00e0a7880010c0b3002eecb70085
:1058a0009ad4bf00e14f500012003a009bd4bf00d1
:1058b0000004e0000f003a00209a80004200de0061
:1058c000b0a58800b0a580006101b800f0a48000f8
:1058d00001a580000200400083804800f0a48800f9
:1058e00001a5880030a580000000e80030a58800f0
:1058f000140037009ad4bf000004e00011003a0001
:105900009bd4bf00e14f50000e003a00209a800067
:105910004200de00b0a58800b0a580006101b8009b
:1059200010a5800021a5800002004000838048006f
:1059300010a5880021a5880040a580000000e8008f
:1059400040a58800b04180000000e800b041880018
:10595000109a80006101b80020428000314280002e
:1059600002004000838048002042880031428800c5
:10597000209a80006101b800a0428000b1428000fe
:105980000200400083804800a0428800b1428800a5
:10599000b1418000308f8000808f500018003900a6
:1059a00020428000314280004e09dd004200de00ce
:1059b00000007100c208de0050898800a04280000b
:1059c000b14280004e09dd004200de00000071009f
:1059d000c208de00608988006000b80020428800ac
:1059e000314288006000b800a0428800b1428800bf
:1059f0000000eb00b041880010c0b30043f0b700d6
:105a0000a04180000000e800a0418800109a8000ba
:105a10006101b80040428000514280000200400015
:105a2000838048004042880051428800209a8000cc
:105a30006101b800604280007142800002004000b5
:105a4000838048006042880071428800309a80005c
:105a50006101b80080428000914280000200400055
:105a6000838048008042880091428800a1418000e4
:105a7000208f8000808f500022003900404280003b
:105a8000514280004409dd004c00de00000071003e
:105a9000cc08de00e09988006042800071428000fe
:105aa0004409dd004c00de0000007100cc08de007f
:105ab000f099880080428000914280004409dd0016
:105ac0004c00de0000007100cc08de00009a880067
:105ad0006000b80040428800514288006000b80071
:105ae00060428800714288006000b80080428800ef
:105af000914288000000eb00a041880010c0b30074
:105b000082f1b7000080fa004f01be004f00be00d6
:105b100000400600801f78000000fa008740a900be
:105b2000e922a80026c2bf000044b2000004e00041
:105b30000100320026c2a9000080fa004f00780060
:105b400000400600809fbe00821f78000000fa001f
:105b50008520a900901080003094880091d6200004
:105b60009140780080c4b30080cf500024003a00f8
:105b7000c2cbbf000004e00010003a000040eb0080
:105b8000bcebb700bccbbf000081fb0030948000b1
:105b90008040780070bc200000004100014878007f
:105ba00010c0b300c2ebb70010c0b300c4ebb70025
:105bb00020c3b300c6ebb70011003700c2cbbf0053
:105bc000e14f50000e003a00bccbbf000040e8009f
:105bd000bcebb700bccbbf000081fb003094800061
:105be0008040780070bc200000004100014878002f
:105bf00020c3b300c6ebb70010c0b300c2ebb700c0
:105c00000080fa004f0178004f00be0000400600ff
:105c1000809fbe000000fa008720a90037d3bf0094
:105c2000e14f500021003a0038d3bf00f64f50003a
:105c30000b003e0038d3bf008080fb00c0852000f1
:105c400000804000104078000080fb00d0108800e9
:105c500038d3bf000040e80038f3b7002c0037000d
:105c600038d3bf00f74f500009003a0073c8bf0097
:105c70000080fb00d010880038d3bf000040e8004f
:105c800038f3b7000040eb008cebb7002000370082
:105c90000040eb0037f3b7000040eb0038f3b700eb
:105ca0000040eb0036f3b7001900370039d3bf00ce
:105cb000e14f500016003a003fcabf0034eab70077
:105cc0003ad3bf000004e00007003a0034cabf0026
