:1000000000308A00322A0000FF00030E8301A100A5
:100010007F08A0000A08A8008A01A00E0408A20018
:100020007708A3007808A4007908A5007A08A6003C
:100030007B08A700831383128C308400001C2228C5
:100040000C183B288C308400801C28288C183D28F4
:10005000220884002308F7002408F8002508F90086
:100060002608FA002708FB0028088A00210E8300D2
:10007000FF0E7F0E09008A113F288A114F280C10AD
:10008000FC308F0040308E00B70A3708003C031860
:100090004C28B7010130B8000C108A1128288C10A8
:1000A0008C108A11282883160317880189010313ED
:1000B000831203138316FF300313900073308F00F5
:1000C000031383121F129F1200309D00073083120A
:1000D0009F00831605080630F700F70B6D28000017
:1000E00083121F088D121F179F1783169F178312E5
:1000F0001F14C0308B04900185309000FC308F00BD
:100100008E0183168C120C148C1283128A117D2A94
:100110008E30F7004408F8004308F900FA01F808A7
:10012000031D9C287908F800F9010830F702F80847
:10013000031D9C28F701A4280310F81BA328F90D20
:10014000F80DF7039C28F8138A11032A43080319B2
:100150001629CB00470803191629CB070318B7281F
:100160007F30CB02031C162903191629BB288130C6
:10017000CB07031816294B08F700F801F901FA011B
:100180004408CF00CF174508CE004608CD001830F0
:10019000CB00CC014D1CE4284A08FA07031CD628E2
:1001A000F90A031DD628F80A0319CC174908F907DC
:1001B000031CDD28F80A0319CC174808C500C51729
:1001C0004508F8070318CC17CC0DF80CF90CFA0CFD
:1001D000CF0CCE0CCD0C0310CB0BC9280130F70788
:1001E00003181629F81BFB28CF0DFA0DF90DF80D91
:1001F000F70303191629CF1F0C29FA0A031D0C292E
:10020000F90A031D0C29F80A031D0C29F80CF90C36
:10021000FA0CF70A031916294408CC004808CC0642
:10022000CC1F1429F8171A29F8131A29F701F80115
:10023000F901FA018A11142A8E30F7004308F702F7
:100240004408F9004508F800F917F708031933299D
:100250000310F908031D2F29F80803193329F90C95
:10026000F80CF70B2829C41F3A29F809F909F80AEC
:100270000319F90A8A111D2AC501C6014308C600DF
:100280004408C500B60124300C1E442999002530CD
:100290000C1E482999002530B60746080C1E4E2929
:1002A00099004608B60745080C1E542999004508D0
:1002B000B60736080C1E5A299900B60100340030E2
:1002C000F8001F08C33978049F00A9012908643C7D
:1002D000031C6C29A90A66299F149F186D2983168F
:1002E0001E088312AA001E08AB002A08BB072B08B1
:1002F00003182B0FBC07003003180130BD07003076
:1003000003180130BE07AB01AA010130BF07031873
:10031000C00A0319C10A0319C20AC208031D9A2997
:10032000C108031D9A29C008031D9A293F087F3C74
:100330000318302A3E0CFA003D0CF9003C0CF80082
:100340003B0CF700FA0CF90CF80CF70CFA0CF90C52
:10035000F80CF70CFA0CF90CF80CF70CFA0CF90C79
:10036000F80CF70CFA0CF90CF80CF70CFA0CF90C69
:10037000F80CF70C7708AC007808AD00BE01BD01A1
:10038000BC01BB01C201C101C001BF012D082F0288
:10039000031CDA29031DD0292E082C020318DA29A0
:1003A0002C082E02B0002F08B1002D08031C2D0FC1
:1003B000B102ED292F082D02031CED29031DE429AC
:1003C0002C082E020318ED292E082C02B0002D084F
:1003D000B1002F08031C2F0FB1022E082C02031DA1
:1003E000F7292F082D02031DF729B101B001B1082B
:1003F000031DFE293008023C03182B2A2D08C400D7
:100400002C08C30088287A08C6007908C500780837
:10041000C4007708C300F630CA002830C9001C3079
:10042000C8008130C700A6287A08C6007908C50030
:100430007808C4007708C3001C297908B30078083D
:10044000B2003308B5003208B4003308C4003208E3
:10045000C3003C21302A3508C4003408C3003C21C5
:100460008A11962A840183131F308305831603178C
:1004700087110C3003139900A2309800903083123A
:1004800098008316031787110C3003139900A230CC
:10049000980090308312980083161F129F1200302C
:1004A0009D00073083129F00A901AA01AB01AC0196
:1004B000AD01AE01AF01B001B101B201B301B401B0
:1004C000B501B601B701B801BB01BC01BD01BE0158
:1004D000BF01C001C101C201C0308B04B90139089C
:1004E000183C031C7C2ABA013A08F93C031C7A2AFE
:1004F000BA0A742AB90A6F2A532883168C128312F7
:10050000B9013908313C031C872AB90A812AB9018B
:100510003908313C031C8E2AB90A882A0330831615
:1005200085008312380B962AB8015F29922A63004E
:04400E00D42CFF3F70
:00000001FF
;PIC16F883
