:1000000010308A0000280000FF00030E8301A100C9
:100010000A08A0008A010408A2007708A300780853
:10002000A4007908A5007A08A6007B08A70083131E
:1000300083128C308400001C1F280C1832282208E0
:1000400084002308F7002408F8002508F900260892
:10005000FA002708FB0020088A00210E8300FF0E0B
:100060007F0E09008A110A128D280A108A100A11BF
:1000700082073F3406345B344F3466346D347D344C
:1000800007347F346F34803477347C3439345E34D1
:10009000793471343D34763406341E347034383457
:1000A000553454343F347334673450346D347834B9
:1000B0001C343E346A3468346E348934003440343D
:1000C000FF340A108A100A1182073F3406349B3429
:1000D0008F34A634AD34BD340734BF34AF3440342C
:1000E000B734BC3439349E34B934B1343D34B634C9
:1000F00006341E34B0343834953494343F34B33439
:10010000A7349034AD34B8341C343E34AA34A83407
:10011000AE34493400348034FF340C10FC308F008E
:1001200040308E008316CC0ACD0ACE0A4C08043C1F
:100130000318302ACC018312A808031DC028861298
:1001400083168612831231083520F800A90000308A
:100150008316CF00870183122908870006148316AF
:1001600006108312861083168610831206118316DA
:10017000061183128611831686118312A80A2F2A6C
:10018000280BE3280610831606108312300835204A
:10019000F800A90000308316CF00870183122908D8
:1001A00087000610831606108312861483168610A5
:1001B0008312061183160611831286118316861187
:1001C0008312A80A2F2A2808023C031D1929861029
:1001D0008316861083122F083520F800A9000030FE
:1001E0008316CF0087018312290887008316400BEE
:1001F0000029831287178316CF134F08870006291B
:10020000831287138316CF134F08870083120610BB
:100210008316061083128610831686108312061525
:100220008316061183128611831686118312A80A7B
:100230002F2A2808033C031D3E29061183160611A8
:10024000831232083520F800A90000308316CF0051
:10025000870183122908870006108316061083126F
:1002600086108316861083120611831606118312D8
:100270008615831686118312A80A2F2A2808043CA3
:10028000031D7329861183168611831233083520C6
:10029000F800A90000308316CF00870183122908D7
:1002A00087000610831606108312861083168610A8
:1002B0008312061183160611831286118316861186
:1002C0008312051683160512831285138316851370
:1002D0008312051383160513831286128316861262
:1002E0008312A80A2F2A2808053C031DB7290512E6
:1002F00083160512831234083520F800A900003057
:100300008316CF0087018312290887002D0B8F29C0
:1003100087178316CF134F088700942983128713FA
:100320008316CF134F08870083120610831606101A
:100330008312861083168610831206118316061107
:1003400083128611831686118312051283160512F5
:1003500083128517831685138312051383160513DD
:1003600083128612831686128312A80A2F2A28085F
:10037000063C031DFB29851383168513831235085C
:100380006120F800A90000308316CF008701831296
:10039000290887002C0BD329071783164F134F0802
:1003A0008700D8298312071383164F134F0887003D
:1003B0008312061083160610831286108316861089
:1003C0008312061183160611831286118316861175
:1003D0008312051283160512831285138316851363
:1003E000831205178316051383128612831686124D
:1003F0008312A80A2F2A2808073C031D2F2A051359
:1004000083160513831236083520F800A900003042
:100410008316CF00870183122908870006108316F0
:100420000610831286108316861083120611831617
:100430000611831286118316861183120512831604
:1004400005128312851383168513831205138316F1
:10045000051383128616831686128312A80183164B
:100460004D08013C0318392ACD0101308312AA003E
:100470008316490B422ACA0A4A08C73C0318422A73
:10048000CA01CB0A3E08003C03184C2AA00A0319F3
:10049000A10AB20A0319B30A83123A0B812AFC0A91
:1004A0000319FD0A7D08063C03186E2AFF3A031D56
:1004B0005D2A7C08CF3C03186E2AFD01FC018316DF
:1004C000C70A370B6F2A83122E0B6A2AAE01AD01C1
:1004D000AC016E2A0130AE00AD00AC0083164708B7
:1004E0003B3C0318752AC701C60A46083B3C031863
:1004F000802AC601C80A4808633C0318802AC8013C
:1005000083120C108A110A121F2883161F129F12C1
:1005100000309D00073083129F00831605080630C7
:10052000F700F70B912A000083121F088D121F1786
:100530009F1783169F1783121F14C0308B048316D6
:100540000C140108C039810083129001853090009D
:100550000B120F308100FC308F0040308E008A116A
:100560000A16C12883161F129F1200301F389D00E3
:1005700083121F179F1783169F1783121F148A1148
:100580000A16C4288316E801E901FF30CF0087006E
:10059000831207088316E8000730E8058530F70066
:1005A000F70BD02AFF30CF0087008312070883168D
:1005B000E9000730E90569086802031D232BE808F4
:1005C000031DE72A41308312B900222B8316680BE2
:1005D000EE2A42308312B900222B83166808023CAF
:1005E000031DF72A43308312B900222B83166808B3
:1005F000033C031D002B44308312B900222B8316C9
:100600006808043C031D092B45308312B900222BD6
:1006100083166808053C031D122B46308312B9006F
:10062000222B83166808063C031D1B2B47308312C0
:10063000B900222B83166808073C031D232B483082
:100640008312B900831683123908F8008A110A163A
:10065000C728E93084008313000803193C2B0230BB
:10066000F800F701F70B322BF80B312B9730F7001E
:10067000F70B382B800B2F2B00343808413C031D1F
:10068000542B0130B3000530B400B501B601E201CE
:10069000E1010230E0007130DF00E601E5010530E4
:1006A000E400DC30E300F22B3808423C031D6A2BE7
:1006B0000130B3000230B400B501B601E201E1013E
:1006C000E0007130DF00E601E5010430E400B03005
:1006D000E300F22B3808433C031D802B0130B300AC
:1006E000B401B501B601E201E1010230E000713070
:1006F000DF00E601E5010330E400E830E300F22B1F
:100700003808443C031D972B0830B300B401B501F1
:100710002530B600E201E1010230E0007130DF0077
:10072000E601E5010330E4002030E300F22B380855
:10073000453C031DAE2B0630B300B401B501253096
:10074000B600E201E1010230E0007130DF00E601B5
:10075000E5010230E4005830E300F22B3808463C53
:10076000031DC52B0430B300B401B5012530B6001C
:10077000E201E1010230E0007130DF00E601E50155
:100780000130E4009030E300F22B3808473C031DB1
:10079000DC2B0330B300B401B5012530B600E20113
:1007A000E1010230E0007130DF00E601E5010130D7
:1007B000E4002C30E300F22B3808483C031DF22BF8
:1007C0000230B3000530B400B5012530B600E201B7
:1007D000E1010230E0007130DF00E601E501E401F3
:1007E000FA30E3008A110A16F828013003178D0049
:1007F00083168C130C1483120C0883160313C70082
:10080000470F032C072C47083C3C0318082CC70152
:100810000230831203178D0083168C130C1483127D
:100820000C0883160313C600460F172C1B2C460812
:100830003C3C03181C2CC6010330831203178D00A7
:1008400083168C130C1483120C0883160313C80030
:10085000480F2B2C2F2C4808633C0318302CC80160
:1008600083128A110A162F298E30F7008316690821
:10087000F8006808F900FA01F808031D492C790806
:10088000F800F9010830F702F808031D492CF701B8
:10089000512C0310F81B502CF90DF80DF703492CBF
:1008A000F8138312003483166C0803192E2D0317D6
:1008B00098001008031D5E2C03132E2D9802031CB4
:1008C000682C7F309807031C672C03132E2D722C85
:1008D0008130980203186E2C03132E2D031D722CE9
:1008E00003132E2D1808F700F801F901FA019701FA
:1008F00003136D0803179600961703136E0803176A
:10090000950003136F08031794001930980013081B
:10091000940203189B2C0130950203189B2C96021D
:1009200003189B2C970203189B2C970A960A950A8A
:1009300013089407CD2C120895020318B62C013029
:1009400096020318B62C97020318B62C970A960A3B
:100950001208950713089407031CCD2C950A031D54
:10096000CD2C960A031DCD2C970ACD2C110880386A
:1009700096020318CC2C013097020318CC2C970A4E
:1009800011088038960712089507031CAA2C960AAE
:10099000031DAA2C970AAA2C7A14980BD02CDB2CB6
:1009A0000310940D950D960D970D0310FA0DF90D8A
:1009B000F80D990D872C191CE32C0310F80CF90C79
:1009C000FA0C990CE72CF70BE72C03132E2D991B2F
:1009D000102D0310940D950D960D970D130894028C
:1009E0000318FC2C013095020318FC2C9602031806
:1009F000FC2C9702031C212D120895020318072DC9
:100A0000013096020318072D9702031C212D1108AF
:100A1000803896020318102D01309702031C212DF7
:100A2000FA0A031D212DF90A031D212DF80A031DC1
:100A3000212DF70A031D1E2D03132E2DF80CF90C82
:100A4000FA0C03136D080317980011089806981FF5
:100A50002B2DF817332DF813332D0313F701F8015D
:100A6000F901FA0103178312031300348E30F700E3
:100A700083166808F7026908F9006A08F800F91790
:100A8000F70803194E2D0310F908031D4A2DF80825
:100A900003194E2DF90CF80CF70B432DE91F552DBA
:100AA000F809F909F80A0319F90A831200348316C0
:100AB00069080317900003136D0803179006901F31
:100AC000682D031103100313E91B0314BE2D031734
:100AD000031369080317900003136C0803179100B0
:100AE00003136808031791020319802D901B7A2DB8
:100AF0000313BE2D0308013A83000313BE2D031711
:100B000003136D080317910003136908031791027B
:100B10000319942D901B8E2D0313BE2D0308013A4B
:100B200083000313BE2D031703136E0803179100F0
:100B300003136A08031791020319A82D901BA22D15
:100B40000313BE2D0308013A83000313BE2D0317C0
:100B500003136F080317910003136B080317910227
:100B60000319BC2D901BB62D0313BE2D0308013AAB
:100B700083000313BE2D03170310031383120034E5
:100B80002030831603179400900191019201930184
:100B900003136B08FA006A08F9006908F80068088E
:100BA000F7000310771CF02D6C0803179007031350
:100BB0006D0803186D0FDD2DE02D0317910703134A
:100BC0006E0803186E0FE52DE82D03179207031327
:100BD0006F0803186F0FED2DF02D03179307031304
:100BE0000317930C920C910C900CFA0CF90CF80C66
:100BF000F70C940BFC2DFE2D0313D12D0313831240
:100C00008A150A12EF29F701F801F901FA01831692
:100C1000031794019501960197011308120411041A
:100C200010040319452E2030980003100313EC0D17
:100C3000ED0DEE0DEF0D0317940D950D960D970D1F
:100C400013081702031D2E2E12081602031D2E2E46
:100C500011081502031D2E2E10081402031C3F2E2E
:100C6000100894021108031C110F95021208031CAE
:100C7000120F96021308031C130F97020314F70DAB
:100C8000F80DF90DFA0D980B152E9430840083178A
:100C9000031383128A150A121C2AB630F700FA01D0
:100CA000F901F8018316680869046A046B04031DDE
:100CB0005B2EF701682E0310F81B672EE80DE90D77
:100CC000EA0DEB0DFA0DF90DF80DF70B5B2EF8138D
:100CD00083120034831668080319FF2E031790004F
:100CE00003136C080319FF2E031790070318832EB4
:100CF0007F30900203187E2E0313FF2E031D822ED9
:100D00000313FF2E892E81309007031C892E0313B5
:100D1000FF2E1008F700F801F901FA010313690822
:100D200003179400941703136A080317930003131F
:100D30006B0803179200183090009101121CC32E0B
:100D400003136F08FA07031CAE2EF90A031DAE2E1B
:100D5000F80A031DAE2E0317911703136E08F90747
:100D6000031CB82EF80A031DB82E0317911703139E
:100D70006D08EA00EA176A08F807031CC22E031779
:100D8000911703130317910DF80CF90CFA0C940C3E
:100D9000930C920C0310900B9D2E0130F707031C4F
:100DA000D32E0313FF2EF81BDD2E940DFA0DF90D33
:100DB000F80DF70BDD2E0313FF2E941FF02EFA0A09
:100DC000031DF02EF90A031DF02EF80A031DF02E64
:100DD000F80CF90CFA0CF70A031DF02E0313FF2E82
:100DE000031369080317910003136D080317910695
:100DF000911FFC2EF817042FF813042F0313F7018B
:100E0000F801F901FA010317031383128A150A1274
:100E1000DB2A83166C08B63CEC00FA016D08031758
:100E200090000313ED170310ED0CEE0CEF0CFA0C11
:100E3000F90CF80CF70CEC0B132F0317901F2B2F4A
:100E4000F709F809F909FA09F70A0319F80A031961
:100E5000F90A0319FA0A831203130034AB012B0FAA
:100E6000322F342FAB0A2F2F003483166B08F80172
:100E70006A0203183E2F6A08F7004A2FF70108306C
:100E8000EC00EA0DF70D6B0877020318F700F80D78
:100E9000EC0B412F8312003483166808EA000A30F5
:100EA000EB00831235277708B60083166808EA003E
:100EB0000A30EB008312352778088316E8006808AB
:100EC000EA000A30EB00831235277708B500831655
:100ED0006908EA000A30EB00831235277708B4006E
:100EE00083166908EA000A30EB0083123527780878
:100EF0008316E9006908EA000A30EB0083123527FF
:100F00007708B3008A110A169429013003178D005F
:100F1000831603134708831203178C0083168C1360
:100F20000C15831203130B08F7008B13831603179A
:100F300055308D00AA308D008C148C189D2F0C110B
:100F40007708831203138B04023003178D00831676
:100F500003134608831203178C0083168C130C1599
:100F6000831203130B08F7008B13831603175530F6
:100F70008D00AA308D008C148C18BC2F0C117708B2
:100F8000831203138B04033003178D00831603139E
:100F90004808831203178C0083168C130C158312D8
:100FA00003130B08F7008B138316031755308D00BE
:100FB000AA308D008C148C18DB2F0C11770883124B
:060FC00003138B04003452
:101000000030F8001F08C33978049F004230F70011
:10101000F70B082800009F149F180C2883161E0841
:101020008312BF001E08C000C101C2013F08831621
:10103000D007831240080318400F1F282228831668
:10104000D107831241080318410F27282A28831645
:10105000D207831242080318420F2F283228831622
:10106000D30783120430F8001F08C33978049F00A7
:101070004230F700F70B3A2800009F149F183E28D3
:1010800083161E088312BF001E08C000C101C201E2
:101090003F088316D407831240080318400F5128D5
:1010A00054288316D507831241080318410F592885
:1010B0005C288316D607831242080318420F612862
:1010C00064288316D70783120830F8001F08C33935
:1010D00078049F004230F700F70B6C2800009F1443
:1010E0009F18702883161E088312BF001E08C000B8
:1010F000C101C2013F088316DC07831240080318B0
:10110000400F832886288316DD07831241080318C1
:10111000410F8B288E288316DE078312420803189E
:10112000420F932896288316DF0783120C30F800AD
:101130001F08C33978049F004230F700F70B9E2840
:1011400000009F149F18A22883161E088312BF0058
:101150001E08C000C101C2013F088316E0078312C8
:1011600040080318400FB528B8288316E1078312FA
:1011700041080318410FBD28C0288316E2078312D7
:1011800042080318420FC528C8288316E3078312B4
:101190001030F8001F08C33978049F004230F70070
:1011A000F70BD02800009F149F18D42883161E0820
:1011B0008312BF001E08C000C101C2013F08831690
:1011C000D807831240080318400FE728EA2883163F
:1011D000D907831241080318410FEF28F22883161C
:1011E000DA07831242080318420FF728FA288316F9
:1011F000DB0783128316E40A0319E50AE60A0319DA
:10120000E70A6508003C0318BD295908A8005A08D8
:10121000A900A908031D14292808783C031C1429D7
:10122000A5011430A40092292908AB002808AA00BF
:101230002B08E9002A08E8008A11831234248A1551
:101240007A088316EF007908EE007808ED00770839
:10125000EC00463003179300B63092001330910033
:10126000813090008A118312031353248A157A085F
:101270008316EB007908EA007808E9007708E800AF
:101280008A11831236258A1579088316AB007808EF
:10129000AA002A082C02AE002D08AF002B08031C60
:1012A0002B0FAF022E082802A4002908A5002F0842
:1012B000031C2F0FA50283126F088316A402700867
:1012C000031C700FA5022508E9002408E8008A1114
:1012D000831234248A157A088316EF007908EE0009
:1012E0007808ED007708EC00663003179300920051
:1012F00091007E3090008A118312031353248A15C3
:101300007A088316EB007908EA007808E900770884
:10131000E8008A11831236258A1579088316A500FC
:101320007808A4002508E9002408E8008A1183123F
:1013300034248A157A088316EB007908EA007808C5
:10134000E9007708E800EF01EE012030ED0083307E
:10135000EC008A11831257258A150318B129031D41
:10136000B6298316A5011430A40083128316DB016D
:10137000DA01D901D801E701E6016508003C03184C
:101380004B2C51088312C700831652088312C800E1
:10139000831653088312C900CA014A088316EB005A
:1013A000831249088316EA00831248088316E9006D
:1013B000831247088316E800831266088316EF003D
:1013C000831265088316EE00831264088316ED000D
:1013D000831263088316EC008A118312C02D8A15CC
:1013E0007A088316EB007908EA007808E9007708A4
:1013F000E8006B08EF006A08EE006908ED00680875
:10140000EC00831262088316031793008312031300
:101410006108831603179200831203136008831672
:1014200003179100831203135F08831603179000BC
:101430008A1183120313032E8A157A08DE007908B5
:10144000DD007808DC007708DB0083165D08F30018
:101450005E08F4006108F5006208F6008312B70820
:10146000031D5C2A0130D3070318D40A0319D50AD7
:101470000319D60A5308033C031D562AD408031D3A
:10148000562AD508031D562AD608031D562A0130B0
:10149000B700D601D501D401D3015E08D2005D08A2
:1014A000D1005C08D0005B08CF005B2ABE01BD0103
:1014B000BC010130BB00BC2A52085E02031CB62AE4
:1014C000031D722A51085D02031CB62A031D722AED
:1014D00050085C02031CB62A031D722A4F085B02E7
:1014E000031CB62A4F085B02BB005C08BC00500816
:1014F000031C500FBC025D08BD005108031C510FB6
:10150000BD025E08BE005208031C520FBE023E0818
:101510008316EB0083123D088316EA0083123C0811
:101520008316E90083123B088316E8008A118312B0
:101530004D268A158316EB01EA012030E90082303E
:10154000E8007A08EF007908EE007808ED007708E7
:10155000EC008A11831257258A150318B12A031D3E
:10156000B42A0130BA00B52ABA01BC2ABE01BD01B5
:10157000BC010130BB00BA0183165508F1005608C2
:10158000F2007208E9007108E8008A11831234241D
:101590008A157A088316EB007908EA007808E900D2
:1015A0007708E800EF01EE017A30ED008830EC00BA
:1015B0008A1183126A2E8A1577088316E800780844
:1015C000E9007908EA007A08EB00EF006A08EE000B
:1015D0006908ED006808EC000317930192017A3066
:1015E0009100843090008A118312031353248A15CA
:1015F0007A088316EF007908EE007808ED00770886
:10160000EC008A11831209278A157A08C600790826
:10161000C5007808C4007708C30046088316EB00AD
:10162000831245088316EA00831244088316E900F2
:10163000831243088316E8008A1183124D268A1507
:101640007A088316EB007908EA007808E900770841
:10165000E800EF01EE017A30ED008A30EC008A11EB
:10166000831257258A15031C432BBA08031D432BED
:1016700001308316C9004B08273C0318412B013069
:10168000BB00472B83128316BB01C901CB0176082F
:10169000E9007508E8008A11831234248A1583163C
:1016A000EB01EA017A30E9008830E8007A08EF00BF
:1016B0007908EE007808ED007708EC008A118312B3
:1016C00057258A15031C6A2BFE018316B401B50148
:1016D000392C831276088316E9007508E8008A1110
:1016E000831234248A158316EB01EA013430E900B1
:1016F0008630E8007A08EF007908EE007808ED00FF
:101700007708EC008A11831257258A15031CAD2B2C
:1017100076088316E9007508E8008A1183123424DC
:101720008A157A088316EB007908EA007808E90040
:101730007708E800EF01EE015C30ED008630EC0048
:101740008A11831257258A15031CAD2B0130FE0028
:101750008316B401B501392C831276088316E9008B
:101760007508E8008A11831234248A158316EB0168
:10177000EA014330E9008730E8007A08EF00790891
:10178000EE007808ED007708EC008A1183125725E7
:101790008A15031CF02B76088316E9007508E8000B
:1017A0008A11831234248A157A088316EB0079088B
:1017B000EA007808E9007708E800EF01EE01573009
:1017C000ED008730EC008A11831257258A15031C1F
:1017D000F02BFE0101308316B400B501392C8312C1
:1017E00076088316E9007508E8008A11831234240C
:1017F0008A158316EB018030EA001330E900883047
:10180000E8007A08EF007908EE007808ED00770824
:10181000EC008A11831257258A15031C352C760893
:101820008316E9007508E8008A11831234248A15AA
:101830007A088316EB007908EA007808E90077084F
:10184000E800EF018030EE001D30ED008830EC0044
:101850008A11831257258A15031C352CFE01831625
:10186000B4010130B500392C8312FE018316B40196
:10187000B501D701D601D501D401D301D201D101DF
:10188000D001E501E401DF01DE01DD01DC01E3015E
:10189000E201E101E00183128A110A163829F801F8
:1018A000F901F701FA0183166F08031D5A2C6E081F
:1018B0000319782C10300317900003100313EC0D5C
:1018C000ED0DF70DFA0D6F087A02031D692C6E08F5
:1018D0007702031C722C6E08F702031CFA036F08D0
:1018E000FA020314F80DF90D0317900B5D2C031386
:1018F000831200343808473C0319822C3808483CCE
:10190000031DBC2CB20183166B08ED006A08EC00C5
:10191000EF010A30EE0083124F247708B1008316DE
:101920006B08ED006A08EC00EF010A30EE0083124C
:101930004F2479088316EB007808EA006B08ED0065
:101940006A08EC00EF010A30EE0083124F2477089A
:10195000B00083166B08ED006A08EC00EF010A3056
:10196000EE0083124F2479088316EB007808EA0012
:101970006A088312AF000E2D83166B08ED006A080B
:10198000EC00EF010A30EE0083124F247708B1001B
:1019900083166B08ED006A08EC00EF010A30EE00D8
:1019A00083124F2479088316EB007808EA006B084D
:1019B000ED006A08EC00EF010A30EE0083124F24BC
:1019C0007708B00083166B08ED006A08EC00EF01A1
:1019D0000A30EE0083124F2479088316EB00780852
:1019E000EA006B08ED006A08EC00EF010A30EE0037
:1019F00083124F247708AF0083166B08ED006A0846
:101A0000EC00EF010A30EE0083124F2479088316B0
:101A1000EB007808EA006A088312B20000348316EB
:101A20006B08ED006A08EC00EF010A30EE0083124B
:101A30004F247708B60083166B08ED006A08EC00A7
:101A4000EF010A30EE0083124F2479088316EB0071
:101A50007808EA006B08ED006A08EC00EF010A3034
:101A6000EE0083124F247708B50083166B08ED0053
:101A70006A08EC00EF010A30EE0083124F24790867
:101A80008316EB007808EA006B08ED006A08EC00AA
:101A9000EF010A30EE0083124F247708B40083165A
:101AA0006B08ED006A08EC00EF010A30EE008312CB
:101AB0004F2479088316EB007808EA006A0883123D
:041AC000B30000343B
:10200000840183131F30830583161F129F12003033
:102010009D00073083129F00A801A901AA01AB010E
:10202000AC01AD01AE01AF01B001B101B201B3012C
:10203000B401B501B601B701B801B901BA01BB01DC
:10204000BC01BD01BE01BF01C001C101C201C3018C
:10205000C401C501C601C701C801C901CA01CB013C
:10206000CC01CD01CE01CF01D001D101D201D301EC
:10207000D401D501D601D701D801D901DA01DB019C
:10208000DC01DD01DE01A330DF000230E000E10110
:10209000E2019030E3000130E400E501E601E701F0
:1020A000E801E901EA01EB01EC01ED01EE01093083
:1020B000EF00F001F101F201F301F401F501F60185
:1020C000FC01FD018316A001A101A201A301A4014D
:1020D000A501A601A701A801A901AA01AB017830B9
:1020E000AC00AD01AE01AF01E830B0000330B1008B
:1020F000B201B301FE01B401B501B601B701B801E7
:10210000B901BA01BB01BC01BD01BE01BF01C001E3
:10211000C101C201C301C401C501C601C701C80193
:10212000C901CA01CB01CC01CD01CE01FF30CF00E6
:10213000D001D101D201D301D401D501D601D701FB
:10214000D801D901DA01DB01DC01DD01DE01DF01AB
:10215000E001E101E201E301E401E501E601E7015B
:102160000317880189010313831203138316FF30B9
:102170000313900073308F00031383120A1283122B
:10218000852A0A160A12B22A0A160A12C22A0A1640
:102190007808B8002F3083168500D03086000030D4
:1021A0008700CF000230E9000A12831229230A16A1
:1021B0002730AF00B000B100B200B300B400B500EA
:1021C000B60002308316E800FA30E9000A128312E2
:1021D00029230A168316E80BE4280E308312AF0079
:1021E0001930B0001C30B1000B30B2000A123D2B88
:1021F0000A16AD0102308316E800FA30E9000A122F
:10220000831229230A168316E80BFD280230E80002
:10221000FA30E9000A12831229230A168316E80B02
:1022200008290F308312AF002030B0000130B10018
:102230001C30B200B301B401B501B6010130AD00EC
:1022400002308316E800FA30E9000A1283122923CB
:102250000A168316E80B23290A128312F52B0A1695
:102260008316BF0183122A0B3B290A128A15002804
:102270000A168A11AA01831686178312861BA529BE
:102280008316BA08031946298312A5290A12831254
:102290002E270A160A122E270A1602308316E80085
:1022A000FA30E9000A12831229230A168316E80B72
:1022B00050290130B90086178312861BA429831682
:1022C000C108031D83298312AD011C30AF001930F2
:1022D000B0001830B1000B30B2001E30B300133024
:1022E000B4001730B5000F30B60004308316E80094
:1022F000FA30E9000A12831229230A168316E80B22
:1023000078290130C1001C308312AF001730B000B3
:102310001830B1001230B20083164608E8004808B1
:10232000E9000A1283124C2F0A1601308316C000EE
:10233000B7008312BA08031DA0290130AD00AC001C
:1023400001308316B8008312B2298316BA08031D20
:10235000B129B7018312AE01AC018316C001C101DE
:10236000B9018312831606178312061B552ABA0871
:10237000031D552A8316B9080319C0298312552A4B
:102380000130BA00BE00B7008312AC018316C00151
:102390008312AD01831621081F3C031C1A2A031D5A
:1023A000D52920083F3C031C1A2AC408031D1A2AF9
:1023B0003308023C0318FD29FF3A031DE3293208C4
:1023C000E73C0318FD29C508031DFD29B301B2012F
:1023D0000130C5000F308312AF001D30B0001E3039
:1023E000B1001C30B2001730B3001930B4000E3009
:1023F000B5000F30B600182A83163308023C0318C4
:10240000192AFF3A031D082A3208E73C0318192A43
:10241000C5080319192AB301B201C5012530831279
:10242000AF00B000B100B200B300B400B500B60018
:102430008316512A21081E3C0318512AFF3A031D16
:10244000252A20083F3C0318512A0230C400B3015A
:10245000B201BE01A101A0010F308312AF001D30F7
:10246000B0001E30B1001C30B2000E30B300193085
:10247000B4001830B5000F30B6008316C801C6018D
:10248000C7010A12831285270A1604308316E80052
:10249000FA30E9000A12831229230A168316E80B80
:1024A000482A0130B800622A83128316B908031D36
:1024B000622ABE01A101A001C401BA01B701C50190
:1024C000B301B2017E0B652A6D2A340B682A6D2A8E
:1024D000350B6B2A6D2A3B0BB72A7E0B7E2A1C30EC
:1024E0008312AF00B0002630B1000F30B200B3014C
:1024F000B401B5010130B600AF2A8316340B8F2A20
:102500001C308312AF00B0002630B1000F30B20093
:10251000B301B401B5010230B600AF2A8316350B02
:10252000A02A1C308312AF00B0002630B1000F305B
:10253000B200B301B401B5010330B600AF2A83166F
:102540003B0BB02A1C308312AF00B0002630B10024
:102550000F30B200B301B401B5010430B6008316E8
:102560000130B6008312AD018316C200BD2AB60148
:10257000420BBD2AC2010130B800B608031D5E2C13
:10258000B708031D5E2CBF08031D5E2C83123A0B97
:10259000912B3B084B02031DDD2A3C084C02031D16
:1025A000DD2A3D084D02031DDD2A3E084E02031DB3
:1025B000DD2A8316380BF92A83123C088316E900BA
:1025C00083123B088316E8006908EB006808EA00FC
:1025D0000A128A1583127A240A168A113E08CE003E
:1025E0003D08CD003C08CC003B08CB008316A3017E
:1025F000A2018312430883163002031D132B83129A
:10260000440883163102031D132B8312C5080319D6
:102610000B2B8316132BC6080319102B8316132BB1
:102620008316380B8E2B8312C608031D382BC50862
:10263000031D382B4408273C031C382B031D242B77
:1026400043080F3C031C382B44088316E90083120F
:1026500043088316E8006908EB006808EA000A12DC
:102660008A1583120F250A168A110130AD00872BB7
:1026700046088316EB00831245088316EA0083128E
:1026800044088316E900831243088316E8000A12FF
:1026900083124D260A167A088316EF007908EE0099
:1026A0007808ED007708EC00031793019201483099
:1026B0009100853090000A128312031353240A16E6
:1026C0007A088316EF007908EE007808ED007708A5
:1026D000EC000A12831209270A167A08EA00790820
:1026E000E9007808E8007708E70068088316E90041
:1026F000831267088316E8006908EB006808EA009F
:102700000A128A1583120F250A168A11AD01440890
:102710008316B100831243088316B000B8015E2C03
:102720008312831624082202031D9C2B25082302F2
:10273000031D9C2B380BB12B2508EB002408EA0065
:102740000A128A1583127A240A168A11831625081A
:10275000A3002408A2008312CE01CD01CC01CB013D
:1027600083168312430883163002031DCB2B83127A
:10277000440883163102031DCB2B8312C5080319AD
:10278000C32B8316CB2BC6080319C82B8316CB2B60
:102790008316380B462C8312C608031DF02BC50880
:1027A000031DF02B4408273C031CF02B031DDC2BDE
:1027B00043080F3C031CF02B44088316E9008312E6
:1027C00043088316E8006908EB006808EA000A126B
:1027D0008A1583120F250A168A110130AD003F2C8D
:1027E00046088316EB00831245088316EA0083121D
:1027F00044088316E900831243088316E8000A128E
:1028000083124D260A167A088316EF007908EE0027
:102810007808ED007708EC00031793019201483027
:102820009100853090000A128312031353240A1674
:102830007A088316EF007908EE007808ED00770833
:10284000EC000A12831209270A167A08EA007908AE
:10285000E9007808E8007708E70068088316E900CF
:10286000831267088316E8006908EB006808EA002D
:102870000A128A1583120F250A168A11AD0144081F
:102880008316B100831243088316B000B8014808CC
:102890003C02031D532C46083D02031D532C4708E0
:1028A000430203195E2C0A12831285270A16831627
:1028B0004708C3004808BC004608BD003229630031
:04400E00D42FFF3F6D
:00000001FF
;PIC16F886
