:1000000008308A005F280000FF00030E8301A10072
:100010000A08A0008A010408A2007708A300780853
:10002000A4007908A5007A08A6007B08A70083131E
:1000300083128C308400001C1F280C1832282208E0
:1000400084002308F7002408F8002508F900260892
:10005000FA002708FB0020088A00210E8300FF0E0B
:100060007F0E09008A110A128D280A108A100A11BF
:1000700082073F3406345B344F3466346D347D344C
:1000800007347F346F34803477347C3439345E34D1
:10009000793471343D34763406341E347034383457
:1000A000553454343F347334673450346D347834B9
:1000B0001C343E346A3468346E348934003440343D
:1000C000FF340A108A100A1182073F3406349B3429
:1000D0008F34A634AD34BD340734BF34AF3440342C
:1000E000B734BC3439349E34B934B1343D34B634C9
:1000F00006341E34B0343834953494343F34B33439
:10010000A7349034AD34B8341C343E34AA34A83407
:10011000AE34493400348034FF340C10FC308F008E
:1001200040308E00EE0AEF0A6E08043C03182A2ABB
:10013000EE01A808031DBD288612831686128312BD
:1001400030083520F800A9000030F0008316870140
:10015000831229088700061483160610831286105E
:1001600083168610831206118316061183128611D8
:10017000831686118312A80A2A2A280BE028061063
:100180008316061083122F083520F800A9000030CE
:10019000F000831687018312290887000610831652
:1001A0000610831286148316861083120611831696
:1001B000061183128611831686118312A80A2A2A31
:1001C0002808023C031D142986108316861083120A
:1001D0002E083520F800A9000030F00083168701B2
:1001E0008312290887006C0BFC288717F01370080E
:1001F00083168700012983128713F0137008831672
:100200008700831206108316061083128610831649
:100210008610831206158316061183128611831623
:1002200086118312A80A2A2A2808033C031D3929AB
:10023000061183160611831231083520F800A90033
:100240000030F0008316870183122908870006100A
:1002500083160610831286108316861083120611E9
:100260008316061183128615831686118312A80A37
:100270002A2A2808043C031D6E298611831686113C
:10028000831232083520F800A9000030F0008316F0
:10029000870183122908870006108316061083122F
:1002A0008610831686108312061183160611831298
:1002B0008611831686118312051683160512831282
:1002C0008513831685138312051383160513831272
:1002D0008612831686128312A80A2A2A2808053C49
:1002E000031DB22905128316051283123308352027
:1002F000F800A9000030F000831687018312290856
:1003000087002D0B8A298717F01370088316870042
:100310008F2983128713F0137008831687008312C6
:100320000610831606108312861083168610831219
:100330000611831606118312861183168611831205
:1003400005128316051283128517831685138312EF
:1003500005138316051383128612831686128312E1
:10036000A80A2A2A2808063C031DF62985138316A5
:100370008513831234086120F800A9000030F000D2
:10038000831687018312290887002C0BCE290717B3
:100390007013700883168700D32983120713701314
:1003A00070088316870083120610831606108312C6
:1003B0008610831686108312061183160611831287
:1003C0008611831686118312051283160512831275
:1003D000851383168513831205178316051383125D
:1003E0008612831686128312A80A2A2A2808073C36
:1003F000031D2A2A05138316051383123508352099
:10040000F800A9000030F000831687018312290844
:100410008700061083160610831286108316861036
:100420008312061183160611831286118316861114
:100430008312051283160512831285138316851302
:1004400083120513831605138312861683168612EC
:100450008312A8016F08013C0318312AEF01013013
:10046000AA000C108A110A121F2883161F129F124D
:1004700000309D00073083129F0083160508063068
:10048000F700F70B412A000083121F088D121F1777
:100490009F1783169F1783121F14C0308B04831677
:1004A0000C140108C039810083129001853090003E
:1004B0000B120F308100FC308F0040308E008A1507
:1004C0000A12D92883161F129F12003003389D008C
:1004D00083121F179F1783169F1783121F148A15E5
:1004E0000A12DC288316A401A501FF30F000870062
:1004F000831207088316A4000730A4058530F7008F
:10050000F70B802AFF30F00087008312070883165C
:10051000A5000730A50525082402031DD32AA40839
:10052000031D972A41308312B800D22A8316240B68
:100530009E2A42308312B800D22A83162408023C35
:10054000031DA72A43308312B800D22A8316240839
:10055000033C031DB02A44308312B800D22A83160C
:100560002408043C031DB92A45308312B800D22A5E
:1005700083162408053C031DC22A46308312B800A6
:10058000D22A83162408063C031DCB2A4730831247
:10059000B800D22A83162408073C031DD32A48300A
:1005A0008312B800831683123808F8008A150A12DD
:1005B000DF28A5308400831300080319EC2A0230D9
:1005C000F800F701F70BE22AF80BE12A9730F70061
:1005D000F70BE82A800BDF2A00343708413C031D63
:1005E000042B0530B200B301B4012530B500DD01A4
:1005F000DC010230DB007130DA00E101E0010130A2
:10060000DF00F430DE00A22B3708423C031D1A2B1A
:100610000130B2000230B300B401B501DD01DC01EC
:10062000DB007130DA00E101E0010430DF00B030BE
:10063000DE00A22B3708433C031D302B0130B200F3
:10064000B301B401B501DD01DC010230DB00713022
:10065000DA00E101E0010330DF00E830DE00A22B28
:100660003708443C031D472B0830B200B301B401E6
:100670002530B500DD01DC010230DB007130DA002D
:10068000E101E0010330DF002030DE00A22B37085B
:10069000453C031D5E2B0630B200B301B40125308A
:1006A000B500DD01DC010230DB007130DA00E10170
:1006B000E0010230DF005830DE00A22B3708463C54
:1006C000031D752B0430B200B301B4012530B50011
:1006D000DD01DC010230DB007130DA00E101E00114
:1006E0000130DF009030DE00A22B3708473C031DAD
:1006F0008C2B0330B200B301B4012530B500DD010D
:10070000DC010230DB007130DA00E101E001013090
:10071000DF002C30DE00A22B3708483C031DA22B43
:100720000230B2000530B300B4012530B500DD0160
:10073000DC010230DB007130DA00E101E001DF01B1
:10074000FA30DE008A150A12102920308316B00014
:10075000AC01AD01AE01AF012708FA002608F9008F
:100760002508F8002408F7000310771CC52B28087B
:10077000AC0729080318290FAD072A0803182A0F08
:10078000AE072B0803182B0FAF07AF0CAE0CAD0C48
:10079000AC0CFA0CF90CF80CF70CB00BB42B831260
:1007A0008A110A12282EF701F801F901FA018316BD
:1007B000B001B101B201B3012F082E042D042C04A5
:1007C0000319122C2030B4000310A80DA90DAA0D96
:1007D000AB0DB00DB10DB20DB30D2F083302031DDB
:1007E000FB2B2E083202031DFB2B2D083102031DAB
:1007F000FB2B2C083002031C0C2C2C08B0022D08FB
:10080000031C2D0FB1022E08031C2E0FB2022F085D
:10081000031C2F0FB3020314F70DF80DF90DFA0D99
:10082000B40BE42BB0308400831383128A110A12B4
:100830004B2E8E30F70083162508F8002408F900A7
:10084000FA01F808031D2E2C7908F800F901083088
:10085000F702F808031D2E2CF701362C0310F81BA5
:10086000352CF90DF80DF7032E2CF81383128A118D
:100870000A12C32E831624080319AB2CAC002808D7
:100880000319AB2CAC0703184C2C7F30AC02031CB3
:10089000AB2C0319AB2C502C8130AC070318AB2CBC
:1008A0002C08F700F801F901FA012508B000B0178B
:1008B0002608AF002708AE001830AC00AD012E1C92
:1008C000792C2B08FA07031C6B2CF90A031D6B2CDF
:1008D000F80A0319AD172A08F907031C722CF80A45
:1008E0000319AD172908A600A6172608F80703184C
:1008F000AD17AD0DF80CF90CFA0CB00CAF0CAE0C3A
:100900000310AC0B5E2C0130F7070318AB2CF81B5F
:10091000902CB00DFA0DF90DF80DF7030319AB2C5F
:10092000B01FA12CFA0A031DA12CF90A031DA12C4A
:10093000F80A031DA12CF80CF90CFA0CF70A03199C
:10094000AB2C2508AD002908AD06AD1FA92CF81762
:10095000AF2CF813AF2CF701F801F901FA0183125B
:100960008A110A12D42E831628080319792DB4008F
:100970002C080319792DB402031CC32C7F30B40753
:100980000318792DC92C8130B402031C792D031969
:10099000792D3408F700F801F901FA01B3012908AB
:1009A000B200B2172A08B1002B08B0001930B40009
:1009B0002F08B0020318EC2C0130B1020318EC2C04
:1009C000B2020318EC2CB3020318EC2CB30AB20ADF
:1009D000B10A2F08B0071E2D2E08B1020318072DEB
:1009E0000130B2020318072DB3020318072DB30A12
:1009F000B20A2E08B1072F08B007031C1E2DB10A3A
:100A0000031D1E2DB20A031D1E2DB30A1E2D2D0817
:100A10008038B20203181D2D0130B30203181D2DBA
:100A2000B30A2D088038B2072E08B107031CFB2C2F
:100A3000B20A031DFB2CB30AFB2C7A14B40B212D34
:100A40002C2D0310B00DB10DB20DB30D0310FA0D26
:100A5000F90DF80DB50DD82C351C342D0310F80CFC
:100A6000F90CFA0CB50C372DF7030319792DB51BCA
:100A7000602D0310B00DB10DB20DB30D2F08B002F3
:100A800003184C2D0130B10203184C2DB20203188B
:100A90004C2DB302031C6F2D2E08B1020318572DE5
:100AA0000130B2020318572DB302031C6F2D2D081D
:100AB0008038B2020318602D0130B302031C6F2D81
:100AC000FA0A031D6F2DF90A031D6F2DF80A031D85
:100AD0006F2DF70A0319792DF80CF90CFA0C290877
:100AE000B4002D08B406B41F772DF8177D2DF81328
:100AF0007D2DF701F801F901FA0183120034831604
:100B00002808B63CA800FA012908AC00A917031070
:100B1000A90CAA0CAB0CFA0CF90CF80CF70CA80BEE
:100B2000872DAC1F9E2DF709F809F909FA09F70A74
:100B30000319F80A0319F90A0319FA0A831200348F
:100B40000030F8001F08C33978049F000130831675
:100B5000A5008312D9229F149F18AC2D83161E085E
:100B60008312BE001E08BF00C001C1013E08F1078C
:100B70003F0803183F0FF20740080318400FF30720
:100B800041080318410FF4070430F8001F08C33967
:100B900078049F0001308316A5008312D9229F1488
:100BA0009F18D02D83161E088312BE001E08BF009A
:100BB000C001C1013E088316A00783123F08031835
:100BC0003F0FE32DE62D8316A1078312400803187B
:100BD000400FEB2DEE2D8316A20783124108031858
:100BE000410FF32DF62D8316A3078312F50A03197F
:100BF000F60AFC0A0319FD0A7608003C03180B2FBD
:100C00007208C6007308C7007408C800C901490803
:100C10008316A700831248088316A600831247088C
:100C20008316A500831246088316A4008312610868
:100C30008316AB00831260088316AA0083125F0834
:100C40008316A90083125E088316A8008312A52BC1
:100C50007A088316A7007908A6007808A500770807
:100C6000A4002708AB002608AA002508A90024082C
:100C7000A80083125D088316AF0083125C088316F8
:100C8000AE0083125B088316AD0083125A088316E8
:100C9000AC008312D32B7A08D9007908D8007808E1
:100CA000D7007708D600B608031D802E0130D20782
:100CB0000318D30A0319D40A0319D50A5208033CAE
:100CC000031D7A2ED308031D7A2ED408031D7A2E15
:100CD000D508031D7A2E0130B600D501D401D30109
:100CE000D2015908D1005808D0005708CF00560843
:100CF000CE007F2EBD01BC01BB010130BA00B22E77
:100D000051085902031CAC2E031D962E50085802A0
:100D1000031CAC2E031D962E4F085702031CAC2E4D
:100D2000031D962E4E085602031CAC2E4E0856028A
:100D3000BA005708BB004F08031C4F0FBB025808EE
:100D4000BC005008031C500FBC025908BD005108DC
:100D5000031C510FBD02B22EBD01BC01BB0101300D
:100D6000BA00B901831621088312E600831622080F
:100D70008312E70067088316A500831266088316AE
:100D8000A4008312192C7A088316A7007908A600FC
:100D90007808A5007708A400AB01AA017A30A90061
:100DA0008830A80083123A2C77088316A4007808AC
:100DB000A5007908A6007A08A700AB002608AA00BB
:100DC0002508A9002408A800AF01AE017A30AD00C3
:100DD0008430AC008312B3247A088316AB00790800
:100DE000AA007808A9007708A80083127F257A084E
:100DF000C5007908C4007808C3007708C2008316CC
:100E0000A301A201A101A001F401F301F201F1018A
:100E1000F601F50183128A150A124A29F801F9012F
:100E2000F701FA0183162B08031D192F2A0803194D
:100E3000332F1030AC000310A80DA90DF70DFA0DDB
:100E40002B087A02031D262F2A087702031C2F2F56
:100E50002A08F702031CFA032B08FA020314F80D00
:100E6000F90DAC0B1B2F831200343708473C0319D4
:100E70003D2F3708483C031D902F83162708A900F3
:100E80002608A800AB010A30AA0083120E277708B3
:100E9000B00083162708A9002608A800AB010A3075
:100EA000AA0083120E2779088316A7007808A600E7
:100EB0002708A9002608A800AB010A30AA0083125F
:100EC0000E277708AF0083162708A9002608A80078
:100ED000AB010A30AA0083120E2779088316A700F7
:100EE0007808A6002708A9002608A800AB010A3048
:100EF000AA0083120E277708AE0083162708A900E0
:100F00002608A800AB010A30AA0083120E27790830
:100F10008316A7007808A60026088312B100C92FFF
:100F2000B10183162708A9002608A800AB010A30E2
:100F3000AA0083120E277708B00083162708A9009D
:100F40002608A800AB010A30AA0083120E277908F0
:100F50008316A7007808A6002708A9002608A8007D
:100F6000AB010A30AA0083120E277708AF00831660
:100F70002708A9002608A800AB010A30AA0083129E
:100F80000E2779088316A7007808A6002608831282
:100F9000AE008A150A126A29B630F700FA01F90183
:100FA000F80183162408250426042704031DDA2FDC
:100FB000F701E72F0310F81BE62FA40DA50DA60DD2
:100FC000A70DFA0DF90DF80DF70BDA2FF8138312B0
:060FD0008A150A12B32984
:1010000083162708A9002608A800AB010A30AA0009
:101010008A1183120E278A157708B50083162708D0
:10102000A9002608A800AB010A30AA008A11831281
:101030000E278A1579088316A7007808A6002708C6
:10104000A9002608A800AB010A30AA008A11831261
:101050000E278A157708B40083162708A9002608EA
:10106000A800AB010A30AA008A1183120E278A1544
:1010700079088316A7007808A6002708A900260883
:10108000A800AB010A30AA008A1183120E278A1524
:101090007708B30083162708A9002608A800AB012B
:1010A0000A30AA008A1183120E278A15790883163E
:1010B000A7007808A60026088312B2000034840135
:1010C00083131F30830583161F129F1200309D006B
:1010D000073083129F00A801A901AA01AB01AC014E
:1010E000AD01AE01AF01B001B101B201B301B40174
:1010F000B501B601B701B801B901BA01BB01BC0124
:10110000BD01BE01BF01C001C101C201C301C401D3
:10111000C501C601C701C801C901CA01CB01CC0183
:10112000CD01CE01CF01D001D101D201D301D40133
:10113000D501D601D701D801D901A330DA00023098
:10114000DB00DC01DD019030DE000130DF00E0017A
:10115000E101E201E301E401E501E601E701E83034
:10116000E8000330E900EA01EB01EC01ED01EE01DA
:10117000EF01FF30F000F101F201F301F4018316F9
:10118000A001A101A201A301F501F601FC01FD01ED
:101190000317880189010313831203138316FF3099
:1011A0000313900073308F00031383128A1183128C
:1011B000352A8A158A11622A8A158A11722A8A1595
:1011C0007808B7002F3083168500D03086000030B5
:1011D0008700F0000230A5008A118312D9228A15F7
:1011E0002730AE00AF00B000B100B200B300B400D1
:1011F000B50002308316A400FA30A5008A118312CC
:10120000D9228A158316A40BFC280E308312AE0057
:101210001930AF001C30B0000B30B1008A11ED2A3C
:101220008A15AD0102308316A400FA30A5008A1198
:101230008312D9228A158316A40B15290230A40023
:10124000FA30A5008A118312D9228A158316A40BBD
:1012500020290F308312AE002030AF000130B000E3
:101260001C30B100B201B301B401B5010130AD00D1
:1012700002308316A400FA30A5008A118312D92205
:101280008A158316A40B3B298312EB012A0B4C29E8
:101290008A11A02D8A15AA013A084A02031D5C2969
:1012A0003B084B02031D5C293C084C02031D5C29D2
:1012B0003D084D02031973293B088316A5008312CC
:1012C0003A088316A4002508A7002408A6008A115E
:1012D0008312352F8A153D08CD003C08CC003B0811
:1012E000CB003A08CA0042086802031D812943085E
:1012F0006902031D8129C408031D8129C50803193A
:10130000EE29C508031DA129C408031DA12943080E
:10131000273C031CA129031D912942080F3C031CF3
:10132000A12943088316A500831242088316A4004E
:101330002508A7002408A600831200200130AD0074
:10134000EA2945088316A700831244088316A600DD
:10135000831243088316A500831242088316A40053
:101360008A118312CC2F8A157A088316AB0079086C
:10137000AA007808A9007708A800AF01AE0148309C
:10138000AD008530AC008A118312B3248A157A0827
:101390008316AB007908AA007808A9007708A8008E
:1013A0008A1183127F258A157A08E5007908E400FE
:1013B0007808E3007708E20063088316A50083122B
:1013C00062088316A4002508A7002408A60083123B
:1013D0000020AD014308E9004208E8006D0BF32945
:0A13E000ED010130EA004629630028
:04400E00D42FFF3F6D
:00000001FF
;PIC16F886
