:040000008431EC2C2F
:100008007E14803120007F08D3000B1DEF280B11D0
:1000180095012300DE0185317125803101302300EF
:10002800B6070030B73D01302000CB004B08220056
:10003800B90701302000CB004B082200B807013077
:100048002000CB004B082300D50701302400AA0765
:100058000030AB3D23001D1933289D1C37289D1304
:100068001D129D171D1601303702F4300319360290
:10007800031C9728B601B70101302000CB004B08BC
:100088002200B7074108013A031D772823003D08DD
:100098003C04031954280130BC020030BD3B6528DC
:1000A800BC01BD012200C1012000E7118E116714B7
:1000B8006810E710EB01EB146B160130CB004B080E
:1000C800EF0011302000CB004B082200E4000B3079
:1000D8002000CB004B082200E5001D302000CB009B
:1000E8004B082200E60020006608503A03198028D1
:1000F8006608473A031D9428043022003702031C7F
:10010800922801302000CB004B082200BE000430AA
:100118002000CB004B082200B7009728BE01972883
:100128002200BE01B701220039080319A228B9012B
:1001380001302000CB004B082200D2000A303802E0
:10014800031CEF28B801C208031DB32800302000A3
:100158008E1A01302200D800C201C20AEF28C2015B
:10016800003020008E1A01302200D90058085906A4
:100178000030031901302000CB004B082200D700C3
:100188005708013A031DE02859080319CD285830AB
:10019800CE285030FC000030FD007C082000CB0049
:1001A8004B082200EC006C08503A031DDE282000A2
:1001B800EE14E0282000EE1022006D086C060319EA
:1001C800E8282300B601B70122006C082000CB0004
:1001D8004B082200ED002000110C0139CB00210052
:1001E800110C013920004B050319FC289110E72C4C
:1001F800110E0139CB002100110E013920004B05E9
:10020800031908291112E72C12080139CB00210023
:100218001208013920004B050319D32A12102200B5
:10022800AC08031D2C29250019082000CB004B0819
:100238002200AD00250018082000CB004B08220042
:10024800AE0001302000CB004B082200AC00D32ABE
:10025800250019082000CB004B082200AF0025001C
:1002680018082000CB004B082200B000200097019E
:1002780096012200AC012F082000CB00CC014B08CE
:100288002300B40020004C082300B5000830B43522
:10029800B50D890B4B29220030082000CB00CC017A
:1002A8004B082300B40420004C082300B5042200A6
:1002B8002D082000CB00CC014B082300B000200003
:1002C8004C082300B1000830B035B10D890B6829FE
:1002D80022002E082000CB00CC014B082300B004DC
:1002E80020004C082300B10430092000CB00230073
:1002F80031092000CC00CB0A0319CC0A23003408AA
:1003080020004B072300B200350820004C3D230095
:10031800B3003308C301C3073208C201C20724006F
:1003280020082000CB00240021082000CC00240055
:1003380022082000CD00240023082000CE0023003E
:1003480042082000CF00230043082000D000D1013C
:10035800D2014F08CB075008CC3D5108CD3D52087B
:10036800CE3D4E082400A30020004D082400A20022
:1003780020004C082400A10020004B082400A00005
:1003880001302000CB004B082200CA0708304A027F
:10039800031CD32ACA01240020082000CB00240013
:1003A80021082000CC00240022082000CD002400D1
:1003B80023082000CE000430CE36CD0CCC0CCB0C5C
:1003C800890BE0294C082200DE01DE0720004B08DB
:1003D8002200DD01DD075D08F0005E08F100F20192
:1003E800F3010030F7000F30F6004230F5004030DE
:1003F800F4009D31EE25803171082200E201E20708
:100408007008E101E10700302400A3000030A200D9
:100418000030A1000030A00000302000A0007A3099
:10042800A1004430A20022005E08F901F9075D0826
:10043800F801F8079831FE20803178082000A300E1
:100448007908A4007A08A50090311920803120008D
:1004580020082300E000200021082300E1002000FC
:1004680022082300E200033022006202E730031969
:100478006102031C442AE730E1000330E2004A2A03
:1004880062086104031D4A2AE101E2016208F901D8
:10049800F9076108F801F8079831FE2080317808DB
:1004A8002000A3007908A4007A08A500CD30A00098
:1004B8004C30A1003E30A20092311522803120003C
:1004C8002008B3002108B4002208B500240043081E
:1004D800F901F9074208F801F8079831FE20803140
:1004E80078082000A3007908A4007A08A500CD3078
:1004F800A0004C30A1003F30A2009231152280317B
:1005080020002008B0002108B1002208B200933171
:100518007D23803120003008BD003108BE0032083C
:10052800BF009E31F226803120003E082200A10142
:10053800A10720003D082200A001A00703302102E6
:10054800E73003192002031CAE2AE730A00003306D
:10055800A100B42A21082004031DB42AA001A10186
:1005680021082400C301C307220020082400C20177
:10057800C20701302000CB004B082300D300D9016B
:10058800D50122003C08013A031DD12A20006D1B29
:10059800D12A2200B101B10AD32A2200B1012000D8
:1005A800110E890C0139CB002100110E890C01397B
:1005B80020004B050319E72C91122300190820008D
:1005C800CB004B08E30023001D1DEC2A9D139D174B
:1005D8009D1CF22A1D121D169D139D1720006308ED
:1005E800403A031D072BE408031D072B22002B08A4
:1005F8002A04031D072B2000E401E40A2200B201AB
:10060800AA01AB01E62C20006308233A031D1C2B2A
:10061800E408031D1C2B22002B082A04031D1C2B95
:100628002000E40101302200AA000030AB00E52CD4
:100638002000E408031D922B013022002A062B0417
:10064800031D922B23004B084A04031D3C2B20005A
:100658006308CB00CC014B082200A60020004C0800
:100668002200A70001302300CA000030CB00E72C8D
:1006780001304A064B04031DE72C20006308CB0019
:10068800CC012200270820004C06031D4F2B220016
:10069800260820004B06031DDD2C2200B701260882
:1006A8002000CB004B08ED00220026082000CB00DC
:1006B8004B082400D0002000ED196D1F852BED1F7D
:1006C800732B21000C1020000C1421008C12200028
:1006D8008C1623002D08F101F1072C08802B21002E
:1006E8000C1020000C1021008C1220008C1223000A
:1006F8002F08F101F1072E08F001F0079931822146
:1007080080312300CA01CB012000E4012200AA01A4
:10071800AB01B201D301D601D60AE72C2000640848
:10072800013A031DE72C22002B082A04031DE72C9D
:10073800163032020318BB2B20006308CB002200BE
:100748003208A03E86000230870020004B08810056
:100758002200530820006307CB004B082200D30077
:1007680001302000CB004B082200B207E72C5308C9
:1007780020006306031DDD2C2200B701A201A3019E
:10078800003023021630031922020318E82B22082E
:10079800A03E86000230870001082000CB0022001E
:1007A8002208443E86000230870020004B08810062
:1007B80001302200A2070030A33D0030230216308A
:1007C80003192202031CCB2B240044082000CB0071
:1007D8004B08E600240045082000CB00CC014B085C
:1007E800DA004C08DB00240051082000CB004B083D
:1007F800EE006E1C022C6712E716042C6716E7122F
:100808002200B308031D1F2C240049082000CB0038
:10081800CC014B08D8004C08D9000830D835D90D80
:10082800890B122C24004A082000CB00CC014B086D
:10083800D8044C08D904240046082000CB00CC0179
:100848004B082200A80020004C082200A90008300C
:10085800A835A90D890B2C2C240047082000CB00B3
:10086800CC014B082200A80420004C082200A9044F
:1008780024004C082000CB00CC014B082300E300E7
:1008880020004C082300E4000830E335E40D890B10
:10089800492C24004D082000CB00CC014B08230034
:1008A800E30420004C082300E40424004E08200040
:1008B800CB00CC014B082300E50020004C082300A6
:1008C800E6000830E535E60D890B662C24004F0854
:1008D8002000CB00CC014B082300E50420004C0885
:1008E8002300E604240052082000CB00CC014B086A
:1008F8002300CC0020004C082300CD00240056081B
:100908002000CB004B082200BA00B308031D922C2C
:10091800240050082000CB004B08ED0024005408A8
:100928002000CB004B082300D700240055082000E6
:10093800CB004B082300D800240058082000CB0027
:100948004B082200E300240054082000CB004B0889
:100958002200DF00240055082000CB004B082200AD
:10096800E000240057082000CB004B082200BB0001
:10097800631CC12C20006711E81420006E1CC82CD1
:100988002200B401B40ACA2C2200B4012000E401F8
:100998002200B201D3012300CA01CB012200AA011F
:1009A800AB01DA01DA0A01302000CB004B08E10084
:1009B800E72C2300CA01CB012000E4012200AA0190
:1009C800AB01B201D30120005308FF007E100900DB
:1009D8008431EE2C96308400233085005A30FE0096
:1009E8000030FF009831B520843154308400003045
:1009F80085001B30FE000030FF009831B52084319F
:100A080020308400013085004430FE000030FF00B3
:100A18009831B5208431A030840001308500403001
:100A2800FE000030FF009831B5208431203084006A
:100A3800023085003A30FE000030FF009831B520C2
:100A48008431A0308400023085001830FE00003068
:100A5800FF009831B52084312030840003308500B0
:100A68004930FE000030FF009831B52084318731CD
:100A7800FE278431EF0021008731FF278431EF0002
:100A8800C1308400983085006430860001308700CA
:100A98000030FF000C309831A9208431CD3084001B
:100AA80098308500E0308600013087000030FF0074
:100AB8000F309831A92084310430840088308500B3
:100AC8005A308600023087000030FF000430983129
:100AD800A9207E1020008931522920008D0106307E
:100AE8005C02031C252E312E22000E120C138C13CF
:100AF80020005C08643E8600013087000108F00091
:100B0800F101F035F10D0030700784009830713D27
:100B18008500000822008D0020006B1C222E1F2E4D
:100B280022000E160C138C1320005C08643E86000D
:100B3800013087000108F000F101F035F10D0030B7
:100B4800700784009830713D8500000822008D00F0
:100B58002000EB1C222E1F2E22000E120C178C13C5
:100B680020005C08643E8600013087000108F00020
:100B7800F101F035F10D0030700784009830713DB7
:100B88008500000822008D0020006B1D222E1F2EDC
:100B980022000E160C178C1320005C08643E860099
:100BA800013087000108F000F101F035F10D003047
:100BB800700784009830713D8500000822008D0080
:100BC8002000EB1D222E1F2E22000E120C138C1754
:100BD80020005C08643E8600013087000108F000B0
:100BE800F101F035F10D0030700784009830713D47
:100BF8008500000822008D0020006B1E222E1F2E6B
:100C080022000E160C138C1720005C08643E860028
:100C1800013087000108F000F101F035F10D0030D6
:100C2800700784009830713D8500000822008D000F
:100C38002000EB1E222E22008D17A92E22008D13D4
:100C4800A92E20005C088400063004020318A92E8F
:100C5800983104356E3E8200A92E5C08063A031DC1
:100C68003C2E22000E120C178C1720006708472E06
:100C780020005C08073A031D4A2E22000E160C17A6
:100C88008C172000680822008D00A92E20005C081F
:100C9800083A031DA92E0F3021008D002000DF0126
:100CA80064305F02031C602E0130F0007008DF071B
:100CB80064305F020318582E0D08F0007008E20037
:100CC800DF01C8305F02031C712E0130F00070088C
:100CD800DF07C8305F020318692E22005108200080
:100CE8006206031D9F2E6208F0007008E500650883
:100CF8000F39F0007008E5006508013A031D862EDB
:100D080001309A2E20006508023A031D8D2E02300C
:100D18009A2E20006508043A031D942E03309A2E5B
:100D280020006508083A031D9F2E0430F000700863
:100D38002100EF00A12E2100EF0120006208F00041
:100D480070082200D10021008D010130F0007008E8
:100D58002000DC0709305C02031C0800DC010800E5
:100D68002100DD005D08013A031DFE2E2200C108A6
:100D7800031DF42E0F302300BC000030BD002200FC
:100D8800C101C10A2000E7158E1511302100DB00D2
:100D98005B082200E4000B302100DB005B08220026
:100DA800E5001D302100DB005B082200E600193059
:100DB8002100DB005B082200E70018302100DB007F
:100DC8005B082200E80025302100DB005B082200D8
:100DD800E90001302100DB005B082000EF00F72E5E
:100DE8002300BC01BD0101302100DB005B082000AD
:100DF800EF00080021005D08023A031D902F0A3019
:100E0800DB005B082000EC0021006F08023A031D9C
:100E18006C2F2000E81513302100DB005B0822004E
:100E2800E40018302100DB005B082200E5000D30EB
:100E38002100DB005B082200E60020006C0821008E
:100E4800DB00DC01DB35DC0DDB35DC0D5B08D300BA
:100E58005C08D4009931A421863120006C08210057
:100E6800DB00DC015B08A8005C08A9009C318B242E
:100E78008631643020006C020318082F6C080A3E83
:100E88002100DB005B082000EC002300BA01BB0155
:100E980000303B02053003193A020318082FB80145
:100EA800B901C33039025030031938020318672FCB
:100EB8000130B8070030B93DC3303902503003194A
:100EC8003802031C5C2F0130BA070030BB3D4C2FA1
:100ED80020006C082100DB00DC015B08A0005C0836
:100EE800A1000030A2000030A300993164218631AE
:100EF80021002108D401D4072008D301D307993150
:100F0800A4212000E8112300DA0101302100DB00D0
:100F18005B082000EF00080021005D08033A031D6C
:100F2800AA2F2000671E9F2F6712E7166E14220053
:100F3800B401B40AA62FE71EA62FE71267166E1093
:100F48002200B4012200B301B30A080021005D08A1
:100F5800043A031DCC2F2000671CB72F67106814B4
:100F6800E710EB01C42F681CBD2F67106810E71449
:100F7800C22FE71CC52F67146810E710EB01EB14AC
:100F88006B1601302100DB005B082000EF00080031
:100F98002100DD08031D08002000E711E8112300E7
:100FA800DA0108002100A401A501A201A301A20100
:100FB800A30121082302031DE32F2008220203189E
:100FC8000800A401A501003025028A300319240273
:100FD8000318F92F0130A4070030A53D0030250281
:100FE8008A3003192402031CEE2F0130A2070030B7
:080FF800A33DDD2F0134583444
:1010080032340034FF34FF342200B501BB302100F4
:10101800A10021082400D00022003408013A031D51
:10102800182820006E141A2820006E106E0821005F
:10103800A10021082400D1002300D20140309831BA
:10104800952088312200A401A50100302502103026
:1010580003192402031851282408443E860002304C
:101068008700010835072100A10021082200B500EA
:101078002408443E860002308700010898319520F4
:10108800883101302200A4070030A53D0030250238
:10109800103003192402031C302835082100A10050
:1010A80021082400C800220035089831952008003E
:1010B80021002808AE002908AF002A08B000031054
:1010C8002F0D300DB1003108B4002B08AE002C08EC
:1010D800AF002D08B00003102F0D300DB1003108FE
:1010E800B3003408031984283308340203188B2802
:1010F8003403FF3A3307AE0019302E02031C8B2845
:101108002B08A8002C08A9002D08AA0008003308FD
:10111800031908003408330203189A283303FF3AE6
:101128003407AE0019302E02031808000630AE004E
:101138002E08B200AA1BB217AD1B3217A917FF3031
:10114800A805FF30A9050030AA05AC17FF30AB058C
:10115800FF30AC050030AD05330834020318D6283B
:101168000130AB35AC0DAD0D890BB5280130B3029C
:10117800330834060319D1280130B202320807397E
:101188000319D128B4280130AA36A90CA80C890B58
:10119800C8280130AE002E08B407340833060319F6
:1011A800FB28C728340833020318FB280130A83568
:1011B800A90DAA0D890BDB280130B40233083406C7
:1011C8000319F7280130B202320807390319F72842
:1011D800DA280130AD36AC0CAB0C890BEE280130A7
:1011E800AE002E08B30734083306031DED28B21FDE
:1011F8000D29FF30A806FF30A906FF30AA060130E6
:10120800A807003003180130A9070030031801307F
:10121800AA07321F1F29FF30AB06FF30AC06FF308C
:10122800AD060130AB07003003180130AC070030C1
:1012380003180130AD07B2012808AB072908AC3DF7
:101248002A08AD3DAD1F3A29FF30AB06FF30AC068A
:10125800FF30AD060130AB07003003180130AC0792
:10126800003003180130AD07B201B20A2B08A00004
:101278002C08A1002D08A2003408AE002E08A300F7
:101288003208AF002F08A4009B31C6232100200894
:10129800A8002108A9002208AA00080098319F2068
:1012A8008931133024002F02883003192E020318C5
:1012B800632901302400AE070030AF3D5529E830DE
:1012C8002100A0000330A1008731D6278931993148
:1012D8004E2189319831DC208931903100208931C3
:1012E8009831ED2089319931112189318B170B17EC
:1012F80020008E110B302100ED006D082200E40063
:101308000E302100ED006D082200E5001C302100A0
:10131800ED006D082200E6001C302100ED006D088C
:101328002200E700E801E80AE90120006B16D03046
:101338002100A0000730A1008731D627893122007B
:101348000E1020006B12E701E8016714E814671615
:10135800EB01EB146B16ED012200A801A901200096
:10136800D801D901220029082100A901A9072200D2
:1013780028082100A801A8079C31272489312000CA
:1013880059082100A901A907200058082100A8012F
:10139800A8079C318B24893123009E161D16210035
:1013A80091168B170B178830A0001330A1008731D6
:1013B800D62789312100111222005608013A031D4F
:1013C800EE292000E108031DEE292200D6019931FB
:1013D8003921893120006108013A031D012A2200C0
:1013E8005A08013A031D012A2000E101883108202A
:1013F80089312300DD012200B30122004108013AAE
:10140800031D132A23003D082100A901A907230071
:101418003C082100A801A8079C318B2489312200AF
:10142800DB08031DE62F3108013A031D1F2AB1010D
:1014380094317324893122005208013A031DBF2BCD
:10144800D201BD08031DCD2A9D316F2589312100A8
:10145800ED006D082000DD0001302100ED006D0871
:101468002200C30720005D082B3A031D4D2A2200E5
:101478004F0820005A07DA005B0803185B0ADB00F4
:1014880000305B02DC3003195A02031C8A2ADC3064
:10149800872A5D082D3A031D8A2A2200490821005F
:1014A800ED00EE016E0820005B02031D5F2A21009B
:1014B8006D0820005A02031C772A220049082100DF
:1014C800ED00EE01ED09EE09ED0A0319EE0A200020
:1014D8005A0821006D072000DA005B0821006E3DE4
:1014E8002000DB007F2A5B085A0403197F2A013099
:1014F800DA020030DB3B00305B02023003195A028B
:1015080003188A2A0130DA000030DB00C8302200D4
:1015180043020318A72A20005D082B3A031D9B2AC3
:1015280001302100ED006D082200CD07C62A2000F9
:101538005D082D3A031DC62A01302100ED006D0813
:101548002200C707C62AC8304302031CC62AC301A3
:101558004D362100ED006D082200CF0047362100EE
:10156800ED006D082200C90002304F020318BE2AA0
:10157800CF01CF0A023049020318C42AC901C90A97
:10158800CD01C70101302100ED006D082200BD0723
:10159800BF2B01302100ED006D082200C4079C31EB
:1015A800F12489312100ED006D082000DE00E81CDF
:1015B800352B5E082B3A031DF52A2200500820001F
:1015C8005807D80059080318590AD9000130590298
:1015D800B93003195802031C312BB830D800013038
:1015E800302B20005E082D3A031D7E2B6008210059
:1015F800ED00EE016E0820005902031D072B2100A3
:101608006D0820005802031C1E2B60082100ED0005
:10161800EE01ED09EE09ED0A0319EE0A200058085B
:1016280021006D072000D800590821006E3D2000D8
:10163800D900262B590858040319262B0130D80243
:101648000030D93B003059028D3003195802031875
:10165800312B8C30D8000030D9002200B301B30AF6
:101668007E2B671D7E2B5E082B3A031D612B240001
:101678004B08220050072100ED006D082400CB0024
:1016880020006608503A031D502B513024004B02AD
:10169800031C7E2B50305B2B20006608473A031D45
:1016A8007E2B293024004B02031C7E2B283021007E
:1016B800ED006D082400CB007E2B20005E082D3A3B
:1016C800031D7E2B600824004B02031C762B200090
:1016D8006003FF3A24004B072100ED006D08240049
:1016E800CB007B2B4B0803197B2B0130CB02CB089B
:1016F8000319CB01C8302200440203189B2B200099
:101708005E082B3A031D8F2B01302100ED006D0878
:101718002200CE07BD2B20005E082D3A031DBD2BED
:1017280001302100ED006D082200C807BD2BC8302C
:101738004402031CBD2BC4014E082100ED006D08B6
:101748002200D00048082100ED006D082000E000CC
:101758000230220050020318B32BD001D00A023005
:10176800200060020318BA2BE001E00A2200CE0133
:10177800C8012200BD016E0821006F060319DC2B89
:101788006F088631B426893121006F080319DC2BD4
:101798002300B601B70101302100ED006D082000DB
:1017A800E10001302100ED006D082300DD0021007B
:1017B80021006F08ED006D082200EE0020006D1971
:1017C800862D5B0823004906031DEE2B20005A08CE
:1017D80023004806031D012C220029082300450682
:1017E800031DFA2B2200280823004406031D012CA0
:1017F80020006F08013A031D5D2C20005B082300C0
:101808004906031D0B2C20005A082300480603191B
:10181800102C2200EF01EF0A2000671C202C67140F
:101828006810E7106B10EB146B115B082100A9011D
:10183800A90720005A082F2C681C332C671068143D
:10184800E7106B10EB106B11220029082100A90189
:10185800A907220028082100A801A807442CE71C92
:10186800472C67106810E7146B10EB146B112400F9
:1018780048082100ED00EE016D08A8006E08A900D7
:101888009C312724893120005A082100ED006D0879
:101898002400C5002300B601B70101302100ED0086
:1018A8006D082000E10001302100ED006D082300E3
:1018B800DD0020005B082300C901C90720005A0881
:1018C8002300C801C807220029082300C501C5074D
:1018D800220028082300C401C40720005908230057
:1018E8004706031D7B2C2000580823004606031DCD
:1018F800822C20006F08013A031DC32C2000E81C2D
:10190800C32CEB116B16EB126711E8146811590818
:101918002100A901A907200058082100A801A8074B
:101928009C318B248931200058082100ED006D0876
:101938002400CA00200059082100ED006D08240089
:10194800C9002300B601B70101302100ED006D0880
:101958002000E10001302100ED006D082300DD00CA
:10196800200059082300C701C70720005808230092
:10197800C601C60764302400DC000030DD00240006
:101988004B082100ED00EE0124005D0821006E06E1
:10199800031DD22C24005C0821006D06031DD92CE0
:1019A80020006F08013A031D532D2000671D532D99
:1019B8006608503A031DFF2C283024004B02031CF4
:1019C800ED2C4B08D83EB800FF3003180030B900A2
:1019D800FF2C4B082100ED00EE01ED09EE09ED0AA0
:1019E8000319EE0A6D08283E2400B80000302100D3
:1019F8006E3D2400B90020006608473A031D102DEB
:101A080024004B082100ED00EE016D082400B80009
:101A180021006E082400B9002000EB116B12EB12B4
:101A28006715E8106811240039082100A901A907E1
:101A3800240038082100A801A8079C318B2489318B
:101A480020006608503A031D302D283024004B0230
:101A58000318302D2630312D25302100ED006D087A
:101A68002200E7002300B601B70101302100ED0094
:101A78006D082000E10001302100ED006D08230011
:101A8800DD00C601C70124004B082100ED00EE016E
:101A98006D082400DC0021006E082400DD00200011
:101AA800ED185C2D2200C108031D5C2D20008E114D
:101AB8002000ED19792D5B082100A101A107200064
:101AC8005A082100A001A0070030A2000030A3009E
:101AD80099316421893121002108D401D4072008D3
:101AE800D301D3079931A42189312400C001C10150
:101AF8002300DB012000EF012200B601BC01200019
:101B0800ED16E62F6D1DE62FED1C8C2D8E158D2DF7
:101B18008E11ED1D982FED1E382E2200BC012000DD
:101B28005B082100A301A30720005A082100A20195
:101B3800A20722003B082100ED00EE016D08A0007D
:101B48006E08A10099316421893121002108A90179
:101B5800A9072008A801A807993124218931210063
:101B68002808B8002908B9002A08BA00D730B500F3
:101B78002330B6003C30B7009231C92289312100A8
:101B88003508C5003608C6003708C7009F317927D1
:101B98008931210046082000EA01EA0721004508AA
:101BA8002000E901E90700306A02153003196902CB
:101BB8000318E22D1430E9000030EA0000306A0210
:101BC8003D30031969020318022E6A082100A90191
:101BD800A907200069082100A801A8079931242134
:101BE800893121002808B8002908B9002A08BA0054
:101BF8006630B5006630B60040301B2E20006A08FB
:101C08002100A901A907200069082100A801A80747
:101C180099312421893121002808B8002908B90000
:101C28002A08BA003330B500B330B6003F30B700E9
:101C38009231C922893121003508C5003608C6000D
:101C48003708C7009F317927893121004608D40118
:101C5800D4074508D301D3079931A421893121003C
:101C68008C1220000C14E32EED1AE32E2200BC0186
:101C7800BC0A20005B08EA01EA075A08E901E907FB
:101C88002200B608031DDF2E20006A082100A901E2
:101C9800A907200069082100A801A8079931242173
:101CA800893121002808B8002908B9002A08BA0093
:101CB8003330B500B330B6003F30B7009231C92297
:101CC800893121003508C5003608C6003708C70025
:101CD8009F317927893121004608D401D407450866
:101CE800D301D3079931A421893122006F08013A21
:101CF800031DDD2E33302100B500B330B6003F3070
:101D0800B70020006A082100A101A1072000690886
:101D18002100A001A00723006C082100A301A3074C
:101D280023006B082100A201A2079931642189319F
:101D380021002108A901A9072008A801A8079931AD
:101D48002421893121002808B8002908B9002A0867
:101D5800BA009231C9228931210035082300A9002F
:101D6800210036082300AA00210037082300AB0011
:101D78002200EF0100302300A6000030A700003049
:101D8800A8000030A3000030A4000030A5000030F7
:101D9800A0000030A1000030A20000302400A40000
:101DA8000030A5000030A600C201C3012200A00136
:101DB800A101B601B60A21008C1220000C106D1A80
:101DC8006E1CF22E22003A082100ED00EE016D088B
:101DD8002000E90021006E082000EA0000306A02B5
:101DE8000B3003196902031C292F6A082100A90175
:101DF800A907200069082100A801A8079931242112
:101E0800893121002808B8002908B9002A08BA0031
:101E18006630B5006630B6004030B7009231C9224E
:101E2800893121003508C5003608C6003708C700C3
:101E38009F3179278931210046082300D101D10734
:101E4800210045082300D001D00723004C082000BA
:101E580069072100A80023004D0820006A3D2100E1
:101E6800A90099312421893121002808B8002908BE
:101E7800B9002A08BA003330B500B330B6003F3095
:101E8800B7009231C922893121003508C5003608CA
:101E9800C6003708C7009F317927893121004608D5
:101EA8002300AD01AD07210045082300AC01AC07B4
:101EB8004C092100ED0023004D092100EE00ED0A38
:101EC8000319EE0A2000690821006D07A800200008
:101ED8006A0821006E3DA900993124218931210029
:101EE8002808B8002908B9002A08BA003330B50014
:101EF800B330B6003F30B7009231C9228931210092
:101F08003508C5003608C6003708C7009F3179274D
:101F18008931210046082300AF01AF072100450899
:101F28002300AE01AE07BD2FED19BD2F5B082100C0
:101F3800A101A10720005A082100A001A007003034
:101F4800A2000030A30099316421893121002108C1
:101F5800D401D4072008D301D3079931A4218931AA
:101F68002400C001C1012200B6012300D4012200CF
:101F7800BC01200067106814E7106711E8146811A5
:101F8800EB016B16230064082100A901A9072300AF
:101F980063082100A801A8079C3127248931230060
:101FA80066082100A901A907230065082100A801E6
:101FB800A8079C318B24893101302100ED006D0880
:101FC8002000EF0022005C08013A031DF32F0130C6
:101FD8002100ED006D082000EF002200DC01200048
:101FE8006608503A0319FC2F6608473A031DE02992
:101FF80091316B218931E02925001308F0390D381A
:102008009300CF309305910121000E11C7302000B5
:102018009B001C08FC3901389C0087309C059110F6
:102028002100911420001C15080020002308A60098
:102038002408A7002508A8000310270D280DA900CB
:102048002908AE00AE08031D30280030A00000307B
:10205800A1000030A20008002008A6002108A7005F
:102068002208A8000310270D280DA9002908AF0091
:10207800AF08031D46280030A0000030A100003042
:10208800A20008000030AB000030AC000030AD000A
:1020980089302F07A6002608AE022308A6002408C8
:1020A800A7002508A8001030A836A70CA60C890B95
:1020B80058282608A9002908AF002008A6002108EA
:1020C800A7002208A8001030A836A70CA60C890B78
:1020D80068282608A9002908AF068030A600260827
:1020E800AF05A417FF30A305FF30A4050030A505F0
:1020F800A117FF30A005FF30A1050030A205183058
:10210800A6002608AA000130AB35AC0DAD0D890B31
:10211800882822082502031D972821082402031D68
:10212800972820082302031CA0282008A3022108BE
:10213800A43B2208A53B2B140130A335A40DA50D03
:10214800890BA1280130AA02031D87282B08F0005B
:102158002C08F1002D08F2002E08A6002608F3002E
:102168002F08A7002708F4009B3166237008200079
:10217800A0007108A1007208A20008002100480808
:10218800CB004908CC004A08CD0003104C0D4D0D7A
:10219800CE004E08D300D308031DD9280030C5004F
:1021A8000030C6000030C70008004508CB004608CC
:1021B800CC004708CD0003104C0D4D0DCE004E0845
:1021C800D400D408031DEF280030C5000030C60035
:1021D8000030C70008000030D0000030D1000030C7
:1021E800D20089305407CB004B08D3024808CB00F3
:1021F8004908CC004A08CD001030CD36CC0CCB0CA9
:10220800890B01294B08CE004E08D4004508CB00A5
:102218004608CC004708CD001030CD36CC0CCB0C8E
:10222800890B11294B08CE004E08D4068030CB000C
:102238004B08D405C917FF30C805FF30C905003061
:10224800CA05C617FF30C505FF30C6050030C705EB
:102258001830CB004B08CF000130D035D10DD20D4E
:10226800890B312947084A02031D402946084902BB
:10227800031D402945084802031C49294508C8028E
:102288004608C93B4708CA3B50140130C835C90D38
:10229800CA0D890B4A290130CF02031D3029500885
:1022A800A0005108A1005208A2005308CB004B0817
:1022B800A3005408CC004C08A4009B31C62321007D
:1022C8002008C5002108C6002208C700080022000F
:1022D8005F082100DB005B082400D40022006008AE
:1022E8002100DB005B082400D50022005F1C852943
:1022F80001302100DB005B082200DB00E901E90A6C
:10230800E929DF1C8F2901302100DB005B0822004E
:10231800DB000230D6295F1D992901302100DB003E
:102328005B082200DB000330D629DF1DA32901301A
:102338002100DB005B082200DB000430D6295F1E89
:10234800AD2901302100DB005B082200DB000530ED
:10235800D629DF1EB72901302100DB005B082200E7
:10236800DB000630D6295F1FCA2920006608503ACC
:102378000319C2296608473A031DCA2901302100FA
:10238800DB005B082200DB000730D62922003E086C
:10239800013A031DDC2901302100DB005B08220023
:1023A800DB0008302100DB005B082200E900E92996
:1023B800601DE82901302100DB005B082200DB00FA
:1023C800E801E80AE901E929DB015B08013A031D94
:1023D800080001302100DB005B082200DC000F3020
:1023E8002100DB005B082200E4001C302100DB0038
:1023F8005B082200E5001C302100DB005B0822009E
:10240800E600E701E80120008E1100302100D3002A
:102418000030D4009931A4212000EB012200DF17FD
:10242800080020002008A6002108A7002208A8000C
:102438000310270D280DA9002908AA00AA08031DC2
:102448002C2A0030A0000030A1000030A2000800B3
:102458002308A6002408A7002508A8000310270DB4
:10246800280DA9002908AF00AF08031D422A003033
:10247800A0000030A1000030A20008002F087B3E19
:10248800A6002608AA072008A6002108A7002208F7
:10249800A8001030A836A70CA60C890B4E2A2608CF
:1024A800A9002908AF002308A6002408A7002508CA
:1024B800A8001030A836A70CA60C890B5E2A26089F
:1024C800A9002908AF068030A6002608AF05A11785
:1024D800A417FF30A305FF30A4050030A505003080
:1024E800AB000030AC000030AD000730A600260875
:1024F800AE00201C852A2308AB072408AC3D25081C
:10250800AD3D0130A236A10CA00C890B862A013002
:10251800A335A40DA50D890B8C2A0130AE02031D2D
:102528007D2A0930A6002608AE00201CA12A23080F
:10253800AB072408AC3D2508AD3D0130A236A10CFF
:10254800A00C890BA22A0130AD36AC0CAB0C890B60
:10255800A82A0130AE02031D992A2B08F0002C0886
:10256800F1002D08F2002A08A6002608F3002F081B
:10257800A7002708F4009B31662370082000A000FC
:102588007108A1007208A200080021003508BB00EC
:102598003608BC003708BD0003103C0D3D0DBE00D9
:1025A8003E08BF00BF08031DE02A0030B500003018
:1025B800B6000030B70008003808BB003908BC0076
:1025C8003A08BD0003103C0D3D0DBE003E08C40096
:1025D800C408031DF62A0030B5000030B6000030EC
:1025E800B700080044087B3EBB003B08BF0735081E
:1025F800BB003608BC003708BD001030BD36BC0C27
:10260800BB0C890B022B3B08BE003E08C4003808EF
:10261800BB003908BC003A08BD001030BD36BC0C00
:10262800BB0C890B122B3B08BE003E08C406803049
:10263800BB003B08C405B617B917FF30B805FF3013
:10264800B9050030BA050030C0000030C1000030C4
:10265800C2000730BB003B08C300351C392B3808C3
:10266800C0073908C13D3A08C23D0130B736B60C3B
:10267800B50C890B3A2B0130B835B90DBA0D890B59
:10268800402B0130C302031D312B0930BB003B082E
:10269800C300351C552B3808C0073908C13D3A0816
:1026A800C23D0130B736B60CB50C890B562B01303C
:1026B800C236C10CC00C890B5C2B0130C302031D50
:1026C8004D2B4008A0004108A1004208A2003F0885
:1026D800BB003B08A3004408BC003C08A4009B3195
:1026E800C62321002008B5002108B6002208B7003B
:1026F800080020003008B6003108B7003208B800DA
:102708000310370D380DB9003908BC003308B6007E
:102718003408B7003508B8000310370D380DB90074
:102728003908BB003C080319A52B3B083C020318D9
:10273800AC2B3C03FF3A3B07B60019303602031CAA
:10274800AC2B3308B0003408B1003508B2000800DB
:102758003B08031908003C083B020318BB2B3B034A
:10276800FF3A3C07B6001930360203180800063055
:10277800B6003608BA00B21BBA17B51B3A17B1171C
:10278800FF30B005FF30B1050030B205B417FF3097
:10279800B305FF30B4050030B5053B083C0203180B
:1027A800F72B0130B335B40DB50D890BD62B01309D
:1027B800BB023B083C060319F22B0130BA023A0867
:1027C80007390319F22BD52B0130B236B10CB00CF6
:1027D800890BE92B0130B6003608BC073C083B06DC
:1027E80003191C2CE82B3C083B0203181C2C013055
:1027F800B035B10DB20D890BFC2B0130BC023B0882
:102808003C060319182C0130BA023A080739031993
:10281800182CFB2B0130B536B40CB30C890B0F2CDC
:102828000130B6003608BB073C083B06031D0E2CDA
:10283800BA1F2E2CFF30B006FF30B106FF30B206AB
:102848000130B007003003180130B1070030031819
:102858000130B2073A1F402CFF30B306FF30B406F0
:10286800FF30B5060130B307003003180130B40754
:10287800003003180130B507BA013008B307310832
:10288800B43D3208B53DB51F5B2CFF30B306FF30B1
:10289800B406FF30B5060130B30700300318013025
:1028A800B407003003180130B507BA01BA0A330873
:1028B800F0003408F1003508F2003C08B60036088C
:1028C800F3003A08B7003708F4009B316623700814
:1028D8002000B0007108B1007208B20008009630FC
:1028E8008600233087000030C03F0030C13F4030B1
:1028F800C23F963086002330870043310030C03F06
:102908000030C13F3F30C23F9630860023308700F9
:1029180046310030C03F0030C13F0030C23F230085
:1029280050082100DB00230051082100DC00DD01F4
:10293800DE01C4308600233087005B08C03F5C0896
:10294800C13F5D08C23F5E08C33F22002008210046
:10295800DB00220021082100DC00DD01DE01C83097
:102968008600233087005B08C03F5C08C13F5D08D4
:10297800C23F5E08C33FC430860023308700403F13
:102988002400B000413FB100C830860023308700E2
:10299800403FB200413FB300C43086002330870077
:1029A800403F2100DB00413FDC00423FDD00433F68
:1029B800DE00C830860023308700403FDF00413FFB
:1029C800E000423FE100433FE200DF09E009E1099E
:1029D800E209DF0A0319E00A0319E10A0319E20A06
:1029E8005F08DB076008DC3D6108DD3D6208DE3D0D
:1029F80096308600233087004C315B08C03F5C0866
:102A0800C13F5D08C23F5E08C33FC830860023301F
:102A180087000030C03FC13FC23FC33FC03086007F
:102A2800233087000830C03FCF30C13F0030C23F5D
:102A38000030C33F42302300EB000030EC009630FA
:102A48008600233087004C31403F2100A800413FD9
:102A5800A900423FAA00433FAB009A316D2294314E
:102A6800210028082300A000210029082300A10034
:102A780021002A082300A200963086002330870010
:102A88004331403F2100B500413FB600423FB70007
:102A9800230023082100A800230024082100A900FE
:102AA800230025082100AA00230020082100AB00EC
:102AB800230021082100AC00230022082100AD00DA
:102AC80088315C20943121002808B8002908B90011
:102AD8002A08BA009231C922943121003508E4004D
:102AE8003608E5003708E600230029082100A80079
:102AF80023002A082100A90023002B082100AA008E
:102B08000030C5000030C6004030C7002300600810
:102B18002100B500230061082100B60023006208E7
:102B28002100B7006408B8006508B9006608BA0053
:102B38009231C922943121003508C8003608C900ED
:102B48003708CA009031C220943121004508AB00F3
:102B58004608AC004708AD0088315C20943121005C
:102B680028082300A600210029082300A700210027
:102B78002A082300A800C030860023308700403F81
:102B88002100A800413FA900423FAA00433FAB00F3
:102B98009A316D22943121002808B0002908B1002B
:102BA8002A08B200230026082100B30023002708C2
:102BB8002100B400230028082100B5009A313122F1
:102BC8009431031C042E230026082100B0002300A2
:102BD80027082100B100230028082100B2002400A2
:102BE80027082100B300240028082100B40024008D
:102BF80029082100B5009A313122943103180B2E8F
:102C080023002908A6002A08A7002B08A8002300EB
:102C180060082100C500230061082100C6002300C8
:102C280062082100C70096308600233087004631AD
:102C3800403FB500413FB600423FB700230020089F
:102C48002100A800230021082100A9002300220850
:102C58002100AA00230023082100A0002300240843
:102C68002100A100230025082100A20098318C2012
:102C7800943121002008AB002108AC002208AD00E7
:102C880088315C20943121002808B8002908B9004F
:102C98002A08BA009231C922943121003508C800A7
:102CA8003608C9003708CA009031C2209431210083
:102CB8004508E7004608E8004708E9006708A80053
:102CC8006808A9006908AA00230020082100B500A7
:102CD800230021082100B600230022082100B700A4
:102CE8009630860023308700403FB800413FB90046
:102CF800423FBA009231C922943121003508AB0015
:102D08003608AC003708AD0088315C2094312100CA
:102D18002808EA002908EB002A08EC002300260806
:102D28002100A800230027082100A9002300280863
:102D38002100AA006A08AB006B08AC006C08AD0063
:102D480088315C209431210028082400A400210047
:102D580029082400A50021002A082400A600230031
:102D68002608A9002708AA002808AB002008A30005
:102D78002108A4002208A500240024082100C50079
:102D8800240025082100C600240026082100C700C9
:102D98009F3179279431E030860023308700210065
:102DA8004508C03F4608C13F4708C23F4808C33FDF
:102DB800E030860023308700403FDB00413FDC00E5
:102DC800423FDD00433FDE005E08803ADF0000300E
:102DD800803A5F02031DFA2E00305D02031DFA2EB1
:102DE80000305C02031DFA2E01305B020318062F27
:102DF800E0308600233087000030C03FC13FC23F2B
:102E0800C33F4A2FE030860023308700403FDB0075
:102E1800413FDC00423FDD00433FDE00C03086001A
:102E280023308700403FDF00413FE000423FE100A0
:102E3800433FE2006208803AE3005E08803A63029A
:102E4800031D302F5D086102031D302F5C086002EE
:102E5800031D302F5B085F0203184A2FC03086001D
:102E680023308700403FDB00413FDC00423FDD006C
:102E7800433FDE00E0308600233087005B08C03F18
:102E88005C08C13F5D08C23F5E08C33FE030860072
:102E980023308700403F2400B600413FB70023009D
:102EA8006B082100A00023006C082100A100A201EA
:102EB800A301E030860023308700403FA400413F53
:102EC800A500423FA600433FA7009E3170269431DB
:102ED800210021082300CF01CF072100200823006B
:102EE800CE01CE074F086802031D7C2F4E086702EB
:102EF8000318832F6808CF01CF0767088F2F6A0848
:102F08004F02031D892F69084E020318912F6A0882
:102F1800CF01CF076908CE01CE0722003C08013A4D
:102F2800031DC72F3608013A031DC72F20006A0862
:102F38002100A901A907200069082100A801A80704
:102F480099312421943121002808B8002908B900B2
:102F58002A08BA006630B5006630B6004030B700BF
:102F68009231C922943121003508C5003608C600BF
:102F78003708C7009F317927943121004608D401CA
:102F8800D4074508E12F2200BC08031DE52F2300C4
:102F98004F082100A101A10723004E082100A0012C
:102FA800A0070030A2000030A300993164219431B9
:102FB80021002108D401D4072008D301D30799316F
:102FC800A42196308600233087004C31403F2100F1
:102FD800DB00413FDC00423FDD00433FDE00D430F0
:102FE8008600233087005B08C03F5C08C13F5D084E
:102FF800C23F5E08C33F08003F3400340634003443
:103008005B3400344F340034663400346D3400349B
:103018007D340034073400347F3400346F34003496
:1030280080340034773400347C340034393400344C
:103038005E34003479340034713400343D34003463
:1030480076340034063400341E34003470340034CE
:103058003834003455340034543400343F340034A8
:103068007334003467340034503400346D34003421
:10307800783400341C3400343E3400346A3400346C
:10308800683400346E340034893400340034003439
:1030980040340034FF340034003400340034003449
:1030A80000340034003400343F3400340634003433
:1030B8005B3400344F340034663400346D340034EB
:1030C8007D340034073400347F3400346F340034E6
:1030D800FF3400348531782D8531942D8531B02D1C
:0C30E8008531CC2D8531E82D8631042E79
:103118002100220821042004031908008030A20697
:1031280008002100A00023009E1C972821002008E9
:1031380023009A000800210019088739703899007F
:10314800FC309905C03098050800FE0012001E00EA
:103158000130FE020030FF3B7F087E040319003473
:10316800AA286400800101310130FE020030FF3BD3
:103178007F087E0403190034B628303430343034E4
:10318800303430343034303430345834FF345A34F6
:103198000134003480343F34FF34FF34FF34FF34CB
:1031A80020340334323400344734003401340134D9
:1031B800200095012100951195121508F839053858
:1031C80095008B130B130B118530200095008B167F
:1031D800080021008E14121425001A08F039053849
:1031E8009A002000970196019101213098008B17D1
:1031F8000B1708007808F0007908F100F2018E300A
:10320800FB007B08F300F4019B3166237008F8008B
:103218007108F9007208FA00080023009D172100C0
:103228000E138E1723001E119F111E1233309B00A0
:1032380020309E009E121D122100911211120800CA
:1032480021002808A0002908A100A2018E30AB00A7
:103258002B08A300A4019B31C62321002008A80045
:103268002108A9002208AA00080020006E082100F1
:10327800A10021082400D1002330983195209931EC
:10328800240051089831952099312400510898312B
:10329800952008001F3021008C008D018E0123002D
:1032A8008C018D0120008C018E0121008C140C15DD
:1032B8008C150C168E148E118C128E160C1008009C
:1032C8002100A401A501201C6D292208A4072308B8
:1032D800A53D0130A235A30D890B6E290130A13619
:1032E800A00C890B732921082004031D67292508D0
:1032F800A101A1072408A001A0070800F401F50115
:10330800F601F7017108F701F7077008F601F607EB
:103318007608F200F20E250013087206CF397206FD
:1033280093007708F3007608F200F336F20CF336D0
:10333800F20C7208F4007308F50074089100080094
:103348002100D701D801D901DA015408DA01DA07D6
:103358005308D901D9075908D500D50E25001308F7
:1033680021005506CF3955062500930021005A083B
:10337800D6005908D500D636D50CD636D50C550802
:10338800D7005608D80057082500910008002100EA
:10339800210820040319F329A501A50AA11BDE2988
:1033A8000130A035A10D890BD5290130A4002408CE
:1033B800A507D22921082302031DE4292008220297
:1033C800031CEA292008A2022108A33B0130A136E8
:1033D800A00C890BEB290130A502031DDE29230867
:1033E800A101A1072208A001A00708002100A5014A
:1033F800A6012108200403192A2AA701A70AA11B4C
:103408000F2A0130A035A10D890B062A0130A4002E
:103418002408A707032A0130A535A60D890B102A11
:1034280021082302031D1A2A20082202031C212A2C
:103438002008A2022108A33B25140130A136A00CC4
:10344800890B222A0130A702031D0F2A2608A10191
:10345800A1072508A001A00708002100B21F482ADB
:103468003009B6003109B7003209B800B60A0319A5
:10347800B70A0319B80A00303607B0000030373DE4
:10348800B1008030383DB200B51F5E2A3309B6005E
:103498003409B7003509B800B60A0319B70A031981
:1034A800B80A00303607B3000030373DB40080302A
:1034B800383DB5008030B2068030B5063508320296
:1034C800031D080034083102031D080033083002C8
:1034D80008002100AF018E30AC002C08AE00AB1FF5
:1034E800822AA809A909AA09AB09A80A0319A90ADD
:1034F8000319AA0A0319AB0AAF01AF0AFF302B055B
:103508000319922A0130AB36AA0CA90CA80C890B16
:10351800872A0130AC002C08AE07822A2808A000B0
:103528002908A1002A08A2002E08AC002C08A30034
:103538002F08AD002D08A4009B31C62321002008C8
:10354800A8002108A9002208AA0008002100A30158
:10355800A401A301A40120000C0C890C013921004D
:10356800A000A1012008A3002108A4002335A3007E
:10357800240DA40020000C0C01392100A000230810
:103588002004A1002408A2002108A3002208A40006
:1035980003302305A30000302405A40024082000DC
:1035A800D701D707210023082000D601D6075608DF
:1035B8002100A00020082000E5002300400820008A
:1035C80065062100A000230041082100A100210870
:1035D80020040319FB2A200057082300C101C10752
:1035E800200056082300C001C00701300800200051
:1035F80057082300C101C107200056082300C00155
:10360800C007003008002100A401A501A401A501FC
:1036180020000C0E01392100A000A1012008A400FF
:103628002108A5002435A400250DA50020000C0CB8
:103638002100A000A00C200C0139A10024082104BD
:10364800A2002508A3002208A4002308A50003302F
:103658002405A40000302505A50025082000D50173
:10366800D507210024082000D401D40754082100DC
:10367800A00020082000E50023003E082000650681
:103688002100A00023003F082100A10021082004F8
:1036980003195A2B200055082300BF01BF0720003B
:1036A80054082300BE01BE07013008002000550859
:1036B8002300BF01BF07200054082300BE01BE0736
:1036C80000300800730803196E2B72087104700427
:1036D800031D7F2B0030F0000030F1000030F200B5
:1036E80008000130F5007508F3070130F236F10CD7
:1036F800F00C890B7A2BFE3072050319982B752B69
:103708000130F5007508F3070130F00700300318A1
:103718000130F107003003180130F2070130F236AA
:10372800F10CF00C890B932BFF3072050319A52BB4
:10373800842B0130F3020130F035F10DF20D890BC5
:10374800A02BF11F9D2B7318AF2BFF30F0057F3096
:10375800F105FF30F2050310F30C7308F500F601CC
:10376800F7011030F535F60DF70D890BB62B7508F6
:10377800F0047608F1047708F204740803190800C5
:10378800F2170800210023080319CF2B220821046F
:103798002004031DE02B0030A0000030A100003001
:1037A800A20008000130A5002508A3070130A236B1
:1037B800A10CA00C890BDB2BFE3022050319F92B79
:1037C800D62B0130A5002508A3070130A00700303B
:1037D80003180130A107003003180130A207013097
:1037E800A236A10CA00C890BF42BFF30220503197B
:1037F800062CE52B0130A3020130A035A10DA20D46
:10380800890B012CA11FFE2B2318102CFF30A005BB
:103818007F30A105FF30A2050310A30C2308A500E3
:10382800A601A7011030A535A60DA70D890B172CE9
:103838002508A0042608A1042708A20424080319BF
:103848000800A21708000A302100A0000030A100DB
:103858002908A301A3072808A201A2079931CB21AF
:103868009C3121002008AA002A082200E6000A301C
:103878002100A0000030A1002908A301A3072808FF
:10388800A201A2079931FA219C3121002108A9013E
:10389800A9072008A801A8070A30A0000030A10045
:1038A8002908A301A3072808A201A2079931CB215F
:1038B8009C3121002008AA002A082200E5000A30CD
:1038C8002100A0000030A1002908A301A3072808AF
:1038D800A201A2079931FA219C3121002108A901EE
:1038E800A9072008A801A8070A30A0000030A100F5
:1038F8002908A301A3072808A201A2079931CB210F
:1039080021002008AA002A082200E40008000A3042
:103918002100A0000030A1002908A301A30728085E
:10392800A201A2079931CB219C3121002008AA00CD
:103938002A082200E9000A302100A0000030A10076
:103948002908A301A3072808A201A2079931FA218F
:103958009C3121002108A901A9072008A801A8076E
:103968000A30A0000030A1002908A301A3072808F5
:10397800A201A2079931CB219C3121002008AA007D
:103988002A082200E8000A302100A0000030A10027
:103998002908A301A3072808A201A2079931FA213F
:1039A8009C3121002108A901A9072008A801A8071E
:1039B8000A30A0000030A1002908A301A3072808A5
:1039C800A201A2079931CB2121002008AA002A08C8
:1039D8002200E700EA01EB0108002100A6019A3164
:1039E800AA229C31013A031D6C2D2200C008031D38
:1039F8001E2DD508031D1E2D023020005606570423
:103A0800031D112D2200C001C00AD501CC01CC0A2A
:103A180024302100A5002508A60001302000560604
:103A28005704031D6C2D2200C001C00AD501C60130
:103A3800C60A672D22004008013A031D322DD50819
:103A4800031D322D0330200056065704031D6C2D2C
:103A58002200C001C00AD501D50A672D22004008FE
:103A6800013A031D632D5508013A031D632D0130EA
:103A7800200056065704031D4D2D22004C08013A1C
:103A8800031D4D2DC001CC012B302100A5002508B8
:103A9800A6000230200056065704031D5F2D2200A1
:103AA8004608013A031D5F2DC001C6012D302100D3
:103AB800A5002508A6002200C001D5016C2DCC0167
:103AC800C601C001D50124302100A5002508A600A3
:103AD8002100260808002100A7019B3107239D31FA
:103AE800013A031DEB2D2200BF08031D9C2DD408AD
:103AF800031D9C2D0230200054065504031D8F2DF4
:103B08002200BF01BF0AD401CB01CB0A2430210017
:103B1800A6002608A7000130200054065504031DFE
:103B2800EB2D2200BF01BF0AD401C501C50AE62D4D
:103B380022003F08013A031DB02DD408031DB02D03
:103B48000330200054065504031DEB2D2200BF014D
:103B5800BF0AD401D40AE62D22003F08013A031D0A
:103B6800E22D5408013A031DE22D013020005406CD
:103B78005504031DCC2D22004B08013A031DCC2D02
:103B8800BF01BF0ACB012B302100A6002608A700E1
:103B98000230200054065504031DDE2D220045087E
:103BA800013A031DDE2DBF01C5012D302100A600FD
:103BB8002608A7002200BF01D401EB2DCB01C501C7
:103BC800BF01D40124302100A6002608A700210047
:103BD800270808002000A101F31FFF2DF009F109B3
:103BE800F209F309F00A0319F10A0319F20A031991
:103BF800F30AA101A10AF71F102EF409F509F60925
:103C0800F709F40A0319F50A0319F60A0319F70A5A
:103C18000130F8007808A1060030A5000030A400A3
:103C28000030A3000030A20073087204710470040D
:103C38000319592EA001A00AF31B2E2E0130F035CE
:103C4800F10DF20DF30D890B232E0130F8007808E1
:103C5800A007202E0130A235A30DA40DA50D890BB8
:103C68002F2E73087702031D432E72087602031D58
:103C7800432E71087502031D432E70087402031C3D
:103C88004E2E7008F4027108F53B7208F63B730873
:103C9800F73B22140130F336F20CF10CF00C890BCF
:103CA8004F2E0130A002031D2E2E21080319672E66
:103CB800A209A309A409A509A20A0319A30A0319B9
:103CC800A40A0319A50A2508F3002408F20023080A
:103CD800F1002208F00008002100AA01A31F812E8C
:103CE800A009A109A209A309A00A0319A10A031995
:103CF800A20A0319A30AAA01AA0AA71F922EA409B5
:103D0800A509A609A709A40A0319A50A0319A60A59
:103D18000319A70A0130A8002808AA060030AE0037
:103D28000030AD000030AC000030AB0023082204A6
:103D3800210420040319DB2EA901A90AA31BB02E14
:103D48000130A035A10DA20DA30D890BA52E0130C0
:103D5800A8002808A907A22E0130AB35AC0DAD0D7F
:103D6800AE0D890BB12E23082702031DC52E22088C
:103D78002602031DC52E21082502031DC52E200875
:103D88002402031CD02E2008A4022108A53B2208E7
:103D9800A63B2308A73B2B140130A336A20CA10C89
:103DA800A00C890BD12E0130A902031DB02E2A08C0
:103DB8000319E92EAB09AC09AD09AE09AB0A031921
:103DC800AC0A0319AD0A0319AE0A2E08A3002D0880
:103DD800A2002C08A1002B08A000080020003D0824
:103DE800C1003E08C2003F08C3000310420D430D46
:103DF800C4004408CA00CA08031D0B2F0030C000C5
:103E08000030BF000030BE000030BD0008003D0893
:103E1800C1003E08C2003F08C3001730C336C20CB9
:103E2800C10C890B122F4108C4004408C500BE17F5
:103E3800FF30BD05FF30BE050030BF053D08C60098
:103E48003E08C7003F08C800C9018E30CA02CA1F11
:103E5800492F4A08803A8F3E03183B2F0030C00094
:103E68000030BF000030BE000030BD000800013047
:103E7800C936C80CC70CC60C890B3C2F0130C100D1
:103E88004108CA070319622F3B2F18304A02031C46
:103E98005F2F0030C0000030BF000030BE0000308F
:103EA800BD0008000130C635C70DC80DC90D890B06
:103EB800572F0130CA02CA08031D562F4508031997
:103EC800702FC609C709C809C909C60A0319C70A4C
:103ED8000319C80A0319C90A4908C0004808BF00DD
:103EE8004708BE004608BD00080021004508C90073
:103EF8004608CA004708CB0003104A0D4B0DCC00FA
:103F08004C08D200D208031D922F0030C8000030A0
:103F1800C7000030C6000030C50008004508C900C9
:103F28004608CA004708CB001730CB36CA0CC90C64
:103F3800890B992F4908CC004C08CD00C617FF30D3
:103F4800C505FF30C6050030C7054508CE00460840
:103F5800CF004708D000D1018E30D202D21FD02F17
:103F68005208803A8F3E0318C22F0030C800003034
:103F7800C7000030C6000030C50008000130D13647
:103F8800D00CCF0CCE0C890BC32F0130C9004908C7
:103F9800D2070319E92FC22F18305202031CE62F4B
:103FA8000030C8000030C7000030C6000030C5002F
:103FB80008000130CE35CF0DD00DD10D890BDE2F85
:103FC8000130D202D208031DDD2F4D080319F72F47
:103FD800CE09CF09D009D109CE0A0319CF0A03198E
:103FE800D00A0319D10A5108C8005008C7004F0861
:083FF800C6004E08C5000800D8
:020000040001F9
:04000E0064C8FFFFC4
:00000001FF
