:020000040000fa
:08000000fc7c0400000000007c
:020000040000fa
:10020000889fbe008a9fbe00010578000100e000c3
:100210000400350008003c000000e000200032002f
:100220000500370060001000e080180002003b006d
:1002300001f02c001a0037000004be006011b80065
:100240006b0920000982cf00020039000882cf002c
:100250000441b000694252000e00320008003b0029
:1002600082817100610164008904d1000884d30097
:100270008b05e8000442e800f9ff3a00050037006a
:100280000804440089844c008b05e9000442e9001d
:10029000fbff3a002e0107000af0a70001f0a000c2
:1002a0004f05be004f04be000000060003f0a20090
:1002b000889fbe008a9fbe008c1f78004a010700fd
:1002c000510133006450e1004f0032006420e1002e
:1002d0005200320003826c0007003b000905d00089
:1002e0000306d000820f54000c065d0002003900a6
:1002f00002003200890178000306780085825500eb
:1003000004003d000003fd008103fd008502ea00ba
:100310008b854200840f720002003b0060001000d9
:10032000e08018006011b8000005eb007a28e100b9
:100330000a00390006007800c75ddd00f707b2004b
:10034000878075002d003700828171000a017800d6
:10035000610560008180d1000080d3008502e90042
:10036000f9ff3b00060440008784480002003b0080
:1003700060041400e0841c000988a3000700320018
:100380008a81710082817100610164008904d10059
:100390000884d3008b05e800170037000978a30014
:1003a00013003a000b00e000130034008b05e90055
:1003b0000804440089844c000a4474000978a300ae
:1003c0000d003a000b00e000070034008b05e90047
:1003d0000804440089844c0001003a000b0020000e
:1003e0000978a300f7ff32000001eb00020037009c
:1003f000828171000a017800d50007000cf0a70087
:1004000001f0a000090137006420e10002003a0079
:10041000838f6c00090133000801be000200be009a
:1004200002013700889fbe008a9fbe008c1f7800a3
:10043000ed000700f400330003866c006450e10017
:100440002e0032006420e100330032006150e100f0
:100450002f0032006120e100310032008585550017
:10046000eb07b00009002000080420000500370059
:100470000804440089844c000a003100060343004c
:1004800087834b000001530081815b00f8ff33003c
:100490000203be000800a0000804440089844c0048
:1004a000f6ff3900c639dd00830173000100320018
:1004b000130020008904d1000884d3000998a30008
:1004c000050032000800a7000300a0008904d10045
:1004d0000884d3008b05e8008904d1000884d30088
:1004e0000001eb000281d2009900070001f0a10099
:1004f0000cf0a70001f0a000cc0037006420e10060
:10050000ce0032000801be000200be00f7ff370037
:100510006120e100c90032006000b800f3ff37003d
:100520000000200001f82700f0ff3700889fbe0080
:100530008a9fbe008c1f7800ab000700b20033001a
:1005400003866c006450e100240032006420e10066
:10055000270032006150e100220032006120e100fa
:10056000210032008b854200eb07b1000134b80056
:10057000003ab8000804420089844a00013ab800f1
:100580000030b8008880400009014a0004003300b0
:100590000000400081804800020149008b05e9000d
:1005a000c909dd0083017000010032001300200042
:1005b000c814de004814dd004709de001200b20056
:1005c000c808de00088470006100070001f0a10087
:1005d0000cf0a70001f0a000940037006120e100ba
:1005e000960032000801be000200be00f7ff37008f
:1005f0006150e100fcff3a00900037001400200039
:1006000091003700f4ff2f008f0037000001be007b
:10061000a80007000470a70003f0a10003f8a300de
:1006200013003a006509b1001000320009003500de
:100630006928e100020035000100280000000500e3
:1006400000004000818048008502e900fcff3a007c
:1006500000000600f88f4200050035008100d1003f
:100660000080d3008502e800fcff3a00000006008d
:100670008000eb00000005000001be008d000700b7
:100680000470a70003f0a1006509b1001600320054
:100690000d0035006828e10006003500f0ff2f004e
:1006a000f1ff27000300e00013003b0001002800d9
:1006b0000000050000004000818048008502e9003c
:1006c000fcff3a0008003700f88f420002003c00af
:1006d0008000eb00000005008100d1000080d30005
:1006e0008502e800fcff3a000300e00002003b0046
:1006f00060001000e0801800000006000200070003
:100700000400be00000006006022b80006022000bf
:100710000000d0008180d2000482d2008582d20005
:100720000000a0000202520083825a000300310040
:100730000202420083824a000000a1000603e90091
:10074000f3ff3a0000000600040020003e003700de
:1007500081002000618055000b003d000b0020004f
:1007600061fe2f000100e1001d0034008281710054
:10077000610164008904d1000884d3000000e8000e
:10078000faff3a007100200061006400030070006d
:10079000020060000900320061044400e0844c0063
:1007a0000988a500050032008b05e8006808e10013
:1007b00002003a008904d1000884d300f20f20001f
:1007c0000258e10005003d00c75ddd00f907b200f9
:1007d0008980750008007800000006000bf82700eb
:1007e0008b007800000005000004be003100070007
:1007f0000003be000405be000200be002d0007007d
:10080000844f7500000006000200be006450e10045
:10081000050036006420e100020036000968a300ec
:1008200001003a000800be000160a0004f067800f9
:100830004f05be004f04be0000000600f0ff2f0071
:10084000f1ff2700f9ff3700889fbe008a9fbe0096
:10085000841f7800e4ff07004f0078001100330088
:10086000f0ff2f00838f6c0006003b00040565003d
:100870000a00a7000800370009f0a60010002000b9
:1008800008003700820f5400838f5c00030039009a
:100890001000200001003e000000200009f0a70029
:1008a0000000ea004f05be004f04be000000e0005b
:1008b00000000600c70ade00f107b200f50fb20023
:1008c00008003200e1cf4200020032000170a000b7
:1008d00024000500810f70000100320004080500ab
:1008e00044000500810f700002003a00140005006a
:1008f0008502e9000000400081c04800fcff3b0089
:100900000170a000240005000200fa001e0007008c
:10091000610007002df4b7002dd4bf00e14f500057
:1009200006003a000040eb002df4b7006600070017
:10093000004f7800d100070002003700a0c5b300c7
:10094000004f78001e80fb000080fa0000000600c7
:100950000000fa00d202a800d222a800d242a800c9
:10096000c602a800cc42a900dec2a900d2a2a900fa
:10097000d2c2a9000080fa00000006000000fa00c0
:100980000080fa00000006000000fa00d042a80033
:10099000e2c2a800d6a2a800d6c2a8000080fa0031
:1009a000000006000200fa00d4c2bf0061406000ef
:1009b0000004e000030032000000eb00000f7800ac
:1009c00017003700d4c2bf00624060000004e0009e
:1009d0000300320010002000000f780010003700e4
:1009e000d4c2bf00644060000004e0000300320095
:1009f00020002000000f780009003700c8c2bf00a7
:100a0000614060000004e00003003200300020007c
:100a1000000f780002003700f00f2000000f780070
:100a20001e0078000080fa00000006000200fa00b4
:100a3000d5ff070087000700d4c2bf0061406000f7
:100a40000004e0000f003a00d4c2bf006240600022
:100a50000004e0000b003a00d4c2bf006440600014
:100a60000004e00007003a00c8c2bf006140600017
:100a70000004e00003003a0010c0b300004f78000b
:100a8000020037000040eb00004f78001e80fb00a2
:100a90000080fa00000006000200fa00c1ff070013
:100aa000e14f40000300320010002000000f7800ea
:100ab000020037000000eb00000f78001e007800f5
:100ac0000080fa00000006000600fa00a0ff070000
:100ad0000040eb0010479800090037001e409000ce
:100ae0001f000700204798002e409000e14f400073
:100af00006003a001e4090000040e80010479800b1
:100b00001e409000e34f5000f4ff36001e4090005e
:100b1000e44f500005003a0080c5b300004f780054
:100b20001e80fb00200798000a0037002e4090002e
:100b30000081fb001e4090008080fb004210dd0021
:100b40008100400000862900614f78001e80fb0074
:100b5000200798002e0090000080fa000000060098
:100b60000400fa00004f78001e80fb001007980078
:100b70001e009000e10f5000100032001e00900097
:100b8000e10f500004003c001e0090000000e00057
:100b9000080032000e0037001e009000e20f5000e7
:100ba000080032001e009000e30f500007003200e2
:100bb000070037000b000700050037001000070092
:100bc0000300370015000700010037001a00070076
:100bd0002000070073ff07000080fb000080fa0080
:100be000000006000000fa00d042a800e2c2a900fe
:100bf000d6a2a900d6c2a9000080fa000000060013
:100c00000000fa00d042a900e2c2a800d6a2a900c2
:100c1000d6c2a9000080fa00000006000000fa0019
:100c2000d042a900e2c2a900d6a2a800d6c2a9005b
:100c30000080fa00000006000000fa00d042a9007f
:100c4000e2c2a900d6a2a900d6c2a8000080fa007c
:100c5000000006000200fa000000eb00000f780020
:100c6000010037001e0fe800c05d20009e0f10003d
:100c7000fcff36000080fa00000006000000fa00c9
:100c8000f4ff0700f3ff0700f2ff0700f1ff070082
:100c9000f0ff0700efff07000080fa0000000600e9
:100ca0007600fa00881f7800004f780086c8bf00e1
:100cb000e14f500005003a0070c4b3009e4f100091
:100cc0000200320060c5b300004f78009ec8bf002c
:100cd000e14f500005003a0030c4b3009e4f1000b1
:100ce0000200320060c5b300004f7800e0c4b300da
:100cf0009e4f100047013a000040eb00004f780083
:100d000010c0b3005ae9b70083c0a9009102800067
:100d1000f0ff2300008070009002880083c0a800cc
:100d2000514721009140780000c8b30000c0600026
:100d30000004e0004d003a007494a90077f4a80084
:100d400077d4a80075f4a800e00220005a0d07002f
:100d50008048880081488000f0f72f008080600084
:100d600000082000008070008048880081488000d2
:100d7000e00220006d0d070077d4bf008080fb00eb
:100d800000032000690d0700c00220004a0d070083
:100d90008048880081488000f0ff2e0000806000bd
:100da0008048880081488000c00220005f0d070055
:100db00010c0b30051e9b70051c9bf008080fb00eb
:100dc00080042000590d07001219070000c0eb0035
:100dd00073f4b70000c0eb0074f4b70000c0eb0080
:100de00075f4b70000c0eb0076f4b70000c0eb006c
:100df00077f4b7007494a90077f4a80077d4a8001a
:100e000075f4a800d1c2a900d1e2a8007334a900ea
:100e10000000eb00804588000d0037000000eb006b
:100e20009045880003003700904580000000e800ee
:100e3000904588009145800030062000808f50004a
:100e4000f9ff3600804580000000e80080458800fa
:100e500081458000803e2000808f5000efff3600eb
:100e6000b0a58000ce130700e700370074d4bf00a0
:100e7000704060000004e00051003a007494a80043
:100e800077f4a80077d4a90075f4a800c002200068
:100e9000090d07008048880081488000f0ff2e007f
:100ea0008080600000002100008070008048880081
:100eb00081488000c00220001c0d0700e0022000d5
:100ec000fd0c07008048880081488000f0f72f0063
:100ed000808060000008200000807000804888004a
:100ee00081488000e0022000100d070077d4bf0089
:100ef0008080fb00000320000c0d070020c0b30021
:100f000051e9b70051c9bf008080fb008004200078
:100f1000060d0700bf18070000c0eb0073f4b70010
:100f200000c0eb0074f4b70000c0eb0075f4b7002c
:100f300000c0eb0076f4b70000c0eb0077f4b70018
:100f40007494a80077f4a80077d4a90075f4a800d9
:100f50007334a900d1e2a80010c0b300fce8b700c8
:100f6000d1c2a8000000eb00804588000d003700ca
:100f70000000eb009045880003003700904580009a
:100f80000000e80090458800914580003006200070
:100f9000808f5000f9ff3600804580000000e80097
:100fa0008045880081458000803e2000808f500071
:100fb000efff3600b0a580007913070092003700dc
:100fc00077d4bf000044b2000004e00044003a00bf
:100fd00060a58000304988003049800050a4880016
:100fe0007494a80077f4a90077d4a80075f4a80039
:100ff000c0022000b00c07008048880081488000b3
:10100000f0ff2e0080806000000021000080700052
:101010008048880081488000c0022000c30c07007f
:10102000e0022000a40c070080488800814880006e
:10103000f0f72f0080806000000820000080700022
:101040008048880081488000e0022000b70c07003b
:1010500077d4bf008080fb0000032000b30c0700a2
:1010600030c0b30051e9b70051c9bf008080fb0018
:1010700080042000ad0c070066180700d1e2a9002b
:101080000040eb00fce8b700d1c2a8000000eb0074
:10109000804588000d0037000000eb009045880077
:1010a00003003700904580000000e800904588006c
:1010b0009145800030062000808f5000f9ff3600f7
:1010c000804580000000e800804588008145800060
:1010d000803e2000808f5000efff36004a0037002e
:1010e00077d4bf0001c8b300014060000004e000f5
:1010f00045003a0060a580003049880030498000f2
:1011000050a488007494a80077f4a80077d4a800ad
:1011100075f4a900c0022000670c07008048880011
:1011200081488000f0ff2e008080600000002100d8
:10113000008070008048880081488000c002200044
:101140007a0c0700e00220005b0c07008048880052
:1011500081488000f0f72f00008060008048880000
:1011600081488000e0022000700c070077d4bf00a7
:101170008080fb00000320006c0c070040c0b3001f
:1011800051e9b70051c9bf008080fb0080042000f6
:10119000660c07001f1807007494a80077f4a800d5
:1011a00077d4a80075f4a900d1e2a9000040eb00b3
:1011b000fce8b700d1c2a8000000eb008045880021
:1011c0000d0037000000eb00904588000300370059
:1011d000904580000000e80090458800914580001f
:1011e00030062000808f5000f9ff360080458000d7
:1011f0000000e8008045880081458000803e200096
:10120000808f5000efff360010c0b30061e8b700d8
:101210007f07370080c4b3009e4f10006e023a0073
:101220000040eb00004f78007147210091407800aa
:1012300000c8b30000c060000004e00005003200f8
:1012400075d4bf0001c8b300014060000004e00095
:101250006f073a0076d4bf00704060000004e000e1
:10126000dd00320076d4bf000042b2000004e0008e
:10127000d900320076d4bf000044b2000004e00080
:10128000d500320074d4bf00684060000004e00064
:101290002a003a001dc8bf000004e00027003a0001
:1012a00000c0eb0074f4b7007414a90010c0b300c0
:1012b0001de8b7003147210091407800b0cfb3005e
:1012c00000c0700073f4b70073f4a900d8a38000c5
:1012d0006140b900cafb0700103f9800213f980009
:1012e0000800e00007003d00020020000378240011
:1012f0001e389000ae389000edfb0700103f9800bc
:10130000213f98001e399000ae399000103d210019
:10131000bd15070018e8b70000c5b300cef3b7004d
:1013200020c5b300cff3b70050c4b300d0f3b7006b
:1013300030c0b30017e8b7003507370074d4bf00da
:10134000614060000004e00025003a0000c0eb00ae
:1013500074f4b7007474a9003147210091407800fb
:10136000b0cfb30000c0700073f4b7007334a900ad
:1013700073d4a900d2418000e3418000e03c210009
:10138000a115070017e8b70018a580006140b90053
:101390009bfb070070379800013f98000800e000b1
:1013a00007003d0002002000037824007e309000fa
:1013b0008e389000befb070070379800013f980000
:1013c0007e3190008e399000103d21008e1507006f
:1013d00018e8b70000c3b300d3f3b7000c07370019
:1013e00074d4bf00684060000004e0001f003a00b1
:1013f00000c0eb0074f4b70074d4a9003147210099
:1014000091407800b0cfb30000c0700073f4b70013
:1014100073f4a9000040eb00aef4b7000040eb000d
:10142000aff4b70010c0b300b0f4b7000040eb0059
:10143000b1f4b700a2418000b3418000103d21000b
:101440007115070018e8b70020c4b300cef3b70049
:1014500020c5b300cff3b700e0c4b300d0f3b700aa
:1014600030c0b30017e8b700e906370074d4bf00f6
:101470000044b2000004e0002d003a0000c0eb0080
:1014800074f4b70074f4a90031472100914078004a
:10149000b0cfb30000c0700073f4b70073f4a900bc
:1014a0000040eb00aef4b7000040eb00aff4b70033
:1014b0000040eb00b0f4b70010c0b300b1f4b700c7
:1014c000e8a480006140b9004dfb07005037980048
:1014d000613798000800e00007003d00020020008e
:1014e000037824005e309000ee30900070fb07001f
:1014f00050379800613798005e319000ee319000cf
:10150000103d21004015070018e8b70000c5b300e2
:10151000cef3b70030c5b300cff3b70040c5b3007a
:10152000d0f3b70030c0b30017e8b700b8063700f3
:1015300074d4bf0001c8b300014060000004e000a3
:10154000b3063a0000c0eb0074f4b7007414a900ad
:101550003147210091407800b0cfb30000c0700047
:1015600073f4b70073f4a900d8a380006140b900f8
:1015700023fb070030379800413798000800e0004f
:1015800007003d0002002000037824003e30900058
:10159000ce30900046fb0700303798004137980066
:1015a0003e319000ce319000103d2100161507000d
:1015b00018e8b70000c5b300cef3b70020c5b300ec
:1015c000cff3b70050c4b300d0f3b70030c0b300be
:1015d00017e8b7008e06370076d4bf000044b2008b
:1015e0000004e0000a013a0074d4bf0068406000c3
:1015f0000004e0002a003a001dc8bf000004e0001b
:1016000027003a0000c0eb0074f4b7007414a9007e
:1016100010c0b3001de8b7003147210091407800a9
:10162000b0cfb30000c0700073f4b70073f4a9002a
:10163000d8a380006140b900f1fa07001037980084
:10164000213798000800e00007003d00020020005c
:10165000037824001e309000ae30900014fb070089
:1016600010379800213798001e319000ae3190005d
:10167000103d2100e414070018e8b70000c5b300ce
:10168000cef3b70020c5b300cff3b70050c4b3000a
:10169000d0f3b70030c0b30017e8b7005c063700de
:1016a00074d4bf00614060000004e00025003a00ef
:1016b00000c0eb0074f4b7007474a9003147210036
:1016c00091407800b0cfb30000c0700073f4b70051
:1016d0007334a90073d4a900d2418000e341800093
:1016e000e03c2100c814070017e8b70018a58000e7
:1016f0006140b900c2fa0700702f980001379800c6
:101700000800e00007003d000200200003782400ec
:101710007e2890008e309000e5fa0700702f980028
:10172000013798007e2990008e319000103d2100f5
:10173000b514070018e8b70000c3b300d3f3b7002f
:101740003306370074d4bf00684060000004e00036
:1017500031003a0000c0eb0074f4b70074b4a90083
:101760003147210091407800b0cfb30000c0700035
:1017700073f4b7007374a9007394a90098a480004f
:101780006140b9009efa0700502f9800612f980021
:101790000800e00007003d0002002000037824005c
:1017a0005e289000ee289000c1fa0700502f9800a4
:1017b000612f98005e299000ee299000e03c210006
:1017c0009114070017e8b700a8a480006140b90091
:1017d0008bfa0700302f9800412f98000800e00096
:1017e00007003d0002002000037824003e289000fe
:1017f000ce289000aefa0700302f9800412f9800b5
:101800003e299000ce299000103d21007e14070053
:1018100018e8b700fe05370074d4bf000042b200dc
:101820000004e0001f003a0000c0eb0074f4b700b1
:1018300074d4a9003147210091407800b0cfb300a3
:1018400000c0700073f4b70073f4a9000040eb000f
:10185000aef4b7000040eb00aff4b70010c0b30027
:10186000b0f4b7000040eb00b1f4b700a241800033
:10187000b3418000103d21006314070018e8b70051
:1018800020c4b300cef3b70020c5b300cff3b70038
:10189000e0c4b300d0f3b70030c0b30017e8b7001e
:1018a000db05370074d4bf000044b2000004e00040
:1018b0002d003a0000c0eb0074f4b70074f4a900e6
:1018c0003147210091407800b0cfb30000c07000d4
:1018d00073f4b70073f4a9000040eb00aef4b70056
:1018e0000040eb00aff4b7000040eb00b0f4b700ed
:1018f00010c0b300b1f4b700e8a480006140b900a3
:101900003ffa0700102f9800212f98000800e000f0
:1019100007003d0002002000037824001e289000ec
:10192000ae28900062fa0700102f9800212f98002f
:101930001e299000ae299000103d210032140700ae
:1019400018e8b70000c5b300cef3b70030c5b30048
:10195000cff3b70040c5b300d0f3b70030c0b30039
:1019600017e8b700aa05370074d4bf0001c8b30058
:10197000014060000004e000a5053a0000c0eb0053
:1019800074f4b7007414a900314721009140780025
:10199000b0cfb30000c0700073f4b70073f4a900b7
:1019a000d8a380006140b90015fa0700702798009d
:1019b000012f98000800e00007003d000200200011
:1019c000037824007e2090008e28900038fa0700cb
:1019d00070279800012f98007e2190008e2990009a
:1019e000103d21000814070018e8b70000c5b30037
:1019f000cef3b70020c5b300cff3b70050c4b30097
:101a0000d0f3b70030c0b30017e8b7008005370047
:101a100074d4bf0001c8b300014060000004e000be
:101a200025003a0000c0eb0074f4b7007474a900fc
:101a30003147210091407800b0cfb30000c0700062
:101a400073f4b7007334a90073d4a900d2418000a5
:101a5000e3418000e03c2100eb13070017e8b700ea
:101a600018a580006140b900e5f9070050279800eb
:101a7000612798000800e00007003d0002002000f8
:101a8000037824005e209000ee20900008fa070002
:101a900050279800612798005e219000ee21900069
:101aa000103d2100d813070018e8b70000c3b300a9
:101ab000d3f3b7005605370074d4bf006840600008
:101ac0000004e00019003a0000c0eb0074f4b70015
:101ad00074d4a9000040eb00aef4b7000040eb0066
:101ae000aff4b70010c0b300b0f4b7000040eb0093
:101af000b1f4b700a2418000b3418000103d210045
:101b0000c113070018e8b70020c4b300cef3b70034
:101b100020c5b300cff3b700e0c4b300d0f3b700e3
:101b200030c0b30017e8b7003905370074d4bf00e0
:101b30000044b2000004e00035053a0000c0eb00ac
:101b400074f4b70074f4a9000040eb00aef4b700e1
:101b50000040eb00aff4b7000040eb00b0f4b7007a
:101b600010c0b300b1f4b700e8a480006140b90030
:101b7000a3f9070030279800412798000800e000eb
:101b800007003d0002002000037824003e20900062
:101b9000ce209000c6f90700302798004127980012
:101ba0003e219000ce219000103d210096130700a9
:101bb00018e8b70000c5b300cef3b70030c5b300d6
:101bc000cff3b70040c5b300d0f3b70030c0b300c7
:101bd00017e8b7000e05370060c4b3009e4f100031
:101be00032003a000040eb00004f780051c9bf00be
:101bf000e34f500006053a0075d4bf007040600006
:101c00000004e0000b003a007594a80075b4a90028
:101c10007514a9007534a8007554a8007574a8003f
:101c20007614a9007634a8007654a8007674a8002b
:101c3000f704370075d4bf000042b2000004e00092
:101c40000b003a0075b4a80075d4a9007514a8005b
:101c50007534a8007554a9007574a8007614a800fe
:101c60007634a8007654a9007674a800e8043700fa
:101c700075d4bf000044b2000004e000e4043a0060
:101c800075d4a8007594a9007514a9007534a8002e
:101c90007554a8007574a8007614a9007634a800bd
:101ca0007654a8007674a800d9043700a0c4b30005
:101cb0009e4f100055003a000040eb00004f7800a6
:101cc00051c9bf00e34f50003b003a0075d4bf003c
:101cd000704060000004e0001c003a0075d4bf00b2
:101ce000614060000004e00003003a007514a800a1
:101cf0007534a900c604370075d4bf006240600087
:101d00000004e00003003a007534a8007554a900ef
:101d1000bf04370075d4bf00644060000004e000d9
:101d200003003a007554a8007574a900b804370080
:101d300075d4bf00684060000004e000b4043a00bd
:101d40007574a8007514a900b104370075d4bf00dc
:101d50000042b2000004e0000e003a0075d4bf005b
:101d6000614060000004e00003003a007514a80020
:101d70007554a900a604370075d4bf006440600004
:101d80000004e000a2043a007554a8007514a900ec
:101d90009f04370075d4bf000044b2000004e00087
:101da0009b043a007514a8007534a8007554a90066
:101db0007574a8009604370051c9bf00e44f500065
:101dc00093043a0075d4bf00704060000004e00046
:101dd0008f043a0075d4bf00644060000004e00046
:101de00003003a007554a8007574a90088043700f0
:101df00075d4bf00684060000004e00084043a002d
:101e00007574a8007554a9008104370020c4b3007c
:101e10009e4f100042003a000040eb00004f780057
:101e200051c9bf00e34f50002d003a0075d4bf00e8
:101e3000704060000004e0000e003a0076d4bf005d
:101e4000614060000004e00003003a007614a8003e
:101e50007634a9006e04370076d4bf00624060007b
:101e60000004e0006a043a007634a8007614a90061
:101e70006704370075d4bf000042b2000004e000e0
:101e80000e003a0076d4bf00614060000004e0001c
:101e900003003a007614a8007674a9005c043700a9
:101ea00076d4bf00684060000004e00058043a00a7
:101eb0007674a8007614a9005504370075d4bf00c5
:101ec0000044b2000004e00051043a007614a80077
:101ed0007634a8007654a9007674a8004c04370024
:101ee00051c9bf00e44f500049043a0075d4bf0007
:101ef000704060000004e00045043a0076d4bf0062
:101f0000624060000004e00041043a007614a8003a
:101f10007634a9007654a8007674a8003c043700f3
:101f2000b0c4b3009e4f10006f003a000040eb00b9
:101f3000004f78000040eb001de8b70076d4bf00ea
:101f4000704060000004e00017003a007694a8009a
:101f500076b4a9007354a80000c0eb0074f4b70075
:101f60007474a9003147210091407800b0cfb300cc
:101f700000c0700073f4b7007314a90073d4a900f3
:101f80000040eb00aef4b7000040eb00aff4b70048
:101f90000040eb00b0f4b7000040eb00b1f4b70034
:101fa0007794a8001a04370076d4bf000042b2002c
:101fb0000004e00016003a0076b4a80076d4a90028
:101fc0007354a80000c0eb0074f4b7007474a90047
:101fd0003147210091407800b0cfb30000c07000bd
:101fe00073f4b7007334a90073d4a9000040eb0068
:101ff000aef4b7000040eb00aff4b7000040eb00d8
:10200000b0f4b7000040eb00b1f4b70000043700b3
:1020100076d4bf000044b2000004e00016003a008d
:1020200076d4a80076f4a9007354a80000c0eb0091
:1020300074f4b7007474a90031472100914078000e
:10204000b0cfb30000c0700073f4b7007334a900c0
:1020500073d4a9000040eb00aef4b7000040eb00e1
:10206000aff4b7000040eb00b0f4b7000040eb0065
:10207000b1f4b700e603370076d4bf0001c8b3005f
:10208000014060000004e000e1033a0076f4a8009b
:102090007694a9007354a80031472100914078003c
:1020a000b0cfb30000c0700073f4b7007314a90080
:1020b00073d4a90000c0eb0074f4b7007474a900d5
:1020c0000040eb00aef4b7000040eb00aff4b70007
:1020d0000040eb00b0f4b7000040eb00b1f4b700f3
:1020e0007794a800ca033700c0c4b3009e4f100005
:1020f00019003a000040eb00004f780077d4bf0091
:10210000704060000004e00002003a007794a800ec
:10211000bf0337000000eb00d04388006000b80028
:10212000209d8800319d8800614721009140780002
:1021300000c8b30000c060000004e00004003200ea
:1021400076d4bf000044b2000004e000b0033a00bf
:102150007794a900ae03370040c4b3009e4f10002f
:1021600020023a000040eb00004f78000040eb00f6
:102170001de8b70074d4bf00704060000004e000a8
:102180000f003a0073d4bf000080fb004500de0062
:102190006140600000c0ea00614060006140600092
:1021a0004501dd003147210091407800f0cdb300ba
:1021b00000c060000240700073f4b7009403370061
:1021c00076d4bf0001c8b300014060000004e00005
:1021d0000400320076d4bf000044b2000004e000e6
:1021e0006c003a00904080000000e00024003a00bb
:1021f000a9c8bf000004e00021003a00b4c8bf0035
:102200000004e0001e003a00c0c4b300cef3b700e3
:1022100030c4b300cff3b700b0c4b300d0f3b700fd
:1022200030c0b30017e8b700884080006140b900b3
:10223000f3f7070010279800212798000800e00016
:1022400007003d0002002000037824001e209000bb
:10225000ae20900016f8070010279800212798005c
:102260001e219000ae219000103d2100e6110700d4
:1022700018e8b70010c0b300a9e8b700640337003e
:1022800090408000e10f500023003a00b4c8bf0026
:102290000004e00020003a0000c5b300cef3b70010
:1022a00010c4b300cff3b70030c5b300d0f3b7000c
:1022b00030c0b30017e8b7000000eb00704588009d
:1022c000784580006140b900cdf70700701f980085
:1022d000012798000800e00007003d0002002000f0
:1022e000037824007e1890008e209000f0f70700fd
:1022f000701f9800012798007e1990008e21900091
:10230000103d2100c011070018e8b70010c0b3004d
:10231000a9e8b7003e033700a9c8bf00e14f50004d
:102320000e003a00b4c8bf000004e0000b003a0001
:1023300010c0b300aae8b7000040eb0062e8b700a5
:102340000040eb0063e8b7000040eb0064e8b70032
:102350000040eb0065e8b7002d033700b4c8bf00ac
:10236000e14f50002a033a0010c0b300b5e8b700af
:102370000040eb0062e8b7000040eb0063e8b70004
:102380000040eb0064e8b7000040eb0065e8b700f0
:102390001f03370076d4bf00704060000004e000e7
:1023a00073003a0074d4bf000044b2000004e0009f
:1023b0006f003a00aed4bf00e14f500022003a0057
:1023c0000040eb00aef4b70010c0b300aff4b700ac
:1023d0000040eb00b0f4b70008a580006140b900f0
:1023e00087f70700501f9800611f98000800e00061
:1023f00007003d0002002000037824005e189000d2
:10240000ee189000aaf70700501f9800611f98006f
:102410005e199000ee199000103d21007a1107001e
:1024200018e8b70000c5b300cef3b70040c5b3004d
:10243000cff3b700d0c4b300d0f3b70030c0b300bf
:1024400017e8b700f2023700afd4bf00e14f5000e9
:1024500022003a000040eb00aef4b7000040eb0071
:10246000aff4b70010c0b300b0f4b700d8a4800038
:102470006140b90062f70700301f9800411f9800c3
:102480000800e00007003d0002002000037824005f
:102490003e189000ce18900085f70700301f980076
:1024a000411f98003e199000ce199000103d210068
:1024b0005511070018e8b70020c4b300cef3b700e9
:1024c00020c5b300cff3b700e0c4b300d0f3b7002a
:1024d00030c0b30017e8b700cd023700b0d4bf005a
:1024e000e14f5000ca023a0010c0b300aef4b7008a
:1024f0000040eb00aff4b7000040eb00b0f4b700d1
:10250000f8a480006140b9003df70700101f980053
:10251000211f98000800e00007003d000200200095
:10252000037824001e189000ae18900060f7070092
:10253000101f9800211f98001e199000ae199000de
:10254000103d21003011070018e8b70030c5b30076
:10255000cef3b70040c5b300cff3b700d0c4b3008b
:10256000d0f3b70030c0b30017e8b700a8023700b7
:1025700076d4bf00704060000004e00074003a00b0
:1025800074d4bf0001c8b300014060000004e00043
:102590006f003a00aed4bf00e14f500022003a0075
:1025a0000040eb00aef4b70010c0b300aff4b700ca
:1025b0000040eb00b1f4b70008a580006140b9000d
:1025c0000ff7070070179800011f98000800e0003f
:1025d00007003d0002002000037824007e109000d8
:1025e0008e18900032f7070070179800011f9800ae
:1025f0007e1190008e199000103d210002110700fd
:1026000018e8b70000c5b300cef3b70040c5b3006b
:10261000cff3b700d0c4b300d0f3b70030c0b300dd
:1026200017e8b7007a023700afd4bf00e14f50007f
:1026300022003a000040eb00aef4b7000040eb008f
:10264000aff4b70010c0b300b1f4b700e8a4800045
:102650006140b900eaf6070050179800611798002a
:102660000800e00007003d0002002000037824007d
:102670005e109000ee1090000df7070050179800c4
:10268000611798005e119000ee119000103d21003e
:10269000dd10070018e8b70000c5b300cef3b7009f
:1026a00030c5b300cff3b70040c5b300d0f3b700d7
:1026b00030c0b30017e8b70055023700b1d4bf00ef
:1026c000e14f500052023a0010c0b300aef4b70020
:1026d0000040eb00aff4b7000040eb00b1f4b700ee
:1026e000f8a480006140b900c5f6070030179800d3
:1026f000411798000800e00007003d00020020009c
:10270000037824003e109000ce109000e8f60700f9
:1027100030179800411798003e119000ce1190009c
:10272000103d2100b810070018e8b70030c5b3000d
:10273000cef3b70040c5b300cff3b700d0c4b300a9
:10274000d0f3b70030c0b30017e8b700300237004d
:1027500076d4bf000042b2000004e0004e003a0010
:1027600074d4bf000044b2000004e0004a003a0004
:10277000aed4bf00e14f500022003a000040eb0011
:10278000aef4b7000040eb00aff4b70010c0b300e8
:10279000b0f4b700d8a480006140b90098f60700f3
:1027a00010179800211798000800e00007003d006e
:1027b00002002000037824001e109000ae1090004c
:1027c000bbf6070010179800211798001e11900003
:1027d000ae119000103d21008b10070018e8b700e3
:1027e00020c4b300cef3b70020c5b300cff3b700c9
:1027f000e0c4b300d0f3b70030c0b30017e8b700af
:1028000003023700b0d4bf00e14f500000023a008d
:1028100010c0b300aef4b7000040eb00aff4b70057
:102820000040eb00b0f4b700f8a480006140b900ac
:1028300073f60700700f9800011798000800e00079
:1028400007003d0002002000037824007e0890006d
:102850008e10900096f60700700f980001179800f0
:102860007e0990008e119000103d21006610070037
:1028700018e8b70030c5b300cef3b70040c5b300c9
:10288000cff3b700d0c4b300d0f3b70030c0b3006b
:1028900017e8b700de01370076d4bf000042b2006f
:1028a0000004e000da013a0074d4bf0001c8b300ac
:1028b000014060000004e000d5013a00aed4bf0042
:1028c000e14f500022003a000040eb00aef4b700a8
:1028d0000040eb00aff4b70010c0b300b1f4b70094
:1028e000e8a480006140b90045f60700500f980049
:1028f000610f98000800e00007003d000200200082
:10290000037824005e089000ee08900068f6070047
:10291000500f9800610f98005e099000ee0990003a
:10292000103d21003810070018e8b70000c5b300bb
:10293000cef3b70030c5b300cff3b70040c5b30046
:10294000d0f3b70030c0b30017e8b700b0013700cc
:10295000b1d4bf00e14f5000ad013a0010c0b30048
:10296000aef4b7000040eb00aff4b7000040eb005e
:10297000b1f4b700f8a480006140b90020f6070068
:10298000300f9800410f98000800e00007003d005c
:1029900002002000037824003e089000ce0890003a
:1029a00043f60700300f9800410f98003e09900051
:1029b000ce099000103d21001310070018e8b70061
:1029c00030c5b300cef3b70040c5b300cff3b700b6
:1029d000d0c4b300d0f3b70030c0b30017e8b700dd
:1029e0008b01370070c4b3009e4f10004e003a00b8
:1029f0000040eb00004f780086c8bf000004e000f4
:102a000027003a0077d4bf00704060000004e00067
:102a10002300320058882000184478000800fb008a
:102a2000cf80de00f6f50700100f9800210f980008
:102a30000804e00007003d000200200003382400e5
:102a40001e089000ae08900019f60700100f9800bd
:102a5000210f98001e099000ae099000103d210042
:102a6000e90f070018e8b700c0c4b300cef3b70001
:102a7000f0c4b300cff3b70030c4b300d0f3b70055
:102a800030c0b30017e8b70010c0b30086e8b70045
:102a90000040eb0098e8b70077b4a9005c0137006c
:102aa00086c8bf00e14f500059013a0032a38000b0
:102ab00043a38000e03c2100d30f070017e8b700d4
:102ac00012a3800023a38000103d2100ce0f070039
:102ad00018e8b70017c8bf00e14f500002003a00e5
:102ae000f0c2b300d0f3b70018c8bf00e14f5000e8
:102af00002003a00f0c2b300d3f3b70010c0b30035
:102b000098e8b7000040eb0062e8b7000040eb0037
:102b100063e8b7000040eb0064e8b7000040eb005a
:102b200065e8b7003a01370030c4b3009e4f10008b
:102b300065003a000040eb00004f78009ec8bf00df
:102b40000004e00027003a0077d4bf007040600026
:102b50000004e00023003200588820001844780068
:102b60000800fb00cf80de00a5f507007007980085
:102b7000010f98000804e00007003d00020020005b
:102b8000033824007e0090008e089000c8f50700ee
:102b900070079800010f98007e0190008e09900048
:102ba000103d2100980f070018e8b700c0c4b3001b
:102bb000cef3b700f0c4b300cff3b70030c4b30016
:102bc000d0f3b70030c0b30017e8b70010c0b300af
:102bd0009ee8b7000040eb0098e8b7007774a900c2
:102be0000b0137009ec8bf00e14f500008013a00ba
:102bf000018020009140780085c8bf000080fb0064
:102c000081417800a2002000110020003e0c070046
:102c100085e8b70058882000184478000800fb00b9
:102c2000cf80de0076f50700500798006107980016
:102c30000804e00007003d000200200003382400e3
:102c40005e009000ee00900099f507005007980094
:102c5000610798005e019000ee019000103d210098
:102c6000690f070018e8b70018c8bf00e14f50000f
:102c700002003a00f0c2b300d3f3b70020c5b3009e
:102c8000cef3b70030c4b300cff3b700c0c4b30075
:102c9000d0f3b70030c0b30017e8b7000040eb0036
:102ca00062e8b7000040eb0063e8b7000040eb00cb
:102cb00064e8b7000040eb0065e8b70010c0b3005f
:102cc0009fe8b700d2003700d0c4b3009e4f100079
:102cd0002a003a0077d4bf0001c8b3000140600069
:102ce0000004e00010003a0010c0b3006ee8b70026
:102cf0000040eb006fe8b70030c4b300cef3b7007c
:102d000050c5b300cff3b70020c5b300d0f3b70070
:102d100030c0b30017e8b70010002000c0428800a0
:102d2000d1a2a800ba00370074d4bf007040600080
:102d30000004e000b6003a00e00b2000c046880026
:102d400010c0b3000de9b7000040eb000ee9b7007a
:102d500030c4b300cef3b70050c5b300cff3b70013
:102d600020c5b300d0f3b70030c0b30017e8b700f8
:102d700010002000c0428800a500370010c5b30035
:102d80009e4f100041003a00904080000000e0009b
:102d90001e003a00c0c4b300cef3b70030c4b30085
:102da000cff3b700b0c4b300d0f3b70030c0b30066
:102db00017e8b700884080006140b90010f50700af
:102dc00030079800410798000800e00007003d0028
:102dd00002002000037824003e009000ce00900006
:102de00033f5070030079800410798003e01900036
:102df000ce019000103d2100030f070018e8b70036
:102e000010c0b300a9e8b7008100370000c5b300c7
:102e1000cef3b70010c4b300cff3b70030c5b30092
:102e2000d0f3b70030c0b30017e8b7000000eb00e4
:102e300070458800784580006140b900f0f40700d3
:102e400010079800210798000800e00007003d00e7
:102e500002002000037824001e009000ae009000c5
:102e600013f5070010079800210798001e01900035
:102e7000ae019000103d2100e30e070018e8b700f6
:102e800010c0b300a9e8b70061003700f0c4b30078
:102e90009e4f10002d003a0038c8bf000004e0002b
:102ea0005b003a0076d4bf000044b2000004e000aa
:102eb0000e003a0073d4bf000080fb004200de0029
:102ec0006140600000c0ea00614060006140600055
:102ed0004201dd003147210091407800b0cfb300be
:102ee00000c060000240700073f4b70077d4bf00e8
:102ef00001c8b300014060000004e000050032009a
:102f000075d4bf0001c8b300014060000004e000b8
:102f10003f003a0030c9bf000004e0003c003a0026
:102f200010c0b30030e9b7000040eb0062e8b70022
:102f30000040eb0063e8b7000040eb0064e8b70036
:102f40000040eb0065e8b7003100370020c5b30052
:102f50009e4f10002e003a000000eb00d048880081
:102f60000b003700d048800000004000a0a188007e
:102f70000080eb00b0a18800b1a18000a0a180007a
:102f8000ea040700d04880000000e800d04888002c
:102f9000d148800000202000808f5000f1ff3600d3
:102fa00020c5b300cef3b70030c5b300cff3b700f0
:102fb00040c5b300d0f3b70030c0b30017e8b70086
:102fc00020c5b300d1f3b70030c5b300d2f3b700ca
:102fd00040c5b300d3f3b70030c0b30018e8b70062
:102fe0008c1007000000eb00d0448800040037007c
:102ff00018f70700d04480000000e800d0448800a3
:10300000d1448000f07c2000808f5000f8ff360013
:103010004f0478000080fa00000006000200fa0069
:103020000040eb00004f780067000700e14f5000c0
:103030005a003a00a4c8bf000004e0001a003a0099
:10304000a6c8bf000004e00017003a0031d4bf005a
:10305000e24f500008003a0010c0b300a4e8b700e7
:103060000040eb00a6e8b70010c0b30008e9b700c5
:10307000a0c2b300004f780031d4bf00e14f500030
:1030800046003a0010c0b300a4e8b7000040eb00cf
:10309000a6e8b70010c0b30009e9b700a0c2b300aa
:1030a000004f78003d003700a4c8bf00e14f50003a
:1030b0000d003a00a6c8bf000004e0000a003a0074
:1030c00031d4bf00e34f500034003a0010c0b300c9
:1030d000a4e8b70010c0b300a6e8b700a0c2b300d0
:1030e000004f78002d003700a4c8bf00e14f50000a
:1030f00020003a00a6c8bf00e14f50001d003a0072
:1031000031d4bf00e14f500009003a0008c9bf00a8
:10311000e14f500006003a000040eb00a4e8b70081
:103120000040eb0008e9b700b0c2b300004f7800e0
:1031300031d4bf00e24f500009003a0009c9bf0076
:10314000e14f500006003a000040eb00a4e8b70051
:103150000040eb0009e9b700d0c2b300004f78008f
:103160000040eb00a4e8b7000040eb00a6e8b70081
:103170000a0037000040eb0008e9b7000040eb0010
:1031800009e9b7000040eb00a4e8b7000040eb00fd
:10319000a6e8b700a0c2b300004f780090408000be
:1031a000e10f500005003a00a9c8bf000004e0008c
:1031b00002003a00a0c2b300004f78001e80fb005e
:1031c0000080fa00000006000200fa000000eb0098
:1031d00090a18800a016800090a1880091a1800095
:1031e000003020000080600090a1880090a1800045
:1031f0004800de0090a1880090a1800031f4b70063
:1032000031d4bf002ef4b700e14221009140780094
:1032100030d4bf0000c068000004e00005003200a8
:1032200031d4bf0030f4b70010002000000f780048
:103230000400370031d4bf0030f4b7000000eb00c9
:10324000000f78001e0078000080fa0000000600e1
:103250000200fa000040eb00004f78006700070012
:10326000e14f50005a003a00a5c8bf000004e0003a
:103270001a003a00a7c8bf000004e00017003a0097
:1032800007c8bf00e24f500008003a0010c0b3006a
:10329000a5e8b7000040eb00a7e8b70010c0b300f6
:1032a00006e9b700a0c2b300004f780007c8bf000e
:1032b000e14f500046003a0010c0b300a5e8b70047
:1032c0000040eb00a7e8b70010c0b30007e9b70063
:1032d000a0c2b300004f78003d003700a5c8bf0072
:1032e000e14f50000d003a00a7c8bf000004e00005
:1032f0000a003a0007c8bf00e34f500034003a000c
:1033000010c0b300a5e8b70010c0b300a7e8b7002d
:10331000a0c2b300004f78002d003700a5c8bf0041
:10332000e14f500020003a00a7c8bf00e14f500015
:103330001d003a0007c8bf00e14f500009003a00e5
:1033400006c9bf00e14f500006003a000040eb0004
:10335000a5e8b7000040eb0006e9b700b0c2b30033
:10336000004f780007c8bf00e24f500009003a0044
:1033700007c9bf00e14f500006003a000040eb00d3
:10338000a5e8b7000040eb0007e9b700d0c2b300e2
:10339000004f78000040eb00a5e8b7000040eb00cc
:1033a000a7e8b7000a0037000040eb0006e9b700c5
:1033b0000040eb0007e9b7000040eb00a5e8b700cc
:1033c0000040eb00a7e8b700a0c2b300004f7800b0
:1033d00090408000e10f500005003a00a9c8bf00ee
:1033e0000004e00002003a00a0c2b300004f7800e1
:1033f0001e80fb000080fa00000006000200fa00b8
:103400000000eb0090a188004016800090a1880089
:1034100091a18000000c20000080600090a1880035
:1034200090a180004600de0090a1880090a180005d
:1034300007e8b70007c8bf002ef4b700e14221003b
:103440009140780006c8bf0000c068000004e0009a
:103450000500320007c8bf0006e8b70010002000d2
:10346000000f78000400370007c8bf0006e8b70067
:103470000000eb00000f78001e0078000080fa00ca
:10348000000006000000fa008880a9009080a900d2
:103490000080fa00004006003600f800809fbe0061
:1034a000829fbe00849fbe00869fbe000000fa007f
:1034b0008460a9000cc8bf000040e8000ce8b70019
:1034c00047c9bf000040e80047e9b7000cc8bf008b
:1034d000e14f500098003a0010c0b3000be8b7006d
:1034e0000040eb000ce8b70062c8bf000040e800f5
:1034f00062e8b70062c8bf00ea4f50002d003a00f2
:103500005c0e07000040eb0062e8b70063c8bf0034
:103510000040e80063e8b700a2c8bf00e14f5000d8
:1035200003003a00e04480000000e800e044880026
:10353000ebc8bf00e14f50001e003a00eac8bf00d0
:103540000004e0000a003a00604780000000e80044
:103550006047880061478000700c2000808f500019
:103560001400360010c0b300eae8b70011003700bd
:10357000d342a800d5c2bf00644060000004e00050
:103580000a003a00704780000000e8007047880099
:103590007147800030062000808f50000500360003
:1035a00010c0b30070e8b700020037000000eb0065
:1035b0007047880063c8bf00ea4f500009003a0016
:1035c0000040eb0062e8b7000040eb0063e8b700a2
:1035d00010c0b3000ae8b70064c8bf000040e800ac
:1035e00064e8b70064c8bf00ea4f500033003a00f7
:1035f0000040eb0062e8b7000040eb0063e8b70072
:103600000040eb0064e8b70010c0b30003e8b70067
:1036100010c0b300ace8b70010c0b3007fe8b7003b
:1036200065c8bf000040e80065e8b70079c8bf0082
:10363000e14f500021003a00404b80000000e800bc
:10364000404b8800414b8000b0032000808f500029
:10365000050036000000eb00404b8800304b800036
:103660000000e800304b8800314b8000b0032000a0
:10367000808f5000070036000000eb00304b8800c0
:103680000000eb00404b8800504b80000000e80039
:10369000504b8800514b8000603e2000808f5000ce
:1036a000060036000000eb00304b88000000eb0005
:1036b000404b88000000eb00504b88002cc8bf0036
:1036c000e14f50000c003a00504180000000e8003b
:1036d000504188005141800040062000808f5000fa
:1036e00005003a00704180000000e8007041880049
:1036f0000000eb005041880058c9bf000004e00002
:103700000c003a00ced3bf00d4f3b700cfd3bf0034
:10371000d5f3b700d0d3bf00d6f3b700d1d3bf00e5
:10372000d7f3b700d2d3bf00d8f3b700d3d3bf00cd
:10373000d9f3b700750307000080fa004f03be00fd
:103740004f02be004f01be004f00be003600f90020
:10375000004006003600f800809fbe00829fbe0039
:10376000849fbe00869fbe00881f78001c00fa0060
:10377000a042a9000000eb00704088008560a9000d
:10378000011480004014800080804000801480007c
:1037900080804000c0148000008040004200de00b5
:1037a0007007980011148000501480008080400041
:1037b0009014800080804000d01480000080400081
:1037c0004200de0050079800211480006014800041
:1037d00080804000a014800080804000e0148000c1
:1037e000008040004200de00600798003114800035
:1037f0007014800080804000b01480008080400001
:10380000f0148000008040004200de004007980075
:103810007e0090006101b800309e8000419e8000d3
:103820000200400083804800309e8800419e88004e
:103830006e0090006101b800109e8000219e800003
:103840000200400083804800109e8800219e88006e
:103850005e0090006101b800f09d8000019e800034
:103860000200400083804800f09d8800019e88008f
:103870004e0090006101b800d09d8000e19d800065
:103880000200400083804800d09d8800e19d8800b0
:10389000b04b80000000e900b04b8800b04b8000c6
:1038a0000000e0000c003a00f09d8000019e8000c6
:1038b0004909dd004700de0000007100c708de0096
:1038c000a09d880000082000b04b88006000b80070
:1038d000f09d8800019e8800904b80000000e90068
:1038e000904b8800904b80000000e0002a003a00d6
:1038f0006000b800200798003107980000102000f1
:10390000904b8800a89d80006140b9003cf2070000
:10391000000f9800110f98000800e00007003d001c
:1039200002002000037824000e0890009e089000fa
:103930005ff20700000f9800110f98000e0890002a
:103940009e08900020079800310798002e009000f4
:10395000be00900002002000032b2400b1f20700fb
:1039600020079800310798002e009000be009000bc
:10397000f2282c0053d72b00ecf207002e01900008
:10398000be0190004af207001042880021428800e0
:1039900010c0b300a8e8b700c04b80000000e900e9
:1039a000c04b8800c04b80000000e0009f003a0040
:1039b000309e8000419e80004409dd004c00de0006
:1039c00000007100cc08de00c09d8800109e8000c1
:1039d000219e80004409dd004c00de0000007100e3
:1039e000cc08de00b09d8800d09d8000e19d800065
:1039f0004409dd004c00de0000007100cc08de0050
:103a0000909d88006000b800309e8800419e88002c
:103a10006000b800109e8800219e88006000b800f9
:103a2000d09d8800e19d880000002100c04b8800e7
:103a3000acd3bf00e14f50000a003a00b19d8000b6
:103a4000409d8000808f500002003e00409d80001d
:103a5000b09d8800b09d8000419d80000100500015
:103a6000b09d8800c3c8bf000004e00017003a0002
:103a7000b19d800020032000808f5000130036008d
:103a8000acd3bf00e14f500010003a0010c0b300ab
:103a9000c3e8b700714721009140780000c8b30027
:103aa00000c060000004e0000500320075d4bf00d3
:103ab00001c8b300014060000004e0001a003a00b1
:103ac00010c0b30079e8b70017003700c3c8bf00c3
:103ad000e14f500014003a00b19d80001003200017
:103ae000808f500010003e00acd3bf00e14f50006b
:103af0000d003a000040eb00c3e8b7000040eb00c7
:103b000079e8b70074d4bf00704060000004e000a2
:103b10000400320077d4bf000044b2000004e0008b
:103b200001003a008f100700b19d800020032000a3
:103b3000808f5000020036000000eb00e044880057
:103b4000919d800090282000808f50000d0036004d
:103b5000919d8000403d2000808f500009003e0074
:103b600010c0b3004ae9b7000040eb004be9b700d2
:103b70000040eb004ce9b70010c0b3004de9b700be
:103b80002a003700919d8000205c2000808f50002b
:103b90000d003600919d800080702000808f5000c5
:103ba00009003e000040eb004ae9b70010c0b30036
:103bb0004be9b7000040eb004ce9b70010c0b30080
:103bc0004de9b70019003700919d8000108f20004b
:103bd000808f50000d003600919d8000c0a3200012
:103be000808f500009003e000040eb004ae9b7001a
:103bf0000040eb004be9b70010c0b3004ce9b70040
:103c000010c0b3004de9b700080037000040eb00da
:103c10004ae9b7000040eb004be9b7000040eb0079
:103c20004ce9b7000040eb004de9b700a04b800025
:103c30000000e900a04b8800a04b80000000e000dd
:103c400069003a006000b800008fbe00000022004a
:103c5000a04b8800c89d80006140b90068f1070052
:103c6000200f9800310f98000800e00007003d0089
:103c700002002000037824002e089000be08900067
:103c80008bf10700200f9800310f98002e0890004c
:103c9000be089000008fbe001e00be000200200083
:103ca00043212400dff10700d0418800e141880072
:103cb000b89d80006140b90051f10700400f9800a5
:103cc000510f98000800e00007003d0002002000ae
:103cd000037824004e089000de08900074f107007d
:103ce000400f9800510f98004e089000de08900099
:103cf000008fbe00b2498000c34980001e00be0094
:103d0000c8f10700f041880001428800f0418000be
:103d10000142800002002000030a240037f207005d
:103d20000000e00001003500040037006000b8002a
:103d3000f04188000142880018003700f0418000ff
:103d40000142800002002000633924002bf20700aa
:103d50000000e0000100340010003700f241800054
:103d60000342800000002000613924004ff1070069
:103d7000f2282c0053cf2300ecf107000002be0014
:103d8000f0418000014280000001be000400be003e
:103d900047f10700f041880001428800acd3bf0022
:103da0000004e00006003a00b09d8000409d8800bd
:103db000c09d8000509d880010c0b300acf3b700d8
:103dc000d0418000e141800050428800614288007b
:103dd000f0418000014280007042880081428800ea
:103de00010c0b30050e9b700a042a8000080fa005c
:103df0004f0478004f03be004f02be004f01be00cb
:103e00004f00be003600f900004006000000fa0036
:103e100084c0a9000080fa00004006000a00fa00f1
:103e2000008fbe0022079800330798002e019000f3
:103e3000be0190001e00be00f0f107000000e0008f
:103e40000100320003003700900520004007980071
:103e5000260037002e019000be0190001e00be001b
:103e6000e8f107000000e00001003c00100037000e
:103e70002e019000be0190001e00be000bf1070055
:103e8000d2cc2c00c3ec2300dcf107000000e000e2
:103e9000010034000300370090052000400798001f
:103ea00012003700e0042000400798000f003700a0
:103eb0001e01be002e009000be009000fbf0070027
:103ec000d2cc2c00c3ec2300ccf107000000e000b2
:103ed00001003400030037009005200040079800df
:103ee00002003700e0042000400798004e009000d8
:103ef0000080fa00000006003600f800809fbe0037
:103f0000829fbe00849fbe00869fbe000000fa0014
:103f10008940a9009140a9000000eb00d04488002e
:103f20000f003700d044800000004000a0a18800ae
:103f3000d044800080004000804721000080400085
:103f400010007800b0a18800b1a18000a0a180007d
:103f5000f6000700d04480000000e800d04488004c
:103f6000d0448000ff0f5000eeff3600c0c4b30005
:103f7000fa090700f0c4b300f809070070c5b300e0
:103f8000f60907000080fa004f03be004f02be0092
:103f90004f01be004f00be003600f9000040060091
:103fa000809fbe00821f78000000fa008520a900d3
:103fb00090108000c6e8b700618c20009140780026
:103fc00040c2b30080cf50001a003a00c9c8bf00f9
:103fd0000004e00017003a00c8c8bf000004e00079
:103fe00014003a00904080000000e00011003a0008
:103ff0000040eb00c7e8b7000040eb00c8e8b7009e
:1040000010c0b300c9e8b7000040eb004fe9b700ab
:104010000040eb0062e8b7000040eb0063e8b70047
:104020000040eb0064e8b7000040eb00ace8b700ec
:104030009d003700c9c8bf00e14f50009a003a0008
:10404000c7c8bf008080fb00628c2000124178004e
:10405000a04621000080400002487800c7c8bf0089
:10406000e34f500005003e004fc9bf00618c2000a7
:1040700091407800014040004fe9b700c7c8bf0039
:104080000040e800c7e8b700c7c8bf00e54f5000d0
:1040900085003a000040eb00c7e8b7000040eb00a5
:1040a000c9e8b700e1462100914078004fc9bf0040
:1040b00080cf50007a003a006ad4bf000080fb0035
:1040c000604688006bd4bf000080fb00704688000b
:1040d00070468000c800dd006046800000807000ef
:1040e000804688006cd4bf000080fb0060468800da
:1040f0006dd4bf000080fb007046880070468000d1
:10410000c800dd0060468000008070009046880096
:1041100074d4bf00704060000004e00011003a0059
:1041200077d4bf0001c8b300014060000004e00084
:104130000c00320077d4bf000044b2000004e0005d
:104140000800320075d4bf0001c8b3000140600010
:104150000004e000030032009046800090a5880033
:104160004200370074d4bf00704060000004e000db
:104170001300320077d4bf0001c8b30001406000d3
:104180000004e0000e003a0077d4bf000044b20003
:104190000004e0000a00320075d4bf0001c8b3007b
:1041a000014060000004e00005003200804680000d
:1041b00060a488009046800050a488002b0037003f
:1041c00074d4bf00704060000004e00013003200af
:1041d00077d4bf0001c8b300014060000004e000d4
:1041e0000e00320075d4bf0001c8b300014060006a
:1041f0000004e00009003a0077d4bf000044b20098
:104200000004e000050032008046800010a4880011
:104210009046800000a488001400370074d4bf00ca
:10422000704060000004e0001000320077d4bf004e
:1042300001c8b300014060000004e0000b00320040
:1042400077d4bf000044b2000004e00007003a0049
:1042500075d4bf0001c8b300014060000004e00055
:10426000020032009046800090a5880010c0b30084
:10427000c8e8b70010c0b300cae8b7000040eb00c0
:1042800062e8b7000040eb0063e8b7000040eb00d5
:1042900064e8b7000040eb00ace8b700020037006c
:1042a0000040eb004fe9b7000080fa004f017800b2
:1042b0004f00be00004006000a00fa0040079800c8
:1042c0004e0090006101b80000c02f00f1072000ef
:1042d00002004000838048002007980031079800c2
:1042e0000080eb001007980032c0bf000080fb0088
:1042f000000f78002e009000be0090004008de0005
:104300000100200032e0b7002e009000be009000b7
:104310001000ba00100798001e00780032e0b700c5
:104320001e0090000080fa00000006000c00fa0059
:1043300040079800510798000000eb0030079800f4
:104340004e0090006101b80000c02f00f10720006e
:104350000200400083804800100798002107980061
:1043600032c0bf000080fb00000f780061c7bf00b3
:104370000042b2000004e00049003a001e00900034
:10438000ae0090004008de000100200080007800b0
:10439000f007200000806000203b88001e00900095
:1043a000103b880061c7a80001762000914078008a
:1043b00000c8b30000c0600041c4b30001407000f9
:1043c00060e7b70050052000303b8800a00a2000bd
:1043d000303b880061e7a8000000000000000000fa
:1043e00061c7bf0001c8b300014060000004e000e5
:1043f000fbff3a004e009000afff0700e10f4000c6
:1044000025003a001e009000ae0090004008de003b
:104410000100200032e0b7001e009000ae009000c6
:104420005e0190000208bb0061c7a8000176200071
:104430009140780000c8b30000c060000024a000d4
:1044400060e7b70050052000303b8800a00a20003c
:10445000303b880061e7a800000000000000000079
:1044600061c7bf0001c8b300014060000004e00064
:10447000fbff3a004e0090008fff0700800078009d
:104480005e009000808f5000050032001000200078
:104490003007980002003700200020003007980005
:1044a0001e00780032e0b7003e0090000080fa0065
:1044b000000006000000fa00e402a900e422a900be
:1044c000e4c2a900e4e2a900e502a900e522a900ee
:1044d000e582a900e5a2a900e5c2a900e5e2a900dc
:1044e000de02a900c702a900d362a900d282a900f6
:1044f000c762a900c782a900c7a2a900c7c2a900b4
:10450000c7e2a9000080fa00000006000000fa00df
:1045100016c8bf00e14f500014003a00e202a900a3
:10452000e802a900618120009140780017c8bf000f
:1045300080cf500003003a0010c0b3001ce8b70061
:10454000020037000040eb001ce8b700d4d3bf00e6
:10455000b1000700e202a900e802a80016c8bf00e7
:104560000040e80016e8b700a900370016c8bf00f1
:10457000e24f500014003a00e802a900e822a90026
:10458000618120009140780017c8bf0080cf5000a3
:1045900003003a0010c0b3001ce8b7000200370067
:1045a0000040eb001ce8b700d5d3bf009a0007001d
:1045b000e802a900e822a80016c8bf000040e800f1
:1045c00016e8b7009200370016c8bf00e34f50004e
:1045d0000c003a00e822a900e8c2a9000040eb0064
:1045e0001ce8b700d6d3bf008b000700e822a90063
:1045f000e8c2a80016c8bf000040e80016e8b700ef
:104600008300370016c8bf00e44f500016003a0080
:10461000e8c2a900e8e2a90016c8bf008080fb003c
:1046200018c8bf000080fb0063004000808f50006e
:1046300003003a0010c0b3001ce8b70002003700c6
:104640000040eb001ce8b700d7d3bf0072000700a2
:10465000e8c2a900e8e2a80016c8bf000040e800d0
:1046600016e8b7006a00370016c8bf00e54f5000d3
:1046700016003a00e8e2a900e902a90016c8bf0046
:104680008080fb0018c8bf000080fb006300400072
:10469000808f500003003a0010c0b3001ce8b70040
:1046a000020037000040eb001ce8b700d8d3bf0081
:1046b00059000700e8e2a900e902a80016c8bf00f7
:1046c0000040e80016e8b7005100370016c8bf00e8
:1046d000e64f50000c003a00e902a900e922a900c7
:1046e0000040eb001ce8b700d9d3bf004a00070028
:1046f000e902a900e922a80016c8bf000040e800ae
:1047000016e8b7004200370016c8bf00e74f500058
:104710000a003a00e922a900e982a90073d4bf0087
:104720003d000700e922a900e982a80016c8bf00e1
:104730000040e80016e8b7003500370016c8bf0093
:10474000e84f50000a003a00e982a900e9a2a90056
:1047500074d4bf0030000700e982a900e9a2a800d4
:1047600016c8bf000040e80016e8b7002800370070
:1047700016c8bf00e94f50000a003a00e9a2a9009c
:10478000e9c2a90075d4bf0023000700e9a2a9006f
:10479000e9c2a80016c8bf000040e80016e8b7004c
:1047a0001b00370016c8bf00ea4f50000a003a004d
:1047b000e9c2a900e9e2a90076d4bf00160007000b
:1047c000e9c2a900e9e2a80016c8bf000040e8005d
:1047d00016e8b7000e00370016c8bf00eb4f5000b8
:1047e0000b003a00e9e2a900e202a90077d4bf0079
:1047f00009000700e9e2a900e202a80016c8bf000c
:104800000040e80016e8b70010c0b30016e8b70093
:104810000080fa00000006000400fa00204798001b
:104820002e4090001047980016c8bf00e64f500079
:104830001f003e00ae40900010cdb30000c040000d
:10484000204798000040eb00004f78000f00370031
:104850001e81fb002e4090000080fb009e80fb002c
:104860004300dd0001004000800040000087290077
:104870000080400010007800804078004044210013
:1048800000004100014878001e4fe80071c0b300ed
:104890009ecf1000eeff36001cc8bf00e14f500055
:1048a00024003a0010c0b3004bf4b70021003700d9
:1048b0000040eb00004f78001b0037002e409000b6
:1048c000104798001e4090008080fb001e80fb0077
:1048d0000088de00104798001e4090006140600094
:1048e000104798001e4090000004e00003003a00ca
:1048f00010c0b30010479800050037001e4090001c
:10490000e14f500002003a000040eb0010479800d1
:104910001e80fb0041442100010040009e409000a9
:10492000014878001e4fe80070c0b3009e4f100091
:10493000e2ff360044d4bf00614060006141600086
:10494000b12c200091407800e0cfb30000c060009f
:1049500002407000cbe2b70045d4bf006140600068
:10496000614060004301dd00712d2000914078001e
:1049700070cfb30000c0600002407000d7e2b70003
:1049800046d4bf0061406000614060004401dd002a
:10499000612d200091407800f0ceb30000c060008f
:1049a00002407000d6e2b70047d4bf00614060000b
:1049b000614060004301dd00b12c2000914078008f
:1049c00070cfb30000c0600002407000cbe2b700bf
:1049d00048d4bf0061406000614060004401dd00d8
:1049e000b12c200091407800f0ceb30000c06000f0
:1049f00002407000cbe2b70049d4bf0061406000c4
:104a0000614060004501dd00b12c2000914078003c
:104a1000f0cdb30000c0600002407000cbe2b700f0
:104a20004ad4bf0061406000614060004601dd0083
:104a3000b12c200091407800f0cbb30000c06000a2
:104a400002407000cbe2b7004bd4bf006140600071
:104a5000c700dd00cbc2bf000074a10001407000a0
:104a6000cbe2b7000080fa00000006000c00fa005c
:104a7000500798000040eb00704798000040eb00a2
:104a8000604798000040eb00504798000040eb0062
:104a9000404798000040eb00304798000040eb0092
:104aa000204798000000eb00000f780075d4bf008d
:104ab0006f4060007047980075d4bf000080fb0015
:104ac0004400de00004f98000e4890006f406000e8
:104ad0006047980076d4bf006f4060005047980050
:104ae0007e40900021000700404798006e409000f3
:104af0001e000700304798005e4090001b00070032
:104b0000204798004e4090008080fb003e4090007f
:104b10000081fb002e4090008081fb004208dd00f8
:104b2000020040004200dd00030040008000400021
:104b300000b3290000804000100f78009e0078002c
:104b40005e0090006e0150007408b9000200400041
:104b500080004000a097200000804000100f7800e7
:104b60001e0078000080fa00000006000400fa0031
:104b7000204798000040eb00004f78002e40900046
:104b8000ee4f500003003a000040eb00004f780069
:104b9000110037002e409000ed4f500003003a0006
:104ba00010c0b300004f78000b0037002e4090007b
:104bb000eb4f500003003a0020c0b300004f7800d4
:104bc000050037002e409000e74f500002003a00e9
:104bd00030c0b300004f78001e80fb000080fa0058
:104be000000006000c00fa00500798000040eb009f
:104bf000704798000040eb00604798000040eb00d1
:104c0000504798000040eb00404798000040eb0000
:104c1000304798000040eb00204798000000eb0070
:104c2000000f780075d4bf006f4060007047980097
:104c300075d4bf000080fb004400de00004f9800e8
:104c40000e4890006f4060006047980076d4bf0027
:104c50006f406000504798007e409000c3ff0700ff
:104c6000404798006e409000c0ff07003047980012
:104c70005e409000bdff07002047980051c9bf006b
:104c8000e34f50000f003a004e4090008080fb0040
:104c90003e4090000081fb002e4090008081fb0090
:104ca0004208dd00020040004200dd000300400039
:104cb0008000400000b3290000804000100f780001
:104cc0001300370051c9bf00e44f500010003a00f4
:104cd0004e4090008080fb003e4090000081fb0031
:104ce0002e4090008081fb004208dd000200400061
:104cf0004200dd00030040008000400000b32900b6
:104d000000804000100f78001e0078006c0f4000fb
:104d10001e0078005e0190007400b900020040009f
:104d20008000400000bb290000804000100f780088
:104d30001e0078000080fa00000006000c00fa0057
:104d4000500798000040eb00704798000040eb00cf
:104d5000604798000040eb00504798000040eb008f
:104d6000404798000040eb00304798000040eb00bf
:104d7000204798000000eb00000f780075d4bf00ba
:104d80006f4060007047980075d4bf000080fb0042
:104d90004400de00004f98000e4890006f40600015
:104da0006047980076d4bf006f406000504798007d
:104db0007e4090006dff0700404798006e409000d5
:104dc0006aff0700304798005e40900067ff0700c9
:104dd0002047980051c9bf00e34f50000f003a0030
:104de0004e4090008080fb003e4090000081fb0020
:104df0002e4090008081fb004208dd000200400050
:104e00004200dd00030040008000400000b32900a4
:104e100000804000100f78001300370051c9bf0018
:104e2000e44f500010003a004e4090008080fb009c
:104e30003e4090000081fb002e4090008081fb00ee
:104e40004208dd00020040004200dd000300400097
:104e50008000400000b3290000804000100f78005f
:104e60001e0078006c0f40001e0078005e0190006c
:104e70007400b9000200400080004000805d2a00fc
:104e800000804000100f78001e0078000080fa00bb
:104e9000000006000400fa00100798000000eb0074
:104ea000000f7800c0032000000f78001e0078007b
:104eb0001e0190007400b900020040008000400014
:104ec00000bb290000804000100f78001e00780011
:104ed0000080fa00000006000400fa0010079800a5
:104ee0000000eb00000f780046c9bf000080fb0007
:104ef000000f78001e0078001e0190007400b900b9
:104f0000020040008000400000bb290000804000fb
:104f1000100f78001e0078000080fa0000000600e4
:104f20000000fa00889fbe000000eb00d04488001b
:104f30000400370047ef0700d04480000000e8007d
:104f4000d0448800d1448000700c2000808f500035
:104f5000f8ff3600b7070700da0507004506070027
:104f60004d0607007aee07005d06070051fd0700b9
:104f700085ee070058260700e19220009140780056
:104f800010c4b30080cf500017003a00a0022000e8
:104f900010498800c02c200000498800800c2000a7
:104fa000204988003033230031112400b0498800a3
:104fb000c149880000002800713c2400d0498800c5
:104fc000e14988000000200001222400f049880007
:104fd000014a8800e07a240011e62300104a880084
:104fe000214a880032003700e19220009140780089
:104ff00020c4b30080cf500017003a008003200087
:1050000010498800403d200000498800800c2000a5
:1050100020498800608f2200410c2400b04988009c
:10502000c149880000002c0051412400d04988006b
:10503000e14988000000200081232400f049880015
:10504000014a880010d72300a1e82300104a8800f5
:10505000214a880016003700a0022000104988006d
:10506000c02c200000498800800c200020498800c6
:105070003033230031112400b0498800c149880031
:1050800000002800713c2400d0498800e1498800d4
:105090000000200001222400f0498800014a880015
:1050a000e07a240011e62300104a8800214a880093
:1050b00091028000f0ff23000080700090028800c1
:1050c00010c4b300cef3b70040c4b300cff3b700b1
:1050d00020c5b300d0f3b70010c3b300d1f3b700bd
:1050e00000c3b300d2f3b7002ec9bf00d3f3b7009b
:1050f00030c0b30017e8b70030c0b30018e8b700fd
:105100000000eb00d044880004003700d1ee070017
:10511000d04480000000e800d0448800d1448000e2
:10512000f0f92000808f5000f8ff3600e192200057
:105130009140780010c4b30080cf50000d003a00b9
:10514000d0c4b300cef3b70090c4b300cff3b70020
:1051500070c4b300d0f3b70040c3b300d1f3b700bd
:1051600000c3b300d2f3b70000c3b300d3f3b7005a
:105170001e003700e19220009140780020c4b30067
:1051800080cf50000d003a00d0c4b300cef3b7007a
:1051900090c4b300cff3b70070c4b300d0f3b7002e
:1051a00060c3b300d1f3b70000c3b300d2f3b700bc
:1051b00000c3b300d3f3b7000c003700d0c4b30072
:1051c000cef3b70090c4b300cff3b70070c4b30000
:1051d000d0f3b70040c3b300d1f3b70000c3b300ae
:1051e000d2f3b70000c3b300d3f3b7000000eb0065
:1051f000d04488000400370096ee0700d0448000b9
:105200000000e800d0448800d1448000f0f920007c
:10521000808f5000f8ff36008004200026fc070035
:1052200051e9b70051c9bf00e44f500006003600f5
:1052300030c0b30051e9b70051c9bf008080fb0006
:105240008004200039fc0700f20707000000eb0093
:10525000c0a28800d1a2a9000000eb00d002070084
:1052600010c0b30061e8b700a004200012fc0700e2
:10527000504b8800c00420000ffc0700304b880012
:10528000e00420000cfc0700404b8800504b8000dd
:10529000e10f400004003200514b8000703e2000be
:1052a000808f5000050036000000eb00504b880056
:1052b000514b8000a00420001cfc0700304b8000f4
:1052c000e10f400004003200314b8000c003200099
:1052d000808f5000050036000000eb00304b880046
:1052e000314b8000c004200010fc0700404b8000c0
:1052f000e10f400004003200414b8000c003200059
:10530000808f5000060036000000eb00404b880004
:10531000414b8000e004200004fc0700000037003f
:1053200061c8bf00e14f500086003a000040eb002a
:1053300061e8b70074d4bf00704060000004e00072
:105340001c003a00d0c4b300cef3b700d0c4b30001
:10535000cff3b70010c4b300d0f3b700f0c4b3006c
:10536000d1f3b700e0c4b300d2f3b700f0c2b3008a
:10537000d3f3b70030c0b30017e8b70030c0b300b4
:1053800018e8b7000000eb008045880004003700f3
:1053900030ee0700804580000000e800804588006e
:1053a0008145800000fa2000808f5000f8ff360011
:1053b0006100370077d4bf000044b2000004e00071
:1053c0001c003a0040c5b300cef3b70090c4b30050
:1053d000cff3b70070c4b300d0f3b700f0c4b3008c
:1053e000d1f3b700e0c4b300d2f3b700f0c2b3000a
:1053f000d3f3b70030c0b30017e8b70030c0b30034
:1054000018e8b7000000eb00804588000400370072
:1054100010ee0700804580000000e800804588000d
:105420008145800000fa2000808f5000f8ff360090
:105430004100370077d4bf0001c8b30001406000cd
:105440000004e0001c003a00d0c4b300cef3b70063
:1054500090c4b300cff3b70070c4b300d0f3b7006b
:10546000f0c4b300d1f3b700e0c4b300d2f3b70087
:10547000f0c2b300d3f3b70030c0b30017e8b700f1
:1054800030c0b30018e8b7000000eb00804588008a
:1054900004003700efed0700804580000000e800c1
:1054a000804588008145800000fa2000808f5000f0
:1054b000f8ff36002000370075d4bf0001c8b300e4
:1054c000014060000004e0001b003a0060c4b3002b
:1054d000cef3b70030c4b300cff3b70070c5b3004c
:1054e000d0f3b700f0c4b300d1f3b700e0c4b30009
:1054f000d2f3b700f0c2b300d3f3b70030c0b300ab
:1055000017e8b70030c0b30018e8b7000000eb00a0
:105510008045880004003700ceed070080458000fc
:105520000000e800804588008145800000fa2000e6
:10553000808f5000f8ff3600920407000040eb0017
:105540005ae9b700acc8bf00e14f50009f003a00d5
:105550000040eb00ace8b7000040eb00cae8b70041
:1055600074d4bf00704060000004e00024003a00e2
:1055700077d4bf000044b2000004e00020003200f5
:1055800077d4bf0001c8b300014060000004e00010
:105590001b00320075d4bf0001c8b3000140600099
:1055a0000004e00016003200d0c4b300fde8b700ec
:1055b000e0c4b300fee8b700ffc8bf00e18f2000e1
:1055c00091407800d28f200012417800a3468000dd
:1055d00097a58000b8468000b9a5800000437800f8
:1055e0008142780002427800070178008800780044
:1055f000090078003d240700d1c2a90073003700dc
:1056000074d4bf00704060000004e000220032004b
:1056100077d4bf000044b2000004e0001e00320056
:1056200077d4bf0001c8b300014060000004e0006f
:1056300019003a0075d4bf0001c8b30001406000f2
:105640000004e0001400320070c4b300fde8b700ad
:10565000ffc8bf00e18f200091407800d28f20006a
:1056600012417800a346800057a48000b84680000d
:1056700069a48000004378008142780002427800eb
:1056800007017800880078000900780017240700d7
:10569000d1c2a8004d00370074d4bf007040600034
:1056a0000004e0002200320077d4bf000044b200c2
:1056b0000004e0001e00320077d4bf0001c8b30030
:1056c000014060000004e0001900320075d4bf0002
:1056d00001c8b300014060000004e00014003a007b
:1056e00070c4b300fde8b700ffc8bf00e18f200021
:1056f00091407800d28f200012417800a3468000ac
:1057000007a48000b846800019a4800000437800f8
:105710008142780002427800070178008800780012
:1057200009007800f1230700d1c2a8002700370044
:1057300074d4bf00704060000004e0002300320019
:1057400077d4bf000044b2000004e0001f003a001c
:1057500077d4bf0001c8b300014060000004e0003e
:105760001a00320075d4bf0001c8b30001406000c8
:105770000004e00015003200d0c4b300fde8b7001b
:10578000e0c4b300fee8b700ffc8bf00e18f20000f
:1057900091407800d28f200012417800a34680000b
:1057a00097a58000b8468000b9a580000043780026
:1057b0008142780002427800070178008800780072
:1057c00009007800c9230700d1c2a8000ac8bf0099
:1057d000e14f50001d003a000040eb000ae8b7001e
:1057e00049ec07002ff4b70038c8bf000004e00000
:1057f0000c003a0010c0b300c4e8b700f142210029
:105800009140780080c4b30080cf50000f003a0070
:105810002fd4bf00441b07000040eb00c4e8b700d2
:105820000a003700f142210091407800f0c4b30033
:1058300080cf500003003a0010c0b300c5e8b700a5
:10584000020037000040eb00c5e8b7004ac9bf00be
:10585000e14f50001d003a004bc9bf000004e000ba
:105860001a003a004cc9bf000004e00017003a00db
:1058700050c4b300cef3b70020c5b300cff3b700d8
:1058800020c5b300d0f3b70000c3b300d1f3b70015
:1058900000c3b300d2f3b70010c3b300d3f3b70013
:1058a00030c0b30017e8b70030c0b30018e8b70045
:1058b0000000eb006e010700ca82a900d1a2a90076
:1058c0000000eb00360107003f0037004ac9bf0067
:1058d0000004e0001d003a004bc9bf00e14f50003a
:1058e0001a003a004cc9bf000004e00017003a005b
:1058f00050c4b300cef3b70020c5b300cff3b70058
:1059000020c5b300d0f3b70000c3b300d1f3b70094
:1059100000c3b300d2f3b70020c3b300d3f3b70082
:1059200030c0b30017e8b70030c0b30018e8b700c4
:105930000000eb004e010700ca82a900d1a2a90015
:105940000000eb00160107001f0037004ac9bf0026
:105950000004e0001c003a004bc9bf000004e00056
:1059600019003a004cc9bf00e14f500016003a0040
:1059700050c4b300cef3b70020c5b300cff3b700d7
:1059800020c5b300d0f3b70000c3b300d1f3b70014
:1059900000c3b300d2f3b70030c3b300d3f3b700f2
:1059a00030c0b30017e8b70030c0b30018e8b70044
:1059b0000000eb002e010700ca82a900d1a2a900b5
:1059c0000000eb00f60007004dc9bf00e14f50009a
:1059d000fdff3200fcc8bf00e14f50002f003a002d
:1059e000d1e2a8000bc8bf00e14f50000a003a0006
:1059f00017f6070000e8b70088f5070001e8b700d0
:105a00000040eb000be8b7001180200091407800c7
:105a100000c8bf00bb170700c4c8bf00e14f50005b
:105a20001b003a000040eb00c4e8b700f14221003f
:105a300091407800e0c4b30080cf50000f003200e6
:105a4000f142210091407800a0c5b30080cf500002
:105a50000a003200f14221009140780040c4b300b6
:105a600080cf500005003200f142210091407800c3
:105a700080c4b30080cf500005003a00c3c8bf0007
:105a80000004e00002003a002fd4bf00a61a07006d
:105a9000b0a58000c200070021fe3700fcc8bf008f
:105aa0000004e0001efe3a00d1e2a9000bc8bf00ce
:105ab000e14f50000d003a00a1c8bf000004e00013
:105ac0000a003a00e2f5070000e8b70053f50700c6
:105ad00001e8b7000040eb000be8b70011802000a0
:105ae0009140780000c8bf006d090700c4c8bf001e
:105af000e14f500060003a000040eb00c4e8b700fe
:105b0000514721009140780000c8b30000c06000f8
:105b10000004e0002a00320077d4bf0001c8b300bf
:105b2000014060000004e00025003a0074d4bf008a
:105b3000704060000004e0002100320077d4bf0014
:105b40000044b2000004e0001d00320090408000dc
:105b5000e10f500017003a00f14221009140780017
:105b600080c4b30080cf50000f003200f14221000a
:105b70009140780040c4b30080cf50000a0032004a
:105b8000f142210091407800a0c5b30080cf5000c1
:105b900005003200f142210091407800f0c4b300ca
:105ba00080cf500034003a002fd4bf005e1a0700a7
:105bb000310037002fd4bf005b1a07002e003700da
:105bc00075d4bf0001c8b300014060000004e000cc
:105bd00029003a0077d4bf0001c8b300014060003b
:105be0000004e0002400320074d4bf007040600064
:105bf0000004e0002000320077d4bf000044b2006f
:105c00000004e0001c00320090408000e10f5000d2
:105c100017003a00f14221009140780080c4b3009f
:105c200080cf50000f003200f142210091407800f7
:105c300040c4b30080cf50000a003200f14221007e
:105c400091407800a0c5b30080cf5000050032001d
:105c5000f142210091407800f0c4b30080cf5000a1
:105c600005003a002fd4bf002f1a070002003700aa
:105c70002fd4bf002c1a0700c04280000000e000b3
:105c80000a003a0023c8bf00e14f50000300320071
:105c900038c8bf00e14f500002003a00c31b0700a4
:105ca000020037000000eb003d0007007fc8bf0086
:105cb000e14f50009afd3a000040eb007fe8b7004a
:105cc0008304070099040700af04070081c8bf00e0
