:020000040000fa
:080000000001040000000000f3
:020000040000fa
:100200000f522100807f21000001880000000000c3
:10021000050007000c000700f8290200000000009c
:100220000040da000000fe004440a90000e823007e
:100230000000e0000300320010002000a001880050
:100240004440a8000000060020172a0001002000fa
:100250001600370062004000e080480091018800ed
:100260009001ba0062004000e080480091018800df
:100270009002ba0062004000e08048000002eb00fb
:100280006028e10005003a008301e900070033001f
:10029000038009000059eb00040037006128e100e9
:1002a000010032000082eb00050007009101880088
:1002b0001001ba000200e000e6ff3a00000005006d
:1002c000910188008002780062004000e0804800d0
:1002d0003559ba008301e900080032002559ba00f7
:1002e0008301e900050032000400e000f4ff320061
:1002f00015d9ba008301e900f1ff3a0000000600b9
:10030000889fbe008a9fbe00010578000100e000c2
:100310000400350008003c000000e000200032002e
:100320000500370060001000e080180002003b006c
:1003300001f02c001a0037000004be006011b80064
:100340006b0920000982cf00020039000882cf002b
:100350000441b000694252000e00320008003b0028
:1003600082817100610164008904d1000884d30096
:100370008b05e8000442e800f9ff3a000500370069
:100380000804440089844c008b05e9000442e9001c
:10039000fbff3a002e0107000af0a70001f0a000c1
:1003a0004f05be004f04be000000060003f0a2008f
:1003b000889fbe008a9fbe008c1f78004a010700fc
:1003c000510133006450e1004f0032006420e1002d
:1003d0005200320003826c0007003b000905d00088
:1003e0000306d000820f54000c065d0002003900a5
:1003f00002003200890178000306780085825500ea
:1004000004003d000003fd008103fd008502ea00b9
:100410008b854200840f720002003b0060001000d8
:10042000e08018006011b8000005eb007a28e100b8
:100430000a00390006007800c75ddd00f707b2004a
:10044000878075002d003700828171000a017800d5
:10045000610560008180d1000080d3008502e90041
:10046000f9ff3b00060440008784480002003b007f
:1004700060041400e0841c000988a3000700320017
:100480008a81710082817100610164008904d10058
:100490000884d3008b05e800170037000978a30013
:1004a00013003a000b00e000130034008b05e90054
:1004b0000804440089844c000a4474000978a300ad
:1004c0000d003a000b00e000070034008b05e90046
:1004d0000804440089844c0001003a000b0020000d
:1004e0000978a300f7ff32000001eb00020037009b
:1004f000828171000a017800d50007000cf0a70086
:1005000001f0a000090137006420e10002003a0078
:10051000838f6c00090133000801be000200be0099
:1005200002013700889fbe008a9fbe008c1f7800a2
:10053000ed000700f400330003866c006450e10016
:100540002e0032006420e100330032006150e100ef
:100550002f0032006120e100310032008585550016
:10056000eb07b00009002000080420000500370058
:100570000804440089844c000a003100060343004b
:1005800087834b000001530081815b00f8ff33003b
:100590000203be000800a0000804440089844c0047
:1005a000f6ff3900c639dd00830173000100320017
:1005b000130020008904d1000884d3000998a30007
:1005c000050032000800a7000300a0008904d10044
:1005d0000884d3008b05e8008904d1000884d30087
:1005e0000001eb000281d2009900070001f0a10098
:1005f0000cf0a70001f0a000cc0037006420e1005f
:10060000ce0032000801be000200be00f7ff370036
:100610006120e100c90032006000b800f3ff37003c
:100620000000200001f82700f0ff3700889fbe007f
:100630008a9fbe008c1f7800ab000700b200330019
:1006400003866c006450e100240032006420e10065
:10065000270032006150e100220032006120e100f9
:10066000210032008b854200eb07b1000134b80055
:10067000003ab8000804420089844a00013ab800f0
:100680000030b8008880400009014a0004003300af
:100690000000400081804800020149008b05e9000c
:1006a000c909dd0083017000010032001300200041
:1006b000c814de004814dd004709de001200b20055
:1006c000c808de00088470006100070001f0a10086
:1006d0000cf0a70001f0a000940037006120e100b9
:1006e000960032000801be000200be00f7ff37008e
:1006f0006150e100fcff3a00900037001400200038
:1007000091003700f4ff2f008f0037000001be007a
:10071000a80007000470a70003f0a10003f8a300dd
:1007200013003a006509b1001000320009003500dd
:100730006928e100020035000100280000000500e2
:1007400000004000818048008502e900fcff3a007b
:1007500000000600f88f4200050035008100d1003e
:100760000080d3008502e800fcff3a00000006008c
:100770008000eb00000005000001be008d000700b6
:100780000470a70003f0a1006509b1001600320053
:100790000d0035006828e10006003500f0ff2f004d
:1007a000f1ff27000300e00013003b0001002800d8
:1007b0000000050000004000818048008502e9003b
:1007c000fcff3a0008003700f88f420002003c00ae
:1007d0008000eb00000005008100d1000080d30004
:1007e0008502e800fcff3a000300e00002003b0045
:1007f00060001000e0801800000006000200070002
:100800000400be00000006006022b80006022000be
:100810000000d0008180d2000482d2008582d20004
:100820000000a0000202520083825a0003003b0035
:100830000202420083824a000000a1000603e90090
:10084000f3ff3a0000000600040020003e003700dd
:1008500081002000618055000b003d000b0020004e
:1008600061fe2f000100e1001d0034008281710053
:10087000610164008904d1000884d3000000e8000d
:10088000faff3a007100200061006400030070006c
:10089000020060000900320061044400e0844c0062
:1008a0000988a500050032008b05e8006808e10012
:1008b00002003a008904d1000884d300f20f20001e
:1008c0000258e10005003d00c75ddd00f907b200f8
:1008d0008980750008007800000006000bf82700ea
:1008e0008b007800000005000004be003100070006
:1008f0000003be000405be000200be002d0007007c
:10090000844f7500000006000200be006450e10044
:10091000050036006420e100020036000968a300eb
:1009200001003a000800be000160a0004f067800f8
:100930004f05be004f04be0000000600f0ff2f0070
:10094000f1ff2700f9ff3700889fbe008a9fbe0095
:10095000841f7800e4ff07004f0078001100330087
:10096000f0ff2f00838f6c0006003b00040565003c
:100970000a00a7000800370009f0a60010002000b8
:1009800008003700820f5400838f5c000300390099
:100990001000200001003e000000200009f0a70028
:1009a0000000ea004f05be004f04be000000e0005a
:1009b00000000600c70ade00f107b200f50fb20022
:1009c00008003200e1cf4200020032000170a000b6
:1009d00024000500810f70000100320004080500aa
:1009e00044000500810f700002003a001400050069
:1009f0008502e9000000400081c04800fcff3b0088
:100a00000170a000240005000200fa001e0007008b
:100a1000610007004bf4b7004bd4bf00e14f50001a
:100a200006003a000040eb004bf4b70066000700f8
:100a3000004f7800d200070002003700a0c5b300c5
:100a4000004f78001e80fb000080fa0000000600c6
:100a50000000fa00d202a800d222a800d242a800c8
:100a6000c602a800cc42a900dec2a900d2a2a900f9
:100a7000d2c2a9000080fa00000006000000fa00bf
:100a80000080fa00000006000000fa00d042a80032
:100a9000e2c2a800d6a2a800d6c2a8000080fa0030
:100aa000000006000200fa00d4c2bf0061406000ee
:100ab0000004e000030032000000eb00000f7800ab
:100ac00017003700d4c2bf00624060000004e0009d
:100ad0000300320010002000000f780010003700e3
:100ae000d4c2bf00644060000004e0000300320094
:100af00020002000000f780009003700c8c2bf00a6
:100b0000614060000004e00003003200300020007b
:100b1000000f780002003700f00f2000000f78006f
:100b20001e0078000080fa00000006000200fa00b3
:100b3000d5ff070088000700d4c2bf0061406000f5
:100b40000004e0000f003a00d4c2bf006240600021
:100b50000004e0000b003a00d4c2bf006440600013
:100b60000004e00007003a00c8c2bf006140600016
:100b70000004e00003003a0010c0b300004f78000a
:100b8000020037000040eb00004f78001e80fb00a1
:100b90000080fa00000006000200fa00c1ff070012
:100ba000e14f40000300320010002000000f7800e9
:100bb000020037000000eb00000f78001e007800f4
:100bc0000080fa00000006000600fa00a0ff0700ff
:100bd0000040eb0010479800090037001e409000cd
:100be00020000700204798002e409000e14f400071
:100bf00006003a001e4090000040e80010479800b0
:100c00001e409000e34f5000f4ff36001e4090005d
:100c1000e44f500005003a0080c5b300004f780053
:100c20001e80fb00200798000b0037002e4090002c
:100c30008080fb001e4090000081fb00632b280099
:100c400001804000000040000200400060cf7900b9
:100c50001e80fb00200798002e0090000080fa0004
:100c6000000006000400fa00004f78001e80fb0020
:100c7000100798001e009000e10f50001000320095
:100c80001e009000e10f500004003c001e00900088
:100c90000000e000080032000e0037001e00900047
:100ca000e20f5000080032001e009000e30f5000d9
:100cb00007003200070037000b000700050037006f
:100cc000100007000300370015000700010037007f
:100cd0001a0007002000070072ff07000080fb00d9
:100ce0000080fa00000006000000fa00d042a800d0
:100cf000e2c2a900d6a2a900d6c2a9000080fa00cb
:100d0000000006000000fa00d042a900e2c2a800dc
:100d1000d6a2a900d6c2a9000080fa0000000600f1
:100d20000000fa00d042a900e2c2a900d6a2a800a1
:100d3000d6c2a9000080fa00000006000000fa00f8
:100d4000d042a900e2c2a900d6a2a900d6c2a8003a
:100d50000080fa00000006000200fa000000eb002c
:100d6000000f7800010037001e0fe800c05d200072
:100d70009e0f1000fcff36000080fa000000060005
:100d80000000fa00f4ff0700f3ff0700f2ff07007e
:100d9000f1ff0700f0ff0700efff07000080fa00f7
:100da000000006007600fa00881f7800004f7800e7
:100db00086c8bf00e14f500005003a0070c4b30080
:100dc0009e4f10000200320060c5b300004f780053
:100dd0009ec8bf00e14f500005003a0030c4b30088
:100de0009e4f10000200320060c5b300004f780033
:100df000e0c4b3009e4f100047013a000040eb00f2
:100e0000004f780010c0b3005ae9b70083c0a900b2
:100e100091028000f0ff23000080700090028800a3
:100e200083c0a800814921009140780000c8b30028
:100e300000c060000004e0004d003a009794a90053
:100e40009af4a8009ad4a80098f4a800e002200020
:100e50001b0e07008048880081488000f0f72f00b3
:100e600080806000000820000080700080488800ba
:100e700081488000e00220002e0e07009ad4bf00b7
:100e80008080fb00000320002a0e0700c002200023
:100e90000b0e07008048880081488000f0ff2e007c
:100ea000008060008048880081488000c0022000e7
:100eb000200e070010c0b30051e9b70051c9bf00b0
:100ec0008080fb00800420001a0e0700a61a07008d
:100ed00000c0eb0096f4b70000c0eb0097f4b70039
:100ee00000c0eb0098f4b70000c0eb0099f4b70025
:100ef00000c0eb009af4b7009794a9009af4a800f8
:100f00009ad4a80098f4a800d1c2a900d1e2a80000
:100f10009634a9000000eb00804588000d003700e2
:100f20000000eb00904588000300370090458000ea
:100f30000000e800904588009145800030062000c0
:100f4000808f5000f9ff3600804580000000e800e7
:100f50008045880081458000803e2000808f5000c1
:100f6000efff3600d0a6800062150700e7003700cb
:100f700097d4bf00704060000004e00051003a00c8
:100f80009794a8009af4a8009ad4a90098f4a8000d
:100f9000c0022000ca0d07008048880081488000f8
:100fa000f0ff2e00808060000000210000807000b3
:100fb0008048880081488000c0022000dd0d0700c5
:100fc000e0022000be0d07008048880081488000b4
:100fd000f0f72f0080806000000820000080700083
:100fe0008048880081488000e0022000d10d070081
:100ff0009ad4bf008080fb0000032000cd0d0700c5
:1010000020c0b30051e9b70051c9bf008080fb0088
:1010100080042000c70d0700531a070000c0eb0032
:1010200096f4b70000c0eb0097f4b70000c0eb00e7
:1010300098f4b70000c0eb0099f4b70000c0eb00d3
:101040009af4b7009794a8009af4a8009ad4a9003b
:1010500098f4a8009634a900d1e2a80010c0b3000b
:10106000fce8b700d1c2a8000000eb008045880072
:101070000d0037000000eb009045880003003700aa
:10108000904580000000e800904588009145800070
:1010900030062000808f5000f9ff36008045800028
:1010a0000000e8008045880081458000803e2000e7
:1010b000808f5000efff3600d0a680000d1507008e
:1010c000920037009ad4bf000044b2000004e00050
:1010d00044003a0080a680003049880030498000f2
:1010e00070a588009794a8009af4a9009ad4a80043
:1010f00098f4a800c0022000710d07008048880005
:1011000081488000f0ff2e008080600000002100f8
:10111000008070008048880081488000c002200064
:10112000840d0700e0022000650d0700804888005c
:1011300081488000f0f72f008080600000082000c8
:10114000008070008048880081488000e002200014
:10115000780d07009ad4bf008080fb0000032000b8
:10116000740d070030c0b30051e9b70051c9bf008a
:101170008080fb00800420006e0d0700fa19070034
:10118000d1e2a9000040eb00fce8b700d1c2a80002
:101190000000eb00804588000d0037000000eb00e8
:1011a0009045880003003700904580000000e8006b
:1011b000904588009145800030062000808f5000c7
:1011c000f9ff3600804580000000e8008045880077
:1011d00081458000803e2000808f5000efff360068
:1011e0004a0037009ad4bf0001c8b3000140600034
:1011f0000004e00045003a0080a6800030498800e5
:101200003049800070a588009794a8009af4a8003f
:101210009ad4a80098f4a900c0022000280d070065
:101220008048880081488000f0ff2e0080806000a8
:101230000000210000807000804888008148800004
:10124000c00220003b0d0700e00220001c0d07003b
:101250008048880081488000f0f72f0000806000ff
:101260008048880081488000e0022000310d07009e
:101270009ad4bf008080fb00000320002d0d0700e2
:1012800040c0b30051e9b70051c9bf008080fb00e6
:1012900080042000270d0700b31907009794a800c9
:1012a0009af4a8009ad4a80098f4a900d1e2a90061
:1012b0000040eb00fce8b700d1c2a8000000eb0042
:1012c000804588000d0037000000eb009045880045
:1012d00003003700904580000000e800904588003a
:1012e0009145800030062000808f5000f9ff3600c5
:1012f000804580000000e80080458800814580002e
:10130000803e2000808f5000efff360010c0b300f9
:1013100061e8b700dc07370080c4b3009e4f1000bf
:101320006e023a000040eb00004f7800a149210016
:101330009140780000c8b30000c060000004e000e5
:101340000500320098d4bf0001c8b300014060001e
:101350000004e000cc073a0099d4bf007040600060
:101360000004e000dd00320099d4bf000042b2006a
:101370000004e000d900320099d4bf000044b2005c
:101380000004e000d500320097d4bf006840600040
:101390000004e0002a003a001dc8bf000004e0007d
:1013a00027003a0000c0eb0097f4b7009714a9009b
:1013b00010c0b3001de8b7006149210091407800da
:1013c000b0cfb30000c0700096f4b70096f4a90047
:1013d000f8a480006140b900c9fb0700103f9800e5
:1013e000213f98000800e00007003d0002002000b7
:1013f000037824001e389000ae389000ecfb070004
:10140000103f9800213f98001e399000ae3990009f
:10141000f03e21004b17070018e8b70000c5b300e5
:10142000ecf3b70020c5b300edf3b70050c4b30030
:10143000eef3b70030c0b30017e8b70092073700eb
:1014400097d4bf00614060000004e00025003a002e
:1014500000c0eb0097f4b7009774a9006149210020
:1014600091407800b0cfb30000c0700096f4b70090
:101470009634a90096d4a900d2418000e3418000af
:10148000c03e21002f17070017e8b70038a68000dc
:101490006140b9009afb070070379800013f98003f
:1014a0000800e00007003d0002002000037824004f
:1014b0007e3090008e389000bdfb0700703798009a
:1014c000013f98007e3190008e399000f03e21005f
:1014d0001c17070018e8b70000c3b300f1f3b7000a
:1014e0006907370097d4bf00684060000004e0003f
:1014f0001f003a0000c0eb0097f4b70097d4a90092
:101500006149210091407800b0cfb30000c0700065
:1015100096f4b70096f4a9000040eb00d2f4b700af
:101520000040eb00d3f4b70010c0b300d4f4b70010
:101530000040eb00d5f4b700a2418000b341800029
:10154000f03e2100ff16070018e8b70020c4b300e2
:10155000ecf3b70020c5b300edf3b700e0c4b3006f
:10156000eef3b70030c0b30017e8b7004607370006
:1015700097d4bf000044b2000004e0002d003a0000
:1015800000c0eb0097f4b70097f4a900614921006f
:1015900091407800b0cfb30000c0700096f4b7005f
:1015a00096f4a9000040eb00d2f4b7000040eb0035
:1015b000d3f4b7000040eb00d4f4b70010c0b30080
:1015c000d5f4b70008a680006140b9004cfb0700c5
:1015d00050379800613798000800e00007003d0090
:1015e00002002000037824005e309000ee3090006e
:1015f0006ffb070050379800613798005e3190000c
:10160000ee319000f03e2100ce16070018e8b7003a
:1016100000c5b300ecf3b70030c5b300edf3b7007d
:1016200040c5b300eef3b70030c0b30017e8b70011
:101630001507370097d4bf0001c8b3000140600010
:101640000004e00010073a0000c0eb0097f4b70078
:101650009714a9006149210091407800b0cfb300f0
:1016600000c0700096f4b70096f4a900f8a48000ba
:101670006140b90022fb07003037980041379800dd
:101680000800e00007003d0002002000037824006d
:101690003e309000ce30900045fb07003037980078
:1016a000413798003e319000ce319000f03e21004d
:1016b000a416070018e8b70000c5b300ecf3b700a4
:1016c00020c5b300edf3b70050c4b300eef3b7008c
:1016d00030c0b30017e8b700eb06370099d4bf005d
:1016e0000044b2000004e0000a013a0097d4bf00b1
:1016f000684060000004e0002a003a001dc8bf00f6
:101700000004e00027003a0000c0eb0097f4b700a7
:101710009714a90010c0b3001de8b700614921006b
:1017200091407800b0cfb30000c0700096f4b700cd
:1017300096f4a900f8a480006140b900f0fa07000f
:1017400010379800213798000800e00007003d009e
:1017500002002000037824001e309000ae3090007c
:1017600013fb070010379800213798001e319000b6
:10177000ae319000f03e21007216070018e8b70065
:1017800000c5b300ecf3b70020c5b300edf3b7001c
:1017900050c4b300eef3b70030c0b30017e8b70091
:1017a000b906370097d4bf00614060000004e00034
:1017b00025003a0000c0eb0097f4b7009774a90029
:1017c0006149210091407800b0cfb30000c07000a3
:1017d00096f4b7009634a90096d4a900d2418000af
:1017e000e3418000c03e21005616070017e8b7000d
:1017f00038a680006140b900c1fa0700702f980038
:10180000013798000800e00007003d0002002000ba
:10181000037824007e2890008e309000e4fa0700c0
:10182000702f9800013798007e2990008e3190002b
:10183000f03e21004316070018e8b70000c3b300cc
:10184000f1f3b7009006370097d4bf0068406000fe
:101850000004e00031003a0000c0eb0097f4b7004c
:1018600097b4a9006149210091407800b0cfb3003e
:1018700000c0700096f4b7009674a9009694a90071
:10188000b8a580006140b9009dfa0700502f98006c
:10189000612f98000800e00007003d0002002000d2
:1018a000037824005e289000ee289000c0fa07001c
:1018b000502f9800612f98005e299000ee2990002b
:1018c000c03e21001f16070017e8b700c8a580001a
:1018d0006140b9008afa0700302f9800412f980024
:1018e0000800e00007003d0002002000037824000b
:1018f0003e289000ce289000adfa0700302f9800c7
:10190000412f98003e299000ce299000f03e210002
:101910000c16070018e8b7005b06370097d4bf0025
:101920000042b2000004e0001f003a0000c0eb00db
:1019300097f4b70097d4a90061492100914078003d
:10194000b0cfb30000c0700096f4b70096f4a900c1
:101950000040eb00d2f4b7000040eb00d3f4b70036
:1019600010c0b300d4f4b7000040eb00d5f4b700ca
:10197000a2418000b3418000f03e2100f115070034
:1019800018e8b70020c4b300ecf3b70020c5b300db
:10199000edf3b700e0c4b300eef3b70030c0b3001e
:1019a00017e8b7003806370097d4bf000044b200ec
:1019b0000004e0002d003a0000c0eb0097f4b700ef
:1019c00097f4a9006149210091407800b0cfb3009d
:1019d00000c0700096f4b70096f4a9000040eb0038
:1019e000d2f4b7000040eb00d3f4b7000040eb00a6
:1019f000d4f4b70010c0b300d5f4b70008a6800037
:101a00006140b9003efa0700102f9800212f98007e
:101a10000800e00007003d000200200003782400d9
:101a20001e289000ae28900061fa0700102f980041
:101a3000212f98001e299000ae299000f03e210031
:101a4000c015070018e8b70000c5b300ecf3b700f5
:101a500030c5b300edf3b70040c5b300eef3b700f7
:101a600030c0b30017e8b7000706370097d4bf00af
:101a700001c8b300014060000004e00002063a0023
:101a800000c0eb0097f4b7009714a900614921004a
:101a900091407800b0cfb30000c0700096f4b7005a
:101aa00096f4a900f8a480006140b90014fa070078
:101ab00070279800012f98000800e00007003d0003
:101ac00002002000037824007e2090008e289000e1
:101ad00037fa070070279800012f98007e219000a8
:101ae0008e299000f03e21009615070018e8b700f7
:101af00000c5b300ecf3b70020c5b300edf3b700a9
:101b000050c4b300eef3b70030c0b30017e8b7001d
:101b1000dd05370097d4bf0001c8b3000140600065
:101b20000004e00025003a0000c0eb0097f4b70085
:101b30009774a9006149210091407800b0cfb300ab
:101b400000c0700096f4b7009634a90096d4a9009e
:101b5000d2418000e3418000c03e2100791507009a
:101b600017e8b70038a680006140b900e4f9070023
:101b700050279800612798000800e00007003d000a
:101b800002002000037824005e209000ee209000e8
:101b900007fa070050279800612798005e219000ff
:101ba000ee219000f03e21006615070018e8b7000e
:101bb00000c3b300f1f3b700b305370097d4bf00fb
:101bc000684060000004e00019003a0000c0eb002b
:101bd00097f4b70097d4a9000040eb00d2f4b70007
:101be0000040eb00d3f4b70010c0b300d4f4b7004a
:101bf0000040eb00d5f4b700a2418000b341800063
:101c0000f03e21004f15070018e8b70020c4b300cc
:101c1000ecf3b70020c5b300edf3b700e0c4b300a8
:101c2000eef3b70030c0b30017e8b70096053700f1
:101c300097d4bf000044b2000004e00092053a00cf
:101c400000c0eb0097f4b70097f4a9000040eb0048
:101c5000d2f4b7000040eb00d3f4b7000040eb0033
:101c6000d4f4b70010c0b300d5f4b70008a68000c4
:101c70006140b900a2f90700302798004127980079
:101c80000800e00007003d00020020000378240067
:101c90003e209000ce209000c5f907003027980024
:101ca000412798003e219000ce219000f03e210077
:101cb0002415070018e8b70000c5b300ecf3b7001f
:101cc00030c5b300edf3b70040c5b300eef3b70085
:101cd00030c0b30017e8b7006b05370060c4b3002d
:101ce0009e4f10004b003a000040eb00004f780080
:101cf00051c9bf00e34f500063053a0098d4bf00bc
:101d0000704060000004e0000b003a009894a800c6
:101d100098b4a9009814a9009834a8009854a80071
:101d20009874a8009914a9009934a8009954a8009f
:101d30009974a8005405370098d4bf000042b2003f
:101d40000004e00010003a00e19220009140780089
:101d500030c4b30080cf50000b00320098b4a8000c
:101d600098d4a9009814a8009834a8009854a90001
:101d70009874a8009914a8009934a8009954a9004f
:101d80009974a8004005370098d4bf000042b20003
:101d90000004e00010003a00e19220009140780039
:101da00030c4b30080cf50000b003a0098b4a800b4
:101db0009894a9009814a9009834a8009854a800f1
:101dc0009874a8009914a9009934a8009954a800ff
:101dd0009974a8002c05370098d4bf000044b200c5
:101de0000004e00028053a0098d4a8009894a900bf
:101df0009814a9009834a8009854a8009874a800d2
:101e00009914a9009934a8009954a8009974a800bd
:101e10001d053700a0c4b3009e4f100078003a00a3
:101e20000040eb00004f780051c9bf00e34f500065
:101e300051003a0098d4bf00704060000004e000f8
:101e400032003a0098d4bf00614060000004e00016
:101e500003003a009814a8009834a9000a05370036
:101e600098d4bf00624060000004e00003003a0024
:101e70009834a8009854a9000305370098d4bf00ef
:101e8000644060000004e00008003a00e192200095
:101e90009140780030c4b30080cf5000030032007e
:101ea0009854a8009874a900f704370098d4bf008c
:101eb000644060000004e00008003a00e192200065
:101ec0009140780030c4b30080cf500003003a0046
:101ed0009854a8009814a900eb04370098d4bf00c8
:101ee000684060000004e000e7043a00e19220004e
:101ef0009140780030c4b30080cf5000e20432003b
:101f00009874a8009814a900df04370098d4bf0083
:101f10000042b2000004e0000e003a0098d4bf0076
:101f2000614060000004e00003003a009814a8003b
:101f30009854a900d404370098d4bf0064406000ce
:101f40000004e000d0043a009854a8009814a900b6
:101f5000cd04370098d4bf000044b2000004e00074
:101f6000c9043a009814a8009834a8009854a9000d
:101f70009874a800c404370051c9bf00e44f500052
:101f8000c1043a0098d4bf00704060000004e00033
:101f9000bd043a0098d4bf00644060000004e00033
:101fa00008003a00e19220009140780030c4b3006c
:101fb00080cf5000030032009854a8009874a90004
:101fc000b104370098d4bf00684060000004e0000e
:101fd00008003a00e19220009140780030c4b3003c
:101fe00080cf5000030032009874a8009854a900d4
:101ff000a50437009854a9009874a800a2043700db
:1020000020c4b3009e4f10005e003a000040eb0079
:10201000004f780051c9bf00e34f500049003a001b
:1020200098d4bf00704060000004e0000e003a0049
:1020300099d4bf00614060000004e00003003a0052
:102040009914a8009934a9008f04370099d4bf00cf
:10205000624060000004e0008b043a009934a8005c
:102060009914a9008804370098d4bf000042b20038
:102070000004e00013003a00e19220009140780053
:1020800030c4b30080cf50000e00320099d4bf009e
:10209000614060000004e00003003a009914a800c9
:1020a0009974a9007804370099d4bf006840600093
:1020b0000004e00074043a009974a8009914a9007f
:1020c0007104370098d4bf000042b2000004e00061
:1020d00013003a00e19220009140780030c4b30030
:1020e00080cf50000e003a0099d4bf0061406000dc
:1020f0000004e00003003a009914a8009954a900d4
:102100006104370099d4bf00644060000004e0001f
:102110005d043a009954a8009914a9005a043700a4
:1021200098d4bf000044b2000004e00056043a0016
:102130009914a8009934a8009954a9009974a8008a
:102140005104370051c9bf00e44f50004e043a001b
:1021500098d4bf00704060000004e0004a043a00d8
:1021600099d4bf00624060000004e00046043a00d9
:102170009914a8009934a9009954a8009974a8004a
:1021800041043700b0c4b3009e4f10006f003a0006
:102190000040eb00004f78000040eb001de8b70066
:1021a00099d4bf00704060000004e00017003a00be
:1021b0009994a80099b4a9009654a80000c0eb0017
:1021c00097f4b7009774a900614921009140780005
:1021d000b0cfb30000c0700096f4b7009614a90009
:1021e00096d4a9000040eb00d2f4b7000040eb0009
:1021f000d3f4b7000040eb00d4f4b7000040eb008c
:10220000d5f4b7009a94a8001f04370099d4bf00f2
:102210000042b2000004e00016003a0099b4a800a1
:1022200099d4a9009654a80000c0eb0097f4b70019
:102230009774a9006149210091407800b0cfb300a4
:1022400000c0700096f4b7009634a90096d4a90097
:102250000040eb00d2f4b7000040eb00d3f4b7002d
:102260000040eb00d4f4b7000040eb00d5f4b70019
:102270000504370099d4bf000044b2000004e00018
:1022800016003a0099d4a80099f4a9009654a80021
:1022900000c0eb0097f4b7009774a90061492100d2
:1022a00091407800b0cfb30000c0700096f4b70042
:1022b0009634a90096d4a9000040eb00d2f4b700f0
:1022c0000040eb00d3f4b7000040eb00d4f4b700bb
:1022d0000040eb00d5f4b700eb03370099d4bf0002
:1022e00001c8b300014060000004e000e6033a00ca
:1022f00099f4a8009994a9009654a8006149210076
:1023000091407800b0cfb30000c0700096f4b700e1
:102310009614a90096d4a90000c0eb0097f4b7006a
:102320009774a9000040eb00d2f4b7000040eb0026
:10233000d3f4b7000040eb00d4f4b7000040eb004a
:10234000d5f4b7009a94a800cf033700c0c4b300f7
:102350009e4f100019003a000040eb00004f78003b
:102360009ad4bf00704060000004e00002003a0010
:102370009a94a800c40337000000eb00d043880003
:102380006000b800109e8800219e880091492100bd
:102390009140780000c8b30000c060000004e00075
:1023a0000400320099d4bf000044b2000004e000f1
:1023b000b5033a009a94a900b303370040c4b300b0
:1023c0009e4f100024023a000040eb00004f7800be
:1023d0000040eb001de8b70097d4bf0070406000dc
:1023e0000004e00013003a0096d4bf000080fb0018
:1023f0004500de006140600000c0ea00614060000e
:10240000614060000040400000404000004040004b
:1024100000404000004140006149210091407800a7
:10242000f0cdb30000c060000240700096f4b70029
:102430009503370099d4bf0001c8b3000140600084
:102440000004e0000400320099d4bf000044b20050
:102450000004e0006c003a00904080000000e000c2
:1024600024003a00a9c8bf000004e00021003a009f
:10247000b4c8bf000004e0001e003a00c0c4b300ae
:10248000ecf3b70030c4b300edf3b700b0c4b30051
:10249000eef3b70030c0b30017e8b7008840800003
:1024a0006140b90096f7070010279800212798008f
:1024b0000800e00007003d0002002000037824002f
:1024c0001e209000ae209000b9f70700102798005a
:1024d000212798001e219000ae219000f03e21009f
:1024e0001813070018e8b70010c0b300a9e8b70038
:1024f0006503370090408000e10f500023003a0050
:10250000b4c8bf000004e00020003a0000c5b300da
:10251000ecf3b70010c4b300edf3b70030c5b3005f
:10252000eef3b70030c0b30017e8b7000000eb00cf
:1025300070458800784580006140b90070f7070059
:10254000701f9800012798000800e00007003d0078
:1025500002002000037824007e1890008e20900056
:1025600093f70700701f9800012798007e199000cc
:102570008e219000f03e2100f212070018e8b7000b
:1025800010c0b300a9e8b7003f033700a9c8bf00d7
:10259000e14f50000e003a00b4c8bf000004e00054
:1025a0000b003a0010c0b300aae8b7000040eb00ef
:1025b00062e8b7000040eb0063e8b7000040eb00c2
:1025c00064e8b7000040eb0065e8b7002e03370071
:1025d000b4c8bf00e14f50002b033a0010c0b30055
:1025e000b5e8b7000040eb0062e8b7000040eb0040
:1025f00063e8b7000040eb0064e8b7000040eb0080
:1026000065e8b7002003370099d4bf007040600030
:102610000004e00073003a0097d4bf000044b20009
:102620000004e0006f003a00d2d4bf00e14f500038
:1026300022003a000040eb00d2f4b70010c0b30013
:10264000d3f4b7000040eb00d4f4b70028a6800014
:102650006140b9002af70700501f9800611f9800d9
:102660000800e00007003d0002002000037824007d
:102670005e189000ee1890004df70700501f98006c
:10268000611f98005e199000ee199000f03e210045
:10269000ac12070018e8b70000c5b300ecf3b700b0
:1026a00040c5b300edf3b700d0c4b300eef3b700fc
:1026b00030c0b30017e8b700f3023700d3d4bf002f
:1026c000e14f500022003a000040eb00d2f4b70086
:1026d0000040eb00d3f4b70010c0b300d4f4b7004f
:1026e000f8a580006140b90005f70700301f980089
:1026f000411f98000800e00007003d000200200094
:10270000037824003e189000ce18900028f70700a8
:10271000301f9800411f98003e199000ce1990007c
:10272000f03e21008712070018e8b70020c4b3006c
:10273000ecf3b70020c5b300edf3b700e0c4b3007d
:10274000eef3b70030c0b30017e8b700ce02370091
:10275000d4d4bf00e14f5000cb023a0010c0b30008
:10276000d2f4b7000040eb00d3f4b7000040eb0018
:10277000d4f4b70018a680006140b900e0f6070065
:10278000101f9800211f98000800e00007003d007e
:1027900002002000037824001e189000ae1890005c
:1027a00003f70700101f9800211f98001e199000c2
:1027b000ae199000f03e21006212070018e8b70041
:1027c00030c5b300ecf3b70040c5b300edf3b7007c
:1027d000d0c4b300eef3b70030c0b30017e8b700c1
:1027e000a902370099d4bf00704060000004e000e7
:1027f00074003a0097d4bf0001c8b30001406000e4
:102800000004e0006f003a00d2d4bf00e14f500056
:1028100022003a000040eb00d2f4b70010c0b30031
:10282000d3f4b7000040eb00d5f4b70028a6800031
:102830006140b900b2f6070070179800011f9800b8
:102840000800e00007003d0002002000037824009b
:102850007e1090008e189000d5f607007017980033
:10286000011f98007e1190008e199000f03e21000b
:102870003412070018e8b70000c5b300ecf3b70046
:1028800040c5b300edf3b700d0c4b300eef3b7001a
:1028900030c0b30017e8b7007b023700d3d4bf00c5
:1028a000e14f500022003a000040eb00d2f4b700a4
:1028b0000040eb00d3f4b70010c0b300d5f4b7006c
:1028c00008a680006140b9008df6070050179800f7
:1028d000611798000800e00007003d00020020009a
:1028e000037824005e109000ee109000b0f6070010
:1028f00050179800611798005e119000ee1190003b
:10290000f03e21000f12070018e8b70000c5b30021
:10291000ecf3b70030c5b300edf3b70040c5b3002a
:10292000eef3b70030c0b30017e8b7005602370027
:10293000d5d4bf00e14f500053023a0010c0b3009d
:10294000d2f4b7000040eb00d3f4b7000040eb0036
:10295000d5f4b70018a680006140b90068f60700fa
:1029600030179800411798000800e00007003d006c
:1029700002002000037824003e109000ce1090004a
:102980008bf6070030179800411798003e11900011
:10299000ce119000f03e2100ea11070018e8b700c0
:1029a00030c5b300ecf3b70040c5b300edf3b7009a
:1029b000d0c4b300eef3b70030c0b30017e8b700df
:1029c0003102370099d4bf000042b2000004e00099
:1029d0004e003a0097d4bf000044b2000004e0006b
:1029e0004a003a00d2d4bf00e14f500022003a0022
:1029f0000040eb00d2f4b7000040eb00d3f4b70086
:102a000010c0b300d4f4b700f8a580006140b9004d
:102a10003bf6070010179800211798000800e00007
:102a200007003d0002002000037824001e109000e3
:102a3000ae1090005ef6070010179800211798005e
:102a40001e119000ae119000f03e2100bd11070054
:102a500018e8b70020c4b300ecf3b70020c5b300fa
:102a6000edf3b700e0c4b300eef3b70030c0b3003d
:102a700017e8b70004023700d4d4bf00e14f50007c
:102a800001023a0010c0b300d2f4b7000040eb00de
:102a9000d3f4b7000040eb00d4f4b70018a68000d0
:102aa0006140b90016f60700700f980001179800f2
:102ab0000800e00007003d00020020000378240029
:102ac0007e0890008e10900039f60700700f980075
:102ad000011798007e0990008e119000f03e2100b1
:102ae0009811070018e8b70030c5b300ecf3b70041
:102af00040c5b300edf3b700d0c4b300eef3b700a8
:102b000030c0b30017e8b700df01370099d4bf0029
:102b10000042b2000004e000db013a0097d4bf009d
:102b200001c8b300014060000004e000d6013a0093
:102b3000d2d4bf00e14f500022003a000040eb0029
:102b4000d2f4b7000040eb00d3f4b70010c0b300dc
:102b5000d5f4b70008a680006140b900e8f5070089
:102b6000500f9800610f98000800e00007003d003a
:102b700002002000037824005e089000ee08900018
:102b80000bf60700500f9800610f98005e09900047
:102b9000ee099000f03e21006a11070018e8b70026
:102ba00000c5b300ecf3b70030c5b300edf3b700d8
:102bb00040c5b300eef3b70030c0b30017e8b7006c
:102bc000b1013700d5d4bf00e14f5000ae013a004b
:102bd00010c0b300d2f4b7000040eb00d3f4b7004c
:102be0000040eb00d5f4b70018a680006140b900a2
:102bf000c3f50700300f9800410f98000800e0006f
:102c000007003d0002002000037824003e089000e9
:102c1000ce089000e6f50700300f9800410f9800ad
:102c20003e099000ce099000f03e210045110700ba
:102c300018e8b70030c5b300ecf3b70040c5b300e7
:102c4000edf3b700d0c4b300eef3b70030c0b3006b
:102c500017e8b7008c01370070c4b3009e4f100016
:102c60004e003a000040eb00004f780086c8bf00dd
:102c70000004e00027003a009ad4bf0070406000d2
:102c80000004e00023003200588820001844780037
:102c90000800fb00cf80de0099f50700100f9800b8
:102ca000210f98000804e00007003d00020020000a
:102cb000033824001e089000ae089000bcf5070001
:102cc000100f9800210f98001e099000ae09900087
:102cd000f03e21001b11070018e8b700c0c4b30084
:102ce000ecf3b700f0c4b300edf3b70030c4b300a9
:102cf000eef3b70030c0b30017e8b70010c0b30060
:102d000086e8b7000040eb0098e8b7009ab4a90045
:102d10005d01370086c8bf00e14f50005a013a00fc
:102d200022a4800033a48000c03e210005110700ca
:102d300017e8b70002a4800013a48000f03e210031
:102d40000011070018e8b70017c8bf00e14f500096
:102d500002003a00f0c2b300eef3b70018c8bf009b
:102d6000e14f500002003a00f0c2b300f1f3b700a7
:102d700010c0b30098e8b7000040eb0062e8b7006d
:102d80000040eb0063e8b7000040eb0064e8b700e8
:102d90000040eb0065e8b7003b01370030c4b300ea
:102da0009e4f100065003a000040eb00004f780095
:102db0009ec8bf000004e00027003a009ad4bf007c
:102dc000704060000004e0002300320058882000ba
:102dd000184478000800fb00cf80de0048f50700ab
:102de00070079800010f98000804e00007003d00fc
:102df00002002000033824007e0090008e0890001e
:102e00006bf5070070079800010f98007e01900095
:102e10008e099000f03e2100ca10070018e8b700a4
:102e2000c0c4b300ecf3b700f0c4b300edf3b700d7
:102e300030c4b300eef3b70030c0b30017e8b700fa
:102e400010c0b3009ee8b7000040eb0098e8b70060
:102e50009a74a9000c0137009ec8bf00e14f5000d2
:102e600009013a00018020009140780085c8bf0028
:102e70000080fb0081417800a200200011002000aa
:102e8000760d070085e8b7005888200018447800c0
:102e90000800fb00cf80de0019f5070050079800fe
:102ea000610798000804e00007003d0002002000d0
:102eb000033824005e009000ee0090003cf507000f
:102ec00050079800610798005e019000ee019000a5
:102ed000f03e21009b10070018e8b70018c8bf009b
:102ee000e14f500002003a00f0c2b300f1f3b70026
:102ef00020c5b300ecf3b70030c4b300edf3b70066
:102f0000c0c4b300eef3b70030c0b30017e8b70099
:102f10000040eb0062e8b7000040eb0063e8b70058
:102f20000040eb0064e8b7000040eb0065e8b70044
:102f300010c0b3009fe8b700d3003700d0c4b3007f
:102f40009e4f10002a003a009ad4bf0001c8b30077
:102f5000014060000004e00010003a0010c0b3001f
:102f60006ee8b7000040eb006fe8b70030c4b30074
:102f7000ecf3b70050c5b300edf3b70020c5b300c4
:102f8000eef3b70030c0b30017e8b7001000200020
:102f9000c0428800d1a2a800bb00370097d4bf0070
:102fa000704060000004e000b7003a00e00b200031
:102fb000c046880010c0b3000de9b7000040eb0028
:102fc0000ee9b70030c4b300ecf3b70050c5b3004e
:102fd000edf3b70020c5b300eef3b70030c0b30087
:102fe00017e8b70010002000c0428800a600370094
:102ff00010c5b3009e4f100041003a009040800081
:103000000000e0001e003a00c0c4b300ecf3b700bb
:1030100030c4b300edf3b700b0c4b300eef3b700b3
:1030200030c0b30017e8b700884080006140b900a5
:10303000b3f4070030079800410798000800e0004b
:1030400007003d0002002000037824003e009000ad
:10305000ce009000d6f40700300798004107980092
:103060003e019000ce019000f03e21003510070097
:1030700018e8b70010c0b300a9e8b7008200370015
:1030800000c5b300ecf3b70010c4b300edf3b70014
:1030900030c5b300eef3b70030c0b30017e8b70097
:1030a0000000eb0070458800784580006140b90061
:1030b00093f4070010079800210798000800e0002b
:1030c00007003d0002002000037824001e0090004d
:1030d000ae009000b6f40700100798002107980092
:1030e0001e019000ae019000f03e21001510070077
:1030f00018e8b70010c0b300a9e8b70062003700b5
:10310000f0c4b3009e4f10002e003a0038c8bf0034
:103110000004e0005c003a0099d4bf000044b20013
:103120000004e0000f003a0096d4bf000080fb00ce
:103130004200de006140600000c0ea0061406000c3
:1031400061406000004040000041400061492100b2
:1031500091407800b0cfb30000c060000240700022
:1031600096f4b7009ad4bf0001c8b30001406000d4
:103170000004e0000500320098d4bf0001c8b3008d
:10318000014060000004e0003f003a0030c9bf0089
:103190000004e0003c003a0010c0b30030e9b70082
:1031a0000040eb0062e8b7000040eb0063e8b700c6
:1031b0000040eb0064e8b7000040eb0065e8b700b2
:1031c0003100370020c5b3009e4f10002e003a009a
:1031d0000000eb00d04888000b003700d04880008a
:1031e0000000400090a288000080eb00a0a28800b0
:1031f000a1a2800090a280004e050700d048800068
:103200000000e800d0488800d1488000002020005d
:10321000808f5000f1ff360020c5b300ecf3b700fb
:1032200030c5b300edf3b70040c5b300eef3b7000f
:1032300030c0b30017e8b70020c5b300eff3b70004
:1032400030c5b300f0f3b70040c5b300f1f3b700e9
:1032500030c0b30018e8b700c31107000000eb004e
:10326000d044880004003700bbf60700d04480003b
:103270000000e800d0448800d1448000f07c2000a9
:10328000808f5000f8ff36004f0478000080fa006d
:10329000000006000200fa000040eb00004f78003a
:1032a00067000700e14f50005a003a00a4c8bf0071
:1032b0000004e0001a003a00a6c8bf000004e000c5
:1032c00017003a004fd4bf00e24f500008003a0008
:1032d00010c0b300a4e8b7000040eb00a6e8b700b8
:1032e00010c0b30008e9b700a0c2b300004f7800d7
:1032f0004fd4bf00e14f500046003a0010c0b30069
:10330000a4e8b7000040eb00a6e8b70010c0b30087
:1033100009e9b700a0c2b300004f78003d003700b4
:10332000a4c8bf00e14f50000d003a00a6c8bf007e
:103330000004e0000a003a004fd4bf00e34f500001
:1033400034003a0010c0b300a4e8b70010c0b300c6
:10335000a6e8b700a0c2b300004f78002d003700e8
:10336000a4c8bf00e14f500020003a00a6c8bf002b
:10337000e14f50001d003a004fd4bf00e14f500014
:1033800009003a0008c9bf00e14f500006003a00aa
:103390000040eb00a4e8b7000040eb0008e9b700ec
:1033a000b0c2b300004f78004fd4bf00e24f5000ce
:1033b00009003a0009c9bf00e14f500006003a0079
:1033c0000040eb00a4e8b7000040eb0009e9b700bb
:1033d000d0c2b300004f78000040eb00a4e8b70073
:1033e0000040eb00a6e8b7000a0037000040eb0001
:1033f00008e9b7000040eb0009e9b7000040eb0026
:10340000a4e8b7000040eb00a6e8b700a0c2b300f4
:10341000004f780090408000e10f500005003a0016
:10342000a9c8bf000004e00002003a00a0c2b30037
:10343000004f78001e80fb000080fa0000000600ac
:103440000200fa000000eb0080a28800a0168000b5
:1034500080a2880081a280000030200000806000ef
:1034600080a2880080a280004800de0080a2880040
:1034700080a280004ff4b7004fd4bf004cf4b700d7
:10348000c1442100914078004ed4bf0000c06800c4
:103490000004e000050032004fd4bf004ef4b70036
:1034a00010002000000f7800040037004fd4bf0048
:1034b0004ef4b7000000eb00000f78001e0078000b
:1034c0000080fa00000006000200fa000040eb0055
:1034d000004f780067000700e14f50005a003a00a3
:1034e000a5c8bf000004e0001a003a00a7c8bf004a
:1034f0000004e00017003a0007c8bf00e24f500088
:1035000008003a0010c0b300a5e8b7000040eb0087
:10351000a7e8b70010c0b30006e9b700a0c2b30027
:10352000004f780007c8bf00e14f500046003a0046
:1035300010c0b300a5e8b7000040eb00a7e8b70053
:1035400010c0b30007e9b700a0c2b300004f780075
:103550003d003700a5c8bf00e14f50000d003a0004
:10356000a7c8bf000004e0000a003a0007c8bf0077
:10357000e34f500034003a0010c0b300a5e8b70094
:1035800010c0b300a7e8b700a0c2b300004f780096
:103590002d003700a5c8bf00e14f500020003a00c1
:1035a000a7c8bf00e14f50001d003a0007c8bf0088
:1035b000e14f500009003a0006c9bf00e14f50003a
:1035c00006003a000040eb00a5e8b7000040eb0021
:1035d00006e9b700b0c2b300004f780007c8bf00cb
:1035e000e24f500009003a0007c9bf00e14f500008
:1035f00006003a000040eb00a5e8b7000040eb00f1
:1036000007e9b700d0c2b300004f78000040eb00dc
:10361000a5e8b7000040eb00a7e8b7000a003700b4
:103620000040eb0006e9b7000040eb0007e9b700f7
:103630000040eb00a5e8b7000040eb00a7e8b700aa
:10364000a0c2b300004f780090408000e10f50000e
:1036500005003a00a9c8bf000004e00002003a00db
:10366000a0c2b300004f78001e80fb000080fa006b
:10367000000006000200fa000000eb0080a28800b3
:103680004016800080a2880081a28000000c2000eb
:103690000080600080a2880080a280004600de00da
:1036a00080a2880080a2800007e8b70007c8bf009a
:1036b0004cf4b700c14421009140780006c8bf0017
:1036c00000c068000004e0000500320007c8bf0029
:1036d00006e8b70010002000000f78000400370053
:1036e00007c8bf0006e8b7000000eb00000f780035
:1036f0001e0078000080fa00000006000000fa00ba
:103700008880a9009080a9000080fa00004006008f
:103710003600f800809fbe00829fbe00849fbe00de
:10372000869fbe000000fa008460a9000cc8bf009c
:103730000040e8000ce8b70047c9bf000040e800bf
:1037400047e9b7000cc8bf00e14f500098003a00ad
:1037500010c0b3000be8b7000040eb000ce8b70066
:1037600062c8bf000040e80062e8b70062c8bf005e
:10377000ea4f50002d003a008b0f07000040eb008d
:1037800062e8b70063c8bf000040e80063e8b70024
:10379000a2c8bf00e14f500003003a00e04480009f
:1037a0000000e800e0448800ebc8bf00e14f500093
:1037b0001e003a00eac8bf000004e0000a003a0018
:1037c000604780000000e800604788006147800093
:1037d000700c2000808f50001400360010c0b30021
:1037e000eae8b70011003700d342a800d5c2bf00f5
:1037f000644060000004e0000a003a007047800066
:103800000000e80070478800714780003006200003
:10381000808f50000500360010c0b30070e8b7007c
:10382000020037000000eb007047880063c8bf004b
:10383000ea4f500009003a000040eb0062e8b70090
:103840000040eb0063e8b70010c0b3000ae8b7001f
:1038500064c8bf000040e80064e8b70064c8bf0067
:10386000ea4f500033003a000040eb0062e8b70036
:103870000040eb0063e8b7000040eb0064e8b700ed
:1038800010c0b30003e8b70010c0b300ace8b70045
:1038900010c0b3007fe8b70065c8bf000040e80073
:1038a00065e8b70079c8bf00e14f500021003a0039
:1038b000404b80000000e800404b8800414b8000f6
:1038c000b0032000808f5000050036000000eb00a0
:1038d000404b8800304b80000000e800304b8800ef
:1038e000314b8000b0032000808f5000070036006d
:1038f0000000eb00304b88000000eb00404b8800dc
:10390000504b80000000e800504b8800514b800075
:10391000603e2000808f5000060036000000eb0063
:10392000304b88000000eb00404b88000000eb00ab
:10393000504b88002cc8bf00e14f50000c003a00eb
:10394000504180000000e800504188005141800053
:1039500040062000808f500005003a007041800032
:103960000000e800704188000000eb005041880032
:1039700058c9bf000004e0000c003a00ecd3bf00bf
:10398000f2f3b700edd3bf00f3f3b700eed3bf00ff
:10399000f4f3b700efd3bf00f5f3b700f0d3bf00e7
:1039a000f6f3b700f1d3bf00f7f3b700d903070070
:1039b0000080fa004f03be004f02be004f01be0060
:1039c0004f00be003600f900004006003600f80047
:1039d000809fbe00829fbe00849fbe00869fbe0067
:1039e000881f78001c00fa00a042a9000000eb002c
:1039f000704088008560a900011480004014800098
:103a0000808040008014800080804000c0148000ce
:103a1000008040004200de00700798001114800012
:103a2000501480008080400090148000808040000e
:103a3000d0148000008040004200de005007980053
:103a4000211480006014800080804000a014800059
:103a500080804000e0148000008040004200de00d2
:103a6000600798003114800070148000808040004e
:103a7000b014800080804000f0148000008040007e
:103a80004200de00400798007e0090006101b8000f
:103a9000209f8000319f800002004000838048000a
:103aa000209f8800319f88006e0090006101b8005f
:103ab000009f8000119f800002004000838048002a
:103ac000009f8800119f88005e0090006101b8008f
:103ad000e09e8000f19e800002004000838048004c
:103ae000e09e8800f19e88004e0090006101b800c1
:103af000c09e8000d19e800002004000838048006c
:103b0000c09e8800d19e8800a04c80000000e90083
:103b1000a04c8800a04c80000000e0000c003a009f
:103b2000e09e8000f19e80004909dd004700de0034
:103b300000007100c708de00909e88000008200089
:103b4000a04c88006000b800e09e8800f19e8800cc
:103b5000804c80000000e900804c8800804c800090
:103b60000000e0002a003a006000b800200798003a
:103b70003107980000102000804c8800989e80003b
:103b80006140b900def10700000f9800110f9800a6
:103b90000800e00007003d00020020000378240038
:103ba0000e0890009e08900001f20700000f980098
:103bb000110f98000e0890009e08900020079800b2
:103bc000310798002e009000be00900002002000f7
:103bd000032b240053f207002007980031079800b8
:103be0002e009000be009000f2282c0053d72b002e
:103bf0008ef207002e019000be019000ecf107004c
:103c0000104288002142880010c0b300a8e8b70025
:103c1000b04c80000000e900b04c8800b04c80003f
:103c20000000e000dd003a00209f8000319f80000e
:103c30004409dd004c00de0000007100cc08de000d
:103c4000b09e8800009f8000119f80004409dd0025
:103c50004c00de0000007100cc08de00a09e880051
:103c6000c09e8000d19e80004409dd004c00de0033
:103c700000007100cc08de00004c88006000b80035
:103c8000209f8800319f88006000b800009f880056
:103c9000119f88006000b800c09e8800d19e8800f7
:103ca00000002100b04c8800cad3bf00e14f500093
:103cb0000a003a00a19e8000309e8000808f500054
:103cc00002003e00309e8000a09e8800a09e8000e2
:103cd000319e800001005000a09e8800c3c8bf0034
:103ce0000004e00017003a00a19e8000200320009d
:103cf000808f500013003600cad3bf00e14f500040
:103d000010003a0010c0b300c3e8b700a149210079
:103d10009140780000c8b30000c060000004e000db
:103d20000500320098d4bf0001c8b3000140600014
:103d30000004e0001a003a0010c0b30079e8b700b0
:103d400017003700c3c8bf00e14f500014003a000d
:103d5000a19e800010032000808f500010003e00c4
:103d6000cad3bf00e14f50000d003a000040eb0005
:103d7000c3e8b7000040eb0079e8b70097d4bf0074
:103d8000704060000004e000040032009ad4bf00dc
:103d90000044b2000004e00001003a0052120700a3
:103da000a19e800020032000808f5000020036007a
:103db0000000eb00e0448800004c80006101b80086
:103dc000604c8000714c80000200400083804800fd
:103dd000604c8800714c88008bc9bf000040e8002f
:103de0008be9b7008bc9bf00e34f50006b00360072
:103df000604c8000714c80004e09dd004200de0006
:103e000000007100c208de00809e88006000b800db
:103e1000604c8800714c88000040eb008be9b700d3
:103e2000819e800090282000808f50000f00360077
:103e3000819e8000403d2000808f50000b003e009e
:103e400010c0b3004ae9b7000040eb004be9b700ef
:103e50000040eb004ce9b7000040eb0088e9b700f8
:103e600010c0b3004de9b7004c003700819e8000c0
:103e7000205c2000808f50000f003600819e800063
:103e800080702000808f50000b003e000040eb004f
:103e90004ae9b70010c0b3004be9b7000040eb009f
:103ea0004ce9b7000040eb0088e9b70010c0b30050
:103eb0004de9b70039003700819e8000108f200047
:103ec000808f50000f003600819e8000c0a320002c
:103ed000808f50000b003e000040eb004ae9b70025
:103ee0000040eb004be9b70010c0b3004ce9b7004d
:103ef0000040eb0088e9b70010c0b3004de9b700ff
:103f0000260037009ad4bf0001c8b300014060000a
:103f10000004e0000500320098d4bf0001c8b300df
:103f2000014060000004e00012003a0038c8bf0001
:103f30000004e0000f003a00a19e8000f063200022
:103f4000808f50000b0036000040eb004ae9b700bc
:103f50000040eb004be9b7000040eb004ce9b70034
:103f600010c0b30088e9b70010c0b3004de9b70036
:103f70000a0037000040eb004ae9b7000040eb00c0
:103f80004be9b7000040eb004ce9b7000040eb0004
:103f900088e9b7000040eb004de9b700904c800085
:103fa0000000e900904c8800904c80000000e00088
:103fb000a9003a006000b800008fbe000000220097
:103fc000904c8800b89e80006140b900ccf007009a
:103fd000200f9800310f98000800e00007003d0016
:103fe00002002000037824002e089000be089000f4
:103ff000eff00700200f9800310f98002e08900076
:10400000be089000008fbe001e00be00020020000f
:104010004321240043f10700d0418800e14188009a
:10402000a89e80006140b900b5f00700400f9800dd
:10403000510f98000800e00007003d00020020003a
:10404000037824004e089000de089000d8f00700a6
:10405000400f9800510f98004e089000de08900025
:10406000008fbe00b2498000c34980001e00be0020
:104070002cf10700f041880001428800f0418000e7
:104080000142800002002000030a24009bf1070087
:104090000000e00001003500040037006000b800b7
:1040a000f0418800014288002e003700f041800076
:1040b0000142800002002000e33324008ff107005a
:1040c0000000e0000100340011003700f2418000e0
:1040d000034280000000200081342400b3f0070078
:1040e000f2282c0053cf230050f107000002be003d
:1040f000f0418000014280000001be000400be00cb
:10410000abf00700f041880001428800150037003d
:10411000f04180000142800002002000233524008d
:1041200078f107000000e00001003d000d003700bd
:10413000f04180000142800002002000833424000e
:104140009af00700a2702d0033ca2b0037f1070048
:10415000f24180000342800095f00700f0418800a2
:1041600001428800cad3bf000004e00030003a00da
:1041700089c9bf000040e80089e9b70089c9bf00cc
:10418000e44f50002a00360097d4bf007040600012
:104190000004e000040032009ad4bf000044b200e2
:1041a0000004e00005003a00a09e8000309e8800d8
:1041b000b09e8000409e8800190037009ad4bf004e
:1041c00001c8b300014060000004e00005003200b7
:1041d00098d4bf0001c8b300014060000004e000b3
:1041e0000b003a0038c8bf000004e00008003a00a5
:1041f00088c9bf000004e00005003a00a09e8000ce
:10420000309e8800b09e8000409e880004003700e9
:104210000000eb00309e88000000eb00409e88000c
:104220000040eb0089e9b70010c0b300caf3b70043
:10423000d0418000e1418000504288006142880006
:10424000f041800001428000704288008142880075
:1042500010c0b30050e9b700a042a8000080fa00e7
:104260004f0478004f03be004f02be004f01be0056
:104270004f00be003600f900004006000000fa00c2
:1042800084c0a9000080fa00004006000a00fa007d
:10429000008fbe0022079800330798002e0190007f
:1042a000be0190001e00be0014f107000000e000f7
:1042b00001003200030037009005200040079800fd
:1042c000260037002e019000be0190001e00be00a7
:1042d0000cf107000000e00001003c001000370076
:1042e0002e019000be0190001e00be002ff00700be
:1042f000d2cc2c00c3ec230000f107000000e0004a
:1043000001003400030037009005200040079800aa
:1043100012003700e0042000400798000f0037002b
:104320001e01be002e009000be0090001ff007008e
:10433000d2cc2c00c3ec2300f0f007000000e0001a
:10434000010034000300370090052000400798006a
:1043500002003700e0042000400798004e00900063
:104360000080fa0000000600809fbe00821f7800d7
:104370000000fa008520a90090108000c6e8b70070
:10438000618c20009140780040c2b30080cf500083
:104390001a003a00c9c8bf000004e00017003a0044
:1043a000c8c8bf000004e00014003a00904080003c
:1043b0000000e00011003a000040eb00c7e8b70041
:1043c0000040eb00c8e8b70010c0b300c9e8b70070
:1043d0000040eb004fe9b7000040eb0062e8b70097
:1043e0000040eb0063e8b7000040eb0064e8b70072
:1043f0000040eb00ace8b700ad003700c9c8bf0013
:10440000e14f5000aa003a00c7c8bf008080fb00ff
:10441000628c20001241780080482100008040001a
:1044200002487800c7c8bf00e34f500005003e00b7
:104430004fc9bf00618c20009140780001404000ce
:104440004fe9b700c7c8bf000040e800c7e8b700a1
:10445000c7c8bf00e54f500095003a000040eb0090
:10446000c7e8b7000040eb00c9e8b700c148210029
:10447000914078004fc9bf0080cf50008a003a00b9
:1044800088d4bf000080fb006046880089d4bf004c
:104490000080fb00704688007046800000004000ed
:1044a000000040000000400000004000000040000c
:1044b0000000400000004000000040008000780044
:1044c0006046800000807000804688008ad4bf006b
:1044d0000080fb00604688008bd4bf000080fb009a
:1044e00070468800704680000000400000004000d8
:1044f00000004000000040000000400000004000bc
:10450000000040000000400080007800604680000d
:10451000008070009046880097d4bf007040600013
:104520000004e00011003a009ad4bf0001c8b300b3
:10453000014060000004e0000c0032009ad4bf008b
:104540000044b2000004e0000800320098d4bf002c
:1045500001c8b300014060000004e0000300320025
:1045600090468000b0a688004200370097d4bf0074
:10457000704060000004e000130032009ad4bf00d5
:1045800001c8b300014060000004e0000e003a00e2
:104590009ad4bf000044b2000004e0000a003200d8
:1045a00098d4bf0001c8b300014060000004e000df
:1045b000050032008046800080a58800904680007b
:1045c00070a588002b00370097d4bf0070406000b2
:1045d0000004e000130032009ad4bf0001c8b30009
:1045e000014060000004e0000e00320098d4bf00db
:1045f00001c8b300014060000004e00009003a0077
:104600009ad4bf000044b2000004e000050032006c
:104610008046800030a588009046800020a5880054
:104620001400370097d4bf00704060000004e00021
:10463000100032009ad4bf0001c8b30001406000ee
:104640000004e0000b0032009ad4bf000044b20026
:104650000004e00007003a0098d4bf0001c8b3008e
:10466000014060000004e00002003200904680003b
:10467000b0a6880010c0b300c8e8b70010c0b300ef
:10468000cae8b7000040eb0062e8b7000040eb006a
:1046900063e8b7000040eb0064e8b7000040eb00bf
:1046a000ace8b700020037000040eb004fe9b7006c
:1046b0000080fa004f0178004f00be000040060065
:1046c0000a00fa00400798004e0090006101b8000f
:1046d00000c02f00f1072000020040008380480046
:1046e00020079800310798000080eb001007980021
:1046f00032c0bf000080fb00000f78002e00900049
:10470000be0090004008de000100200032e0b7004b
:104710002e009000be0090001000ba001007980014
:104720001e00780032e0b7001e0090000080fa0002
:10473000000006001000fa0040079800510798009a
:104740000000eb00300798004e0090006101b800b7
:1047500000c02f00f10720000200400083804800c5
:10476000100798002107980032c0bf000080fb00ae
:10477000000f780061c7bf000042b2000004e000f3
:1047800049003a001e009000ae0090004008de0094
:10479000010020000074a10064e7b7001e00900033
:1047a000103b880061c7a800017620009140780086
:1047b00000c8b30000c0600041c4b30001407000f5
:1047c00060e7b70050052000303b8800a00a2000b9
:1047d000303b880061e7a8000000000000000000f6
:1047e0006007980061c7bf0001c8b30001406000c6
:1047f0000004e000fbff3a004e009000b0ff07000d
:10480000e10f400026003a001e009000ae0090002c
:104810004008de000100200032e0b7001e009000da
:10482000ae0090005e0190000208bb0061c7a800c6
:10483000017620009140780000c8b30000c06000fd
:104840000024a00060e7b70050052000303b88003e
:10485000a00a2000303b880061e7a80000000000ab
:10486000000000007007980061c7bf0001c8b300d6
:10487000014060000004e000fbff3a004e009000a1
:104880008fff0700800078005e009000808f50004e
:1048900005003200100020003007980002003700a9
:1048a00020002000300798001e00780032e0b7009a
:1048b0003e0090000080fa00000006000000fa00b0
:1048c000e402a900e422a900e4c2a900e4e2a900ec
:1048d000e502a900e522a900e582a900e5a2a90058
:1048e000e5c2a900e5e2a900de02a900c702a9000d
:1048f000d362a900d282a900c762a900c782a90019
:10490000c7a2a900c7c2a900c7e2a9000080fa0097
:10491000000006000000fa0016c8bf00e14f50007a
:1049200014003a00e202a900e802a9006181200017
:104930009140780017c8bf0080cf500003003a00b4
:1049400010c0b3001ce8b700020037000040eb00c5
:104950001ce8b700f2d3bf00b1000700e202a900d3
:10496000e802a80016c8bf000040e80016e8b7003b
:10497000a900370016c8bf00e24f500014003a00eb
:10498000e802a900e822a900618120009140780096
:1049900017c8bf0080cf500003003a0010c0b3001a
:1049a0001ce8b700020037000040eb001ce8b7002d
:1049b000f3d3bf009a000700e802a900e822a8008c
:1049c00016c8bf000040e80016e8b70092003700a4
:1049d00016c8bf00e34f50000c003a00e822a900bf
:1049e000e8c2a9000040eb001ce8b700f4d3bf0008
:1049f0008b000700e822a900e8c2a80016c8bf0083
:104a00000040e80016e8b7008300370016c8bf0072
:104a1000e44f500016003a00e8c2a900e8e2a900fd
:104a200016c8bf008080fb0018c8bf000080fb00d4
:104a300063004000808f500003003a0010c0b300b4
:104a40001ce8b700020037000040eb001ce8b7008c
:104a5000f5d3bf0072000700e8c2a900e8e2a80091
:104a600016c8bf000040e80016e8b7006a0037002b
:104a700016c8bf00e54f500016003a00e8e2a90052
:104a8000e902a90016c8bf008080fb0018c8bf005b
:104a90000080fb0063004000808f500003003a005c
:104aa00010c0b3001ce8b700020037000040eb0064
:104ab0001ce8b700f6d3bf0059000700e8e2a900e0
:104ac000e902a80016c8bf000040e80016e8b700d9
:104ad0005100370016c8bf00e64f50000c003a00e6
:104ae000e902a900e922a9000040eb001ce8b70098
:104af000f7d3bf004a000700e902a900e922a80095
:104b000016c8bf000040e80016e8b70042003700b2
:104b100016c8bf00e74f50000a003a00e922a9007a
:104b2000e982a90096d4bf003d000700e922a90050
:104b3000e982a80016c8bf000040e80016e8b700e8
:104b40003500370016c8bf00e84f50000a003a0091
:104b5000e982a900e9a2a90097d4bf0030000700ac
:104b6000e982a900e9a2a80016c8bf000040e80039
:104b700016e8b7002800370016c8bf00e94f5000fc
:104b80000a003a00e9a2a900e9c2a90098d4bf002e
:104b900023000700e9a2a900e9c2a80016c8bf00c7
:104ba0000040e80016e8b7001b00370016c8bf0039
:104bb000ea4f50000a003a00e9c2a900e9e2a90060
:104bc00099d4bf0016000700e9c2a900e9e2a800d5
:104bd00016c8bf000040e80016e8b7000e00370016
:104be00016c8bf00eb4f50000b003a00e9e2a900e5
:104bf000e202a9009ad4bf0009000700e9e2a90077
:104c0000e202a80016c8bf000040e80016e8b7009e
:104c100010c0b30016e8b7000080fa0000000600dc
:104c20000400fa00204798002e409000104798009a
:104c300016c8bf00e64f500020003e00ae40900076
:104c400010cdb30000c04000204798000040eb00aa
:104c5000004f7800100037009e81fb002e4090002e
:104c60000080fb009e80fb00622c280000004000ba
:104c70000000400000004000010040000000400033
:104c800060007900804078002046210000804100cb
:104c9000014878001e4fe80071c0b3009ecf10009d
:104ca000edff36001cc8bf00e14f500024003a0061
:104cb00010c0b30069f4b700210037000040eb00da
:104cc000004f78001b0037002e40900010479800de
:104cd0001e4090008080fb001e80fb000088de00ec
:104ce000104798001e4090006140600010479800f7
:104cf0001e4090000004e00003003a0010c0b30022
:104d000010479800050037001e409000e14f50000a
:104d100002003a000040eb00104798001e80fb00a4
:104d200021462100010040009e409000014878008b
:104d30001e4fe80070c0b3009e4f1000e2ff360027
:104d400062d4bf006140600061416000b12c20006e
:104d500091407800e0cfb30000c0600002407000d6
:104d6000cbe2b70063d4bf006140600061406000e7
:104d7000004040000040400000414000712d2000f4
:104d80009140780070cfb30000c060000240700016
:104d9000d7e2b70064d4bf006140600061406000aa
:104da0000040400000404000004040000041400002
:104db000612d200091407800f0ceb30000c060006b
:104dc00002407000d6e2b70065d4bf0061406000c9
:104dd0006140600000404000004040000041400051
:104de000b12c20009140780070cfb30000c060006b
:104df00002407000cbe2b70066d4bf0061406000a3
:104e00006140600000404000004040000040400021
:104e100000414000b12c200091407800f0ceb3005a
:104e200000c0600002407000cbe2b70067d4bf0052
:104e30006140600061406000004040000040400070
:104e4000004040000040400000414000b12c2000e4
:104e500091407800f0cdb30000c0600002407000c7
:104e6000cbe2b70068d4bf006140600061406000e1
:104e70000040400000404000004040000040400032
:104e80000040400000414000b12c200091407800db
:104e9000f0cbb30000c0600002407000cbe2b7006e
:104ea00069d4bf0061406000004040000040400005
:104eb00000404000004040000040400000404000f2
:104ec00080404000cbc2bf000074a10001407000d0
:104ed000cbe2b7000080fa00000006000c00fa00e8
:104ee000500798000040eb00704798000040eb002e
:104ef000604798000040eb00504798000040eb00ee
:104f0000404798000040eb00304798000040eb001d
:104f1000204798000000eb00000f780098d4bf00f5
:104f20006f4060007047980098d4bf000080fb007d
:104f30004400de00004f98000e4890006f40600073
:104f40006047980099d4bf006f40600050479800b8
:104f50007e40900022000700404798006e4090007d
:104f60001f000700304798005e4090001c000700bb
:104f7000204798004e4090008080fb003e4090000b
:104f80000081fb002e4090008081fb0064582800c7
:104f9000018040000000400002004000000040008e
:104fa000000040000300400000004000600f7a0055
:104fb0009e0078005e0090006e0150007408b900f9
:104fc00002004000800040008099200000804000e6
:104fd000100f78001e0078000080fa000000060024
:104fe0000400fa00204798000040eb00004f7800d2
:104ff0002e409000ee4f500003003a000040eb00be
:10500000004f7800110037002e409000ed4f500007
:1050100003003a0010c0b300004f78000b003700c7
:105020002e409000eb4f500003003a0020c0b30028
:10503000004f7800050037002e409000e74f5000e9
:1050400002003a0030c0b300004f78001e80fb0021
:105050000080fa00000006000c00fa0050079800db
:105060000040eb00704798000040eb00604798005c
:105070000040eb00504798000040eb00404798008c
:105080000040eb00304798000040eb0020479800bc
:105090000000eb00000f780098d4bf006f40600064
:1050a0007047980098d4bf000080fb004400de00e9
:1050b000004f98000e4890006f40600060479800d5
:1050c00099d4bf006f406000504798007e40900028
:1050d000c3ff0700404798006e409000c0ff0700e4
:1050e000304798005e409000bdff070020479800c1
:1050f00051c9bf00e34f500010003a004e409000ed
:105100008080fb003e4090000081fb002e4090001c
:105110008081fb00645828000180400000004000ae
:10512000020040000000400000004000030040007a
:1051300000004000600f7a001400370051c9bf0022
:10514000e44f500011003a004e4090008080fb0078
:105150003e4090000081fb002e4090008081fb00cb
:105160006458280001804000000040000200400018
:10517000000040000000400003004000000040002c
:10518000600f7a001e0078006c0f40001e0078004f
:105190005e019000636028007b00b90002004000bf
:1051a00000004000608f79001e0078000080fa0047
:1051b000000006000c00fa00500798000040eb00c9
:1051c000704798000040eb00604798000040eb00fb
:1051d000504798000040eb00404798000040eb002b
:1051e000304798000040eb00204798000000eb009b
:1051f000000f780098d4bf006f406000704798009f
:1052000098d4bf000080fb004400de00004f9800ef
:105210000e4890006f4060006047980099d4bf002e
:105220006f406000504798007e4090006cff070080
:10523000404798006e40900069ff07003047980093
:105240005e40900066ff07002047980051c9bf00ec
:10525000e34f500010003a004e4090008080fb0069
:105260003e4090000081fb002e4090008081fb00ba
:105270006458280001804000000040000200400007
:10528000000040000000400003004000000040001b
:10529000600f7a001400370051c9bf00e44f50007e
:1052a00011003a004e4090008080fb003e4090008c
:1052b0000081fb002e4090008081fb006458280094
:1052c000018040000000400002004000000040005b
:1052d000000040000300400000004000600f7a0022
:1052e0001e0078006c0f40001e0078005e019000e8
:1052f000c33b29007b00b9000200400000004000d1
:10530000608f79001e0078000080fa00000006001f
:105310000400fa00100798000000eb00000f78006e
:10532000c0032000000f78001e0078001e019000ce
:10533000636028007b00b9000200400000004000cc
:10534000608f79001e0078000080fa0000000600df
:105350000400fa00100798000000eb00000f78002e
:1053600046c9bf000080fb00000f78001e007800d7
:105370001e019000636028007b00b900020040001d
:1053800000004000608f79001e0078000080fa0065
:10539000000006000200fa00000f7800801c2000c8
:1053a0000080fa00000006000200fa00000f7800fa
:1053b000b00720000080fa00000006000400fa0098
:1053c000000f7800400120009e0f100003003e00f7
:1053d000e00120001007980002003700e0012000e3
:1053e000100798001e0090000080fa0000000600e0
:1053f0000000fa00889fbe000000eb00d044880047
:105400000400370054ee0700d04480000000e8009c
:10541000d0448800d1448000700c2000808f500060
:10542000f8ff3600500807007b060700e00607007b
:10543000e806070086ed0700f80607001ffd0700d5
:1054400091ed0700a92b0700e19220009140780020
:1054500010c4b30080cf500019003a00a002200011
:1054600010498800802a200000498800800c200014
:10547000204988003033230031112400b0498800ce
:10548000c149880000002800713c2400d0498800f0
:10549000e14988000000200001222400f049880032
:1054a000014a8800e07a240011e62300104a8800af
:1054b000214a8800400b20006049880070003700b6
:1054c000e19220009140780020c4b30080cf5000ca
:1054d00019003a008003200010498800403d200058
:1054e00000498800800c200020498800608f22003d
:1054f000410c2400b0498800c14988000000200008
:10550000a13f2400d0498800e14988000000200024
:1055100001222400f0498800014a880010d72300a6
:10552000a1e82300104a8800214a8800400b20008f
:105530006049880052003700e192200091407800d5
:1055400030c4b30080cf500019003a00a002200000
:1055500010498800c02c200000498800800c2000e1
:10556000204988003033230031112400b0498800dd
:10557000c14988000000200091372400d0498800ec
:10558000e14988000000200081202400f0498800c3
:10559000014a8800e07a240011e62300104a8800be
:1055a000214a8800c00d200060498800340037007f
:1055b000e19220009140780040c4b30080cf5000b9
:1055c00019003a008003200010498800403d200067
:1055d00000498800800c200020498800608f22004c
:1055e000410c2400b0498800c14988000000200017
:1055f00061412400d0498800e14988000000200072
:1056000001232400f0498800014a880010d72300b4
:10561000a1e82300104a8800214a8800400b20009e
:105620006049880016003700a00220001049880059
:10563000802a200000498800800c20002049880032
:105640003033230031112400b0498800c14988005b
:1056500000002800713c2400d0498800e1498800fe
:105660000000200001222400f0498800014a88003f
:10567000e07a240011e62300104a8800214a8800bd
:1056800091028000f0ff23000080700090028800eb
:1056900010c4b300ecf3b70040c4b300edf3b7009f
:1056a00020c5b300eef3b70020c3b300eff3b7009b
:1056b00010c3b300f0f3b7002ec9bf00f1f3b70079
:1056c00030c0b30017e8b70030c0b30018e8b70027
:1056d0000000eb00d0448800040037009eed070076
:1056e000d04480000000e800d0448800d14480000d
:1056f000f0f92000808f5000f8ff3600e192200082
:105700009140780010c4b30080cf50000d003a00e3
:10571000d0c4b300ecf3b70090c4b300edf3b7000e
:1057200070c4b300eef3b70040c3b300eff3b700ab
:1057300000c3b300f0f3b70000c3b300f1f3b70048
:1057400042003700e19220009140780020c4b3006d
:1057500080cf50000d003a00d0c4b300ecf3b70086
:1057600090c4b300edf3b70070c4b300eef3b7001c
:1057700050c3b300eff3b70000c3b300f0f3b700ba
:1057800000c3b300f1f3b70030003700e19220000e
:105790009140780030c4b30080cf50000d003a0033
:1057a000d0c4b300ecf3b70090c4b300edf3b7007e
:1057b00070c4b300eef3b70020c3b300eff3b7003b
:1057c00050c3b300f0f3b70000c3b300f1f3b70068
:1057d0001e003700e19220009140780040c4b300e1
:1057e00080cf50000d003a00d0c4b300ecf3b700f6
:1057f00090c4b300edf3b70070c4b300eef3b7008c
:1058000060c3b300eff3b70000c3b300f0f3b70019
:1058100000c3b300f1f3b7000c003700d0c4b300ed
:10582000ecf3b70090c4b300edf3b70070c4b3005d
:10583000eef3b70040c3b300eff3b70000c3b3000b
:10584000f0f3b70000c3b300f1f3b7000000eb00c2
:10585000d0448800040037003fed0700d0448000aa
:105860000000e800d0448800d1448000f0f9200016
:10587000808f5000f8ff36008004200090fb070066
:1058800051e9b70051c9bf00e44f5000060036008f
:1058900030c0b30051e9b70051c9bf008080fb00a0
:1058a00080042000a3fb07002f0807000000eb0086
:1058b000b0a38800d1a2a9000000eb000d030700ef
:1058c00010c0b30061e8b700a00420007cfb070013
:1058d000504b8800c004200079fb0700304b880043
:1058e000e004200076fb0700404b8800504b80000e
:1058f000e10f400004003200514b8000703e200058
:10590000808f5000050036000000eb00504b8800ef
:10591000514b8000a004200086fb0700304b800024
:10592000e10f400004003200314b8000c003200032
:10593000808f5000050036000000eb00304b8800df
:10594000314b8000c00420007afb0700404b8000f0
:10595000e10f400004003200414b8000c0032000f2
:10596000808f5000060036000000eb00404b88009e
:10597000414b8000e00420006efb07000000370070
:1059800061c8bf00e14f500086003a000040eb00c4
:1059900061e8b70097d4bf00704060000004e000e9
:1059a0001c003a00d0c4b300ecf3b700d0c4b3007d
:1059b000edf3b70010c4b300eef3b700f0c4b300ca
:1059c000eff3b700e0c4b300f0f3b700f0c2b300e8
:1059d000f1f3b70030c0b30017e8b70030c0b30030
:1059e00018e8b7000000eb0080458800040037008d
:1059f000d9ec0700804580000000e8008045880061
:105a00008145800000fa2000808f5000f8ff3600aa
:105a1000610037009ad4bf000044b2000004e000e7
:105a20001c003a0040c5b300ecf3b70090c4b300cb
:105a3000edf3b70070c4b300eef3b700f0c4b300e9
:105a4000eff3b700e0c4b300f0f3b700f0c2b30067
:105a5000f1f3b70030c0b30017e8b70030c0b300af
:105a600018e8b7000000eb0080458800040037000c
:105a7000b9ec0700804580000000e8008045880000
:105a80008145800000fa2000808f5000f8ff36002a
:105a9000410037009ad4bf0001c8b3000140600044
:105aa0000004e0001c003a00d0c4b300ecf3b700df
:105ab00090c4b300edf3b70070c4b300eef3b700c9
:105ac000f0c4b300eff3b700e0c4b300f0f3b700e5
:105ad000f0c2b300f1f3b70030c0b30017e8b7006d
:105ae00030c0b30018e8b7000000eb008045880024
:105af0000400370098ec0700804580000000e800b3
:105b0000804588008145800000fa2000808f500089
:105b1000f8ff36002000370098d4bf0001c8b3005a
:105b2000014060000004e0001b003a0060c4b300c4
:105b3000ecf3b70030c4b300edf3b70070c5b300a9
:105b4000eef3b700f0c4b300eff3b700e0c4b30066
:105b5000f0f3b700f0c2b300f1f3b70030c0b30008
:105b600017e8b70030c0b30018e8b7000000eb003a
:105b7000804588000400370077ec070080458000ee
:105b80000000e800804588008145800000fa200080
:105b9000808f5000f8ff3600cf0407000040eb0074
:105ba0005ae9b700acc8bf00e14f50009f003a006f
:105bb0000040eb00ace8b7000040eb00cae8b700db
:105bc00097d4bf00704060000004e00024003a0059
:105bd0009ad4bf000044b2000004e000200032006c
:105be0009ad4bf0001c8b300014060000004e00087
:105bf0001b00320098d4bf0001c8b3000140600010
:105c00000004e00016003200d0c4b300fde8b70085
:105c1000e0c4b300fee8b700ffc8bf00e18f20007a
:105c200091407800d28f200012417800a346800076
:105c3000b7a68000b8468000d9a68000004378004f
:105c400081427800024278000701780088007800dd
:105c5000090078002a290700d1c2a9007300370083
:105c600097d4bf00704060000004e00022003200c2
:105c70009ad4bf000044b2000004e0001e003200cd
:105c80009ad4bf0001c8b300014060000004e000e6
:105c900019003a0098d4bf0001c8b3000140600069
:105ca0000004e0001400320070c4b300fde8b70047
:105cb000ffc8bf00e18f200091407800d28f200004
:105cc00012417800a346800077a58000b846800086
