:020000040000fa
:080000000001040000000000f3
:020000040000fa
:100200004fa22000807f2100000188000000000034
:10021000050007000c0007009628020000000000ff
:100220000040da000000fe004440a900005c20000d
:100230000000e0000300320000002000a001880060
:100240004440a800000006004049230001002000af
:100250001600370062004000e080480091018800ed
:100260009001ba0062004000e080480091018800df
:100270009002ba0062004000e08048000002eb00fb
:100280006028e10005003a008301e900070033001f
:10029000038009000059eb00040037006128e100e9
:1002a000010032000082eb00050007009101880088
:1002b0001001ba000200e000e6ff3a00000005006d
:1002c000910188008002780062004000e0804800d0
:1002d0003559ba008301e900080032002559ba00f7
:1002e0008301e900050032000400e000f4ff320061
:1002f00015d9ba008301e900f1ff3a0000000600b9
:100300006022b800060220000000d0008180d200e8
:100310000482d2008582d2000000a00002025200b6
:1003200083825a0003003b000202420083824a009b
:100330000000a1000603e900f3ff3a0000000600f8
:10034000889fbe008a9fbe00010578000100e00082
:100350000400350008003c000000e00020003200ee
:100360000500370060001000e080180002003b002c
:1003700001f02c001a0037000004be006011b80024
:100380006b0920000982cf00020039000882cf00eb
:100390000441b000694252000e00320008003b00e8
:1003a00082817100610164008904d1000884d30056
:1003b0008b05e8000442e800f9ff3a000500370029
:1003c0000804440089844c008b05e9000442e900dc
:1003d000fbff3a00280107000af0a70001f0a00087
:1003e0004f05be004f04be000000060003f0a2004f
:1003f000889fbe008a9fbe008c1f780044010700c2
:100400004b0133006450e1004f0032006420e100f2
:100410005200320003826c0007003b000905d00047
:100420000306d000820f54000c065d000200390064
:1004300002003200890178000306780085825500a9
:1004400004003d000003fd008103fd008502ea0079
:100450008b854200840f720002003b006000100098
:10046000e08018006011b8000005eb007a28e10078
:100470000a00390006007800c75ddd00f707b2000a
:10048000878075002d003700828171000a01780095
:10049000610560008180d1000080d3008502e90001
:1004a000f9ff3b00060440008784480002003b003f
:1004b00060041400e0841c000988a30007003200d7
:1004c0008a81710082817100610164008904d10018
:1004d0000884d3008b05e800170037000978a300d3
:1004e00013003a000b00e000130034008b05e90014
:1004f0000804440089844c000a4474000978a3006d
:100500000d003a000b00e000070034008b05e90005
:100510000804440089844c0001003a000b002000cc
:100520000978a300f7ff32000001eb00020037005a
:10053000828171000a017800cf0007000cf0a7004b
:1005400001f0a000030137006420e10002003a003e
:10055000838f6c00030133000801be000200be005f
:10056000fc0037001400200001013700889fbe0006
:100570008a9fbe008c1f7800e5000700ec00330066
:1005800003866c006450e100240032006420e10026
:10059000270032006150e100220032006120e100ba
:1005a000210032008b854200eb07b1000134b80016
:1005b000003ab8000804420089844a00013ab800b1
:1005c0000030b8008880400009014a000400330070
:1005d0000000400081804800020149008b05e900cd
:1005e000c909dd0083017000010032001300200002
:1005f000c814de004814dd004709de001200b20016
:10060000c808de00088470009b00070001f0a1000c
:100610000cf0a70001f0a000ce0037006120e1003f
:10062000d00032000801be000200be00f7ff370014
:100630006150e100fcff3a00ca0037000001be0033
:10064000e60007000470a70003f0a1006509b100ef
:10065000160032000d0035006828e1000600350064
:10066000f0ff2f00f1ff27000300e00013003b0024
:1006700001002800000005000000400081804800c3
:100680008502e900fcff3a0008003700f88f4200bd
:1006900002003c008000eb00000005008100d1005a
:1006a0000080d3008502e800fcff3a000300e00070
:1006b00002003b0060001000e0801800000006000f
:1006c000889fbe008a9fbe008c1f780090000700a4
:1006d0009700330003866c006450e1002e00320066
:1006e0006420e100330032006150e1002f0032004d
:1006f0006120e1003100320085855500eb07b00034
:100700000900200008042000050037000804440008
:1007100089844c000a0031000603430087834b00a4
:100720000001530081815b00f8ff33000203be002b
:100730000800a0000804440089844c00f6ff39003a
:10074000c639dd0083017300010032001300200070
:100750008904d1000884d3000998a3000500320061
:100760000800a7000300a0008904d1000884d3007a
:100770008b05e8008904d1000884d3000001eb0058
:100780000281d2003c00070001f0a1000cf0a7009c
:1007900001f0a0006f0037006420e100710032001a
:1007a0000801be000200be00f7ff37006120e10033
:1007b0006c0032006000b800f3ff3700000020003a
:1007c00001f82700f0ff37000001be00830007009a
:1007d0000470a70003f0a10003f8a30013003a007f
:1007e0006509b10010003200090035006928e100f8
:1007f0000200350001002800000005000000400054
:10080000818048008502e900fcff3a0000000600f4
:10081000f88f4200050035008100d1000080d30030
:100820008502e800fcff3a00000006008000eb00b3
:1008300000000500f4ff2f004d003700839f680083
:100840000100e00002003d0060001000e0801800a0
:100850000300e00002003d0060011100e08119008a
:10086000a7fe07004f00e00002003b006000100000
:10087000e080180000000600810020006180550023
:100880000b003d000b00200061fe2f000100e10085
:100890001d00340082817100610164008904d1006f
:1008a0000884d3000000e800faff3a00710020003d
:1008b0006100640003007000020060000900320063
:1008c00061044400e0844c000988a5000500320062
:1008d0008b05e8006808e10002003a008904d100b5
:1008e0000884d300f20f20000258e10005003d000b
:1008f000c75ddd00f907b200898075000800780047
:10090000000006000bf827008b00780000000500af
:100910000004be00310007000003be000405be0055
:100920000200be002d000700844f75000000060085
:100930000200be006450e100050036006420e100c2
:10094000020036000968a30001003a000800be005a
:100950000160a0004f0678004f05be004f04be00a6
:1009600000000600f0ff2f00f1ff2700f9ff37001d
:10097000889fbe008a9fbe00841f7800e4ff0700a6
:100980004f00780011003300f0ff2f00838f6c00c0
:1009900006003b00040565000a00a70008003700b8
:1009a00009f0a6001000200008003700820f540054
:1009b000838f5c00030039001000200001003e001e
:1009c0000000200009f0a7000000ea004f05be006b
:1009d0004f04be000000e00000000600c70ade0071
:1009e000f107b200f50fb20008003200e1cf42007b
:1009f000020032000170a00024000500810f700089
:100a0000010032000408050044000500810f700059
:100a100002003a00140005008502e90000004000d1
:100a200081c04800fcff3b000170a00024000500cd
:100a30000000fa00e402a900e422a900e442a900af
:100a4000e462a900e4c2a900e4e2a900e502a90069
:100a5000e522a900e582a900e5a2a900e5c2a90056
:100a6000e5e2a900c7e2a900d242a900d262a9002a
:100a7000d282a900d2a2a900d2c2a900d2e2a900c2
:100a8000d302a900d322a9000080fa0000000600ca
:100a90000000fa003ec8bf00e14f500011003a00cc
:100aa000b2c9bf00614060000004e00003003200f2
:100ab00010c0b30041e8b700020037000040eb006f
:100ac00041e8b700e922a9007ac9bf0092000700f7
:100ad000e802a8003ec8bf000040e8003ee8b700ba
:100ae0008b0037003ec8bf00e24f500011003a00b3
:100af000b2c9bf00624060000004e00003003200a1
:100b000010c0b30041e8b700020037000040eb001e
:100b100041e8b700e802a9007bc9bf007e000700da
:100b2000e822a8003ec8bf000040e8003ee8b70049
:100b3000770037003ec8bf00e34f500011003a0075
:100b4000b2c9bf00644060000004e000030032004e
:100b500010c0b30041e8b700020037000040eb00ce
:100b600041e8b700e822a9007cc9bf006a0007007d
:100b7000e842a8003ec8bf000040e8003ee8b700d9
:100b8000630037003ec8bf00e44f500011003a0038
:100b9000b2c9bf00684060000004e00003003200fa
:100ba00010c0b30041e8b700020037000040eb007e
:100bb00041e8b700e842a9007dc9bf005600070020
:100bc000e862a8003ec8bf000040e8003ee8b70069
:100bd0004f0037003ec8bf00e54f500011003a00fb
:100be000b2c9bf00704060000004e00003003200a2
:100bf00010c0b30041e8b700020037000040eb002e
:100c000041e8b700e862a9007ec9bf0042000700c2
:100c1000e8c2a8003ec8bf000040e8003ee8b700b8
:100c20003b0037003ec8bf00e64f500011003a00bd
:100c3000b2c9bf000042b2000004e000030032006d
:100c400010c0b30041e8b700020037000040eb00dd
:100c500041e8b700e8c2a9007fc9bf002e00070025
:100c6000e8e2a8003ec8bf000040e8003ee8b70048
:100c7000270037003ec8bf00e74f500011003a0080
:100c8000b2c9bf000044b2000004e000030032001b
:100c900010c0b30041e8b700020037000040eb008d
:100ca00041e8b700e8e2a90080c9bf001a000700c8
:100cb000e902a8003ec8bf000040e8003ee8b700d7
:100cc000130037003ec8bf00e84f500010003a0044
:100cd000b2c9bf0001c8b300014060000004e000d9
:100ce0000300320010c0b30041e8b7000200370033
:100cf0000040eb0041e8b700e902a90081c9bf004c
:100d000005000700e922a80010c0b3003ee8b700c4
:100d10000080fa00000006000200fa00004f780090
:100d20009e40780010cdb30000c04000004f780016
:100d30000040eb003fe8b700130037003fc8bf009a
:100d40000082fb009e80fb003fc8bf000081fb00cb
:100d5000431b2b00018040000000400000004000c9
:100d60000200400000004000608079008040780070
:100d70002098200000004200014878003fc8bf00d2
:100d80000040e8003fe8b7003fc8bf00e74f500011
:100d9000eaff360041c8bf00e14f500002003a00b0
:100da00010c0b30089e9b70082c9bf00614060008c
:100db0000040400000404000004040000040400033
:100dc000004040000040400080404000cbc2bf00d7
:100dd0000074a10001407000cbe2b70083c9bf00de
:100de0006140600061406000004040000041400000
:100df000612d200091407800b0cfb30000c06000aa
:100e000002407000d6e2b70084c9bf0061406000b4
:100e10006140600000404000004040000041400050
:100e2000612d20009140780070cfb30000c06000b9
:100e300002407000d6e2b70085c9bf006140600083
:100e40006140600000404000004040000040400021
:100e500000414000612d200091407800f0ceb300a9
:100e600000c0600002407000d6e2b70086c9bf0033
:100e70006140600061406000004040000040400070
:100e8000004040000040400000414000612d200033
:100e900091407800f0cdb30000c0600002407000c7
:100ea000d6e2b70087c9bf006140600061406000c2
:100eb0000040400000404000004040000040400032
:100ec0000040400000414000612d2000914078002a
:100ed000f0cbb30000c0600002407000d6e2b70063
:100ee00088c9bf00614060000040400000404000f1
:100ef00000404000004040000040400000404000f2
:100f000080404000d6c2bf000074a10001407000c4
:100f1000d6e2b70089c9bf0061406000614160004e
:100f2000712d200091407800e0cfb30000c0600038
:100f300002407000d7e2b7000080fa00000006000f
:100f40000200fa00000f78001e007800a2002000c6
:100f5000110009000280d8008000fd000043b000ad
:100f60007de9b7001e007800a200200011000900f2
:100f70000280d800000f78001e007800a200200038
:100f8000110009000280d8008000fd000043b0007d
:100f90007ce9b7001e007800a200200011000900c3
:100fa0000280d800000f78001e007800a200200008
:100fb000110009000280d8008000fd000043b0004d
:100fc0007be9b7001e007800a20020001100090094
:100fd0000280d800000f78001e0078000043b000a7
:100fe0007ae9b7000080fa00000006000200fa006b
:100ff000000f78001e007800a200200011000900f8
:101000000280d8008000fd000043b00081e9b700f5
:101010001e007800a2002000110009000280d80004
:10102000000f78001e007800a200200011000900c7
:101030000280d8008000fd000043b00080e9b700c6
:101040001e007800a2002000110009000280d800d4
:10105000000f78001e007800a20020001100090097
:101060000280d8008000fd000043b0007fe9b70097
:101070001e007800a2002000110009000280d800a4
:10108000000f78001e0078000043b0007ee9b70032
:101090000080fa00000006000000fa00de02a8004e
:1010a000de22a800dec2a8000080fa0000000600d0
:1010b0000200fa000040eb00004f78005f000700dc
:1010c000e14f50005a003a00a3c9bf000004e000fd
:1010d0001a003a00a4c9bf000004e00017003a005b
:1010e000a5c9bf00e24f500008003a0010c0b3008d
:1010f000a3e9b7000040eb00a4e9b70010c0b300bb
:10110000a6e9b70040c2b300004f7800a5c9bf00f0
:10111000e14f500046003a0010c0b300a3e9b70009
:101120000040eb00a4e9b70010c0b300a7e9b70086
:1011300040c2b300004f78003d003700a3c9bf0094
:10114000e14f50000d003a00a4c9bf000004e000c8
:101150000a003a00a5c9bf00e34f500034003a002e
:1011600010c0b300a3e9b70010c0b300a4e9b700f2
:1011700040c2b300004f78002d003700a3c9bf0064
:10118000e14f500020003a00a4c9bf00e14f5000d9
:101190001d003a00a5c9bf00e14f500009003a0008
:1011a000a6c9bf00e14f500006003a000040eb0026
:1011b000a3e9b7000040eb00a6e9b700b0c2b30056
:1011c000004f7800a5c9bf00e24f500009003a0067
:1011d000a7c9bf00e14f500006003a000040eb00f5
:1011e000a3e9b7000040eb00a7e9b700d0c2b30005
:1011f000004f78000040eb00a3e9b7000040eb008f
:10120000a4e9b7000a0037000040eb00a6e9b700e8
:101210000040eb00a7e9b7000040eb00a3e9b700ee
:101220000040eb00a4e9b70040c2b300004f7800d3
:101230001e80fb000080fa00000006000200fa0099
:101240000000eb004040880000178000404088000c
:1012500040408000630060004040880040408000c3
:10126000a5e9b700a5c9bf00a1e9b700119a200000
:1012700091407800a2c9bf0000c068000004e000ef
:1012800005003200a5c9bf00a2e9b7001000200088
:10129000000f780004003700a5c9bf00a2e9b7001d
:1012a0000000eb00000f78001e0078000080fa00bc
:1012b000000006003600f800809fbe00829fbe003e
:1012c000849fbe00869fbe000000fa008460a900d3
:1012d00045c8bf000040e80045e8b7005cc9bf0052
:1012e000e14f500012003a0040c8bf00e14f5000eb
:1012f0000f003a00acc9bf00e14f50000c003a00ab
:10130000404a80000000e800404a8800414a8000ce
:10131000401f2000808f500007003600401f200033
:10132000404a88000040eb005ce9b700020037004b
:101330000000eb00404a880001408000f07c200063
:10134000808f50000e0036000000eb0050488800ef
:10135000404880000000e800404888004148800084
:10136000f07c2000808f500011003600007d2000ae
:101370004048880010c0b30034e9b7000c003700c3
:101380000000eb0040488800504880000000e80062
:101390005048880050488000e40f50000400360098
:1013a00050002000504888000040eb0034e9b700ae
:1013b00040c8bf00e14f50000e003a000000eb00b3
:1013c000f0488800004980000000e80000498800db
:1013d00001498000f07c2000808f50001100340013
:1013e000007d20000049880010c0b30040e9b7002c
:1013f0000c0037000000eb0000498800f048800036
:101400000000e800f0488800f0488000ee0f50002f
:1014100004003400f0002000f04888000040eb0099
:1014200040e9b7003149800060498000808f50005a
:101430001100340040c9bf00e14f50000e003a00d7
:101440000000eb0040498800504980000000e8009f
:101450005049880051498000f07c2000808f500066
:1014600011003400007d20005049880010c0b300f6
:101470003ee9b7000c0037000000eb00504988003f
:10148000404980000000e800404988004049800051
:10149000e40f500004003400500020004049880050
:1014a0000040eb003ee9b7005184200091407800f5
:1014b00010c3b30080cf5000150036000040eb0091
:1014c00045e8b700eb1207002ec9bf00e14f5000fe
:1014d0000f003a0055c8bf00e14f50000c003a0021
:1014e000f30d0700e19020009140780050c4b30054
:1014f00080cf500004003a00304880000000e8002f
:1015000030488800020037000000eb0030488800b7
:10151000a8c9bf00ea4f500040003a000040eb006d
:10152000a8e9b700004680000000e80000468800f7
:10153000104680000000e80010468800d710070021
:1015400091c8bf00e14f500012003a00acc9bf0083
:10155000e14f50000f003a0011468000301f20007c
:10156000808f50000800360000c5b300d2e8b700f5
:101570000000eb00104688000040eb0091e8b70047
:10158000e9e2a9000300370020c5b300d2e8b700a4
:10159000e9e2a8000146800030062000808f50005c
:1015a0000e0036000000eb0000468800100020000e
:1015b000f04388008cc8bf000040e8008ce8b7000a
:1015c0008cc8bf00f94f5000040036000040eb000b
:1015d0008be8b7000040eb008ce8b700919a200040
:1015e0009140780030c6b30080cf5000080036002c
:1015f0000040eb00a9e9b70010c0b30097e8b700be
:1016000010c0b300d7e8b70010c0b300abe9b70013
:10161000a9c9bf000040e800a9e9b7001cfd070008
:10162000a8c9bf000040e800a8e9b700f04c80005e
:101630000000e800f04c8800d1458000703e20009a
:10164000808f5000020036000040eb004de8b700ec
:10165000acc9bf00e14f500057003a005dc9bf0060
:101660000004e00028003a00e0c2bf000044b200dd
:101670000004e0000d003a0041c9bf000004e00092
:101680000a003a0042c9bf00e14f500007003a008b
:1016900010c0b30041e9b70010c0b3008de8b70037
:1016a0000040eb0042e9b70010003700e0c2bf0085
:1016b0000044b2000004e0000c003a0041c9bf0041
:1016c000e14f500009003a0042c9bf00e14f50000d
:1016d00006003a000040eb0041e9b70010c0b3003b
:1016e0008de8b7000040eb0042e9b700e0c2bf0060
:1016f0000044b2000004e0000700320010c0b30054
:1017000042e9b700040037005dc9bf00e14f500057
:1017100001003a002f0007005dc9bf000004e0008f
:1017200025003a005ec9bf000004e00022003a0034
:10173000e0c2bf000044b2000004e00016003a001e
:10174000504a80000000e800504a8800514a80005a
:1017500070382100808f50001700360010c0b30091
:101760005de9b70010c0b3005ee9b7000040eb00d0
:1017700041e9b70010c0b3008de8b7000040eb00ae
:1017800042e9b7000000eb00504a880010c0b300e7
:101790005fe9b700080037000000eb00504a8800fe
:1017a0000040eb005de9b7000040eb005ee9b700e8
:1017b0000040eb005fe9b7000080fa004f03be0075
:1017c0004f02be004f01be004f00be003600f900c0
:1017d000004006000000fa00e0c2bf000044b20072
:1017e0000004e000130032003ac9bf000004e0002a
:1017f00010003a000000eb00d0488800e04880006c
:101800000000e800e0488800e0488000ee0f50004b
:1018100008003400f0002000e04888000040eb00a1
:101820003ce9b7000040eb003de9b70010c0b30051
:101830003be9b700e0c2bf000044b2000004e00092
:1018400019003a003ac9bf000004e00016003a004f
:101850003bc9bf00e14f500013003a000000eb000d
:10186000e0488800d04880000000e800d0488800a8
:10187000d148800070382100808f50000a00340069
:1018800080382100d048880010c0b3003ce9b70080
:1018900010c0b3003ae9b7000040eb003be9b700e5
:1018a0000040eb005fe9b700e0c2bf000044b200b7
:1018b0000004e0000f0032003ac9bf00e14f5000c1
:1018c0000c003a000000eb00d0488800e04880009f
:1018d0000000e800e0488800e0488000ee0f50007b
:1018e00004003400f0002000e048880010c0b3007d
:1018f0003be9b700e0c2bf000044b2000004e000d2
:1019000019003a003cc9bf00e14f500016003a00f0
:101910003bc9bf00e14f500013003a000000eb004c
:10192000e0488800d04880000000e800d0488800e7
:10193000d148800070382100808f50000a003400a8
:1019400080382100d04888000040eb003ce9b70017
:1019500010c0b3003de9b70010c0b3003ae9b700ca
:101960000040eb003be9b700e0c2bf000044b2001a
:101970000004e00027003a003dc9bf00e14f5000dd
:1019800024003a003bc9bf00e14f500021003a005b
:101990000000eb00e0488800d04880000000e8002c
:1019a000d0488800d148800070382100808f5000d6
:1019b0001800340080382100d04888000040eb0037
:1019c0003ce9b7000040eb003de9b7000040eb0008
:1019d0003ae9b7000040eb003be9b7000040eb00fc
:1019e0005de9b7000040eb005ee9b7000040eb00a6
:1019f00041e9b70010c0b3008de8b7000040eb002c
:101a000042e9b7000000eb00504a88000040eb00bc
:101a10005fe9b7000080fa00000006000000fa004d
:101a200084c0a9000080fa00004006003600f800db
:101a3000809fbe00829fbe00849fbe00869fbe0026
:101a40000000fa0086a0a900acc9bf00e14f500019
:101a50009b003a00218d20009140780000c5b30022
:101a600080cf500096003a00004580000000e8005a
:101a7000004588008efd0700a0e9b70041c9bf00fe
:101a80000004e0002a003a00019a2000914078000a
:101a9000b0c2b30080cf500009003a00d1438000ab
:101aa000c04b8000808f500005003e00d043800076
:101ab0003145800001004000d043880051003700cc
:101ac000019a200091407800d0c2b30080cf50002e
:101ad00009003a00d1438000704d8000808f500093
:101ae00005003600d04380004145800001005000d1
:101af000d043880043003700d1438000c04b8000b2
:101b0000808f500003003900c04b8000d043880014
:101b10003c003700d1438000704d8000808f500022
:101b200038003e00704d8000d043880035003700fb
:101b300041c9bf00e14f500032003a00019a200035
:101b400091407800b0c2b30080cf500009003a0045
:101b5000214a800040062000808f500005003e0092
:101b6000204a80003145800001004000204a880062
:101b700024003700019a200091407800d0c2b300c1
:101b800080cf500013003a00204a80000000e0009f
:101b900010003200214a800040458000808f5000b4
:101ba00005003900204a80004145800001005000b6
:101bb000204a880013003700204a80000000e0001f
:101bc00010003200204a80000000e900204a88000e
:101bd0000c003700214a800030062000808f500022
:101be0000300360040062000204a88000500370028
:101bf000204a80000000e00002003a000000eb00f4
:101c0000204a880001458000700c2000808f500021
:101c100012003e00019a200091407800b0c2b3004b
:101c200080cf500004003a00104580000000e8001a
:101c3000104588004b003700019a20009140780041
:101c4000d0c2b30080cf500046003a00204580004b
:101c50000000e80020458800420037000145800070
:101c6000700c2000808f50003e0036000000eb001a
:101c700000458800104580003045880020458000e0
:101c80004045880030458000e10f500002003e00d2
:101c9000100020003045880040458000e10f5000d2
:101ca00002003e0010002000404588000000eb00cc
:101cb000104588000000eb0020458800290037000f
:101cc000fbfc0700a0e9b700019a200091407800d2
:101cd000b0c2b30080cf500008003a00014180003c
:101ce000b01c2000808f500004003e0000418000a6
:101cf0000000e800004188001a003700019a200027
:101d000091407800d0c2b30080cf500008003a0064
:101d100001418000c0082000808f50000400360080
:101d2000004180000000e900004188000d003700fc
:101d300001418000b01c2000808f5000030036005d
:101d4000c01c2000004188000600370001418000cf
:101d5000c0082000808f500002003e00c008200014
:101d6000004188000080fa004f03be004f02be0011
:101d70004f01be004f00be003600f90000400600d3
:101d80003600f800809fbe00829fbe00849fbe0088
:101d9000869fbe00881f78006400fa00a042a90058
:101da0008560a90000148000504088001014800055
:101db000604088002014800070408800301480004b
:101dc00080408800401480009040880050148000bb
:101dd000a0408800504080006101b800f0428000bf
:101de000014380000200400083804800f0428800e8
:101df00001438800604080006101b800b04280006b
:101e0000c14280000200400083804800b042880048
:101e1000c1428800704080006101b800104380001a
:101e20002143800002004000838048001043880066
:101e300021438800804080006101b800d0428000ca
:101e4000e14280000200400083804800d0428800c8
:101e5000e1428800904080006101b800904380001a
:101e6000a143800002004000838048009043880026
:101e7000a1438800a04080006101b800b043800009
:101e8000c14380000200400083804800b0438800c6
:101e9000c1438800e04380000000e800e043880080
:101ea000c04180000000e800c04188005040800030
:101eb0006101b800d0418000e14180000200400093
:101ec00083804800d0418800e1418800c141800002
:101ed000f00f2000808f500012003600d0418000ab
:101ee000e14180004809dd004800de00000071008b
:101ef000c808de00b0418800b04180006a00b90027
:101f000032022000110009000280d800b041880090
:101f10000000eb00c04188006000b800d04188009c
:101f2000e1418800e1438000f0ff2000808f5000f5
:101f30007d033600f042800001438000c409dd00cb
:101f40004c00de0000807100cc08de00f04288000a
:101f500001438800b0428000c1428000440add0095
:101f60004c00de0000007200cc08de00b0428800a9
:101f7000c14288001043800021438000c40add0074
:101f80004c00de0000807200cc08de0010438800a8
:101f900021438800d0428000e14280004409dd00f6
:101fa0004c00de0000007100cc08de00d04288004a
:101fb000e142880090438000a1438000c409dd0015
:101fc0004c00de0000807100cc08de0090438800e9
:101fd000a1438800b0438000c1438000440add0073
:101fe0004c00de0000007200cc08de00b043880028
:101ff000c14388000000eb00e04388009443800068
:10200000a5438000a00020000023b8006020b90094
:1020100007017800000141006a28b9000001410071
:102020008203780062032000030020000600be0047
:10203000b3f80700a04888006000b800904388000b
:10204000a1438800b4438000c5438000a000200065
:102050000023b8006020b9000701780000014100aa
:102060006a28b90000014100820378006203200061
:10207000030020000600be00a1f80700b048880059
:102080006000b800b0438800c14388008bc8bf001f
:102090000004e0000f003a00d2428000e3428000da
:1020a000f0e0200001002000800f5100818f5900d6
:1020b0000300360010c0b300ace9b70002003700df
:1020c00030c0b300ace9b7006000b800d04288006f
:1020d000e14288001043800021438000b040880026
:1020e0006000b8001043880021438800f44280005b
:1020f00005438000a00020000023b8006020b90044
:1021000007017800000141006a28b9000001410080
:102110008203780032022000030020000600be0087
:1021200077f80700804588008045800020408800bf
:10213000f0428000014380005043880061438800e2
:102140006000b800f042880001438800b44280007b
:10215000c5428000400120000023b8006020b90083
:1021600007017800000141007428b9000001410016
:102170008203780012032000030020000600be0046
:102180005ff8070000408800b2428000c342800030
:10219000d1408000100320000088b9000100200019
:1021a000000051008180590030438800414388007d
:1021b0006000b800b0428800c142880042c8bf0039
:1021c0000004e0000f003a0043c8bf00e94f500090
:1021d0000800360000408000d0408800a048800001
:1021e00090418800b0488000a041880010c0b30032
:1021f00042e8b70043c8bf000040e80043e8b7002a
:10220000e8013700a148800090418000808f500095
:1022100070003900a148800090418000008050008b
:10222000a0488800a84880006140b90044f8070031
:1022300000379800113798000800e00007003d00c3
:1022400002002000037824000e3090009e309000a1
:1022500067f8070000379800113798000200200047
:10226000633924000e3090009e309000bdf80700c6
:102270000000e000010034002b003700a848800077
:102280006140b9002ef80700602f9800712f980068
:102290000800e00007003d00020020000378240051
:1022a0006e289000fe28900051f80700602f9800db
:1022b000712f9800a84880006140b90020f80700fd
:1022c000402f9800512f98000800e00007003d00c3
:1022d00002002000037824004e289000de289000a1
:1022e00043f80700402f9800512f98004e29900086
:1022f000de29900000002000613924003bf807002f
:10230000d2cc2c00c3d4230098f807000001be00f3
:102310006e289000fe28900035f80700c7f80700e7
:10232000104988002d003700a84880006140b9009e
:1023300003f80700202f9800312f98000800e000d4
:1023400007003d0002002000037824002e289000a2
:10235000be28900026f80700202f9800312f980003
:10236000a84880006140b900f5f70700002f9800e9
:10237000112f98000800e00007003d000200200037
:10238000037824000e2890009e28900018f807007b
:10239000002f9800112f98000200200063392400bc
:1023a0000e2890009e28900010f80700d2cc2c0038
:1023b000c3d42b006df807000001be002e2890004a
:1023c000be2890000af807009cf807001049880012
:1023d000020037000000eb00a0488800b1488000f0
:1023e000a0418000808f500070003900b14880000b
:1023f000a041800000805000b0488800b8488000ac
:102400006140b900cef70700602798007127980057
:102410000800e00007003d000200200003782400cf
:102420006e209000fe209000f1f7070060279800d2
:102430007127980002002000633924006e2090006c
:10244000fe20900047f807000000e0000100340083
:102450002b003700b84880006140b900b8f707008a
:1024600040279800512798000800e00007003d0031
:1024700002002000037824004e209000de2090000f
:10248000dbf707004027980051279800b8488000e4
:102490006140b900aaf7070020279800312798006b
:1024a0000800e00007003d0002002000037824003f
:1024b0002e209000be209000cdf707002027980026
:1024c000312798002e219000be21900000002000ae
:1024d00061392400c5f70700d2cc2c00c3d42300f7
:1024e00022f807000001be004e209000de20900080
:1024f000bff7070051f80700204988002d0037007a
:10250000b84880006140b9008df7070000279800a7
:10251000112798000800e00007003d00020020009d
:10252000037824000e2090009e209000b0f7070052
:102530000027980011279800b84880006140b90032
:102540007ff70700601f9800711f98000800e000e7
:1025500007003d0002002000037824006e18900060
:10256000fe189000a2f70700601f9800711f9800e6
:1025700002002000633924006e189000fe189000bd
:102580009af70700d2cc2c00c3d42b00f7f7070032
:102590000001be000e2090009e20900094f70700de
:1025a00026f8070020498800020037000000eb00f1
:1025b000b048880001408000d0408000808f5000eb
:1025c000d500390001408000d040800000805000dc
:1025d00000408800a1488000b04880000080400092
:1025e000c0488800c148800030062000808f50001d
:1025f0003c003600c1488000d0242000808f50006d
:1026000019003600c84880006140b9004cf7070047
:10261000401f9800511f98000800e00007003d008f
:1026200002002000037824004e189000de1890006d
:102630006ff70700401f9800511f9800020020000c
:10264000031a24004e189000de189000c7f7070008
:1026500002002000832c240019f80700f7f7070078
:10266000604988001f003700c1488000d024200046
:10267000808f500019003e00c84880006140b900ba
:102680002ff70700201f9800311f98000800e00076
:1026900007003d0002002000037824002e1890005f
:1026a000be18900052f70700201f9800311f9800b5
:1026b00002002000031f24002e189000be18900076
:1026c000aaf7070002002000832c2400fcf7070073
:1026d000daf7070060498800020037004006200052
:1026e00060498800084080006140b90014f7070085
:1026f000001f9800111f98000800e00007003d002f
:1027000002002000037824000e1890009e1890000c
:1027100037f70700001f9800111f980002002800db
:10272000334124000e1890009e1890008df707008a
:102730000000e000010035002b0037000840800059
:102740006140b900fef60700601798007117980005
:102750000800e00007003d0002002000037824008c
:102760006e109000fe10900021f70700601798008f
:1027700071179800084080006140b900f0f607002a
:1027800040179800511798000800e00007003d002e
:1027900002002000037824004e109000de1090000c
:1027a00013f7070040179800511798004e1190003a
:1027b000de11900000002000614124000bf70700ab
:1027c00092c22500f3d8230068f707000001be007d
:1027d0006e109000fe10900005f70700faf7070052
:1027e000704188004e00370001408000d024200056
:1027f000808f500007003600014080002026200016
:10280000808f500003003e0000408000704188002f
:1028100043003700084080006140b900c8f6070057
:1028200020179800311798000800e00007003d00cd
:1028300002002000037824002e109000be109000ab
:10284000ebf60700201798003117980002002800c7
:10285000834124002e109000be109000f5f7070071
:102860000000e00001003c002d003700084080001f
:102870006140b900b2f607000017980011179800e0
:102880000800e00007003d0002002000037824005b
:102890000e1090009e109000d5f6070000179800cb
:1028a00011179800084080006140b900a4f60700a5
:1028b000600f9800710f98000800e00007003d00cd
:1028c00002002000037824006e089000fe089000ab
:1028d000c7f60700600f9800710f980002002000f3
:1028e000634124006e089000fe089000bff60700c8
:1028f000a2702d0033c22b001cf707000001be00a0
:102900000e1090009e109000b9f60700aef7070079
:1029100070418800020037000000eb000040880092
:102920001149800020498000808f50000d00340044
:10293000104980002149800001005000500f98008c
:10294000de0a90000500e00003003d005e089000f4
:102950000000ea00500f9800de089000314988001e
:10296000100037002149800010498000808f5000fe
:102970000c00340020498000114980000100500003
:10298000400f98004e0990000200e00003003d0057
:10299000ce0990008301ea00430f98004e0a900090
:1029a0003449880042c8bf00e14f500025003a007a
:1029b0000140800010032000808f5000030036008b
:1029c00010c0b30040e8b7001e00370040c8bf0089
:1029d000e14f50001b003a00acc9bf00e14f50006e
:1029e00018003a00114b8000d0438000808f5000c7
:1029f00005003200d1438000200020006909070053
:102a0000d0438000104b8800014b8000204a80009a
:102a1000808f500005003200214a800060002000b5
:102a200060090700204a8000004b88000040eb004e
:102a300040e8b7000000eb00404a880010c0b30037
:102a40005ce9b700d184200091407800f0c4b30065
:102a500080cf5000b4003a00d3c8bf00e14f50000f
:102a6000b1003a0050468000f00f5000ae003e002a
:102a7000204080006101b8007047800081478000dd
:102a8000020040008380480070478800814788002a
:102a9000004080006101b80090478000a14780009d
:102aa000020040008380480090478800a1478800ca
:102ab000504680000000e8005046880050468000e4
:102ac000f00f500093003a000040eb00d5e8b7004b
:102ad0005447800065478000d6c8bf000081fb00d6
:102ae000030020000400be0005f60700f046880041
:102af000014788007047800081478000cc0add00d4
:102b00004400de0000807200c408de001047880028
:102b10002147880090478000a14780004c09dd00d4
:102b20004400de0000007100c408de003047880069
:102b3000414788001247800023478000f04680000c
:102b400001478000800f5100818f590059003900e2
:102b50001247800023478000f04680000147800034
:102b60000001510081815900220f9800330f980015
:102b70002e0a9000be0a9000e00f5200e08f5a002b
:102b8000060035002e089000be089000ecf5070006
:102b9000000f9800110f9800140037002e099000c4
:102ba000be099000610061008000eb002e0a9000d9
:102bb000be0a90008501d1000481d300020070009c
:102bc00083807000def50700000f9800110f980059
:102bd0000e0990009e0990000e0890009e0890003b
:102be00003f60700000f9800110f98000200200064
:102bf000a34724000e0890009e0890005bf6070093
:102c000060079800710798003047800041478000b6
:102c100040079800510798004e019000de01900097
:102c2000e00f5100e08f5900060035004e00900083
:102c3000de009000c2f507002007980031079800d9
:102c4000140037004e029000de0290006100620026
:102c50008000eb004e029000de0290008501d10062
:102c60000481d3000200700083807000b4f5070077
:102c700020079800310798002e019000be019000b7
:102c80002e009000be009000d9f5070020079800a4
:102c9000310798002e019000be0190006e00900058
:102ca000fe00900086f60700c7f607004046880041
:102cb000020037000000eb004046880048468000d4
:102cc0006140b9009ef50700008fbe000800e000db
:102cd00005003d0002002000037824001e00be0015
:102ce000c3f50700008fbe0002002000031224007d
:102cf0001e00be001df60700b3f607008000780036
:102d000040002000a70807004046800030468800a9
:102d10000500370050468000f00f500002003e00d2
:102d20005046800030468800a042a8000080fa008b
:102d30004f0478004f03be004f02be004f01be009b
:102d40004f00be003600f90000400600809fbe0024
:102d5000829fbe000000fa008520a900901080002c
:102d600046e8b7000ec2bf00624060000004e00009
:102d7000010032000e22a9000ec2bf0064406000b4
:102d80000004e000010032000e42a9000ec2bf00a4
:102d9000684060000004e000010032000e62a900fb
:102da000618420009140780040c2b30080cf500081
:102db00008003a0047c8bf000004e00005003a00e0
:102dc0000040eb004ae8b70010c0b30047e8b70086
:102dd0008100370047c8bf00e14f50007e003a0035
:102de00048c8bf008080fb00628420001241780048
:102df000b0982000008040000248780048c8bf001a
:102e0000e74f500008003e0048c8bf008080fb002c
:102e1000b098200000804000904078004ac8bf0071
:102e200000c040004ae8b70048c8bf000040e800c2
:102e300048e8b70048c8bf00e94f500066003a00b4
:102e40000040eb0048e8b7000040eb0047e8b7005f
:102e50004ac8bf004ae8b700319920009140780085
:102e60004ac8bf0080cf500059003a008bc9bf004c
:102e70000080fb00504188008cc9bf000080fb002f
:102e80006041880060418000000040000000400078
:102e90000000400000004000000040000000400032
:102ea0000000400000004000604188006141800057
:102eb0005041800000807000e04088008dc9bf0054
:102ec0000080fb00504188008ec9bf000080fb00dd
:102ed0006041880060418000000040000000400028
:102ee00000004000000040000000400000004000e2
:102ef0000000400000004000604188005141800017
:102f00006041800000807000004188008fc9bf00d0
:102f10000080fb005041880090c9bf000080fb008a
:102f200060418800604180000000400000004000d7
:102f30000000400000004000000040000000400091
:102f400000004000000040006041880051418000c6
:102f500060418000008070003041880091c9bf004e
:102f60004de8b70092c9bf0012e9b7000000eb00be
:102f7000d0458800d184200091407800f0c4b3008f
:102f800080cf500014003a00d3c8bf00e14f50007a
:102f900011003a00d5c8bf00e14f50000e003a00c2
:102fa000304180006101b8005047800061478000d7
:102fb0000200400083804800504788006147880035
:102fc000d6c8bf000040e800d6e8b70002003700ce
:102fd0000040eb004ae8b7000080fa004f01be0055
:102fe0004f00be00004006003600f800809fbe0083
:102ff000829fbe00849fbe00869fbe000a00fa002a
:103000000000eb00000f78008700a900e0108000ae
:103010004ee8b700e18420009140780040c2b30040
:1030200080cf50000d003a00f6c8bf000004e00059
:103030000a003a00f7c8bf000004e00007003a00a9
:103040000040eb0052e8b70010c0b300f6e8b7004c
:103050000040eb0050e8b7003d013700e18420005c
:103060009140780050c2b30080cf50000b003a006e
:10307000f6c8bf00e14f500008003a00f7c8bf0093
:103080000004e00005003a004ec8bf0052e8b70057
:1030900010c0b300f7e8b7002d013700e18420002d
:1030a0009140780030c2b30080cf50000b003a004e
:1030b000f6c8bf00e14f500008003a00f7c8bf0053
:1030c0000004e00005003a004ec8bf0052e8b70017
:1030d00020c0b300f7e8b7001d013700e1842000ed
:1030e0009140780000c4b30080cf50000b003a003c
:1030f000f6c8bf00e14f500008003a00f7c8bf0013
:103100000004e00005003a004ec8bf0052e8b700d6
:1031100030c0b300f7e8b7000d013700f6c8bf00b4
:10312000e14f50005e003a00f7c8bf00e14f500089
:103130005b003a0050c8bf008080fb00e2842000a2
:103140001241780030992000008040000248780049
:1031500050c8bf00e14f500008003e0050c8bf00fb
:103160008080fb0030992000008040009040780073
:1031700052c8bf0000c0400052e8b70050c8bf00ae
:103180000040e80050e8b70050c8bf00e34f5000cf
:10319000ef003a000040eb00f6e8b7000040eb001b
:1031a000f7e8b7000040eb0050e8b7005199200065
:1031b0009140780052c8bf0080cf500035003a00df
:1031c00093c9bf0053e8b70094c9bf0054e8b700e3
:1031d00054c8bf000080fb00000f78001e0078007c
:1031e00000004000000040000000400000004000df
:1031f00000004000000040000000400000004000cf
:103200008000780053c8bf000080fb00008f700072
:10321000c14b800000322000808f500014003a0023
:103220001e0078000000400032002000110009005c
:103230000280d800d0438800d1438000704d8000c8
:10324000808f500003003e00704d8000d043880006
:1032500009003700d1438000c04b8000808f5000b0
:1032600005003900c04b8000d043880002003700c1
:103270001e007800d04388000000eb001046880054
:103280000040eb0052e8b70010c0b30091e8b7006f
:10329000af0037000040eb004ae8b700ac00370051
:1032a000f6c8bf00e14f500094003a00f7c8bf00d5
:1032b000e24f500091003a0050c8bf008080fb00f0
:1032c000e284200012417800309920000080400004
:1032d0000248780050c8bf00e34f500008003e008d
:1032e00050c8bf008080fb00309920000080400063
:1032f0009040780052c8bf0000c0400052e8b700bc
:1033000050c8bf000040e80050e8b70050c8bf00f8
:10331000e54f50008e003a000040eb00f6e8b700a1
:103320000040eb00f7e8b7000040eb0050e8b700c2
:10333000719920009140780052c8bf0080cf5000a2
:1033400065003a0020c0b300ace9b70010c0b3007c
:103350008be8b7000040eb008ce8b70093c9bf00d2
:1033600053e8b70094c9bf0054e8b70054c8bf0081
:103370000080fb00000f78001e0078000000400075
:10338000000040000000400000004000000040003d
:103390000000400000004000000040008000780075
:1033a00053c8bf000080fb00008f70001e00780033
:1033b000cf80de00e2f30700300798004107980055
:1033c0001e00e00007003d000200200003782400fa
:1033d0003e009000ce00900005f4070030079800f2
:1033e0004107980002002000030824003e009000de
:1033f000ce009000b2f40700f3f40700d047880035
:1034000095c9bf0053e8b70096c9bf0054e8b7009c
:1034100054c8bf000080fb00000f78001e00780039
:10342000000040000000400000004000000040009c
:10343000000040000000400000004000000040008c
:103440008000780053c8bf000080fb00008f700030
:103450001e007800cf80de00b9f307001007980047
:10346000210798001e00e00007003d000200200038
:10347000037824001e009000ae009000dcf30700eb
:103480001007980021079800020020000304240080
:103490001e009000ae00900034f4070002002000ef
:1034a0000310240086f4070002002000c33024002b
:1034b000cff30700c4f40700e04788000000eb00ea
:1034c000104688000040eb0052e8b70010c0b3007f
:1034d00091e8b7001e0037000040eb0052e8b7004b
:1034e0000040eb00f6e8b7000040eb00f7e8b7005b
:1034f0000040eb0050e8b70015003700f6c8bf00e9
:10350000e14f50000c003a00f7c8bf00e34f5000f5
:1035100009003a000040eb0052e8b7000040eb0021
:10352000f6e8b7000040eb00f7e8b7000040eb001a
:1035300050e8b700060037000040eb0052e8b70043
:103540000040eb00f6e8b7000040eb00f7e8b700fa
:103550000080fa004f03be004f02be004f01be00c4
:103560004f00be003600f900004006001800fa00c7
:10357000889fbe0093c8bf000004e00043003a00eb
:103580000040eb00b2e9b700d0c4b3007ae9b7005d
:10359000d0c4b3007be9b70010c4b3007ce9b70026
:1035a000b0c5b3007de9b700d0c4b3007ee9b70071
:1035b000f0c4b3007fe9b70040c4b30080e9b700ae
:1035c00050c4b30081e9b700e9a2a800e9c2a9008c
:1035d000d722a800ca82a900cb02a80010c0b3005d
:1035e00093e8b7000040eb0095e8b7000040eb001f
:1035f00094e8b7000040eb0097e8b7000040eb000c
:103600009be8b70010c0b3005ce9b7000040eb00d6
:10361000a8e9b7000040eb00a9e9b7000000eb0003
:10362000104188000000eb00f040880010c0b3009b
:103630008de8b700200020003d06070010448800f8
:1036400011448000c04b8000808f50000200390080
:10365000c04b80001044880010448000d043880094
:1036600060002000320607001044880011448000ea
:10367000704d8000808f500002003900704d800036
:103680001044880010448000204a88009ac8bf0077
:103690000004e00094013a003fc9bf000004e000cc
:1036a00091013a00e9a2a800e9c2a900d722a80026
:1036b000ca82a900cb02a8003ac9bf000004e000fa
:1036c00042013a000040eb00b2e9b70041c9bf0037
:1036d0000004e00027003a005fc9bf000004e000da
:1036e00024003a00b2c9a80040c8bf000004e000ae
:1036f0004e003a00c1408000d0438000808f5000cf
:1037000003003a008dc8bf00e14f500004003a00aa
:10371000d04380000af60700d0438000c0408800f4
:103720003140800020408000808f50000300320034
:10373000f0438000e10f5000030032008dc8bf004d
:10374000e14f500004003a002040800027f60700b7
:1037500020408000304088000000eb00f0438800eb
:103760000040eb008de8b7000040eb00abe9b7008c
:103770002e00370041c9bf00e14f500012003a004f
:103780005fc9bf000004e0000f003a0040c8bf005e
:103790000004e0000c003a00b2c9a90010c4b30054
:1037a0007ae9b70020c5b3007be9b70030c4b300a5
:1037b0007ce9b70060c4b3007de9b700204a80000f
:1037c0000af607001900370041c9bf000004e000f5
:1037d00016003a005fc9bf00e14f500013003a00e5
:1037e00040c8bf000004e00010003a0030c4b3003d
:1037f0007ae9b70010c4b3007be9b700c0c4b300d6
:103800007ce9b700f0c2b3007de9b700d0c4b300d3
:103810007ee9b700f0c4b3007fe9b70040c4b3004d
:1038200080e9b70050c4b30081e9b700b841800017
:103830006140b900c2f20700200f9800310f9800d4
:103840000800e00007003d0002002000037824008b
:103850002e089000be089000e5f20700200f9800a7
:10386000310f98002e089000be089000604a880032
:10387000714a8800284a80006140b900b0f2070010
:10388000000f9800110f98000800e00007003d00ad
:1038900002002000037824000e0890009e0890008b
:1038a000d3f20700000f9800110f98000e08900047
:1038b0009e089000804a8800914a8800d843800082
:1038c0006140b9009ef207006007980071079800f8
:1038d0000800e00007003d000200200003782400fb
:1038e0006e009000fe009000c1f207006007980093
:1038f000710798006e009000fe009000c04a88009a
:10390000d14a88005cc9bf00e14f500022003a0054
:10391000c04a8000d14a8000020028009340240061
:1039200010f307000000e00001003500110037002f
:10393000c04a8000d14a8000020020000317240002
:103940000af3070002002000832c24005cf3070028
:103950000002be00c04a8000d14a80000001be00c3
:103960000400be00a2f20700a04a8800b14a880005
:1039700007003700c04a8000d14a800002002000c2
:10398000832c24009af20700a04a8800b14a8800dc
:10399000d022a80036003700604a8000714a8000bb
:1039a0000200200063412400eef207000000e00066
:1039b000010034002a003700d1438000800c200031
:1039c000808f500020003e00624a8000734a8000d1
:1039d000000020006141240084f207000200200062
:1039e0006341240036f307000002be00c04a800095
:1039f000d14a80000001be000400be00dbf20700d7
:103a00000004be00804a8000914a8000020020002d
:103a1000832c24002af307000001be000800be002a
:103a2000d2f207000002be00c04a8000d14a8000e6
:103a30000001be000400be006df20700a04a88002d
:103a4000b14a880004003700c04a8000d14a800093
:103a5000a04a8800b14a8800d022a900040037009b
:103a6000c04a8000d14a8000a04a8800b14a88003c
:103a7000c84b80006140b90031f207004007980050
:103a8000510798000800e00007003d0002002000f8
:103a9000037824004e009000de00900054f20700ee
:103aa0004007980051079800a24a8000b34a80005e
:103ab0004e009000de009000aaf207000000e00037
:103ac0000100340012003700c84b80006140b9008b
:103ad0001bf2070020079800310798000800e0005b
:103ae00007003d0002002000037824002e00900013
:103af000be0090003ef207002007980031079800b2
:103b00002e009000be009000a04a8800b14a8800b4
:103b1000a04a8000b14a800062ba29004300240014
:103b200092f2070002002800533d240030f2070003
:103b300025f307006045880061458000b0b720008c
:103b4000808f500002003600c0b72000604588001a
:103b500060458000000c880040c8bf00e14f500065
:103b60001a003a008141800070418000808f50002f
:103b700007003200f0438000e10f500004003a00db
:103b800070418000eef407007041800080418800a1
:103b90003140800020408000808f500007003200bc
:103ba000f0438000e10f500004003a002040800004
:103bb0000ef5070020408000304088000000eb0038
:103bc000f043880010c0b3008de8b7003ac9bf00c9
:103bd000e14f50004a003a000040eb00b2e9b70064
:103be000b2c9a900c1408000d0438000808f50003e
:103bf0001e003200d84380006140b900d0f10700b8
:103c0000008fbe000800e00005003d00020020001b
:103c1000037824001e00be00f5f10700008fbe00ef
:103c200062ba2900430024001e00be004ff20700c4
:103c300002002800533d2400edf10700e2f20700e6
:103c40006045880061458000b0b72000808f50003b
:103c500002003600c0b72000604588006045800043
:103c6000000c8800d0438000c04088003cc9bf00e1
:103c7000e14f50000a003a0030c4b3007ae9b700bf
:103c800010c4b3007be9b700c0c4b3007ce9b7003f
:103c900010c3b3007de9b70010498000d3f40700da
:103ca0003dc9bf00e14f50000a003a0030c4b300e4
:103cb0007ae9b70010c4b3007be9b700c0c4b30011
:103cc0007ce9b70020c3b3007de9b700204980003c
:103cd000c6f4070010002000f043880010c0b300b5
:103ce0008de8b700060037000040eb00b2e9b700ee
:103cf0000000eb00000c8800d722a900e982a80090
:103d00003fc9bf00e14f500009003a000040eb00fe
:103d1000b2e9b7000000eb00000c8800d722a90030
:103d2000e982a8003fc9bf00e14f5000fdff32000b
:103d30004f04be000080fa00000006001000fa00e8
:103d4000881f7800d3c8bf00e14f50002c003a0014
:103d5000d4c8bf00e14f500029003a000040eb00fa
:103d6000b2e9b70030c4b3007ae9b70010c4b300b9
:103d70007be9b700c0c4b3007ce9b700b0c5b300ad
:103d80007de9b700d0c4b3007ee9b700f0c4b3004a
:103d90007fe9b70040c4b30080e9b70050c4b30066
:103da00081e9b7000040eb00d4e8b7000000eb0069
:103db0006046880003003700604680000000e8008d
:103dc0006046880061468000703e2000808f500071
:103dd000f9ff36000000eb00604688000300370062
:103de000604680000000e800604688006146800070
:103df000703e2000808f5000f9ff3600a901370087
:103e000095c8bf000004e00046003a000040eb0007
:103e1000b2e9b70030c5b3007ae9b70010c4b30007
:103e20007be9b70070c5b3007ce9b700b0c5b3004b
:103e30007de9b700d0c4b3007ee9b700f0c4b30099
:103e40007fe9b70040c4b30080e9b70050c4b300b5
:103e500081e9b7000040eb0093e8b70010c0b30061
:103e600095e8b7000040eb0094e8b7000040eb0095
:103e700097e8b700cb02a900e9a2a900e9c2a8000f
:103e80000040eb00a8e9b7000040eb00a9e9b7004b
:103e9000ca82a900d722a90010c0b3008de8b700dc
:103ea0000040eb00d4e8b7004000200020040700e9
:103eb0001044880011448000703e2000808f500024
:103ec00002003600803e2000104488001844800024
:103ed0006140b9001af10700600798007107980067
:103ee0000800e00007003d000200200003782400e5
:103ef0006e009000fe0090003df107006007980002
:103f00007107980002002000031224006e00900048
:103f1000fe009000eaf107002bf2070040468800ff
:103f2000600137009ac8bf000004e00048013a0071
:103f300095c8bf00e14f500045013a0097c8bf0047
:103f4000e14f500042013a000040eb00b2e9b700f7
:103f5000b2c9a800c1842000914078004dc8bf00bc
:103f600080cf50000400320010c0b3008de8b700cd
:103f70004dc8bf004ce8b700d184200091407800c4
:103f800060c4b30080cf500030003a00f1408000a0
:103f9000e0408000808f500003003a008dc8bf00d1
:103fa000e14f500004003a00e0408000e4f30700d5
:103fb000e0408000f0408800114180000041800016
:103fc000808f500003003a008dc8bf00e14f5000c1
:103fd00004003a000041800004f407000041800022
:103fe000104188000040eb0044e8b700d722a90048
:103ff000ca82a900cb02a9000040eb009be8b700f1
:10400000fd0507000000eb00000c8800d045800093
:104010000000e800d04588000040eb008de8b700c4
:1040200010c0b30033e9b7000040eb00f8e8b70078
:10403000f0ff2100c0408800f0ff21001040880000
:10404000f0ff21003040880016013700d1842000a5
:1040500091407800f0c4b30080cf5000db003a00fc
:104060000040eb00b2e9b700b2c9a800d04580001b
:104070000000e800d0458800d722a8001141800048
:1040800000418000808f500009003a00d3c8bf0073
:10409000e14f5000060032008dc8bf00e14f5000d4
:1040a00003003200f8c8bf000004e0002b003a0013
:1040b000219120009140780060c5b30080cf50006e
:1040c00026003a00d722a800ca82a800cb02a90085
:1040d000084180006140b90099f00700400798004e
:1040e000510798000800e00007003d000200200092
:1040f000037824004e009000de009000bcf0070022
:104100004007980051079800d2a32000730a2400aa
:104110004e009000de00900014f10700d2a32000b2
:10412000731a2400b2f00700a7f107006045880069
:1041300061458000b0b72000808f5000020036003b
:10414000c0b720006045880060458000000c8800f2
:10415000004180001041880070003700f14080006d
:10416000e0408000808f500009003a008dc8bf00f9
:10417000e14f50000600320033c9bf00e14f50004c
:1041800003003200f8c8bf000004e00063003a00fa
:10419000219120009140780030c4b30080cf5000be
:1041a0005e003a0033c9bf00e14f50003a003a00c8
:1041b0000040eb0033e9b700d722a800ca82a8006c
:1041c000cb02a900d04580000000e800d04588005f
:1041d000084180006140b90059f0070020079800ad
:1041e000310798000800e00007003d0002002000b1
:1041f000037824002e009000be0090007cf00700a1
:104200002007980031079800d2a32000730a2400e9
:104210002e009000be009000d4f00700d2a3200032
:10422000731a240072f0070067f1070060458800e8
:1042300061458000b0b72000808f5000020036003a
:10424000c0b720006045880060458000000c8800f1
:104250006000b800b0498800c149880006003700f6
:10426000b0498000c149800061004000e080480002
:10427000b0498800c1498800b2498000c349800024
:104280000051270001072000800f5100818f590045
:10429000f3ff360021003700d722a800ca82a90008
:1042a000cb02a800e84080006140b90024f007007c
:1042b000008fbe000800e00005003d000200200065
:1042c000037824001e00be0049f00700008fbe00e6
:1042d00062ba2900430024001e00be00a3f00700bc
:1042e00002002800533d240041f0070036f107008a
:1042f0006045880061458000b0b72000808f500085
:1043000002003600c0b7200060458800604580008c
:10431000000c8800e0408000f0408800814180006f
:1043200070418000808f500003003200f043800015
:10433000e10f5000030032008dc8bf00e14f500074
:1043400004003a0070418000fdf2070070418000d7
:10435000804188003041800024f307003041800014
:10436000204188002141800030418000808f500032
:1043700003003200f0438000e10f500003003200e0
:104380008dc8bf00e14f50000a003a00d3c8bf00fb
:10439000e14f500003003a003046800013f307005d
:1043a000020037003041800010f3070030418000e8
:1043b000204188000000eb00f04388000040eb0043
:1043c0008de8b7000c050700360037004dc8bf0068
:1043d0000004e00033003a000040eb00b2e9b7000f
:1043e00050c4b3007ae9b70020c5b3007be9b70039
:1043f00020c5b3007ce9b700b0c5b3007de9b700c4
:1044000000c3b3007ee9b70000c3b3007fe9b70083
:1044100000c3b30080e9b70080c3b30081e9b700ef
:104420000000eb00000c8800f3040700d722a9006d
:10443000ca82a90010c0b3009be8b7000000eb00df
:10444000f04088000000eb001041880015003700a4
:104450009ac8bf00e14f500012003a000040eb0044
:10446000b2e9b7000000eb00000c8800e20407008e
:10447000d722a900ca82a900e982a8000000eb00a7
:10448000f04088000000eb00104188003fc9bf00e9
:10449000e14f500003003a003fc9bf00e14f500018
:1044a000fdff32004f0478000080fa000000060093
:1044b0000000fa0094c8bf000004e0002a003a009f
:1044c0000040eb00b2e9b700d0c4b3007ae9b7000e
:1044d00090c4b3007be9b70070c4b3007ce9b700b7
:1044e000b0c5b3007de9b700d0c4b3007ee9b70022
:1044f000f0c4b3007fe9b70040c4b30080e9b7005f
:1045000050c4b30081e9b7000040eb0093e8b70066
:104510000040eb0095e8b70010c0b30094e8b70086
:104520000040eb0097e8b700cb02a900e9a2a90080
:10453000e9c2a8000040eb00a8e9b7000040eb008a
:10454000a9e9b700ca82a900d722a900c7a2a90079
:10455000cba2a90010c0b3008de8b7000040eb006b
:10456000d4e8b700700037009ac8bf000004e0002c
:1045700051003a0094c8bf00e14f50004e003a008d
:1045800097c8bf00e14f50004b003a002ec9bf0052
:104590000004e00029003a000040eb00b2e9b70057
:1045a000b249a800b2c9a800f1478000d0478000f6
:1045b000808f500003003a008dc8bf00e14f5000cb
:1045c00004003a00d04780005df20700d047800029
:1045d000f047880001488000e0478000808f50004d
:1045e00003003a008dc8bf00e14f500004003a00bc
:1045f000e04780007df20700e04780000048880027
:104600000040eb0044e8b700cba2a900d722a900e4
:10461000ca82a900cb02a9000000eb003048880044
:104620000000eb00000c8800f0ff2100f04788003c
:10463000f0ff2100004888003b0037002ec9bf0072
:10464000e14f500038003a000040eb00b2e9b700fb
:10465000b2c9a8008141800070418000808f500065
:1046600007003200f0438000e10f500004003a00e0
:104670007041800032f20700704180008041880064
:104680003140800020408000808f500007003200c1
:10469000f0438000e10f500004003a002040800009
:1046a00052f2070020408000304088000000eb00fc
:1046b000f04388001c0037009ac8bf00e14f50004b
:1046c00019003a000040eb00b2e9b700cba2a90004
:1046d000d722a900ca82a900cb02a9000040eb00a2
:1046e0009be8b7000000eb00000c88000000eb0026
:1046f000300c88000040eb0055e8b700e982a800c4
:104700000000eb00f04088000000eb001041880042
:104710003fc9bf00e14f500003003a003fc9bf004e
:10472000e14f5000fdff32000080fa00000006005b
:104730000800fa00881f78002ec9bf000004e000be
:1047400002003a000000eb00804d8800f19020004c
:104750009140780020c3b30080cf50005d003a0044
:10476000804d8000300798003e009000e10f50001f
:104770001e0032003e009000e10f5000070039009b
:104780003e009000e20f50002d0032003e009000ed
:10479000e30f50003e003200050137002ec9bf0074
:1047a0000004e00002013a0010c0b3002ee9b70097
:1047b000cba2a800d722a800ca82a800cb02a900d9
:1047c000e0478000fd000700d04780001f01070080
:1047d00010c0b30055e8b7000000eb003048880077
:1047e00010002000804d8800f100370010002000ec
:1047f000804d8800c19020009140780020c5b30012
:1048000080cf500009003a000040eb0055e8b700a7
:104810000000eb00300c88000040eb002fe9b700ef
:1048200020002000804d8800e1003700e047800034
:10483000e2000700d047800004010700dc003700d9
:104840002fc9bf00f34f500009003600cba2a900ca
:10485000d722a900ca82a900cb02a9000000eb0060
:10486000d600070030002000804d8800d0003700bf
:104870000000eb00300c88002fc9bf000040e800aa
:104880002fe9b70020002000804d8800c8003700c5
:10489000cba2a900d722a900ca82a900cb02a900f5
:1048a0000040eb002ee9b7000040eb0032e9b70012
:1048b0000000eb00c10007000000eb00300c880096
:1048c0000000eb00804d88000040eb0055e8b70089
:1048d000b7003700f19020009140780040c3b3004a
:1048e00080cf5000b2003a00804d80002007980031
:1048f0002e009000e10f5000200032002e009000aa
:10490000e10f5000070039002e009000e20f500028
:104910007f0032002e009000e30f50009200320022
:10492000a30037002ec9bf000004e000a0003a0039
:1049300010c0b3002ee9b700cba2a800d722a80070
:10494000ca82a800cb02a9000040eb0030e9b70002
:104950000040eb0031e9b700e04780009700070016
:104960000000eb00300c880010002000804d880013
:104970000000eb00304888008d003700c190200017
:104980009140780020c5b30080cf500011003a005c
:1049900030c9bf000004e0000e003a0031c9bf007a
:1049a0000004e0000b003a0010c0b30030e9b7008b
:1049b00010002000804d880010c0b30055e8b700fb
:1049c000e04780007d000700d04780009f0007007f
:1049d00077003700c19020009140780020c5b300d7
:1049e00080cf50000d003a0030c9bf00e14f5000a9
:1049f0000a003a0031c9bf000004e00007003a0095
:104a000010002000804d8800e04780006b00070008
:104a1000d04780008d00070065003700c19020005e
:104a20009140780000c5b30080cf500022003a00ca
:104a300030c9bf00e14f50001f003a0031c9bf002c
:104a40000004e0001c003a0010002000804d8800a7
:104a5000e84780006140b90039ee0700008fbe00d2
:104a60000800e00005003d0002002000037824005b
:104a70001e00be005eee0700008fbe000200200098
:104a800003f423001e00be00b8ee07004eef07003f
:104a90004a0007000040eb0055e8b7000000eb00bb
:104aa000300c88000040eb002fe9b70010c0b300c5
:104ab00031e9b7003e003700c190200091407800f6
:104ac00020c5b30080cf500039003a0030c9bf0084
:104ad000e14f500036003a0031c9bf00e14f5000ad
:104ae00033003a0020002000804d88000000eb00d9
:104af000320007000000eb00300c88000040eb00a3
:104b00002fe9b70020002000804d880028003700e2
:104b10002fc9bf00f34f50000b003600cba2a900f5
:104b2000d722a900ca82a900cb02a9000000eb008d
:104b3000220007000000eb00300c8800300020004d
:104b4000804d88001a0037000000eb00300c880010
:104b50002fc9bf000040e8002fe9b7002000200067
:104b6000804d880012003700cba2a900d722a900ef
:104b7000ca82a900cb02a9000040eb002ee9b700d1
:104b80000040eb0030e9b7000040eb0031e9b7002e
:104b90000000eb00090007000000eb00300c88006b
:104ba0000040eb0032e9b7000000eb00804d8800c8
:104bb0004f0478000080fa00000006000600fa00aa
:104bc000000f78001e007800cf80de00dced0700cb
:104bd00010079800210798001e00e00007003d0024
:104be00002002000037824001e009000ae00900018
:104bf000ffed07001007980021079800d2a32000be
:104c0000730a24001e009000ae00900057ee0700cb
:104c1000d2a32000731a2400f5ed0700eaee070086
:104c20006045880061458000b0b72000808f50004b
:104c300002003600c0b72000604588006045800053
:104c4000000c88000080fa00000006000600fa0050
:104c5000000f78001e007800cf80de00b8ed07005e
:104c600010079800210798001e00e00007003d0093
:104c700002002000037824001e009000ae00900087
:104c8000dbed07001007980021079800d2a3200051
:104c9000730024001e009000ae00900033ee070069
:104ca000c9ee0700204488000080fa0000000600da
:104cb0000200fa00889fbe008a9fbe00b0458000b7
:104cc00001002000c04f8800d14f880020448000a0
:104cd00001002000e04f8800f14f8800e24f800083
:104ce000f34f8000c04f8000d14f80000000510082
:104cf00081805900404f8800514f8800404f80000c
:104d0000514f8000000f78001e0078000000e00086
:104d100003003d001e0178000201ea00020f780046
:104d20001e0178006110b900805088009150880001
:104d30000000200001002400c04e8800d14e8800f1
:104d40000000200001f82300e04e8800f14e8800aa
:104d50000000200001f82300004f8800114f880058
:104d60000071220001002000a04f8800b14f880090
:104d700040002000304b8800424f8000534f80009d
:104d80004050800051508000000051008180590047
:104d90002050880031508800404f8000514f8000e3
:104da00067ed07000200200003f02300a1ee0700da
:104db0000000e00009003c00404f8000514f80009f
:104dc0005fed07000200200003f02b00e5ed070077
:104dd0000000e000010035003e003700604f800019
:104de000714f800056ed07000005be00c84e8000e0
:104df000d94e8000404f8000514f800050ed070099
:104e00000001be000800be00d8ed07000001be0092
:104e10000a00be0076ed07000005be00e84e8000e7
:104e2000f94e8000405080005150800044ed070052
:104e30000001be000800be00cced07000001be006e
:104e40000a00be006aed07000005be00084f8000a2
:104e5000194f8000605080007150800038ed0700cd
:104e60000001be000800be00c0ed07000001be004a
:104e70000a00be005eed0700f0ed0700604f8800fd
:104e8000714f8800604f8000714f8000e00f50002c
:104e9000e08f580004003c006000b800604f8800bc
:104ea000714f88000b003700624f8000734f800005
:104eb000a04f8000b14f8000800f5100818f5900ba
:104ec00004003400a04f8000b14f8000604f880084
:104ed000714f880040508000515080006050880021
:104ee00071508800404f8000514f80004050880032
:104ef00051508800644f8000754f8000304b800017
:104f00006101b8000400be004cee0700204b880091
:104f1000204b80001048880010488000300c88002a
:104f20004f05be004f04be000080fa0000000600de
:104f30000a00fa00400798004e0090006101b80096
:104f400000c02f00f10720000200400083804800cd
:104f500020079800310798000080eb0010079800a8
:104f600032c0bf000080fb00000f78002e009000d0
:104f7000be0090004008de000100200032e0b700d3
:104f80002e009000be0090001000ba00100798009c
:104f90001e00780032e0b7001e0090000080fa008a
:104fa000000006001000fa00400798005107980022
:104fb0000000eb00300798004e0090006101b8003f
:104fc00000c02f00f107200002004000838048004d
:104fd000100798002107980032c0bf000080fb0036
:104fe000000f780061c7bf000042b2000004e0007b
:104ff00049003a001e009000ae0090004008de001c
:10500000010020000074a10064e7b7001e009000ba
:10501000103b880061c7a80001762000914078000d
:1050200000c8b30000c0600041c4b300014070007c
:1050300060e7b70050052000303b8800a00a200040
:10504000303b880061e7a80000000000000000007d
:105050006007980061c7bf0001c8b300014060004d
:105060000004e000fbff3a004e009000b0ff070094
:10507000e10f400026003a001e009000ae009000b4
:105080004008de000100200032e0b7001e00900062
:10509000ae0090005e0190000208bb0061c7a8004e
:1050a000017620009140780000c8b30000c0600085
:1050b0000024a00060e7b70050052000303b8800c6
:1050c000a00a2000303b880061e7a8000000000033
:1050d000000000007007980061c7bf0001c8b3005e
:1050e000014060000004e000fbff3a004e00900029
:1050f0008fff0700800078005e009000808f5000d6
:105100000500320010002000300798000200370030
:1051100020002000300798001e00780032e0b70021
:105120003e0090000080fa00000006000400fa0033
:10513000881f7800f200070091020700f2020700c2
:10514000c04b8800c14b8000004b2000808f500076
:1051500003003a0040062000704d8800060037002a
:10516000c14b800000322000808f500002003a00c6
:1051700040062000704d8800460107000040eb000b
:10518000b2e9b700cc22a90000003700acc9bf00cb
:10519000e14f500002003a00f4f80700fbff37002f
:1051a000acc9bf00e24f500077003a00c0fc0700d6
:1051b000c19020009140780000c5b30080cf50001e
:1051c000030032002ec9bf00e14f500002003a0038
:1051d00057fd0700edff3700019120009140780056
:1051e00000c5b30080cf500021003a001600370000
:1051f0000040eb00b2e9b700cba2a800d722a8007c
:10520000ca82a800cb02a90070c4b3007ae9b70033
:1052100010c4b3007be9b70030c5b3007ce9b70028
:10522000f0c2b3007de9b700f0c4b3007ee9b70077
:1052300030c4b3007fe9b70060c5b30080e9b700b0
:10524000f0c2b30081e9b7000191200091407800dd
:1052500000c5b30080cf5000e5ff3200cba2a9000b
:10526000d722a900ca82a900cb02a900c7ff370034
:10527000d19020009140780000c5b30080cf50004d
:10528000c2ff3a000000eb005045880036003700ae
:1052900050458000ea0f500033003e000040eb0014
:1052a000b2e9b70090c4b3007ae9b700e0c4b30034
:1052b0007be9b70030c4b3007ce9b70080c4b30019
:1052c0007de9b7005045800048ef07005845800051
:1052d0006140b9001aec0700008fbe000800e00032
:1052e00005003d0002002000037824001e00be00df
:1052f0003fec0700008fbe0002002000832c24003a
:105300001e00be0099ec07002fed0700300c88004e
:105310000000eb00804688000d0037000000eb0025
:105320006046880003003700604680000000e80007
:105330006046880061468000f0522700808f500050
:10534000f9ff3600804680000000e80080468800b3
:1053500080468000f30f5000f0ff3600504580007b
:105360000000e80050458800d1902000914078006e
:1053700000c5b30080cf5000c5ff32000000eb0035
:10538000300c880081ff3700acc9bf00e34f5000ec
:105390007eff3a0069fa0700d7c8bf00e14f50000e
:1053a0007aff3a00d184200091407800f0c4b30025
:1053b00080cf500075ff3a000040eb00d7e8b700ff
:1053c000f20207009de8b700e189200091407800d3
:1053d0009dc8bf0080cf50006cff3200d1892000f3
:1053e0009140780090c5b30080cf500041003a0052
:1053f000d3c8bf00e14f50001e003a000040eb0050
:10540000d3e8b70010c0b300d4e8b7000040eb0009
:10541000d5e8b700e9e2a9006000b800f0468800ce
:10542000014788006000b8001047880021478800c5
:105430006000b80030478800414788006000b8002d
:1054400050478800614788006000b80070478800b6
:10545000814788006000b80090478800a147880015
:105460000040eb00d6e8b7000000eb005046880093
:105470002000370010c0b300d3e8b70010c0b3005d
:10548000d4e8b700e9e2a8000000eb00404688003d
:1054900010c0b300d5e8b7006000b800f04688003f
:1054a000014788006000b800104788002147880045
:1054b0006000b80030478800414788006000b800ad
:1054c00050478800614788006000b8007047880036
:1054d000814788006000b80090478800a147880095
:1054e0000000eb005046880041468000400020004c
:1054f000acfe07009dc8bf009ee8b70023ff370041
:105500000000fa000080eb00401588000900070049
:1055100047ed07000c0007001d000700deee070046
:105520002d0007008f000700d722a9000080fa0095
:10553000000006000000fa00c682a900c702a90008
:105540000080fa00000006000000fa000000eb00f6
:10555000200888000000eb00000888009032270037
:1055600010088800e109200091407800f0c8b300dd
:1055700000c060000044a0009ee0b7008460a90065
:105580008c60a80005e1a8000080fa000000060079
:105590000000fa000000eb00f00888000000eb00bb
:1055a000a00888000080eb00d0088800e1092000f6
:1055b00091407800f0c8b30000c060000044a00033
:1055c0009ee0b70086a0a9008ea0a8001fe1a80059
:1055d0000080fa00000006000000fa000000eb0066
:1055e000200c88000000eb00000c88000000eb009d
:1055f000100c8800411820009140780080cfb30043
:1056000000c060006040b30084e1b7000000eb0020
:10561000500c88000000eb00300c88000000eb000c
:10562000400c8800a11820009140780080cfb30082
:1056300000c060006040b3008ae1b70050b82000ad
:1056400060088800710920009140780080cfb30085
:1056500000c060000014a00097e0b70084c0a9005b
:105660008cc0a8000111200091407800f0ccb3005c
:1056700000c0600010e1b70011e1a8000000eb00dd
:10568000000c88000000eb00300c88000080fa005d
:10569000000006000000fa000080eb0040158800c2
:1056a000007f2b00401588000000eb00501588009b
:1056b000f080240050158800112a200091407800c5
:1056c000c0cfb30000c06000a1e2b700012a2000f3
:1056d0009140780000ceb30000c07000a0e2b70097
:1056e000a3c2bf007f406000a3e2b700a342a800ae
:1056f000212a20009140780030ccb30000c0600027
:105700004041b300a2e2b700a222a900a202a90070
:10571000512a20009140780000ceb30000c0600004
:105720000004a000a5e2b700a4e2a900412a2000dd
:105730009140780000ccb30000c060003041b3005d
:10574000a4e2b700a682a9008560a9008d60a80028
:10575000a1a2a900a1e2a800a042a8000080fa002e
:10576000000006000000fa00e00b2000a0108800f6
:1057700000802800601088008520a9000f42a80042
:105780008d20a800e00b2000f01088000080280089
:10579000b01088008700a9001942a8008f00a80057
:1057a0000080fa00000006000200fa00004f7800b6
:1057b0000fc2bf00624060000004e000fcff3a003e
:1057c0001e80fb00801088000080fa0000000600a8
:1057d0000200fa00004f780019c2bf00624060006a
:1057e0000004e000fcff3a001e80fb00d01088009f
:1057f0000080fa00000006000400fa000040eb0000
:10580000304798000040eb00204798000040eb0034
:1058100049e8b70070418000000f780040c2b30033
:10582000e1ff07001e0078002047980091842000c7
:10583000914078002e40900000c0400049e8b70039
:105840002e409000d8ff07001e0078004800de00c0
:105850003047980091842000914078003e409000ad
:1058600000c0400049e8b7003e409000ceff07006e
:1058700091842000914078009cc8bf0000c0400087
:1058800049e8b7009cc8bf00c7ff070049c8bf0070
:10589000c5ff07000080fa00000006000000fa00c3
:1058a000b1408000d0562000808f50001900360093
:1058b000b140800080702000808f500015003e00b5
:1058c00050c4b3007ae9b70020c5b3007be9b70044
:1058d00020c5b3007ce9b700b0c5b3007de9b700cf
:1058e00000c3b3007ee9b70000c3b3007fe9b7008f
:1058f00000c3b30080e9b70020c3b30081e9b7005b
:1059000090c5b3009ce8b70010c0b3009ae8b70098
:1059100099003700b1408000108a2000808f50002d
:1059200019003600b1408000c0a32000808f5000d5
:1059300015003e0050c4b3007ae9b70020c5b3009b
:105940007be9b70020c5b3007ce9b700b0c5b30060
:105950007de9b70000c3b3007ee9b70000c3b30020
:105960007fe9b70000c3b30080e9b70030c3b300dc
:1059700081e9b70090c5b3009ce8b70010c0b30040
:105980009ae8b7007c003700b140800090232000e7
:10599000808f500019003600b1408000403d20004b
:1059a000808f500015003e0050c4b3007ae9b70064
:1059b00020c5b3007be9b70020c5b3007ce9b70080
:1059c000b0c5b3007de9b70000c3b3007ee9b700fe
:1059d00000c3b3007fe9b70000c3b30080e9b7009c
:1059e00010c3b30081e9b70090c5b3009ce8b700cd
:1059f00010c0b3009ae8b7005f003700e1902000c4
:105a00009140780050c4b30080cf500004003a00a9
:105a10003148800070022000808f500003003e005b
:105a200032c9bf00e14f500017003a0050c4b30024
:105a30007ae9b70020c5b3007be9b70020c5b30001
:105a40007ce9b700b0c5b3007de9b70000c3b3007f
:105a50007ee9b70000c3b3007fe9b70000c3b3001d
:105a600080e9b70050c3b30081e9b70010c0b300ac
:105a700032e9b70090c5b3009ce8b70010c0b3008e
:105a80009ae8b7003c00370001408000f07c20001d
:105a9000808f50000a00360034c9bf00e14f50002b
:105aa00007003a0090c5b3009ce8b70010c0b300ef
:105ab0009ae8b70010c0b3009fe8b7002e00370087
:105ac0003ec9bf00e14f50001a003a003ac9bf007a
:105ad0000004e00017003a0050c4b3007ae9b700b0
:105ae00020c5b3007be9b70020c5b3007ce9b7004f
:105af000b0c5b3007de9b70000c3b3007ee9b700cd
:105b000000c3b3007fe9b70010c3b30080e9b7005a
:105b100000c3b30081e9b70090c5b3009ce8b700ab
:105b200010c0b3009ae8b70010c0b3003fe9b70057
:105b3000110037009fc8bf000004e0000e003a00cb
:105b40000040eb009ae8b700e982a900c189200073
:105b50009140780090c5b30080cf500004003a0017
:105b600010c0b3008de8b70010002000f04388009b
:105b7000e0c4b3009ce8b7000080fa000000060013
:105b80000000fa00c0c5b3007ae9b700c0c5b30091
:105b90007be9b700c0c5b3007ce9b700c0c5b3005e
:105ba0007de9b700c0c5b3007ee9b700c0c5b3004a
:105bb0007fe9b700c0c5b30080e9b700c0c5b30036
:105bc00081e9b700e9a2a800e9c2a800e982a8001b
:105bd000e9e2a8001000200000448800803e200078
:105be00032000700e9a2a900e9c2a900e982a900e0
:105bf000e9e2a90010c4b3007ae9b70040c4b300d9
:105c00007be9b700f0c4b3007ce9b70020c5b3005e
:105c10007de9b70070c5b3007ee9b70050c4b3009a
:105c20007fe9b700c0c4b30080e9b70040c4b30047
:105c300081e9b70080b521001c00070020c5b30032
:105c40007ae9b70050c4b3007be9b70060c5b30080
:105c50007ce9b700e0c4b3007de9b70000c3b3003e
:105c60007ee9b70000c3b3007fe9b70040c3b300cb
:105c700080e9b70010c3b30081e9b700b2c9a8003a
:105c800010c0b300aae9b7000000eb000044880090
:105c900080b5210005000700b2c9a9000040eb0053
:105ca000aae9b7000080fa00000006000600fa002a
:105cb000200798000000eb00100798000000eb00a0
:105cc000000f78000a0037000000eb00000f78009a
